{
	"contracts/zombiefactory.sol": {
		"ZombieFactory": {
			"abi": [
				{
					"anonymous": false,
					"inputs": [
						{
							"indexed": false,
							"internalType": "uint256",
							"name": "zombieId",
							"type": "uint256"
						},
						{
							"indexed": false,
							"internalType": "string",
							"name": "name",
							"type": "string"
						},
						{
							"indexed": false,
							"internalType": "uint256",
							"name": "dna",
							"type": "uint256"
						}
					],
					"name": "NewZombie",
					"type": "event"
				},
				{
					"anonymous": false,
					"inputs": [
						{
							"indexed": true,
							"internalType": "address",
							"name": "previousOwner",
							"type": "address"
						},
						{
							"indexed": true,
							"internalType": "address",
							"name": "newOwner",
							"type": "address"
						}
					],
					"name": "OwnershipTransferred",
					"type": "event"
				},
				{
					"inputs": [
						{
							"internalType": "string",
							"name": "_name",
							"type": "string"
						}
					],
					"name": "createZombie",
					"outputs": [],
					"stateMutability": "nonpayable",
					"type": "function"
				},
				{
					"inputs": [],
					"name": "isOwner",
					"outputs": [
						{
							"internalType": "bool",
							"name": "",
							"type": "bool"
						}
					],
					"stateMutability": "view",
					"type": "function"
				},
				{
					"inputs": [],
					"name": "owner",
					"outputs": [
						{
							"internalType": "address",
							"name": "",
							"type": "address"
						}
					],
					"stateMutability": "view",
					"type": "function"
				},
				{
					"inputs": [],
					"name": "renounceOwnership",
					"outputs": [],
					"stateMutability": "nonpayable",
					"type": "function"
				},
				{
					"inputs": [
						{
							"internalType": "address",
							"name": "newOwner",
							"type": "address"
						}
					],
					"name": "transferOwnership",
					"outputs": [],
					"stateMutability": "nonpayable",
					"type": "function"
				},
				{
					"inputs": [
						{
							"internalType": "uint256",
							"name": "",
							"type": "uint256"
						}
					],
					"name": "zombies",
					"outputs": [
						{
							"internalType": "string",
							"name": "name",
							"type": "string"
						},
						{
							"internalType": "uint256",
							"name": "dna",
							"type": "uint256"
						},
						{
							"internalType": "uint32",
							"name": "level",
							"type": "uint32"
						},
						{
							"internalType": "uint32",
							"name": "readyTime",
							"type": "uint32"
						},
						{
							"internalType": "uint16",
							"name": "winCount",
							"type": "uint16"
						},
						{
							"internalType": "uint16",
							"name": "lossCount",
							"type": "uint16"
						}
					],
					"stateMutability": "view",
					"type": "function"
				}
			],
			"devdoc": {
				"kind": "dev",
				"methods": {
					"isOwner()": {
						"returns": {
							"_0": "true if `msg.sender` is the owner of the contract."
						}
					},
					"owner()": {
						"returns": {
							"_0": "the address of the owner."
						}
					},
					"renounceOwnership()": {
						"details": "Allows the current owner to relinquish control of the contract."
					},
					"transferOwnership(address)": {
						"details": "Allows the current owner to transfer control of the contract to a newOwner.",
						"params": {
							"newOwner": "The address to transfer ownership to."
						}
					}
				},
				"version": 1
			},
			"evm": {
				"assembly": "    /* \"contracts/zombiefactory.sol\":87:1878  contract ZombieFactory is Ownable {... */\n  mstore(0x40, 0x80)\n    /* \"contracts/zombiefactory.sol\":550:552  16 */\n  0x10\n    /* \"contracts/zombiefactory.sol\":530:552  uint256 dnaDigits = 16 */\n  0x01\n  sstore\n    /* \"contracts/zombiefactory.sol\":586:595  dnaDigits */\n  sload(0x01)\n    /* \"contracts/zombiefactory.sol\":580:582  10 */\n  0x0a\n    /* \"contracts/zombiefactory.sol\":580:595  10 ** dnaDigits */\n  tag_1\n  swap2\n  swap1\n  tag_2\n  jump\t// in\ntag_1:\n    /* \"contracts/zombiefactory.sol\":559:595  uint256 dnaModulus = 10 ** dnaDigits */\n  0x02\n  sstore\n    /* \"contracts/zombiefactory.sol\":625:631  1 days */\n  0x015180\n    /* \"contracts/zombiefactory.sol\":602:631  uint256 cooldownTime = 1 days */\n  0x03\n  sstore\n    /* \"contracts/zombiefactory.sol\":87:1878  contract ZombieFactory is Ownable {... */\n  callvalue\n  dup1\n  iszero\n  tag_3\n  jumpi\n  revert(0x00, 0x00)\ntag_3:\n  pop\n    /* \"contracts/ownable.sol\":563:573  msg.sender */\n  caller\n    /* \"contracts/ownable.sol\":554:560  _owner */\n  0x00\n  0x00\n    /* \"contracts/ownable.sol\":554:573  _owner = msg.sender */\n  0x0100\n  exp\n  dup2\n  sload\n  dup2\n  0xffffffffffffffffffffffffffffffffffffffff\n  mul\n  not\n  and\n  swap1\n  dup4\n  0xffffffffffffffffffffffffffffffffffffffff\n  and\n  mul\n  or\n  swap1\n  sstore\n  pop\n    /* \"contracts/ownable.sol\":618:624  _owner */\n  0x00\n  0x00\n  swap1\n  sload\n  swap1\n  0x0100\n  exp\n  swap1\n  div\n  0xffffffffffffffffffffffffffffffffffffffff\n  and\n    /* \"contracts/ownable.sol\":585:625  OwnershipTransferred(address(0), _owner) */\n  0xffffffffffffffffffffffffffffffffffffffff\n  and\n    /* \"contracts/ownable.sol\":614:615  0 */\n  0x00\n    /* \"contracts/ownable.sol\":585:625  OwnershipTransferred(address(0), _owner) */\n  0xffffffffffffffffffffffffffffffffffffffff\n  and\n  0x8be0079c531659141344cd1fd0a4f28419497f9722a3daafe3b4186f6b6457e0\n  mload(0x40)\n  mload(0x40)\n  dup1\n  swap2\n  sub\n  swap1\n  log3\n    /* \"contracts/zombiefactory.sol\":87:1878  contract ZombieFactory is Ownable {... */\n  jump(tag_6)\n    /* \"#utility.yul\":7:187   */\ntag_7:\n    /* \"#utility.yul\":55:132   */\n  0x4e487b7100000000000000000000000000000000000000000000000000000000\n    /* \"#utility.yul\":52:53   */\n  0x00\n    /* \"#utility.yul\":45:133   */\n  mstore\n    /* \"#utility.yul\":152:156   */\n  0x11\n    /* \"#utility.yul\":149:150   */\n  0x04\n    /* \"#utility.yul\":142:157   */\n  mstore\n    /* \"#utility.yul\":176:180   */\n  0x24\n    /* \"#utility.yul\":173:174   */\n  0x00\n    /* \"#utility.yul\":166:181   */\n  revert\n    /* \"#utility.yul\":193:295   */\ntag_8:\n    /* \"#utility.yul\":235:243   */\n  0x00\n    /* \"#utility.yul\":282:287   */\n  dup2\n    /* \"#utility.yul\":279:280   */\n  0x01\n    /* \"#utility.yul\":275:288   */\n  shr\n    /* \"#utility.yul\":254:288   */\n  swap1\n  pop\n    /* \"#utility.yul\":193:295   */\n  swap2\n  swap1\n  pop\n  jump\t// out\n    /* \"#utility.yul\":301:1149   */\ntag_9:\n    /* \"#utility.yul\":362:367   */\n  0x00\n    /* \"#utility.yul\":369:373   */\n  0x00\n    /* \"#utility.yul\":393:399   */\n  dup3\n    /* \"#utility.yul\":384:399   */\n  swap2\n  pop\n    /* \"#utility.yul\":417:422   */\n  dup4\n    /* \"#utility.yul\":408:422   */\n  swap1\n  pop\n    /* \"#utility.yul\":431:1143   */\ntag_16:\n    /* \"#utility.yul\":452:453   */\n  0x01\n    /* \"#utility.yul\":442:450   */\n  dup6\n    /* \"#utility.yul\":439:454   */\n  gt\n    /* \"#utility.yul\":431:1143   */\n  iszero\n  tag_18\n  jumpi\n    /* \"#utility.yul\":547:551   */\n  dup1\n    /* \"#utility.yul\":542:545   */\n  dup7\n    /* \"#utility.yul\":538:552   */\n  div\n    /* \"#utility.yul\":532:536   */\n  dup2\n    /* \"#utility.yul\":529:553   */\n  gt\n    /* \"#utility.yul\":526:576   */\n  iszero\n  tag_19\n  jumpi\n    /* \"#utility.yul\":556:574   */\n  tag_20\n  tag_7\n  jump\t// in\ntag_20:\n    /* \"#utility.yul\":526:576   */\ntag_19:\n    /* \"#utility.yul\":606:607   */\n  0x01\n    /* \"#utility.yul\":596:604   */\n  dup6\n    /* \"#utility.yul\":592:608   */\n  and\n    /* \"#utility.yul\":589:1040   */\n  iszero\n  tag_21\n  jumpi\n    /* \"#utility.yul\":1021:1025   */\n  dup1\n    /* \"#utility.yul\":1014:1019   */\n  dup3\n    /* \"#utility.yul\":1010:1026   */\n  mul\n    /* \"#utility.yul\":1001:1026   */\n  swap2\n  pop\n    /* \"#utility.yul\":589:1040   */\ntag_21:\n    /* \"#utility.yul\":1071:1075   */\n  dup1\n    /* \"#utility.yul\":1065:1069   */\n  dup2\n    /* \"#utility.yul\":1061:1076   */\n  mul\n    /* \"#utility.yul\":1053:1076   */\n  swap1\n  pop\n    /* \"#utility.yul\":1101:1133   */\n  tag_22\n    /* \"#utility.yul\":1124:1132   */\n  dup6\n    /* \"#utility.yul\":1101:1133   */\n  tag_8\n  jump\t// in\ntag_22:\n    /* \"#utility.yul\":1089:1133   */\n  swap5\n  pop\n    /* \"#utility.yul\":431:1143   */\n  jump(tag_16)\ntag_18:\n    /* \"#utility.yul\":301:1149   */\n  swap5\n  pop\n  swap5\n  swap3\n  pop\n  pop\n  pop\n  jump\t// out\n    /* \"#utility.yul\":1155:2228   */\ntag_10:\n    /* \"#utility.yul\":1209:1214   */\n  0x00\n    /* \"#utility.yul\":1400:1408   */\n  dup3\n    /* \"#utility.yul\":1390:1430   */\n  tag_24\n  jumpi\n    /* \"#utility.yul\":1421:1422   */\n  0x01\n    /* \"#utility.yul\":1412:1422   */\n  swap1\n  pop\n    /* \"#utility.yul\":1423:1428   */\n  jump(tag_23)\n    /* \"#utility.yul\":1390:1430   */\ntag_24:\n    /* \"#utility.yul\":1449:1453   */\n  dup2\n    /* \"#utility.yul\":1439:1475   */\n  tag_25\n  jumpi\n    /* \"#utility.yul\":1466:1467   */\n  0x00\n    /* \"#utility.yul\":1457:1467   */\n  swap1\n  pop\n    /* \"#utility.yul\":1468:1473   */\n  jump(tag_23)\n    /* \"#utility.yul\":1439:1475   */\ntag_25:\n    /* \"#utility.yul\":1535:1539   */\n  dup2\n    /* \"#utility.yul\":1583:1584   */\n  0x01\n    /* \"#utility.yul\":1578:1605   */\n  dup2\n  eq\n  tag_27\n  jumpi\n    /* \"#utility.yul\":1619:1620   */\n  0x02\n    /* \"#utility.yul\":1614:1805   */\n  dup2\n  eq\n  tag_28\n  jumpi\n    /* \"#utility.yul\":1528:1805   */\n  jump(tag_26)\n    /* \"#utility.yul\":1578:1605   */\ntag_27:\n    /* \"#utility.yul\":1596:1597   */\n  0x01\n    /* \"#utility.yul\":1587:1597   */\n  swap2\n  pop\n    /* \"#utility.yul\":1598:1603   */\n  pop\n  jump(tag_23)\n    /* \"#utility.yul\":1614:1805   */\ntag_28:\n    /* \"#utility.yul\":1659:1662   */\n  0xff\n    /* \"#utility.yul\":1649:1657   */\n  dup5\n    /* \"#utility.yul\":1646:1663   */\n  gt\n    /* \"#utility.yul\":1643:1686   */\n  iszero\n  tag_29\n  jumpi\n    /* \"#utility.yul\":1666:1684   */\n  tag_30\n  tag_7\n  jump\t// in\ntag_30:\n    /* \"#utility.yul\":1643:1686   */\ntag_29:\n    /* \"#utility.yul\":1715:1723   */\n  dup4\n    /* \"#utility.yul\":1712:1713   */\n  0x02\n    /* \"#utility.yul\":1708:1724   */\n  exp\n    /* \"#utility.yul\":1699:1724   */\n  swap2\n  pop\n    /* \"#utility.yul\":1750:1753   */\n  dup5\n    /* \"#utility.yul\":1743:1748   */\n  dup3\n    /* \"#utility.yul\":1740:1754   */\n  gt\n    /* \"#utility.yul\":1737:1777   */\n  iszero\n  tag_31\n  jumpi\n    /* \"#utility.yul\":1757:1775   */\n  tag_32\n  tag_7\n  jump\t// in\ntag_32:\n    /* \"#utility.yul\":1737:1777   */\ntag_31:\n    /* \"#utility.yul\":1790:1795   */\n  pop\n  jump(tag_23)\n    /* \"#utility.yul\":1528:1805   */\ntag_26:\n  pop\n    /* \"#utility.yul\":1914:1916   */\n  0x20\n    /* \"#utility.yul\":1904:1912   */\n  dup4\n    /* \"#utility.yul\":1901:1917   */\n  lt\n    /* \"#utility.yul\":1895:1898   */\n  0x0133\n    /* \"#utility.yul\":1889:1893   */\n  dup4\n    /* \"#utility.yul\":1886:1899   */\n  lt\n    /* \"#utility.yul\":1882:1918   */\n  and\n    /* \"#utility.yul\":1864:1866   */\n  0x4e\n    /* \"#utility.yul\":1854:1862   */\n  dup5\n    /* \"#utility.yul\":1851:1867   */\n  lt\n    /* \"#utility.yul\":1846:1848   */\n  0x0b\n    /* \"#utility.yul\":1840:1844   */\n  dup5\n    /* \"#utility.yul\":1837:1849   */\n  lt\n    /* \"#utility.yul\":1833:1868   */\n  and\n    /* \"#utility.yul\":1817:1928   */\n  or\n    /* \"#utility.yul\":1814:2060   */\n  iszero\n  tag_33\n  jumpi\n    /* \"#utility.yul\":1970:1978   */\n  dup3\n    /* \"#utility.yul\":1964:1968   */\n  dup3\n    /* \"#utility.yul\":1960:1979   */\n  exp\n    /* \"#utility.yul\":1951:1979   */\n  swap1\n  pop\n    /* \"#utility.yul\":2005:2008   */\n  dup4\n    /* \"#utility.yul\":1998:2003   */\n  dup2\n    /* \"#utility.yul\":1995:2009   */\n  gt\n    /* \"#utility.yul\":1992:2032   */\n  iszero\n  tag_34\n  jumpi\n    /* \"#utility.yul\":2012:2030   */\n  tag_35\n  tag_7\n  jump\t// in\ntag_35:\n    /* \"#utility.yul\":1992:2032   */\ntag_34:\n    /* \"#utility.yul\":2045:2050   */\n  jump(tag_23)\n    /* \"#utility.yul\":1814:2060   */\ntag_33:\n    /* \"#utility.yul\":2085:2127   */\n  tag_36\n    /* \"#utility.yul\":2123:2126   */\n  dup5\n    /* \"#utility.yul\":2113:2121   */\n  dup5\n    /* \"#utility.yul\":2107:2111   */\n  dup5\n    /* \"#utility.yul\":2104:2105   */\n  0x01\n    /* \"#utility.yul\":2085:2127   */\n  tag_9\n  jump\t// in\ntag_36:\n    /* \"#utility.yul\":2070:2127   */\n  swap3\n  pop\n  swap1\n  pop\n    /* \"#utility.yul\":2159:2163   */\n  dup2\n    /* \"#utility.yul\":2154:2157   */\n  dup5\n    /* \"#utility.yul\":2150:2164   */\n  div\n    /* \"#utility.yul\":2143:2148   */\n  dup2\n    /* \"#utility.yul\":2140:2165   */\n  gt\n    /* \"#utility.yul\":2137:2188   */\n  iszero\n  tag_37\n  jumpi\n    /* \"#utility.yul\":2168:2186   */\n  tag_38\n  tag_7\n  jump\t// in\ntag_38:\n    /* \"#utility.yul\":2137:2188   */\ntag_37:\n    /* \"#utility.yul\":2217:2221   */\n  dup2\n    /* \"#utility.yul\":2210:2215   */\n  dup2\n    /* \"#utility.yul\":2206:2222   */\n  mul\n    /* \"#utility.yul\":2197:2222   */\n  swap1\n  pop\n    /* \"#utility.yul\":1155:2228   */\ntag_23:\n  swap4\n  swap3\n  pop\n  pop\n  pop\n  jump\t// out\n    /* \"#utility.yul\":2234:2311   */\ntag_11:\n    /* \"#utility.yul\":2271:2278   */\n  0x00\n    /* \"#utility.yul\":2300:2305   */\n  dup2\n    /* \"#utility.yul\":2289:2305   */\n  swap1\n  pop\n    /* \"#utility.yul\":2234:2311   */\n  swap2\n  swap1\n  pop\n  jump\t// out\n    /* \"#utility.yul\":2317:2602   */\ntag_2:\n    /* \"#utility.yul\":2377:2382   */\n  0x00\n    /* \"#utility.yul\":2401:2424   */\n  tag_41\n    /* \"#utility.yul\":2419:2423   */\n  dup3\n    /* \"#utility.yul\":2401:2424   */\n  tag_11\n  jump\t// in\ntag_41:\n    /* \"#utility.yul\":2393:2424   */\n  swap2\n  pop\n    /* \"#utility.yul\":2445:2472   */\n  tag_42\n    /* \"#utility.yul\":2463:2471   */\n  dup4\n    /* \"#utility.yul\":2445:2472   */\n  tag_11\n  jump\t// in\ntag_42:\n    /* \"#utility.yul\":2433:2472   */\n  swap3\n  pop\n    /* \"#utility.yul\":2491:2595   */\n  tag_43\n    /* \"#utility.yul\":2528:2594   */\n  0xffffffffffffffffffffffffffffffffffffffffffffffffffffffffffffffff\n    /* \"#utility.yul\":2518:2526   */\n  dup5\n    /* \"#utility.yul\":2512:2516   */\n  dup5\n    /* \"#utility.yul\":2491:2595   */\n  tag_10\n  jump\t// in\ntag_43:\n    /* \"#utility.yul\":2482:2595   */\n  swap1\n  pop\n    /* \"#utility.yul\":2317:2602   */\n  swap3\n  swap2\n  pop\n  pop\n  jump\t// out\n    /* \"contracts/zombiefactory.sol\":87:1878  contract ZombieFactory is Ownable {... */\ntag_6:\n  dataSize(sub_0)\n  dup1\n  dataOffset(sub_0)\n  0x00\n  codecopy\n  0x00\n  return\nstop\n\nsub_0: assembly {\n        /* \"contracts/zombiefactory.sol\":87:1878  contract ZombieFactory is Ownable {... */\n      mstore(0x40, 0x80)\n      callvalue\n      dup1\n      iszero\n      tag_1\n      jumpi\n      revert(0x00, 0x00)\n    tag_1:\n      pop\n      jumpi(tag_2, lt(calldatasize, 0x04))\n      shr(0xe0, calldataload(0x00))\n      dup1\n      0x2052465e\n      eq\n      tag_3\n      jumpi\n      dup1\n      0x715018a6\n      eq\n      tag_4\n      jumpi\n      dup1\n      0x8da5cb5b\n      eq\n      tag_5\n      jumpi\n      dup1\n      0x8f32d59b\n      eq\n      tag_6\n      jumpi\n      dup1\n      0xad822778\n      eq\n      tag_7\n      jumpi\n      dup1\n      0xf2fde38b\n      eq\n      tag_8\n      jumpi\n    tag_2:\n      revert(0x00, 0x00)\n        /* \"contracts/zombiefactory.sol\":817:840  Zombie[] public zombies */\n    tag_3:\n      tag_9\n      0x04\n      dup1\n      calldatasize\n      sub\n      dup2\n      add\n      swap1\n      tag_10\n      swap2\n      swap1\n      tag_11\n      jump\t// in\n    tag_10:\n      tag_12\n      jump\t// in\n    tag_9:\n      mload(0x40)\n      tag_13\n      swap7\n      swap6\n      swap5\n      swap4\n      swap3\n      swap2\n      swap1\n      tag_14\n      jump\t// in\n    tag_13:\n      mload(0x40)\n      dup1\n      swap2\n      sub\n      swap1\n      return\n        /* \"contracts/ownable.sol\":1339:1469  function renounceOwnership() public onlyOwner {... */\n    tag_4:\n      tag_15\n      tag_16\n      jump\t// in\n    tag_15:\n      stop\n        /* \"contracts/ownable.sol\":689:761  function owner() public view returns(address) {... */\n    tag_5:\n      tag_17\n      tag_18\n      jump\t// in\n    tag_17:\n      mload(0x40)\n      tag_19\n      swap2\n      swap1\n      tag_20\n      jump\t// in\n    tag_19:\n      mload(0x40)\n      dup1\n      swap2\n      sub\n      swap1\n      return\n        /* \"contracts/ownable.sol\":987:1072  function isOwner() public view returns(bool) {... */\n    tag_6:\n      tag_21\n      tag_22\n      jump\t// in\n    tag_21:\n      mload(0x40)\n      tag_23\n      swap2\n      swap1\n      tag_24\n      jump\t// in\n    tag_23:\n      mload(0x40)\n      dup1\n      swap2\n      sub\n      swap1\n      return\n        /* \"contracts/zombiefactory.sol\":1682:1873  function createZombie(string memory _name) public {... */\n    tag_7:\n      tag_25\n      0x04\n      dup1\n      calldatasize\n      sub\n      dup2\n      add\n      swap1\n      tag_26\n      swap2\n      swap1\n      tag_27\n      jump\t// in\n    tag_26:\n      tag_28\n      jump\t// in\n    tag_25:\n      stop\n        /* \"contracts/ownable.sol\":1633:1736  function transferOwnership(address newOwner) public onlyOwner {... */\n    tag_8:\n      tag_29\n      0x04\n      dup1\n      calldatasize\n      sub\n      dup2\n      add\n      swap1\n      tag_30\n      swap2\n      swap1\n      tag_31\n      jump\t// in\n    tag_30:\n      tag_32\n      jump\t// in\n    tag_29:\n      stop\n        /* \"contracts/zombiefactory.sol\":817:840  Zombie[] public zombies */\n    tag_12:\n      0x04\n      dup2\n      dup2\n      sload\n      dup2\n      lt\n      tag_33\n      jumpi\n      0x00\n      dup1\n      revert\n    tag_33:\n      swap1\n      0x00\n      mstore\n      keccak256(0x00, 0x20)\n      swap1\n      0x03\n      mul\n      add\n      0x00\n      swap2\n      pop\n      swap1\n      pop\n      dup1\n      0x00\n      add\n      dup1\n      sload\n      tag_35\n      swap1\n      tag_36\n      jump\t// in\n    tag_35:\n      dup1\n      0x1f\n      add\n      0x20\n      dup1\n      swap2\n      div\n      mul\n      0x20\n      add\n      mload(0x40)\n      swap1\n      dup2\n      add\n      0x40\n      mstore\n      dup1\n      swap3\n      swap2\n      swap1\n      dup2\n      dup2\n      mstore\n      0x20\n      add\n      dup3\n      dup1\n      sload\n      tag_37\n      swap1\n      tag_36\n      jump\t// in\n    tag_37:\n      dup1\n      iszero\n      tag_38\n      jumpi\n      dup1\n      0x1f\n      lt\n      tag_39\n      jumpi\n      0x0100\n      dup1\n      dup4\n      sload\n      div\n      mul\n      dup4\n      mstore\n      swap2\n      0x20\n      add\n      swap2\n      jump(tag_38)\n    tag_39:\n      dup3\n      add\n      swap2\n      swap1\n      0x00\n      mstore\n      keccak256(0x00, 0x20)\n      swap1\n    tag_40:\n      dup2\n      sload\n      dup2\n      mstore\n      swap1\n      0x01\n      add\n      swap1\n      0x20\n      add\n      dup1\n      dup4\n      gt\n      tag_40\n      jumpi\n      dup3\n      swap1\n      sub\n      0x1f\n      and\n      dup3\n      add\n      swap2\n    tag_38:\n      pop\n      pop\n      pop\n      pop\n      pop\n      swap1\n      dup1\n      0x01\n      add\n      sload\n      swap1\n      dup1\n      0x02\n      add\n      0x00\n      swap1\n      sload\n      swap1\n      0x0100\n      exp\n      swap1\n      div\n      0xffffffff\n      and\n      swap1\n      dup1\n      0x02\n      add\n      0x04\n      swap1\n      sload\n      swap1\n      0x0100\n      exp\n      swap1\n      div\n      0xffffffff\n      and\n      swap1\n      dup1\n      0x02\n      add\n      0x08\n      swap1\n      sload\n      swap1\n      0x0100\n      exp\n      swap1\n      div\n      0xffff\n      and\n      swap1\n      dup1\n      0x02\n      add\n      0x0a\n      swap1\n      sload\n      swap1\n      0x0100\n      exp\n      swap1\n      div\n      0xffff\n      and\n      swap1\n      pop\n      dup7\n      jump\t// out\n        /* \"contracts/ownable.sol\":1339:1469  function renounceOwnership() public onlyOwner {... */\n    tag_16:\n        /* \"contracts/ownable.sol\":880:889  isOwner() */\n      tag_42\n        /* \"contracts/ownable.sol\":880:887  isOwner */\n      tag_22\n        /* \"contracts/ownable.sol\":880:889  isOwner() */\n      jump\t// in\n    tag_42:\n        /* \"contracts/ownable.sol\":872:890  require(isOwner()) */\n      tag_43\n      jumpi\n      revert(0x00, 0x00)\n    tag_43:\n        /* \"contracts/ownable.sol\":1434:1435  0 */\n      0x00\n        /* \"contracts/ownable.sol\":1397:1437  OwnershipTransferred(_owner, address(0)) */\n      0xffffffffffffffffffffffffffffffffffffffff\n      and\n        /* \"contracts/ownable.sol\":1418:1424  _owner */\n      0x00\n      0x00\n      swap1\n      sload\n      swap1\n      0x0100\n      exp\n      swap1\n      div\n      0xffffffffffffffffffffffffffffffffffffffff\n      and\n        /* \"contracts/ownable.sol\":1397:1437  OwnershipTransferred(_owner, address(0)) */\n      0xffffffffffffffffffffffffffffffffffffffff\n      and\n      0x8be0079c531659141344cd1fd0a4f28419497f9722a3daafe3b4186f6b6457e0\n      mload(0x40)\n      mload(0x40)\n      dup1\n      swap2\n      sub\n      swap1\n      log3\n        /* \"contracts/ownable.sol\":1461:1462  0 */\n      0x00\n        /* \"contracts/ownable.sol\":1444:1450  _owner */\n      0x00\n      0x00\n        /* \"contracts/ownable.sol\":1444:1463  _owner = address(0) */\n      0x0100\n      exp\n      dup2\n      sload\n      dup2\n      0xffffffffffffffffffffffffffffffffffffffff\n      mul\n      not\n      and\n      swap1\n      dup4\n      0xffffffffffffffffffffffffffffffffffffffff\n      and\n      mul\n      or\n      swap1\n      sstore\n      pop\n        /* \"contracts/ownable.sol\":1339:1469  function renounceOwnership() public onlyOwner {... */\n      jump\t// out\n        /* \"contracts/ownable.sol\":689:761  function owner() public view returns(address) {... */\n    tag_18:\n        /* \"contracts/ownable.sol\":726:733  address */\n      0x00\n        /* \"contracts/ownable.sol\":749:755  _owner */\n      0x00\n      0x00\n      swap1\n      sload\n      swap1\n      0x0100\n      exp\n      swap1\n      div\n      0xffffffffffffffffffffffffffffffffffffffff\n      and\n        /* \"contracts/ownable.sol\":742:755  return _owner */\n      swap1\n      pop\n        /* \"contracts/ownable.sol\":689:761  function owner() public view returns(address) {... */\n      swap1\n      jump\t// out\n        /* \"contracts/ownable.sol\":987:1072  function isOwner() public view returns(bool) {... */\n    tag_22:\n        /* \"contracts/ownable.sol\":1026:1030  bool */\n      0x00\n        /* \"contracts/ownable.sol\":1060:1066  _owner */\n      0x00\n      0x00\n      swap1\n      sload\n      swap1\n      0x0100\n      exp\n      swap1\n      div\n      0xffffffffffffffffffffffffffffffffffffffff\n      and\n        /* \"contracts/ownable.sol\":1046:1066  msg.sender == _owner */\n      0xffffffffffffffffffffffffffffffffffffffff\n      and\n        /* \"contracts/ownable.sol\":1046:1056  msg.sender */\n      caller\n        /* \"contracts/ownable.sol\":1046:1066  msg.sender == _owner */\n      0xffffffffffffffffffffffffffffffffffffffff\n      and\n      eq\n        /* \"contracts/ownable.sol\":1039:1066  return msg.sender == _owner */\n      swap1\n      pop\n        /* \"contracts/ownable.sol\":987:1072  function isOwner() public view returns(bool) {... */\n      swap1\n      jump\t// out\n        /* \"contracts/zombiefactory.sol\":1682:1873  function createZombie(string memory _name) public {... */\n    tag_28:\n        /* \"contracts/zombiefactory.sol\":1783:1784  0 */\n      0x00\n        /* \"contracts/zombiefactory.sol\":1751:1767  ownerZombieCount */\n      0x06\n        /* \"contracts/zombiefactory.sol\":1751:1779  ownerZombieCount[msg.sender] */\n      0x00\n        /* \"contracts/zombiefactory.sol\":1768:1778  msg.sender */\n      caller\n        /* \"contracts/zombiefactory.sol\":1751:1779  ownerZombieCount[msg.sender] */\n      0xffffffffffffffffffffffffffffffffffffffff\n      and\n      0xffffffffffffffffffffffffffffffffffffffff\n      and\n      dup2\n      mstore\n      0x20\n      add\n      swap1\n      dup2\n      mstore\n      0x20\n      add\n      0x00\n      keccak256\n      sload\n        /* \"contracts/zombiefactory.sol\":1751:1784  ownerZombieCount[msg.sender] == 0 */\n      eq\n        /* \"contracts/zombiefactory.sol\":1743:1785  require(ownerZombieCount[msg.sender] == 0) */\n      tag_48\n      jumpi\n      revert(0x00, 0x00)\n    tag_48:\n        /* \"contracts/zombiefactory.sol\":1796:1807  uint256 dna */\n      0x00\n        /* \"contracts/zombiefactory.sol\":1810:1829  _generateDna(_name) */\n      tag_49\n        /* \"contracts/zombiefactory.sol\":1823:1828  _name */\n      dup3\n        /* \"contracts/zombiefactory.sol\":1810:1822  _generateDna */\n      tag_50\n        /* \"contracts/zombiefactory.sol\":1810:1829  _generateDna(_name) */\n      jump\t// in\n    tag_49:\n        /* \"contracts/zombiefactory.sol\":1796:1829  uint256 dna = _generateDna(_name) */\n      swap1\n      pop\n        /* \"contracts/zombiefactory.sol\":1840:1865  _createZombie(_name, dna) */\n      tag_51\n        /* \"contracts/zombiefactory.sol\":1854:1859  _name */\n      dup3\n        /* \"contracts/zombiefactory.sol\":1861:1864  dna */\n      dup3\n        /* \"contracts/zombiefactory.sol\":1840:1853  _createZombie */\n      tag_52\n        /* \"contracts/zombiefactory.sol\":1840:1865  _createZombie(_name, dna) */\n      jump\t// in\n    tag_51:\n        /* \"contracts/zombiefactory.sol\":1732:1873  {... */\n      pop\n        /* \"contracts/zombiefactory.sol\":1682:1873  function createZombie(string memory _name) public {... */\n      pop\n      jump\t// out\n        /* \"contracts/ownable.sol\":1633:1736  function transferOwnership(address newOwner) public onlyOwner {... */\n    tag_32:\n        /* \"contracts/ownable.sol\":880:889  isOwner() */\n      tag_54\n        /* \"contracts/ownable.sol\":880:887  isOwner */\n      tag_22\n        /* \"contracts/ownable.sol\":880:889  isOwner() */\n      jump\t// in\n    tag_54:\n        /* \"contracts/ownable.sol\":872:890  require(isOwner()) */\n      tag_55\n      jumpi\n      revert(0x00, 0x00)\n    tag_55:\n        /* \"contracts/ownable.sol\":1702:1730  _transferOwnership(newOwner) */\n      tag_57\n        /* \"contracts/ownable.sol\":1721:1729  newOwner */\n      dup2\n        /* \"contracts/ownable.sol\":1702:1720  _transferOwnership */\n      tag_58\n        /* \"contracts/ownable.sol\":1702:1730  _transferOwnership(newOwner) */\n      jump\t// in\n    tag_57:\n        /* \"contracts/ownable.sol\":1633:1736  function transferOwnership(address newOwner) public onlyOwner {... */\n      pop\n      jump\t// out\n        /* \"contracts/zombiefactory.sol\":1488:1674  function _generateDna(string memory _str) private view returns (uint256) {... */\n    tag_50:\n        /* \"contracts/zombiefactory.sol\":1552:1559  uint256 */\n      0x00\n        /* \"contracts/zombiefactory.sol\":1572:1584  uint256 rand */\n      0x00\n        /* \"contracts/zombiefactory.sol\":1624:1628  _str */\n      dup3\n        /* \"contracts/zombiefactory.sol\":1607:1629  abi.encodePacked(_str) */\n      add(0x20, mload(0x40))\n      tag_60\n      swap2\n      swap1\n      tag_61\n      jump\t// in\n    tag_60:\n      mload(0x40)\n      0x20\n      dup2\n      dup4\n      sub\n      sub\n      dup2\n      mstore\n      swap1\n      0x40\n      mstore\n        /* \"contracts/zombiefactory.sol\":1597:1630  keccak256(abi.encodePacked(_str)) */\n      dup1\n      mload\n      swap1\n      0x20\n      add\n      keccak256\n        /* \"contracts/zombiefactory.sol\":1587:1631  (uint256)(keccak256(abi.encodePacked(_str))) */\n      0x00\n      shr\n        /* \"contracts/zombiefactory.sol\":1572:1631  uint256 rand = (uint256)(keccak256(abi.encodePacked(_str))) */\n      swap1\n      pop\n        /* \"contracts/zombiefactory.sol\":1656:1666  dnaModulus */\n      sload(0x02)\n        /* \"contracts/zombiefactory.sol\":1649:1653  rand */\n      dup2\n        /* \"contracts/zombiefactory.sol\":1649:1666  rand % dnaModulus */\n      tag_62\n      swap2\n      swap1\n      tag_63\n      jump\t// in\n    tag_62:\n        /* \"contracts/zombiefactory.sol\":1642:1666  return rand % dnaModulus */\n      swap2\n      pop\n      pop\n        /* \"contracts/zombiefactory.sol\":1488:1674  function _generateDna(string memory _str) private view returns (uint256) {... */\n      swap2\n      swap1\n      pop\n      jump\t// out\n        /* \"contracts/zombiefactory.sol\":954:1288  function _createZombie(string memory _name, uint256 _dna) internal {... */\n    tag_52:\n        /* \"contracts/zombiefactory.sol\":1032:1039  zombies */\n      0x04\n        /* \"contracts/zombiefactory.sol\":1045:1113  Zombie(_name, _dna, 1, uint32(block.timestamp + cooldownTime), 0, 0) */\n      mload(0x40)\n      dup1\n      0xc0\n      add\n      0x40\n      mstore\n      dup1\n        /* \"contracts/zombiefactory.sol\":1052:1057  _name */\n      dup5\n        /* \"contracts/zombiefactory.sol\":1045:1113  Zombie(_name, _dna, 1, uint32(block.timestamp + cooldownTime), 0, 0) */\n      dup2\n      mstore\n      0x20\n      add\n        /* \"contracts/zombiefactory.sol\":1059:1063  _dna */\n      dup4\n        /* \"contracts/zombiefactory.sol\":1045:1113  Zombie(_name, _dna, 1, uint32(block.timestamp + cooldownTime), 0, 0) */\n      dup2\n      mstore\n      0x20\n      add\n        /* \"contracts/zombiefactory.sol\":1065:1066  1 */\n      0x01\n        /* \"contracts/zombiefactory.sol\":1045:1113  Zombie(_name, _dna, 1, uint32(block.timestamp + cooldownTime), 0, 0) */\n      0xffffffff\n      and\n      dup2\n      mstore\n      0x20\n      add\n        /* \"contracts/zombiefactory.sol\":1093:1105  cooldownTime */\n      sload(0x03)\n        /* \"contracts/zombiefactory.sol\":1075:1090  block.timestamp */\n      timestamp\n        /* \"contracts/zombiefactory.sol\":1075:1105  block.timestamp + cooldownTime */\n      tag_65\n      swap2\n      swap1\n      tag_66\n      jump\t// in\n    tag_65:\n        /* \"contracts/zombiefactory.sol\":1045:1113  Zombie(_name, _dna, 1, uint32(block.timestamp + cooldownTime), 0, 0) */\n      0xffffffff\n      and\n      dup2\n      mstore\n      0x20\n      add\n        /* \"contracts/zombiefactory.sol\":1108:1109  0 */\n      0x00\n        /* \"contracts/zombiefactory.sol\":1045:1113  Zombie(_name, _dna, 1, uint32(block.timestamp + cooldownTime), 0, 0) */\n      0xffff\n      and\n      dup2\n      mstore\n      0x20\n      add\n        /* \"contracts/zombiefactory.sol\":1111:1112  0 */\n      0x00\n        /* \"contracts/zombiefactory.sol\":1045:1113  Zombie(_name, _dna, 1, uint32(block.timestamp + cooldownTime), 0, 0) */\n      0xffff\n      and\n      dup2\n      mstore\n      pop\n        /* \"contracts/zombiefactory.sol\":1032:1114  zombies.push(Zombie(_name, _dna, 1, uint32(block.timestamp + cooldownTime), 0, 0)) */\n      swap1\n      dup1\n      0x01\n      dup2\n      sload\n      add\n      dup1\n      dup3\n      sstore\n      dup1\n      swap2\n      pop\n      pop\n      0x01\n      swap1\n      sub\n      swap1\n      0x00\n      mstore\n      keccak256(0x00, 0x20)\n      swap1\n      0x03\n      mul\n      add\n      0x00\n      swap1\n      swap2\n      swap1\n      swap2\n      swap1\n      swap2\n      pop\n      0x00\n      dup3\n      add\n      mload\n      dup2\n      0x00\n      add\n      swap1\n      dup2\n      tag_68\n      swap2\n      swap1\n      tag_69\n      jump\t// in\n    tag_68:\n      pop\n      0x20\n      dup3\n      add\n      mload\n      dup2\n      0x01\n      add\n      sstore\n      0x40\n      dup3\n      add\n      mload\n      dup2\n      0x02\n      add\n      exp(0x0100, 0x00)\n      dup2\n      sload\n      dup2\n      0xffffffff\n      mul\n      not\n      and\n      swap1\n      dup4\n      0xffffffff\n      and\n      mul\n      or\n      swap1\n      sstore\n      pop\n      0x60\n      dup3\n      add\n      mload\n      dup2\n      0x02\n      add\n      exp(0x0100, 0x04)\n      dup2\n      sload\n      dup2\n      0xffffffff\n      mul\n      not\n      and\n      swap1\n      dup4\n      0xffffffff\n      and\n      mul\n      or\n      swap1\n      sstore\n      pop\n      0x80\n      dup3\n      add\n      mload\n      dup2\n      0x02\n      add\n      exp(0x0100, 0x08)\n      dup2\n      sload\n      dup2\n      0xffff\n      mul\n      not\n      and\n      swap1\n      dup4\n      0xffff\n      and\n      mul\n      or\n      swap1\n      sstore\n      pop\n      0xa0\n      dup3\n      add\n      mload\n      dup2\n      0x02\n      add\n      exp(0x0100, 0x0a)\n      dup2\n      sload\n      dup2\n      0xffff\n      mul\n      not\n      and\n      swap1\n      dup4\n      0xffff\n      and\n      mul\n      or\n      swap1\n      sstore\n      pop\n      pop\n      pop\n        /* \"contracts/zombiefactory.sol\":1125:1135  uint256 id */\n      0x00\n        /* \"contracts/zombiefactory.sol\":1155:1156  1 */\n      0x01\n        /* \"contracts/zombiefactory.sol\":1138:1145  zombies */\n      0x04\n        /* \"contracts/zombiefactory.sol\":1138:1152  zombies.length */\n      dup1\n      sload\n      swap1\n      pop\n        /* \"contracts/zombiefactory.sol\":1138:1156  zombies.length - 1 */\n      tag_70\n      swap2\n      swap1\n      tag_71\n      jump\t// in\n    tag_70:\n        /* \"contracts/zombiefactory.sol\":1125:1156  uint256 id = zombies.length - 1 */\n      swap1\n      pop\n        /* \"contracts/zombiefactory.sol\":1187:1197  msg.sender */\n      caller\n        /* \"contracts/zombiefactory.sol\":1167:1180  zombieToOwner */\n      0x05\n        /* \"contracts/zombiefactory.sol\":1167:1184  zombieToOwner[id] */\n      0x00\n        /* \"contracts/zombiefactory.sol\":1181:1183  id */\n      dup4\n        /* \"contracts/zombiefactory.sol\":1167:1184  zombieToOwner[id] */\n      dup2\n      mstore\n      0x20\n      add\n      swap1\n      dup2\n      mstore\n      0x20\n      add\n      0x00\n      keccak256\n      0x00\n        /* \"contracts/zombiefactory.sol\":1167:1197  zombieToOwner[id] = msg.sender */\n      0x0100\n      exp\n      dup2\n      sload\n      dup2\n      0xffffffffffffffffffffffffffffffffffffffff\n      mul\n      not\n      and\n      swap1\n      dup4\n      0xffffffffffffffffffffffffffffffffffffffff\n      and\n      mul\n      or\n      swap1\n      sstore\n      pop\n        /* \"contracts/zombiefactory.sol\":1208:1224  ownerZombieCount */\n      0x06\n        /* \"contracts/zombiefactory.sol\":1208:1236  ownerZombieCount[msg.sender] */\n      0x00\n        /* \"contracts/zombiefactory.sol\":1225:1235  msg.sender */\n      caller\n        /* \"contracts/zombiefactory.sol\":1208:1236  ownerZombieCount[msg.sender] */\n      0xffffffffffffffffffffffffffffffffffffffff\n      and\n      0xffffffffffffffffffffffffffffffffffffffff\n      and\n      dup2\n      mstore\n      0x20\n      add\n      swap1\n      dup2\n      mstore\n      0x20\n      add\n      0x00\n      keccak256\n      0x00\n        /* \"contracts/zombiefactory.sol\":1208:1238  ownerZombieCount[msg.sender]++ */\n      dup2\n      sload\n      dup1\n      swap3\n      swap2\n      swap1\n      tag_72\n      swap1\n      tag_73\n      jump\t// in\n    tag_72:\n      swap2\n      swap1\n      pop\n      sstore\n      pop\n        /* \"contracts/zombiefactory.sol\":1254:1280  NewZombie(id, _name, _dna) */\n      0x88f026aacbbecc90c18411df4b1185fd8d9be2470f1962f192bf84a27d0704b7\n        /* \"contracts/zombiefactory.sol\":1264:1266  id */\n      dup2\n        /* \"contracts/zombiefactory.sol\":1268:1273  _name */\n      dup5\n        /* \"contracts/zombiefactory.sol\":1275:1279  _dna */\n      dup5\n        /* \"contracts/zombiefactory.sol\":1254:1280  NewZombie(id, _name, _dna) */\n      mload(0x40)\n      tag_74\n      swap4\n      swap3\n      swap2\n      swap1\n      tag_75\n      jump\t// in\n    tag_74:\n      mload(0x40)\n      dup1\n      swap2\n      sub\n      swap1\n      log1\n        /* \"contracts/zombiefactory.sol\":1021:1288  {... */\n      pop\n        /* \"contracts/zombiefactory.sol\":954:1288  function _createZombie(string memory _name, uint256 _dna) internal {... */\n      pop\n      pop\n      jump\t// out\n        /* \"contracts/ownable.sol\":1873:2046  function _transferOwnership(address newOwner) internal {... */\n    tag_58:\n        /* \"contracts/ownable.sol\":1963:1964  0 */\n      0x00\n        /* \"contracts/ownable.sol\":1943:1965  newOwner != address(0) */\n      0xffffffffffffffffffffffffffffffffffffffff\n      and\n        /* \"contracts/ownable.sol\":1943:1951  newOwner */\n      dup2\n        /* \"contracts/ownable.sol\":1943:1965  newOwner != address(0) */\n      0xffffffffffffffffffffffffffffffffffffffff\n      and\n      sub\n        /* \"contracts/ownable.sol\":1935:1966  require(newOwner != address(0)) */\n      tag_77\n      jumpi\n      revert(0x00, 0x00)\n    tag_77:\n        /* \"contracts/ownable.sol\":2007:2015  newOwner */\n      dup1\n        /* \"contracts/ownable.sol\":1978:2016  OwnershipTransferred(_owner, newOwner) */\n      0xffffffffffffffffffffffffffffffffffffffff\n      and\n        /* \"contracts/ownable.sol\":1999:2005  _owner */\n      0x00\n      0x00\n      swap1\n      sload\n      swap1\n      0x0100\n      exp\n      swap1\n      div\n      0xffffffffffffffffffffffffffffffffffffffff\n      and\n        /* \"contracts/ownable.sol\":1978:2016  OwnershipTransferred(_owner, newOwner) */\n      0xffffffffffffffffffffffffffffffffffffffff\n      and\n      0x8be0079c531659141344cd1fd0a4f28419497f9722a3daafe3b4186f6b6457e0\n      mload(0x40)\n      mload(0x40)\n      dup1\n      swap2\n      sub\n      swap1\n      log3\n        /* \"contracts/ownable.sol\":2032:2040  newOwner */\n      dup1\n        /* \"contracts/ownable.sol\":2023:2029  _owner */\n      0x00\n      0x00\n        /* \"contracts/ownable.sol\":2023:2040  _owner = newOwner */\n      0x0100\n      exp\n      dup2\n      sload\n      dup2\n      0xffffffffffffffffffffffffffffffffffffffff\n      mul\n      not\n      and\n      swap1\n      dup4\n      0xffffffffffffffffffffffffffffffffffffffff\n      and\n      mul\n      or\n      swap1\n      sstore\n      pop\n        /* \"contracts/ownable.sol\":1873:2046  function _transferOwnership(address newOwner) internal {... */\n      pop\n      jump\t// out\n        /* \"#utility.yul\":7:82   */\n    tag_78:\n        /* \"#utility.yul\":40:46   */\n      0x00\n        /* \"#utility.yul\":73:75   */\n      0x40\n        /* \"#utility.yul\":67:76   */\n      mload\n        /* \"#utility.yul\":57:76   */\n      swap1\n      pop\n        /* \"#utility.yul\":7:82   */\n      swap1\n      jump\t// out\n        /* \"#utility.yul\":88:205   */\n    tag_79:\n        /* \"#utility.yul\":197:198   */\n      0x00\n        /* \"#utility.yul\":194:195   */\n      0x00\n        /* \"#utility.yul\":187:199   */\n      revert\n        /* \"#utility.yul\":211:328   */\n    tag_80:\n        /* \"#utility.yul\":320:321   */\n      0x00\n        /* \"#utility.yul\":317:318   */\n      0x00\n        /* \"#utility.yul\":310:322   */\n      revert\n        /* \"#utility.yul\":334:411   */\n    tag_81:\n        /* \"#utility.yul\":371:378   */\n      0x00\n        /* \"#utility.yul\":400:405   */\n      dup2\n        /* \"#utility.yul\":389:405   */\n      swap1\n      pop\n        /* \"#utility.yul\":334:411   */\n      swap2\n      swap1\n      pop\n      jump\t// out\n        /* \"#utility.yul\":417:539   */\n    tag_82:\n        /* \"#utility.yul\":490:514   */\n      tag_136\n        /* \"#utility.yul\":508:513   */\n      dup2\n        /* \"#utility.yul\":490:514   */\n      tag_81\n      jump\t// in\n    tag_136:\n        /* \"#utility.yul\":483:488   */\n      dup2\n        /* \"#utility.yul\":480:515   */\n      eq\n        /* \"#utility.yul\":470:533   */\n      tag_137\n      jumpi\n        /* \"#utility.yul\":529:530   */\n      0x00\n        /* \"#utility.yul\":526:527   */\n      0x00\n        /* \"#utility.yul\":519:531   */\n      revert\n        /* \"#utility.yul\":470:533   */\n    tag_137:\n        /* \"#utility.yul\":417:539   */\n      pop\n      jump\t// out\n        /* \"#utility.yul\":545:684   */\n    tag_83:\n        /* \"#utility.yul\":591:596   */\n      0x00\n        /* \"#utility.yul\":629:635   */\n      dup2\n        /* \"#utility.yul\":616:636   */\n      calldataload\n        /* \"#utility.yul\":607:636   */\n      swap1\n      pop\n        /* \"#utility.yul\":645:678   */\n      tag_139\n        /* \"#utility.yul\":672:677   */\n      dup2\n        /* \"#utility.yul\":645:678   */\n      tag_82\n      jump\t// in\n    tag_139:\n        /* \"#utility.yul\":545:684   */\n      swap3\n      swap2\n      pop\n      pop\n      jump\t// out\n        /* \"#utility.yul\":690:1019   */\n    tag_11:\n        /* \"#utility.yul\":749:755   */\n      0x00\n        /* \"#utility.yul\":798:800   */\n      0x20\n        /* \"#utility.yul\":786:795   */\n      dup3\n        /* \"#utility.yul\":777:784   */\n      dup5\n        /* \"#utility.yul\":773:796   */\n      sub\n        /* \"#utility.yul\":769:801   */\n      slt\n        /* \"#utility.yul\":766:885   */\n      iszero\n      tag_141\n      jumpi\n        /* \"#utility.yul\":804:883   */\n      tag_142\n      tag_79\n      jump\t// in\n    tag_142:\n        /* \"#utility.yul\":766:885   */\n    tag_141:\n        /* \"#utility.yul\":924:925   */\n      0x00\n        /* \"#utility.yul\":949:1002   */\n      tag_143\n        /* \"#utility.yul\":994:1001   */\n      dup5\n        /* \"#utility.yul\":985:991   */\n      dup3\n        /* \"#utility.yul\":974:983   */\n      dup6\n        /* \"#utility.yul\":970:992   */\n      add\n        /* \"#utility.yul\":949:1002   */\n      tag_83\n      jump\t// in\n    tag_143:\n        /* \"#utility.yul\":939:1002   */\n      swap2\n      pop\n        /* \"#utility.yul\":895:1012   */\n      pop\n        /* \"#utility.yul\":690:1019   */\n      swap3\n      swap2\n      pop\n      pop\n      jump\t// out\n        /* \"#utility.yul\":1025:1124   */\n    tag_84:\n        /* \"#utility.yul\":1077:1083   */\n      0x00\n        /* \"#utility.yul\":1111:1116   */\n      dup2\n        /* \"#utility.yul\":1105:1117   */\n      mload\n        /* \"#utility.yul\":1095:1117   */\n      swap1\n      pop\n        /* \"#utility.yul\":1025:1124   */\n      swap2\n      swap1\n      pop\n      jump\t// out\n        /* \"#utility.yul\":1130:1299   */\n    tag_85:\n        /* \"#utility.yul\":1214:1225   */\n      0x00\n        /* \"#utility.yul\":1248:1254   */\n      dup3\n        /* \"#utility.yul\":1243:1246   */\n      dup3\n        /* \"#utility.yul\":1236:1255   */\n      mstore\n        /* \"#utility.yul\":1288:1292   */\n      0x20\n        /* \"#utility.yul\":1283:1286   */\n      dup3\n        /* \"#utility.yul\":1279:1293   */\n      add\n        /* \"#utility.yul\":1264:1293   */\n      swap1\n      pop\n        /* \"#utility.yul\":1130:1299   */\n      swap3\n      swap2\n      pop\n      pop\n      jump\t// out\n        /* \"#utility.yul\":1305:1444   */\n    tag_86:\n        /* \"#utility.yul\":1394:1400   */\n      dup3\n        /* \"#utility.yul\":1389:1392   */\n      dup2\n        /* \"#utility.yul\":1384:1387   */\n      dup4\n        /* \"#utility.yul\":1378:1401   */\n      mcopy\n        /* \"#utility.yul\":1435:1436   */\n      0x00\n        /* \"#utility.yul\":1426:1432   */\n      dup4\n        /* \"#utility.yul\":1421:1424   */\n      dup4\n        /* \"#utility.yul\":1417:1433   */\n      add\n        /* \"#utility.yul\":1410:1437   */\n      mstore\n        /* \"#utility.yul\":1305:1444   */\n      pop\n      pop\n      pop\n      jump\t// out\n        /* \"#utility.yul\":1450:1552   */\n    tag_87:\n        /* \"#utility.yul\":1491:1497   */\n      0x00\n        /* \"#utility.yul\":1542:1544   */\n      0x1f\n        /* \"#utility.yul\":1538:1545   */\n      not\n        /* \"#utility.yul\":1533:1535   */\n      0x1f\n        /* \"#utility.yul\":1526:1531   */\n      dup4\n        /* \"#utility.yul\":1522:1536   */\n      add\n        /* \"#utility.yul\":1518:1546   */\n      and\n        /* \"#utility.yul\":1508:1546   */\n      swap1\n      pop\n        /* \"#utility.yul\":1450:1552   */\n      swap2\n      swap1\n      pop\n      jump\t// out\n        /* \"#utility.yul\":1558:1935   */\n    tag_88:\n        /* \"#utility.yul\":1646:1649   */\n      0x00\n        /* \"#utility.yul\":1674:1713   */\n      tag_149\n        /* \"#utility.yul\":1707:1712   */\n      dup3\n        /* \"#utility.yul\":1674:1713   */\n      tag_84\n      jump\t// in\n    tag_149:\n        /* \"#utility.yul\":1729:1800   */\n      tag_150\n        /* \"#utility.yul\":1793:1799   */\n      dup2\n        /* \"#utility.yul\":1788:1791   */\n      dup6\n        /* \"#utility.yul\":1729:1800   */\n      tag_85\n      jump\t// in\n    tag_150:\n        /* \"#utility.yul\":1722:1800   */\n      swap4\n      pop\n        /* \"#utility.yul\":1809:1874   */\n      tag_151\n        /* \"#utility.yul\":1867:1873   */\n      dup2\n        /* \"#utility.yul\":1862:1865   */\n      dup6\n        /* \"#utility.yul\":1855:1859   */\n      0x20\n        /* \"#utility.yul\":1848:1853   */\n      dup7\n        /* \"#utility.yul\":1844:1860   */\n      add\n        /* \"#utility.yul\":1809:1874   */\n      tag_86\n      jump\t// in\n    tag_151:\n        /* \"#utility.yul\":1899:1928   */\n      tag_152\n        /* \"#utility.yul\":1921:1927   */\n      dup2\n        /* \"#utility.yul\":1899:1928   */\n      tag_87\n      jump\t// in\n    tag_152:\n        /* \"#utility.yul\":1894:1897   */\n      dup5\n        /* \"#utility.yul\":1890:1929   */\n      add\n        /* \"#utility.yul\":1883:1929   */\n      swap2\n      pop\n        /* \"#utility.yul\":1650:1935   */\n      pop\n        /* \"#utility.yul\":1558:1935   */\n      swap3\n      swap2\n      pop\n      pop\n      jump\t// out\n        /* \"#utility.yul\":1941:2059   */\n    tag_89:\n        /* \"#utility.yul\":2028:2052   */\n      tag_154\n        /* \"#utility.yul\":2046:2051   */\n      dup2\n        /* \"#utility.yul\":2028:2052   */\n      tag_81\n      jump\t// in\n    tag_154:\n        /* \"#utility.yul\":2023:2026   */\n      dup3\n        /* \"#utility.yul\":2016:2053   */\n      mstore\n        /* \"#utility.yul\":1941:2059   */\n      pop\n      pop\n      jump\t// out\n        /* \"#utility.yul\":2065:2158   */\n    tag_90:\n        /* \"#utility.yul\":2101:2108   */\n      0x00\n        /* \"#utility.yul\":2141:2151   */\n      0xffffffff\n        /* \"#utility.yul\":2134:2139   */\n      dup3\n        /* \"#utility.yul\":2130:2152   */\n      and\n        /* \"#utility.yul\":2119:2152   */\n      swap1\n      pop\n        /* \"#utility.yul\":2065:2158   */\n      swap2\n      swap1\n      pop\n      jump\t// out\n        /* \"#utility.yul\":2164:2279   */\n    tag_91:\n        /* \"#utility.yul\":2249:2272   */\n      tag_157\n        /* \"#utility.yul\":2266:2271   */\n      dup2\n        /* \"#utility.yul\":2249:2272   */\n      tag_90\n      jump\t// in\n    tag_157:\n        /* \"#utility.yul\":2244:2247   */\n      dup3\n        /* \"#utility.yul\":2237:2273   */\n      mstore\n        /* \"#utility.yul\":2164:2279   */\n      pop\n      pop\n      jump\t// out\n        /* \"#utility.yul\":2285:2374   */\n    tag_92:\n        /* \"#utility.yul\":2321:2328   */\n      0x00\n        /* \"#utility.yul\":2361:2367   */\n      0xffff\n        /* \"#utility.yul\":2354:2359   */\n      dup3\n        /* \"#utility.yul\":2350:2368   */\n      and\n        /* \"#utility.yul\":2339:2368   */\n      swap1\n      pop\n        /* \"#utility.yul\":2285:2374   */\n      swap2\n      swap1\n      pop\n      jump\t// out\n        /* \"#utility.yul\":2380:2495   */\n    tag_93:\n        /* \"#utility.yul\":2465:2488   */\n      tag_160\n        /* \"#utility.yul\":2482:2487   */\n      dup2\n        /* \"#utility.yul\":2465:2488   */\n      tag_92\n      jump\t// in\n    tag_160:\n        /* \"#utility.yul\":2460:2463   */\n      dup3\n        /* \"#utility.yul\":2453:2489   */\n      mstore\n        /* \"#utility.yul\":2380:2495   */\n      pop\n      pop\n      jump\t// out\n        /* \"#utility.yul\":2501:3351   */\n    tag_14:\n        /* \"#utility.yul\":2746:2750   */\n      0x00\n        /* \"#utility.yul\":2784:2787   */\n      0xc0\n        /* \"#utility.yul\":2773:2782   */\n      dup3\n        /* \"#utility.yul\":2769:2788   */\n      add\n        /* \"#utility.yul\":2761:2788   */\n      swap1\n      pop\n        /* \"#utility.yul\":2834:2843   */\n      dup2\n        /* \"#utility.yul\":2828:2832   */\n      dup2\n        /* \"#utility.yul\":2824:2844   */\n      sub\n        /* \"#utility.yul\":2820:2821   */\n      0x00\n        /* \"#utility.yul\":2809:2818   */\n      dup4\n        /* \"#utility.yul\":2805:2822   */\n      add\n        /* \"#utility.yul\":2798:2845   */\n      mstore\n        /* \"#utility.yul\":2862:2940   */\n      tag_162\n        /* \"#utility.yul\":2935:2939   */\n      dup2\n        /* \"#utility.yul\":2926:2932   */\n      dup10\n        /* \"#utility.yul\":2862:2940   */\n      tag_88\n      jump\t// in\n    tag_162:\n        /* \"#utility.yul\":2854:2940   */\n      swap1\n      pop\n        /* \"#utility.yul\":2950:3022   */\n      tag_163\n        /* \"#utility.yul\":3018:3020   */\n      0x20\n        /* \"#utility.yul\":3007:3016   */\n      dup4\n        /* \"#utility.yul\":3003:3021   */\n      add\n        /* \"#utility.yul\":2994:3000   */\n      dup9\n        /* \"#utility.yul\":2950:3022   */\n      tag_89\n      jump\t// in\n    tag_163:\n        /* \"#utility.yul\":3032:3102   */\n      tag_164\n        /* \"#utility.yul\":3098:3100   */\n      0x40\n        /* \"#utility.yul\":3087:3096   */\n      dup4\n        /* \"#utility.yul\":3083:3101   */\n      add\n        /* \"#utility.yul\":3074:3080   */\n      dup8\n        /* \"#utility.yul\":3032:3102   */\n      tag_91\n      jump\t// in\n    tag_164:\n        /* \"#utility.yul\":3112:3182   */\n      tag_165\n        /* \"#utility.yul\":3178:3180   */\n      0x60\n        /* \"#utility.yul\":3167:3176   */\n      dup4\n        /* \"#utility.yul\":3163:3181   */\n      add\n        /* \"#utility.yul\":3154:3160   */\n      dup7\n        /* \"#utility.yul\":3112:3182   */\n      tag_91\n      jump\t// in\n    tag_165:\n        /* \"#utility.yul\":3192:3263   */\n      tag_166\n        /* \"#utility.yul\":3258:3261   */\n      0x80\n        /* \"#utility.yul\":3247:3256   */\n      dup4\n        /* \"#utility.yul\":3243:3262   */\n      add\n        /* \"#utility.yul\":3234:3240   */\n      dup6\n        /* \"#utility.yul\":3192:3263   */\n      tag_93\n      jump\t// in\n    tag_166:\n        /* \"#utility.yul\":3273:3344   */\n      tag_167\n        /* \"#utility.yul\":3339:3342   */\n      0xa0\n        /* \"#utility.yul\":3328:3337   */\n      dup4\n        /* \"#utility.yul\":3324:3343   */\n      add\n        /* \"#utility.yul\":3315:3321   */\n      dup5\n        /* \"#utility.yul\":3273:3344   */\n      tag_93\n      jump\t// in\n    tag_167:\n        /* \"#utility.yul\":2501:3351   */\n      swap8\n      swap7\n      pop\n      pop\n      pop\n      pop\n      pop\n      pop\n      pop\n      jump\t// out\n        /* \"#utility.yul\":3357:3483   */\n    tag_94:\n        /* \"#utility.yul\":3394:3401   */\n      0x00\n        /* \"#utility.yul\":3434:3476   */\n      0xffffffffffffffffffffffffffffffffffffffff\n        /* \"#utility.yul\":3427:3432   */\n      dup3\n        /* \"#utility.yul\":3423:3477   */\n      and\n        /* \"#utility.yul\":3412:3477   */\n      swap1\n      pop\n        /* \"#utility.yul\":3357:3483   */\n      swap2\n      swap1\n      pop\n      jump\t// out\n        /* \"#utility.yul\":3489:3585   */\n    tag_95:\n        /* \"#utility.yul\":3526:3533   */\n      0x00\n        /* \"#utility.yul\":3555:3579   */\n      tag_170\n        /* \"#utility.yul\":3573:3578   */\n      dup3\n        /* \"#utility.yul\":3555:3579   */\n      tag_94\n      jump\t// in\n    tag_170:\n        /* \"#utility.yul\":3544:3579   */\n      swap1\n      pop\n        /* \"#utility.yul\":3489:3585   */\n      swap2\n      swap1\n      pop\n      jump\t// out\n        /* \"#utility.yul\":3591:3709   */\n    tag_96:\n        /* \"#utility.yul\":3678:3702   */\n      tag_172\n        /* \"#utility.yul\":3696:3701   */\n      dup2\n        /* \"#utility.yul\":3678:3702   */\n      tag_95\n      jump\t// in\n    tag_172:\n        /* \"#utility.yul\":3673:3676   */\n      dup3\n        /* \"#utility.yul\":3666:3703   */\n      mstore\n        /* \"#utility.yul\":3591:3709   */\n      pop\n      pop\n      jump\t// out\n        /* \"#utility.yul\":3715:3937   */\n    tag_20:\n        /* \"#utility.yul\":3808:3812   */\n      0x00\n        /* \"#utility.yul\":3846:3848   */\n      0x20\n        /* \"#utility.yul\":3835:3844   */\n      dup3\n        /* \"#utility.yul\":3831:3849   */\n      add\n        /* \"#utility.yul\":3823:3849   */\n      swap1\n      pop\n        /* \"#utility.yul\":3859:3930   */\n      tag_174\n        /* \"#utility.yul\":3927:3928   */\n      0x00\n        /* \"#utility.yul\":3916:3925   */\n      dup4\n        /* \"#utility.yul\":3912:3929   */\n      add\n        /* \"#utility.yul\":3903:3909   */\n      dup5\n        /* \"#utility.yul\":3859:3930   */\n      tag_96\n      jump\t// in\n    tag_174:\n        /* \"#utility.yul\":3715:3937   */\n      swap3\n      swap2\n      pop\n      pop\n      jump\t// out\n        /* \"#utility.yul\":3943:4033   */\n    tag_97:\n        /* \"#utility.yul\":3977:3984   */\n      0x00\n        /* \"#utility.yul\":4020:4025   */\n      dup2\n        /* \"#utility.yul\":4013:4026   */\n      iszero\n        /* \"#utility.yul\":4006:4027   */\n      iszero\n        /* \"#utility.yul\":3995:4027   */\n      swap1\n      pop\n        /* \"#utility.yul\":3943:4033   */\n      swap2\n      swap1\n      pop\n      jump\t// out\n        /* \"#utility.yul\":4039:4148   */\n    tag_98:\n        /* \"#utility.yul\":4120:4141   */\n      tag_177\n        /* \"#utility.yul\":4135:4140   */\n      dup2\n        /* \"#utility.yul\":4120:4141   */\n      tag_97\n      jump\t// in\n    tag_177:\n        /* \"#utility.yul\":4115:4118   */\n      dup3\n        /* \"#utility.yul\":4108:4142   */\n      mstore\n        /* \"#utility.yul\":4039:4148   */\n      pop\n      pop\n      jump\t// out\n        /* \"#utility.yul\":4154:4364   */\n    tag_24:\n        /* \"#utility.yul\":4241:4245   */\n      0x00\n        /* \"#utility.yul\":4279:4281   */\n      0x20\n        /* \"#utility.yul\":4268:4277   */\n      dup3\n        /* \"#utility.yul\":4264:4282   */\n      add\n        /* \"#utility.yul\":4256:4282   */\n      swap1\n      pop\n        /* \"#utility.yul\":4292:4357   */\n      tag_179\n        /* \"#utility.yul\":4354:4355   */\n      0x00\n        /* \"#utility.yul\":4343:4352   */\n      dup4\n        /* \"#utility.yul\":4339:4356   */\n      add\n        /* \"#utility.yul\":4330:4336   */\n      dup5\n        /* \"#utility.yul\":4292:4357   */\n      tag_98\n      jump\t// in\n    tag_179:\n        /* \"#utility.yul\":4154:4364   */\n      swap3\n      swap2\n      pop\n      pop\n      jump\t// out\n        /* \"#utility.yul\":4370:4487   */\n    tag_99:\n        /* \"#utility.yul\":4479:4480   */\n      0x00\n        /* \"#utility.yul\":4476:4477   */\n      0x00\n        /* \"#utility.yul\":4469:4481   */\n      revert\n        /* \"#utility.yul\":4493:4610   */\n    tag_100:\n        /* \"#utility.yul\":4602:4603   */\n      0x00\n        /* \"#utility.yul\":4599:4600   */\n      0x00\n        /* \"#utility.yul\":4592:4604   */\n      revert\n        /* \"#utility.yul\":4616:4796   */\n    tag_101:\n        /* \"#utility.yul\":4664:4741   */\n      0x4e487b7100000000000000000000000000000000000000000000000000000000\n        /* \"#utility.yul\":4661:4662   */\n      0x00\n        /* \"#utility.yul\":4654:4742   */\n      mstore\n        /* \"#utility.yul\":4761:4765   */\n      0x41\n        /* \"#utility.yul\":4758:4759   */\n      0x04\n        /* \"#utility.yul\":4751:4766   */\n      mstore\n        /* \"#utility.yul\":4785:4789   */\n      0x24\n        /* \"#utility.yul\":4782:4783   */\n      0x00\n        /* \"#utility.yul\":4775:4790   */\n      revert\n        /* \"#utility.yul\":4802:5083   */\n    tag_102:\n        /* \"#utility.yul\":4885:4912   */\n      tag_184\n        /* \"#utility.yul\":4907:4911   */\n      dup3\n        /* \"#utility.yul\":4885:4912   */\n      tag_87\n      jump\t// in\n    tag_184:\n        /* \"#utility.yul\":4877:4883   */\n      dup2\n        /* \"#utility.yul\":4873:4913   */\n      add\n        /* \"#utility.yul\":5015:5021   */\n      dup2\n        /* \"#utility.yul\":5003:5013   */\n      dup2\n        /* \"#utility.yul\":5000:5022   */\n      lt\n        /* \"#utility.yul\":4979:4997   */\n      0xffffffffffffffff\n        /* \"#utility.yul\":4967:4977   */\n      dup3\n        /* \"#utility.yul\":4964:4998   */\n      gt\n        /* \"#utility.yul\":4961:5023   */\n      or\n        /* \"#utility.yul\":4958:5046   */\n      iszero\n      tag_185\n      jumpi\n        /* \"#utility.yul\":5026:5044   */\n      tag_186\n      tag_101\n      jump\t// in\n    tag_186:\n        /* \"#utility.yul\":4958:5046   */\n    tag_185:\n        /* \"#utility.yul\":5066:5076   */\n      dup1\n        /* \"#utility.yul\":5062:5064   */\n      0x40\n        /* \"#utility.yul\":5055:5077   */\n      mstore\n        /* \"#utility.yul\":4845:5083   */\n      pop\n        /* \"#utility.yul\":4802:5083   */\n      pop\n      pop\n      jump\t// out\n        /* \"#utility.yul\":5089:5218   */\n    tag_103:\n        /* \"#utility.yul\":5123:5129   */\n      0x00\n        /* \"#utility.yul\":5150:5170   */\n      tag_188\n      tag_78\n      jump\t// in\n    tag_188:\n        /* \"#utility.yul\":5140:5170   */\n      swap1\n      pop\n        /* \"#utility.yul\":5179:5212   */\n      tag_189\n        /* \"#utility.yul\":5207:5211   */\n      dup3\n        /* \"#utility.yul\":5199:5205   */\n      dup3\n        /* \"#utility.yul\":5179:5212   */\n      tag_102\n      jump\t// in\n    tag_189:\n        /* \"#utility.yul\":5089:5218   */\n      swap2\n      swap1\n      pop\n      jump\t// out\n        /* \"#utility.yul\":5224:5532   */\n    tag_104:\n        /* \"#utility.yul\":5286:5290   */\n      0x00\n        /* \"#utility.yul\":5376:5394   */\n      0xffffffffffffffff\n        /* \"#utility.yul\":5368:5374   */\n      dup3\n        /* \"#utility.yul\":5365:5395   */\n      gt\n        /* \"#utility.yul\":5362:5418   */\n      iszero\n      tag_191\n      jumpi\n        /* \"#utility.yul\":5398:5416   */\n      tag_192\n      tag_101\n      jump\t// in\n    tag_192:\n        /* \"#utility.yul\":5362:5418   */\n    tag_191:\n        /* \"#utility.yul\":5436:5465   */\n      tag_193\n        /* \"#utility.yul\":5458:5464   */\n      dup3\n        /* \"#utility.yul\":5436:5465   */\n      tag_87\n      jump\t// in\n    tag_193:\n        /* \"#utility.yul\":5428:5465   */\n      swap1\n      pop\n        /* \"#utility.yul\":5520:5524   */\n      0x20\n        /* \"#utility.yul\":5514:5518   */\n      dup2\n        /* \"#utility.yul\":5510:5525   */\n      add\n        /* \"#utility.yul\":5502:5525   */\n      swap1\n      pop\n        /* \"#utility.yul\":5224:5532   */\n      swap2\n      swap1\n      pop\n      jump\t// out\n        /* \"#utility.yul\":5538:5686   */\n    tag_105:\n        /* \"#utility.yul\":5636:5642   */\n      dup3\n        /* \"#utility.yul\":5631:5634   */\n      dup2\n        /* \"#utility.yul\":5626:5629   */\n      dup4\n        /* \"#utility.yul\":5613:5643   */\n      calldatacopy\n        /* \"#utility.yul\":5677:5678   */\n      0x00\n        /* \"#utility.yul\":5668:5674   */\n      dup4\n        /* \"#utility.yul\":5663:5666   */\n      dup4\n        /* \"#utility.yul\":5659:5675   */\n      add\n        /* \"#utility.yul\":5652:5679   */\n      mstore\n        /* \"#utility.yul\":5538:5686   */\n      pop\n      pop\n      pop\n      jump\t// out\n        /* \"#utility.yul\":5692:6117   */\n    tag_106:\n        /* \"#utility.yul\":5770:5775   */\n      0x00\n        /* \"#utility.yul\":5795:5861   */\n      tag_196\n        /* \"#utility.yul\":5811:5860   */\n      tag_197\n        /* \"#utility.yul\":5853:5859   */\n      dup5\n        /* \"#utility.yul\":5811:5860   */\n      tag_104\n      jump\t// in\n    tag_197:\n        /* \"#utility.yul\":5795:5861   */\n      tag_103\n      jump\t// in\n    tag_196:\n        /* \"#utility.yul\":5786:5861   */\n      swap1\n      pop\n        /* \"#utility.yul\":5884:5890   */\n      dup3\n        /* \"#utility.yul\":5877:5882   */\n      dup2\n        /* \"#utility.yul\":5870:5891   */\n      mstore\n        /* \"#utility.yul\":5922:5926   */\n      0x20\n        /* \"#utility.yul\":5915:5920   */\n      dup2\n        /* \"#utility.yul\":5911:5927   */\n      add\n        /* \"#utility.yul\":5960:5963   */\n      dup5\n        /* \"#utility.yul\":5951:5957   */\n      dup5\n        /* \"#utility.yul\":5946:5949   */\n      dup5\n        /* \"#utility.yul\":5942:5958   */\n      add\n        /* \"#utility.yul\":5939:5964   */\n      gt\n        /* \"#utility.yul\":5936:6048   */\n      iszero\n      tag_198\n      jumpi\n        /* \"#utility.yul\":5967:6046   */\n      tag_199\n      tag_100\n      jump\t// in\n    tag_199:\n        /* \"#utility.yul\":5936:6048   */\n    tag_198:\n        /* \"#utility.yul\":6057:6111   */\n      tag_200\n        /* \"#utility.yul\":6104:6110   */\n      dup5\n        /* \"#utility.yul\":6099:6102   */\n      dup3\n        /* \"#utility.yul\":6094:6097   */\n      dup6\n        /* \"#utility.yul\":6057:6111   */\n      tag_105\n      jump\t// in\n    tag_200:\n        /* \"#utility.yul\":5776:6117   */\n      pop\n        /* \"#utility.yul\":5692:6117   */\n      swap4\n      swap3\n      pop\n      pop\n      pop\n      jump\t// out\n        /* \"#utility.yul\":6137:6477   */\n    tag_107:\n        /* \"#utility.yul\":6193:6198   */\n      0x00\n        /* \"#utility.yul\":6242:6245   */\n      dup3\n        /* \"#utility.yul\":6235:6239   */\n      0x1f\n        /* \"#utility.yul\":6227:6233   */\n      dup4\n        /* \"#utility.yul\":6223:6240   */\n      add\n        /* \"#utility.yul\":6219:6246   */\n      slt\n        /* \"#utility.yul\":6209:6331   */\n      tag_202\n      jumpi\n        /* \"#utility.yul\":6250:6329   */\n      tag_203\n      tag_99\n      jump\t// in\n    tag_203:\n        /* \"#utility.yul\":6209:6331   */\n    tag_202:\n        /* \"#utility.yul\":6367:6373   */\n      dup2\n        /* \"#utility.yul\":6354:6374   */\n      calldataload\n        /* \"#utility.yul\":6392:6471   */\n      tag_204\n        /* \"#utility.yul\":6467:6470   */\n      dup5\n        /* \"#utility.yul\":6459:6465   */\n      dup3\n        /* \"#utility.yul\":6452:6456   */\n      0x20\n        /* \"#utility.yul\":6444:6450   */\n      dup7\n        /* \"#utility.yul\":6440:6457   */\n      add\n        /* \"#utility.yul\":6392:6471   */\n      tag_106\n      jump\t// in\n    tag_204:\n        /* \"#utility.yul\":6383:6471   */\n      swap2\n      pop\n        /* \"#utility.yul\":6199:6477   */\n      pop\n        /* \"#utility.yul\":6137:6477   */\n      swap3\n      swap2\n      pop\n      pop\n      jump\t// out\n        /* \"#utility.yul\":6483:6992   */\n    tag_27:\n        /* \"#utility.yul\":6552:6558   */\n      0x00\n        /* \"#utility.yul\":6601:6603   */\n      0x20\n        /* \"#utility.yul\":6589:6598   */\n      dup3\n        /* \"#utility.yul\":6580:6587   */\n      dup5\n        /* \"#utility.yul\":6576:6599   */\n      sub\n        /* \"#utility.yul\":6572:6604   */\n      slt\n        /* \"#utility.yul\":6569:6688   */\n      iszero\n      tag_206\n      jumpi\n        /* \"#utility.yul\":6607:6686   */\n      tag_207\n      tag_79\n      jump\t// in\n    tag_207:\n        /* \"#utility.yul\":6569:6688   */\n    tag_206:\n        /* \"#utility.yul\":6755:6756   */\n      0x00\n        /* \"#utility.yul\":6744:6753   */\n      dup3\n        /* \"#utility.yul\":6740:6757   */\n      add\n        /* \"#utility.yul\":6727:6758   */\n      calldataload\n        /* \"#utility.yul\":6785:6803   */\n      0xffffffffffffffff\n        /* \"#utility.yul\":6777:6783   */\n      dup2\n        /* \"#utility.yul\":6774:6804   */\n      gt\n        /* \"#utility.yul\":6771:6888   */\n      iszero\n      tag_208\n      jumpi\n        /* \"#utility.yul\":6807:6886   */\n      tag_209\n      tag_80\n      jump\t// in\n    tag_209:\n        /* \"#utility.yul\":6771:6888   */\n    tag_208:\n        /* \"#utility.yul\":6912:6975   */\n      tag_210\n        /* \"#utility.yul\":6967:6974   */\n      dup5\n        /* \"#utility.yul\":6958:6964   */\n      dup3\n        /* \"#utility.yul\":6947:6956   */\n      dup6\n        /* \"#utility.yul\":6943:6965   */\n      add\n        /* \"#utility.yul\":6912:6975   */\n      tag_107\n      jump\t// in\n    tag_210:\n        /* \"#utility.yul\":6902:6975   */\n      swap2\n      pop\n        /* \"#utility.yul\":6698:6985   */\n      pop\n        /* \"#utility.yul\":6483:6992   */\n      swap3\n      swap2\n      pop\n      pop\n      jump\t// out\n        /* \"#utility.yul\":6998:7120   */\n    tag_108:\n        /* \"#utility.yul\":7071:7095   */\n      tag_212\n        /* \"#utility.yul\":7089:7094   */\n      dup2\n        /* \"#utility.yul\":7071:7095   */\n      tag_95\n      jump\t// in\n    tag_212:\n        /* \"#utility.yul\":7064:7069   */\n      dup2\n        /* \"#utility.yul\":7061:7096   */\n      eq\n        /* \"#utility.yul\":7051:7114   */\n      tag_213\n      jumpi\n        /* \"#utility.yul\":7110:7111   */\n      0x00\n        /* \"#utility.yul\":7107:7108   */\n      0x00\n        /* \"#utility.yul\":7100:7112   */\n      revert\n        /* \"#utility.yul\":7051:7114   */\n    tag_213:\n        /* \"#utility.yul\":6998:7120   */\n      pop\n      jump\t// out\n        /* \"#utility.yul\":7126:7265   */\n    tag_109:\n        /* \"#utility.yul\":7172:7177   */\n      0x00\n        /* \"#utility.yul\":7210:7216   */\n      dup2\n        /* \"#utility.yul\":7197:7217   */\n      calldataload\n        /* \"#utility.yul\":7188:7217   */\n      swap1\n      pop\n        /* \"#utility.yul\":7226:7259   */\n      tag_215\n        /* \"#utility.yul\":7253:7258   */\n      dup2\n        /* \"#utility.yul\":7226:7259   */\n      tag_108\n      jump\t// in\n    tag_215:\n        /* \"#utility.yul\":7126:7265   */\n      swap3\n      swap2\n      pop\n      pop\n      jump\t// out\n        /* \"#utility.yul\":7271:7600   */\n    tag_31:\n        /* \"#utility.yul\":7330:7336   */\n      0x00\n        /* \"#utility.yul\":7379:7381   */\n      0x20\n        /* \"#utility.yul\":7367:7376   */\n      dup3\n        /* \"#utility.yul\":7358:7365   */\n      dup5\n        /* \"#utility.yul\":7354:7377   */\n      sub\n        /* \"#utility.yul\":7350:7382   */\n      slt\n        /* \"#utility.yul\":7347:7466   */\n      iszero\n      tag_217\n      jumpi\n        /* \"#utility.yul\":7385:7464   */\n      tag_218\n      tag_79\n      jump\t// in\n    tag_218:\n        /* \"#utility.yul\":7347:7466   */\n    tag_217:\n        /* \"#utility.yul\":7505:7506   */\n      0x00\n        /* \"#utility.yul\":7530:7583   */\n      tag_219\n        /* \"#utility.yul\":7575:7582   */\n      dup5\n        /* \"#utility.yul\":7566:7572   */\n      dup3\n        /* \"#utility.yul\":7555:7564   */\n      dup6\n        /* \"#utility.yul\":7551:7573   */\n      add\n        /* \"#utility.yul\":7530:7583   */\n      tag_109\n      jump\t// in\n    tag_219:\n        /* \"#utility.yul\":7520:7583   */\n      swap2\n      pop\n        /* \"#utility.yul\":7476:7593   */\n      pop\n        /* \"#utility.yul\":7271:7600   */\n      swap3\n      swap2\n      pop\n      pop\n      jump\t// out\n        /* \"#utility.yul\":7606:7786   */\n    tag_110:\n        /* \"#utility.yul\":7654:7731   */\n      0x4e487b7100000000000000000000000000000000000000000000000000000000\n        /* \"#utility.yul\":7651:7652   */\n      0x00\n        /* \"#utility.yul\":7644:7732   */\n      mstore\n        /* \"#utility.yul\":7751:7755   */\n      0x22\n        /* \"#utility.yul\":7748:7749   */\n      0x04\n        /* \"#utility.yul\":7741:7756   */\n      mstore\n        /* \"#utility.yul\":7775:7779   */\n      0x24\n        /* \"#utility.yul\":7772:7773   */\n      0x00\n        /* \"#utility.yul\":7765:7780   */\n      revert\n        /* \"#utility.yul\":7792:8112   */\n    tag_36:\n        /* \"#utility.yul\":7836:7842   */\n      0x00\n        /* \"#utility.yul\":7873:7874   */\n      0x02\n        /* \"#utility.yul\":7867:7871   */\n      dup3\n        /* \"#utility.yul\":7863:7875   */\n      div\n        /* \"#utility.yul\":7853:7875   */\n      swap1\n      pop\n        /* \"#utility.yul\":7920:7921   */\n      0x01\n        /* \"#utility.yul\":7914:7918   */\n      dup3\n        /* \"#utility.yul\":7910:7922   */\n      and\n        /* \"#utility.yul\":7941:7959   */\n      dup1\n        /* \"#utility.yul\":7931:8012   */\n      tag_222\n      jumpi\n        /* \"#utility.yul\":7997:8001   */\n      0x7f\n        /* \"#utility.yul\":7989:7995   */\n      dup3\n        /* \"#utility.yul\":7985:8002   */\n      and\n        /* \"#utility.yul\":7975:8002   */\n      swap2\n      pop\n        /* \"#utility.yul\":7931:8012   */\n    tag_222:\n        /* \"#utility.yul\":8059:8061   */\n      0x20\n        /* \"#utility.yul\":8051:8057   */\n      dup3\n        /* \"#utility.yul\":8048:8062   */\n      lt\n        /* \"#utility.yul\":8028:8046   */\n      dup2\n        /* \"#utility.yul\":8025:8063   */\n      sub\n        /* \"#utility.yul\":8022:8106   */\n      tag_223\n      jumpi\n        /* \"#utility.yul\":8078:8096   */\n      tag_224\n      tag_110\n      jump\t// in\n    tag_224:\n        /* \"#utility.yul\":8022:8106   */\n    tag_223:\n        /* \"#utility.yul\":7843:8112   */\n      pop\n        /* \"#utility.yul\":7792:8112   */\n      swap2\n      swap1\n      pop\n      jump\t// out\n        /* \"#utility.yul\":8118:8266   */\n    tag_111:\n        /* \"#utility.yul\":8220:8231   */\n      0x00\n        /* \"#utility.yul\":8257:8260   */\n      dup2\n        /* \"#utility.yul\":8242:8260   */\n      swap1\n      pop\n        /* \"#utility.yul\":8118:8266   */\n      swap3\n      swap2\n      pop\n      pop\n      jump\t// out\n        /* \"#utility.yul\":8272:8662   */\n    tag_112:\n        /* \"#utility.yul\":8378:8381   */\n      0x00\n        /* \"#utility.yul\":8406:8445   */\n      tag_227\n        /* \"#utility.yul\":8439:8444   */\n      dup3\n        /* \"#utility.yul\":8406:8445   */\n      tag_84\n      jump\t// in\n    tag_227:\n        /* \"#utility.yul\":8461:8550   */\n      tag_228\n        /* \"#utility.yul\":8543:8549   */\n      dup2\n        /* \"#utility.yul\":8538:8541   */\n      dup6\n        /* \"#utility.yul\":8461:8550   */\n      tag_111\n      jump\t// in\n    tag_228:\n        /* \"#utility.yul\":8454:8550   */\n      swap4\n      pop\n        /* \"#utility.yul\":8559:8624   */\n      tag_229\n        /* \"#utility.yul\":8617:8623   */\n      dup2\n        /* \"#utility.yul\":8612:8615   */\n      dup6\n        /* \"#utility.yul\":8605:8609   */\n      0x20\n        /* \"#utility.yul\":8598:8603   */\n      dup7\n        /* \"#utility.yul\":8594:8610   */\n      add\n        /* \"#utility.yul\":8559:8624   */\n      tag_86\n      jump\t// in\n    tag_229:\n        /* \"#utility.yul\":8649:8655   */\n      dup1\n        /* \"#utility.yul\":8644:8647   */\n      dup5\n        /* \"#utility.yul\":8640:8656   */\n      add\n        /* \"#utility.yul\":8633:8656   */\n      swap2\n      pop\n        /* \"#utility.yul\":8382:8662   */\n      pop\n        /* \"#utility.yul\":8272:8662   */\n      swap3\n      swap2\n      pop\n      pop\n      jump\t// out\n        /* \"#utility.yul\":8668:8943   */\n    tag_61:\n        /* \"#utility.yul\":8800:8803   */\n      0x00\n        /* \"#utility.yul\":8822:8917   */\n      tag_231\n        /* \"#utility.yul\":8913:8916   */\n      dup3\n        /* \"#utility.yul\":8904:8910   */\n      dup5\n        /* \"#utility.yul\":8822:8917   */\n      tag_112\n      jump\t// in\n    tag_231:\n        /* \"#utility.yul\":8815:8917   */\n      swap2\n      pop\n        /* \"#utility.yul\":8934:8937   */\n      dup2\n        /* \"#utility.yul\":8927:8937   */\n      swap1\n      pop\n        /* \"#utility.yul\":8668:8943   */\n      swap3\n      swap2\n      pop\n      pop\n      jump\t// out\n        /* \"#utility.yul\":8949:9129   */\n    tag_113:\n        /* \"#utility.yul\":8997:9074   */\n      0x4e487b7100000000000000000000000000000000000000000000000000000000\n        /* \"#utility.yul\":8994:8995   */\n      0x00\n        /* \"#utility.yul\":8987:9075   */\n      mstore\n        /* \"#utility.yul\":9094:9098   */\n      0x12\n        /* \"#utility.yul\":9091:9092   */\n      0x04\n        /* \"#utility.yul\":9084:9099   */\n      mstore\n        /* \"#utility.yul\":9118:9122   */\n      0x24\n        /* \"#utility.yul\":9115:9116   */\n      0x00\n        /* \"#utility.yul\":9108:9123   */\n      revert\n        /* \"#utility.yul\":9135:9311   */\n    tag_63:\n        /* \"#utility.yul\":9167:9168   */\n      0x00\n        /* \"#utility.yul\":9184:9204   */\n      tag_234\n        /* \"#utility.yul\":9202:9203   */\n      dup3\n        /* \"#utility.yul\":9184:9204   */\n      tag_81\n      jump\t// in\n    tag_234:\n        /* \"#utility.yul\":9179:9204   */\n      swap2\n      pop\n        /* \"#utility.yul\":9218:9238   */\n      tag_235\n        /* \"#utility.yul\":9236:9237   */\n      dup4\n        /* \"#utility.yul\":9218:9238   */\n      tag_81\n      jump\t// in\n    tag_235:\n        /* \"#utility.yul\":9213:9238   */\n      swap3\n      pop\n        /* \"#utility.yul\":9257:9258   */\n      dup3\n        /* \"#utility.yul\":9247:9282   */\n      tag_236\n      jumpi\n        /* \"#utility.yul\":9262:9280   */\n      tag_237\n      tag_113\n      jump\t// in\n    tag_237:\n        /* \"#utility.yul\":9247:9282   */\n    tag_236:\n        /* \"#utility.yul\":9303:9304   */\n      dup3\n        /* \"#utility.yul\":9300:9301   */\n      dup3\n        /* \"#utility.yul\":9296:9305   */\n      mod\n        /* \"#utility.yul\":9291:9305   */\n      swap1\n      pop\n        /* \"#utility.yul\":9135:9311   */\n      swap3\n      swap2\n      pop\n      pop\n      jump\t// out\n        /* \"#utility.yul\":9317:9497   */\n    tag_114:\n        /* \"#utility.yul\":9365:9442   */\n      0x4e487b7100000000000000000000000000000000000000000000000000000000\n        /* \"#utility.yul\":9362:9363   */\n      0x00\n        /* \"#utility.yul\":9355:9443   */\n      mstore\n        /* \"#utility.yul\":9462:9466   */\n      0x11\n        /* \"#utility.yul\":9459:9460   */\n      0x04\n        /* \"#utility.yul\":9452:9467   */\n      mstore\n        /* \"#utility.yul\":9486:9490   */\n      0x24\n        /* \"#utility.yul\":9483:9484   */\n      0x00\n        /* \"#utility.yul\":9476:9491   */\n      revert\n        /* \"#utility.yul\":9503:9694   */\n    tag_66:\n        /* \"#utility.yul\":9543:9546   */\n      0x00\n        /* \"#utility.yul\":9562:9582   */\n      tag_240\n        /* \"#utility.yul\":9580:9581   */\n      dup3\n        /* \"#utility.yul\":9562:9582   */\n      tag_81\n      jump\t// in\n    tag_240:\n        /* \"#utility.yul\":9557:9582   */\n      swap2\n      pop\n        /* \"#utility.yul\":9596:9616   */\n      tag_241\n        /* \"#utility.yul\":9614:9615   */\n      dup4\n        /* \"#utility.yul\":9596:9616   */\n      tag_81\n      jump\t// in\n    tag_241:\n        /* \"#utility.yul\":9591:9616   */\n      swap3\n      pop\n        /* \"#utility.yul\":9639:9640   */\n      dup3\n        /* \"#utility.yul\":9636:9637   */\n      dup3\n        /* \"#utility.yul\":9632:9641   */\n      add\n        /* \"#utility.yul\":9625:9641   */\n      swap1\n      pop\n        /* \"#utility.yul\":9660:9663   */\n      dup1\n        /* \"#utility.yul\":9657:9658   */\n      dup3\n        /* \"#utility.yul\":9654:9664   */\n      gt\n        /* \"#utility.yul\":9651:9687   */\n      iszero\n      tag_242\n      jumpi\n        /* \"#utility.yul\":9667:9685   */\n      tag_243\n      tag_114\n      jump\t// in\n    tag_243:\n        /* \"#utility.yul\":9651:9687   */\n    tag_242:\n        /* \"#utility.yul\":9503:9694   */\n      swap3\n      swap2\n      pop\n      pop\n      jump\t// out\n        /* \"#utility.yul\":9700:9841   */\n    tag_115:\n        /* \"#utility.yul\":9749:9753   */\n      0x00\n        /* \"#utility.yul\":9772:9775   */\n      dup2\n        /* \"#utility.yul\":9764:9775   */\n      swap1\n      pop\n        /* \"#utility.yul\":9795:9798   */\n      dup2\n        /* \"#utility.yul\":9792:9793   */\n      0x00\n        /* \"#utility.yul\":9785:9799   */\n      mstore\n        /* \"#utility.yul\":9829:9833   */\n      0x20\n        /* \"#utility.yul\":9826:9827   */\n      0x00\n        /* \"#utility.yul\":9816:9834   */\n      keccak256\n        /* \"#utility.yul\":9808:9834   */\n      swap1\n      pop\n        /* \"#utility.yul\":9700:9841   */\n      swap2\n      swap1\n      pop\n      jump\t// out\n        /* \"#utility.yul\":9847:9940   */\n    tag_116:\n        /* \"#utility.yul\":9884:9890   */\n      0x00\n        /* \"#utility.yul\":9931:9933   */\n      0x20\n        /* \"#utility.yul\":9926:9928   */\n      0x1f\n        /* \"#utility.yul\":9919:9924   */\n      dup4\n        /* \"#utility.yul\":9915:9929   */\n      add\n        /* \"#utility.yul\":9911:9934   */\n      div\n        /* \"#utility.yul\":9901:9934   */\n      swap1\n      pop\n        /* \"#utility.yul\":9847:9940   */\n      swap2\n      swap1\n      pop\n      jump\t// out\n        /* \"#utility.yul\":9946:10053   */\n    tag_117:\n        /* \"#utility.yul\":9990:9998   */\n      0x00\n        /* \"#utility.yul\":10040:10045   */\n      dup3\n        /* \"#utility.yul\":10034:10038   */\n      dup3\n        /* \"#utility.yul\":10030:10046   */\n      shl\n        /* \"#utility.yul\":10009:10046   */\n      swap1\n      pop\n        /* \"#utility.yul\":9946:10053   */\n      swap3\n      swap2\n      pop\n      pop\n      jump\t// out\n        /* \"#utility.yul\":10059:10452   */\n    tag_118:\n        /* \"#utility.yul\":10128:10134   */\n      0x00\n        /* \"#utility.yul\":10178:10179   */\n      0x08\n        /* \"#utility.yul\":10166:10176   */\n      dup4\n        /* \"#utility.yul\":10162:10180   */\n      mul\n        /* \"#utility.yul\":10201:10298   */\n      tag_248\n        /* \"#utility.yul\":10231:10297   */\n      0xffffffffffffffffffffffffffffffffffffffffffffffffffffffffffffffff\n        /* \"#utility.yul\":10220:10229   */\n      dup3\n        /* \"#utility.yul\":10201:10298   */\n      tag_117\n      jump\t// in\n    tag_248:\n        /* \"#utility.yul\":10319:10358   */\n      tag_249\n        /* \"#utility.yul\":10349:10357   */\n      dup7\n        /* \"#utility.yul\":10338:10347   */\n      dup4\n        /* \"#utility.yul\":10319:10358   */\n      tag_117\n      jump\t// in\n    tag_249:\n        /* \"#utility.yul\":10307:10358   */\n      swap6\n      pop\n        /* \"#utility.yul\":10391:10395   */\n      dup1\n        /* \"#utility.yul\":10387:10396   */\n      not\n        /* \"#utility.yul\":10380:10385   */\n      dup5\n        /* \"#utility.yul\":10376:10397   */\n      and\n        /* \"#utility.yul\":10367:10397   */\n      swap4\n      pop\n        /* \"#utility.yul\":10440:10444   */\n      dup1\n        /* \"#utility.yul\":10430:10438   */\n      dup7\n        /* \"#utility.yul\":10426:10445   */\n      and\n        /* \"#utility.yul\":10419:10424   */\n      dup5\n        /* \"#utility.yul\":10416:10446   */\n      or\n        /* \"#utility.yul\":10406:10446   */\n      swap3\n      pop\n        /* \"#utility.yul\":10135:10452   */\n      pop\n      pop\n        /* \"#utility.yul\":10059:10452   */\n      swap4\n      swap3\n      pop\n      pop\n      pop\n      jump\t// out\n        /* \"#utility.yul\":10458:10518   */\n    tag_119:\n        /* \"#utility.yul\":10486:10489   */\n      0x00\n        /* \"#utility.yul\":10507:10512   */\n      dup2\n        /* \"#utility.yul\":10500:10512   */\n      swap1\n      pop\n        /* \"#utility.yul\":10458:10518   */\n      swap2\n      swap1\n      pop\n      jump\t// out\n        /* \"#utility.yul\":10524:10666   */\n    tag_120:\n        /* \"#utility.yul\":10574:10583   */\n      0x00\n        /* \"#utility.yul\":10607:10660   */\n      tag_252\n        /* \"#utility.yul\":10625:10659   */\n      tag_253\n        /* \"#utility.yul\":10634:10658   */\n      tag_254\n        /* \"#utility.yul\":10652:10657   */\n      dup5\n        /* \"#utility.yul\":10634:10658   */\n      tag_81\n      jump\t// in\n    tag_254:\n        /* \"#utility.yul\":10625:10659   */\n      tag_119\n      jump\t// in\n    tag_253:\n        /* \"#utility.yul\":10607:10660   */\n      tag_81\n      jump\t// in\n    tag_252:\n        /* \"#utility.yul\":10594:10660   */\n      swap1\n      pop\n        /* \"#utility.yul\":10524:10666   */\n      swap2\n      swap1\n      pop\n      jump\t// out\n        /* \"#utility.yul\":10672:10747   */\n    tag_121:\n        /* \"#utility.yul\":10715:10718   */\n      0x00\n        /* \"#utility.yul\":10736:10741   */\n      dup2\n        /* \"#utility.yul\":10729:10741   */\n      swap1\n      pop\n        /* \"#utility.yul\":10672:10747   */\n      swap2\n      swap1\n      pop\n      jump\t// out\n        /* \"#utility.yul\":10753:11022   */\n    tag_122:\n        /* \"#utility.yul\":10863:10902   */\n      tag_257\n        /* \"#utility.yul\":10894:10901   */\n      dup4\n        /* \"#utility.yul\":10863:10902   */\n      tag_120\n      jump\t// in\n    tag_257:\n        /* \"#utility.yul\":10924:11015   */\n      tag_258\n        /* \"#utility.yul\":10973:11014   */\n      tag_259\n        /* \"#utility.yul\":10997:11013   */\n      dup3\n        /* \"#utility.yul\":10973:11014   */\n      tag_121\n      jump\t// in\n    tag_259:\n        /* \"#utility.yul\":10965:10971   */\n      dup5\n        /* \"#utility.yul\":10958:10962   */\n      dup5\n        /* \"#utility.yul\":10952:10963   */\n      sload\n        /* \"#utility.yul\":10924:11015   */\n      tag_118\n      jump\t// in\n    tag_258:\n        /* \"#utility.yul\":10918:10922   */\n      dup3\n        /* \"#utility.yul\":10911:11016   */\n      sstore\n        /* \"#utility.yul\":10829:11022   */\n      pop\n        /* \"#utility.yul\":10753:11022   */\n      pop\n      pop\n      pop\n      jump\t// out\n        /* \"#utility.yul\":11028:11101   */\n    tag_123:\n        /* \"#utility.yul\":11073:11076   */\n      0x00\n        /* \"#utility.yul\":11094:11095   */\n      0x00\n        /* \"#utility.yul\":11087:11095   */\n      swap1\n      pop\n        /* \"#utility.yul\":11028:11101   */\n      swap1\n      jump\t// out\n        /* \"#utility.yul\":11107:11296   */\n    tag_124:\n        /* \"#utility.yul\":11184:11216   */\n      tag_262\n      tag_123\n      jump\t// in\n    tag_262:\n        /* \"#utility.yul\":11225:11290   */\n      tag_263\n        /* \"#utility.yul\":11283:11289   */\n      dup2\n        /* \"#utility.yul\":11275:11281   */\n      dup5\n        /* \"#utility.yul\":11269:11273   */\n      dup5\n        /* \"#utility.yul\":11225:11290   */\n      tag_122\n      jump\t// in\n    tag_263:\n        /* \"#utility.yul\":11160:11296   */\n      pop\n        /* \"#utility.yul\":11107:11296   */\n      pop\n      pop\n      jump\t// out\n        /* \"#utility.yul\":11302:11488   */\n    tag_125:\n        /* \"#utility.yul\":11362:11482   */\n    tag_265:\n        /* \"#utility.yul\":11379:11382   */\n      dup2\n        /* \"#utility.yul\":11372:11377   */\n      dup2\n        /* \"#utility.yul\":11369:11383   */\n      lt\n        /* \"#utility.yul\":11362:11482   */\n      iszero\n      tag_267\n      jumpi\n        /* \"#utility.yul\":11433:11472   */\n      tag_268\n        /* \"#utility.yul\":11470:11471   */\n      0x00\n        /* \"#utility.yul\":11463:11468   */\n      dup3\n        /* \"#utility.yul\":11433:11472   */\n      tag_124\n      jump\t// in\n    tag_268:\n        /* \"#utility.yul\":11406:11407   */\n      0x01\n        /* \"#utility.yul\":11399:11404   */\n      dup2\n        /* \"#utility.yul\":11395:11408   */\n      add\n        /* \"#utility.yul\":11386:11408   */\n      swap1\n      pop\n        /* \"#utility.yul\":11362:11482   */\n      jump(tag_265)\n    tag_267:\n        /* \"#utility.yul\":11302:11488   */\n      pop\n      pop\n      jump\t// out\n        /* \"#utility.yul\":11494:12037   */\n    tag_126:\n        /* \"#utility.yul\":11595:11597   */\n      0x1f\n        /* \"#utility.yul\":11590:11593   */\n      dup3\n        /* \"#utility.yul\":11587:11598   */\n      gt\n        /* \"#utility.yul\":11584:12030   */\n      iszero\n      tag_270\n      jumpi\n        /* \"#utility.yul\":11629:11667   */\n      tag_271\n        /* \"#utility.yul\":11661:11666   */\n      dup2\n        /* \"#utility.yul\":11629:11667   */\n      tag_115\n      jump\t// in\n    tag_271:\n        /* \"#utility.yul\":11713:11742   */\n      tag_272\n        /* \"#utility.yul\":11731:11741   */\n      dup5\n        /* \"#utility.yul\":11713:11742   */\n      tag_116\n      jump\t// in\n    tag_272:\n        /* \"#utility.yul\":11703:11711   */\n      dup2\n        /* \"#utility.yul\":11699:11743   */\n      add\n        /* \"#utility.yul\":11896:11898   */\n      0x20\n        /* \"#utility.yul\":11884:11894   */\n      dup6\n        /* \"#utility.yul\":11881:11899   */\n      lt\n        /* \"#utility.yul\":11878:11927   */\n      iszero\n      tag_273\n      jumpi\n        /* \"#utility.yul\":11917:11925   */\n      dup2\n        /* \"#utility.yul\":11902:11925   */\n      swap1\n      pop\n        /* \"#utility.yul\":11878:11927   */\n    tag_273:\n        /* \"#utility.yul\":11940:12020   */\n      tag_274\n        /* \"#utility.yul\":11996:12018   */\n      tag_275\n        /* \"#utility.yul\":12014:12017   */\n      dup6\n        /* \"#utility.yul\":11996:12018   */\n      tag_116\n      jump\t// in\n    tag_275:\n        /* \"#utility.yul\":11986:11994   */\n      dup4\n        /* \"#utility.yul\":11982:12019   */\n      add\n        /* \"#utility.yul\":11969:11980   */\n      dup3\n        /* \"#utility.yul\":11940:12020   */\n      tag_125\n      jump\t// in\n    tag_274:\n        /* \"#utility.yul\":11599:12030   */\n      pop\n      pop\n        /* \"#utility.yul\":11584:12030   */\n    tag_270:\n        /* \"#utility.yul\":11494:12037   */\n      pop\n      pop\n      pop\n      jump\t// out\n        /* \"#utility.yul\":12043:12160   */\n    tag_127:\n        /* \"#utility.yul\":12097:12105   */\n      0x00\n        /* \"#utility.yul\":12147:12152   */\n      dup3\n        /* \"#utility.yul\":12141:12145   */\n      dup3\n        /* \"#utility.yul\":12137:12153   */\n      shr\n        /* \"#utility.yul\":12116:12153   */\n      swap1\n      pop\n        /* \"#utility.yul\":12043:12160   */\n      swap3\n      swap2\n      pop\n      pop\n      jump\t// out\n        /* \"#utility.yul\":12166:12335   */\n    tag_128:\n        /* \"#utility.yul\":12210:12216   */\n      0x00\n        /* \"#utility.yul\":12243:12294   */\n      tag_278\n        /* \"#utility.yul\":12291:12292   */\n      0x00\n        /* \"#utility.yul\":12287:12293   */\n      not\n        /* \"#utility.yul\":12279:12284   */\n      dup5\n        /* \"#utility.yul\":12276:12277   */\n      0x08\n        /* \"#utility.yul\":12272:12285   */\n      mul\n        /* \"#utility.yul\":12243:12294   */\n      tag_127\n      jump\t// in\n    tag_278:\n        /* \"#utility.yul\":12239:12295   */\n      not\n        /* \"#utility.yul\":12324:12328   */\n      dup1\n        /* \"#utility.yul\":12318:12322   */\n      dup4\n        /* \"#utility.yul\":12314:12329   */\n      and\n        /* \"#utility.yul\":12304:12329   */\n      swap2\n      pop\n        /* \"#utility.yul\":12217:12335   */\n      pop\n        /* \"#utility.yul\":12166:12335   */\n      swap3\n      swap2\n      pop\n      pop\n      jump\t// out\n        /* \"#utility.yul\":12340:12635   */\n    tag_129:\n        /* \"#utility.yul\":12416:12420   */\n      0x00\n        /* \"#utility.yul\":12562:12591   */\n      tag_280\n        /* \"#utility.yul\":12587:12590   */\n      dup4\n        /* \"#utility.yul\":12581:12585   */\n      dup4\n        /* \"#utility.yul\":12562:12591   */\n      tag_128\n      jump\t// in\n    tag_280:\n        /* \"#utility.yul\":12554:12591   */\n      swap2\n      pop\n        /* \"#utility.yul\":12624:12627   */\n      dup3\n        /* \"#utility.yul\":12621:12622   */\n      0x02\n        /* \"#utility.yul\":12617:12628   */\n      mul\n        /* \"#utility.yul\":12611:12615   */\n      dup3\n        /* \"#utility.yul\":12608:12629   */\n      or\n        /* \"#utility.yul\":12600:12629   */\n      swap1\n      pop\n        /* \"#utility.yul\":12340:12635   */\n      swap3\n      swap2\n      pop\n      pop\n      jump\t// out\n        /* \"#utility.yul\":12640:14035   */\n    tag_69:\n        /* \"#utility.yul\":12757:12794   */\n      tag_282\n        /* \"#utility.yul\":12790:12793   */\n      dup3\n        /* \"#utility.yul\":12757:12794   */\n      tag_84\n      jump\t// in\n    tag_282:\n        /* \"#utility.yul\":12859:12877   */\n      0xffffffffffffffff\n        /* \"#utility.yul\":12851:12857   */\n      dup2\n        /* \"#utility.yul\":12848:12878   */\n      gt\n        /* \"#utility.yul\":12845:12901   */\n      iszero\n      tag_283\n      jumpi\n        /* \"#utility.yul\":12881:12899   */\n      tag_284\n      tag_101\n      jump\t// in\n    tag_284:\n        /* \"#utility.yul\":12845:12901   */\n    tag_283:\n        /* \"#utility.yul\":12925:12963   */\n      tag_285\n        /* \"#utility.yul\":12957:12961   */\n      dup3\n        /* \"#utility.yul\":12951:12962   */\n      sload\n        /* \"#utility.yul\":12925:12963   */\n      tag_36\n      jump\t// in\n    tag_285:\n        /* \"#utility.yul\":13010:13077   */\n      tag_286\n        /* \"#utility.yul\":13070:13076   */\n      dup3\n        /* \"#utility.yul\":13062:13068   */\n      dup3\n        /* \"#utility.yul\":13056:13060   */\n      dup6\n        /* \"#utility.yul\":13010:13077   */\n      tag_126\n      jump\t// in\n    tag_286:\n        /* \"#utility.yul\":13104:13105   */\n      0x00\n        /* \"#utility.yul\":13128:13132   */\n      0x20\n        /* \"#utility.yul\":13115:13132   */\n      swap1\n      pop\n        /* \"#utility.yul\":13160:13162   */\n      0x1f\n        /* \"#utility.yul\":13152:13158   */\n      dup4\n        /* \"#utility.yul\":13149:13163   */\n      gt\n        /* \"#utility.yul\":13177:13178   */\n      0x01\n        /* \"#utility.yul\":13172:13790   */\n      dup2\n      eq\n      tag_288\n      jumpi\n        /* \"#utility.yul\":13834:13835   */\n      0x00\n        /* \"#utility.yul\":13851:13857   */\n      dup5\n        /* \"#utility.yul\":13848:13925   */\n      iszero\n      tag_289\n      jumpi\n        /* \"#utility.yul\":13900:13909   */\n      dup3\n        /* \"#utility.yul\":13895:13898   */\n      dup8\n        /* \"#utility.yul\":13891:13910   */\n      add\n        /* \"#utility.yul\":13885:13911   */\n      mload\n        /* \"#utility.yul\":13876:13911   */\n      swap1\n      pop\n        /* \"#utility.yul\":13848:13925   */\n    tag_289:\n        /* \"#utility.yul\":13951:14018   */\n      tag_290\n        /* \"#utility.yul\":14011:14017   */\n      dup6\n        /* \"#utility.yul\":14004:14009   */\n      dup3\n        /* \"#utility.yul\":13951:14018   */\n      tag_129\n      jump\t// in\n    tag_290:\n        /* \"#utility.yul\":13945:13949   */\n      dup7\n        /* \"#utility.yul\":13938:14019   */\n      sstore\n        /* \"#utility.yul\":13807:14029   */\n      pop\n        /* \"#utility.yul\":13142:14029   */\n      jump(tag_287)\n        /* \"#utility.yul\":13172:13790   */\n    tag_288:\n        /* \"#utility.yul\":13224:13228   */\n      0x1f\n        /* \"#utility.yul\":13220:13229   */\n      not\n        /* \"#utility.yul\":13212:13218   */\n      dup5\n        /* \"#utility.yul\":13208:13230   */\n      and\n        /* \"#utility.yul\":13258:13295   */\n      tag_291\n        /* \"#utility.yul\":13290:13294   */\n      dup7\n        /* \"#utility.yul\":13258:13295   */\n      tag_115\n      jump\t// in\n    tag_291:\n        /* \"#utility.yul\":13317:13318   */\n      0x00\n        /* \"#utility.yul\":13331:13539   */\n    tag_292:\n        /* \"#utility.yul\":13345:13352   */\n      dup3\n        /* \"#utility.yul\":13342:13343   */\n      dup2\n        /* \"#utility.yul\":13339:13353   */\n      lt\n        /* \"#utility.yul\":13331:13539   */\n      iszero\n      tag_294\n      jumpi\n        /* \"#utility.yul\":13424:13433   */\n      dup5\n        /* \"#utility.yul\":13419:13422   */\n      dup10\n        /* \"#utility.yul\":13415:13434   */\n      add\n        /* \"#utility.yul\":13409:13435   */\n      mload\n        /* \"#utility.yul\":13401:13407   */\n      dup3\n        /* \"#utility.yul\":13394:13436   */\n      sstore\n        /* \"#utility.yul\":13475:13476   */\n      0x01\n        /* \"#utility.yul\":13467:13473   */\n      dup3\n        /* \"#utility.yul\":13463:13477   */\n      add\n        /* \"#utility.yul\":13453:13477   */\n      swap2\n      pop\n        /* \"#utility.yul\":13522:13524   */\n      0x20\n        /* \"#utility.yul\":13511:13520   */\n      dup6\n        /* \"#utility.yul\":13507:13525   */\n      add\n        /* \"#utility.yul\":13494:13525   */\n      swap5\n      pop\n        /* \"#utility.yul\":13368:13372   */\n      0x20\n        /* \"#utility.yul\":13365:13366   */\n      dup2\n        /* \"#utility.yul\":13361:13373   */\n      add\n        /* \"#utility.yul\":13356:13373   */\n      swap1\n      pop\n        /* \"#utility.yul\":13331:13539   */\n      jump(tag_292)\n    tag_294:\n        /* \"#utility.yul\":13567:13573   */\n      dup7\n        /* \"#utility.yul\":13558:13565   */\n      dup4\n        /* \"#utility.yul\":13555:13574   */\n      lt\n        /* \"#utility.yul\":13552:13731   */\n      iszero\n      tag_295\n      jumpi\n        /* \"#utility.yul\":13625:13634   */\n      dup5\n        /* \"#utility.yul\":13620:13623   */\n      dup10\n        /* \"#utility.yul\":13616:13635   */\n      add\n        /* \"#utility.yul\":13610:13636   */\n      mload\n        /* \"#utility.yul\":13668:13716   */\n      tag_296\n        /* \"#utility.yul\":13710:13714   */\n      0x1f\n        /* \"#utility.yul\":13702:13708   */\n      dup10\n        /* \"#utility.yul\":13698:13715   */\n      and\n        /* \"#utility.yul\":13687:13696   */\n      dup3\n        /* \"#utility.yul\":13668:13716   */\n      tag_128\n      jump\t// in\n    tag_296:\n        /* \"#utility.yul\":13660:13666   */\n      dup4\n        /* \"#utility.yul\":13653:13717   */\n      sstore\n        /* \"#utility.yul\":13575:13731   */\n      pop\n        /* \"#utility.yul\":13552:13731   */\n    tag_295:\n        /* \"#utility.yul\":13777:13778   */\n      0x01\n        /* \"#utility.yul\":13773:13774   */\n      0x02\n        /* \"#utility.yul\":13765:13771   */\n      dup9\n        /* \"#utility.yul\":13761:13775   */\n      mul\n        /* \"#utility.yul\":13757:13779   */\n      add\n        /* \"#utility.yul\":13751:13755   */\n      dup9\n        /* \"#utility.yul\":13744:13780   */\n      sstore\n        /* \"#utility.yul\":13179:13790   */\n      pop\n      pop\n      pop\n        /* \"#utility.yul\":13142:14029   */\n    tag_287:\n      pop\n        /* \"#utility.yul\":12732:14035   */\n      pop\n      pop\n      pop\n        /* \"#utility.yul\":12640:14035   */\n      pop\n      pop\n      jump\t// out\n        /* \"#utility.yul\":14041:14235   */\n    tag_71:\n        /* \"#utility.yul\":14081:14085   */\n      0x00\n        /* \"#utility.yul\":14101:14121   */\n      tag_298\n        /* \"#utility.yul\":14119:14120   */\n      dup3\n        /* \"#utility.yul\":14101:14121   */\n      tag_81\n      jump\t// in\n    tag_298:\n        /* \"#utility.yul\":14096:14121   */\n      swap2\n      pop\n        /* \"#utility.yul\":14135:14155   */\n      tag_299\n        /* \"#utility.yul\":14153:14154   */\n      dup4\n        /* \"#utility.yul\":14135:14155   */\n      tag_81\n      jump\t// in\n    tag_299:\n        /* \"#utility.yul\":14130:14155   */\n      swap3\n      pop\n        /* \"#utility.yul\":14179:14180   */\n      dup3\n        /* \"#utility.yul\":14176:14177   */\n      dup3\n        /* \"#utility.yul\":14172:14181   */\n      sub\n        /* \"#utility.yul\":14164:14181   */\n      swap1\n      pop\n        /* \"#utility.yul\":14203:14204   */\n      dup2\n        /* \"#utility.yul\":14197:14201   */\n      dup2\n        /* \"#utility.yul\":14194:14205   */\n      gt\n        /* \"#utility.yul\":14191:14228   */\n      iszero\n      tag_300\n      jumpi\n        /* \"#utility.yul\":14208:14226   */\n      tag_301\n      tag_114\n      jump\t// in\n    tag_301:\n        /* \"#utility.yul\":14191:14228   */\n    tag_300:\n        /* \"#utility.yul\":14041:14235   */\n      swap3\n      swap2\n      pop\n      pop\n      jump\t// out\n        /* \"#utility.yul\":14241:14474   */\n    tag_73:\n        /* \"#utility.yul\":14280:14283   */\n      0x00\n        /* \"#utility.yul\":14303:14327   */\n      tag_303\n        /* \"#utility.yul\":14321:14326   */\n      dup3\n        /* \"#utility.yul\":14303:14327   */\n      tag_81\n      jump\t// in\n    tag_303:\n        /* \"#utility.yul\":14294:14327   */\n      swap2\n      pop\n        /* \"#utility.yul\":14349:14415   */\n      0xffffffffffffffffffffffffffffffffffffffffffffffffffffffffffffffff\n        /* \"#utility.yul\":14342:14347   */\n      dup3\n        /* \"#utility.yul\":14339:14416   */\n      sub\n        /* \"#utility.yul\":14336:14439   */\n      tag_304\n      jumpi\n        /* \"#utility.yul\":14419:14437   */\n      tag_305\n      tag_114\n      jump\t// in\n    tag_305:\n        /* \"#utility.yul\":14336:14439   */\n    tag_304:\n        /* \"#utility.yul\":14466:14467   */\n      0x01\n        /* \"#utility.yul\":14459:14464   */\n      dup3\n        /* \"#utility.yul\":14455:14468   */\n      add\n        /* \"#utility.yul\":14448:14468   */\n      swap1\n      pop\n        /* \"#utility.yul\":14241:14474   */\n      swap2\n      swap1\n      pop\n      jump\t// out\n        /* \"#utility.yul\":14480:15013   */\n    tag_75:\n        /* \"#utility.yul\":14649:14653   */\n      0x00\n        /* \"#utility.yul\":14687:14689   */\n      0x60\n        /* \"#utility.yul\":14676:14685   */\n      dup3\n        /* \"#utility.yul\":14672:14690   */\n      add\n        /* \"#utility.yul\":14664:14690   */\n      swap1\n      pop\n        /* \"#utility.yul\":14700:14771   */\n      tag_307\n        /* \"#utility.yul\":14768:14769   */\n      0x00\n        /* \"#utility.yul\":14757:14766   */\n      dup4\n        /* \"#utility.yul\":14753:14770   */\n      add\n        /* \"#utility.yul\":14744:14750   */\n      dup7\n        /* \"#utility.yul\":14700:14771   */\n      tag_89\n      jump\t// in\n    tag_307:\n        /* \"#utility.yul\":14818:14827   */\n      dup2\n        /* \"#utility.yul\":14812:14816   */\n      dup2\n        /* \"#utility.yul\":14808:14828   */\n      sub\n        /* \"#utility.yul\":14803:14805   */\n      0x20\n        /* \"#utility.yul\":14792:14801   */\n      dup4\n        /* \"#utility.yul\":14788:14806   */\n      add\n        /* \"#utility.yul\":14781:14829   */\n      mstore\n        /* \"#utility.yul\":14846:14924   */\n      tag_308\n        /* \"#utility.yul\":14919:14923   */\n      dup2\n        /* \"#utility.yul\":14910:14916   */\n      dup6\n        /* \"#utility.yul\":14846:14924   */\n      tag_88\n      jump\t// in\n    tag_308:\n        /* \"#utility.yul\":14838:14924   */\n      swap1\n      pop\n        /* \"#utility.yul\":14934:15006   */\n      tag_309\n        /* \"#utility.yul\":15002:15004   */\n      0x40\n        /* \"#utility.yul\":14991:15000   */\n      dup4\n        /* \"#utility.yul\":14987:15005   */\n      add\n        /* \"#utility.yul\":14978:14984   */\n      dup5\n        /* \"#utility.yul\":14934:15006   */\n      tag_89\n      jump\t// in\n    tag_309:\n        /* \"#utility.yul\":14480:15013   */\n      swap5\n      swap4\n      pop\n      pop\n      pop\n      pop\n      jump\t// out\n\n    auxdata: 0xa2646970667358221220b9a6743e5619a67af36162810d77f842bfe2c4f98895d59006db231b8cba39de64736f6c634300081e0033\n}\n",
				"bytecode": {
					"linkReferences": {},
					"object": "60806040526010600155600154600a6100189190610251565b6002556201518060035534801561002d575f5ffd5b50335f5f6101000a81548173ffffffffffffffffffffffffffffffffffffffff021916908373ffffffffffffffffffffffffffffffffffffffff1602179055505f5f9054906101000a900473ffffffffffffffffffffffffffffffffffffffff1673ffffffffffffffffffffffffffffffffffffffff165f73ffffffffffffffffffffffffffffffffffffffff167f8be0079c531659141344cd1fd0a4f28419497f9722a3daafe3b4186f6b6457e060405160405180910390a361029b565b7f4e487b71000000000000000000000000000000000000000000000000000000005f52601160045260245ffd5b5f8160011c9050919050565b5f5f8291508390505b600185111561016e5780860481111561014a576101496100ec565b5b60018516156101595780820291505b808102905061016785610119565b945061012e565b94509492505050565b5f826101865760019050610241565b81610193575f9050610241565b81600181146101a957600281146101b3576101e2565b6001915050610241565b60ff8411156101c5576101c46100ec565b5b8360020a9150848211156101dc576101db6100ec565b5b50610241565b5060208310610133831016604e8410600b84101617156102175782820a905083811115610212576102116100ec565b5b610241565b6102248484846001610125565b9250905081840481111561023b5761023a6100ec565b5b81810290505b9392505050565b5f819050919050565b5f61025b82610248565b915061026683610248565b92506102937fffffffffffffffffffffffffffffffffffffffffffffffffffffffffffffffff8484610177565b905092915050565b610fe0806102a85f395ff3fe608060405234801561000f575f5ffd5b5060043610610060575f3560e01c80632052465e14610064578063715018a6146100995780638da5cb5b146100a35780638f32d59b146100c1578063ad822778146100df578063f2fde38b146100fb575b5f5ffd5b61007e6004803603810190610079919061077e565b610117565b60405161009096959493929190610862565b60405180910390f35b6100a161021f565b005b6100ab6102ea565b6040516100b89190610907565b60405180910390f35b6100c9610311565b6040516100d6919061093a565b60405180910390f35b6100f960048036038101906100f49190610a7f565b610366565b005b61011560048036038101906101109190610af0565b6103c8565b005b60048181548110610126575f80fd5b905f5260205f2090600302015f91509050805f01805461014590610b48565b80601f016020809104026020016040519081016040528092919081815260200182805461017190610b48565b80156101bc5780601f10610193576101008083540402835291602001916101bc565b820191905f5260205f20905b81548152906001019060200180831161019f57829003601f168201915b505050505090806001015490806002015f9054906101000a900463ffffffff16908060020160049054906101000a900463ffffffff16908060020160089054906101000a900461ffff169080600201600a9054906101000a900461ffff16905086565b610227610311565b61022f575f5ffd5b5f73ffffffffffffffffffffffffffffffffffffffff165f5f9054906101000a900473ffffffffffffffffffffffffffffffffffffffff1673ffffffffffffffffffffffffffffffffffffffff167f8be0079c531659141344cd1fd0a4f28419497f9722a3daafe3b4186f6b6457e060405160405180910390a35f5f5f6101000a81548173ffffffffffffffffffffffffffffffffffffffff021916908373ffffffffffffffffffffffffffffffffffffffff160217905550565b5f5f5f9054906101000a900473ffffffffffffffffffffffffffffffffffffffff16905090565b5f5f5f9054906101000a900473ffffffffffffffffffffffffffffffffffffffff1673ffffffffffffffffffffffffffffffffffffffff163373ffffffffffffffffffffffffffffffffffffffff1614905090565b5f60065f3373ffffffffffffffffffffffffffffffffffffffff1673ffffffffffffffffffffffffffffffffffffffff1681526020019081526020015f2054146103ae575f5ffd5b5f6103b8826103e4565b90506103c48282610427565b5050565b6103d0610311565b6103d8575f5ffd5b6103e181610647565b50565b5f5f826040516020016103f79190610bb2565b604051602081830303815290604052805190602001205f1c90506002548161041f9190610bf5565b915050919050565b60046040518060c00160405280848152602001838152602001600163ffffffff1681526020016003544261045b9190610c52565b63ffffffff1681526020015f61ffff1681526020015f61ffff16815250908060018154018082558091505060019003905f5260205f2090600302015f909190919091505f820151815f0190816104b19190610e25565b50602082015181600101556040820151816002015f6101000a81548163ffffffff021916908363ffffffff16021790555060608201518160020160046101000a81548163ffffffff021916908363ffffffff16021790555060808201518160020160086101000a81548161ffff021916908361ffff16021790555060a082015181600201600a6101000a81548161ffff021916908361ffff16021790555050505f60016004805490506105649190610ef4565b90503360055f8381526020019081526020015f205f6101000a81548173ffffffffffffffffffffffffffffffffffffffff021916908373ffffffffffffffffffffffffffffffffffffffff16021790555060065f3373ffffffffffffffffffffffffffffffffffffffff1673ffffffffffffffffffffffffffffffffffffffff1681526020019081526020015f205f81548092919061060290610f27565b91905055507f88f026aacbbecc90c18411df4b1185fd8d9be2470f1962f192bf84a27d0704b781848460405161063a93929190610f6e565b60405180910390a1505050565b5f73ffffffffffffffffffffffffffffffffffffffff168173ffffffffffffffffffffffffffffffffffffffff160361067e575f5ffd5b8073ffffffffffffffffffffffffffffffffffffffff165f5f9054906101000a900473ffffffffffffffffffffffffffffffffffffffff1673ffffffffffffffffffffffffffffffffffffffff167f8be0079c531659141344cd1fd0a4f28419497f9722a3daafe3b4186f6b6457e060405160405180910390a3805f5f6101000a81548173ffffffffffffffffffffffffffffffffffffffff021916908373ffffffffffffffffffffffffffffffffffffffff16021790555050565b5f604051905090565b5f5ffd5b5f5ffd5b5f819050919050565b61075d8161074b565b8114610767575f5ffd5b50565b5f8135905061077881610754565b92915050565b5f6020828403121561079357610792610743565b5b5f6107a08482850161076a565b91505092915050565b5f81519050919050565b5f82825260208201905092915050565b8281835e5f83830152505050565b5f601f19601f8301169050919050565b5f6107eb826107a9565b6107f581856107b3565b93506108058185602086016107c3565b61080e816107d1565b840191505092915050565b6108228161074b565b82525050565b5f63ffffffff82169050919050565b61084081610828565b82525050565b5f61ffff82169050919050565b61085c81610846565b82525050565b5f60c0820190508181035f83015261087a81896107e1565b90506108896020830188610819565b6108966040830187610837565b6108a36060830186610837565b6108b06080830185610853565b6108bd60a0830184610853565b979650505050505050565b5f73ffffffffffffffffffffffffffffffffffffffff82169050919050565b5f6108f1826108c8565b9050919050565b610901816108e7565b82525050565b5f60208201905061091a5f8301846108f8565b92915050565b5f8115159050919050565b61093481610920565b82525050565b5f60208201905061094d5f83018461092b565b92915050565b5f5ffd5b5f5ffd5b7f4e487b71000000000000000000000000000000000000000000000000000000005f52604160045260245ffd5b610991826107d1565b810181811067ffffffffffffffff821117156109b0576109af61095b565b5b80604052505050565b5f6109c261073a565b90506109ce8282610988565b919050565b5f67ffffffffffffffff8211156109ed576109ec61095b565b5b6109f6826107d1565b9050602081019050919050565b828183375f83830152505050565b5f610a23610a1e846109d3565b6109b9565b905082815260208101848484011115610a3f57610a3e610957565b5b610a4a848285610a03565b509392505050565b5f82601f830112610a6657610a65610953565b5b8135610a76848260208601610a11565b91505092915050565b5f60208284031215610a9457610a93610743565b5b5f82013567ffffffffffffffff811115610ab157610ab0610747565b5b610abd84828501610a52565b91505092915050565b610acf816108e7565b8114610ad9575f5ffd5b50565b5f81359050610aea81610ac6565b92915050565b5f60208284031215610b0557610b04610743565b5b5f610b1284828501610adc565b91505092915050565b7f4e487b71000000000000000000000000000000000000000000000000000000005f52602260045260245ffd5b5f6002820490506001821680610b5f57607f821691505b602082108103610b7257610b71610b1b565b5b50919050565b5f81905092915050565b5f610b8c826107a9565b610b968185610b78565b9350610ba68185602086016107c3565b80840191505092915050565b5f610bbd8284610b82565b915081905092915050565b7f4e487b71000000000000000000000000000000000000000000000000000000005f52601260045260245ffd5b5f610bff8261074b565b9150610c0a8361074b565b925082610c1a57610c19610bc8565b5b828206905092915050565b7f4e487b71000000000000000000000000000000000000000000000000000000005f52601160045260245ffd5b5f610c5c8261074b565b9150610c678361074b565b9250828201905080821115610c7f57610c7e610c25565b5b92915050565b5f819050815f5260205f209050919050565b5f6020601f8301049050919050565b5f82821b905092915050565b5f60088302610ce17fffffffffffffffffffffffffffffffffffffffffffffffffffffffffffffffff82610ca6565b610ceb8683610ca6565b95508019841693508086168417925050509392505050565b5f819050919050565b5f610d26610d21610d1c8461074b565b610d03565b61074b565b9050919050565b5f819050919050565b610d3f83610d0c565b610d53610d4b82610d2d565b848454610cb2565b825550505050565b5f5f905090565b610d6a610d5b565b610d75818484610d36565b505050565b5b81811015610d9857610d8d5f82610d62565b600181019050610d7b565b5050565b601f821115610ddd57610dae81610c85565b610db784610c97565b81016020851015610dc6578190505b610dda610dd285610c97565b830182610d7a565b50505b505050565b5f82821c905092915050565b5f610dfd5f1984600802610de2565b1980831691505092915050565b5f610e158383610dee565b9150826002028217905092915050565b610e2e826107a9565b67ffffffffffffffff811115610e4757610e4661095b565b5b610e518254610b48565b610e5c828285610d9c565b5f60209050601f831160018114610e8d575f8415610e7b578287015190505b610e858582610e0a565b865550610eec565b601f198416610e9b86610c85565b5f5b82811015610ec257848901518255600182019150602085019450602081019050610e9d565b86831015610edf5784890151610edb601f891682610dee565b8355505b6001600288020188555050505b505050505050565b5f610efe8261074b565b9150610f098361074b565b9250828203905081811115610f2157610f20610c25565b5b92915050565b5f610f318261074b565b91507fffffffffffffffffffffffffffffffffffffffffffffffffffffffffffffffff8203610f6357610f62610c25565b5b600182019050919050565b5f606082019050610f815f830186610819565b8181036020830152610f9381856107e1565b9050610fa26040830184610819565b94935050505056fea2646970667358221220b9a6743e5619a67af36162810d77f842bfe2c4f98895d59006db231b8cba39de64736f6c634300081e0033",
					"opcodes": "PUSH1 0x80 PUSH1 0x40 MSTORE PUSH1 0x10 PUSH1 0x1 SSTORE PUSH1 0x1 SLOAD PUSH1 0xA PUSH2 0x18 SWAP2 SWAP1 PUSH2 0x251 JUMP JUMPDEST PUSH1 0x2 SSTORE PUSH3 0x15180 PUSH1 0x3 SSTORE CALLVALUE DUP1 ISZERO PUSH2 0x2D JUMPI PUSH0 PUSH0 REVERT JUMPDEST POP CALLER PUSH0 PUSH0 PUSH2 0x100 EXP DUP2 SLOAD DUP2 PUSH20 0xFFFFFFFFFFFFFFFFFFFFFFFFFFFFFFFFFFFFFFFF MUL NOT AND SWAP1 DUP4 PUSH20 0xFFFFFFFFFFFFFFFFFFFFFFFFFFFFFFFFFFFFFFFF AND MUL OR SWAP1 SSTORE POP PUSH0 PUSH0 SWAP1 SLOAD SWAP1 PUSH2 0x100 EXP SWAP1 DIV PUSH20 0xFFFFFFFFFFFFFFFFFFFFFFFFFFFFFFFFFFFFFFFF AND PUSH20 0xFFFFFFFFFFFFFFFFFFFFFFFFFFFFFFFFFFFFFFFF AND PUSH0 PUSH20 0xFFFFFFFFFFFFFFFFFFFFFFFFFFFFFFFFFFFFFFFF AND PUSH32 0x8BE0079C531659141344CD1FD0A4F28419497F9722A3DAAFE3B4186F6B6457E0 PUSH1 0x40 MLOAD PUSH1 0x40 MLOAD DUP1 SWAP2 SUB SWAP1 LOG3 PUSH2 0x29B JUMP JUMPDEST PUSH32 0x4E487B7100000000000000000000000000000000000000000000000000000000 PUSH0 MSTORE PUSH1 0x11 PUSH1 0x4 MSTORE PUSH1 0x24 PUSH0 REVERT JUMPDEST PUSH0 DUP2 PUSH1 0x1 SHR SWAP1 POP SWAP2 SWAP1 POP JUMP JUMPDEST PUSH0 PUSH0 DUP3 SWAP2 POP DUP4 SWAP1 POP JUMPDEST PUSH1 0x1 DUP6 GT ISZERO PUSH2 0x16E JUMPI DUP1 DUP7 DIV DUP2 GT ISZERO PUSH2 0x14A JUMPI PUSH2 0x149 PUSH2 0xEC JUMP JUMPDEST JUMPDEST PUSH1 0x1 DUP6 AND ISZERO PUSH2 0x159 JUMPI DUP1 DUP3 MUL SWAP2 POP JUMPDEST DUP1 DUP2 MUL SWAP1 POP PUSH2 0x167 DUP6 PUSH2 0x119 JUMP JUMPDEST SWAP5 POP PUSH2 0x12E JUMP JUMPDEST SWAP5 POP SWAP5 SWAP3 POP POP POP JUMP JUMPDEST PUSH0 DUP3 PUSH2 0x186 JUMPI PUSH1 0x1 SWAP1 POP PUSH2 0x241 JUMP JUMPDEST DUP2 PUSH2 0x193 JUMPI PUSH0 SWAP1 POP PUSH2 0x241 JUMP JUMPDEST DUP2 PUSH1 0x1 DUP2 EQ PUSH2 0x1A9 JUMPI PUSH1 0x2 DUP2 EQ PUSH2 0x1B3 JUMPI PUSH2 0x1E2 JUMP JUMPDEST PUSH1 0x1 SWAP2 POP POP PUSH2 0x241 JUMP JUMPDEST PUSH1 0xFF DUP5 GT ISZERO PUSH2 0x1C5 JUMPI PUSH2 0x1C4 PUSH2 0xEC JUMP JUMPDEST JUMPDEST DUP4 PUSH1 0x2 EXP SWAP2 POP DUP5 DUP3 GT ISZERO PUSH2 0x1DC JUMPI PUSH2 0x1DB PUSH2 0xEC JUMP JUMPDEST JUMPDEST POP PUSH2 0x241 JUMP JUMPDEST POP PUSH1 0x20 DUP4 LT PUSH2 0x133 DUP4 LT AND PUSH1 0x4E DUP5 LT PUSH1 0xB DUP5 LT AND OR ISZERO PUSH2 0x217 JUMPI DUP3 DUP3 EXP SWAP1 POP DUP4 DUP2 GT ISZERO PUSH2 0x212 JUMPI PUSH2 0x211 PUSH2 0xEC JUMP JUMPDEST JUMPDEST PUSH2 0x241 JUMP JUMPDEST PUSH2 0x224 DUP5 DUP5 DUP5 PUSH1 0x1 PUSH2 0x125 JUMP JUMPDEST SWAP3 POP SWAP1 POP DUP2 DUP5 DIV DUP2 GT ISZERO PUSH2 0x23B JUMPI PUSH2 0x23A PUSH2 0xEC JUMP JUMPDEST JUMPDEST DUP2 DUP2 MUL SWAP1 POP JUMPDEST SWAP4 SWAP3 POP POP POP JUMP JUMPDEST PUSH0 DUP2 SWAP1 POP SWAP2 SWAP1 POP JUMP JUMPDEST PUSH0 PUSH2 0x25B DUP3 PUSH2 0x248 JUMP JUMPDEST SWAP2 POP PUSH2 0x266 DUP4 PUSH2 0x248 JUMP JUMPDEST SWAP3 POP PUSH2 0x293 PUSH32 0xFFFFFFFFFFFFFFFFFFFFFFFFFFFFFFFFFFFFFFFFFFFFFFFFFFFFFFFFFFFFFFFF DUP5 DUP5 PUSH2 0x177 JUMP JUMPDEST SWAP1 POP SWAP3 SWAP2 POP POP JUMP JUMPDEST PUSH2 0xFE0 DUP1 PUSH2 0x2A8 PUSH0 CODECOPY PUSH0 RETURN INVALID PUSH1 0x80 PUSH1 0x40 MSTORE CALLVALUE DUP1 ISZERO PUSH2 0xF JUMPI PUSH0 PUSH0 REVERT JUMPDEST POP PUSH1 0x4 CALLDATASIZE LT PUSH2 0x60 JUMPI PUSH0 CALLDATALOAD PUSH1 0xE0 SHR DUP1 PUSH4 0x2052465E EQ PUSH2 0x64 JUMPI DUP1 PUSH4 0x715018A6 EQ PUSH2 0x99 JUMPI DUP1 PUSH4 0x8DA5CB5B EQ PUSH2 0xA3 JUMPI DUP1 PUSH4 0x8F32D59B EQ PUSH2 0xC1 JUMPI DUP1 PUSH4 0xAD822778 EQ PUSH2 0xDF JUMPI DUP1 PUSH4 0xF2FDE38B EQ PUSH2 0xFB JUMPI JUMPDEST PUSH0 PUSH0 REVERT JUMPDEST PUSH2 0x7E PUSH1 0x4 DUP1 CALLDATASIZE SUB DUP2 ADD SWAP1 PUSH2 0x79 SWAP2 SWAP1 PUSH2 0x77E JUMP JUMPDEST PUSH2 0x117 JUMP JUMPDEST PUSH1 0x40 MLOAD PUSH2 0x90 SWAP7 SWAP6 SWAP5 SWAP4 SWAP3 SWAP2 SWAP1 PUSH2 0x862 JUMP JUMPDEST PUSH1 0x40 MLOAD DUP1 SWAP2 SUB SWAP1 RETURN JUMPDEST PUSH2 0xA1 PUSH2 0x21F JUMP JUMPDEST STOP JUMPDEST PUSH2 0xAB PUSH2 0x2EA JUMP JUMPDEST PUSH1 0x40 MLOAD PUSH2 0xB8 SWAP2 SWAP1 PUSH2 0x907 JUMP JUMPDEST PUSH1 0x40 MLOAD DUP1 SWAP2 SUB SWAP1 RETURN JUMPDEST PUSH2 0xC9 PUSH2 0x311 JUMP JUMPDEST PUSH1 0x40 MLOAD PUSH2 0xD6 SWAP2 SWAP1 PUSH2 0x93A JUMP JUMPDEST PUSH1 0x40 MLOAD DUP1 SWAP2 SUB SWAP1 RETURN JUMPDEST PUSH2 0xF9 PUSH1 0x4 DUP1 CALLDATASIZE SUB DUP2 ADD SWAP1 PUSH2 0xF4 SWAP2 SWAP1 PUSH2 0xA7F JUMP JUMPDEST PUSH2 0x366 JUMP JUMPDEST STOP JUMPDEST PUSH2 0x115 PUSH1 0x4 DUP1 CALLDATASIZE SUB DUP2 ADD SWAP1 PUSH2 0x110 SWAP2 SWAP1 PUSH2 0xAF0 JUMP JUMPDEST PUSH2 0x3C8 JUMP JUMPDEST STOP JUMPDEST PUSH1 0x4 DUP2 DUP2 SLOAD DUP2 LT PUSH2 0x126 JUMPI PUSH0 DUP1 REVERT JUMPDEST SWAP1 PUSH0 MSTORE PUSH1 0x20 PUSH0 KECCAK256 SWAP1 PUSH1 0x3 MUL ADD PUSH0 SWAP2 POP SWAP1 POP DUP1 PUSH0 ADD DUP1 SLOAD PUSH2 0x145 SWAP1 PUSH2 0xB48 JUMP JUMPDEST DUP1 PUSH1 0x1F ADD PUSH1 0x20 DUP1 SWAP2 DIV MUL PUSH1 0x20 ADD PUSH1 0x40 MLOAD SWAP1 DUP2 ADD PUSH1 0x40 MSTORE DUP1 SWAP3 SWAP2 SWAP1 DUP2 DUP2 MSTORE PUSH1 0x20 ADD DUP3 DUP1 SLOAD PUSH2 0x171 SWAP1 PUSH2 0xB48 JUMP JUMPDEST DUP1 ISZERO PUSH2 0x1BC JUMPI DUP1 PUSH1 0x1F LT PUSH2 0x193 JUMPI PUSH2 0x100 DUP1 DUP4 SLOAD DIV MUL DUP4 MSTORE SWAP2 PUSH1 0x20 ADD SWAP2 PUSH2 0x1BC JUMP JUMPDEST DUP3 ADD SWAP2 SWAP1 PUSH0 MSTORE PUSH1 0x20 PUSH0 KECCAK256 SWAP1 JUMPDEST DUP2 SLOAD DUP2 MSTORE SWAP1 PUSH1 0x1 ADD SWAP1 PUSH1 0x20 ADD DUP1 DUP4 GT PUSH2 0x19F JUMPI DUP3 SWAP1 SUB PUSH1 0x1F AND DUP3 ADD SWAP2 JUMPDEST POP POP POP POP POP SWAP1 DUP1 PUSH1 0x1 ADD SLOAD SWAP1 DUP1 PUSH1 0x2 ADD PUSH0 SWAP1 SLOAD SWAP1 PUSH2 0x100 EXP SWAP1 DIV PUSH4 0xFFFFFFFF AND SWAP1 DUP1 PUSH1 0x2 ADD PUSH1 0x4 SWAP1 SLOAD SWAP1 PUSH2 0x100 EXP SWAP1 DIV PUSH4 0xFFFFFFFF AND SWAP1 DUP1 PUSH1 0x2 ADD PUSH1 0x8 SWAP1 SLOAD SWAP1 PUSH2 0x100 EXP SWAP1 DIV PUSH2 0xFFFF AND SWAP1 DUP1 PUSH1 0x2 ADD PUSH1 0xA SWAP1 SLOAD SWAP1 PUSH2 0x100 EXP SWAP1 DIV PUSH2 0xFFFF AND SWAP1 POP DUP7 JUMP JUMPDEST PUSH2 0x227 PUSH2 0x311 JUMP JUMPDEST PUSH2 0x22F JUMPI PUSH0 PUSH0 REVERT JUMPDEST PUSH0 PUSH20 0xFFFFFFFFFFFFFFFFFFFFFFFFFFFFFFFFFFFFFFFF AND PUSH0 PUSH0 SWAP1 SLOAD SWAP1 PUSH2 0x100 EXP SWAP1 DIV PUSH20 0xFFFFFFFFFFFFFFFFFFFFFFFFFFFFFFFFFFFFFFFF AND PUSH20 0xFFFFFFFFFFFFFFFFFFFFFFFFFFFFFFFFFFFFFFFF AND PUSH32 0x8BE0079C531659141344CD1FD0A4F28419497F9722A3DAAFE3B4186F6B6457E0 PUSH1 0x40 MLOAD PUSH1 0x40 MLOAD DUP1 SWAP2 SUB SWAP1 LOG3 PUSH0 PUSH0 PUSH0 PUSH2 0x100 EXP DUP2 SLOAD DUP2 PUSH20 0xFFFFFFFFFFFFFFFFFFFFFFFFFFFFFFFFFFFFFFFF MUL NOT AND SWAP1 DUP4 PUSH20 0xFFFFFFFFFFFFFFFFFFFFFFFFFFFFFFFFFFFFFFFF AND MUL OR SWAP1 SSTORE POP JUMP JUMPDEST PUSH0 PUSH0 PUSH0 SWAP1 SLOAD SWAP1 PUSH2 0x100 EXP SWAP1 DIV PUSH20 0xFFFFFFFFFFFFFFFFFFFFFFFFFFFFFFFFFFFFFFFF AND SWAP1 POP SWAP1 JUMP JUMPDEST PUSH0 PUSH0 PUSH0 SWAP1 SLOAD SWAP1 PUSH2 0x100 EXP SWAP1 DIV PUSH20 0xFFFFFFFFFFFFFFFFFFFFFFFFFFFFFFFFFFFFFFFF AND PUSH20 0xFFFFFFFFFFFFFFFFFFFFFFFFFFFFFFFFFFFFFFFF AND CALLER PUSH20 0xFFFFFFFFFFFFFFFFFFFFFFFFFFFFFFFFFFFFFFFF AND EQ SWAP1 POP SWAP1 JUMP JUMPDEST PUSH0 PUSH1 0x6 PUSH0 CALLER PUSH20 0xFFFFFFFFFFFFFFFFFFFFFFFFFFFFFFFFFFFFFFFF AND PUSH20 0xFFFFFFFFFFFFFFFFFFFFFFFFFFFFFFFFFFFFFFFF AND DUP2 MSTORE PUSH1 0x20 ADD SWAP1 DUP2 MSTORE PUSH1 0x20 ADD PUSH0 KECCAK256 SLOAD EQ PUSH2 0x3AE JUMPI PUSH0 PUSH0 REVERT JUMPDEST PUSH0 PUSH2 0x3B8 DUP3 PUSH2 0x3E4 JUMP JUMPDEST SWAP1 POP PUSH2 0x3C4 DUP3 DUP3 PUSH2 0x427 JUMP JUMPDEST POP POP JUMP JUMPDEST PUSH2 0x3D0 PUSH2 0x311 JUMP JUMPDEST PUSH2 0x3D8 JUMPI PUSH0 PUSH0 REVERT JUMPDEST PUSH2 0x3E1 DUP2 PUSH2 0x647 JUMP JUMPDEST POP JUMP JUMPDEST PUSH0 PUSH0 DUP3 PUSH1 0x40 MLOAD PUSH1 0x20 ADD PUSH2 0x3F7 SWAP2 SWAP1 PUSH2 0xBB2 JUMP JUMPDEST PUSH1 0x40 MLOAD PUSH1 0x20 DUP2 DUP4 SUB SUB DUP2 MSTORE SWAP1 PUSH1 0x40 MSTORE DUP1 MLOAD SWAP1 PUSH1 0x20 ADD KECCAK256 PUSH0 SHR SWAP1 POP PUSH1 0x2 SLOAD DUP2 PUSH2 0x41F SWAP2 SWAP1 PUSH2 0xBF5 JUMP JUMPDEST SWAP2 POP POP SWAP2 SWAP1 POP JUMP JUMPDEST PUSH1 0x4 PUSH1 0x40 MLOAD DUP1 PUSH1 0xC0 ADD PUSH1 0x40 MSTORE DUP1 DUP5 DUP2 MSTORE PUSH1 0x20 ADD DUP4 DUP2 MSTORE PUSH1 0x20 ADD PUSH1 0x1 PUSH4 0xFFFFFFFF AND DUP2 MSTORE PUSH1 0x20 ADD PUSH1 0x3 SLOAD TIMESTAMP PUSH2 0x45B SWAP2 SWAP1 PUSH2 0xC52 JUMP JUMPDEST PUSH4 0xFFFFFFFF AND DUP2 MSTORE PUSH1 0x20 ADD PUSH0 PUSH2 0xFFFF AND DUP2 MSTORE PUSH1 0x20 ADD PUSH0 PUSH2 0xFFFF AND DUP2 MSTORE POP SWAP1 DUP1 PUSH1 0x1 DUP2 SLOAD ADD DUP1 DUP3 SSTORE DUP1 SWAP2 POP POP PUSH1 0x1 SWAP1 SUB SWAP1 PUSH0 MSTORE PUSH1 0x20 PUSH0 KECCAK256 SWAP1 PUSH1 0x3 MUL ADD PUSH0 SWAP1 SWAP2 SWAP1 SWAP2 SWAP1 SWAP2 POP PUSH0 DUP3 ADD MLOAD DUP2 PUSH0 ADD SWAP1 DUP2 PUSH2 0x4B1 SWAP2 SWAP1 PUSH2 0xE25 JUMP JUMPDEST POP PUSH1 0x20 DUP3 ADD MLOAD DUP2 PUSH1 0x1 ADD SSTORE PUSH1 0x40 DUP3 ADD MLOAD DUP2 PUSH1 0x2 ADD PUSH0 PUSH2 0x100 EXP DUP2 SLOAD DUP2 PUSH4 0xFFFFFFFF MUL NOT AND SWAP1 DUP4 PUSH4 0xFFFFFFFF AND MUL OR SWAP1 SSTORE POP PUSH1 0x60 DUP3 ADD MLOAD DUP2 PUSH1 0x2 ADD PUSH1 0x4 PUSH2 0x100 EXP DUP2 SLOAD DUP2 PUSH4 0xFFFFFFFF MUL NOT AND SWAP1 DUP4 PUSH4 0xFFFFFFFF AND MUL OR SWAP1 SSTORE POP PUSH1 0x80 DUP3 ADD MLOAD DUP2 PUSH1 0x2 ADD PUSH1 0x8 PUSH2 0x100 EXP DUP2 SLOAD DUP2 PUSH2 0xFFFF MUL NOT AND SWAP1 DUP4 PUSH2 0xFFFF AND MUL OR SWAP1 SSTORE POP PUSH1 0xA0 DUP3 ADD MLOAD DUP2 PUSH1 0x2 ADD PUSH1 0xA PUSH2 0x100 EXP DUP2 SLOAD DUP2 PUSH2 0xFFFF MUL NOT AND SWAP1 DUP4 PUSH2 0xFFFF AND MUL OR SWAP1 SSTORE POP POP POP PUSH0 PUSH1 0x1 PUSH1 0x4 DUP1 SLOAD SWAP1 POP PUSH2 0x564 SWAP2 SWAP1 PUSH2 0xEF4 JUMP JUMPDEST SWAP1 POP CALLER PUSH1 0x5 PUSH0 DUP4 DUP2 MSTORE PUSH1 0x20 ADD SWAP1 DUP2 MSTORE PUSH1 0x20 ADD PUSH0 KECCAK256 PUSH0 PUSH2 0x100 EXP DUP2 SLOAD DUP2 PUSH20 0xFFFFFFFFFFFFFFFFFFFFFFFFFFFFFFFFFFFFFFFF MUL NOT AND SWAP1 DUP4 PUSH20 0xFFFFFFFFFFFFFFFFFFFFFFFFFFFFFFFFFFFFFFFF AND MUL OR SWAP1 SSTORE POP PUSH1 0x6 PUSH0 CALLER PUSH20 0xFFFFFFFFFFFFFFFFFFFFFFFFFFFFFFFFFFFFFFFF AND PUSH20 0xFFFFFFFFFFFFFFFFFFFFFFFFFFFFFFFFFFFFFFFF AND DUP2 MSTORE PUSH1 0x20 ADD SWAP1 DUP2 MSTORE PUSH1 0x20 ADD PUSH0 KECCAK256 PUSH0 DUP2 SLOAD DUP1 SWAP3 SWAP2 SWAP1 PUSH2 0x602 SWAP1 PUSH2 0xF27 JUMP JUMPDEST SWAP2 SWAP1 POP SSTORE POP PUSH32 0x88F026AACBBECC90C18411DF4B1185FD8D9BE2470F1962F192BF84A27D0704B7 DUP2 DUP5 DUP5 PUSH1 0x40 MLOAD PUSH2 0x63A SWAP4 SWAP3 SWAP2 SWAP1 PUSH2 0xF6E JUMP JUMPDEST PUSH1 0x40 MLOAD DUP1 SWAP2 SUB SWAP1 LOG1 POP POP POP JUMP JUMPDEST PUSH0 PUSH20 0xFFFFFFFFFFFFFFFFFFFFFFFFFFFFFFFFFFFFFFFF AND DUP2 PUSH20 0xFFFFFFFFFFFFFFFFFFFFFFFFFFFFFFFFFFFFFFFF AND SUB PUSH2 0x67E JUMPI PUSH0 PUSH0 REVERT JUMPDEST DUP1 PUSH20 0xFFFFFFFFFFFFFFFFFFFFFFFFFFFFFFFFFFFFFFFF AND PUSH0 PUSH0 SWAP1 SLOAD SWAP1 PUSH2 0x100 EXP SWAP1 DIV PUSH20 0xFFFFFFFFFFFFFFFFFFFFFFFFFFFFFFFFFFFFFFFF AND PUSH20 0xFFFFFFFFFFFFFFFFFFFFFFFFFFFFFFFFFFFFFFFF AND PUSH32 0x8BE0079C531659141344CD1FD0A4F28419497F9722A3DAAFE3B4186F6B6457E0 PUSH1 0x40 MLOAD PUSH1 0x40 MLOAD DUP1 SWAP2 SUB SWAP1 LOG3 DUP1 PUSH0 PUSH0 PUSH2 0x100 EXP DUP2 SLOAD DUP2 PUSH20 0xFFFFFFFFFFFFFFFFFFFFFFFFFFFFFFFFFFFFFFFF MUL NOT AND SWAP1 DUP4 PUSH20 0xFFFFFFFFFFFFFFFFFFFFFFFFFFFFFFFFFFFFFFFF AND MUL OR SWAP1 SSTORE POP POP JUMP JUMPDEST PUSH0 PUSH1 0x40 MLOAD SWAP1 POP SWAP1 JUMP JUMPDEST PUSH0 PUSH0 REVERT JUMPDEST PUSH0 PUSH0 REVERT JUMPDEST PUSH0 DUP2 SWAP1 POP SWAP2 SWAP1 POP JUMP JUMPDEST PUSH2 0x75D DUP2 PUSH2 0x74B JUMP JUMPDEST DUP2 EQ PUSH2 0x767 JUMPI PUSH0 PUSH0 REVERT JUMPDEST POP JUMP JUMPDEST PUSH0 DUP2 CALLDATALOAD SWAP1 POP PUSH2 0x778 DUP2 PUSH2 0x754 JUMP JUMPDEST SWAP3 SWAP2 POP POP JUMP JUMPDEST PUSH0 PUSH1 0x20 DUP3 DUP5 SUB SLT ISZERO PUSH2 0x793 JUMPI PUSH2 0x792 PUSH2 0x743 JUMP JUMPDEST JUMPDEST PUSH0 PUSH2 0x7A0 DUP5 DUP3 DUP6 ADD PUSH2 0x76A JUMP JUMPDEST SWAP2 POP POP SWAP3 SWAP2 POP POP JUMP JUMPDEST PUSH0 DUP2 MLOAD SWAP1 POP SWAP2 SWAP1 POP JUMP JUMPDEST PUSH0 DUP3 DUP3 MSTORE PUSH1 0x20 DUP3 ADD SWAP1 POP SWAP3 SWAP2 POP POP JUMP JUMPDEST DUP3 DUP2 DUP4 MCOPY PUSH0 DUP4 DUP4 ADD MSTORE POP POP POP JUMP JUMPDEST PUSH0 PUSH1 0x1F NOT PUSH1 0x1F DUP4 ADD AND SWAP1 POP SWAP2 SWAP1 POP JUMP JUMPDEST PUSH0 PUSH2 0x7EB DUP3 PUSH2 0x7A9 JUMP JUMPDEST PUSH2 0x7F5 DUP2 DUP6 PUSH2 0x7B3 JUMP JUMPDEST SWAP4 POP PUSH2 0x805 DUP2 DUP6 PUSH1 0x20 DUP7 ADD PUSH2 0x7C3 JUMP JUMPDEST PUSH2 0x80E DUP2 PUSH2 0x7D1 JUMP JUMPDEST DUP5 ADD SWAP2 POP POP SWAP3 SWAP2 POP POP JUMP JUMPDEST PUSH2 0x822 DUP2 PUSH2 0x74B JUMP JUMPDEST DUP3 MSTORE POP POP JUMP JUMPDEST PUSH0 PUSH4 0xFFFFFFFF DUP3 AND SWAP1 POP SWAP2 SWAP1 POP JUMP JUMPDEST PUSH2 0x840 DUP2 PUSH2 0x828 JUMP JUMPDEST DUP3 MSTORE POP POP JUMP JUMPDEST PUSH0 PUSH2 0xFFFF DUP3 AND SWAP1 POP SWAP2 SWAP1 POP JUMP JUMPDEST PUSH2 0x85C DUP2 PUSH2 0x846 JUMP JUMPDEST DUP3 MSTORE POP POP JUMP JUMPDEST PUSH0 PUSH1 0xC0 DUP3 ADD SWAP1 POP DUP2 DUP2 SUB PUSH0 DUP4 ADD MSTORE PUSH2 0x87A DUP2 DUP10 PUSH2 0x7E1 JUMP JUMPDEST SWAP1 POP PUSH2 0x889 PUSH1 0x20 DUP4 ADD DUP9 PUSH2 0x819 JUMP JUMPDEST PUSH2 0x896 PUSH1 0x40 DUP4 ADD DUP8 PUSH2 0x837 JUMP JUMPDEST PUSH2 0x8A3 PUSH1 0x60 DUP4 ADD DUP7 PUSH2 0x837 JUMP JUMPDEST PUSH2 0x8B0 PUSH1 0x80 DUP4 ADD DUP6 PUSH2 0x853 JUMP JUMPDEST PUSH2 0x8BD PUSH1 0xA0 DUP4 ADD DUP5 PUSH2 0x853 JUMP JUMPDEST SWAP8 SWAP7 POP POP POP POP POP POP POP JUMP JUMPDEST PUSH0 PUSH20 0xFFFFFFFFFFFFFFFFFFFFFFFFFFFFFFFFFFFFFFFF DUP3 AND SWAP1 POP SWAP2 SWAP1 POP JUMP JUMPDEST PUSH0 PUSH2 0x8F1 DUP3 PUSH2 0x8C8 JUMP JUMPDEST SWAP1 POP SWAP2 SWAP1 POP JUMP JUMPDEST PUSH2 0x901 DUP2 PUSH2 0x8E7 JUMP JUMPDEST DUP3 MSTORE POP POP JUMP JUMPDEST PUSH0 PUSH1 0x20 DUP3 ADD SWAP1 POP PUSH2 0x91A PUSH0 DUP4 ADD DUP5 PUSH2 0x8F8 JUMP JUMPDEST SWAP3 SWAP2 POP POP JUMP JUMPDEST PUSH0 DUP2 ISZERO ISZERO SWAP1 POP SWAP2 SWAP1 POP JUMP JUMPDEST PUSH2 0x934 DUP2 PUSH2 0x920 JUMP JUMPDEST DUP3 MSTORE POP POP JUMP JUMPDEST PUSH0 PUSH1 0x20 DUP3 ADD SWAP1 POP PUSH2 0x94D PUSH0 DUP4 ADD DUP5 PUSH2 0x92B JUMP JUMPDEST SWAP3 SWAP2 POP POP JUMP JUMPDEST PUSH0 PUSH0 REVERT JUMPDEST PUSH0 PUSH0 REVERT JUMPDEST PUSH32 0x4E487B7100000000000000000000000000000000000000000000000000000000 PUSH0 MSTORE PUSH1 0x41 PUSH1 0x4 MSTORE PUSH1 0x24 PUSH0 REVERT JUMPDEST PUSH2 0x991 DUP3 PUSH2 0x7D1 JUMP JUMPDEST DUP2 ADD DUP2 DUP2 LT PUSH8 0xFFFFFFFFFFFFFFFF DUP3 GT OR ISZERO PUSH2 0x9B0 JUMPI PUSH2 0x9AF PUSH2 0x95B JUMP JUMPDEST JUMPDEST DUP1 PUSH1 0x40 MSTORE POP POP POP JUMP JUMPDEST PUSH0 PUSH2 0x9C2 PUSH2 0x73A JUMP JUMPDEST SWAP1 POP PUSH2 0x9CE DUP3 DUP3 PUSH2 0x988 JUMP JUMPDEST SWAP2 SWAP1 POP JUMP JUMPDEST PUSH0 PUSH8 0xFFFFFFFFFFFFFFFF DUP3 GT ISZERO PUSH2 0x9ED JUMPI PUSH2 0x9EC PUSH2 0x95B JUMP JUMPDEST JUMPDEST PUSH2 0x9F6 DUP3 PUSH2 0x7D1 JUMP JUMPDEST SWAP1 POP PUSH1 0x20 DUP2 ADD SWAP1 POP SWAP2 SWAP1 POP JUMP JUMPDEST DUP3 DUP2 DUP4 CALLDATACOPY PUSH0 DUP4 DUP4 ADD MSTORE POP POP POP JUMP JUMPDEST PUSH0 PUSH2 0xA23 PUSH2 0xA1E DUP5 PUSH2 0x9D3 JUMP JUMPDEST PUSH2 0x9B9 JUMP JUMPDEST SWAP1 POP DUP3 DUP2 MSTORE PUSH1 0x20 DUP2 ADD DUP5 DUP5 DUP5 ADD GT ISZERO PUSH2 0xA3F JUMPI PUSH2 0xA3E PUSH2 0x957 JUMP JUMPDEST JUMPDEST PUSH2 0xA4A DUP5 DUP3 DUP6 PUSH2 0xA03 JUMP JUMPDEST POP SWAP4 SWAP3 POP POP POP JUMP JUMPDEST PUSH0 DUP3 PUSH1 0x1F DUP4 ADD SLT PUSH2 0xA66 JUMPI PUSH2 0xA65 PUSH2 0x953 JUMP JUMPDEST JUMPDEST DUP2 CALLDATALOAD PUSH2 0xA76 DUP5 DUP3 PUSH1 0x20 DUP7 ADD PUSH2 0xA11 JUMP JUMPDEST SWAP2 POP POP SWAP3 SWAP2 POP POP JUMP JUMPDEST PUSH0 PUSH1 0x20 DUP3 DUP5 SUB SLT ISZERO PUSH2 0xA94 JUMPI PUSH2 0xA93 PUSH2 0x743 JUMP JUMPDEST JUMPDEST PUSH0 DUP3 ADD CALLDATALOAD PUSH8 0xFFFFFFFFFFFFFFFF DUP2 GT ISZERO PUSH2 0xAB1 JUMPI PUSH2 0xAB0 PUSH2 0x747 JUMP JUMPDEST JUMPDEST PUSH2 0xABD DUP5 DUP3 DUP6 ADD PUSH2 0xA52 JUMP JUMPDEST SWAP2 POP POP SWAP3 SWAP2 POP POP JUMP JUMPDEST PUSH2 0xACF DUP2 PUSH2 0x8E7 JUMP JUMPDEST DUP2 EQ PUSH2 0xAD9 JUMPI PUSH0 PUSH0 REVERT JUMPDEST POP JUMP JUMPDEST PUSH0 DUP2 CALLDATALOAD SWAP1 POP PUSH2 0xAEA DUP2 PUSH2 0xAC6 JUMP JUMPDEST SWAP3 SWAP2 POP POP JUMP JUMPDEST PUSH0 PUSH1 0x20 DUP3 DUP5 SUB SLT ISZERO PUSH2 0xB05 JUMPI PUSH2 0xB04 PUSH2 0x743 JUMP JUMPDEST JUMPDEST PUSH0 PUSH2 0xB12 DUP5 DUP3 DUP6 ADD PUSH2 0xADC JUMP JUMPDEST SWAP2 POP POP SWAP3 SWAP2 POP POP JUMP JUMPDEST PUSH32 0x4E487B7100000000000000000000000000000000000000000000000000000000 PUSH0 MSTORE PUSH1 0x22 PUSH1 0x4 MSTORE PUSH1 0x24 PUSH0 REVERT JUMPDEST PUSH0 PUSH1 0x2 DUP3 DIV SWAP1 POP PUSH1 0x1 DUP3 AND DUP1 PUSH2 0xB5F JUMPI PUSH1 0x7F DUP3 AND SWAP2 POP JUMPDEST PUSH1 0x20 DUP3 LT DUP2 SUB PUSH2 0xB72 JUMPI PUSH2 0xB71 PUSH2 0xB1B JUMP JUMPDEST JUMPDEST POP SWAP2 SWAP1 POP JUMP JUMPDEST PUSH0 DUP2 SWAP1 POP SWAP3 SWAP2 POP POP JUMP JUMPDEST PUSH0 PUSH2 0xB8C DUP3 PUSH2 0x7A9 JUMP JUMPDEST PUSH2 0xB96 DUP2 DUP6 PUSH2 0xB78 JUMP JUMPDEST SWAP4 POP PUSH2 0xBA6 DUP2 DUP6 PUSH1 0x20 DUP7 ADD PUSH2 0x7C3 JUMP JUMPDEST DUP1 DUP5 ADD SWAP2 POP POP SWAP3 SWAP2 POP POP JUMP JUMPDEST PUSH0 PUSH2 0xBBD DUP3 DUP5 PUSH2 0xB82 JUMP JUMPDEST SWAP2 POP DUP2 SWAP1 POP SWAP3 SWAP2 POP POP JUMP JUMPDEST PUSH32 0x4E487B7100000000000000000000000000000000000000000000000000000000 PUSH0 MSTORE PUSH1 0x12 PUSH1 0x4 MSTORE PUSH1 0x24 PUSH0 REVERT JUMPDEST PUSH0 PUSH2 0xBFF DUP3 PUSH2 0x74B JUMP JUMPDEST SWAP2 POP PUSH2 0xC0A DUP4 PUSH2 0x74B JUMP JUMPDEST SWAP3 POP DUP3 PUSH2 0xC1A JUMPI PUSH2 0xC19 PUSH2 0xBC8 JUMP JUMPDEST JUMPDEST DUP3 DUP3 MOD SWAP1 POP SWAP3 SWAP2 POP POP JUMP JUMPDEST PUSH32 0x4E487B7100000000000000000000000000000000000000000000000000000000 PUSH0 MSTORE PUSH1 0x11 PUSH1 0x4 MSTORE PUSH1 0x24 PUSH0 REVERT JUMPDEST PUSH0 PUSH2 0xC5C DUP3 PUSH2 0x74B JUMP JUMPDEST SWAP2 POP PUSH2 0xC67 DUP4 PUSH2 0x74B JUMP JUMPDEST SWAP3 POP DUP3 DUP3 ADD SWAP1 POP DUP1 DUP3 GT ISZERO PUSH2 0xC7F JUMPI PUSH2 0xC7E PUSH2 0xC25 JUMP JUMPDEST JUMPDEST SWAP3 SWAP2 POP POP JUMP JUMPDEST PUSH0 DUP2 SWAP1 POP DUP2 PUSH0 MSTORE PUSH1 0x20 PUSH0 KECCAK256 SWAP1 POP SWAP2 SWAP1 POP JUMP JUMPDEST PUSH0 PUSH1 0x20 PUSH1 0x1F DUP4 ADD DIV SWAP1 POP SWAP2 SWAP1 POP JUMP JUMPDEST PUSH0 DUP3 DUP3 SHL SWAP1 POP SWAP3 SWAP2 POP POP JUMP JUMPDEST PUSH0 PUSH1 0x8 DUP4 MUL PUSH2 0xCE1 PUSH32 0xFFFFFFFFFFFFFFFFFFFFFFFFFFFFFFFFFFFFFFFFFFFFFFFFFFFFFFFFFFFFFFFF DUP3 PUSH2 0xCA6 JUMP JUMPDEST PUSH2 0xCEB DUP7 DUP4 PUSH2 0xCA6 JUMP JUMPDEST SWAP6 POP DUP1 NOT DUP5 AND SWAP4 POP DUP1 DUP7 AND DUP5 OR SWAP3 POP POP POP SWAP4 SWAP3 POP POP POP JUMP JUMPDEST PUSH0 DUP2 SWAP1 POP SWAP2 SWAP1 POP JUMP JUMPDEST PUSH0 PUSH2 0xD26 PUSH2 0xD21 PUSH2 0xD1C DUP5 PUSH2 0x74B JUMP JUMPDEST PUSH2 0xD03 JUMP JUMPDEST PUSH2 0x74B JUMP JUMPDEST SWAP1 POP SWAP2 SWAP1 POP JUMP JUMPDEST PUSH0 DUP2 SWAP1 POP SWAP2 SWAP1 POP JUMP JUMPDEST PUSH2 0xD3F DUP4 PUSH2 0xD0C JUMP JUMPDEST PUSH2 0xD53 PUSH2 0xD4B DUP3 PUSH2 0xD2D JUMP JUMPDEST DUP5 DUP5 SLOAD PUSH2 0xCB2 JUMP JUMPDEST DUP3 SSTORE POP POP POP POP JUMP JUMPDEST PUSH0 PUSH0 SWAP1 POP SWAP1 JUMP JUMPDEST PUSH2 0xD6A PUSH2 0xD5B JUMP JUMPDEST PUSH2 0xD75 DUP2 DUP5 DUP5 PUSH2 0xD36 JUMP JUMPDEST POP POP POP JUMP JUMPDEST JUMPDEST DUP2 DUP2 LT ISZERO PUSH2 0xD98 JUMPI PUSH2 0xD8D PUSH0 DUP3 PUSH2 0xD62 JUMP JUMPDEST PUSH1 0x1 DUP2 ADD SWAP1 POP PUSH2 0xD7B JUMP JUMPDEST POP POP JUMP JUMPDEST PUSH1 0x1F DUP3 GT ISZERO PUSH2 0xDDD JUMPI PUSH2 0xDAE DUP2 PUSH2 0xC85 JUMP JUMPDEST PUSH2 0xDB7 DUP5 PUSH2 0xC97 JUMP JUMPDEST DUP2 ADD PUSH1 0x20 DUP6 LT ISZERO PUSH2 0xDC6 JUMPI DUP2 SWAP1 POP JUMPDEST PUSH2 0xDDA PUSH2 0xDD2 DUP6 PUSH2 0xC97 JUMP JUMPDEST DUP4 ADD DUP3 PUSH2 0xD7A JUMP JUMPDEST POP POP JUMPDEST POP POP POP JUMP JUMPDEST PUSH0 DUP3 DUP3 SHR SWAP1 POP SWAP3 SWAP2 POP POP JUMP JUMPDEST PUSH0 PUSH2 0xDFD PUSH0 NOT DUP5 PUSH1 0x8 MUL PUSH2 0xDE2 JUMP JUMPDEST NOT DUP1 DUP4 AND SWAP2 POP POP SWAP3 SWAP2 POP POP JUMP JUMPDEST PUSH0 PUSH2 0xE15 DUP4 DUP4 PUSH2 0xDEE JUMP JUMPDEST SWAP2 POP DUP3 PUSH1 0x2 MUL DUP3 OR SWAP1 POP SWAP3 SWAP2 POP POP JUMP JUMPDEST PUSH2 0xE2E DUP3 PUSH2 0x7A9 JUMP JUMPDEST PUSH8 0xFFFFFFFFFFFFFFFF DUP2 GT ISZERO PUSH2 0xE47 JUMPI PUSH2 0xE46 PUSH2 0x95B JUMP JUMPDEST JUMPDEST PUSH2 0xE51 DUP3 SLOAD PUSH2 0xB48 JUMP JUMPDEST PUSH2 0xE5C DUP3 DUP3 DUP6 PUSH2 0xD9C JUMP JUMPDEST PUSH0 PUSH1 0x20 SWAP1 POP PUSH1 0x1F DUP4 GT PUSH1 0x1 DUP2 EQ PUSH2 0xE8D JUMPI PUSH0 DUP5 ISZERO PUSH2 0xE7B JUMPI DUP3 DUP8 ADD MLOAD SWAP1 POP JUMPDEST PUSH2 0xE85 DUP6 DUP3 PUSH2 0xE0A JUMP JUMPDEST DUP7 SSTORE POP PUSH2 0xEEC JUMP JUMPDEST PUSH1 0x1F NOT DUP5 AND PUSH2 0xE9B DUP7 PUSH2 0xC85 JUMP JUMPDEST PUSH0 JUMPDEST DUP3 DUP2 LT ISZERO PUSH2 0xEC2 JUMPI DUP5 DUP10 ADD MLOAD DUP3 SSTORE PUSH1 0x1 DUP3 ADD SWAP2 POP PUSH1 0x20 DUP6 ADD SWAP5 POP PUSH1 0x20 DUP2 ADD SWAP1 POP PUSH2 0xE9D JUMP JUMPDEST DUP7 DUP4 LT ISZERO PUSH2 0xEDF JUMPI DUP5 DUP10 ADD MLOAD PUSH2 0xEDB PUSH1 0x1F DUP10 AND DUP3 PUSH2 0xDEE JUMP JUMPDEST DUP4 SSTORE POP JUMPDEST PUSH1 0x1 PUSH1 0x2 DUP9 MUL ADD DUP9 SSTORE POP POP POP JUMPDEST POP POP POP POP POP POP JUMP JUMPDEST PUSH0 PUSH2 0xEFE DUP3 PUSH2 0x74B JUMP JUMPDEST SWAP2 POP PUSH2 0xF09 DUP4 PUSH2 0x74B JUMP JUMPDEST SWAP3 POP DUP3 DUP3 SUB SWAP1 POP DUP2 DUP2 GT ISZERO PUSH2 0xF21 JUMPI PUSH2 0xF20 PUSH2 0xC25 JUMP JUMPDEST JUMPDEST SWAP3 SWAP2 POP POP JUMP JUMPDEST PUSH0 PUSH2 0xF31 DUP3 PUSH2 0x74B JUMP JUMPDEST SWAP2 POP PUSH32 0xFFFFFFFFFFFFFFFFFFFFFFFFFFFFFFFFFFFFFFFFFFFFFFFFFFFFFFFFFFFFFFFF DUP3 SUB PUSH2 0xF63 JUMPI PUSH2 0xF62 PUSH2 0xC25 JUMP JUMPDEST JUMPDEST PUSH1 0x1 DUP3 ADD SWAP1 POP SWAP2 SWAP1 POP JUMP JUMPDEST PUSH0 PUSH1 0x60 DUP3 ADD SWAP1 POP PUSH2 0xF81 PUSH0 DUP4 ADD DUP7 PUSH2 0x819 JUMP JUMPDEST DUP2 DUP2 SUB PUSH1 0x20 DUP4 ADD MSTORE PUSH2 0xF93 DUP2 DUP6 PUSH2 0x7E1 JUMP JUMPDEST SWAP1 POP PUSH2 0xFA2 PUSH1 0x40 DUP4 ADD DUP5 PUSH2 0x819 JUMP JUMPDEST SWAP5 SWAP4 POP POP POP POP JUMP INVALID LOG2 PUSH5 0x6970667358 0x22 SLT KECCAK256 0xB9 0xA6 PUSH21 0x3E5619A67AF36162810D77F842BFE2C4F98895D590 MOD 0xDB 0x23 SHL DUP13 0xBA CODECOPY 0xDE PUSH5 0x736F6C6343 STOP ADDMOD 0x1E STOP CALLER "
				},
				"gasEstimates": {
					"creation": {
						"codeDepositCost": "812800",
						"executionCost": "infinite",
						"totalCost": "infinite"
					},
					"external": {
						"createZombie(string)": "infinite",
						"isOwner()": "2533",
						"owner()": "2536",
						"renounceOwnership()": "30287",
						"transferOwnership(address)": "30746",
						"zombies(uint256)": "infinite"
					},
					"internal": {
						"_createZombie(string memory,uint256)": "infinite",
						"_generateDna(string memory)": "infinite"
					}
				},
				"methodIdentifiers": {
					"createZombie(string)": "ad822778",
					"isOwner()": "8f32d59b",
					"owner()": "8da5cb5b",
					"renounceOwnership()": "715018a6",
					"transferOwnership(address)": "f2fde38b",
					"zombies(uint256)": "2052465e"
				}
			},
			"storageLayout": {
				"storage": [
					{
						"astId": 4,
						"contract": "contracts/zombiefactory.sol:ZombieFactory",
						"label": "_owner",
						"offset": 0,
						"slot": "0",
						"type": "t_address"
					},
					{
						"astId": 137,
						"contract": "contracts/zombiefactory.sol:ZombieFactory",
						"label": "dnaDigits",
						"offset": 0,
						"slot": "1",
						"type": "t_uint256"
					},
					{
						"astId": 142,
						"contract": "contracts/zombiefactory.sol:ZombieFactory",
						"label": "dnaModulus",
						"offset": 0,
						"slot": "2",
						"type": "t_uint256"
					},
					{
						"astId": 145,
						"contract": "contracts/zombiefactory.sol:ZombieFactory",
						"label": "cooldownTime",
						"offset": 0,
						"slot": "3",
						"type": "t_uint256"
					},
					{
						"astId": 162,
						"contract": "contracts/zombiefactory.sol:ZombieFactory",
						"label": "zombies",
						"offset": 0,
						"slot": "4",
						"type": "t_array(t_struct(Zombie)158_storage)dyn_storage"
					},
					{
						"astId": 166,
						"contract": "contracts/zombiefactory.sol:ZombieFactory",
						"label": "zombieToOwner",
						"offset": 0,
						"slot": "5",
						"type": "t_mapping(t_uint256,t_address)"
					},
					{
						"astId": 170,
						"contract": "contracts/zombiefactory.sol:ZombieFactory",
						"label": "ownerZombieCount",
						"offset": 0,
						"slot": "6",
						"type": "t_mapping(t_address,t_uint256)"
					}
				],
				"types": {
					"t_address": {
						"encoding": "inplace",
						"label": "address",
						"numberOfBytes": "20"
					},
					"t_array(t_struct(Zombie)158_storage)dyn_storage": {
						"base": "t_struct(Zombie)158_storage",
						"encoding": "dynamic_array",
						"label": "struct ZombieFactory.Zombie[]",
						"numberOfBytes": "32"
					},
					"t_mapping(t_address,t_uint256)": {
						"encoding": "mapping",
						"key": "t_address",
						"label": "mapping(address => uint256)",
						"numberOfBytes": "32",
						"value": "t_uint256"
					},
					"t_mapping(t_uint256,t_address)": {
						"encoding": "mapping",
						"key": "t_uint256",
						"label": "mapping(uint256 => address)",
						"numberOfBytes": "32",
						"value": "t_address"
					},
					"t_string_storage": {
						"encoding": "bytes",
						"label": "string",
						"numberOfBytes": "32"
					},
					"t_struct(Zombie)158_storage": {
						"encoding": "inplace",
						"label": "struct ZombieFactory.Zombie",
						"members": [
							{
								"astId": 147,
								"contract": "contracts/zombiefactory.sol:ZombieFactory",
								"label": "name",
								"offset": 0,
								"slot": "0",
								"type": "t_string_storage"
							},
							{
								"astId": 149,
								"contract": "contracts/zombiefactory.sol:ZombieFactory",
								"label": "dna",
								"offset": 0,
								"slot": "1",
								"type": "t_uint256"
							},
							{
								"astId": 151,
								"contract": "contracts/zombiefactory.sol:ZombieFactory",
								"label": "level",
								"offset": 0,
								"slot": "2",
								"type": "t_uint32"
							},
							{
								"astId": 153,
								"contract": "contracts/zombiefactory.sol:ZombieFactory",
								"label": "readyTime",
								"offset": 4,
								"slot": "2",
								"type": "t_uint32"
							},
							{
								"astId": 155,
								"contract": "contracts/zombiefactory.sol:ZombieFactory",
								"label": "winCount",
								"offset": 8,
								"slot": "2",
								"type": "t_uint16"
							},
							{
								"astId": 157,
								"contract": "contracts/zombiefactory.sol:ZombieFactory",
								"label": "lossCount",
								"offset": 10,
								"slot": "2",
								"type": "t_uint16"
							}
						],
						"numberOfBytes": "96"
					},
					"t_uint16": {
						"encoding": "inplace",
						"label": "uint16",
						"numberOfBytes": "2"
					},
					"t_uint256": {
						"encoding": "inplace",
						"label": "uint256",
						"numberOfBytes": "32"
					},
					"t_uint32": {
						"encoding": "inplace",
						"label": "uint32",
						"numberOfBytes": "4"
					}
				}
			},
			"userdoc": {
				"events": {
					"NewZombie(uint256,string,uint256)": {
						"notice": "Events are a way for your contract to communicate that something happened on the blockchain to your app front-end, which can be 'listening' for certain events and take action when they happen. 用于前端监听你的智能合约发生了什么事件，并针对事件做出后续处理逻   辑*"
					}
				},
				"kind": "user",
				"methods": {
					"renounceOwnership()": {
						"notice": "Renouncing to ownership will leave the contract without an owner. It will not be possible to call the functions with the `onlyOwner` modifier anymore."
					}
				},
				"version": 1
			}
		}
	}
}