{
	"contracts/zombiehelper.sol": {
		"ZombieHelper": {
			"abi": [
				{
					"anonymous": false,
					"inputs": [
						{
							"indexed": false,
							"internalType": "uint256",
							"name": "zombieId",
							"type": "uint256"
						},
						{
							"indexed": false,
							"internalType": "string",
							"name": "name",
							"type": "string"
						},
						{
							"indexed": false,
							"internalType": "uint256",
							"name": "dna",
							"type": "uint256"
						}
					],
					"name": "NewZombie",
					"type": "event"
				},
				{
					"anonymous": false,
					"inputs": [
						{
							"indexed": true,
							"internalType": "address",
							"name": "previousOwner",
							"type": "address"
						},
						{
							"indexed": true,
							"internalType": "address",
							"name": "newOwner",
							"type": "address"
						}
					],
					"name": "OwnershipTransferred",
					"type": "event"
				},
				{
					"inputs": [
						{
							"internalType": "uint256",
							"name": "_zombieId",
							"type": "uint256"
						},
						{
							"internalType": "uint256",
							"name": "_newDna",
							"type": "uint256"
						}
					],
					"name": "changeDna",
					"outputs": [],
					"stateMutability": "nonpayable",
					"type": "function"
				},
				{
					"inputs": [
						{
							"internalType": "uint256",
							"name": "_zombieId",
							"type": "uint256"
						},
						{
							"internalType": "string",
							"name": "_newName",
							"type": "string"
						}
					],
					"name": "changeName",
					"outputs": [],
					"stateMutability": "nonpayable",
					"type": "function"
				},
				{
					"inputs": [
						{
							"internalType": "string",
							"name": "_name",
							"type": "string"
						}
					],
					"name": "createZombie",
					"outputs": [],
					"stateMutability": "nonpayable",
					"type": "function"
				},
				{
					"inputs": [
						{
							"internalType": "uint256",
							"name": "_zombieId",
							"type": "uint256"
						},
						{
							"internalType": "uint256",
							"name": "_kittyId",
							"type": "uint256"
						}
					],
					"name": "feeOnKitty",
					"outputs": [],
					"stateMutability": "nonpayable",
					"type": "function"
				},
				{
					"inputs": [
						{
							"internalType": "address",
							"name": "_owner",
							"type": "address"
						}
					],
					"name": "getZombieByOwner",
					"outputs": [
						{
							"internalType": "uint256[]",
							"name": "",
							"type": "uint256[]"
						}
					],
					"stateMutability": "view",
					"type": "function"
				},
				{
					"inputs": [],
					"name": "isOwner",
					"outputs": [
						{
							"internalType": "bool",
							"name": "",
							"type": "bool"
						}
					],
					"stateMutability": "view",
					"type": "function"
				},
				{
					"inputs": [
						{
							"internalType": "uint256",
							"name": "_zombieId",
							"type": "uint256"
						}
					],
					"name": "levelUp",
					"outputs": [],
					"stateMutability": "payable",
					"type": "function"
				},
				{
					"inputs": [],
					"name": "owner",
					"outputs": [
						{
							"internalType": "address",
							"name": "",
							"type": "address"
						}
					],
					"stateMutability": "view",
					"type": "function"
				},
				{
					"inputs": [],
					"name": "renounceOwnership",
					"outputs": [],
					"stateMutability": "nonpayable",
					"type": "function"
				},
				{
					"inputs": [
						{
							"internalType": "address",
							"name": "_address",
							"type": "address"
						}
					],
					"name": "setKittyContractAddress",
					"outputs": [],
					"stateMutability": "nonpayable",
					"type": "function"
				},
				{
					"inputs": [
						{
							"internalType": "uint256",
							"name": "_fee",
							"type": "uint256"
						}
					],
					"name": "setLevelUpFee",
					"outputs": [],
					"stateMutability": "nonpayable",
					"type": "function"
				},
				{
					"inputs": [
						{
							"internalType": "address",
							"name": "newOwner",
							"type": "address"
						}
					],
					"name": "transferOwnership",
					"outputs": [],
					"stateMutability": "nonpayable",
					"type": "function"
				},
				{
					"inputs": [],
					"name": "withdraw",
					"outputs": [],
					"stateMutability": "payable",
					"type": "function"
				},
				{
					"inputs": [
						{
							"internalType": "uint256",
							"name": "",
							"type": "uint256"
						}
					],
					"name": "zombies",
					"outputs": [
						{
							"internalType": "string",
							"name": "name",
							"type": "string"
						},
						{
							"internalType": "uint256",
							"name": "dna",
							"type": "uint256"
						},
						{
							"internalType": "uint32",
							"name": "level",
							"type": "uint32"
						},
						{
							"internalType": "uint32",
							"name": "readyTime",
							"type": "uint32"
						}
					],
					"stateMutability": "view",
					"type": "function"
				}
			],
			"devdoc": {
				"kind": "dev",
				"methods": {
					"isOwner()": {
						"returns": {
							"_0": "true if `msg.sender` is the owner of the contract."
						}
					},
					"owner()": {
						"returns": {
							"_0": "the address of the owner."
						}
					},
					"renounceOwnership()": {
						"details": "Allows the current owner to relinquish control of the contract."
					},
					"transferOwnership(address)": {
						"details": "Allows the current owner to transfer control of the contract to a newOwner.",
						"params": {
							"newOwner": "The address to transfer ownership to."
						}
					}
				},
				"version": 1
			},
			"evm": {
				"assembly": "    /* \"contracts/zombiehelper.sol\":93:1684  contract ZombieHelper is ZombieFeeding {... */\n  mstore(0x40, 0x80)\n    /* \"contracts/zombiefactory.sol\":550:552  16 */\n  0x10\n    /* \"contracts/zombiefactory.sol\":530:552  uint256 dnaDigits = 16 */\n  0x01\n  sstore\n    /* \"contracts/zombiefactory.sol\":586:595  dnaDigits */\n  sload(0x01)\n    /* \"contracts/zombiefactory.sol\":580:582  10 */\n  0x0a\n    /* \"contracts/zombiefactory.sol\":580:595  10 ** dnaDigits */\n  tag_1\n  swap2\n  swap1\n  tag_2\n  jump\t// in\ntag_1:\n    /* \"contracts/zombiefactory.sol\":559:595  uint256 dnaModulus = 10 ** dnaDigits */\n  0x02\n  sstore\n    /* \"contracts/zombiefactory.sol\":625:631  1 days */\n  0x015180\n    /* \"contracts/zombiefactory.sol\":602:631  uint256 cooldownTime = 1 days */\n  0x03\n  sstore\n    /* \"contracts/zombiehelper.sol\":159:170  0.001 ether */\n  0x038d7ea4c68000\n    /* \"contracts/zombiehelper.sol\":141:170  uint levelUpFee = 0.001 ether */\n  0x08\n  sstore\n    /* \"contracts/zombiehelper.sol\":93:1684  contract ZombieHelper is ZombieFeeding {... */\n  callvalue\n  dup1\n  iszero\n  tag_3\n  jumpi\n  revert(0x00, 0x00)\ntag_3:\n  pop\n    /* \"contracts/ownable.sol\":563:573  msg.sender */\n  caller\n    /* \"contracts/ownable.sol\":554:560  _owner */\n  0x00\n  0x00\n    /* \"contracts/ownable.sol\":554:573  _owner = msg.sender */\n  0x0100\n  exp\n  dup2\n  sload\n  dup2\n  0xffffffffffffffffffffffffffffffffffffffff\n  mul\n  not\n  and\n  swap1\n  dup4\n  0xffffffffffffffffffffffffffffffffffffffff\n  and\n  mul\n  or\n  swap1\n  sstore\n  pop\n    /* \"contracts/ownable.sol\":618:624  _owner */\n  0x00\n  0x00\n  swap1\n  sload\n  swap1\n  0x0100\n  exp\n  swap1\n  div\n  0xffffffffffffffffffffffffffffffffffffffff\n  and\n    /* \"contracts/ownable.sol\":585:625  OwnershipTransferred(address(0), _owner) */\n  0xffffffffffffffffffffffffffffffffffffffff\n  and\n    /* \"contracts/ownable.sol\":614:615  0 */\n  0x00\n    /* \"contracts/ownable.sol\":585:625  OwnershipTransferred(address(0), _owner) */\n  0xffffffffffffffffffffffffffffffffffffffff\n  and\n  0x8be0079c531659141344cd1fd0a4f28419497f9722a3daafe3b4186f6b6457e0\n  mload(0x40)\n  mload(0x40)\n  dup1\n  swap2\n  sub\n  swap1\n  log3\n    /* \"contracts/zombiehelper.sol\":93:1684  contract ZombieHelper is ZombieFeeding {... */\n  jump(tag_6)\n    /* \"#utility.yul\":7:187   */\ntag_7:\n    /* \"#utility.yul\":55:132   */\n  0x4e487b7100000000000000000000000000000000000000000000000000000000\n    /* \"#utility.yul\":52:53   */\n  0x00\n    /* \"#utility.yul\":45:133   */\n  mstore\n    /* \"#utility.yul\":152:156   */\n  0x11\n    /* \"#utility.yul\":149:150   */\n  0x04\n    /* \"#utility.yul\":142:157   */\n  mstore\n    /* \"#utility.yul\":176:180   */\n  0x24\n    /* \"#utility.yul\":173:174   */\n  0x00\n    /* \"#utility.yul\":166:181   */\n  revert\n    /* \"#utility.yul\":193:295   */\ntag_8:\n    /* \"#utility.yul\":235:243   */\n  0x00\n    /* \"#utility.yul\":282:287   */\n  dup2\n    /* \"#utility.yul\":279:280   */\n  0x01\n    /* \"#utility.yul\":275:288   */\n  shr\n    /* \"#utility.yul\":254:288   */\n  swap1\n  pop\n    /* \"#utility.yul\":193:295   */\n  swap2\n  swap1\n  pop\n  jump\t// out\n    /* \"#utility.yul\":301:1149   */\ntag_9:\n    /* \"#utility.yul\":362:367   */\n  0x00\n    /* \"#utility.yul\":369:373   */\n  0x00\n    /* \"#utility.yul\":393:399   */\n  dup3\n    /* \"#utility.yul\":384:399   */\n  swap2\n  pop\n    /* \"#utility.yul\":417:422   */\n  dup4\n    /* \"#utility.yul\":408:422   */\n  swap1\n  pop\n    /* \"#utility.yul\":431:1143   */\ntag_16:\n    /* \"#utility.yul\":452:453   */\n  0x01\n    /* \"#utility.yul\":442:450   */\n  dup6\n    /* \"#utility.yul\":439:454   */\n  gt\n    /* \"#utility.yul\":431:1143   */\n  iszero\n  tag_18\n  jumpi\n    /* \"#utility.yul\":547:551   */\n  dup1\n    /* \"#utility.yul\":542:545   */\n  dup7\n    /* \"#utility.yul\":538:552   */\n  div\n    /* \"#utility.yul\":532:536   */\n  dup2\n    /* \"#utility.yul\":529:553   */\n  gt\n    /* \"#utility.yul\":526:576   */\n  iszero\n  tag_19\n  jumpi\n    /* \"#utility.yul\":556:574   */\n  tag_20\n  tag_7\n  jump\t// in\ntag_20:\n    /* \"#utility.yul\":526:576   */\ntag_19:\n    /* \"#utility.yul\":606:607   */\n  0x01\n    /* \"#utility.yul\":596:604   */\n  dup6\n    /* \"#utility.yul\":592:608   */\n  and\n    /* \"#utility.yul\":589:1040   */\n  iszero\n  tag_21\n  jumpi\n    /* \"#utility.yul\":1021:1025   */\n  dup1\n    /* \"#utility.yul\":1014:1019   */\n  dup3\n    /* \"#utility.yul\":1010:1026   */\n  mul\n    /* \"#utility.yul\":1001:1026   */\n  swap2\n  pop\n    /* \"#utility.yul\":589:1040   */\ntag_21:\n    /* \"#utility.yul\":1071:1075   */\n  dup1\n    /* \"#utility.yul\":1065:1069   */\n  dup2\n    /* \"#utility.yul\":1061:1076   */\n  mul\n    /* \"#utility.yul\":1053:1076   */\n  swap1\n  pop\n    /* \"#utility.yul\":1101:1133   */\n  tag_22\n    /* \"#utility.yul\":1124:1132   */\n  dup6\n    /* \"#utility.yul\":1101:1133   */\n  tag_8\n  jump\t// in\ntag_22:\n    /* \"#utility.yul\":1089:1133   */\n  swap5\n  pop\n    /* \"#utility.yul\":431:1143   */\n  jump(tag_16)\ntag_18:\n    /* \"#utility.yul\":301:1149   */\n  swap5\n  pop\n  swap5\n  swap3\n  pop\n  pop\n  pop\n  jump\t// out\n    /* \"#utility.yul\":1155:2228   */\ntag_10:\n    /* \"#utility.yul\":1209:1214   */\n  0x00\n    /* \"#utility.yul\":1400:1408   */\n  dup3\n    /* \"#utility.yul\":1390:1430   */\n  tag_24\n  jumpi\n    /* \"#utility.yul\":1421:1422   */\n  0x01\n    /* \"#utility.yul\":1412:1422   */\n  swap1\n  pop\n    /* \"#utility.yul\":1423:1428   */\n  jump(tag_23)\n    /* \"#utility.yul\":1390:1430   */\ntag_24:\n    /* \"#utility.yul\":1449:1453   */\n  dup2\n    /* \"#utility.yul\":1439:1475   */\n  tag_25\n  jumpi\n    /* \"#utility.yul\":1466:1467   */\n  0x00\n    /* \"#utility.yul\":1457:1467   */\n  swap1\n  pop\n    /* \"#utility.yul\":1468:1473   */\n  jump(tag_23)\n    /* \"#utility.yul\":1439:1475   */\ntag_25:\n    /* \"#utility.yul\":1535:1539   */\n  dup2\n    /* \"#utility.yul\":1583:1584   */\n  0x01\n    /* \"#utility.yul\":1578:1605   */\n  dup2\n  eq\n  tag_27\n  jumpi\n    /* \"#utility.yul\":1619:1620   */\n  0x02\n    /* \"#utility.yul\":1614:1805   */\n  dup2\n  eq\n  tag_28\n  jumpi\n    /* \"#utility.yul\":1528:1805   */\n  jump(tag_26)\n    /* \"#utility.yul\":1578:1605   */\ntag_27:\n    /* \"#utility.yul\":1596:1597   */\n  0x01\n    /* \"#utility.yul\":1587:1597   */\n  swap2\n  pop\n    /* \"#utility.yul\":1598:1603   */\n  pop\n  jump(tag_23)\n    /* \"#utility.yul\":1614:1805   */\ntag_28:\n    /* \"#utility.yul\":1659:1662   */\n  0xff\n    /* \"#utility.yul\":1649:1657   */\n  dup5\n    /* \"#utility.yul\":1646:1663   */\n  gt\n    /* \"#utility.yul\":1643:1686   */\n  iszero\n  tag_29\n  jumpi\n    /* \"#utility.yul\":1666:1684   */\n  tag_30\n  tag_7\n  jump\t// in\ntag_30:\n    /* \"#utility.yul\":1643:1686   */\ntag_29:\n    /* \"#utility.yul\":1715:1723   */\n  dup4\n    /* \"#utility.yul\":1712:1713   */\n  0x02\n    /* \"#utility.yul\":1708:1724   */\n  exp\n    /* \"#utility.yul\":1699:1724   */\n  swap2\n  pop\n    /* \"#utility.yul\":1750:1753   */\n  dup5\n    /* \"#utility.yul\":1743:1748   */\n  dup3\n    /* \"#utility.yul\":1740:1754   */\n  gt\n    /* \"#utility.yul\":1737:1777   */\n  iszero\n  tag_31\n  jumpi\n    /* \"#utility.yul\":1757:1775   */\n  tag_32\n  tag_7\n  jump\t// in\ntag_32:\n    /* \"#utility.yul\":1737:1777   */\ntag_31:\n    /* \"#utility.yul\":1790:1795   */\n  pop\n  jump(tag_23)\n    /* \"#utility.yul\":1528:1805   */\ntag_26:\n  pop\n    /* \"#utility.yul\":1914:1916   */\n  0x20\n    /* \"#utility.yul\":1904:1912   */\n  dup4\n    /* \"#utility.yul\":1901:1917   */\n  lt\n    /* \"#utility.yul\":1895:1898   */\n  0x0133\n    /* \"#utility.yul\":1889:1893   */\n  dup4\n    /* \"#utility.yul\":1886:1899   */\n  lt\n    /* \"#utility.yul\":1882:1918   */\n  and\n    /* \"#utility.yul\":1864:1866   */\n  0x4e\n    /* \"#utility.yul\":1854:1862   */\n  dup5\n    /* \"#utility.yul\":1851:1867   */\n  lt\n    /* \"#utility.yul\":1846:1848   */\n  0x0b\n    /* \"#utility.yul\":1840:1844   */\n  dup5\n    /* \"#utility.yul\":1837:1849   */\n  lt\n    /* \"#utility.yul\":1833:1868   */\n  and\n    /* \"#utility.yul\":1817:1928   */\n  or\n    /* \"#utility.yul\":1814:2060   */\n  iszero\n  tag_33\n  jumpi\n    /* \"#utility.yul\":1970:1978   */\n  dup3\n    /* \"#utility.yul\":1964:1968   */\n  dup3\n    /* \"#utility.yul\":1960:1979   */\n  exp\n    /* \"#utility.yul\":1951:1979   */\n  swap1\n  pop\n    /* \"#utility.yul\":2005:2008   */\n  dup4\n    /* \"#utility.yul\":1998:2003   */\n  dup2\n    /* \"#utility.yul\":1995:2009   */\n  gt\n    /* \"#utility.yul\":1992:2032   */\n  iszero\n  tag_34\n  jumpi\n    /* \"#utility.yul\":2012:2030   */\n  tag_35\n  tag_7\n  jump\t// in\ntag_35:\n    /* \"#utility.yul\":1992:2032   */\ntag_34:\n    /* \"#utility.yul\":2045:2050   */\n  jump(tag_23)\n    /* \"#utility.yul\":1814:2060   */\ntag_33:\n    /* \"#utility.yul\":2085:2127   */\n  tag_36\n    /* \"#utility.yul\":2123:2126   */\n  dup5\n    /* \"#utility.yul\":2113:2121   */\n  dup5\n    /* \"#utility.yul\":2107:2111   */\n  dup5\n    /* \"#utility.yul\":2104:2105   */\n  0x01\n    /* \"#utility.yul\":2085:2127   */\n  tag_9\n  jump\t// in\ntag_36:\n    /* \"#utility.yul\":2070:2127   */\n  swap3\n  pop\n  swap1\n  pop\n    /* \"#utility.yul\":2159:2163   */\n  dup2\n    /* \"#utility.yul\":2154:2157   */\n  dup5\n    /* \"#utility.yul\":2150:2164   */\n  div\n    /* \"#utility.yul\":2143:2148   */\n  dup2\n    /* \"#utility.yul\":2140:2165   */\n  gt\n    /* \"#utility.yul\":2137:2188   */\n  iszero\n  tag_37\n  jumpi\n    /* \"#utility.yul\":2168:2186   */\n  tag_38\n  tag_7\n  jump\t// in\ntag_38:\n    /* \"#utility.yul\":2137:2188   */\ntag_37:\n    /* \"#utility.yul\":2217:2221   */\n  dup2\n    /* \"#utility.yul\":2210:2215   */\n  dup2\n    /* \"#utility.yul\":2206:2222   */\n  mul\n    /* \"#utility.yul\":2197:2222   */\n  swap1\n  pop\n    /* \"#utility.yul\":1155:2228   */\ntag_23:\n  swap4\n  swap3\n  pop\n  pop\n  pop\n  jump\t// out\n    /* \"#utility.yul\":2234:2311   */\ntag_11:\n    /* \"#utility.yul\":2271:2278   */\n  0x00\n    /* \"#utility.yul\":2300:2305   */\n  dup2\n    /* \"#utility.yul\":2289:2305   */\n  swap1\n  pop\n    /* \"#utility.yul\":2234:2311   */\n  swap2\n  swap1\n  pop\n  jump\t// out\n    /* \"#utility.yul\":2317:2602   */\ntag_2:\n    /* \"#utility.yul\":2377:2382   */\n  0x00\n    /* \"#utility.yul\":2401:2424   */\n  tag_41\n    /* \"#utility.yul\":2419:2423   */\n  dup3\n    /* \"#utility.yul\":2401:2424   */\n  tag_11\n  jump\t// in\ntag_41:\n    /* \"#utility.yul\":2393:2424   */\n  swap2\n  pop\n    /* \"#utility.yul\":2445:2472   */\n  tag_42\n    /* \"#utility.yul\":2463:2471   */\n  dup4\n    /* \"#utility.yul\":2445:2472   */\n  tag_11\n  jump\t// in\ntag_42:\n    /* \"#utility.yul\":2433:2472   */\n  swap3\n  pop\n    /* \"#utility.yul\":2491:2595   */\n  tag_43\n    /* \"#utility.yul\":2528:2594   */\n  0xffffffffffffffffffffffffffffffffffffffffffffffffffffffffffffffff\n    /* \"#utility.yul\":2518:2526   */\n  dup5\n    /* \"#utility.yul\":2512:2516   */\n  dup5\n    /* \"#utility.yul\":2491:2595   */\n  tag_10\n  jump\t// in\ntag_43:\n    /* \"#utility.yul\":2482:2595   */\n  swap1\n  pop\n    /* \"#utility.yul\":2317:2602   */\n  swap3\n  swap2\n  pop\n  pop\n  jump\t// out\n    /* \"contracts/zombiehelper.sol\":93:1684  contract ZombieHelper is ZombieFeeding {... */\ntag_6:\n  dataSize(sub_0)\n  dup1\n  dataOffset(sub_0)\n  0x00\n  codecopy\n  0x00\n  return\nstop\n\nsub_0: assembly {\n        /* \"contracts/zombiehelper.sol\":93:1684  contract ZombieHelper is ZombieFeeding {... */\n      mstore(0x40, 0x80)\n      jumpi(tag_1, lt(calldatasize, 0x04))\n      shr(0xe0, calldataload(0x00))\n      dup1\n      0x8f32d59b\n      gt\n      tag_16\n      jumpi\n      dup1\n      0xad822778\n      gt\n      tag_17\n      jumpi\n      dup1\n      0xad822778\n      eq\n      tag_12\n      jumpi\n      dup1\n      0xc39cbef1\n      eq\n      tag_13\n      jumpi\n      dup1\n      0xccf670f8\n      eq\n      tag_14\n      jumpi\n      dup1\n      0xf2fde38b\n      eq\n      tag_15\n      jumpi\n      jump(tag_1)\n    tag_17:\n      dup1\n      0x8f32d59b\n      eq\n      tag_9\n      jumpi\n      dup1\n      0x9ed21359\n      eq\n      tag_10\n      jumpi\n      dup1\n      0x9ef0fe03\n      eq\n      tag_11\n      jumpi\n      jump(tag_1)\n    tag_16:\n      dup1\n      0x5f4623f1\n      gt\n      tag_18\n      jumpi\n      dup1\n      0x5f4623f1\n      eq\n      tag_5\n      jumpi\n      dup1\n      0x5faf2880\n      eq\n      tag_6\n      jumpi\n      dup1\n      0x715018a6\n      eq\n      tag_7\n      jumpi\n      dup1\n      0x8da5cb5b\n      eq\n      tag_8\n      jumpi\n      jump(tag_1)\n    tag_18:\n      dup1\n      0x0ce90ec2\n      eq\n      tag_2\n      jumpi\n      dup1\n      0x2052465e\n      eq\n      tag_3\n      jumpi\n      dup1\n      0x3ccfd60b\n      eq\n      tag_4\n      jumpi\n    tag_1:\n      revert(0x00, 0x00)\n        /* \"contracts/zombiehelper.sol\":649:845  function levelUp(uint _zombieId) external payable {... */\n    tag_2:\n      tag_19\n      0x04\n      dup1\n      calldatasize\n      sub\n      dup2\n      add\n      swap1\n      tag_20\n      swap2\n      swap1\n      tag_21\n      jump\t// in\n    tag_20:\n      tag_22\n      jump\t// in\n    tag_19:\n      stop\n        /* \"contracts/zombiefactory.sol\":764:787  Zombie[] public zombies */\n    tag_3:\n      callvalue\n      dup1\n      iszero\n      tag_23\n      jumpi\n      revert(0x00, 0x00)\n    tag_23:\n      pop\n      tag_24\n      0x04\n      dup1\n      calldatasize\n      sub\n      dup2\n      add\n      swap1\n      tag_25\n      swap2\n      swap1\n      tag_21\n      jump\t// in\n    tag_25:\n      tag_26\n      jump\t// in\n    tag_24:\n      mload(0x40)\n      tag_27\n      swap5\n      swap4\n      swap3\n      swap2\n      swap1\n      tag_28\n      jump\t// in\n    tag_27:\n      mload(0x40)\n      dup1\n      swap2\n      sub\n      swap1\n      return\n        /* \"contracts/zombiehelper.sol\":306:544  function withdraw() external payable {... */\n    tag_4:\n      tag_29\n      tag_30\n      jump\t// in\n    tag_29:\n      stop\n        /* \"contracts/zombiefeeding.sol\":576:705  function setKittyContractAddress(address _address) external onlyOwner {... */\n    tag_5:\n      callvalue\n      dup1\n      iszero\n      tag_31\n      jumpi\n      revert(0x00, 0x00)\n    tag_31:\n      pop\n      tag_32\n      0x04\n      dup1\n      calldatasize\n      sub\n      dup2\n      add\n      swap1\n      tag_33\n      swap2\n      swap1\n      tag_34\n      jump\t// in\n    tag_33:\n      tag_35\n      jump\t// in\n    tag_32:\n      stop\n        /* \"contracts/zombiehelper.sol\":1066:1259  function changeDna(uint _zombieId, uint _newDna) external aboveLevel(20, _zombieId) {... */\n    tag_6:\n      callvalue\n      dup1\n      iszero\n      tag_36\n      jumpi\n      revert(0x00, 0x00)\n    tag_36:\n      pop\n      tag_37\n      0x04\n      dup1\n      calldatasize\n      sub\n      dup2\n      add\n      swap1\n      tag_38\n      swap2\n      swap1\n      tag_39\n      jump\t// in\n    tag_38:\n      tag_40\n      jump\t// in\n    tag_37:\n      stop\n        /* \"contracts/ownable.sol\":1339:1469  function renounceOwnership() public onlyOwner {... */\n    tag_7:\n      callvalue\n      dup1\n      iszero\n      tag_41\n      jumpi\n      revert(0x00, 0x00)\n    tag_41:\n      pop\n      tag_42\n      tag_43\n      jump\t// in\n    tag_42:\n      stop\n        /* \"contracts/ownable.sol\":689:761  function owner() public view returns(address) {... */\n    tag_8:\n      callvalue\n      dup1\n      iszero\n      tag_44\n      jumpi\n      revert(0x00, 0x00)\n    tag_44:\n      pop\n      tag_45\n      tag_46\n      jump\t// in\n    tag_45:\n      mload(0x40)\n      tag_47\n      swap2\n      swap1\n      tag_48\n      jump\t// in\n    tag_47:\n      mload(0x40)\n      dup1\n      swap2\n      sub\n      swap1\n      return\n        /* \"contracts/ownable.sol\":987:1072  function isOwner() public view returns(bool) {... */\n    tag_9:\n      callvalue\n      dup1\n      iszero\n      tag_49\n      jumpi\n      revert(0x00, 0x00)\n    tag_49:\n      pop\n      tag_50\n      tag_51\n      jump\t// in\n    tag_50:\n      mload(0x40)\n      tag_52\n      swap2\n      swap1\n      tag_53\n      jump\t// in\n    tag_52:\n      mload(0x40)\n      dup1\n      swap2\n      sub\n      swap1\n      return\n        /* \"contracts/zombiehelper.sol\":1267:1681  function getZombieByOwner(address _owner) external view returns (uint[] memory) {... */\n    tag_10:\n      callvalue\n      dup1\n      iszero\n      tag_54\n      jumpi\n      revert(0x00, 0x00)\n    tag_54:\n      pop\n      tag_55\n      0x04\n      dup1\n      calldatasize\n      sub\n      dup2\n      add\n      swap1\n      tag_56\n      swap2\n      swap1\n      tag_34\n      jump\t// in\n    tag_56:\n      tag_57\n      jump\t// in\n    tag_55:\n      mload(0x40)\n      tag_58\n      swap2\n      swap1\n      tag_59\n      jump\t// in\n    tag_58:\n      mload(0x40)\n      dup1\n      swap2\n      sub\n      swap1\n      return\n        /* \"contracts/zombiefeeding.sol\":1600:1800  function feeOnKitty(uint256 _zombieId, uint256 _kittyId) public {... */\n    tag_11:\n      callvalue\n      dup1\n      iszero\n      tag_60\n      jumpi\n      revert(0x00, 0x00)\n    tag_60:\n      pop\n      tag_61\n      0x04\n      dup1\n      calldatasize\n      sub\n      dup2\n      add\n      swap1\n      tag_62\n      swap2\n      swap1\n      tag_39\n      jump\t// in\n    tag_62:\n      tag_63\n      jump\t// in\n    tag_61:\n      stop\n        /* \"contracts/zombiefactory.sol\":1623:1814  function createZombie(string memory _name) public {... */\n    tag_12:\n      callvalue\n      dup1\n      iszero\n      tag_64\n      jumpi\n      revert(0x00, 0x00)\n    tag_64:\n      pop\n      tag_65\n      0x04\n      dup1\n      calldatasize\n      sub\n      dup2\n      add\n      swap1\n      tag_66\n      swap2\n      swap1\n      tag_67\n      jump\t// in\n    tag_66:\n      tag_68\n      jump\t// in\n    tag_65:\n      stop\n        /* \"contracts/zombiehelper.sol\":853:1060  function changeName(uint _zombieId, string calldata _newName) external aboveLevel(2, _zombieId) {... */\n    tag_13:\n      callvalue\n      dup1\n      iszero\n      tag_69\n      jumpi\n      revert(0x00, 0x00)\n    tag_69:\n      pop\n      tag_70\n      0x04\n      dup1\n      calldatasize\n      sub\n      dup2\n      add\n      swap1\n      tag_71\n      swap2\n      swap1\n      tag_72\n      jump\t// in\n    tag_71:\n      tag_73\n      jump\t// in\n    tag_70:\n      stop\n        /* \"contracts/zombiehelper.sol\":552:641  function setLevelUpFee(uint _fee) external onlyOwner {... */\n    tag_14:\n      callvalue\n      dup1\n      iszero\n      tag_74\n      jumpi\n      revert(0x00, 0x00)\n    tag_74:\n      pop\n      tag_75\n      0x04\n      dup1\n      calldatasize\n      sub\n      dup2\n      add\n      swap1\n      tag_76\n      swap2\n      swap1\n      tag_21\n      jump\t// in\n    tag_76:\n      tag_77\n      jump\t// in\n    tag_75:\n      stop\n        /* \"contracts/ownable.sol\":1633:1736  function transferOwnership(address newOwner) public onlyOwner {... */\n    tag_15:\n      callvalue\n      dup1\n      iszero\n      tag_78\n      jumpi\n      revert(0x00, 0x00)\n    tag_78:\n      pop\n      tag_79\n      0x04\n      dup1\n      calldatasize\n      sub\n      dup2\n      add\n      swap1\n      tag_80\n      swap2\n      swap1\n      tag_34\n      jump\t// in\n    tag_80:\n      tag_81\n      jump\t// in\n    tag_79:\n      stop\n        /* \"contracts/zombiehelper.sol\":649:845  function levelUp(uint _zombieId) external payable {... */\n    tag_22:\n        /* \"contracts/zombiehelper.sol\":732:745  zombieToOwner */\n      0x05\n        /* \"contracts/zombiehelper.sol\":732:756  zombieToOwner[_zombieId] */\n      0x00\n        /* \"contracts/zombiehelper.sol\":746:755  _zombieId */\n      dup3\n        /* \"contracts/zombiehelper.sol\":732:756  zombieToOwner[_zombieId] */\n      dup2\n      mstore\n      0x20\n      add\n      swap1\n      dup2\n      mstore\n      0x20\n      add\n      0x00\n      keccak256\n      0x00\n      swap1\n      sload\n      swap1\n      0x0100\n      exp\n      swap1\n      div\n      0xffffffffffffffffffffffffffffffffffffffff\n      and\n        /* \"contracts/zombiehelper.sol\":718:756  msg.sender == zombieToOwner[_zombieId] */\n      0xffffffffffffffffffffffffffffffffffffffff\n      and\n        /* \"contracts/zombiehelper.sol\":718:728  msg.sender */\n      caller\n        /* \"contracts/zombiehelper.sol\":718:756  msg.sender == zombieToOwner[_zombieId] */\n      0xffffffffffffffffffffffffffffffffffffffff\n      and\n      eq\n        /* \"contracts/zombiehelper.sol\":710:757  require(msg.sender == zombieToOwner[_zombieId]) */\n      tag_83\n      jumpi\n      revert(0x00, 0x00)\n    tag_83:\n        /* \"contracts/zombiehelper.sol\":789:799  levelUpFee */\n      sload(0x08)\n        /* \"contracts/zombiehelper.sol\":776:785  msg.value */\n      callvalue\n        /* \"contracts/zombiehelper.sol\":776:799  msg.value == levelUpFee */\n      eq\n        /* \"contracts/zombiehelper.sol\":768:800  require(msg.value == levelUpFee) */\n      tag_84\n      jumpi\n      revert(0x00, 0x00)\n    tag_84:\n        /* \"contracts/zombiehelper.sol\":811:818  zombies */\n      0x04\n        /* \"contracts/zombiehelper.sol\":819:828  _zombieId */\n      dup2\n        /* \"contracts/zombiehelper.sol\":811:829  zombies[_zombieId] */\n      dup2\n      sload\n      dup2\n      lt\n      tag_85\n      jumpi\n      tag_86\n      tag_87\n      jump\t// in\n    tag_86:\n    tag_85:\n      swap1\n      0x00\n      mstore\n      keccak256(0x00, 0x20)\n      swap1\n      0x03\n      mul\n      add\n        /* \"contracts/zombiehelper.sol\":811:835  zombies[_zombieId].level */\n      0x02\n      add\n      0x00\n        /* \"contracts/zombiehelper.sol\":811:837  zombies[_zombieId].level++ */\n      dup2\n      dup2\n      swap1\n      sload\n      swap1\n      0x0100\n      exp\n      swap1\n      div\n      0xffffffff\n      and\n      dup1\n      swap3\n      swap2\n      swap1\n      tag_89\n      swap1\n      tag_90\n      jump\t// in\n    tag_89:\n      swap2\n      swap1\n      0x0100\n      exp\n      dup2\n      sload\n      dup2\n      0xffffffff\n      mul\n      not\n      and\n      swap1\n      dup4\n      0xffffffff\n      and\n      mul\n      or\n      swap1\n      sstore\n      pop\n      pop\n        /* \"contracts/zombiehelper.sol\":649:845  function levelUp(uint _zombieId) external payable {... */\n      pop\n      jump\t// out\n        /* \"contracts/zombiefactory.sol\":764:787  Zombie[] public zombies */\n    tag_26:\n      0x04\n      dup2\n      dup2\n      sload\n      dup2\n      lt\n      tag_91\n      jumpi\n      0x00\n      dup1\n      revert\n    tag_91:\n      swap1\n      0x00\n      mstore\n      keccak256(0x00, 0x20)\n      swap1\n      0x03\n      mul\n      add\n      0x00\n      swap2\n      pop\n      swap1\n      pop\n      dup1\n      0x00\n      add\n      dup1\n      sload\n      tag_93\n      swap1\n      tag_94\n      jump\t// in\n    tag_93:\n      dup1\n      0x1f\n      add\n      0x20\n      dup1\n      swap2\n      div\n      mul\n      0x20\n      add\n      mload(0x40)\n      swap1\n      dup2\n      add\n      0x40\n      mstore\n      dup1\n      swap3\n      swap2\n      swap1\n      dup2\n      dup2\n      mstore\n      0x20\n      add\n      dup3\n      dup1\n      sload\n      tag_95\n      swap1\n      tag_94\n      jump\t// in\n    tag_95:\n      dup1\n      iszero\n      tag_96\n      jumpi\n      dup1\n      0x1f\n      lt\n      tag_97\n      jumpi\n      0x0100\n      dup1\n      dup4\n      sload\n      div\n      mul\n      dup4\n      mstore\n      swap2\n      0x20\n      add\n      swap2\n      jump(tag_96)\n    tag_97:\n      dup3\n      add\n      swap2\n      swap1\n      0x00\n      mstore\n      keccak256(0x00, 0x20)\n      swap1\n    tag_98:\n      dup2\n      sload\n      dup2\n      mstore\n      swap1\n      0x01\n      add\n      swap1\n      0x20\n      add\n      dup1\n      dup4\n      gt\n      tag_98\n      jumpi\n      dup3\n      swap1\n      sub\n      0x1f\n      and\n      dup3\n      add\n      swap2\n    tag_96:\n      pop\n      pop\n      pop\n      pop\n      pop\n      swap1\n      dup1\n      0x01\n      add\n      sload\n      swap1\n      dup1\n      0x02\n      add\n      0x00\n      swap1\n      sload\n      swap1\n      0x0100\n      exp\n      swap1\n      div\n      0xffffffff\n      and\n      swap1\n      dup1\n      0x02\n      add\n      0x04\n      swap1\n      sload\n      swap1\n      0x0100\n      exp\n      swap1\n      div\n      0xffffffff\n      and\n      swap1\n      pop\n      dup5\n      jump\t// out\n        /* \"contracts/zombiehelper.sol\":306:544  function withdraw() external payable {... */\n    tag_30:\n        /* \"contracts/zombiehelper.sol\":354:376  address payable _owner */\n      0x00\n        /* \"contracts/zombiehelper.sol\":388:395  owner() */\n      tag_100\n        /* \"contracts/zombiehelper.sol\":388:393  owner */\n      tag_46\n        /* \"contracts/zombiehelper.sol\":388:395  owner() */\n      jump\t// in\n    tag_100:\n        /* \"contracts/zombiehelper.sol\":354:397  address payable _owner = payable((owner())) */\n      swap1\n      pop\n        /* \"contracts/zombiehelper.sol\":408:414  _owner */\n      dup1\n        /* \"contracts/zombiehelper.sol\":408:423  _owner.transfer */\n      0xffffffffffffffffffffffffffffffffffffffff\n      and\n        /* \"contracts/zombiehelper.sol\":408:446  _owner.transfer(address(this).balance) */\n      0x08fc\n        /* \"contracts/zombiehelper.sol\":424:445  address(this).balance */\n      selfbalance\n        /* \"contracts/zombiehelper.sol\":408:446  _owner.transfer(address(this).balance) */\n      swap1\n      dup2\n      iszero\n      mul\n      swap1\n      mload(0x40)\n      0x00\n      mload(0x40)\n      dup1\n      dup4\n      sub\n      dup2\n      dup6\n      dup9\n      dup9\n      call\n      swap4\n      pop\n      pop\n      pop\n      pop\n      iszero\n      dup1\n      iszero\n      tag_102\n      jumpi\n      returndatacopy(0x00, 0x00, returndatasize)\n      revert(0x00, returndatasize)\n    tag_102:\n      pop\n        /* \"contracts/zombiehelper.sol\":343:544  {... */\n      pop\n        /* \"contracts/zombiehelper.sol\":306:544  function withdraw() external payable {... */\n      jump\t// out\n        /* \"contracts/zombiefeeding.sol\":576:705  function setKittyContractAddress(address _address) external onlyOwner {... */\n    tag_35:\n        /* \"contracts/ownable.sol\":880:889  isOwner() */\n      tag_104\n        /* \"contracts/ownable.sol\":880:887  isOwner */\n      tag_51\n        /* \"contracts/ownable.sol\":880:889  isOwner() */\n      jump\t// in\n    tag_104:\n        /* \"contracts/ownable.sol\":872:890  require(isOwner()) */\n      tag_105\n      jumpi\n      revert(0x00, 0x00)\n    tag_105:\n        /* \"contracts/zombiefeeding.sol\":688:696  _address */\n      dup1\n        /* \"contracts/zombiefeeding.sol\":657:670  kittyContract */\n      0x07\n      0x00\n        /* \"contracts/zombiefeeding.sol\":657:697  kittyContract = KittyInterface(_address) */\n      0x0100\n      exp\n      dup2\n      sload\n      dup2\n      0xffffffffffffffffffffffffffffffffffffffff\n      mul\n      not\n      and\n      swap1\n      dup4\n      0xffffffffffffffffffffffffffffffffffffffff\n      and\n      mul\n      or\n      swap1\n      sstore\n      pop\n        /* \"contracts/zombiefeeding.sol\":576:705  function setKittyContractAddress(address _address) external onlyOwner {... */\n      pop\n      jump\t// out\n        /* \"contracts/zombiehelper.sol\":1066:1259  function changeDna(uint _zombieId, uint _newDna) external aboveLevel(20, _zombieId) {... */\n    tag_40:\n        /* \"contracts/zombiehelper.sol\":1135:1137  20 */\n      0x14\n        /* \"contracts/zombiehelper.sol\":1139:1148  _zombieId */\n      dup3\n        /* \"contracts/zombiehelper.sol\":272:278  _level */\n      dup2\n        /* \"contracts/zombiehelper.sol\":244:278  zombies[_zombieId].level >= _level */\n      0xffffffff\n      and\n        /* \"contracts/zombiehelper.sol\":244:251  zombies */\n      0x04\n        /* \"contracts/zombiehelper.sol\":252:261  _zombieId */\n      dup3\n        /* \"contracts/zombiehelper.sol\":244:262  zombies[_zombieId] */\n      dup2\n      sload\n      dup2\n      lt\n      tag_108\n      jumpi\n      tag_109\n      tag_87\n      jump\t// in\n    tag_109:\n    tag_108:\n      swap1\n      0x00\n      mstore\n      keccak256(0x00, 0x20)\n      swap1\n      0x03\n      mul\n      add\n        /* \"contracts/zombiehelper.sol\":244:268  zombies[_zombieId].level */\n      0x02\n      add\n      0x00\n      swap1\n      sload\n      swap1\n      0x0100\n      exp\n      swap1\n      pop\n      pop\n        /* \"contracts/zombiehelper.sol\":244:278  zombies[_zombieId].level >= _level */\n      pop\n        /* \"contracts/zombiehelper.sol\":1197:1207  msg.sender */\n      caller\n        /* \"contracts/zombiehelper.sol\":1169:1207  zombieToOwner[_zombieId] == msg.sender */\n      0xffffffffffffffffffffffffffffffffffffffff\n      and\n        /* \"contracts/zombiehelper.sol\":1169:1182  zombieToOwner */\n      0x05\n        /* \"contracts/zombiehelper.sol\":1169:1193  zombieToOwner[_zombieId] */\n      0x00\n        /* \"contracts/zombiehelper.sol\":1183:1192  _zombieId */\n      dup7\n        /* \"contracts/zombiehelper.sol\":1169:1193  zombieToOwner[_zombieId] */\n      dup2\n      mstore\n      0x20\n      add\n      swap1\n      dup2\n      mstore\n      0x20\n      add\n      0x00\n      keccak256\n      0x00\n      swap1\n      sload\n      swap1\n      0x0100\n      exp\n      swap1\n      div\n      0xffffffffffffffffffffffffffffffffffffffff\n      and\n        /* \"contracts/zombiehelper.sol\":1169:1207  zombieToOwner[_zombieId] == msg.sender */\n      0xffffffffffffffffffffffffffffffffffffffff\n      and\n      eq\n        /* \"contracts/zombiehelper.sol\":1161:1208  require(zombieToOwner[_zombieId] == msg.sender) */\n      tag_112\n      jumpi\n      revert(0x00, 0x00)\n    tag_112:\n        /* \"contracts/zombiehelper.sol\":1244:1251  _newDna */\n      dup3\n        /* \"contracts/zombiehelper.sol\":1219:1226  zombies */\n      0x04\n        /* \"contracts/zombiehelper.sol\":1227:1236  _zombieId */\n      dup6\n        /* \"contracts/zombiehelper.sol\":1219:1237  zombies[_zombieId] */\n      dup2\n      sload\n      dup2\n      lt\n      tag_113\n      jumpi\n      tag_114\n      tag_87\n      jump\t// in\n    tag_114:\n    tag_113:\n      swap1\n      0x00\n      mstore\n      keccak256(0x00, 0x20)\n      swap1\n      0x03\n      mul\n      add\n        /* \"contracts/zombiehelper.sol\":1219:1241  zombies[_zombieId].dna */\n      0x01\n      add\n        /* \"contracts/zombiehelper.sol\":1219:1251  zombies[_zombieId].dna = _newDna */\n      dup2\n      swap1\n      sstore\n      pop\n        /* \"contracts/zombiehelper.sol\":1066:1259  function changeDna(uint _zombieId, uint _newDna) external aboveLevel(20, _zombieId) {... */\n      pop\n      pop\n      pop\n      pop\n      jump\t// out\n        /* \"contracts/ownable.sol\":1339:1469  function renounceOwnership() public onlyOwner {... */\n    tag_43:\n        /* \"contracts/ownable.sol\":880:889  isOwner() */\n      tag_117\n        /* \"contracts/ownable.sol\":880:887  isOwner */\n      tag_51\n        /* \"contracts/ownable.sol\":880:889  isOwner() */\n      jump\t// in\n    tag_117:\n        /* \"contracts/ownable.sol\":872:890  require(isOwner()) */\n      tag_118\n      jumpi\n      revert(0x00, 0x00)\n    tag_118:\n        /* \"contracts/ownable.sol\":1434:1435  0 */\n      0x00\n        /* \"contracts/ownable.sol\":1397:1437  OwnershipTransferred(_owner, address(0)) */\n      0xffffffffffffffffffffffffffffffffffffffff\n      and\n        /* \"contracts/ownable.sol\":1418:1424  _owner */\n      0x00\n      0x00\n      swap1\n      sload\n      swap1\n      0x0100\n      exp\n      swap1\n      div\n      0xffffffffffffffffffffffffffffffffffffffff\n      and\n        /* \"contracts/ownable.sol\":1397:1437  OwnershipTransferred(_owner, address(0)) */\n      0xffffffffffffffffffffffffffffffffffffffff\n      and\n      0x8be0079c531659141344cd1fd0a4f28419497f9722a3daafe3b4186f6b6457e0\n      mload(0x40)\n      mload(0x40)\n      dup1\n      swap2\n      sub\n      swap1\n      log3\n        /* \"contracts/ownable.sol\":1461:1462  0 */\n      0x00\n        /* \"contracts/ownable.sol\":1444:1450  _owner */\n      0x00\n      0x00\n        /* \"contracts/ownable.sol\":1444:1463  _owner = address(0) */\n      0x0100\n      exp\n      dup2\n      sload\n      dup2\n      0xffffffffffffffffffffffffffffffffffffffff\n      mul\n      not\n      and\n      swap1\n      dup4\n      0xffffffffffffffffffffffffffffffffffffffff\n      and\n      mul\n      or\n      swap1\n      sstore\n      pop\n        /* \"contracts/ownable.sol\":1339:1469  function renounceOwnership() public onlyOwner {... */\n      jump\t// out\n        /* \"contracts/ownable.sol\":689:761  function owner() public view returns(address) {... */\n    tag_46:\n        /* \"contracts/ownable.sol\":726:733  address */\n      0x00\n        /* \"contracts/ownable.sol\":749:755  _owner */\n      0x00\n      0x00\n      swap1\n      sload\n      swap1\n      0x0100\n      exp\n      swap1\n      div\n      0xffffffffffffffffffffffffffffffffffffffff\n      and\n        /* \"contracts/ownable.sol\":742:755  return _owner */\n      swap1\n      pop\n        /* \"contracts/ownable.sol\":689:761  function owner() public view returns(address) {... */\n      swap1\n      jump\t// out\n        /* \"contracts/ownable.sol\":987:1072  function isOwner() public view returns(bool) {... */\n    tag_51:\n        /* \"contracts/ownable.sol\":1026:1030  bool */\n      0x00\n        /* \"contracts/ownable.sol\":1060:1066  _owner */\n      0x00\n      0x00\n      swap1\n      sload\n      swap1\n      0x0100\n      exp\n      swap1\n      div\n      0xffffffffffffffffffffffffffffffffffffffff\n      and\n        /* \"contracts/ownable.sol\":1046:1066  msg.sender == _owner */\n      0xffffffffffffffffffffffffffffffffffffffff\n      and\n        /* \"contracts/ownable.sol\":1046:1056  msg.sender */\n      caller\n        /* \"contracts/ownable.sol\":1046:1066  msg.sender == _owner */\n      0xffffffffffffffffffffffffffffffffffffffff\n      and\n      eq\n        /* \"contracts/ownable.sol\":1039:1066  return msg.sender == _owner */\n      swap1\n      pop\n        /* \"contracts/ownable.sol\":987:1072  function isOwner() public view returns(bool) {... */\n      swap1\n      jump\t// out\n        /* \"contracts/zombiehelper.sol\":1267:1681  function getZombieByOwner(address _owner) external view returns (uint[] memory) {... */\n    tag_57:\n        /* \"contracts/zombiehelper.sol\":1332:1345  uint[] memory */\n      0x60\n        /* \"contracts/zombiehelper.sol\":1358:1378  uint[] memory result */\n      0x00\n        /* \"contracts/zombiehelper.sol\":1392:1408  ownerZombieCount */\n      0x06\n        /* \"contracts/zombiehelper.sol\":1392:1416  ownerZombieCount[_owner] */\n      0x00\n        /* \"contracts/zombiehelper.sol\":1409:1415  _owner */\n      dup5\n        /* \"contracts/zombiehelper.sol\":1392:1416  ownerZombieCount[_owner] */\n      0xffffffffffffffffffffffffffffffffffffffff\n      and\n      0xffffffffffffffffffffffffffffffffffffffff\n      and\n      dup2\n      mstore\n      0x20\n      add\n      swap1\n      dup2\n      mstore\n      0x20\n      add\n      0x00\n      keccak256\n      sload\n        /* \"contracts/zombiehelper.sol\":1381:1417  new uint[](ownerZombieCount[_owner]) */\n      0xffffffffffffffff\n      dup2\n      gt\n      iszero\n      tag_123\n      jumpi\n      tag_124\n      tag_125\n      jump\t// in\n    tag_124:\n    tag_123:\n      mload(0x40)\n      swap1\n      dup1\n      dup3\n      mstore\n      dup1\n      0x20\n      mul\n      0x20\n      add\n      dup3\n      add\n      0x40\n      mstore\n      dup1\n      iszero\n      tag_126\n      jumpi\n      dup2\n      0x20\n      add\n      0x20\n      dup3\n      mul\n      dup1\n      calldatasize\n      dup4\n      calldatacopy\n      dup1\n      dup3\n      add\n      swap2\n      pop\n      pop\n      swap1\n      pop\n    tag_126:\n      pop\n        /* \"contracts/zombiehelper.sol\":1358:1417  uint[] memory result = new uint[](ownerZombieCount[_owner]) */\n      swap1\n      pop\n        /* \"contracts/zombiehelper.sol\":1428:1440  uint counter */\n      0x00\n        /* \"contracts/zombiehelper.sol\":1443:1444  0 */\n      0x00\n        /* \"contracts/zombiehelper.sol\":1428:1444  uint counter = 0 */\n      swap1\n      pop\n        /* \"contracts/zombiehelper.sol\":1460:1471  uint256 _id */\n      0x00\n        /* \"contracts/zombiehelper.sol\":1474:1475  0 */\n      0x00\n        /* \"contracts/zombiehelper.sol\":1460:1475  uint256 _id = 0 */\n      swap1\n      pop\n        /* \"contracts/zombiehelper.sol\":1455:1650  for (uint256 _id = 0; _id < zombies.length; _id++) {... */\n    tag_127:\n        /* \"contracts/zombiehelper.sol\":1483:1490  zombies */\n      0x04\n        /* \"contracts/zombiehelper.sol\":1483:1497  zombies.length */\n      dup1\n      sload\n      swap1\n      pop\n        /* \"contracts/zombiehelper.sol\":1477:1480  _id */\n      dup2\n        /* \"contracts/zombiehelper.sol\":1477:1497  _id < zombies.length */\n      lt\n        /* \"contracts/zombiehelper.sol\":1455:1650  for (uint256 _id = 0; _id < zombies.length; _id++) {... */\n      iszero\n      tag_128\n      jumpi\n        /* \"contracts/zombiehelper.sol\":1547:1553  _owner */\n      dup5\n        /* \"contracts/zombiehelper.sol\":1525:1553  zombieToOwner[_id] == _owner */\n      0xffffffffffffffffffffffffffffffffffffffff\n      and\n        /* \"contracts/zombiehelper.sol\":1525:1538  zombieToOwner */\n      0x05\n        /* \"contracts/zombiehelper.sol\":1525:1543  zombieToOwner[_id] */\n      0x00\n        /* \"contracts/zombiehelper.sol\":1539:1542  _id */\n      dup4\n        /* \"contracts/zombiehelper.sol\":1525:1543  zombieToOwner[_id] */\n      dup2\n      mstore\n      0x20\n      add\n      swap1\n      dup2\n      mstore\n      0x20\n      add\n      0x00\n      keccak256\n      0x00\n      swap1\n      sload\n      swap1\n      0x0100\n      exp\n      swap1\n      div\n      0xffffffffffffffffffffffffffffffffffffffff\n      and\n        /* \"contracts/zombiehelper.sol\":1525:1553  zombieToOwner[_id] == _owner */\n      0xffffffffffffffffffffffffffffffffffffffff\n      and\n      sub\n        /* \"contracts/zombiehelper.sol\":1521:1639  if (zombieToOwner[_id] == _owner) {... */\n      tag_130\n      jumpi\n        /* \"contracts/zombiehelper.sol\":1592:1595  _id */\n      dup1\n        /* \"contracts/zombiehelper.sol\":1574:1580  result */\n      dup4\n        /* \"contracts/zombiehelper.sol\":1581:1588  counter */\n      dup4\n        /* \"contracts/zombiehelper.sol\":1574:1589  result[counter] */\n      dup2\n      mload\n      dup2\n      lt\n      tag_131\n      jumpi\n      tag_132\n      tag_87\n      jump\t// in\n    tag_132:\n    tag_131:\n      0x20\n      mul\n      0x20\n      add\n      add\n        /* \"contracts/zombiehelper.sol\":1574:1595  result[counter] = _id */\n      dup2\n      dup2\n      mstore\n      pop\n      pop\n        /* \"contracts/zombiehelper.sol\":1614:1623  counter++ */\n      dup2\n      dup1\n      tag_133\n      swap1\n      tag_134\n      jump\t// in\n    tag_133:\n      swap3\n      pop\n      pop\n        /* \"contracts/zombiehelper.sol\":1521:1639  if (zombieToOwner[_id] == _owner) {... */\n    tag_130:\n        /* \"contracts/zombiehelper.sol\":1499:1504  _id++ */\n      dup1\n      dup1\n      0x01\n      add\n      swap2\n      pop\n      pop\n        /* \"contracts/zombiehelper.sol\":1455:1650  for (uint256 _id = 0; _id < zombies.length; _id++) {... */\n      jump(tag_127)\n    tag_128:\n      pop\n        /* \"contracts/zombiehelper.sol\":1667:1673  result */\n      dup2\n        /* \"contracts/zombiehelper.sol\":1660:1673  return result */\n      swap3\n      pop\n      pop\n      pop\n        /* \"contracts/zombiehelper.sol\":1267:1681  function getZombieByOwner(address _owner) external view returns (uint[] memory) {... */\n      swap2\n      swap1\n      pop\n      jump\t// out\n        /* \"contracts/zombiefeeding.sol\":1600:1800  function feeOnKitty(uint256 _zombieId, uint256 _kittyId) public {... */\n    tag_63:\n        /* \"contracts/zombiefeeding.sol\":1685:1701  uint256 kittyDna */\n      0x00\n        /* \"contracts/zombiefeeding.sol\":1705:1718  kittyContract */\n      0x07\n      0x00\n      swap1\n      sload\n      swap1\n      0x0100\n      exp\n      swap1\n      div\n      0xffffffffffffffffffffffffffffffffffffffff\n      and\n        /* \"contracts/zombiefeeding.sol\":1705:1727  kittyContract.getKitty */\n      0xffffffffffffffffffffffffffffffffffffffff\n      and\n      0xe98b7f4d\n        /* \"contracts/zombiefeeding.sol\":1728:1736  _kittyId */\n      dup4\n        /* \"contracts/zombiefeeding.sol\":1705:1737  kittyContract.getKitty(_kittyId) */\n      mload(0x40)\n      dup3\n      0xffffffff\n      and\n      0xe0\n      shl\n      dup2\n      mstore\n      0x04\n      add\n      tag_136\n      swap2\n      swap1\n      tag_137\n      jump\t// in\n    tag_136:\n      0x0140\n      mload(0x40)\n      dup1\n      dup4\n      sub\n      dup2\n      dup7\n      gas\n      staticcall\n      iszero\n      dup1\n      iszero\n      tag_139\n      jumpi\n      returndatacopy(0x00, 0x00, returndatasize)\n      revert(0x00, returndatasize)\n    tag_139:\n      pop\n      pop\n      pop\n      pop\n      mload(0x40)\n      returndatasize\n      not(0x1f)\n      0x1f\n      dup3\n      add\n      and\n      dup3\n      add\n      dup1\n      0x40\n      mstore\n      pop\n      dup2\n      add\n      swap1\n      tag_140\n      swap2\n      swap1\n      tag_141\n      jump\t// in\n    tag_140:\n        /* \"contracts/zombiefeeding.sol\":1675:1737  (,,,,,,,,,uint256 kittyDna) = kittyContract.getKitty(_kittyId) */\n      swap10\n      pop\n      pop\n      pop\n      pop\n      pop\n      pop\n      pop\n      pop\n      pop\n      pop\n        /* \"contracts/zombiefeeding.sol\":1748:1792  feeAndMultiply(_zombieId, kittyDna, \"kitty\") */\n      tag_142\n        /* \"contracts/zombiefeeding.sol\":1763:1772  _zombieId */\n      dup4\n        /* \"contracts/zombiefeeding.sol\":1774:1782  kittyDna */\n      dup3\n        /* \"contracts/zombiefeeding.sol\":1748:1792  feeAndMultiply(_zombieId, kittyDna, \"kitty\") */\n      mload(0x40)\n      dup1\n      0x40\n      add\n      0x40\n      mstore\n      dup1\n      0x05\n      dup2\n      mstore\n      0x20\n      add\n      0x6b69747479000000000000000000000000000000000000000000000000000000\n      dup2\n      mstore\n      pop\n        /* \"contracts/zombiefeeding.sol\":1748:1762  feeAndMultiply */\n      tag_143\n        /* \"contracts/zombiefeeding.sol\":1748:1792  feeAndMultiply(_zombieId, kittyDna, \"kitty\") */\n      jump\t// in\n    tag_142:\n        /* \"contracts/zombiefeeding.sol\":1664:1800  {... */\n      pop\n        /* \"contracts/zombiefeeding.sol\":1600:1800  function feeOnKitty(uint256 _zombieId, uint256 _kittyId) public {... */\n      pop\n      pop\n      jump\t// out\n        /* \"contracts/zombiefactory.sol\":1623:1814  function createZombie(string memory _name) public {... */\n    tag_68:\n        /* \"contracts/zombiefactory.sol\":1724:1725  0 */\n      0x00\n        /* \"contracts/zombiefactory.sol\":1692:1708  ownerZombieCount */\n      0x06\n        /* \"contracts/zombiefactory.sol\":1692:1720  ownerZombieCount[msg.sender] */\n      0x00\n        /* \"contracts/zombiefactory.sol\":1709:1719  msg.sender */\n      caller\n        /* \"contracts/zombiefactory.sol\":1692:1720  ownerZombieCount[msg.sender] */\n      0xffffffffffffffffffffffffffffffffffffffff\n      and\n      0xffffffffffffffffffffffffffffffffffffffff\n      and\n      dup2\n      mstore\n      0x20\n      add\n      swap1\n      dup2\n      mstore\n      0x20\n      add\n      0x00\n      keccak256\n      sload\n        /* \"contracts/zombiefactory.sol\":1692:1725  ownerZombieCount[msg.sender] == 0 */\n      eq\n        /* \"contracts/zombiefactory.sol\":1684:1726  require(ownerZombieCount[msg.sender] == 0) */\n      tag_145\n      jumpi\n      revert(0x00, 0x00)\n    tag_145:\n        /* \"contracts/zombiefactory.sol\":1737:1748  uint256 dna */\n      0x00\n        /* \"contracts/zombiefactory.sol\":1751:1770  _generateDna(_name) */\n      tag_146\n        /* \"contracts/zombiefactory.sol\":1764:1769  _name */\n      dup3\n        /* \"contracts/zombiefactory.sol\":1751:1763  _generateDna */\n      tag_147\n        /* \"contracts/zombiefactory.sol\":1751:1770  _generateDna(_name) */\n      jump\t// in\n    tag_146:\n        /* \"contracts/zombiefactory.sol\":1737:1770  uint256 dna = _generateDna(_name) */\n      swap1\n      pop\n        /* \"contracts/zombiefactory.sol\":1781:1806  _createZombie(_name, dna) */\n      tag_148\n        /* \"contracts/zombiefactory.sol\":1795:1800  _name */\n      dup3\n        /* \"contracts/zombiefactory.sol\":1802:1805  dna */\n      dup3\n        /* \"contracts/zombiefactory.sol\":1781:1794  _createZombie */\n      tag_149\n        /* \"contracts/zombiefactory.sol\":1781:1806  _createZombie(_name, dna) */\n      jump\t// in\n    tag_148:\n        /* \"contracts/zombiefactory.sol\":1673:1814  {... */\n      pop\n        /* \"contracts/zombiefactory.sol\":1623:1814  function createZombie(string memory _name) public {... */\n      pop\n      jump\t// out\n        /* \"contracts/zombiehelper.sol\":853:1060  function changeName(uint _zombieId, string calldata _newName) external aboveLevel(2, _zombieId) {... */\n    tag_73:\n        /* \"contracts/zombiehelper.sol\":935:936  2 */\n      0x02\n        /* \"contracts/zombiehelper.sol\":938:947  _zombieId */\n      dup4\n        /* \"contracts/zombiehelper.sol\":272:278  _level */\n      dup2\n        /* \"contracts/zombiehelper.sol\":244:278  zombies[_zombieId].level >= _level */\n      0xffffffff\n      and\n        /* \"contracts/zombiehelper.sol\":244:251  zombies */\n      0x04\n        /* \"contracts/zombiehelper.sol\":252:261  _zombieId */\n      dup3\n        /* \"contracts/zombiehelper.sol\":244:262  zombies[_zombieId] */\n      dup2\n      sload\n      dup2\n      lt\n      tag_151\n      jumpi\n      tag_152\n      tag_87\n      jump\t// in\n    tag_152:\n    tag_151:\n      swap1\n      0x00\n      mstore\n      keccak256(0x00, 0x20)\n      swap1\n      0x03\n      mul\n      add\n        /* \"contracts/zombiehelper.sol\":244:268  zombies[_zombieId].level */\n      0x02\n      add\n      0x00\n      swap1\n      sload\n      swap1\n      0x0100\n      exp\n      swap1\n      pop\n      pop\n        /* \"contracts/zombiehelper.sol\":244:278  zombies[_zombieId].level >= _level */\n      pop\n        /* \"contracts/zombiehelper.sol\":996:1006  msg.sender */\n      caller\n        /* \"contracts/zombiehelper.sol\":968:1006  zombieToOwner[_zombieId] == msg.sender */\n      0xffffffffffffffffffffffffffffffffffffffff\n      and\n        /* \"contracts/zombiehelper.sol\":968:981  zombieToOwner */\n      0x05\n        /* \"contracts/zombiehelper.sol\":968:992  zombieToOwner[_zombieId] */\n      0x00\n        /* \"contracts/zombiehelper.sol\":982:991  _zombieId */\n      dup8\n        /* \"contracts/zombiehelper.sol\":968:992  zombieToOwner[_zombieId] */\n      dup2\n      mstore\n      0x20\n      add\n      swap1\n      dup2\n      mstore\n      0x20\n      add\n      0x00\n      keccak256\n      0x00\n      swap1\n      sload\n      swap1\n      0x0100\n      exp\n      swap1\n      div\n      0xffffffffffffffffffffffffffffffffffffffff\n      and\n        /* \"contracts/zombiehelper.sol\":968:1006  zombieToOwner[_zombieId] == msg.sender */\n      0xffffffffffffffffffffffffffffffffffffffff\n      and\n      eq\n        /* \"contracts/zombiehelper.sol\":960:1007  require(zombieToOwner[_zombieId] == msg.sender) */\n      tag_155\n      jumpi\n      revert(0x00, 0x00)\n    tag_155:\n        /* \"contracts/zombiehelper.sol\":1044:1052  _newName */\n      dup4\n      dup4\n        /* \"contracts/zombiehelper.sol\":1018:1025  zombies */\n      0x04\n        /* \"contracts/zombiehelper.sol\":1026:1035  _zombieId */\n      dup8\n        /* \"contracts/zombiehelper.sol\":1018:1036  zombies[_zombieId] */\n      dup2\n      sload\n      dup2\n      lt\n      tag_156\n      jumpi\n      tag_157\n      tag_87\n      jump\t// in\n    tag_157:\n    tag_156:\n      swap1\n      0x00\n      mstore\n      keccak256(0x00, 0x20)\n      swap1\n      0x03\n      mul\n      add\n        /* \"contracts/zombiehelper.sol\":1018:1041  zombies[_zombieId].name */\n      0x00\n      add\n        /* \"contracts/zombiehelper.sol\":1018:1052  zombies[_zombieId].name = _newName */\n      swap2\n      dup3\n      tag_159\n      swap3\n      swap2\n      swap1\n      tag_160\n      jump\t// in\n    tag_159:\n      pop\n        /* \"contracts/zombiehelper.sol\":853:1060  function changeName(uint _zombieId, string calldata _newName) external aboveLevel(2, _zombieId) {... */\n      pop\n      pop\n      pop\n      pop\n      pop\n      jump\t// out\n        /* \"contracts/zombiehelper.sol\":552:641  function setLevelUpFee(uint _fee) external onlyOwner {... */\n    tag_77:\n        /* \"contracts/ownable.sol\":880:889  isOwner() */\n      tag_162\n        /* \"contracts/ownable.sol\":880:887  isOwner */\n      tag_51\n        /* \"contracts/ownable.sol\":880:889  isOwner() */\n      jump\t// in\n    tag_162:\n        /* \"contracts/ownable.sol\":872:890  require(isOwner()) */\n      tag_163\n      jumpi\n      revert(0x00, 0x00)\n    tag_163:\n        /* \"contracts/zombiehelper.sol\":629:633  _fee */\n      dup1\n        /* \"contracts/zombiehelper.sol\":616:626  levelUpFee */\n      0x08\n        /* \"contracts/zombiehelper.sol\":616:633  levelUpFee = _fee */\n      dup2\n      swap1\n      sstore\n      pop\n        /* \"contracts/zombiehelper.sol\":552:641  function setLevelUpFee(uint _fee) external onlyOwner {... */\n      pop\n      jump\t// out\n        /* \"contracts/ownable.sol\":1633:1736  function transferOwnership(address newOwner) public onlyOwner {... */\n    tag_81:\n        /* \"contracts/ownable.sol\":880:889  isOwner() */\n      tag_166\n        /* \"contracts/ownable.sol\":880:887  isOwner */\n      tag_51\n        /* \"contracts/ownable.sol\":880:889  isOwner() */\n      jump\t// in\n    tag_166:\n        /* \"contracts/ownable.sol\":872:890  require(isOwner()) */\n      tag_167\n      jumpi\n      revert(0x00, 0x00)\n    tag_167:\n        /* \"contracts/ownable.sol\":1702:1730  _transferOwnership(newOwner) */\n      tag_169\n        /* \"contracts/ownable.sol\":1721:1729  newOwner */\n      dup2\n        /* \"contracts/ownable.sol\":1702:1720  _transferOwnership */\n      tag_170\n        /* \"contracts/ownable.sol\":1702:1730  _transferOwnership(newOwner) */\n      jump\t// in\n    tag_169:\n        /* \"contracts/ownable.sol\":1633:1736  function transferOwnership(address newOwner) public onlyOwner {... */\n      pop\n      jump\t// out\n        /* \"contracts/zombiefeeding.sol\":998:1592  function feeAndMultiply(uint256 _zombieId, uint256 _targetDna, string memory _species) internal {... */\n    tag_143:\n        /* \"contracts/zombiefeeding.sol\":1141:1151  msg.sender */\n      caller\n        /* \"contracts/zombiefeeding.sol\":1113:1151  zombieToOwner[_zombieId] == msg.sender */\n      0xffffffffffffffffffffffffffffffffffffffff\n      and\n        /* \"contracts/zombiefeeding.sol\":1113:1126  zombieToOwner */\n      0x05\n        /* \"contracts/zombiefeeding.sol\":1113:1137  zombieToOwner[_zombieId] */\n      0x00\n        /* \"contracts/zombiefeeding.sol\":1127:1136  _zombieId */\n      dup6\n        /* \"contracts/zombiefeeding.sol\":1113:1137  zombieToOwner[_zombieId] */\n      dup2\n      mstore\n      0x20\n      add\n      swap1\n      dup2\n      mstore\n      0x20\n      add\n      0x00\n      keccak256\n      0x00\n      swap1\n      sload\n      swap1\n      0x0100\n      exp\n      swap1\n      div\n      0xffffffffffffffffffffffffffffffffffffffff\n      and\n        /* \"contracts/zombiefeeding.sol\":1113:1151  zombieToOwner[_zombieId] == msg.sender */\n      0xffffffffffffffffffffffffffffffffffffffff\n      and\n      eq\n        /* \"contracts/zombiefeeding.sol\":1105:1152  require(zombieToOwner[_zombieId] == msg.sender) */\n      tag_172\n      jumpi\n      revert(0x00, 0x00)\n    tag_172:\n        /* \"contracts/zombiefeeding.sol\":1163:1186  Zombie storage myZombie */\n      0x00\n        /* \"contracts/zombiefeeding.sol\":1189:1196  zombies */\n      0x04\n        /* \"contracts/zombiefeeding.sol\":1197:1206  _zombieId */\n      dup5\n        /* \"contracts/zombiefeeding.sol\":1189:1207  zombies[_zombieId] */\n      dup2\n      sload\n      dup2\n      lt\n      tag_173\n      jumpi\n      tag_174\n      tag_87\n      jump\t// in\n    tag_174:\n    tag_173:\n      swap1\n      0x00\n      mstore\n      keccak256(0x00, 0x20)\n      swap1\n      0x03\n      mul\n      add\n        /* \"contracts/zombiefeeding.sol\":1163:1207  Zombie storage myZombie = zombies[_zombieId] */\n      swap1\n      pop\n        /* \"contracts/zombiefeeding.sol\":1244:1254  dnaModulus */\n      sload(0x02)\n        /* \"contracts/zombiefeeding.sol\":1231:1241  _targetDna */\n      dup4\n        /* \"contracts/zombiefeeding.sol\":1231:1254  _targetDna % dnaModulus */\n      tag_176\n      swap2\n      swap1\n      tag_177\n      jump\t// in\n    tag_176:\n        /* \"contracts/zombiefeeding.sol\":1218:1254  _targetDna = _targetDna % dnaModulus */\n      swap3\n      pop\n        /* \"contracts/zombiefeeding.sol\":1273:1291  _isReady(myZombie) */\n      tag_178\n        /* \"contracts/zombiefeeding.sol\":1282:1290  myZombie */\n      dup2\n        /* \"contracts/zombiefeeding.sol\":1273:1281  _isReady */\n      tag_179\n        /* \"contracts/zombiefeeding.sol\":1273:1291  _isReady(myZombie) */\n      jump\t// in\n    tag_178:\n        /* \"contracts/zombiefeeding.sol\":1265:1292  require(_isReady(myZombie)) */\n      tag_180\n      jumpi\n      revert(0x00, 0x00)\n    tag_180:\n        /* \"contracts/zombiefeeding.sol\":1303:1317  uint256 newDna */\n      0x00\n        /* \"contracts/zombiefeeding.sol\":1350:1351  2 */\n      0x02\n        /* \"contracts/zombiefeeding.sol\":1334:1342  myZombie */\n      dup3\n        /* \"contracts/zombiefeeding.sol\":1334:1346  myZombie.dna */\n      0x01\n      add\n      sload\n        /* \"contracts/zombiefeeding.sol\":1321:1331  _targetDna */\n      dup6\n        /* \"contracts/zombiefeeding.sol\":1321:1346  _targetDna + myZombie.dna */\n      tag_181\n      swap2\n      swap1\n      tag_182\n      jump\t// in\n    tag_181:\n        /* \"contracts/zombiefeeding.sol\":1320:1351  (_targetDna + myZombie.dna) / 2 */\n      tag_183\n      swap2\n      swap1\n      tag_184\n      jump\t// in\n    tag_183:\n        /* \"contracts/zombiefeeding.sol\":1303:1351  uint256 newDna = (_targetDna + myZombie.dna) / 2 */\n      swap1\n      pop\n        /* \"contracts/zombiefeeding.sol\":1416:1441  abi.encodePacked(\"kitty\") */\n      add(0x20, mload(0x40))\n      tag_185\n      swap1\n      tag_186\n      jump\t// in\n    tag_185:\n      mload(0x40)\n      0x20\n      dup2\n      dup4\n      sub\n      sub\n      dup2\n      mstore\n      swap1\n      0x40\n      mstore\n        /* \"contracts/zombiefeeding.sol\":1406:1442  keccak256(abi.encodePacked(\"kitty\")) */\n      dup1\n      mload\n      swap1\n      0x20\n      add\n      keccak256\n        /* \"contracts/zombiefeeding.sol\":1392:1400  _species */\n      dup4\n        /* \"contracts/zombiefeeding.sol\":1375:1401  abi.encodePacked(_species) */\n      add(0x20, mload(0x40))\n      tag_187\n      swap2\n      swap1\n      tag_188\n      jump\t// in\n    tag_187:\n      mload(0x40)\n      0x20\n      dup2\n      dup4\n      sub\n      sub\n      dup2\n      mstore\n      swap1\n      0x40\n      mstore\n        /* \"contracts/zombiefeeding.sol\":1365:1402  keccak256(abi.encodePacked(_species)) */\n      dup1\n      mload\n      swap1\n      0x20\n      add\n      keccak256\n        /* \"contracts/zombiefeeding.sol\":1365:1442  keccak256(abi.encodePacked(_species)) == keccak256(abi.encodePacked(\"kitty\")) */\n      sub\n        /* \"contracts/zombiefeeding.sol\":1362:1506  if(keccak256(abi.encodePacked(_species)) == keccak256(abi.encodePacked(\"kitty\"))) {... */\n      tag_189\n      jumpi\n        /* \"contracts/zombiefeeding.sol\":1492:1494  99 */\n      0x63\n        /* \"contracts/zombiefeeding.sol\":1486:1489  100 */\n      0x64\n        /* \"contracts/zombiefeeding.sol\":1477:1483  newDna */\n      dup3\n        /* \"contracts/zombiefeeding.sol\":1477:1489  newDna % 100 */\n      tag_190\n      swap2\n      swap1\n      tag_177\n      jump\t// in\n    tag_190:\n        /* \"contracts/zombiefeeding.sol\":1468:1474  newDna */\n      dup3\n        /* \"contracts/zombiefeeding.sol\":1468:1489  newDna - newDna % 100 */\n      tag_191\n      swap2\n      swap1\n      tag_192\n      jump\t// in\n    tag_191:\n        /* \"contracts/zombiefeeding.sol\":1468:1494  newDna - newDna % 100 + 99 */\n      tag_193\n      swap2\n      swap1\n      tag_182\n      jump\t// in\n    tag_193:\n        /* \"contracts/zombiefeeding.sol\":1459:1494  newDna = newDna - newDna % 100 + 99 */\n      swap1\n      pop\n        /* \"contracts/zombiefeeding.sol\":1362:1506  if(keccak256(abi.encodePacked(_species)) == keccak256(abi.encodePacked(\"kitty\"))) {... */\n    tag_189:\n        /* \"contracts/zombiefeeding.sol\":1516:1547  _createZombie(\"NoName\", newDna) */\n      tag_194\n      mload(0x40)\n      dup1\n      0x40\n      add\n      0x40\n      mstore\n      dup1\n      0x06\n      dup2\n      mstore\n      0x20\n      add\n      0x4e6f4e616d650000000000000000000000000000000000000000000000000000\n      dup2\n      mstore\n      pop\n        /* \"contracts/zombiefeeding.sol\":1540:1546  newDna */\n      dup3\n        /* \"contracts/zombiefeeding.sol\":1516:1529  _createZombie */\n      tag_149\n        /* \"contracts/zombiefeeding.sol\":1516:1547  _createZombie(\"NoName\", newDna) */\n      jump\t// in\n    tag_194:\n        /* \"contracts/zombiefeeding.sol\":1558:1584  _triggerCooldown(myZombie) */\n      tag_195\n        /* \"contracts/zombiefeeding.sol\":1575:1583  myZombie */\n      dup3\n        /* \"contracts/zombiefeeding.sol\":1558:1574  _triggerCooldown */\n      tag_196\n        /* \"contracts/zombiefeeding.sol\":1558:1584  _triggerCooldown(myZombie) */\n      jump\t// in\n    tag_195:\n        /* \"contracts/zombiefeeding.sol\":1094:1592  {... */\n      pop\n      pop\n        /* \"contracts/zombiefeeding.sol\":998:1592  function feeAndMultiply(uint256 _zombieId, uint256 _targetDna, string memory _species) internal {... */\n      pop\n      pop\n      pop\n      jump\t// out\n        /* \"contracts/zombiefactory.sol\":1429:1615  function _generateDna(string memory _str) private view returns (uint256) {... */\n    tag_147:\n        /* \"contracts/zombiefactory.sol\":1493:1500  uint256 */\n      0x00\n        /* \"contracts/zombiefactory.sol\":1513:1525  uint256 rand */\n      0x00\n        /* \"contracts/zombiefactory.sol\":1565:1569  _str */\n      dup3\n        /* \"contracts/zombiefactory.sol\":1548:1570  abi.encodePacked(_str) */\n      add(0x20, mload(0x40))\n      tag_198\n      swap2\n      swap1\n      tag_188\n      jump\t// in\n    tag_198:\n      mload(0x40)\n      0x20\n      dup2\n      dup4\n      sub\n      sub\n      dup2\n      mstore\n      swap1\n      0x40\n      mstore\n        /* \"contracts/zombiefactory.sol\":1538:1571  keccak256(abi.encodePacked(_str)) */\n      dup1\n      mload\n      swap1\n      0x20\n      add\n      keccak256\n        /* \"contracts/zombiefactory.sol\":1528:1572  (uint256)(keccak256(abi.encodePacked(_str))) */\n      0x00\n      shr\n        /* \"contracts/zombiefactory.sol\":1513:1572  uint256 rand = (uint256)(keccak256(abi.encodePacked(_str))) */\n      swap1\n      pop\n        /* \"contracts/zombiefactory.sol\":1597:1607  dnaModulus */\n      sload(0x02)\n        /* \"contracts/zombiefactory.sol\":1590:1594  rand */\n      dup2\n        /* \"contracts/zombiefactory.sol\":1590:1607  rand % dnaModulus */\n      tag_199\n      swap2\n      swap1\n      tag_177\n      jump\t// in\n    tag_199:\n        /* \"contracts/zombiefactory.sol\":1583:1607  return rand % dnaModulus */\n      swap2\n      pop\n      pop\n        /* \"contracts/zombiefactory.sol\":1429:1615  function _generateDna(string memory _str) private view returns (uint256) {... */\n      swap2\n      swap1\n      pop\n      jump\t// out\n        /* \"contracts/zombiefactory.sol\":901:1229  function _createZombie(string memory _name, uint256 _dna) internal {... */\n    tag_149:\n        /* \"contracts/zombiefactory.sol\":979:986  zombies */\n      0x04\n        /* \"contracts/zombiefactory.sol\":992:1054  Zombie(_name, _dna, 1, uint32(block.timestamp + cooldownTime)) */\n      mload(0x40)\n      dup1\n      0x80\n      add\n      0x40\n      mstore\n      dup1\n        /* \"contracts/zombiefactory.sol\":999:1004  _name */\n      dup5\n        /* \"contracts/zombiefactory.sol\":992:1054  Zombie(_name, _dna, 1, uint32(block.timestamp + cooldownTime)) */\n      dup2\n      mstore\n      0x20\n      add\n        /* \"contracts/zombiefactory.sol\":1006:1010  _dna */\n      dup4\n        /* \"contracts/zombiefactory.sol\":992:1054  Zombie(_name, _dna, 1, uint32(block.timestamp + cooldownTime)) */\n      dup2\n      mstore\n      0x20\n      add\n        /* \"contracts/zombiefactory.sol\":1012:1013  1 */\n      0x01\n        /* \"contracts/zombiefactory.sol\":992:1054  Zombie(_name, _dna, 1, uint32(block.timestamp + cooldownTime)) */\n      0xffffffff\n      and\n      dup2\n      mstore\n      0x20\n      add\n        /* \"contracts/zombiefactory.sol\":1040:1052  cooldownTime */\n      sload(0x03)\n        /* \"contracts/zombiefactory.sol\":1022:1037  block.timestamp */\n      timestamp\n        /* \"contracts/zombiefactory.sol\":1022:1052  block.timestamp + cooldownTime */\n      tag_201\n      swap2\n      swap1\n      tag_182\n      jump\t// in\n    tag_201:\n        /* \"contracts/zombiefactory.sol\":992:1054  Zombie(_name, _dna, 1, uint32(block.timestamp + cooldownTime)) */\n      0xffffffff\n      and\n      dup2\n      mstore\n      pop\n        /* \"contracts/zombiefactory.sol\":979:1055  zombies.push(Zombie(_name, _dna, 1, uint32(block.timestamp + cooldownTime))) */\n      swap1\n      dup1\n      0x01\n      dup2\n      sload\n      add\n      dup1\n      dup3\n      sstore\n      dup1\n      swap2\n      pop\n      pop\n      0x01\n      swap1\n      sub\n      swap1\n      0x00\n      mstore\n      keccak256(0x00, 0x20)\n      swap1\n      0x03\n      mul\n      add\n      0x00\n      swap1\n      swap2\n      swap1\n      swap2\n      swap1\n      swap2\n      pop\n      0x00\n      dup3\n      add\n      mload\n      dup2\n      0x00\n      add\n      swap1\n      dup2\n      tag_203\n      swap2\n      swap1\n      tag_204\n      jump\t// in\n    tag_203:\n      pop\n      0x20\n      dup3\n      add\n      mload\n      dup2\n      0x01\n      add\n      sstore\n      0x40\n      dup3\n      add\n      mload\n      dup2\n      0x02\n      add\n      exp(0x0100, 0x00)\n      dup2\n      sload\n      dup2\n      0xffffffff\n      mul\n      not\n      and\n      swap1\n      dup4\n      0xffffffff\n      and\n      mul\n      or\n      swap1\n      sstore\n      pop\n      0x60\n      dup3\n      add\n      mload\n      dup2\n      0x02\n      add\n      exp(0x0100, 0x04)\n      dup2\n      sload\n      dup2\n      0xffffffff\n      mul\n      not\n      and\n      swap1\n      dup4\n      0xffffffff\n      and\n      mul\n      or\n      swap1\n      sstore\n      pop\n      pop\n      pop\n        /* \"contracts/zombiefactory.sol\":1066:1076  uint256 id */\n      0x00\n        /* \"contracts/zombiefactory.sol\":1096:1097  1 */\n      0x01\n        /* \"contracts/zombiefactory.sol\":1079:1086  zombies */\n      0x04\n        /* \"contracts/zombiefactory.sol\":1079:1093  zombies.length */\n      dup1\n      sload\n      swap1\n      pop\n        /* \"contracts/zombiefactory.sol\":1079:1097  zombies.length - 1 */\n      tag_205\n      swap2\n      swap1\n      tag_192\n      jump\t// in\n    tag_205:\n        /* \"contracts/zombiefactory.sol\":1066:1097  uint256 id = zombies.length - 1 */\n      swap1\n      pop\n        /* \"contracts/zombiefactory.sol\":1128:1138  msg.sender */\n      caller\n        /* \"contracts/zombiefactory.sol\":1108:1121  zombieToOwner */\n      0x05\n        /* \"contracts/zombiefactory.sol\":1108:1125  zombieToOwner[id] */\n      0x00\n        /* \"contracts/zombiefactory.sol\":1122:1124  id */\n      dup4\n        /* \"contracts/zombiefactory.sol\":1108:1125  zombieToOwner[id] */\n      dup2\n      mstore\n      0x20\n      add\n      swap1\n      dup2\n      mstore\n      0x20\n      add\n      0x00\n      keccak256\n      0x00\n        /* \"contracts/zombiefactory.sol\":1108:1138  zombieToOwner[id] = msg.sender */\n      0x0100\n      exp\n      dup2\n      sload\n      dup2\n      0xffffffffffffffffffffffffffffffffffffffff\n      mul\n      not\n      and\n      swap1\n      dup4\n      0xffffffffffffffffffffffffffffffffffffffff\n      and\n      mul\n      or\n      swap1\n      sstore\n      pop\n        /* \"contracts/zombiefactory.sol\":1149:1165  ownerZombieCount */\n      0x06\n        /* \"contracts/zombiefactory.sol\":1149:1177  ownerZombieCount[msg.sender] */\n      0x00\n        /* \"contracts/zombiefactory.sol\":1166:1176  msg.sender */\n      caller\n        /* \"contracts/zombiefactory.sol\":1149:1177  ownerZombieCount[msg.sender] */\n      0xffffffffffffffffffffffffffffffffffffffff\n      and\n      0xffffffffffffffffffffffffffffffffffffffff\n      and\n      dup2\n      mstore\n      0x20\n      add\n      swap1\n      dup2\n      mstore\n      0x20\n      add\n      0x00\n      keccak256\n      0x00\n        /* \"contracts/zombiefactory.sol\":1149:1179  ownerZombieCount[msg.sender]++ */\n      dup2\n      sload\n      dup1\n      swap3\n      swap2\n      swap1\n      tag_206\n      swap1\n      tag_134\n      jump\t// in\n    tag_206:\n      swap2\n      swap1\n      pop\n      sstore\n      pop\n        /* \"contracts/zombiefactory.sol\":1195:1221  NewZombie(id, _name, _dna) */\n      0x88f026aacbbecc90c18411df4b1185fd8d9be2470f1962f192bf84a27d0704b7\n        /* \"contracts/zombiefactory.sol\":1205:1207  id */\n      dup2\n        /* \"contracts/zombiefactory.sol\":1209:1214  _name */\n      dup5\n        /* \"contracts/zombiefactory.sol\":1216:1220  _dna */\n      dup5\n        /* \"contracts/zombiefactory.sol\":1195:1221  NewZombie(id, _name, _dna) */\n      mload(0x40)\n      tag_207\n      swap4\n      swap3\n      swap2\n      swap1\n      tag_208\n      jump\t// in\n    tag_207:\n      mload(0x40)\n      dup1\n      swap2\n      sub\n      swap1\n      log1\n        /* \"contracts/zombiefactory.sol\":968:1229  {... */\n      pop\n        /* \"contracts/zombiefactory.sol\":901:1229  function _createZombie(string memory _name, uint256 _dna) internal {... */\n      pop\n      pop\n      jump\t// out\n        /* \"contracts/ownable.sol\":1873:2046  function _transferOwnership(address newOwner) internal {... */\n    tag_170:\n        /* \"contracts/ownable.sol\":1963:1964  0 */\n      0x00\n        /* \"contracts/ownable.sol\":1943:1965  newOwner != address(0) */\n      0xffffffffffffffffffffffffffffffffffffffff\n      and\n        /* \"contracts/ownable.sol\":1943:1951  newOwner */\n      dup2\n        /* \"contracts/ownable.sol\":1943:1965  newOwner != address(0) */\n      0xffffffffffffffffffffffffffffffffffffffff\n      and\n      sub\n        /* \"contracts/ownable.sol\":1935:1966  require(newOwner != address(0)) */\n      tag_210\n      jumpi\n      revert(0x00, 0x00)\n    tag_210:\n        /* \"contracts/ownable.sol\":2007:2015  newOwner */\n      dup1\n        /* \"contracts/ownable.sol\":1978:2016  OwnershipTransferred(_owner, newOwner) */\n      0xffffffffffffffffffffffffffffffffffffffff\n      and\n        /* \"contracts/ownable.sol\":1999:2005  _owner */\n      0x00\n      0x00\n      swap1\n      sload\n      swap1\n      0x0100\n      exp\n      swap1\n      div\n      0xffffffffffffffffffffffffffffffffffffffff\n      and\n        /* \"contracts/ownable.sol\":1978:2016  OwnershipTransferred(_owner, newOwner) */\n      0xffffffffffffffffffffffffffffffffffffffff\n      and\n      0x8be0079c531659141344cd1fd0a4f28419497f9722a3daafe3b4186f6b6457e0\n      mload(0x40)\n      mload(0x40)\n      dup1\n      swap2\n      sub\n      swap1\n      log3\n        /* \"contracts/ownable.sol\":2032:2040  newOwner */\n      dup1\n        /* \"contracts/ownable.sol\":2023:2029  _owner */\n      0x00\n      0x00\n        /* \"contracts/ownable.sol\":2023:2040  _owner = newOwner */\n      0x0100\n      exp\n      dup2\n      sload\n      dup2\n      0xffffffffffffffffffffffffffffffffffffffff\n      mul\n      not\n      and\n      swap1\n      dup4\n      0xffffffffffffffffffffffffffffffffffffffff\n      and\n      mul\n      or\n      swap1\n      sstore\n      pop\n        /* \"contracts/ownable.sol\":1873:2046  function _transferOwnership(address newOwner) internal {... */\n      pop\n      jump\t// out\n        /* \"contracts/zombiefeeding.sol\":856:988  function _isReady(Zombie storage _zombie) internal view returns(bool) {... */\n    tag_179:\n        /* \"contracts/zombiefeeding.sol\":920:924  bool */\n      0x00\n        /* \"contracts/zombiefeeding.sol\":965:980  block.timestamp */\n      timestamp\n        /* \"contracts/zombiefeeding.sol\":944:951  _zombie */\n      dup3\n        /* \"contracts/zombiefeeding.sol\":944:961  _zombie.readyTime */\n      0x02\n      add\n      0x04\n      swap1\n      sload\n      swap1\n      0x0100\n      exp\n      swap1\n      div\n      0xffffffff\n      and\n        /* \"contracts/zombiefeeding.sol\":944:980  _zombie.readyTime <= block.timestamp */\n      0xffffffff\n      and\n      gt\n      iszero\n        /* \"contracts/zombiefeeding.sol\":937:980  return _zombie.readyTime <= block.timestamp */\n      swap1\n      pop\n        /* \"contracts/zombiefeeding.sol\":856:988  function _isReady(Zombie storage _zombie) internal view returns(bool) {... */\n      swap2\n      swap1\n      pop\n      jump\t// out\n        /* \"contracts/zombiefeeding.sol\":713:848  function _triggerCooldown(Zombie storage _zombie) private {... */\n    tag_196:\n        /* \"contracts/zombiefeeding.sol\":827:839  cooldownTime */\n      sload(0x03)\n        /* \"contracts/zombiefeeding.sol\":809:824  block.timestamp */\n      timestamp\n        /* \"contracts/zombiefeeding.sol\":809:839  block.timestamp + cooldownTime */\n      tag_213\n      swap2\n      swap1\n      tag_182\n      jump\t// in\n    tag_213:\n        /* \"contracts/zombiefeeding.sol\":782:789  _zombie */\n      dup2\n        /* \"contracts/zombiefeeding.sol\":782:799  _zombie.readyTime */\n      0x02\n      add\n      0x04\n        /* \"contracts/zombiefeeding.sol\":782:840  _zombie.readyTime = uint32(block.timestamp + cooldownTime) */\n      0x0100\n      exp\n      dup2\n      sload\n      dup2\n      0xffffffff\n      mul\n      not\n      and\n      swap1\n      dup4\n      0xffffffff\n      and\n      mul\n      or\n      swap1\n      sstore\n      pop\n        /* \"contracts/zombiefeeding.sol\":713:848  function _triggerCooldown(Zombie storage _zombie) private {... */\n      pop\n      jump\t// out\n        /* \"#utility.yul\":7:82   */\n    tag_214:\n        /* \"#utility.yul\":40:46   */\n      0x00\n        /* \"#utility.yul\":73:75   */\n      0x40\n        /* \"#utility.yul\":67:76   */\n      mload\n        /* \"#utility.yul\":57:76   */\n      swap1\n      pop\n        /* \"#utility.yul\":7:82   */\n      swap1\n      jump\t// out\n        /* \"#utility.yul\":88:205   */\n    tag_215:\n        /* \"#utility.yul\":197:198   */\n      0x00\n        /* \"#utility.yul\":194:195   */\n      0x00\n        /* \"#utility.yul\":187:199   */\n      revert\n        /* \"#utility.yul\":211:328   */\n    tag_216:\n        /* \"#utility.yul\":320:321   */\n      0x00\n        /* \"#utility.yul\":317:318   */\n      0x00\n        /* \"#utility.yul\":310:322   */\n      revert\n        /* \"#utility.yul\":334:411   */\n    tag_217:\n        /* \"#utility.yul\":371:378   */\n      0x00\n        /* \"#utility.yul\":400:405   */\n      dup2\n        /* \"#utility.yul\":389:405   */\n      swap1\n      pop\n        /* \"#utility.yul\":334:411   */\n      swap2\n      swap1\n      pop\n      jump\t// out\n        /* \"#utility.yul\":417:539   */\n    tag_218:\n        /* \"#utility.yul\":490:514   */\n      tag_285\n        /* \"#utility.yul\":508:513   */\n      dup2\n        /* \"#utility.yul\":490:514   */\n      tag_217\n      jump\t// in\n    tag_285:\n        /* \"#utility.yul\":483:488   */\n      dup2\n        /* \"#utility.yul\":480:515   */\n      eq\n        /* \"#utility.yul\":470:533   */\n      tag_286\n      jumpi\n        /* \"#utility.yul\":529:530   */\n      0x00\n        /* \"#utility.yul\":526:527   */\n      0x00\n        /* \"#utility.yul\":519:531   */\n      revert\n        /* \"#utility.yul\":470:533   */\n    tag_286:\n        /* \"#utility.yul\":417:539   */\n      pop\n      jump\t// out\n        /* \"#utility.yul\":545:684   */\n    tag_219:\n        /* \"#utility.yul\":591:596   */\n      0x00\n        /* \"#utility.yul\":629:635   */\n      dup2\n        /* \"#utility.yul\":616:636   */\n      calldataload\n        /* \"#utility.yul\":607:636   */\n      swap1\n      pop\n        /* \"#utility.yul\":645:678   */\n      tag_288\n        /* \"#utility.yul\":672:677   */\n      dup2\n        /* \"#utility.yul\":645:678   */\n      tag_218\n      jump\t// in\n    tag_288:\n        /* \"#utility.yul\":545:684   */\n      swap3\n      swap2\n      pop\n      pop\n      jump\t// out\n        /* \"#utility.yul\":690:1019   */\n    tag_21:\n        /* \"#utility.yul\":749:755   */\n      0x00\n        /* \"#utility.yul\":798:800   */\n      0x20\n        /* \"#utility.yul\":786:795   */\n      dup3\n        /* \"#utility.yul\":777:784   */\n      dup5\n        /* \"#utility.yul\":773:796   */\n      sub\n        /* \"#utility.yul\":769:801   */\n      slt\n        /* \"#utility.yul\":766:885   */\n      iszero\n      tag_290\n      jumpi\n        /* \"#utility.yul\":804:883   */\n      tag_291\n      tag_215\n      jump\t// in\n    tag_291:\n        /* \"#utility.yul\":766:885   */\n    tag_290:\n        /* \"#utility.yul\":924:925   */\n      0x00\n        /* \"#utility.yul\":949:1002   */\n      tag_292\n        /* \"#utility.yul\":994:1001   */\n      dup5\n        /* \"#utility.yul\":985:991   */\n      dup3\n        /* \"#utility.yul\":974:983   */\n      dup6\n        /* \"#utility.yul\":970:992   */\n      add\n        /* \"#utility.yul\":949:1002   */\n      tag_219\n      jump\t// in\n    tag_292:\n        /* \"#utility.yul\":939:1002   */\n      swap2\n      pop\n        /* \"#utility.yul\":895:1012   */\n      pop\n        /* \"#utility.yul\":690:1019   */\n      swap3\n      swap2\n      pop\n      pop\n      jump\t// out\n        /* \"#utility.yul\":1025:1124   */\n    tag_220:\n        /* \"#utility.yul\":1077:1083   */\n      0x00\n        /* \"#utility.yul\":1111:1116   */\n      dup2\n        /* \"#utility.yul\":1105:1117   */\n      mload\n        /* \"#utility.yul\":1095:1117   */\n      swap1\n      pop\n        /* \"#utility.yul\":1025:1124   */\n      swap2\n      swap1\n      pop\n      jump\t// out\n        /* \"#utility.yul\":1130:1299   */\n    tag_221:\n        /* \"#utility.yul\":1214:1225   */\n      0x00\n        /* \"#utility.yul\":1248:1254   */\n      dup3\n        /* \"#utility.yul\":1243:1246   */\n      dup3\n        /* \"#utility.yul\":1236:1255   */\n      mstore\n        /* \"#utility.yul\":1288:1292   */\n      0x20\n        /* \"#utility.yul\":1283:1286   */\n      dup3\n        /* \"#utility.yul\":1279:1293   */\n      add\n        /* \"#utility.yul\":1264:1293   */\n      swap1\n      pop\n        /* \"#utility.yul\":1130:1299   */\n      swap3\n      swap2\n      pop\n      pop\n      jump\t// out\n        /* \"#utility.yul\":1305:1444   */\n    tag_222:\n        /* \"#utility.yul\":1394:1400   */\n      dup3\n        /* \"#utility.yul\":1389:1392   */\n      dup2\n        /* \"#utility.yul\":1384:1387   */\n      dup4\n        /* \"#utility.yul\":1378:1401   */\n      mcopy\n        /* \"#utility.yul\":1435:1436   */\n      0x00\n        /* \"#utility.yul\":1426:1432   */\n      dup4\n        /* \"#utility.yul\":1421:1424   */\n      dup4\n        /* \"#utility.yul\":1417:1433   */\n      add\n        /* \"#utility.yul\":1410:1437   */\n      mstore\n        /* \"#utility.yul\":1305:1444   */\n      pop\n      pop\n      pop\n      jump\t// out\n        /* \"#utility.yul\":1450:1552   */\n    tag_223:\n        /* \"#utility.yul\":1491:1497   */\n      0x00\n        /* \"#utility.yul\":1542:1544   */\n      0x1f\n        /* \"#utility.yul\":1538:1545   */\n      not\n        /* \"#utility.yul\":1533:1535   */\n      0x1f\n        /* \"#utility.yul\":1526:1531   */\n      dup4\n        /* \"#utility.yul\":1522:1536   */\n      add\n        /* \"#utility.yul\":1518:1546   */\n      and\n        /* \"#utility.yul\":1508:1546   */\n      swap1\n      pop\n        /* \"#utility.yul\":1450:1552   */\n      swap2\n      swap1\n      pop\n      jump\t// out\n        /* \"#utility.yul\":1558:1935   */\n    tag_224:\n        /* \"#utility.yul\":1646:1649   */\n      0x00\n        /* \"#utility.yul\":1674:1713   */\n      tag_298\n        /* \"#utility.yul\":1707:1712   */\n      dup3\n        /* \"#utility.yul\":1674:1713   */\n      tag_220\n      jump\t// in\n    tag_298:\n        /* \"#utility.yul\":1729:1800   */\n      tag_299\n        /* \"#utility.yul\":1793:1799   */\n      dup2\n        /* \"#utility.yul\":1788:1791   */\n      dup6\n        /* \"#utility.yul\":1729:1800   */\n      tag_221\n      jump\t// in\n    tag_299:\n        /* \"#utility.yul\":1722:1800   */\n      swap4\n      pop\n        /* \"#utility.yul\":1809:1874   */\n      tag_300\n        /* \"#utility.yul\":1867:1873   */\n      dup2\n        /* \"#utility.yul\":1862:1865   */\n      dup6\n        /* \"#utility.yul\":1855:1859   */\n      0x20\n        /* \"#utility.yul\":1848:1853   */\n      dup7\n        /* \"#utility.yul\":1844:1860   */\n      add\n        /* \"#utility.yul\":1809:1874   */\n      tag_222\n      jump\t// in\n    tag_300:\n        /* \"#utility.yul\":1899:1928   */\n      tag_301\n        /* \"#utility.yul\":1921:1927   */\n      dup2\n        /* \"#utility.yul\":1899:1928   */\n      tag_223\n      jump\t// in\n    tag_301:\n        /* \"#utility.yul\":1894:1897   */\n      dup5\n        /* \"#utility.yul\":1890:1929   */\n      add\n        /* \"#utility.yul\":1883:1929   */\n      swap2\n      pop\n        /* \"#utility.yul\":1650:1935   */\n      pop\n        /* \"#utility.yul\":1558:1935   */\n      swap3\n      swap2\n      pop\n      pop\n      jump\t// out\n        /* \"#utility.yul\":1941:2059   */\n    tag_225:\n        /* \"#utility.yul\":2028:2052   */\n      tag_303\n        /* \"#utility.yul\":2046:2051   */\n      dup2\n        /* \"#utility.yul\":2028:2052   */\n      tag_217\n      jump\t// in\n    tag_303:\n        /* \"#utility.yul\":2023:2026   */\n      dup3\n        /* \"#utility.yul\":2016:2053   */\n      mstore\n        /* \"#utility.yul\":1941:2059   */\n      pop\n      pop\n      jump\t// out\n        /* \"#utility.yul\":2065:2158   */\n    tag_226:\n        /* \"#utility.yul\":2101:2108   */\n      0x00\n        /* \"#utility.yul\":2141:2151   */\n      0xffffffff\n        /* \"#utility.yul\":2134:2139   */\n      dup3\n        /* \"#utility.yul\":2130:2152   */\n      and\n        /* \"#utility.yul\":2119:2152   */\n      swap1\n      pop\n        /* \"#utility.yul\":2065:2158   */\n      swap2\n      swap1\n      pop\n      jump\t// out\n        /* \"#utility.yul\":2164:2279   */\n    tag_227:\n        /* \"#utility.yul\":2249:2272   */\n      tag_306\n        /* \"#utility.yul\":2266:2271   */\n      dup2\n        /* \"#utility.yul\":2249:2272   */\n      tag_226\n      jump\t// in\n    tag_306:\n        /* \"#utility.yul\":2244:2247   */\n      dup3\n        /* \"#utility.yul\":2237:2273   */\n      mstore\n        /* \"#utility.yul\":2164:2279   */\n      pop\n      pop\n      jump\t// out\n        /* \"#utility.yul\":2285:2921   */\n    tag_28:\n        /* \"#utility.yul\":2478:2482   */\n      0x00\n        /* \"#utility.yul\":2516:2519   */\n      0x80\n        /* \"#utility.yul\":2505:2514   */\n      dup3\n        /* \"#utility.yul\":2501:2520   */\n      add\n        /* \"#utility.yul\":2493:2520   */\n      swap1\n      pop\n        /* \"#utility.yul\":2566:2575   */\n      dup2\n        /* \"#utility.yul\":2560:2564   */\n      dup2\n        /* \"#utility.yul\":2556:2576   */\n      sub\n        /* \"#utility.yul\":2552:2553   */\n      0x00\n        /* \"#utility.yul\":2541:2550   */\n      dup4\n        /* \"#utility.yul\":2537:2554   */\n      add\n        /* \"#utility.yul\":2530:2577   */\n      mstore\n        /* \"#utility.yul\":2594:2672   */\n      tag_308\n        /* \"#utility.yul\":2667:2671   */\n      dup2\n        /* \"#utility.yul\":2658:2664   */\n      dup8\n        /* \"#utility.yul\":2594:2672   */\n      tag_224\n      jump\t// in\n    tag_308:\n        /* \"#utility.yul\":2586:2672   */\n      swap1\n      pop\n        /* \"#utility.yul\":2682:2754   */\n      tag_309\n        /* \"#utility.yul\":2750:2752   */\n      0x20\n        /* \"#utility.yul\":2739:2748   */\n      dup4\n        /* \"#utility.yul\":2735:2753   */\n      add\n        /* \"#utility.yul\":2726:2732   */\n      dup7\n        /* \"#utility.yul\":2682:2754   */\n      tag_225\n      jump\t// in\n    tag_309:\n        /* \"#utility.yul\":2764:2834   */\n      tag_310\n        /* \"#utility.yul\":2830:2832   */\n      0x40\n        /* \"#utility.yul\":2819:2828   */\n      dup4\n        /* \"#utility.yul\":2815:2833   */\n      add\n        /* \"#utility.yul\":2806:2812   */\n      dup6\n        /* \"#utility.yul\":2764:2834   */\n      tag_227\n      jump\t// in\n    tag_310:\n        /* \"#utility.yul\":2844:2914   */\n      tag_311\n        /* \"#utility.yul\":2910:2912   */\n      0x60\n        /* \"#utility.yul\":2899:2908   */\n      dup4\n        /* \"#utility.yul\":2895:2913   */\n      add\n        /* \"#utility.yul\":2886:2892   */\n      dup5\n        /* \"#utility.yul\":2844:2914   */\n      tag_227\n      jump\t// in\n    tag_311:\n        /* \"#utility.yul\":2285:2921   */\n      swap6\n      swap5\n      pop\n      pop\n      pop\n      pop\n      pop\n      jump\t// out\n        /* \"#utility.yul\":2927:3053   */\n    tag_228:\n        /* \"#utility.yul\":2964:2971   */\n      0x00\n        /* \"#utility.yul\":3004:3046   */\n      0xffffffffffffffffffffffffffffffffffffffff\n        /* \"#utility.yul\":2997:3002   */\n      dup3\n        /* \"#utility.yul\":2993:3047   */\n      and\n        /* \"#utility.yul\":2982:3047   */\n      swap1\n      pop\n        /* \"#utility.yul\":2927:3053   */\n      swap2\n      swap1\n      pop\n      jump\t// out\n        /* \"#utility.yul\":3059:3155   */\n    tag_229:\n        /* \"#utility.yul\":3096:3103   */\n      0x00\n        /* \"#utility.yul\":3125:3149   */\n      tag_314\n        /* \"#utility.yul\":3143:3148   */\n      dup3\n        /* \"#utility.yul\":3125:3149   */\n      tag_228\n      jump\t// in\n    tag_314:\n        /* \"#utility.yul\":3114:3149   */\n      swap1\n      pop\n        /* \"#utility.yul\":3059:3155   */\n      swap2\n      swap1\n      pop\n      jump\t// out\n        /* \"#utility.yul\":3161:3283   */\n    tag_230:\n        /* \"#utility.yul\":3234:3258   */\n      tag_316\n        /* \"#utility.yul\":3252:3257   */\n      dup2\n        /* \"#utility.yul\":3234:3258   */\n      tag_229\n      jump\t// in\n    tag_316:\n        /* \"#utility.yul\":3227:3232   */\n      dup2\n        /* \"#utility.yul\":3224:3259   */\n      eq\n        /* \"#utility.yul\":3214:3277   */\n      tag_317\n      jumpi\n        /* \"#utility.yul\":3273:3274   */\n      0x00\n        /* \"#utility.yul\":3270:3271   */\n      0x00\n        /* \"#utility.yul\":3263:3275   */\n      revert\n        /* \"#utility.yul\":3214:3277   */\n    tag_317:\n        /* \"#utility.yul\":3161:3283   */\n      pop\n      jump\t// out\n        /* \"#utility.yul\":3289:3428   */\n    tag_231:\n        /* \"#utility.yul\":3335:3340   */\n      0x00\n        /* \"#utility.yul\":3373:3379   */\n      dup2\n        /* \"#utility.yul\":3360:3380   */\n      calldataload\n        /* \"#utility.yul\":3351:3380   */\n      swap1\n      pop\n        /* \"#utility.yul\":3389:3422   */\n      tag_319\n        /* \"#utility.yul\":3416:3421   */\n      dup2\n        /* \"#utility.yul\":3389:3422   */\n      tag_230\n      jump\t// in\n    tag_319:\n        /* \"#utility.yul\":3289:3428   */\n      swap3\n      swap2\n      pop\n      pop\n      jump\t// out\n        /* \"#utility.yul\":3434:3763   */\n    tag_34:\n        /* \"#utility.yul\":3493:3499   */\n      0x00\n        /* \"#utility.yul\":3542:3544   */\n      0x20\n        /* \"#utility.yul\":3530:3539   */\n      dup3\n        /* \"#utility.yul\":3521:3528   */\n      dup5\n        /* \"#utility.yul\":3517:3540   */\n      sub\n        /* \"#utility.yul\":3513:3545   */\n      slt\n        /* \"#utility.yul\":3510:3629   */\n      iszero\n      tag_321\n      jumpi\n        /* \"#utility.yul\":3548:3627   */\n      tag_322\n      tag_215\n      jump\t// in\n    tag_322:\n        /* \"#utility.yul\":3510:3629   */\n    tag_321:\n        /* \"#utility.yul\":3668:3669   */\n      0x00\n        /* \"#utility.yul\":3693:3746   */\n      tag_323\n        /* \"#utility.yul\":3738:3745   */\n      dup5\n        /* \"#utility.yul\":3729:3735   */\n      dup3\n        /* \"#utility.yul\":3718:3727   */\n      dup6\n        /* \"#utility.yul\":3714:3736   */\n      add\n        /* \"#utility.yul\":3693:3746   */\n      tag_231\n      jump\t// in\n    tag_323:\n        /* \"#utility.yul\":3683:3746   */\n      swap2\n      pop\n        /* \"#utility.yul\":3639:3756   */\n      pop\n        /* \"#utility.yul\":3434:3763   */\n      swap3\n      swap2\n      pop\n      pop\n      jump\t// out\n        /* \"#utility.yul\":3769:4243   */\n    tag_39:\n        /* \"#utility.yul\":3837:3843   */\n      0x00\n        /* \"#utility.yul\":3845:3851   */\n      0x00\n        /* \"#utility.yul\":3894:3896   */\n      0x40\n        /* \"#utility.yul\":3882:3891   */\n      dup4\n        /* \"#utility.yul\":3873:3880   */\n      dup6\n        /* \"#utility.yul\":3869:3892   */\n      sub\n        /* \"#utility.yul\":3865:3897   */\n      slt\n        /* \"#utility.yul\":3862:3981   */\n      iszero\n      tag_325\n      jumpi\n        /* \"#utility.yul\":3900:3979   */\n      tag_326\n      tag_215\n      jump\t// in\n    tag_326:\n        /* \"#utility.yul\":3862:3981   */\n    tag_325:\n        /* \"#utility.yul\":4020:4021   */\n      0x00\n        /* \"#utility.yul\":4045:4098   */\n      tag_327\n        /* \"#utility.yul\":4090:4097   */\n      dup6\n        /* \"#utility.yul\":4081:4087   */\n      dup3\n        /* \"#utility.yul\":4070:4079   */\n      dup7\n        /* \"#utility.yul\":4066:4088   */\n      add\n        /* \"#utility.yul\":4045:4098   */\n      tag_219\n      jump\t// in\n    tag_327:\n        /* \"#utility.yul\":4035:4098   */\n      swap3\n      pop\n        /* \"#utility.yul\":3991:4108   */\n      pop\n        /* \"#utility.yul\":4147:4149   */\n      0x20\n        /* \"#utility.yul\":4173:4226   */\n      tag_328\n        /* \"#utility.yul\":4218:4225   */\n      dup6\n        /* \"#utility.yul\":4209:4215   */\n      dup3\n        /* \"#utility.yul\":4198:4207   */\n      dup7\n        /* \"#utility.yul\":4194:4216   */\n      add\n        /* \"#utility.yul\":4173:4226   */\n      tag_219\n      jump\t// in\n    tag_328:\n        /* \"#utility.yul\":4163:4226   */\n      swap2\n      pop\n        /* \"#utility.yul\":4118:4236   */\n      pop\n        /* \"#utility.yul\":3769:4243   */\n      swap3\n      pop\n      swap3\n      swap1\n      pop\n      jump\t// out\n        /* \"#utility.yul\":4249:4367   */\n    tag_232:\n        /* \"#utility.yul\":4336:4360   */\n      tag_330\n        /* \"#utility.yul\":4354:4359   */\n      dup2\n        /* \"#utility.yul\":4336:4360   */\n      tag_229\n      jump\t// in\n    tag_330:\n        /* \"#utility.yul\":4331:4334   */\n      dup3\n        /* \"#utility.yul\":4324:4361   */\n      mstore\n        /* \"#utility.yul\":4249:4367   */\n      pop\n      pop\n      jump\t// out\n        /* \"#utility.yul\":4373:4595   */\n    tag_48:\n        /* \"#utility.yul\":4466:4470   */\n      0x00\n        /* \"#utility.yul\":4504:4506   */\n      0x20\n        /* \"#utility.yul\":4493:4502   */\n      dup3\n        /* \"#utility.yul\":4489:4507   */\n      add\n        /* \"#utility.yul\":4481:4507   */\n      swap1\n      pop\n        /* \"#utility.yul\":4517:4588   */\n      tag_332\n        /* \"#utility.yul\":4585:4586   */\n      0x00\n        /* \"#utility.yul\":4574:4583   */\n      dup4\n        /* \"#utility.yul\":4570:4587   */\n      add\n        /* \"#utility.yul\":4561:4567   */\n      dup5\n        /* \"#utility.yul\":4517:4588   */\n      tag_232\n      jump\t// in\n    tag_332:\n        /* \"#utility.yul\":4373:4595   */\n      swap3\n      swap2\n      pop\n      pop\n      jump\t// out\n        /* \"#utility.yul\":4601:4691   */\n    tag_233:\n        /* \"#utility.yul\":4635:4642   */\n      0x00\n        /* \"#utility.yul\":4678:4683   */\n      dup2\n        /* \"#utility.yul\":4671:4684   */\n      iszero\n        /* \"#utility.yul\":4664:4685   */\n      iszero\n        /* \"#utility.yul\":4653:4685   */\n      swap1\n      pop\n        /* \"#utility.yul\":4601:4691   */\n      swap2\n      swap1\n      pop\n      jump\t// out\n        /* \"#utility.yul\":4697:4806   */\n    tag_234:\n        /* \"#utility.yul\":4778:4799   */\n      tag_335\n        /* \"#utility.yul\":4793:4798   */\n      dup2\n        /* \"#utility.yul\":4778:4799   */\n      tag_233\n      jump\t// in\n    tag_335:\n        /* \"#utility.yul\":4773:4776   */\n      dup3\n        /* \"#utility.yul\":4766:4800   */\n      mstore\n        /* \"#utility.yul\":4697:4806   */\n      pop\n      pop\n      jump\t// out\n        /* \"#utility.yul\":4812:5022   */\n    tag_53:\n        /* \"#utility.yul\":4899:4903   */\n      0x00\n        /* \"#utility.yul\":4937:4939   */\n      0x20\n        /* \"#utility.yul\":4926:4935   */\n      dup3\n        /* \"#utility.yul\":4922:4940   */\n      add\n        /* \"#utility.yul\":4914:4940   */\n      swap1\n      pop\n        /* \"#utility.yul\":4950:5015   */\n      tag_337\n        /* \"#utility.yul\":5012:5013   */\n      0x00\n        /* \"#utility.yul\":5001:5010   */\n      dup4\n        /* \"#utility.yul\":4997:5014   */\n      add\n        /* \"#utility.yul\":4988:4994   */\n      dup5\n        /* \"#utility.yul\":4950:5015   */\n      tag_234\n      jump\t// in\n    tag_337:\n        /* \"#utility.yul\":4812:5022   */\n      swap3\n      swap2\n      pop\n      pop\n      jump\t// out\n        /* \"#utility.yul\":5028:5142   */\n    tag_235:\n        /* \"#utility.yul\":5095:5101   */\n      0x00\n        /* \"#utility.yul\":5129:5134   */\n      dup2\n        /* \"#utility.yul\":5123:5135   */\n      mload\n        /* \"#utility.yul\":5113:5135   */\n      swap1\n      pop\n        /* \"#utility.yul\":5028:5142   */\n      swap2\n      swap1\n      pop\n      jump\t// out\n        /* \"#utility.yul\":5148:5332   */\n    tag_236:\n        /* \"#utility.yul\":5247:5258   */\n      0x00\n        /* \"#utility.yul\":5281:5287   */\n      dup3\n        /* \"#utility.yul\":5276:5279   */\n      dup3\n        /* \"#utility.yul\":5269:5288   */\n      mstore\n        /* \"#utility.yul\":5321:5325   */\n      0x20\n        /* \"#utility.yul\":5316:5319   */\n      dup3\n        /* \"#utility.yul\":5312:5326   */\n      add\n        /* \"#utility.yul\":5297:5326   */\n      swap1\n      pop\n        /* \"#utility.yul\":5148:5332   */\n      swap3\n      swap2\n      pop\n      pop\n      jump\t// out\n        /* \"#utility.yul\":5338:5470   */\n    tag_237:\n        /* \"#utility.yul\":5405:5409   */\n      0x00\n        /* \"#utility.yul\":5428:5431   */\n      dup2\n        /* \"#utility.yul\":5420:5431   */\n      swap1\n      pop\n        /* \"#utility.yul\":5458:5462   */\n      0x20\n        /* \"#utility.yul\":5453:5456   */\n      dup3\n        /* \"#utility.yul\":5449:5463   */\n      add\n        /* \"#utility.yul\":5441:5463   */\n      swap1\n      pop\n        /* \"#utility.yul\":5338:5470   */\n      swap2\n      swap1\n      pop\n      jump\t// out\n        /* \"#utility.yul\":5476:5584   */\n    tag_238:\n        /* \"#utility.yul\":5553:5577   */\n      tag_342\n        /* \"#utility.yul\":5571:5576   */\n      dup2\n        /* \"#utility.yul\":5553:5577   */\n      tag_217\n      jump\t// in\n    tag_342:\n        /* \"#utility.yul\":5548:5551   */\n      dup3\n        /* \"#utility.yul\":5541:5578   */\n      mstore\n        /* \"#utility.yul\":5476:5584   */\n      pop\n      pop\n      jump\t// out\n        /* \"#utility.yul\":5590:5769   */\n    tag_239:\n        /* \"#utility.yul\":5659:5669   */\n      0x00\n        /* \"#utility.yul\":5680:5726   */\n      tag_344\n        /* \"#utility.yul\":5722:5725   */\n      dup4\n        /* \"#utility.yul\":5714:5720   */\n      dup4\n        /* \"#utility.yul\":5680:5726   */\n      tag_238\n      jump\t// in\n    tag_344:\n        /* \"#utility.yul\":5758:5762   */\n      0x20\n        /* \"#utility.yul\":5753:5756   */\n      dup4\n        /* \"#utility.yul\":5749:5763   */\n      add\n        /* \"#utility.yul\":5735:5763   */\n      swap1\n      pop\n        /* \"#utility.yul\":5590:5769   */\n      swap3\n      swap2\n      pop\n      pop\n      jump\t// out\n        /* \"#utility.yul\":5775:5888   */\n    tag_240:\n        /* \"#utility.yul\":5845:5849   */\n      0x00\n        /* \"#utility.yul\":5877:5881   */\n      0x20\n        /* \"#utility.yul\":5872:5875   */\n      dup3\n        /* \"#utility.yul\":5868:5882   */\n      add\n        /* \"#utility.yul\":5860:5882   */\n      swap1\n      pop\n        /* \"#utility.yul\":5775:5888   */\n      swap2\n      swap1\n      pop\n      jump\t// out\n        /* \"#utility.yul\":5924:6656   */\n    tag_241:\n        /* \"#utility.yul\":6043:6046   */\n      0x00\n        /* \"#utility.yul\":6072:6126   */\n      tag_347\n        /* \"#utility.yul\":6120:6125   */\n      dup3\n        /* \"#utility.yul\":6072:6126   */\n      tag_235\n      jump\t// in\n    tag_347:\n        /* \"#utility.yul\":6142:6228   */\n      tag_348\n        /* \"#utility.yul\":6221:6227   */\n      dup2\n        /* \"#utility.yul\":6216:6219   */\n      dup6\n        /* \"#utility.yul\":6142:6228   */\n      tag_236\n      jump\t// in\n    tag_348:\n        /* \"#utility.yul\":6135:6228   */\n      swap4\n      pop\n        /* \"#utility.yul\":6252:6308   */\n      tag_349\n        /* \"#utility.yul\":6302:6307   */\n      dup4\n        /* \"#utility.yul\":6252:6308   */\n      tag_237\n      jump\t// in\n    tag_349:\n        /* \"#utility.yul\":6331:6338   */\n      dup1\n        /* \"#utility.yul\":6362:6363   */\n      0x00\n        /* \"#utility.yul\":6347:6631   */\n    tag_350:\n        /* \"#utility.yul\":6372:6378   */\n      dup4\n        /* \"#utility.yul\":6369:6370   */\n      dup2\n        /* \"#utility.yul\":6366:6379   */\n      lt\n        /* \"#utility.yul\":6347:6631   */\n      iszero\n      tag_352\n      jumpi\n        /* \"#utility.yul\":6448:6454   */\n      dup2\n        /* \"#utility.yul\":6442:6455   */\n      mload\n        /* \"#utility.yul\":6475:6538   */\n      tag_353\n        /* \"#utility.yul\":6534:6537   */\n      dup9\n        /* \"#utility.yul\":6519:6532   */\n      dup3\n        /* \"#utility.yul\":6475:6538   */\n      tag_239\n      jump\t// in\n    tag_353:\n        /* \"#utility.yul\":6468:6538   */\n      swap8\n      pop\n        /* \"#utility.yul\":6561:6621   */\n      tag_354\n        /* \"#utility.yul\":6614:6620   */\n      dup4\n        /* \"#utility.yul\":6561:6621   */\n      tag_240\n      jump\t// in\n    tag_354:\n        /* \"#utility.yul\":6551:6621   */\n      swap3\n      pop\n        /* \"#utility.yul\":6407:6631   */\n      pop\n        /* \"#utility.yul\":6394:6395   */\n      0x01\n        /* \"#utility.yul\":6391:6392   */\n      dup2\n        /* \"#utility.yul\":6387:6396   */\n      add\n        /* \"#utility.yul\":6382:6396   */\n      swap1\n      pop\n        /* \"#utility.yul\":6347:6631   */\n      jump(tag_350)\n    tag_352:\n        /* \"#utility.yul\":6351:6365   */\n      pop\n        /* \"#utility.yul\":6647:6650   */\n      dup6\n        /* \"#utility.yul\":6640:6650   */\n      swap4\n      pop\n        /* \"#utility.yul\":6048:6656   */\n      pop\n      pop\n      pop\n        /* \"#utility.yul\":5924:6656   */\n      swap3\n      swap2\n      pop\n      pop\n      jump\t// out\n        /* \"#utility.yul\":6662:7035   */\n    tag_59:\n        /* \"#utility.yul\":6805:6809   */\n      0x00\n        /* \"#utility.yul\":6843:6845   */\n      0x20\n        /* \"#utility.yul\":6832:6841   */\n      dup3\n        /* \"#utility.yul\":6828:6846   */\n      add\n        /* \"#utility.yul\":6820:6846   */\n      swap1\n      pop\n        /* \"#utility.yul\":6892:6901   */\n      dup2\n        /* \"#utility.yul\":6886:6890   */\n      dup2\n        /* \"#utility.yul\":6882:6902   */\n      sub\n        /* \"#utility.yul\":6878:6879   */\n      0x00\n        /* \"#utility.yul\":6867:6876   */\n      dup4\n        /* \"#utility.yul\":6863:6880   */\n      add\n        /* \"#utility.yul\":6856:6903   */\n      mstore\n        /* \"#utility.yul\":6920:7028   */\n      tag_356\n        /* \"#utility.yul\":7023:7027   */\n      dup2\n        /* \"#utility.yul\":7014:7020   */\n      dup5\n        /* \"#utility.yul\":6920:7028   */\n      tag_241\n      jump\t// in\n    tag_356:\n        /* \"#utility.yul\":6912:7028   */\n      swap1\n      pop\n        /* \"#utility.yul\":6662:7035   */\n      swap3\n      swap2\n      pop\n      pop\n      jump\t// out\n        /* \"#utility.yul\":7041:7158   */\n    tag_242:\n        /* \"#utility.yul\":7150:7151   */\n      0x00\n        /* \"#utility.yul\":7147:7148   */\n      0x00\n        /* \"#utility.yul\":7140:7152   */\n      revert\n        /* \"#utility.yul\":7164:7281   */\n    tag_243:\n        /* \"#utility.yul\":7273:7274   */\n      0x00\n        /* \"#utility.yul\":7270:7271   */\n      0x00\n        /* \"#utility.yul\":7263:7275   */\n      revert\n        /* \"#utility.yul\":7287:7467   */\n    tag_125:\n        /* \"#utility.yul\":7335:7412   */\n      0x4e487b7100000000000000000000000000000000000000000000000000000000\n        /* \"#utility.yul\":7332:7333   */\n      0x00\n        /* \"#utility.yul\":7325:7413   */\n      mstore\n        /* \"#utility.yul\":7432:7436   */\n      0x41\n        /* \"#utility.yul\":7429:7430   */\n      0x04\n        /* \"#utility.yul\":7422:7437   */\n      mstore\n        /* \"#utility.yul\":7456:7460   */\n      0x24\n        /* \"#utility.yul\":7453:7454   */\n      0x00\n        /* \"#utility.yul\":7446:7461   */\n      revert\n        /* \"#utility.yul\":7473:7754   */\n    tag_244:\n        /* \"#utility.yul\":7556:7583   */\n      tag_361\n        /* \"#utility.yul\":7578:7582   */\n      dup3\n        /* \"#utility.yul\":7556:7583   */\n      tag_223\n      jump\t// in\n    tag_361:\n        /* \"#utility.yul\":7548:7554   */\n      dup2\n        /* \"#utility.yul\":7544:7584   */\n      add\n        /* \"#utility.yul\":7686:7692   */\n      dup2\n        /* \"#utility.yul\":7674:7684   */\n      dup2\n        /* \"#utility.yul\":7671:7693   */\n      lt\n        /* \"#utility.yul\":7650:7668   */\n      0xffffffffffffffff\n        /* \"#utility.yul\":7638:7648   */\n      dup3\n        /* \"#utility.yul\":7635:7669   */\n      gt\n        /* \"#utility.yul\":7632:7694   */\n      or\n        /* \"#utility.yul\":7629:7717   */\n      iszero\n      tag_362\n      jumpi\n        /* \"#utility.yul\":7697:7715   */\n      tag_363\n      tag_125\n      jump\t// in\n    tag_363:\n        /* \"#utility.yul\":7629:7717   */\n    tag_362:\n        /* \"#utility.yul\":7737:7747   */\n      dup1\n        /* \"#utility.yul\":7733:7735   */\n      0x40\n        /* \"#utility.yul\":7726:7748   */\n      mstore\n        /* \"#utility.yul\":7516:7754   */\n      pop\n        /* \"#utility.yul\":7473:7754   */\n      pop\n      pop\n      jump\t// out\n        /* \"#utility.yul\":7760:7889   */\n    tag_245:\n        /* \"#utility.yul\":7794:7800   */\n      0x00\n        /* \"#utility.yul\":7821:7841   */\n      tag_365\n      tag_214\n      jump\t// in\n    tag_365:\n        /* \"#utility.yul\":7811:7841   */\n      swap1\n      pop\n        /* \"#utility.yul\":7850:7883   */\n      tag_366\n        /* \"#utility.yul\":7878:7882   */\n      dup3\n        /* \"#utility.yul\":7870:7876   */\n      dup3\n        /* \"#utility.yul\":7850:7883   */\n      tag_244\n      jump\t// in\n    tag_366:\n        /* \"#utility.yul\":7760:7889   */\n      swap2\n      swap1\n      pop\n      jump\t// out\n        /* \"#utility.yul\":7895:8203   */\n    tag_246:\n        /* \"#utility.yul\":7957:7961   */\n      0x00\n        /* \"#utility.yul\":8047:8065   */\n      0xffffffffffffffff\n        /* \"#utility.yul\":8039:8045   */\n      dup3\n        /* \"#utility.yul\":8036:8066   */\n      gt\n        /* \"#utility.yul\":8033:8089   */\n      iszero\n      tag_368\n      jumpi\n        /* \"#utility.yul\":8069:8087   */\n      tag_369\n      tag_125\n      jump\t// in\n    tag_369:\n        /* \"#utility.yul\":8033:8089   */\n    tag_368:\n        /* \"#utility.yul\":8107:8136   */\n      tag_370\n        /* \"#utility.yul\":8129:8135   */\n      dup3\n        /* \"#utility.yul\":8107:8136   */\n      tag_223\n      jump\t// in\n    tag_370:\n        /* \"#utility.yul\":8099:8136   */\n      swap1\n      pop\n        /* \"#utility.yul\":8191:8195   */\n      0x20\n        /* \"#utility.yul\":8185:8189   */\n      dup2\n        /* \"#utility.yul\":8181:8196   */\n      add\n        /* \"#utility.yul\":8173:8196   */\n      swap1\n      pop\n        /* \"#utility.yul\":7895:8203   */\n      swap2\n      swap1\n      pop\n      jump\t// out\n        /* \"#utility.yul\":8209:8357   */\n    tag_247:\n        /* \"#utility.yul\":8307:8313   */\n      dup3\n        /* \"#utility.yul\":8302:8305   */\n      dup2\n        /* \"#utility.yul\":8297:8300   */\n      dup4\n        /* \"#utility.yul\":8284:8314   */\n      calldatacopy\n        /* \"#utility.yul\":8348:8349   */\n      0x00\n        /* \"#utility.yul\":8339:8345   */\n      dup4\n        /* \"#utility.yul\":8334:8337   */\n      dup4\n        /* \"#utility.yul\":8330:8346   */\n      add\n        /* \"#utility.yul\":8323:8350   */\n      mstore\n        /* \"#utility.yul\":8209:8357   */\n      pop\n      pop\n      pop\n      jump\t// out\n        /* \"#utility.yul\":8363:8788   */\n    tag_248:\n        /* \"#utility.yul\":8441:8446   */\n      0x00\n        /* \"#utility.yul\":8466:8532   */\n      tag_373\n        /* \"#utility.yul\":8482:8531   */\n      tag_374\n        /* \"#utility.yul\":8524:8530   */\n      dup5\n        /* \"#utility.yul\":8482:8531   */\n      tag_246\n      jump\t// in\n    tag_374:\n        /* \"#utility.yul\":8466:8532   */\n      tag_245\n      jump\t// in\n    tag_373:\n        /* \"#utility.yul\":8457:8532   */\n      swap1\n      pop\n        /* \"#utility.yul\":8555:8561   */\n      dup3\n        /* \"#utility.yul\":8548:8553   */\n      dup2\n        /* \"#utility.yul\":8541:8562   */\n      mstore\n        /* \"#utility.yul\":8593:8597   */\n      0x20\n        /* \"#utility.yul\":8586:8591   */\n      dup2\n        /* \"#utility.yul\":8582:8598   */\n      add\n        /* \"#utility.yul\":8631:8634   */\n      dup5\n        /* \"#utility.yul\":8622:8628   */\n      dup5\n        /* \"#utility.yul\":8617:8620   */\n      dup5\n        /* \"#utility.yul\":8613:8629   */\n      add\n        /* \"#utility.yul\":8610:8635   */\n      gt\n        /* \"#utility.yul\":8607:8719   */\n      iszero\n      tag_375\n      jumpi\n        /* \"#utility.yul\":8638:8717   */\n      tag_376\n      tag_243\n      jump\t// in\n    tag_376:\n        /* \"#utility.yul\":8607:8719   */\n    tag_375:\n        /* \"#utility.yul\":8728:8782   */\n      tag_377\n        /* \"#utility.yul\":8775:8781   */\n      dup5\n        /* \"#utility.yul\":8770:8773   */\n      dup3\n        /* \"#utility.yul\":8765:8768   */\n      dup6\n        /* \"#utility.yul\":8728:8782   */\n      tag_247\n      jump\t// in\n    tag_377:\n        /* \"#utility.yul\":8447:8788   */\n      pop\n        /* \"#utility.yul\":8363:8788   */\n      swap4\n      swap3\n      pop\n      pop\n      pop\n      jump\t// out\n        /* \"#utility.yul\":8808:9148   */\n    tag_249:\n        /* \"#utility.yul\":8864:8869   */\n      0x00\n        /* \"#utility.yul\":8913:8916   */\n      dup3\n        /* \"#utility.yul\":8906:8910   */\n      0x1f\n        /* \"#utility.yul\":8898:8904   */\n      dup4\n        /* \"#utility.yul\":8894:8911   */\n      add\n        /* \"#utility.yul\":8890:8917   */\n      slt\n        /* \"#utility.yul\":8880:9002   */\n      tag_379\n      jumpi\n        /* \"#utility.yul\":8921:9000   */\n      tag_380\n      tag_242\n      jump\t// in\n    tag_380:\n        /* \"#utility.yul\":8880:9002   */\n    tag_379:\n        /* \"#utility.yul\":9038:9044   */\n      dup2\n        /* \"#utility.yul\":9025:9045   */\n      calldataload\n        /* \"#utility.yul\":9063:9142   */\n      tag_381\n        /* \"#utility.yul\":9138:9141   */\n      dup5\n        /* \"#utility.yul\":9130:9136   */\n      dup3\n        /* \"#utility.yul\":9123:9127   */\n      0x20\n        /* \"#utility.yul\":9115:9121   */\n      dup7\n        /* \"#utility.yul\":9111:9128   */\n      add\n        /* \"#utility.yul\":9063:9142   */\n      tag_248\n      jump\t// in\n    tag_381:\n        /* \"#utility.yul\":9054:9142   */\n      swap2\n      pop\n        /* \"#utility.yul\":8870:9148   */\n      pop\n        /* \"#utility.yul\":8808:9148   */\n      swap3\n      swap2\n      pop\n      pop\n      jump\t// out\n        /* \"#utility.yul\":9154:9663   */\n    tag_67:\n        /* \"#utility.yul\":9223:9229   */\n      0x00\n        /* \"#utility.yul\":9272:9274   */\n      0x20\n        /* \"#utility.yul\":9260:9269   */\n      dup3\n        /* \"#utility.yul\":9251:9258   */\n      dup5\n        /* \"#utility.yul\":9247:9270   */\n      sub\n        /* \"#utility.yul\":9243:9275   */\n      slt\n        /* \"#utility.yul\":9240:9359   */\n      iszero\n      tag_383\n      jumpi\n        /* \"#utility.yul\":9278:9357   */\n      tag_384\n      tag_215\n      jump\t// in\n    tag_384:\n        /* \"#utility.yul\":9240:9359   */\n    tag_383:\n        /* \"#utility.yul\":9426:9427   */\n      0x00\n        /* \"#utility.yul\":9415:9424   */\n      dup3\n        /* \"#utility.yul\":9411:9428   */\n      add\n        /* \"#utility.yul\":9398:9429   */\n      calldataload\n        /* \"#utility.yul\":9456:9474   */\n      0xffffffffffffffff\n        /* \"#utility.yul\":9448:9454   */\n      dup2\n        /* \"#utility.yul\":9445:9475   */\n      gt\n        /* \"#utility.yul\":9442:9559   */\n      iszero\n      tag_385\n      jumpi\n        /* \"#utility.yul\":9478:9557   */\n      tag_386\n      tag_216\n      jump\t// in\n    tag_386:\n        /* \"#utility.yul\":9442:9559   */\n    tag_385:\n        /* \"#utility.yul\":9583:9646   */\n      tag_387\n        /* \"#utility.yul\":9638:9645   */\n      dup5\n        /* \"#utility.yul\":9629:9635   */\n      dup3\n        /* \"#utility.yul\":9618:9627   */\n      dup6\n        /* \"#utility.yul\":9614:9636   */\n      add\n        /* \"#utility.yul\":9583:9646   */\n      tag_249\n      jump\t// in\n    tag_387:\n        /* \"#utility.yul\":9573:9646   */\n      swap2\n      pop\n        /* \"#utility.yul\":9369:9656   */\n      pop\n        /* \"#utility.yul\":9154:9663   */\n      swap3\n      swap2\n      pop\n      pop\n      jump\t// out\n        /* \"#utility.yul\":9669:9786   */\n    tag_250:\n        /* \"#utility.yul\":9778:9779   */\n      0x00\n        /* \"#utility.yul\":9775:9776   */\n      0x00\n        /* \"#utility.yul\":9768:9780   */\n      revert\n        /* \"#utility.yul\":9792:9909   */\n    tag_251:\n        /* \"#utility.yul\":9901:9902   */\n      0x00\n        /* \"#utility.yul\":9898:9899   */\n      0x00\n        /* \"#utility.yul\":9891:9903   */\n      revert\n        /* \"#utility.yul\":9929:10482   */\n    tag_252:\n        /* \"#utility.yul\":9987:9995   */\n      0x00\n        /* \"#utility.yul\":9997:10003   */\n      0x00\n        /* \"#utility.yul\":10047:10050   */\n      dup4\n        /* \"#utility.yul\":10040:10044   */\n      0x1f\n        /* \"#utility.yul\":10032:10038   */\n      dup5\n        /* \"#utility.yul\":10028:10045   */\n      add\n        /* \"#utility.yul\":10024:10051   */\n      slt\n        /* \"#utility.yul\":10014:10136   */\n      tag_391\n      jumpi\n        /* \"#utility.yul\":10055:10134   */\n      tag_392\n      tag_242\n      jump\t// in\n    tag_392:\n        /* \"#utility.yul\":10014:10136   */\n    tag_391:\n        /* \"#utility.yul\":10168:10174   */\n      dup3\n        /* \"#utility.yul\":10155:10175   */\n      calldataload\n        /* \"#utility.yul\":10145:10175   */\n      swap1\n      pop\n        /* \"#utility.yul\":10198:10216   */\n      0xffffffffffffffff\n        /* \"#utility.yul\":10190:10196   */\n      dup2\n        /* \"#utility.yul\":10187:10217   */\n      gt\n        /* \"#utility.yul\":10184:10301   */\n      iszero\n      tag_393\n      jumpi\n        /* \"#utility.yul\":10220:10299   */\n      tag_394\n      tag_250\n      jump\t// in\n    tag_394:\n        /* \"#utility.yul\":10184:10301   */\n    tag_393:\n        /* \"#utility.yul\":10334:10338   */\n      0x20\n        /* \"#utility.yul\":10326:10332   */\n      dup4\n        /* \"#utility.yul\":10322:10339   */\n      add\n        /* \"#utility.yul\":10310:10339   */\n      swap2\n      pop\n        /* \"#utility.yul\":10388:10391   */\n      dup4\n        /* \"#utility.yul\":10380:10384   */\n      0x01\n        /* \"#utility.yul\":10372:10378   */\n      dup3\n        /* \"#utility.yul\":10368:10385   */\n      mul\n        /* \"#utility.yul\":10358:10366   */\n      dup4\n        /* \"#utility.yul\":10354:10386   */\n      add\n        /* \"#utility.yul\":10351:10392   */\n      gt\n        /* \"#utility.yul\":10348:10476   */\n      iszero\n      tag_395\n      jumpi\n        /* \"#utility.yul\":10395:10474   */\n      tag_396\n      tag_251\n      jump\t// in\n    tag_396:\n        /* \"#utility.yul\":10348:10476   */\n    tag_395:\n        /* \"#utility.yul\":9929:10482   */\n      swap3\n      pop\n      swap3\n      swap1\n      pop\n      jump\t// out\n        /* \"#utility.yul\":10488:11162   */\n    tag_72:\n        /* \"#utility.yul\":10568:10574   */\n      0x00\n        /* \"#utility.yul\":10576:10582   */\n      0x00\n        /* \"#utility.yul\":10584:10590   */\n      0x00\n        /* \"#utility.yul\":10633:10635   */\n      0x40\n        /* \"#utility.yul\":10621:10630   */\n      dup5\n        /* \"#utility.yul\":10612:10619   */\n      dup7\n        /* \"#utility.yul\":10608:10631   */\n      sub\n        /* \"#utility.yul\":10604:10636   */\n      slt\n        /* \"#utility.yul\":10601:10720   */\n      iszero\n      tag_398\n      jumpi\n        /* \"#utility.yul\":10639:10718   */\n      tag_399\n      tag_215\n      jump\t// in\n    tag_399:\n        /* \"#utility.yul\":10601:10720   */\n    tag_398:\n        /* \"#utility.yul\":10759:10760   */\n      0x00\n        /* \"#utility.yul\":10784:10837   */\n      tag_400\n        /* \"#utility.yul\":10829:10836   */\n      dup7\n        /* \"#utility.yul\":10820:10826   */\n      dup3\n        /* \"#utility.yul\":10809:10818   */\n      dup8\n        /* \"#utility.yul\":10805:10827   */\n      add\n        /* \"#utility.yul\":10784:10837   */\n      tag_219\n      jump\t// in\n    tag_400:\n        /* \"#utility.yul\":10774:10837   */\n      swap4\n      pop\n        /* \"#utility.yul\":10730:10847   */\n      pop\n        /* \"#utility.yul\":10914:10916   */\n      0x20\n        /* \"#utility.yul\":10903:10912   */\n      dup5\n        /* \"#utility.yul\":10899:10917   */\n      add\n        /* \"#utility.yul\":10886:10918   */\n      calldataload\n        /* \"#utility.yul\":10945:10963   */\n      0xffffffffffffffff\n        /* \"#utility.yul\":10937:10943   */\n      dup2\n        /* \"#utility.yul\":10934:10964   */\n      gt\n        /* \"#utility.yul\":10931:11048   */\n      iszero\n      tag_401\n      jumpi\n        /* \"#utility.yul\":10967:11046   */\n      tag_402\n      tag_216\n      jump\t// in\n    tag_402:\n        /* \"#utility.yul\":10931:11048   */\n    tag_401:\n        /* \"#utility.yul\":11080:11145   */\n      tag_403\n        /* \"#utility.yul\":11137:11144   */\n      dup7\n        /* \"#utility.yul\":11128:11134   */\n      dup3\n        /* \"#utility.yul\":11117:11126   */\n      dup8\n        /* \"#utility.yul\":11113:11135   */\n      add\n        /* \"#utility.yul\":11080:11145   */\n      tag_252\n      jump\t// in\n    tag_403:\n        /* \"#utility.yul\":11062:11145   */\n      swap3\n      pop\n      swap3\n      pop\n        /* \"#utility.yul\":10857:11155   */\n      pop\n        /* \"#utility.yul\":10488:11162   */\n      swap3\n      pop\n      swap3\n      pop\n      swap3\n      jump\t// out\n        /* \"#utility.yul\":11168:11348   */\n    tag_87:\n        /* \"#utility.yul\":11216:11293   */\n      0x4e487b7100000000000000000000000000000000000000000000000000000000\n        /* \"#utility.yul\":11213:11214   */\n      0x00\n        /* \"#utility.yul\":11206:11294   */\n      mstore\n        /* \"#utility.yul\":11313:11317   */\n      0x32\n        /* \"#utility.yul\":11310:11311   */\n      0x04\n        /* \"#utility.yul\":11303:11318   */\n      mstore\n        /* \"#utility.yul\":11337:11341   */\n      0x24\n        /* \"#utility.yul\":11334:11335   */\n      0x00\n        /* \"#utility.yul\":11327:11342   */\n      revert\n        /* \"#utility.yul\":11354:11534   */\n    tag_253:\n        /* \"#utility.yul\":11402:11479   */\n      0x4e487b7100000000000000000000000000000000000000000000000000000000\n        /* \"#utility.yul\":11399:11400   */\n      0x00\n        /* \"#utility.yul\":11392:11480   */\n      mstore\n        /* \"#utility.yul\":11499:11503   */\n      0x11\n        /* \"#utility.yul\":11496:11497   */\n      0x04\n        /* \"#utility.yul\":11489:11504   */\n      mstore\n        /* \"#utility.yul\":11523:11527   */\n      0x24\n        /* \"#utility.yul\":11520:11521   */\n      0x00\n        /* \"#utility.yul\":11513:11528   */\n      revert\n        /* \"#utility.yul\":11540:11715   */\n    tag_90:\n        /* \"#utility.yul\":11578:11581   */\n      0x00\n        /* \"#utility.yul\":11601:11624   */\n      tag_407\n        /* \"#utility.yul\":11618:11623   */\n      dup3\n        /* \"#utility.yul\":11601:11624   */\n      tag_226\n      jump\t// in\n    tag_407:\n        /* \"#utility.yul\":11592:11624   */\n      swap2\n      pop\n        /* \"#utility.yul\":11646:11656   */\n      0xffffffff\n        /* \"#utility.yul\":11639:11644   */\n      dup3\n        /* \"#utility.yul\":11636:11657   */\n      sub\n        /* \"#utility.yul\":11633:11680   */\n      tag_408\n      jumpi\n        /* \"#utility.yul\":11660:11678   */\n      tag_409\n      tag_253\n      jump\t// in\n    tag_409:\n        /* \"#utility.yul\":11633:11680   */\n    tag_408:\n        /* \"#utility.yul\":11707:11708   */\n      0x01\n        /* \"#utility.yul\":11700:11705   */\n      dup3\n        /* \"#utility.yul\":11696:11709   */\n      add\n        /* \"#utility.yul\":11689:11709   */\n      swap1\n      pop\n        /* \"#utility.yul\":11540:11715   */\n      swap2\n      swap1\n      pop\n      jump\t// out\n        /* \"#utility.yul\":11721:11901   */\n    tag_254:\n        /* \"#utility.yul\":11769:11846   */\n      0x4e487b7100000000000000000000000000000000000000000000000000000000\n        /* \"#utility.yul\":11766:11767   */\n      0x00\n        /* \"#utility.yul\":11759:11847   */\n      mstore\n        /* \"#utility.yul\":11866:11870   */\n      0x22\n        /* \"#utility.yul\":11863:11864   */\n      0x04\n        /* \"#utility.yul\":11856:11871   */\n      mstore\n        /* \"#utility.yul\":11890:11894   */\n      0x24\n        /* \"#utility.yul\":11887:11888   */\n      0x00\n        /* \"#utility.yul\":11880:11895   */\n      revert\n        /* \"#utility.yul\":11907:12227   */\n    tag_94:\n        /* \"#utility.yul\":11951:11957   */\n      0x00\n        /* \"#utility.yul\":11988:11989   */\n      0x02\n        /* \"#utility.yul\":11982:11986   */\n      dup3\n        /* \"#utility.yul\":11978:11990   */\n      div\n        /* \"#utility.yul\":11968:11990   */\n      swap1\n      pop\n        /* \"#utility.yul\":12035:12036   */\n      0x01\n        /* \"#utility.yul\":12029:12033   */\n      dup3\n        /* \"#utility.yul\":12025:12037   */\n      and\n        /* \"#utility.yul\":12056:12074   */\n      dup1\n        /* \"#utility.yul\":12046:12127   */\n      tag_412\n      jumpi\n        /* \"#utility.yul\":12112:12116   */\n      0x7f\n        /* \"#utility.yul\":12104:12110   */\n      dup3\n        /* \"#utility.yul\":12100:12117   */\n      and\n        /* \"#utility.yul\":12090:12117   */\n      swap2\n      pop\n        /* \"#utility.yul\":12046:12127   */\n    tag_412:\n        /* \"#utility.yul\":12174:12176   */\n      0x20\n        /* \"#utility.yul\":12166:12172   */\n      dup3\n        /* \"#utility.yul\":12163:12177   */\n      lt\n        /* \"#utility.yul\":12143:12161   */\n      dup2\n        /* \"#utility.yul\":12140:12178   */\n      sub\n        /* \"#utility.yul\":12137:12221   */\n      tag_413\n      jumpi\n        /* \"#utility.yul\":12193:12211   */\n      tag_414\n      tag_254\n      jump\t// in\n    tag_414:\n        /* \"#utility.yul\":12137:12221   */\n    tag_413:\n        /* \"#utility.yul\":11958:12227   */\n      pop\n        /* \"#utility.yul\":11907:12227   */\n      swap2\n      swap1\n      pop\n      jump\t// out\n        /* \"#utility.yul\":12233:12466   */\n    tag_134:\n        /* \"#utility.yul\":12272:12275   */\n      0x00\n        /* \"#utility.yul\":12295:12319   */\n      tag_416\n        /* \"#utility.yul\":12313:12318   */\n      dup3\n        /* \"#utility.yul\":12295:12319   */\n      tag_217\n      jump\t// in\n    tag_416:\n        /* \"#utility.yul\":12286:12319   */\n      swap2\n      pop\n        /* \"#utility.yul\":12341:12407   */\n      0xffffffffffffffffffffffffffffffffffffffffffffffffffffffffffffffff\n        /* \"#utility.yul\":12334:12339   */\n      dup3\n        /* \"#utility.yul\":12331:12408   */\n      sub\n        /* \"#utility.yul\":12328:12431   */\n      tag_417\n      jumpi\n        /* \"#utility.yul\":12411:12429   */\n      tag_418\n      tag_253\n      jump\t// in\n    tag_418:\n        /* \"#utility.yul\":12328:12431   */\n    tag_417:\n        /* \"#utility.yul\":12458:12459   */\n      0x01\n        /* \"#utility.yul\":12451:12456   */\n      dup3\n        /* \"#utility.yul\":12447:12460   */\n      add\n        /* \"#utility.yul\":12440:12460   */\n      swap1\n      pop\n        /* \"#utility.yul\":12233:12466   */\n      swap2\n      swap1\n      pop\n      jump\t// out\n        /* \"#utility.yul\":12472:12694   */\n    tag_137:\n        /* \"#utility.yul\":12565:12569   */\n      0x00\n        /* \"#utility.yul\":12603:12605   */\n      0x20\n        /* \"#utility.yul\":12592:12601   */\n      dup3\n        /* \"#utility.yul\":12588:12606   */\n      add\n        /* \"#utility.yul\":12580:12606   */\n      swap1\n      pop\n        /* \"#utility.yul\":12616:12687   */\n      tag_420\n        /* \"#utility.yul\":12684:12685   */\n      0x00\n        /* \"#utility.yul\":12673:12682   */\n      dup4\n        /* \"#utility.yul\":12669:12686   */\n      add\n        /* \"#utility.yul\":12660:12666   */\n      dup5\n        /* \"#utility.yul\":12616:12687   */\n      tag_225\n      jump\t// in\n    tag_420:\n        /* \"#utility.yul\":12472:12694   */\n      swap3\n      swap2\n      pop\n      pop\n      jump\t// out\n        /* \"#utility.yul\":12700:12816   */\n    tag_255:\n        /* \"#utility.yul\":12770:12791   */\n      tag_422\n        /* \"#utility.yul\":12785:12790   */\n      dup2\n        /* \"#utility.yul\":12770:12791   */\n      tag_233\n      jump\t// in\n    tag_422:\n        /* \"#utility.yul\":12763:12768   */\n      dup2\n        /* \"#utility.yul\":12760:12792   */\n      eq\n        /* \"#utility.yul\":12750:12810   */\n      tag_423\n      jumpi\n        /* \"#utility.yul\":12806:12807   */\n      0x00\n        /* \"#utility.yul\":12803:12804   */\n      0x00\n        /* \"#utility.yul\":12796:12808   */\n      revert\n        /* \"#utility.yul\":12750:12810   */\n    tag_423:\n        /* \"#utility.yul\":12700:12816   */\n      pop\n      jump\t// out\n        /* \"#utility.yul\":12822:12959   */\n    tag_256:\n        /* \"#utility.yul\":12876:12881   */\n      0x00\n        /* \"#utility.yul\":12907:12913   */\n      dup2\n        /* \"#utility.yul\":12901:12914   */\n      mload\n        /* \"#utility.yul\":12892:12914   */\n      swap1\n      pop\n        /* \"#utility.yul\":12923:12953   */\n      tag_425\n        /* \"#utility.yul\":12947:12952   */\n      dup2\n        /* \"#utility.yul\":12923:12953   */\n      tag_255\n      jump\t// in\n    tag_425:\n        /* \"#utility.yul\":12822:12959   */\n      swap3\n      swap2\n      pop\n      pop\n      jump\t// out\n        /* \"#utility.yul\":12965:13108   */\n    tag_257:\n        /* \"#utility.yul\":13022:13027   */\n      0x00\n        /* \"#utility.yul\":13053:13059   */\n      dup2\n        /* \"#utility.yul\":13047:13060   */\n      mload\n        /* \"#utility.yul\":13038:13060   */\n      swap1\n      pop\n        /* \"#utility.yul\":13069:13102   */\n      tag_427\n        /* \"#utility.yul\":13096:13101   */\n      dup2\n        /* \"#utility.yul\":13069:13102   */\n      tag_218\n      jump\t// in\n    tag_427:\n        /* \"#utility.yul\":12965:13108   */\n      swap3\n      swap2\n      pop\n      pop\n      jump\t// out\n        /* \"#utility.yul\":13114:14864   */\n    tag_141:\n        /* \"#utility.yul\":13259:13265   */\n      0x00\n        /* \"#utility.yul\":13267:13273   */\n      0x00\n        /* \"#utility.yul\":13275:13281   */\n      0x00\n        /* \"#utility.yul\":13283:13289   */\n      0x00\n        /* \"#utility.yul\":13291:13297   */\n      0x00\n        /* \"#utility.yul\":13299:13305   */\n      0x00\n        /* \"#utility.yul\":13307:13313   */\n      0x00\n        /* \"#utility.yul\":13315:13321   */\n      0x00\n        /* \"#utility.yul\":13323:13329   */\n      0x00\n        /* \"#utility.yul\":13331:13337   */\n      0x00\n        /* \"#utility.yul\":13380:13383   */\n      0x0140\n        /* \"#utility.yul\":13368:13377   */\n      dup12\n        /* \"#utility.yul\":13359:13366   */\n      dup14\n        /* \"#utility.yul\":13355:13378   */\n      sub\n        /* \"#utility.yul\":13351:13384   */\n      slt\n        /* \"#utility.yul\":13348:13468   */\n      iszero\n      tag_429\n      jumpi\n        /* \"#utility.yul\":13387:13466   */\n      tag_430\n      tag_215\n      jump\t// in\n    tag_430:\n        /* \"#utility.yul\":13348:13468   */\n    tag_429:\n        /* \"#utility.yul\":13507:13508   */\n      0x00\n        /* \"#utility.yul\":13532:13593   */\n      tag_431\n        /* \"#utility.yul\":13585:13592   */\n      dup14\n        /* \"#utility.yul\":13576:13582   */\n      dup3\n        /* \"#utility.yul\":13565:13574   */\n      dup15\n        /* \"#utility.yul\":13561:13583   */\n      add\n        /* \"#utility.yul\":13532:13593   */\n      tag_256\n      jump\t// in\n    tag_431:\n        /* \"#utility.yul\":13522:13593   */\n      swap11\n      pop\n        /* \"#utility.yul\":13478:13603   */\n      pop\n        /* \"#utility.yul\":13642:13644   */\n      0x20\n        /* \"#utility.yul\":13668:13729   */\n      tag_432\n        /* \"#utility.yul\":13721:13728   */\n      dup14\n        /* \"#utility.yul\":13712:13718   */\n      dup3\n        /* \"#utility.yul\":13701:13710   */\n      dup15\n        /* \"#utility.yul\":13697:13719   */\n      add\n        /* \"#utility.yul\":13668:13729   */\n      tag_256\n      jump\t// in\n    tag_432:\n        /* \"#utility.yul\":13658:13729   */\n      swap10\n      pop\n        /* \"#utility.yul\":13613:13739   */\n      pop\n        /* \"#utility.yul\":13778:13780   */\n      0x40\n        /* \"#utility.yul\":13804:13868   */\n      tag_433\n        /* \"#utility.yul\":13860:13867   */\n      dup14\n        /* \"#utility.yul\":13851:13857   */\n      dup3\n        /* \"#utility.yul\":13840:13849   */\n      dup15\n        /* \"#utility.yul\":13836:13858   */\n      add\n        /* \"#utility.yul\":13804:13868   */\n      tag_257\n      jump\t// in\n    tag_433:\n        /* \"#utility.yul\":13794:13868   */\n      swap9\n      pop\n        /* \"#utility.yul\":13749:13878   */\n      pop\n        /* \"#utility.yul\":13917:13919   */\n      0x60\n        /* \"#utility.yul\":13943:14007   */\n      tag_434\n        /* \"#utility.yul\":13999:14006   */\n      dup14\n        /* \"#utility.yul\":13990:13996   */\n      dup3\n        /* \"#utility.yul\":13979:13988   */\n      dup15\n        /* \"#utility.yul\":13975:13997   */\n      add\n        /* \"#utility.yul\":13943:14007   */\n      tag_257\n      jump\t// in\n    tag_434:\n        /* \"#utility.yul\":13933:14007   */\n      swap8\n      pop\n        /* \"#utility.yul\":13888:14017   */\n      pop\n        /* \"#utility.yul\":14056:14059   */\n      0x80\n        /* \"#utility.yul\":14083:14147   */\n      tag_435\n        /* \"#utility.yul\":14139:14146   */\n      dup14\n        /* \"#utility.yul\":14130:14136   */\n      dup3\n        /* \"#utility.yul\":14119:14128   */\n      dup15\n        /* \"#utility.yul\":14115:14137   */\n      add\n        /* \"#utility.yul\":14083:14147   */\n      tag_257\n      jump\t// in\n    tag_435:\n        /* \"#utility.yul\":14073:14147   */\n      swap7\n      pop\n        /* \"#utility.yul\":14027:14157   */\n      pop\n        /* \"#utility.yul\":14196:14199   */\n      0xa0\n        /* \"#utility.yul\":14223:14287   */\n      tag_436\n        /* \"#utility.yul\":14279:14286   */\n      dup14\n        /* \"#utility.yul\":14270:14276   */\n      dup3\n        /* \"#utility.yul\":14259:14268   */\n      dup15\n        /* \"#utility.yul\":14255:14277   */\n      add\n        /* \"#utility.yul\":14223:14287   */\n      tag_257\n      jump\t// in\n    tag_436:\n        /* \"#utility.yul\":14213:14287   */\n      swap6\n      pop\n        /* \"#utility.yul\":14167:14297   */\n      pop\n        /* \"#utility.yul\":14336:14339   */\n      0xc0\n        /* \"#utility.yul\":14363:14427   */\n      tag_437\n        /* \"#utility.yul\":14419:14426   */\n      dup14\n        /* \"#utility.yul\":14410:14416   */\n      dup3\n        /* \"#utility.yul\":14399:14408   */\n      dup15\n        /* \"#utility.yul\":14395:14417   */\n      add\n        /* \"#utility.yul\":14363:14427   */\n      tag_257\n      jump\t// in\n    tag_437:\n        /* \"#utility.yul\":14353:14427   */\n      swap5\n      pop\n        /* \"#utility.yul\":14307:14437   */\n      pop\n        /* \"#utility.yul\":14476:14479   */\n      0xe0\n        /* \"#utility.yul\":14503:14567   */\n      tag_438\n        /* \"#utility.yul\":14559:14566   */\n      dup14\n        /* \"#utility.yul\":14550:14556   */\n      dup3\n        /* \"#utility.yul\":14539:14548   */\n      dup15\n        /* \"#utility.yul\":14535:14557   */\n      add\n        /* \"#utility.yul\":14503:14567   */\n      tag_257\n      jump\t// in\n    tag_438:\n        /* \"#utility.yul\":14493:14567   */\n      swap4\n      pop\n        /* \"#utility.yul\":14447:14577   */\n      pop\n        /* \"#utility.yul\":14616:14619   */\n      0x0100\n        /* \"#utility.yul\":14643:14707   */\n      tag_439\n        /* \"#utility.yul\":14699:14706   */\n      dup14\n        /* \"#utility.yul\":14690:14696   */\n      dup3\n        /* \"#utility.yul\":14679:14688   */\n      dup15\n        /* \"#utility.yul\":14675:14697   */\n      add\n        /* \"#utility.yul\":14643:14707   */\n      tag_257\n      jump\t// in\n    tag_439:\n        /* \"#utility.yul\":14633:14707   */\n      swap3\n      pop\n        /* \"#utility.yul\":14587:14717   */\n      pop\n        /* \"#utility.yul\":14756:14759   */\n      0x0120\n        /* \"#utility.yul\":14783:14847   */\n      tag_440\n        /* \"#utility.yul\":14839:14846   */\n      dup14\n        /* \"#utility.yul\":14830:14836   */\n      dup3\n        /* \"#utility.yul\":14819:14828   */\n      dup15\n        /* \"#utility.yul\":14815:14837   */\n      add\n        /* \"#utility.yul\":14783:14847   */\n      tag_257\n      jump\t// in\n    tag_440:\n        /* \"#utility.yul\":14773:14847   */\n      swap2\n      pop\n        /* \"#utility.yul\":14727:14857   */\n      pop\n        /* \"#utility.yul\":13114:14864   */\n      swap3\n      swap6\n      swap9\n      swap12\n      swap2\n      swap5\n      swap8\n      swap11\n      pop\n      swap3\n      swap6\n      swap9\n      pop\n      jump\t// out\n        /* \"#utility.yul\":14870:14967   */\n    tag_258:\n        /* \"#utility.yul\":14929:14935   */\n      0x00\n        /* \"#utility.yul\":14957:14960   */\n      dup3\n        /* \"#utility.yul\":14947:14960   */\n      swap1\n      pop\n        /* \"#utility.yul\":14870:14967   */\n      swap3\n      swap2\n      pop\n      pop\n      jump\t// out\n        /* \"#utility.yul\":14973:15114   */\n    tag_259:\n        /* \"#utility.yul\":15022:15026   */\n      0x00\n        /* \"#utility.yul\":15045:15048   */\n      dup2\n        /* \"#utility.yul\":15037:15048   */\n      swap1\n      pop\n        /* \"#utility.yul\":15068:15071   */\n      dup2\n        /* \"#utility.yul\":15065:15066   */\n      0x00\n        /* \"#utility.yul\":15058:15072   */\n      mstore\n        /* \"#utility.yul\":15102:15106   */\n      0x20\n        /* \"#utility.yul\":15099:15100   */\n      0x00\n        /* \"#utility.yul\":15089:15107   */\n      keccak256\n        /* \"#utility.yul\":15081:15107   */\n      swap1\n      pop\n        /* \"#utility.yul\":14973:15114   */\n      swap2\n      swap1\n      pop\n      jump\t// out\n        /* \"#utility.yul\":15120:15213   */\n    tag_260:\n        /* \"#utility.yul\":15157:15163   */\n      0x00\n        /* \"#utility.yul\":15204:15206   */\n      0x20\n        /* \"#utility.yul\":15199:15201   */\n      0x1f\n        /* \"#utility.yul\":15192:15197   */\n      dup4\n        /* \"#utility.yul\":15188:15202   */\n      add\n        /* \"#utility.yul\":15184:15207   */\n      div\n        /* \"#utility.yul\":15174:15207   */\n      swap1\n      pop\n        /* \"#utility.yul\":15120:15213   */\n      swap2\n      swap1\n      pop\n      jump\t// out\n        /* \"#utility.yul\":15219:15326   */\n    tag_261:\n        /* \"#utility.yul\":15263:15271   */\n      0x00\n        /* \"#utility.yul\":15313:15318   */\n      dup3\n        /* \"#utility.yul\":15307:15311   */\n      dup3\n        /* \"#utility.yul\":15303:15319   */\n      shl\n        /* \"#utility.yul\":15282:15319   */\n      swap1\n      pop\n        /* \"#utility.yul\":15219:15326   */\n      swap3\n      swap2\n      pop\n      pop\n      jump\t// out\n        /* \"#utility.yul\":15332:15725   */\n    tag_262:\n        /* \"#utility.yul\":15401:15407   */\n      0x00\n        /* \"#utility.yul\":15451:15452   */\n      0x08\n        /* \"#utility.yul\":15439:15449   */\n      dup4\n        /* \"#utility.yul\":15435:15453   */\n      mul\n        /* \"#utility.yul\":15474:15571   */\n      tag_446\n        /* \"#utility.yul\":15504:15570   */\n      0xffffffffffffffffffffffffffffffffffffffffffffffffffffffffffffffff\n        /* \"#utility.yul\":15493:15502   */\n      dup3\n        /* \"#utility.yul\":15474:15571   */\n      tag_261\n      jump\t// in\n    tag_446:\n        /* \"#utility.yul\":15592:15631   */\n      tag_447\n        /* \"#utility.yul\":15622:15630   */\n      dup7\n        /* \"#utility.yul\":15611:15620   */\n      dup4\n        /* \"#utility.yul\":15592:15631   */\n      tag_261\n      jump\t// in\n    tag_447:\n        /* \"#utility.yul\":15580:15631   */\n      swap6\n      pop\n        /* \"#utility.yul\":15664:15668   */\n      dup1\n        /* \"#utility.yul\":15660:15669   */\n      not\n        /* \"#utility.yul\":15653:15658   */\n      dup5\n        /* \"#utility.yul\":15649:15670   */\n      and\n        /* \"#utility.yul\":15640:15670   */\n      swap4\n      pop\n        /* \"#utility.yul\":15713:15717   */\n      dup1\n        /* \"#utility.yul\":15703:15711   */\n      dup7\n        /* \"#utility.yul\":15699:15718   */\n      and\n        /* \"#utility.yul\":15692:15697   */\n      dup5\n        /* \"#utility.yul\":15689:15719   */\n      or\n        /* \"#utility.yul\":15679:15719   */\n      swap3\n      pop\n        /* \"#utility.yul\":15408:15725   */\n      pop\n      pop\n        /* \"#utility.yul\":15332:15725   */\n      swap4\n      swap3\n      pop\n      pop\n      pop\n      jump\t// out\n        /* \"#utility.yul\":15731:15791   */\n    tag_263:\n        /* \"#utility.yul\":15759:15762   */\n      0x00\n        /* \"#utility.yul\":15780:15785   */\n      dup2\n        /* \"#utility.yul\":15773:15785   */\n      swap1\n      pop\n        /* \"#utility.yul\":15731:15791   */\n      swap2\n      swap1\n      pop\n      jump\t// out\n        /* \"#utility.yul\":15797:15939   */\n    tag_264:\n        /* \"#utility.yul\":15847:15856   */\n      0x00\n        /* \"#utility.yul\":15880:15933   */\n      tag_450\n        /* \"#utility.yul\":15898:15932   */\n      tag_451\n        /* \"#utility.yul\":15907:15931   */\n      tag_452\n        /* \"#utility.yul\":15925:15930   */\n      dup5\n        /* \"#utility.yul\":15907:15931   */\n      tag_217\n      jump\t// in\n    tag_452:\n        /* \"#utility.yul\":15898:15932   */\n      tag_263\n      jump\t// in\n    tag_451:\n        /* \"#utility.yul\":15880:15933   */\n      tag_217\n      jump\t// in\n    tag_450:\n        /* \"#utility.yul\":15867:15933   */\n      swap1\n      pop\n        /* \"#utility.yul\":15797:15939   */\n      swap2\n      swap1\n      pop\n      jump\t// out\n        /* \"#utility.yul\":15945:16020   */\n    tag_265:\n        /* \"#utility.yul\":15988:15991   */\n      0x00\n        /* \"#utility.yul\":16009:16014   */\n      dup2\n        /* \"#utility.yul\":16002:16014   */\n      swap1\n      pop\n        /* \"#utility.yul\":15945:16020   */\n      swap2\n      swap1\n      pop\n      jump\t// out\n        /* \"#utility.yul\":16026:16295   */\n    tag_266:\n        /* \"#utility.yul\":16136:16175   */\n      tag_455\n        /* \"#utility.yul\":16167:16174   */\n      dup4\n        /* \"#utility.yul\":16136:16175   */\n      tag_264\n      jump\t// in\n    tag_455:\n        /* \"#utility.yul\":16197:16288   */\n      tag_456\n        /* \"#utility.yul\":16246:16287   */\n      tag_457\n        /* \"#utility.yul\":16270:16286   */\n      dup3\n        /* \"#utility.yul\":16246:16287   */\n      tag_265\n      jump\t// in\n    tag_457:\n        /* \"#utility.yul\":16238:16244   */\n      dup5\n        /* \"#utility.yul\":16231:16235   */\n      dup5\n        /* \"#utility.yul\":16225:16236   */\n      sload\n        /* \"#utility.yul\":16197:16288   */\n      tag_262\n      jump\t// in\n    tag_456:\n        /* \"#utility.yul\":16191:16195   */\n      dup3\n        /* \"#utility.yul\":16184:16289   */\n      sstore\n        /* \"#utility.yul\":16102:16295   */\n      pop\n        /* \"#utility.yul\":16026:16295   */\n      pop\n      pop\n      pop\n      jump\t// out\n        /* \"#utility.yul\":16301:16374   */\n    tag_267:\n        /* \"#utility.yul\":16346:16349   */\n      0x00\n        /* \"#utility.yul\":16367:16368   */\n      0x00\n        /* \"#utility.yul\":16360:16368   */\n      swap1\n      pop\n        /* \"#utility.yul\":16301:16374   */\n      swap1\n      jump\t// out\n        /* \"#utility.yul\":16380:16569   */\n    tag_268:\n        /* \"#utility.yul\":16457:16489   */\n      tag_460\n      tag_267\n      jump\t// in\n    tag_460:\n        /* \"#utility.yul\":16498:16563   */\n      tag_461\n        /* \"#utility.yul\":16556:16562   */\n      dup2\n        /* \"#utility.yul\":16548:16554   */\n      dup5\n        /* \"#utility.yul\":16542:16546   */\n      dup5\n        /* \"#utility.yul\":16498:16563   */\n      tag_266\n      jump\t// in\n    tag_461:\n        /* \"#utility.yul\":16433:16569   */\n      pop\n        /* \"#utility.yul\":16380:16569   */\n      pop\n      pop\n      jump\t// out\n        /* \"#utility.yul\":16575:16761   */\n    tag_269:\n        /* \"#utility.yul\":16635:16755   */\n    tag_463:\n        /* \"#utility.yul\":16652:16655   */\n      dup2\n        /* \"#utility.yul\":16645:16650   */\n      dup2\n        /* \"#utility.yul\":16642:16656   */\n      lt\n        /* \"#utility.yul\":16635:16755   */\n      iszero\n      tag_465\n      jumpi\n        /* \"#utility.yul\":16706:16745   */\n      tag_466\n        /* \"#utility.yul\":16743:16744   */\n      0x00\n        /* \"#utility.yul\":16736:16741   */\n      dup3\n        /* \"#utility.yul\":16706:16745   */\n      tag_268\n      jump\t// in\n    tag_466:\n        /* \"#utility.yul\":16679:16680   */\n      0x01\n        /* \"#utility.yul\":16672:16677   */\n      dup2\n        /* \"#utility.yul\":16668:16681   */\n      add\n        /* \"#utility.yul\":16659:16681   */\n      swap1\n      pop\n        /* \"#utility.yul\":16635:16755   */\n      jump(tag_463)\n    tag_465:\n        /* \"#utility.yul\":16575:16761   */\n      pop\n      pop\n      jump\t// out\n        /* \"#utility.yul\":16767:17310   */\n    tag_270:\n        /* \"#utility.yul\":16868:16870   */\n      0x1f\n        /* \"#utility.yul\":16863:16866   */\n      dup3\n        /* \"#utility.yul\":16860:16871   */\n      gt\n        /* \"#utility.yul\":16857:17303   */\n      iszero\n      tag_468\n      jumpi\n        /* \"#utility.yul\":16902:16940   */\n      tag_469\n        /* \"#utility.yul\":16934:16939   */\n      dup2\n        /* \"#utility.yul\":16902:16940   */\n      tag_259\n      jump\t// in\n    tag_469:\n        /* \"#utility.yul\":16986:17015   */\n      tag_470\n        /* \"#utility.yul\":17004:17014   */\n      dup5\n        /* \"#utility.yul\":16986:17015   */\n      tag_260\n      jump\t// in\n    tag_470:\n        /* \"#utility.yul\":16976:16984   */\n      dup2\n        /* \"#utility.yul\":16972:17016   */\n      add\n        /* \"#utility.yul\":17169:17171   */\n      0x20\n        /* \"#utility.yul\":17157:17167   */\n      dup6\n        /* \"#utility.yul\":17154:17172   */\n      lt\n        /* \"#utility.yul\":17151:17200   */\n      iszero\n      tag_471\n      jumpi\n        /* \"#utility.yul\":17190:17198   */\n      dup2\n        /* \"#utility.yul\":17175:17198   */\n      swap1\n      pop\n        /* \"#utility.yul\":17151:17200   */\n    tag_471:\n        /* \"#utility.yul\":17213:17293   */\n      tag_472\n        /* \"#utility.yul\":17269:17291   */\n      tag_473\n        /* \"#utility.yul\":17287:17290   */\n      dup6\n        /* \"#utility.yul\":17269:17291   */\n      tag_260\n      jump\t// in\n    tag_473:\n        /* \"#utility.yul\":17259:17267   */\n      dup4\n        /* \"#utility.yul\":17255:17292   */\n      add\n        /* \"#utility.yul\":17242:17253   */\n      dup3\n        /* \"#utility.yul\":17213:17293   */\n      tag_269\n      jump\t// in\n    tag_472:\n        /* \"#utility.yul\":16872:17303   */\n      pop\n      pop\n        /* \"#utility.yul\":16857:17303   */\n    tag_468:\n        /* \"#utility.yul\":16767:17310   */\n      pop\n      pop\n      pop\n      jump\t// out\n        /* \"#utility.yul\":17316:17433   */\n    tag_271:\n        /* \"#utility.yul\":17370:17378   */\n      0x00\n        /* \"#utility.yul\":17420:17425   */\n      dup3\n        /* \"#utility.yul\":17414:17418   */\n      dup3\n        /* \"#utility.yul\":17410:17426   */\n      shr\n        /* \"#utility.yul\":17389:17426   */\n      swap1\n      pop\n        /* \"#utility.yul\":17316:17433   */\n      swap3\n      swap2\n      pop\n      pop\n      jump\t// out\n        /* \"#utility.yul\":17439:17608   */\n    tag_272:\n        /* \"#utility.yul\":17483:17489   */\n      0x00\n        /* \"#utility.yul\":17516:17567   */\n      tag_476\n        /* \"#utility.yul\":17564:17565   */\n      0x00\n        /* \"#utility.yul\":17560:17566   */\n      not\n        /* \"#utility.yul\":17552:17557   */\n      dup5\n        /* \"#utility.yul\":17549:17550   */\n      0x08\n        /* \"#utility.yul\":17545:17558   */\n      mul\n        /* \"#utility.yul\":17516:17567   */\n      tag_271\n      jump\t// in\n    tag_476:\n        /* \"#utility.yul\":17512:17568   */\n      not\n        /* \"#utility.yul\":17597:17601   */\n      dup1\n        /* \"#utility.yul\":17591:17595   */\n      dup4\n        /* \"#utility.yul\":17587:17602   */\n      and\n        /* \"#utility.yul\":17577:17602   */\n      swap2\n      pop\n        /* \"#utility.yul\":17490:17608   */\n      pop\n        /* \"#utility.yul\":17439:17608   */\n      swap3\n      swap2\n      pop\n      pop\n      jump\t// out\n        /* \"#utility.yul\":17613:17908   */\n    tag_273:\n        /* \"#utility.yul\":17689:17693   */\n      0x00\n        /* \"#utility.yul\":17835:17864   */\n      tag_478\n        /* \"#utility.yul\":17860:17863   */\n      dup4\n        /* \"#utility.yul\":17854:17858   */\n      dup4\n        /* \"#utility.yul\":17835:17864   */\n      tag_272\n      jump\t// in\n    tag_478:\n        /* \"#utility.yul\":17827:17864   */\n      swap2\n      pop\n        /* \"#utility.yul\":17897:17900   */\n      dup3\n        /* \"#utility.yul\":17894:17895   */\n      0x02\n        /* \"#utility.yul\":17890:17901   */\n      mul\n        /* \"#utility.yul\":17884:17888   */\n      dup3\n        /* \"#utility.yul\":17881:17902   */\n      or\n        /* \"#utility.yul\":17873:17902   */\n      swap1\n      pop\n        /* \"#utility.yul\":17613:17908   */\n      swap3\n      swap2\n      pop\n      pop\n      jump\t// out\n        /* \"#utility.yul\":17913:19316   */\n    tag_160:\n        /* \"#utility.yul\":18037:18081   */\n      tag_480\n        /* \"#utility.yul\":18077:18080   */\n      dup4\n        /* \"#utility.yul\":18072:18075   */\n      dup4\n        /* \"#utility.yul\":18037:18081   */\n      tag_258\n      jump\t// in\n    tag_480:\n        /* \"#utility.yul\":18146:18164   */\n      0xffffffffffffffff\n        /* \"#utility.yul\":18138:18144   */\n      dup2\n        /* \"#utility.yul\":18135:18165   */\n      gt\n        /* \"#utility.yul\":18132:18188   */\n      iszero\n      tag_481\n      jumpi\n        /* \"#utility.yul\":18168:18186   */\n      tag_482\n      tag_125\n      jump\t// in\n    tag_482:\n        /* \"#utility.yul\":18132:18188   */\n    tag_481:\n        /* \"#utility.yul\":18212:18250   */\n      tag_483\n        /* \"#utility.yul\":18244:18248   */\n      dup3\n        /* \"#utility.yul\":18238:18249   */\n      sload\n        /* \"#utility.yul\":18212:18250   */\n      tag_94\n      jump\t// in\n    tag_483:\n        /* \"#utility.yul\":18297:18364   */\n      tag_484\n        /* \"#utility.yul\":18357:18363   */\n      dup3\n        /* \"#utility.yul\":18349:18355   */\n      dup3\n        /* \"#utility.yul\":18343:18347   */\n      dup6\n        /* \"#utility.yul\":18297:18364   */\n      tag_270\n      jump\t// in\n    tag_484:\n        /* \"#utility.yul\":18391:18392   */\n      0x00\n        /* \"#utility.yul\":18420:18422   */\n      0x1f\n        /* \"#utility.yul\":18412:18418   */\n      dup4\n        /* \"#utility.yul\":18409:18423   */\n      gt\n        /* \"#utility.yul\":18437:18438   */\n      0x01\n        /* \"#utility.yul\":18432:19064   */\n      dup2\n      eq\n      tag_486\n      jumpi\n        /* \"#utility.yul\":19108:19109   */\n      0x00\n        /* \"#utility.yul\":19125:19131   */\n      dup5\n        /* \"#utility.yul\":19122:19206   */\n      iszero\n      tag_487\n      jumpi\n        /* \"#utility.yul\":19181:19190   */\n      dup3\n        /* \"#utility.yul\":19176:19179   */\n      dup8\n        /* \"#utility.yul\":19172:19191   */\n      add\n        /* \"#utility.yul\":19159:19192   */\n      calldataload\n        /* \"#utility.yul\":19150:19192   */\n      swap1\n      pop\n        /* \"#utility.yul\":19122:19206   */\n    tag_487:\n        /* \"#utility.yul\":19232:19299   */\n      tag_488\n        /* \"#utility.yul\":19292:19298   */\n      dup6\n        /* \"#utility.yul\":19285:19290   */\n      dup3\n        /* \"#utility.yul\":19232:19299   */\n      tag_273\n      jump\t// in\n    tag_488:\n        /* \"#utility.yul\":19226:19230   */\n      dup7\n        /* \"#utility.yul\":19219:19300   */\n      sstore\n        /* \"#utility.yul\":19081:19310   */\n      pop\n        /* \"#utility.yul\":18402:19310   */\n      jump(tag_485)\n        /* \"#utility.yul\":18432:19064   */\n    tag_486:\n        /* \"#utility.yul\":18484:18488   */\n      0x1f\n        /* \"#utility.yul\":18480:18489   */\n      not\n        /* \"#utility.yul\":18472:18478   */\n      dup5\n        /* \"#utility.yul\":18468:18490   */\n      and\n        /* \"#utility.yul\":18518:18555   */\n      tag_489\n        /* \"#utility.yul\":18550:18554   */\n      dup7\n        /* \"#utility.yul\":18518:18555   */\n      tag_259\n      jump\t// in\n    tag_489:\n        /* \"#utility.yul\":18577:18578   */\n      0x00\n        /* \"#utility.yul\":18591:18806   */\n    tag_490:\n        /* \"#utility.yul\":18605:18612   */\n      dup3\n        /* \"#utility.yul\":18602:18603   */\n      dup2\n        /* \"#utility.yul\":18599:18613   */\n      lt\n        /* \"#utility.yul\":18591:18806   */\n      iszero\n      tag_492\n      jumpi\n        /* \"#utility.yul\":18691:18700   */\n      dup5\n        /* \"#utility.yul\":18686:18689   */\n      dup10\n        /* \"#utility.yul\":18682:18701   */\n      add\n        /* \"#utility.yul\":18669:18702   */\n      calldataload\n        /* \"#utility.yul\":18661:18667   */\n      dup3\n        /* \"#utility.yul\":18654:18703   */\n      sstore\n        /* \"#utility.yul\":18742:18743   */\n      0x01\n        /* \"#utility.yul\":18734:18740   */\n      dup3\n        /* \"#utility.yul\":18730:18744   */\n      add\n        /* \"#utility.yul\":18720:18744   */\n      swap2\n      pop\n        /* \"#utility.yul\":18789:18791   */\n      0x20\n        /* \"#utility.yul\":18778:18787   */\n      dup6\n        /* \"#utility.yul\":18774:18792   */\n      add\n        /* \"#utility.yul\":18761:18792   */\n      swap5\n      pop\n        /* \"#utility.yul\":18628:18632   */\n      0x20\n        /* \"#utility.yul\":18625:18626   */\n      dup2\n        /* \"#utility.yul\":18621:18633   */\n      add\n        /* \"#utility.yul\":18616:18633   */\n      swap1\n      pop\n        /* \"#utility.yul\":18591:18806   */\n      jump(tag_490)\n    tag_492:\n        /* \"#utility.yul\":18834:18840   */\n      dup7\n        /* \"#utility.yul\":18825:18832   */\n      dup4\n        /* \"#utility.yul\":18822:18841   */\n      lt\n        /* \"#utility.yul\":18819:19005   */\n      iszero\n      tag_493\n      jumpi\n        /* \"#utility.yul\":18899:18908   */\n      dup5\n        /* \"#utility.yul\":18894:18897   */\n      dup10\n        /* \"#utility.yul\":18890:18909   */\n      add\n        /* \"#utility.yul\":18877:18910   */\n      calldataload\n        /* \"#utility.yul\":18942:18990   */\n      tag_494\n        /* \"#utility.yul\":18984:18988   */\n      0x1f\n        /* \"#utility.yul\":18976:18982   */\n      dup10\n        /* \"#utility.yul\":18972:18989   */\n      and\n        /* \"#utility.yul\":18961:18970   */\n      dup3\n        /* \"#utility.yul\":18942:18990   */\n      tag_272\n      jump\t// in\n    tag_494:\n        /* \"#utility.yul\":18934:18940   */\n      dup4\n        /* \"#utility.yul\":18927:18991   */\n      sstore\n        /* \"#utility.yul\":18842:19005   */\n      pop\n        /* \"#utility.yul\":18819:19005   */\n    tag_493:\n        /* \"#utility.yul\":19051:19052   */\n      0x01\n        /* \"#utility.yul\":19047:19048   */\n      0x02\n        /* \"#utility.yul\":19039:19045   */\n      dup9\n        /* \"#utility.yul\":19035:19049   */\n      mul\n        /* \"#utility.yul\":19031:19053   */\n      add\n        /* \"#utility.yul\":19025:19029   */\n      dup9\n        /* \"#utility.yul\":19018:19054   */\n      sstore\n        /* \"#utility.yul\":18439:19064   */\n      pop\n      pop\n      pop\n        /* \"#utility.yul\":18402:19310   */\n    tag_485:\n      pop\n        /* \"#utility.yul\":18012:19316   */\n      pop\n      pop\n      pop\n        /* \"#utility.yul\":17913:19316   */\n      pop\n      pop\n      pop\n      jump\t// out\n        /* \"#utility.yul\":19322:19502   */\n    tag_274:\n        /* \"#utility.yul\":19370:19447   */\n      0x4e487b7100000000000000000000000000000000000000000000000000000000\n        /* \"#utility.yul\":19367:19368   */\n      0x00\n        /* \"#utility.yul\":19360:19448   */\n      mstore\n        /* \"#utility.yul\":19467:19471   */\n      0x12\n        /* \"#utility.yul\":19464:19465   */\n      0x04\n        /* \"#utility.yul\":19457:19472   */\n      mstore\n        /* \"#utility.yul\":19491:19495   */\n      0x24\n        /* \"#utility.yul\":19488:19489   */\n      0x00\n        /* \"#utility.yul\":19481:19496   */\n      revert\n        /* \"#utility.yul\":19508:19684   */\n    tag_177:\n        /* \"#utility.yul\":19540:19541   */\n      0x00\n        /* \"#utility.yul\":19557:19577   */\n      tag_497\n        /* \"#utility.yul\":19575:19576   */\n      dup3\n        /* \"#utility.yul\":19557:19577   */\n      tag_217\n      jump\t// in\n    tag_497:\n        /* \"#utility.yul\":19552:19577   */\n      swap2\n      pop\n        /* \"#utility.yul\":19591:19611   */\n      tag_498\n        /* \"#utility.yul\":19609:19610   */\n      dup4\n        /* \"#utility.yul\":19591:19611   */\n      tag_217\n      jump\t// in\n    tag_498:\n        /* \"#utility.yul\":19586:19611   */\n      swap3\n      pop\n        /* \"#utility.yul\":19630:19631   */\n      dup3\n        /* \"#utility.yul\":19620:19655   */\n      tag_499\n      jumpi\n        /* \"#utility.yul\":19635:19653   */\n      tag_500\n      tag_274\n      jump\t// in\n    tag_500:\n        /* \"#utility.yul\":19620:19655   */\n    tag_499:\n        /* \"#utility.yul\":19676:19677   */\n      dup3\n        /* \"#utility.yul\":19673:19674   */\n      dup3\n        /* \"#utility.yul\":19669:19678   */\n      mod\n        /* \"#utility.yul\":19664:19678   */\n      swap1\n      pop\n        /* \"#utility.yul\":19508:19684   */\n      swap3\n      swap2\n      pop\n      pop\n      jump\t// out\n        /* \"#utility.yul\":19690:19881   */\n    tag_182:\n        /* \"#utility.yul\":19730:19733   */\n      0x00\n        /* \"#utility.yul\":19749:19769   */\n      tag_502\n        /* \"#utility.yul\":19767:19768   */\n      dup3\n        /* \"#utility.yul\":19749:19769   */\n      tag_217\n      jump\t// in\n    tag_502:\n        /* \"#utility.yul\":19744:19769   */\n      swap2\n      pop\n        /* \"#utility.yul\":19783:19803   */\n      tag_503\n        /* \"#utility.yul\":19801:19802   */\n      dup4\n        /* \"#utility.yul\":19783:19803   */\n      tag_217\n      jump\t// in\n    tag_503:\n        /* \"#utility.yul\":19778:19803   */\n      swap3\n      pop\n        /* \"#utility.yul\":19826:19827   */\n      dup3\n        /* \"#utility.yul\":19823:19824   */\n      dup3\n        /* \"#utility.yul\":19819:19828   */\n      add\n        /* \"#utility.yul\":19812:19828   */\n      swap1\n      pop\n        /* \"#utility.yul\":19847:19850   */\n      dup1\n        /* \"#utility.yul\":19844:19845   */\n      dup3\n        /* \"#utility.yul\":19841:19851   */\n      gt\n        /* \"#utility.yul\":19838:19874   */\n      iszero\n      tag_504\n      jumpi\n        /* \"#utility.yul\":19854:19872   */\n      tag_505\n      tag_253\n      jump\t// in\n    tag_505:\n        /* \"#utility.yul\":19838:19874   */\n    tag_504:\n        /* \"#utility.yul\":19690:19881   */\n      swap3\n      swap2\n      pop\n      pop\n      jump\t// out\n        /* \"#utility.yul\":19887:20072   */\n    tag_184:\n        /* \"#utility.yul\":19927:19928   */\n      0x00\n        /* \"#utility.yul\":19944:19964   */\n      tag_507\n        /* \"#utility.yul\":19962:19963   */\n      dup3\n        /* \"#utility.yul\":19944:19964   */\n      tag_217\n      jump\t// in\n    tag_507:\n        /* \"#utility.yul\":19939:19964   */\n      swap2\n      pop\n        /* \"#utility.yul\":19978:19998   */\n      tag_508\n        /* \"#utility.yul\":19996:19997   */\n      dup4\n        /* \"#utility.yul\":19978:19998   */\n      tag_217\n      jump\t// in\n    tag_508:\n        /* \"#utility.yul\":19973:19998   */\n      swap3\n      pop\n        /* \"#utility.yul\":20017:20018   */\n      dup3\n        /* \"#utility.yul\":20007:20042   */\n      tag_509\n      jumpi\n        /* \"#utility.yul\":20022:20040   */\n      tag_510\n      tag_274\n      jump\t// in\n    tag_510:\n        /* \"#utility.yul\":20007:20042   */\n    tag_509:\n        /* \"#utility.yul\":20064:20065   */\n      dup3\n        /* \"#utility.yul\":20061:20062   */\n      dup3\n        /* \"#utility.yul\":20057:20066   */\n      div\n        /* \"#utility.yul\":20052:20066   */\n      swap1\n      pop\n        /* \"#utility.yul\":19887:20072   */\n      swap3\n      swap2\n      pop\n      pop\n      jump\t// out\n        /* \"#utility.yul\":20078:20226   */\n    tag_275:\n        /* \"#utility.yul\":20180:20191   */\n      0x00\n        /* \"#utility.yul\":20217:20220   */\n      dup2\n        /* \"#utility.yul\":20202:20220   */\n      swap1\n      pop\n        /* \"#utility.yul\":20078:20226   */\n      swap3\n      swap2\n      pop\n      pop\n      jump\t// out\n        /* \"#utility.yul\":20232:20387   */\n    tag_276:\n        /* \"#utility.yul\":20372:20379   */\n      0x6b69747479000000000000000000000000000000000000000000000000000000\n        /* \"#utility.yul\":20368:20369   */\n      0x00\n        /* \"#utility.yul\":20360:20366   */\n      dup3\n        /* \"#utility.yul\":20356:20370   */\n      add\n        /* \"#utility.yul\":20349:20380   */\n      mstore\n        /* \"#utility.yul\":20232:20387   */\n      pop\n      jump\t// out\n        /* \"#utility.yul\":20393:20793   */\n    tag_277:\n        /* \"#utility.yul\":20553:20556   */\n      0x00\n        /* \"#utility.yul\":20574:20658   */\n      tag_514\n        /* \"#utility.yul\":20656:20657   */\n      0x05\n        /* \"#utility.yul\":20651:20654   */\n      dup4\n        /* \"#utility.yul\":20574:20658   */\n      tag_275\n      jump\t// in\n    tag_514:\n        /* \"#utility.yul\":20567:20658   */\n      swap2\n      pop\n        /* \"#utility.yul\":20667:20760   */\n      tag_515\n        /* \"#utility.yul\":20756:20759   */\n      dup3\n        /* \"#utility.yul\":20667:20760   */\n      tag_276\n      jump\t// in\n    tag_515:\n        /* \"#utility.yul\":20785:20786   */\n      0x05\n        /* \"#utility.yul\":20780:20783   */\n      dup3\n        /* \"#utility.yul\":20776:20787   */\n      add\n        /* \"#utility.yul\":20769:20787   */\n      swap1\n      pop\n        /* \"#utility.yul\":20393:20793   */\n      swap2\n      swap1\n      pop\n      jump\t// out\n        /* \"#utility.yul\":20799:21180   */\n    tag_186:\n        /* \"#utility.yul\":20984:20987   */\n      0x00\n        /* \"#utility.yul\":21006:21154   */\n      tag_517\n        /* \"#utility.yul\":21150:21153   */\n      dup3\n        /* \"#utility.yul\":21006:21154   */\n      tag_277\n      jump\t// in\n    tag_517:\n        /* \"#utility.yul\":20999:21154   */\n      swap2\n      pop\n        /* \"#utility.yul\":21171:21174   */\n      dup2\n        /* \"#utility.yul\":21164:21174   */\n      swap1\n      pop\n        /* \"#utility.yul\":20799:21180   */\n      swap2\n      swap1\n      pop\n      jump\t// out\n        /* \"#utility.yul\":21186:21576   */\n    tag_278:\n        /* \"#utility.yul\":21292:21295   */\n      0x00\n        /* \"#utility.yul\":21320:21359   */\n      tag_519\n        /* \"#utility.yul\":21353:21358   */\n      dup3\n        /* \"#utility.yul\":21320:21359   */\n      tag_220\n      jump\t// in\n    tag_519:\n        /* \"#utility.yul\":21375:21464   */\n      tag_520\n        /* \"#utility.yul\":21457:21463   */\n      dup2\n        /* \"#utility.yul\":21452:21455   */\n      dup6\n        /* \"#utility.yul\":21375:21464   */\n      tag_275\n      jump\t// in\n    tag_520:\n        /* \"#utility.yul\":21368:21464   */\n      swap4\n      pop\n        /* \"#utility.yul\":21473:21538   */\n      tag_521\n        /* \"#utility.yul\":21531:21537   */\n      dup2\n        /* \"#utility.yul\":21526:21529   */\n      dup6\n        /* \"#utility.yul\":21519:21523   */\n      0x20\n        /* \"#utility.yul\":21512:21517   */\n      dup7\n        /* \"#utility.yul\":21508:21524   */\n      add\n        /* \"#utility.yul\":21473:21538   */\n      tag_222\n      jump\t// in\n    tag_521:\n        /* \"#utility.yul\":21563:21569   */\n      dup1\n        /* \"#utility.yul\":21558:21561   */\n      dup5\n        /* \"#utility.yul\":21554:21570   */\n      add\n        /* \"#utility.yul\":21547:21570   */\n      swap2\n      pop\n        /* \"#utility.yul\":21296:21576   */\n      pop\n        /* \"#utility.yul\":21186:21576   */\n      swap3\n      swap2\n      pop\n      pop\n      jump\t// out\n        /* \"#utility.yul\":21582:21857   */\n    tag_188:\n        /* \"#utility.yul\":21714:21717   */\n      0x00\n        /* \"#utility.yul\":21736:21831   */\n      tag_523\n        /* \"#utility.yul\":21827:21830   */\n      dup3\n        /* \"#utility.yul\":21818:21824   */\n      dup5\n        /* \"#utility.yul\":21736:21831   */\n      tag_278\n      jump\t// in\n    tag_523:\n        /* \"#utility.yul\":21729:21831   */\n      swap2\n      pop\n        /* \"#utility.yul\":21848:21851   */\n      dup2\n        /* \"#utility.yul\":21841:21851   */\n      swap1\n      pop\n        /* \"#utility.yul\":21582:21857   */\n      swap3\n      swap2\n      pop\n      pop\n      jump\t// out\n        /* \"#utility.yul\":21863:22057   */\n    tag_192:\n        /* \"#utility.yul\":21903:21907   */\n      0x00\n        /* \"#utility.yul\":21923:21943   */\n      tag_525\n        /* \"#utility.yul\":21941:21942   */\n      dup3\n        /* \"#utility.yul\":21923:21943   */\n      tag_217\n      jump\t// in\n    tag_525:\n        /* \"#utility.yul\":21918:21943   */\n      swap2\n      pop\n        /* \"#utility.yul\":21957:21977   */\n      tag_526\n        /* \"#utility.yul\":21975:21976   */\n      dup4\n        /* \"#utility.yul\":21957:21977   */\n      tag_217\n      jump\t// in\n    tag_526:\n        /* \"#utility.yul\":21952:21977   */\n      swap3\n      pop\n        /* \"#utility.yul\":22001:22002   */\n      dup3\n        /* \"#utility.yul\":21998:21999   */\n      dup3\n        /* \"#utility.yul\":21994:22003   */\n      sub\n        /* \"#utility.yul\":21986:22003   */\n      swap1\n      pop\n        /* \"#utility.yul\":22025:22026   */\n      dup2\n        /* \"#utility.yul\":22019:22023   */\n      dup2\n        /* \"#utility.yul\":22016:22027   */\n      gt\n        /* \"#utility.yul\":22013:22050   */\n      iszero\n      tag_527\n      jumpi\n        /* \"#utility.yul\":22030:22048   */\n      tag_528\n      tag_253\n      jump\t// in\n    tag_528:\n        /* \"#utility.yul\":22013:22050   */\n    tag_527:\n        /* \"#utility.yul\":21863:22057   */\n      swap3\n      swap2\n      pop\n      pop\n      jump\t// out\n        /* \"#utility.yul\":22063:23458   */\n    tag_204:\n        /* \"#utility.yul\":22180:22217   */\n      tag_530\n        /* \"#utility.yul\":22213:22216   */\n      dup3\n        /* \"#utility.yul\":22180:22217   */\n      tag_220\n      jump\t// in\n    tag_530:\n        /* \"#utility.yul\":22282:22300   */\n      0xffffffffffffffff\n        /* \"#utility.yul\":22274:22280   */\n      dup2\n        /* \"#utility.yul\":22271:22301   */\n      gt\n        /* \"#utility.yul\":22268:22324   */\n      iszero\n      tag_531\n      jumpi\n        /* \"#utility.yul\":22304:22322   */\n      tag_532\n      tag_125\n      jump\t// in\n    tag_532:\n        /* \"#utility.yul\":22268:22324   */\n    tag_531:\n        /* \"#utility.yul\":22348:22386   */\n      tag_533\n        /* \"#utility.yul\":22380:22384   */\n      dup3\n        /* \"#utility.yul\":22374:22385   */\n      sload\n        /* \"#utility.yul\":22348:22386   */\n      tag_94\n      jump\t// in\n    tag_533:\n        /* \"#utility.yul\":22433:22500   */\n      tag_534\n        /* \"#utility.yul\":22493:22499   */\n      dup3\n        /* \"#utility.yul\":22485:22491   */\n      dup3\n        /* \"#utility.yul\":22479:22483   */\n      dup6\n        /* \"#utility.yul\":22433:22500   */\n      tag_270\n      jump\t// in\n    tag_534:\n        /* \"#utility.yul\":22527:22528   */\n      0x00\n        /* \"#utility.yul\":22551:22555   */\n      0x20\n        /* \"#utility.yul\":22538:22555   */\n      swap1\n      pop\n        /* \"#utility.yul\":22583:22585   */\n      0x1f\n        /* \"#utility.yul\":22575:22581   */\n      dup4\n        /* \"#utility.yul\":22572:22586   */\n      gt\n        /* \"#utility.yul\":22600:22601   */\n      0x01\n        /* \"#utility.yul\":22595:23213   */\n      dup2\n      eq\n      tag_536\n      jumpi\n        /* \"#utility.yul\":23257:23258   */\n      0x00\n        /* \"#utility.yul\":23274:23280   */\n      dup5\n        /* \"#utility.yul\":23271:23348   */\n      iszero\n      tag_537\n      jumpi\n        /* \"#utility.yul\":23323:23332   */\n      dup3\n        /* \"#utility.yul\":23318:23321   */\n      dup8\n        /* \"#utility.yul\":23314:23333   */\n      add\n        /* \"#utility.yul\":23308:23334   */\n      mload\n        /* \"#utility.yul\":23299:23334   */\n      swap1\n      pop\n        /* \"#utility.yul\":23271:23348   */\n    tag_537:\n        /* \"#utility.yul\":23374:23441   */\n      tag_538\n        /* \"#utility.yul\":23434:23440   */\n      dup6\n        /* \"#utility.yul\":23427:23432   */\n      dup3\n        /* \"#utility.yul\":23374:23441   */\n      tag_273\n      jump\t// in\n    tag_538:\n        /* \"#utility.yul\":23368:23372   */\n      dup7\n        /* \"#utility.yul\":23361:23442   */\n      sstore\n        /* \"#utility.yul\":23230:23452   */\n      pop\n        /* \"#utility.yul\":22565:23452   */\n      jump(tag_535)\n        /* \"#utility.yul\":22595:23213   */\n    tag_536:\n        /* \"#utility.yul\":22647:22651   */\n      0x1f\n        /* \"#utility.yul\":22643:22652   */\n      not\n        /* \"#utility.yul\":22635:22641   */\n      dup5\n        /* \"#utility.yul\":22631:22653   */\n      and\n        /* \"#utility.yul\":22681:22718   */\n      tag_539\n        /* \"#utility.yul\":22713:22717   */\n      dup7\n        /* \"#utility.yul\":22681:22718   */\n      tag_259\n      jump\t// in\n    tag_539:\n        /* \"#utility.yul\":22740:22741   */\n      0x00\n        /* \"#utility.yul\":22754:22962   */\n    tag_540:\n        /* \"#utility.yul\":22768:22775   */\n      dup3\n        /* \"#utility.yul\":22765:22766   */\n      dup2\n        /* \"#utility.yul\":22762:22776   */\n      lt\n        /* \"#utility.yul\":22754:22962   */\n      iszero\n      tag_542\n      jumpi\n        /* \"#utility.yul\":22847:22856   */\n      dup5\n        /* \"#utility.yul\":22842:22845   */\n      dup10\n        /* \"#utility.yul\":22838:22857   */\n      add\n        /* \"#utility.yul\":22832:22858   */\n      mload\n        /* \"#utility.yul\":22824:22830   */\n      dup3\n        /* \"#utility.yul\":22817:22859   */\n      sstore\n        /* \"#utility.yul\":22898:22899   */\n      0x01\n        /* \"#utility.yul\":22890:22896   */\n      dup3\n        /* \"#utility.yul\":22886:22900   */\n      add\n        /* \"#utility.yul\":22876:22900   */\n      swap2\n      pop\n        /* \"#utility.yul\":22945:22947   */\n      0x20\n        /* \"#utility.yul\":22934:22943   */\n      dup6\n        /* \"#utility.yul\":22930:22948   */\n      add\n        /* \"#utility.yul\":22917:22948   */\n      swap5\n      pop\n        /* \"#utility.yul\":22791:22795   */\n      0x20\n        /* \"#utility.yul\":22788:22789   */\n      dup2\n        /* \"#utility.yul\":22784:22796   */\n      add\n        /* \"#utility.yul\":22779:22796   */\n      swap1\n      pop\n        /* \"#utility.yul\":22754:22962   */\n      jump(tag_540)\n    tag_542:\n        /* \"#utility.yul\":22990:22996   */\n      dup7\n        /* \"#utility.yul\":22981:22988   */\n      dup4\n        /* \"#utility.yul\":22978:22997   */\n      lt\n        /* \"#utility.yul\":22975:23154   */\n      iszero\n      tag_543\n      jumpi\n        /* \"#utility.yul\":23048:23057   */\n      dup5\n        /* \"#utility.yul\":23043:23046   */\n      dup10\n        /* \"#utility.yul\":23039:23058   */\n      add\n        /* \"#utility.yul\":23033:23059   */\n      mload\n        /* \"#utility.yul\":23091:23139   */\n      tag_544\n        /* \"#utility.yul\":23133:23137   */\n      0x1f\n        /* \"#utility.yul\":23125:23131   */\n      dup10\n        /* \"#utility.yul\":23121:23138   */\n      and\n        /* \"#utility.yul\":23110:23119   */\n      dup3\n        /* \"#utility.yul\":23091:23139   */\n      tag_272\n      jump\t// in\n    tag_544:\n        /* \"#utility.yul\":23083:23089   */\n      dup4\n        /* \"#utility.yul\":23076:23140   */\n      sstore\n        /* \"#utility.yul\":22998:23154   */\n      pop\n        /* \"#utility.yul\":22975:23154   */\n    tag_543:\n        /* \"#utility.yul\":23200:23201   */\n      0x01\n        /* \"#utility.yul\":23196:23197   */\n      0x02\n        /* \"#utility.yul\":23188:23194   */\n      dup9\n        /* \"#utility.yul\":23184:23198   */\n      mul\n        /* \"#utility.yul\":23180:23202   */\n      add\n        /* \"#utility.yul\":23174:23178   */\n      dup9\n        /* \"#utility.yul\":23167:23203   */\n      sstore\n        /* \"#utility.yul\":22602:23213   */\n      pop\n      pop\n      pop\n        /* \"#utility.yul\":22565:23452   */\n    tag_535:\n      pop\n        /* \"#utility.yul\":22155:23458   */\n      pop\n      pop\n      pop\n        /* \"#utility.yul\":22063:23458   */\n      pop\n      pop\n      jump\t// out\n        /* \"#utility.yul\":23464:23997   */\n    tag_208:\n        /* \"#utility.yul\":23633:23637   */\n      0x00\n        /* \"#utility.yul\":23671:23673   */\n      0x60\n        /* \"#utility.yul\":23660:23669   */\n      dup3\n        /* \"#utility.yul\":23656:23674   */\n      add\n        /* \"#utility.yul\":23648:23674   */\n      swap1\n      pop\n        /* \"#utility.yul\":23684:23755   */\n      tag_546\n        /* \"#utility.yul\":23752:23753   */\n      0x00\n        /* \"#utility.yul\":23741:23750   */\n      dup4\n        /* \"#utility.yul\":23737:23754   */\n      add\n        /* \"#utility.yul\":23728:23734   */\n      dup7\n        /* \"#utility.yul\":23684:23755   */\n      tag_225\n      jump\t// in\n    tag_546:\n        /* \"#utility.yul\":23802:23811   */\n      dup2\n        /* \"#utility.yul\":23796:23800   */\n      dup2\n        /* \"#utility.yul\":23792:23812   */\n      sub\n        /* \"#utility.yul\":23787:23789   */\n      0x20\n        /* \"#utility.yul\":23776:23785   */\n      dup4\n        /* \"#utility.yul\":23772:23790   */\n      add\n        /* \"#utility.yul\":23765:23813   */\n      mstore\n        /* \"#utility.yul\":23830:23908   */\n      tag_547\n        /* \"#utility.yul\":23903:23907   */\n      dup2\n        /* \"#utility.yul\":23894:23900   */\n      dup6\n        /* \"#utility.yul\":23830:23908   */\n      tag_224\n      jump\t// in\n    tag_547:\n        /* \"#utility.yul\":23822:23908   */\n      swap1\n      pop\n        /* \"#utility.yul\":23918:23990   */\n      tag_548\n        /* \"#utility.yul\":23986:23988   */\n      0x40\n        /* \"#utility.yul\":23975:23984   */\n      dup4\n        /* \"#utility.yul\":23971:23989   */\n      add\n        /* \"#utility.yul\":23962:23968   */\n      dup5\n        /* \"#utility.yul\":23918:23990   */\n      tag_225\n      jump\t// in\n    tag_548:\n        /* \"#utility.yul\":23464:23997   */\n      swap5\n      swap4\n      pop\n      pop\n      pop\n      pop\n      jump\t// out\n\n    auxdata: 0xa26469706673582212200305580c0d772b7ec5a15cc6cd12acf19dd86ac9b194ebb78995bfcc6365da3f64736f6c634300081e0033\n}\n",
				"bytecode": {
					"linkReferences": {},
					"object": "60806040526010600155600154600a610018919061025c565b6002556201518060035566038d7ea4c68000600855348015610038575f5ffd5b50335f5f6101000a81548173ffffffffffffffffffffffffffffffffffffffff021916908373ffffffffffffffffffffffffffffffffffffffff1602179055505f5f9054906101000a900473ffffffffffffffffffffffffffffffffffffffff1673ffffffffffffffffffffffffffffffffffffffff165f73ffffffffffffffffffffffffffffffffffffffff167f8be0079c531659141344cd1fd0a4f28419497f9722a3daafe3b4186f6b6457e060405160405180910390a36102a6565b7f4e487b71000000000000000000000000000000000000000000000000000000005f52601160045260245ffd5b5f8160011c9050919050565b5f5f8291508390505b600185111561017957808604811115610155576101546100f7565b5b60018516156101645780820291505b808102905061017285610124565b9450610139565b94509492505050565b5f82610191576001905061024c565b8161019e575f905061024c565b81600181146101b457600281146101be576101ed565b600191505061024c565b60ff8411156101d0576101cf6100f7565b5b8360020a9150848211156101e7576101e66100f7565b5b5061024c565b5060208310610133831016604e8410600b84101617156102225782820a90508381111561021d5761021c6100f7565b5b61024c565b61022f8484846001610130565b92509050818404811115610246576102456100f7565b5b81810290505b9392505050565b5f819050919050565b5f61026682610253565b915061027183610253565b925061029e7fffffffffffffffffffffffffffffffffffffffffffffffffffffffffffffffff8484610182565b905092915050565b611d2c806102b35f395ff3fe6080604052600436106100dc575f3560e01c80638f32d59b1161007e578063ad82277811610058578063ad82277814610263578063c39cbef11461028b578063ccf670f8146102b3578063f2fde38b146102db576100dc565b80638f32d59b146101d55780639ed21359146101ff5780639ef0fe031461023b576100dc565b80635f4623f1116100ba5780635f4623f1146101455780635faf28801461016d578063715018a6146101955780638da5cb5b146101ab576100dc565b80630ce90ec2146100e05780632052465e146100fc5780633ccfd60b1461013b575b5f5ffd5b6100fa60048036038101906100f59190611046565b610303565b005b348015610107575f5ffd5b50610122600480360381019061011d9190611046565b6103db565b604051610132949392919061110e565b60405180910390f35b6101436104bb565b005b348015610150575f5ffd5b5061016b600480360381019061016691906111b2565b61050d565b005b348015610178575f5ffd5b50610193600480360381019061018e91906111dd565b610560565b005b3480156101a0575f5ffd5b506101a961062e565b005b3480156101b6575f5ffd5b506101bf6106f9565b6040516101cc919061122a565b60405180910390f35b3480156101e0575f5ffd5b506101e9610720565b6040516101f6919061125d565b60405180910390f35b34801561020a575f5ffd5b50610225600480360381019061022091906111b2565b610775565b604051610232919061132d565b60405180910390f35b348015610246575f5ffd5b50610261600480360381019061025c91906111dd565b6108c0565b005b34801561026e575f5ffd5b5061028960048036038101906102849190611479565b6109ab565b005b348015610296575f5ffd5b506102b160048036038101906102ac919061151d565b610a0d565b005b3480156102be575f5ffd5b506102d960048036038101906102d49190611046565b610ae6565b005b3480156102e6575f5ffd5b5061030160048036038101906102fc91906111b2565b610b00565b005b60055f8281526020019081526020015f205f9054906101000a900473ffffffffffffffffffffffffffffffffffffffff1673ffffffffffffffffffffffffffffffffffffffff163373ffffffffffffffffffffffffffffffffffffffff161461036a575f5ffd5b6008543414610377575f5ffd5b6004818154811061038b5761038a61157a565b5b905f5260205f2090600302016002015f81819054906101000a900463ffffffff16809291906103b9906115d4565b91906101000a81548163ffffffff021916908363ffffffff1602179055505050565b600481815481106103ea575f80fd5b905f5260205f2090600302015f91509050805f0180546104099061162c565b80601f01602080910402602001604051908101604052809291908181526020018280546104359061162c565b80156104805780601f1061045757610100808354040283529160200191610480565b820191905f5260205f20905b81548152906001019060200180831161046357829003601f168201915b505050505090806001015490806002015f9054906101000a900463ffffffff16908060020160049054906101000a900463ffffffff16905084565b5f6104c46106f9565b90508073ffffffffffffffffffffffffffffffffffffffff166108fc4790811502906040515f60405180830381858888f19350505050158015610509573d5f5f3e3d5ffd5b5050565b610515610720565b61051d575f5ffd5b8060075f6101000a81548173ffffffffffffffffffffffffffffffffffffffff021916908373ffffffffffffffffffffffffffffffffffffffff16021790555050565b6014828163ffffffff166004828154811061057e5761057d61157a565b5b905f5260205f2090600302016002015f9054906101000a905050503373ffffffffffffffffffffffffffffffffffffffff1660055f8681526020019081526020015f205f9054906101000a900473ffffffffffffffffffffffffffffffffffffffff1673ffffffffffffffffffffffffffffffffffffffff1614610600575f5ffd5b82600485815481106106155761061461157a565b5b905f5260205f2090600302016001018190555050505050565b610636610720565b61063e575f5ffd5b5f73ffffffffffffffffffffffffffffffffffffffff165f5f9054906101000a900473ffffffffffffffffffffffffffffffffffffffff1673ffffffffffffffffffffffffffffffffffffffff167f8be0079c531659141344cd1fd0a4f28419497f9722a3daafe3b4186f6b6457e060405160405180910390a35f5f5f6101000a81548173ffffffffffffffffffffffffffffffffffffffff021916908373ffffffffffffffffffffffffffffffffffffffff160217905550565b5f5f5f9054906101000a900473ffffffffffffffffffffffffffffffffffffffff16905090565b5f5f5f9054906101000a900473ffffffffffffffffffffffffffffffffffffffff1673ffffffffffffffffffffffffffffffffffffffff163373ffffffffffffffffffffffffffffffffffffffff1614905090565b60605f60065f8473ffffffffffffffffffffffffffffffffffffffff1673ffffffffffffffffffffffffffffffffffffffff1681526020019081526020015f205467ffffffffffffffff8111156107cf576107ce611355565b5b6040519080825280602002602001820160405280156107fd5781602001602082028036833780820191505090505b5090505f5f90505f5f90505b6004805490508110156108b5578473ffffffffffffffffffffffffffffffffffffffff1660055f8381526020019081526020015f205f9054906101000a900473ffffffffffffffffffffffffffffffffffffffff1673ffffffffffffffffffffffffffffffffffffffff16036108a8578083838151811061088d5761088c61157a565b5b60200260200101818152505081806108a49061165c565b9250505b8080600101915050610809565b508192505050919050565b5f60075f9054906101000a900473ffffffffffffffffffffffffffffffffffffffff1673ffffffffffffffffffffffffffffffffffffffff1663e98b7f4d836040518263ffffffff1660e01b815260040161091b91906116a3565b61014060405180830381865afa158015610937573d5f5f3e3d5ffd5b505050506040513d601f19601f8201168201806040525081019061095b91906116fa565b99505050505050505050506109a683826040518060400160405280600581526020017f6b69747479000000000000000000000000000000000000000000000000000000815250610b1c565b505050565b5f60065f3373ffffffffffffffffffffffffffffffffffffffff1673ffffffffffffffffffffffffffffffffffffffff1681526020019081526020015f2054146109f3575f5ffd5b5f6109fd82610cad565b9050610a098282610cf0565b5050565b6002838163ffffffff1660048281548110610a2b57610a2a61157a565b5b905f5260205f2090600302016002015f9054906101000a905050503373ffffffffffffffffffffffffffffffffffffffff1660055f8781526020019081526020015f205f9054906101000a900473ffffffffffffffffffffffffffffffffffffffff1673ffffffffffffffffffffffffffffffffffffffff1614610aad575f5ffd5b838360048781548110610ac357610ac261157a565b5b905f5260205f2090600302015f019182610ade92919061197d565b505050505050565b610aee610720565b610af6575f5ffd5b8060088190555050565b610b08610720565b610b10575f5ffd5b610b1981610eb6565b50565b3373ffffffffffffffffffffffffffffffffffffffff1660055f8581526020019081526020015f205f9054906101000a900473ffffffffffffffffffffffffffffffffffffffff1673ffffffffffffffffffffffffffffffffffffffff1614610b83575f5ffd5b5f60048481548110610b9857610b9761157a565b5b905f5260205f209060030201905060025483610bb49190611a77565b9250610bbf81610fa9565b610bc7575f5ffd5b5f6002826001015485610bda9190611aa7565b610be49190611ada565b9050604051602001610bf590611b5e565b6040516020818303038152906040528051906020012083604051602001610c1c9190611ba2565b6040516020818303038152906040528051906020012003610c5e576063606482610c469190611a77565b82610c519190611bb8565b610c5b9190611aa7565b90505b610c9d6040518060400160405280600681526020017f4e6f4e616d65000000000000000000000000000000000000000000000000000081525082610cf0565b610ca682610fcf565b5050505050565b5f5f82604051602001610cc09190611ba2565b604051602081830303815290604052805190602001205f1c905060025481610ce89190611a77565b915050919050565b60046040518060800160405280848152602001838152602001600163ffffffff16815260200160035442610d249190611aa7565b63ffffffff16815250908060018154018082558091505060019003905f5260205f2090600302015f909190919091505f820151815f019081610d669190611beb565b50602082015181600101556040820151816002015f6101000a81548163ffffffff021916908363ffffffff16021790555060608201518160020160046101000a81548163ffffffff021916908363ffffffff16021790555050505f6001600480549050610dd39190611bb8565b90503360055f8381526020019081526020015f205f6101000a81548173ffffffffffffffffffffffffffffffffffffffff021916908373ffffffffffffffffffffffffffffffffffffffff16021790555060065f3373ffffffffffffffffffffffffffffffffffffffff1673ffffffffffffffffffffffffffffffffffffffff1681526020019081526020015f205f815480929190610e719061165c565b91905055507f88f026aacbbecc90c18411df4b1185fd8d9be2470f1962f192bf84a27d0704b7818484604051610ea993929190611cba565b60405180910390a1505050565b5f73ffffffffffffffffffffffffffffffffffffffff168173ffffffffffffffffffffffffffffffffffffffff1603610eed575f5ffd5b8073ffffffffffffffffffffffffffffffffffffffff165f5f9054906101000a900473ffffffffffffffffffffffffffffffffffffffff1673ffffffffffffffffffffffffffffffffffffffff167f8be0079c531659141344cd1fd0a4f28419497f9722a3daafe3b4186f6b6457e060405160405180910390a3805f5f6101000a81548173ffffffffffffffffffffffffffffffffffffffff021916908373ffffffffffffffffffffffffffffffffffffffff16021790555050565b5f428260020160049054906101000a900463ffffffff1663ffffffff1611159050919050565b60035442610fdd9190611aa7565b8160020160046101000a81548163ffffffff021916908363ffffffff16021790555050565b5f604051905090565b5f5ffd5b5f5ffd5b5f819050919050565b61102581611013565b811461102f575f5ffd5b50565b5f813590506110408161101c565b92915050565b5f6020828403121561105b5761105a61100b565b5b5f61106884828501611032565b91505092915050565b5f81519050919050565b5f82825260208201905092915050565b8281835e5f83830152505050565b5f601f19601f8301169050919050565b5f6110b382611071565b6110bd818561107b565b93506110cd81856020860161108b565b6110d681611099565b840191505092915050565b6110ea81611013565b82525050565b5f63ffffffff82169050919050565b611108816110f0565b82525050565b5f6080820190508181035f83015261112681876110a9565b905061113560208301866110e1565b61114260408301856110ff565b61114f60608301846110ff565b95945050505050565b5f73ffffffffffffffffffffffffffffffffffffffff82169050919050565b5f61118182611158565b9050919050565b61119181611177565b811461119b575f5ffd5b50565b5f813590506111ac81611188565b92915050565b5f602082840312156111c7576111c661100b565b5b5f6111d48482850161119e565b91505092915050565b5f5f604083850312156111f3576111f261100b565b5b5f61120085828601611032565b925050602061121185828601611032565b9150509250929050565b61122481611177565b82525050565b5f60208201905061123d5f83018461121b565b92915050565b5f8115159050919050565b61125781611243565b82525050565b5f6020820190506112705f83018461124e565b92915050565b5f81519050919050565b5f82825260208201905092915050565b5f819050602082019050919050565b6112a881611013565b82525050565b5f6112b9838361129f565b60208301905092915050565b5f602082019050919050565b5f6112db82611276565b6112e58185611280565b93506112f083611290565b805f5b8381101561132057815161130788826112ae565b9750611312836112c5565b9250506001810190506112f3565b5085935050505092915050565b5f6020820190508181035f83015261134581846112d1565b905092915050565b5f5ffd5b5f5ffd5b7f4e487b71000000000000000000000000000000000000000000000000000000005f52604160045260245ffd5b61138b82611099565b810181811067ffffffffffffffff821117156113aa576113a9611355565b5b80604052505050565b5f6113bc611002565b90506113c88282611382565b919050565b5f67ffffffffffffffff8211156113e7576113e6611355565b5b6113f082611099565b9050602081019050919050565b828183375f83830152505050565b5f61141d611418846113cd565b6113b3565b90508281526020810184848401111561143957611438611351565b5b6114448482856113fd565b509392505050565b5f82601f8301126114605761145f61134d565b5b813561147084826020860161140b565b91505092915050565b5f6020828403121561148e5761148d61100b565b5b5f82013567ffffffffffffffff8111156114ab576114aa61100f565b5b6114b78482850161144c565b91505092915050565b5f5ffd5b5f5ffd5b5f5f83601f8401126114dd576114dc61134d565b5b8235905067ffffffffffffffff8111156114fa576114f96114c0565b5b602083019150836001820283011115611516576115156114c4565b5b9250929050565b5f5f5f604084860312156115345761153361100b565b5b5f61154186828701611032565b935050602084013567ffffffffffffffff8111156115625761156161100f565b5b61156e868287016114c8565b92509250509250925092565b7f4e487b71000000000000000000000000000000000000000000000000000000005f52603260045260245ffd5b7f4e487b71000000000000000000000000000000000000000000000000000000005f52601160045260245ffd5b5f6115de826110f0565b915063ffffffff82036115f4576115f36115a7565b5b600182019050919050565b7f4e487b71000000000000000000000000000000000000000000000000000000005f52602260045260245ffd5b5f600282049050600182168061164357607f821691505b602082108103611656576116556115ff565b5b50919050565b5f61166682611013565b91507fffffffffffffffffffffffffffffffffffffffffffffffffffffffffffffffff8203611698576116976115a7565b5b600182019050919050565b5f6020820190506116b65f8301846110e1565b92915050565b6116c581611243565b81146116cf575f5ffd5b50565b5f815190506116e0816116bc565b92915050565b5f815190506116f48161101c565b92915050565b5f5f5f5f5f5f5f5f5f5f6101408b8d0312156117195761171861100b565b5b5f6117268d828e016116d2565b9a505060206117378d828e016116d2565b99505060406117488d828e016116e6565b98505060606117598d828e016116e6565b975050608061176a8d828e016116e6565b96505060a061177b8d828e016116e6565b95505060c061178c8d828e016116e6565b94505060e061179d8d828e016116e6565b9350506101006117af8d828e016116e6565b9250506101206117c18d828e016116e6565b9150509295989b9194979a5092959850565b5f82905092915050565b5f819050815f5260205f209050919050565b5f6020601f8301049050919050565b5f82821b905092915050565b5f600883026118397fffffffffffffffffffffffffffffffffffffffffffffffffffffffffffffffff826117fe565b61184386836117fe565b95508019841693508086168417925050509392505050565b5f819050919050565b5f61187e61187961187484611013565b61185b565b611013565b9050919050565b5f819050919050565b61189783611864565b6118ab6118a382611885565b84845461180a565b825550505050565b5f5f905090565b6118c26118b3565b6118cd81848461188e565b505050565b5b818110156118f0576118e55f826118ba565b6001810190506118d3565b5050565b601f82111561193557611906816117dd565b61190f846117ef565b8101602085101561191e578190505b61193261192a856117ef565b8301826118d2565b50505b505050565b5f82821c905092915050565b5f6119555f198460080261193a565b1980831691505092915050565b5f61196d8383611946565b9150826002028217905092915050565b61198783836117d3565b67ffffffffffffffff8111156119a05761199f611355565b5b6119aa825461162c565b6119b58282856118f4565b5f601f8311600181146119e2575f84156119d0578287013590505b6119da8582611962565b865550611a41565b601f1984166119f0866117dd565b5f5b82811015611a17578489013582556001820191506020850194506020810190506119f2565b86831015611a345784890135611a30601f891682611946565b8355505b6001600288020188555050505b50505050505050565b7f4e487b71000000000000000000000000000000000000000000000000000000005f52601260045260245ffd5b5f611a8182611013565b9150611a8c83611013565b925082611a9c57611a9b611a4a565b5b828206905092915050565b5f611ab182611013565b9150611abc83611013565b9250828201905080821115611ad457611ad36115a7565b5b92915050565b5f611ae482611013565b9150611aef83611013565b925082611aff57611afe611a4a565b5b828204905092915050565b5f81905092915050565b7f6b697474790000000000000000000000000000000000000000000000000000005f82015250565b5f611b48600583611b0a565b9150611b5382611b14565b600582019050919050565b5f611b6882611b3c565b9150819050919050565b5f611b7c82611071565b611b868185611b0a565b9350611b9681856020860161108b565b80840191505092915050565b5f611bad8284611b72565b915081905092915050565b5f611bc282611013565b9150611bcd83611013565b9250828203905081811115611be557611be46115a7565b5b92915050565b611bf482611071565b67ffffffffffffffff811115611c0d57611c0c611355565b5b611c17825461162c565b611c228282856118f4565b5f60209050601f831160018114611c53575f8415611c41578287015190505b611c4b8582611962565b865550611cb2565b601f198416611c61866117dd565b5f5b82811015611c8857848901518255600182019150602085019450602081019050611c63565b86831015611ca55784890151611ca1601f891682611946565b8355505b6001600288020188555050505b505050505050565b5f606082019050611ccd5f8301866110e1565b8181036020830152611cdf81856110a9565b9050611cee60408301846110e1565b94935050505056fea26469706673582212200305580c0d772b7ec5a15cc6cd12acf19dd86ac9b194ebb78995bfcc6365da3f64736f6c634300081e0033",
					"opcodes": "PUSH1 0x80 PUSH1 0x40 MSTORE PUSH1 0x10 PUSH1 0x1 SSTORE PUSH1 0x1 SLOAD PUSH1 0xA PUSH2 0x18 SWAP2 SWAP1 PUSH2 0x25C JUMP JUMPDEST PUSH1 0x2 SSTORE PUSH3 0x15180 PUSH1 0x3 SSTORE PUSH7 0x38D7EA4C68000 PUSH1 0x8 SSTORE CALLVALUE DUP1 ISZERO PUSH2 0x38 JUMPI PUSH0 PUSH0 REVERT JUMPDEST POP CALLER PUSH0 PUSH0 PUSH2 0x100 EXP DUP2 SLOAD DUP2 PUSH20 0xFFFFFFFFFFFFFFFFFFFFFFFFFFFFFFFFFFFFFFFF MUL NOT AND SWAP1 DUP4 PUSH20 0xFFFFFFFFFFFFFFFFFFFFFFFFFFFFFFFFFFFFFFFF AND MUL OR SWAP1 SSTORE POP PUSH0 PUSH0 SWAP1 SLOAD SWAP1 PUSH2 0x100 EXP SWAP1 DIV PUSH20 0xFFFFFFFFFFFFFFFFFFFFFFFFFFFFFFFFFFFFFFFF AND PUSH20 0xFFFFFFFFFFFFFFFFFFFFFFFFFFFFFFFFFFFFFFFF AND PUSH0 PUSH20 0xFFFFFFFFFFFFFFFFFFFFFFFFFFFFFFFFFFFFFFFF AND PUSH32 0x8BE0079C531659141344CD1FD0A4F28419497F9722A3DAAFE3B4186F6B6457E0 PUSH1 0x40 MLOAD PUSH1 0x40 MLOAD DUP1 SWAP2 SUB SWAP1 LOG3 PUSH2 0x2A6 JUMP JUMPDEST PUSH32 0x4E487B7100000000000000000000000000000000000000000000000000000000 PUSH0 MSTORE PUSH1 0x11 PUSH1 0x4 MSTORE PUSH1 0x24 PUSH0 REVERT JUMPDEST PUSH0 DUP2 PUSH1 0x1 SHR SWAP1 POP SWAP2 SWAP1 POP JUMP JUMPDEST PUSH0 PUSH0 DUP3 SWAP2 POP DUP4 SWAP1 POP JUMPDEST PUSH1 0x1 DUP6 GT ISZERO PUSH2 0x179 JUMPI DUP1 DUP7 DIV DUP2 GT ISZERO PUSH2 0x155 JUMPI PUSH2 0x154 PUSH2 0xF7 JUMP JUMPDEST JUMPDEST PUSH1 0x1 DUP6 AND ISZERO PUSH2 0x164 JUMPI DUP1 DUP3 MUL SWAP2 POP JUMPDEST DUP1 DUP2 MUL SWAP1 POP PUSH2 0x172 DUP6 PUSH2 0x124 JUMP JUMPDEST SWAP5 POP PUSH2 0x139 JUMP JUMPDEST SWAP5 POP SWAP5 SWAP3 POP POP POP JUMP JUMPDEST PUSH0 DUP3 PUSH2 0x191 JUMPI PUSH1 0x1 SWAP1 POP PUSH2 0x24C JUMP JUMPDEST DUP2 PUSH2 0x19E JUMPI PUSH0 SWAP1 POP PUSH2 0x24C JUMP JUMPDEST DUP2 PUSH1 0x1 DUP2 EQ PUSH2 0x1B4 JUMPI PUSH1 0x2 DUP2 EQ PUSH2 0x1BE JUMPI PUSH2 0x1ED JUMP JUMPDEST PUSH1 0x1 SWAP2 POP POP PUSH2 0x24C JUMP JUMPDEST PUSH1 0xFF DUP5 GT ISZERO PUSH2 0x1D0 JUMPI PUSH2 0x1CF PUSH2 0xF7 JUMP JUMPDEST JUMPDEST DUP4 PUSH1 0x2 EXP SWAP2 POP DUP5 DUP3 GT ISZERO PUSH2 0x1E7 JUMPI PUSH2 0x1E6 PUSH2 0xF7 JUMP JUMPDEST JUMPDEST POP PUSH2 0x24C JUMP JUMPDEST POP PUSH1 0x20 DUP4 LT PUSH2 0x133 DUP4 LT AND PUSH1 0x4E DUP5 LT PUSH1 0xB DUP5 LT AND OR ISZERO PUSH2 0x222 JUMPI DUP3 DUP3 EXP SWAP1 POP DUP4 DUP2 GT ISZERO PUSH2 0x21D JUMPI PUSH2 0x21C PUSH2 0xF7 JUMP JUMPDEST JUMPDEST PUSH2 0x24C JUMP JUMPDEST PUSH2 0x22F DUP5 DUP5 DUP5 PUSH1 0x1 PUSH2 0x130 JUMP JUMPDEST SWAP3 POP SWAP1 POP DUP2 DUP5 DIV DUP2 GT ISZERO PUSH2 0x246 JUMPI PUSH2 0x245 PUSH2 0xF7 JUMP JUMPDEST JUMPDEST DUP2 DUP2 MUL SWAP1 POP JUMPDEST SWAP4 SWAP3 POP POP POP JUMP JUMPDEST PUSH0 DUP2 SWAP1 POP SWAP2 SWAP1 POP JUMP JUMPDEST PUSH0 PUSH2 0x266 DUP3 PUSH2 0x253 JUMP JUMPDEST SWAP2 POP PUSH2 0x271 DUP4 PUSH2 0x253 JUMP JUMPDEST SWAP3 POP PUSH2 0x29E PUSH32 0xFFFFFFFFFFFFFFFFFFFFFFFFFFFFFFFFFFFFFFFFFFFFFFFFFFFFFFFFFFFFFFFF DUP5 DUP5 PUSH2 0x182 JUMP JUMPDEST SWAP1 POP SWAP3 SWAP2 POP POP JUMP JUMPDEST PUSH2 0x1D2C DUP1 PUSH2 0x2B3 PUSH0 CODECOPY PUSH0 RETURN INVALID PUSH1 0x80 PUSH1 0x40 MSTORE PUSH1 0x4 CALLDATASIZE LT PUSH2 0xDC JUMPI PUSH0 CALLDATALOAD PUSH1 0xE0 SHR DUP1 PUSH4 0x8F32D59B GT PUSH2 0x7E JUMPI DUP1 PUSH4 0xAD822778 GT PUSH2 0x58 JUMPI DUP1 PUSH4 0xAD822778 EQ PUSH2 0x263 JUMPI DUP1 PUSH4 0xC39CBEF1 EQ PUSH2 0x28B JUMPI DUP1 PUSH4 0xCCF670F8 EQ PUSH2 0x2B3 JUMPI DUP1 PUSH4 0xF2FDE38B EQ PUSH2 0x2DB JUMPI PUSH2 0xDC JUMP JUMPDEST DUP1 PUSH4 0x8F32D59B EQ PUSH2 0x1D5 JUMPI DUP1 PUSH4 0x9ED21359 EQ PUSH2 0x1FF JUMPI DUP1 PUSH4 0x9EF0FE03 EQ PUSH2 0x23B JUMPI PUSH2 0xDC JUMP JUMPDEST DUP1 PUSH4 0x5F4623F1 GT PUSH2 0xBA JUMPI DUP1 PUSH4 0x5F4623F1 EQ PUSH2 0x145 JUMPI DUP1 PUSH4 0x5FAF2880 EQ PUSH2 0x16D JUMPI DUP1 PUSH4 0x715018A6 EQ PUSH2 0x195 JUMPI DUP1 PUSH4 0x8DA5CB5B EQ PUSH2 0x1AB JUMPI PUSH2 0xDC JUMP JUMPDEST DUP1 PUSH4 0xCE90EC2 EQ PUSH2 0xE0 JUMPI DUP1 PUSH4 0x2052465E EQ PUSH2 0xFC JUMPI DUP1 PUSH4 0x3CCFD60B EQ PUSH2 0x13B JUMPI JUMPDEST PUSH0 PUSH0 REVERT JUMPDEST PUSH2 0xFA PUSH1 0x4 DUP1 CALLDATASIZE SUB DUP2 ADD SWAP1 PUSH2 0xF5 SWAP2 SWAP1 PUSH2 0x1046 JUMP JUMPDEST PUSH2 0x303 JUMP JUMPDEST STOP JUMPDEST CALLVALUE DUP1 ISZERO PUSH2 0x107 JUMPI PUSH0 PUSH0 REVERT JUMPDEST POP PUSH2 0x122 PUSH1 0x4 DUP1 CALLDATASIZE SUB DUP2 ADD SWAP1 PUSH2 0x11D SWAP2 SWAP1 PUSH2 0x1046 JUMP JUMPDEST PUSH2 0x3DB JUMP JUMPDEST PUSH1 0x40 MLOAD PUSH2 0x132 SWAP5 SWAP4 SWAP3 SWAP2 SWAP1 PUSH2 0x110E JUMP JUMPDEST PUSH1 0x40 MLOAD DUP1 SWAP2 SUB SWAP1 RETURN JUMPDEST PUSH2 0x143 PUSH2 0x4BB JUMP JUMPDEST STOP JUMPDEST CALLVALUE DUP1 ISZERO PUSH2 0x150 JUMPI PUSH0 PUSH0 REVERT JUMPDEST POP PUSH2 0x16B PUSH1 0x4 DUP1 CALLDATASIZE SUB DUP2 ADD SWAP1 PUSH2 0x166 SWAP2 SWAP1 PUSH2 0x11B2 JUMP JUMPDEST PUSH2 0x50D JUMP JUMPDEST STOP JUMPDEST CALLVALUE DUP1 ISZERO PUSH2 0x178 JUMPI PUSH0 PUSH0 REVERT JUMPDEST POP PUSH2 0x193 PUSH1 0x4 DUP1 CALLDATASIZE SUB DUP2 ADD SWAP1 PUSH2 0x18E SWAP2 SWAP1 PUSH2 0x11DD JUMP JUMPDEST PUSH2 0x560 JUMP JUMPDEST STOP JUMPDEST CALLVALUE DUP1 ISZERO PUSH2 0x1A0 JUMPI PUSH0 PUSH0 REVERT JUMPDEST POP PUSH2 0x1A9 PUSH2 0x62E JUMP JUMPDEST STOP JUMPDEST CALLVALUE DUP1 ISZERO PUSH2 0x1B6 JUMPI PUSH0 PUSH0 REVERT JUMPDEST POP PUSH2 0x1BF PUSH2 0x6F9 JUMP JUMPDEST PUSH1 0x40 MLOAD PUSH2 0x1CC SWAP2 SWAP1 PUSH2 0x122A JUMP JUMPDEST PUSH1 0x40 MLOAD DUP1 SWAP2 SUB SWAP1 RETURN JUMPDEST CALLVALUE DUP1 ISZERO PUSH2 0x1E0 JUMPI PUSH0 PUSH0 REVERT JUMPDEST POP PUSH2 0x1E9 PUSH2 0x720 JUMP JUMPDEST PUSH1 0x40 MLOAD PUSH2 0x1F6 SWAP2 SWAP1 PUSH2 0x125D JUMP JUMPDEST PUSH1 0x40 MLOAD DUP1 SWAP2 SUB SWAP1 RETURN JUMPDEST CALLVALUE DUP1 ISZERO PUSH2 0x20A JUMPI PUSH0 PUSH0 REVERT JUMPDEST POP PUSH2 0x225 PUSH1 0x4 DUP1 CALLDATASIZE SUB DUP2 ADD SWAP1 PUSH2 0x220 SWAP2 SWAP1 PUSH2 0x11B2 JUMP JUMPDEST PUSH2 0x775 JUMP JUMPDEST PUSH1 0x40 MLOAD PUSH2 0x232 SWAP2 SWAP1 PUSH2 0x132D JUMP JUMPDEST PUSH1 0x40 MLOAD DUP1 SWAP2 SUB SWAP1 RETURN JUMPDEST CALLVALUE DUP1 ISZERO PUSH2 0x246 JUMPI PUSH0 PUSH0 REVERT JUMPDEST POP PUSH2 0x261 PUSH1 0x4 DUP1 CALLDATASIZE SUB DUP2 ADD SWAP1 PUSH2 0x25C SWAP2 SWAP1 PUSH2 0x11DD JUMP JUMPDEST PUSH2 0x8C0 JUMP JUMPDEST STOP JUMPDEST CALLVALUE DUP1 ISZERO PUSH2 0x26E JUMPI PUSH0 PUSH0 REVERT JUMPDEST POP PUSH2 0x289 PUSH1 0x4 DUP1 CALLDATASIZE SUB DUP2 ADD SWAP1 PUSH2 0x284 SWAP2 SWAP1 PUSH2 0x1479 JUMP JUMPDEST PUSH2 0x9AB JUMP JUMPDEST STOP JUMPDEST CALLVALUE DUP1 ISZERO PUSH2 0x296 JUMPI PUSH0 PUSH0 REVERT JUMPDEST POP PUSH2 0x2B1 PUSH1 0x4 DUP1 CALLDATASIZE SUB DUP2 ADD SWAP1 PUSH2 0x2AC SWAP2 SWAP1 PUSH2 0x151D JUMP JUMPDEST PUSH2 0xA0D JUMP JUMPDEST STOP JUMPDEST CALLVALUE DUP1 ISZERO PUSH2 0x2BE JUMPI PUSH0 PUSH0 REVERT JUMPDEST POP PUSH2 0x2D9 PUSH1 0x4 DUP1 CALLDATASIZE SUB DUP2 ADD SWAP1 PUSH2 0x2D4 SWAP2 SWAP1 PUSH2 0x1046 JUMP JUMPDEST PUSH2 0xAE6 JUMP JUMPDEST STOP JUMPDEST CALLVALUE DUP1 ISZERO PUSH2 0x2E6 JUMPI PUSH0 PUSH0 REVERT JUMPDEST POP PUSH2 0x301 PUSH1 0x4 DUP1 CALLDATASIZE SUB DUP2 ADD SWAP1 PUSH2 0x2FC SWAP2 SWAP1 PUSH2 0x11B2 JUMP JUMPDEST PUSH2 0xB00 JUMP JUMPDEST STOP JUMPDEST PUSH1 0x5 PUSH0 DUP3 DUP2 MSTORE PUSH1 0x20 ADD SWAP1 DUP2 MSTORE PUSH1 0x20 ADD PUSH0 KECCAK256 PUSH0 SWAP1 SLOAD SWAP1 PUSH2 0x100 EXP SWAP1 DIV PUSH20 0xFFFFFFFFFFFFFFFFFFFFFFFFFFFFFFFFFFFFFFFF AND PUSH20 0xFFFFFFFFFFFFFFFFFFFFFFFFFFFFFFFFFFFFFFFF AND CALLER PUSH20 0xFFFFFFFFFFFFFFFFFFFFFFFFFFFFFFFFFFFFFFFF AND EQ PUSH2 0x36A JUMPI PUSH0 PUSH0 REVERT JUMPDEST PUSH1 0x8 SLOAD CALLVALUE EQ PUSH2 0x377 JUMPI PUSH0 PUSH0 REVERT JUMPDEST PUSH1 0x4 DUP2 DUP2 SLOAD DUP2 LT PUSH2 0x38B JUMPI PUSH2 0x38A PUSH2 0x157A JUMP JUMPDEST JUMPDEST SWAP1 PUSH0 MSTORE PUSH1 0x20 PUSH0 KECCAK256 SWAP1 PUSH1 0x3 MUL ADD PUSH1 0x2 ADD PUSH0 DUP2 DUP2 SWAP1 SLOAD SWAP1 PUSH2 0x100 EXP SWAP1 DIV PUSH4 0xFFFFFFFF AND DUP1 SWAP3 SWAP2 SWAP1 PUSH2 0x3B9 SWAP1 PUSH2 0x15D4 JUMP JUMPDEST SWAP2 SWAP1 PUSH2 0x100 EXP DUP2 SLOAD DUP2 PUSH4 0xFFFFFFFF MUL NOT AND SWAP1 DUP4 PUSH4 0xFFFFFFFF AND MUL OR SWAP1 SSTORE POP POP POP JUMP JUMPDEST PUSH1 0x4 DUP2 DUP2 SLOAD DUP2 LT PUSH2 0x3EA JUMPI PUSH0 DUP1 REVERT JUMPDEST SWAP1 PUSH0 MSTORE PUSH1 0x20 PUSH0 KECCAK256 SWAP1 PUSH1 0x3 MUL ADD PUSH0 SWAP2 POP SWAP1 POP DUP1 PUSH0 ADD DUP1 SLOAD PUSH2 0x409 SWAP1 PUSH2 0x162C JUMP JUMPDEST DUP1 PUSH1 0x1F ADD PUSH1 0x20 DUP1 SWAP2 DIV MUL PUSH1 0x20 ADD PUSH1 0x40 MLOAD SWAP1 DUP2 ADD PUSH1 0x40 MSTORE DUP1 SWAP3 SWAP2 SWAP1 DUP2 DUP2 MSTORE PUSH1 0x20 ADD DUP3 DUP1 SLOAD PUSH2 0x435 SWAP1 PUSH2 0x162C JUMP JUMPDEST DUP1 ISZERO PUSH2 0x480 JUMPI DUP1 PUSH1 0x1F LT PUSH2 0x457 JUMPI PUSH2 0x100 DUP1 DUP4 SLOAD DIV MUL DUP4 MSTORE SWAP2 PUSH1 0x20 ADD SWAP2 PUSH2 0x480 JUMP JUMPDEST DUP3 ADD SWAP2 SWAP1 PUSH0 MSTORE PUSH1 0x20 PUSH0 KECCAK256 SWAP1 JUMPDEST DUP2 SLOAD DUP2 MSTORE SWAP1 PUSH1 0x1 ADD SWAP1 PUSH1 0x20 ADD DUP1 DUP4 GT PUSH2 0x463 JUMPI DUP3 SWAP1 SUB PUSH1 0x1F AND DUP3 ADD SWAP2 JUMPDEST POP POP POP POP POP SWAP1 DUP1 PUSH1 0x1 ADD SLOAD SWAP1 DUP1 PUSH1 0x2 ADD PUSH0 SWAP1 SLOAD SWAP1 PUSH2 0x100 EXP SWAP1 DIV PUSH4 0xFFFFFFFF AND SWAP1 DUP1 PUSH1 0x2 ADD PUSH1 0x4 SWAP1 SLOAD SWAP1 PUSH2 0x100 EXP SWAP1 DIV PUSH4 0xFFFFFFFF AND SWAP1 POP DUP5 JUMP JUMPDEST PUSH0 PUSH2 0x4C4 PUSH2 0x6F9 JUMP JUMPDEST SWAP1 POP DUP1 PUSH20 0xFFFFFFFFFFFFFFFFFFFFFFFFFFFFFFFFFFFFFFFF AND PUSH2 0x8FC SELFBALANCE SWAP1 DUP2 ISZERO MUL SWAP1 PUSH1 0x40 MLOAD PUSH0 PUSH1 0x40 MLOAD DUP1 DUP4 SUB DUP2 DUP6 DUP9 DUP9 CALL SWAP4 POP POP POP POP ISZERO DUP1 ISZERO PUSH2 0x509 JUMPI RETURNDATASIZE PUSH0 PUSH0 RETURNDATACOPY RETURNDATASIZE PUSH0 REVERT JUMPDEST POP POP JUMP JUMPDEST PUSH2 0x515 PUSH2 0x720 JUMP JUMPDEST PUSH2 0x51D JUMPI PUSH0 PUSH0 REVERT JUMPDEST DUP1 PUSH1 0x7 PUSH0 PUSH2 0x100 EXP DUP2 SLOAD DUP2 PUSH20 0xFFFFFFFFFFFFFFFFFFFFFFFFFFFFFFFFFFFFFFFF MUL NOT AND SWAP1 DUP4 PUSH20 0xFFFFFFFFFFFFFFFFFFFFFFFFFFFFFFFFFFFFFFFF AND MUL OR SWAP1 SSTORE POP POP JUMP JUMPDEST PUSH1 0x14 DUP3 DUP2 PUSH4 0xFFFFFFFF AND PUSH1 0x4 DUP3 DUP2 SLOAD DUP2 LT PUSH2 0x57E JUMPI PUSH2 0x57D PUSH2 0x157A JUMP JUMPDEST JUMPDEST SWAP1 PUSH0 MSTORE PUSH1 0x20 PUSH0 KECCAK256 SWAP1 PUSH1 0x3 MUL ADD PUSH1 0x2 ADD PUSH0 SWAP1 SLOAD SWAP1 PUSH2 0x100 EXP SWAP1 POP POP POP CALLER PUSH20 0xFFFFFFFFFFFFFFFFFFFFFFFFFFFFFFFFFFFFFFFF AND PUSH1 0x5 PUSH0 DUP7 DUP2 MSTORE PUSH1 0x20 ADD SWAP1 DUP2 MSTORE PUSH1 0x20 ADD PUSH0 KECCAK256 PUSH0 SWAP1 SLOAD SWAP1 PUSH2 0x100 EXP SWAP1 DIV PUSH20 0xFFFFFFFFFFFFFFFFFFFFFFFFFFFFFFFFFFFFFFFF AND PUSH20 0xFFFFFFFFFFFFFFFFFFFFFFFFFFFFFFFFFFFFFFFF AND EQ PUSH2 0x600 JUMPI PUSH0 PUSH0 REVERT JUMPDEST DUP3 PUSH1 0x4 DUP6 DUP2 SLOAD DUP2 LT PUSH2 0x615 JUMPI PUSH2 0x614 PUSH2 0x157A JUMP JUMPDEST JUMPDEST SWAP1 PUSH0 MSTORE PUSH1 0x20 PUSH0 KECCAK256 SWAP1 PUSH1 0x3 MUL ADD PUSH1 0x1 ADD DUP2 SWAP1 SSTORE POP POP POP POP POP JUMP JUMPDEST PUSH2 0x636 PUSH2 0x720 JUMP JUMPDEST PUSH2 0x63E JUMPI PUSH0 PUSH0 REVERT JUMPDEST PUSH0 PUSH20 0xFFFFFFFFFFFFFFFFFFFFFFFFFFFFFFFFFFFFFFFF AND PUSH0 PUSH0 SWAP1 SLOAD SWAP1 PUSH2 0x100 EXP SWAP1 DIV PUSH20 0xFFFFFFFFFFFFFFFFFFFFFFFFFFFFFFFFFFFFFFFF AND PUSH20 0xFFFFFFFFFFFFFFFFFFFFFFFFFFFFFFFFFFFFFFFF AND PUSH32 0x8BE0079C531659141344CD1FD0A4F28419497F9722A3DAAFE3B4186F6B6457E0 PUSH1 0x40 MLOAD PUSH1 0x40 MLOAD DUP1 SWAP2 SUB SWAP1 LOG3 PUSH0 PUSH0 PUSH0 PUSH2 0x100 EXP DUP2 SLOAD DUP2 PUSH20 0xFFFFFFFFFFFFFFFFFFFFFFFFFFFFFFFFFFFFFFFF MUL NOT AND SWAP1 DUP4 PUSH20 0xFFFFFFFFFFFFFFFFFFFFFFFFFFFFFFFFFFFFFFFF AND MUL OR SWAP1 SSTORE POP JUMP JUMPDEST PUSH0 PUSH0 PUSH0 SWAP1 SLOAD SWAP1 PUSH2 0x100 EXP SWAP1 DIV PUSH20 0xFFFFFFFFFFFFFFFFFFFFFFFFFFFFFFFFFFFFFFFF AND SWAP1 POP SWAP1 JUMP JUMPDEST PUSH0 PUSH0 PUSH0 SWAP1 SLOAD SWAP1 PUSH2 0x100 EXP SWAP1 DIV PUSH20 0xFFFFFFFFFFFFFFFFFFFFFFFFFFFFFFFFFFFFFFFF AND PUSH20 0xFFFFFFFFFFFFFFFFFFFFFFFFFFFFFFFFFFFFFFFF AND CALLER PUSH20 0xFFFFFFFFFFFFFFFFFFFFFFFFFFFFFFFFFFFFFFFF AND EQ SWAP1 POP SWAP1 JUMP JUMPDEST PUSH1 0x60 PUSH0 PUSH1 0x6 PUSH0 DUP5 PUSH20 0xFFFFFFFFFFFFFFFFFFFFFFFFFFFFFFFFFFFFFFFF AND PUSH20 0xFFFFFFFFFFFFFFFFFFFFFFFFFFFFFFFFFFFFFFFF AND DUP2 MSTORE PUSH1 0x20 ADD SWAP1 DUP2 MSTORE PUSH1 0x20 ADD PUSH0 KECCAK256 SLOAD PUSH8 0xFFFFFFFFFFFFFFFF DUP2 GT ISZERO PUSH2 0x7CF JUMPI PUSH2 0x7CE PUSH2 0x1355 JUMP JUMPDEST JUMPDEST PUSH1 0x40 MLOAD SWAP1 DUP1 DUP3 MSTORE DUP1 PUSH1 0x20 MUL PUSH1 0x20 ADD DUP3 ADD PUSH1 0x40 MSTORE DUP1 ISZERO PUSH2 0x7FD JUMPI DUP2 PUSH1 0x20 ADD PUSH1 0x20 DUP3 MUL DUP1 CALLDATASIZE DUP4 CALLDATACOPY DUP1 DUP3 ADD SWAP2 POP POP SWAP1 POP JUMPDEST POP SWAP1 POP PUSH0 PUSH0 SWAP1 POP PUSH0 PUSH0 SWAP1 POP JUMPDEST PUSH1 0x4 DUP1 SLOAD SWAP1 POP DUP2 LT ISZERO PUSH2 0x8B5 JUMPI DUP5 PUSH20 0xFFFFFFFFFFFFFFFFFFFFFFFFFFFFFFFFFFFFFFFF AND PUSH1 0x5 PUSH0 DUP4 DUP2 MSTORE PUSH1 0x20 ADD SWAP1 DUP2 MSTORE PUSH1 0x20 ADD PUSH0 KECCAK256 PUSH0 SWAP1 SLOAD SWAP1 PUSH2 0x100 EXP SWAP1 DIV PUSH20 0xFFFFFFFFFFFFFFFFFFFFFFFFFFFFFFFFFFFFFFFF AND PUSH20 0xFFFFFFFFFFFFFFFFFFFFFFFFFFFFFFFFFFFFFFFF AND SUB PUSH2 0x8A8 JUMPI DUP1 DUP4 DUP4 DUP2 MLOAD DUP2 LT PUSH2 0x88D JUMPI PUSH2 0x88C PUSH2 0x157A JUMP JUMPDEST JUMPDEST PUSH1 0x20 MUL PUSH1 0x20 ADD ADD DUP2 DUP2 MSTORE POP POP DUP2 DUP1 PUSH2 0x8A4 SWAP1 PUSH2 0x165C JUMP JUMPDEST SWAP3 POP POP JUMPDEST DUP1 DUP1 PUSH1 0x1 ADD SWAP2 POP POP PUSH2 0x809 JUMP JUMPDEST POP DUP2 SWAP3 POP POP POP SWAP2 SWAP1 POP JUMP JUMPDEST PUSH0 PUSH1 0x7 PUSH0 SWAP1 SLOAD SWAP1 PUSH2 0x100 EXP SWAP1 DIV PUSH20 0xFFFFFFFFFFFFFFFFFFFFFFFFFFFFFFFFFFFFFFFF AND PUSH20 0xFFFFFFFFFFFFFFFFFFFFFFFFFFFFFFFFFFFFFFFF AND PUSH4 0xE98B7F4D DUP4 PUSH1 0x40 MLOAD DUP3 PUSH4 0xFFFFFFFF AND PUSH1 0xE0 SHL DUP2 MSTORE PUSH1 0x4 ADD PUSH2 0x91B SWAP2 SWAP1 PUSH2 0x16A3 JUMP JUMPDEST PUSH2 0x140 PUSH1 0x40 MLOAD DUP1 DUP4 SUB DUP2 DUP7 GAS STATICCALL ISZERO DUP1 ISZERO PUSH2 0x937 JUMPI RETURNDATASIZE PUSH0 PUSH0 RETURNDATACOPY RETURNDATASIZE PUSH0 REVERT JUMPDEST POP POP POP POP PUSH1 0x40 MLOAD RETURNDATASIZE PUSH1 0x1F NOT PUSH1 0x1F DUP3 ADD AND DUP3 ADD DUP1 PUSH1 0x40 MSTORE POP DUP2 ADD SWAP1 PUSH2 0x95B SWAP2 SWAP1 PUSH2 0x16FA JUMP JUMPDEST SWAP10 POP POP POP POP POP POP POP POP POP POP PUSH2 0x9A6 DUP4 DUP3 PUSH1 0x40 MLOAD DUP1 PUSH1 0x40 ADD PUSH1 0x40 MSTORE DUP1 PUSH1 0x5 DUP2 MSTORE PUSH1 0x20 ADD PUSH32 0x6B69747479000000000000000000000000000000000000000000000000000000 DUP2 MSTORE POP PUSH2 0xB1C JUMP JUMPDEST POP POP POP JUMP JUMPDEST PUSH0 PUSH1 0x6 PUSH0 CALLER PUSH20 0xFFFFFFFFFFFFFFFFFFFFFFFFFFFFFFFFFFFFFFFF AND PUSH20 0xFFFFFFFFFFFFFFFFFFFFFFFFFFFFFFFFFFFFFFFF AND DUP2 MSTORE PUSH1 0x20 ADD SWAP1 DUP2 MSTORE PUSH1 0x20 ADD PUSH0 KECCAK256 SLOAD EQ PUSH2 0x9F3 JUMPI PUSH0 PUSH0 REVERT JUMPDEST PUSH0 PUSH2 0x9FD DUP3 PUSH2 0xCAD JUMP JUMPDEST SWAP1 POP PUSH2 0xA09 DUP3 DUP3 PUSH2 0xCF0 JUMP JUMPDEST POP POP JUMP JUMPDEST PUSH1 0x2 DUP4 DUP2 PUSH4 0xFFFFFFFF AND PUSH1 0x4 DUP3 DUP2 SLOAD DUP2 LT PUSH2 0xA2B JUMPI PUSH2 0xA2A PUSH2 0x157A JUMP JUMPDEST JUMPDEST SWAP1 PUSH0 MSTORE PUSH1 0x20 PUSH0 KECCAK256 SWAP1 PUSH1 0x3 MUL ADD PUSH1 0x2 ADD PUSH0 SWAP1 SLOAD SWAP1 PUSH2 0x100 EXP SWAP1 POP POP POP CALLER PUSH20 0xFFFFFFFFFFFFFFFFFFFFFFFFFFFFFFFFFFFFFFFF AND PUSH1 0x5 PUSH0 DUP8 DUP2 MSTORE PUSH1 0x20 ADD SWAP1 DUP2 MSTORE PUSH1 0x20 ADD PUSH0 KECCAK256 PUSH0 SWAP1 SLOAD SWAP1 PUSH2 0x100 EXP SWAP1 DIV PUSH20 0xFFFFFFFFFFFFFFFFFFFFFFFFFFFFFFFFFFFFFFFF AND PUSH20 0xFFFFFFFFFFFFFFFFFFFFFFFFFFFFFFFFFFFFFFFF AND EQ PUSH2 0xAAD JUMPI PUSH0 PUSH0 REVERT JUMPDEST DUP4 DUP4 PUSH1 0x4 DUP8 DUP2 SLOAD DUP2 LT PUSH2 0xAC3 JUMPI PUSH2 0xAC2 PUSH2 0x157A JUMP JUMPDEST JUMPDEST SWAP1 PUSH0 MSTORE PUSH1 0x20 PUSH0 KECCAK256 SWAP1 PUSH1 0x3 MUL ADD PUSH0 ADD SWAP2 DUP3 PUSH2 0xADE SWAP3 SWAP2 SWAP1 PUSH2 0x197D JUMP JUMPDEST POP POP POP POP POP POP JUMP JUMPDEST PUSH2 0xAEE PUSH2 0x720 JUMP JUMPDEST PUSH2 0xAF6 JUMPI PUSH0 PUSH0 REVERT JUMPDEST DUP1 PUSH1 0x8 DUP2 SWAP1 SSTORE POP POP JUMP JUMPDEST PUSH2 0xB08 PUSH2 0x720 JUMP JUMPDEST PUSH2 0xB10 JUMPI PUSH0 PUSH0 REVERT JUMPDEST PUSH2 0xB19 DUP2 PUSH2 0xEB6 JUMP JUMPDEST POP JUMP JUMPDEST CALLER PUSH20 0xFFFFFFFFFFFFFFFFFFFFFFFFFFFFFFFFFFFFFFFF AND PUSH1 0x5 PUSH0 DUP6 DUP2 MSTORE PUSH1 0x20 ADD SWAP1 DUP2 MSTORE PUSH1 0x20 ADD PUSH0 KECCAK256 PUSH0 SWAP1 SLOAD SWAP1 PUSH2 0x100 EXP SWAP1 DIV PUSH20 0xFFFFFFFFFFFFFFFFFFFFFFFFFFFFFFFFFFFFFFFF AND PUSH20 0xFFFFFFFFFFFFFFFFFFFFFFFFFFFFFFFFFFFFFFFF AND EQ PUSH2 0xB83 JUMPI PUSH0 PUSH0 REVERT JUMPDEST PUSH0 PUSH1 0x4 DUP5 DUP2 SLOAD DUP2 LT PUSH2 0xB98 JUMPI PUSH2 0xB97 PUSH2 0x157A JUMP JUMPDEST JUMPDEST SWAP1 PUSH0 MSTORE PUSH1 0x20 PUSH0 KECCAK256 SWAP1 PUSH1 0x3 MUL ADD SWAP1 POP PUSH1 0x2 SLOAD DUP4 PUSH2 0xBB4 SWAP2 SWAP1 PUSH2 0x1A77 JUMP JUMPDEST SWAP3 POP PUSH2 0xBBF DUP2 PUSH2 0xFA9 JUMP JUMPDEST PUSH2 0xBC7 JUMPI PUSH0 PUSH0 REVERT JUMPDEST PUSH0 PUSH1 0x2 DUP3 PUSH1 0x1 ADD SLOAD DUP6 PUSH2 0xBDA SWAP2 SWAP1 PUSH2 0x1AA7 JUMP JUMPDEST PUSH2 0xBE4 SWAP2 SWAP1 PUSH2 0x1ADA JUMP JUMPDEST SWAP1 POP PUSH1 0x40 MLOAD PUSH1 0x20 ADD PUSH2 0xBF5 SWAP1 PUSH2 0x1B5E JUMP JUMPDEST PUSH1 0x40 MLOAD PUSH1 0x20 DUP2 DUP4 SUB SUB DUP2 MSTORE SWAP1 PUSH1 0x40 MSTORE DUP1 MLOAD SWAP1 PUSH1 0x20 ADD KECCAK256 DUP4 PUSH1 0x40 MLOAD PUSH1 0x20 ADD PUSH2 0xC1C SWAP2 SWAP1 PUSH2 0x1BA2 JUMP JUMPDEST PUSH1 0x40 MLOAD PUSH1 0x20 DUP2 DUP4 SUB SUB DUP2 MSTORE SWAP1 PUSH1 0x40 MSTORE DUP1 MLOAD SWAP1 PUSH1 0x20 ADD KECCAK256 SUB PUSH2 0xC5E JUMPI PUSH1 0x63 PUSH1 0x64 DUP3 PUSH2 0xC46 SWAP2 SWAP1 PUSH2 0x1A77 JUMP JUMPDEST DUP3 PUSH2 0xC51 SWAP2 SWAP1 PUSH2 0x1BB8 JUMP JUMPDEST PUSH2 0xC5B SWAP2 SWAP1 PUSH2 0x1AA7 JUMP JUMPDEST SWAP1 POP JUMPDEST PUSH2 0xC9D PUSH1 0x40 MLOAD DUP1 PUSH1 0x40 ADD PUSH1 0x40 MSTORE DUP1 PUSH1 0x6 DUP2 MSTORE PUSH1 0x20 ADD PUSH32 0x4E6F4E616D650000000000000000000000000000000000000000000000000000 DUP2 MSTORE POP DUP3 PUSH2 0xCF0 JUMP JUMPDEST PUSH2 0xCA6 DUP3 PUSH2 0xFCF JUMP JUMPDEST POP POP POP POP POP JUMP JUMPDEST PUSH0 PUSH0 DUP3 PUSH1 0x40 MLOAD PUSH1 0x20 ADD PUSH2 0xCC0 SWAP2 SWAP1 PUSH2 0x1BA2 JUMP JUMPDEST PUSH1 0x40 MLOAD PUSH1 0x20 DUP2 DUP4 SUB SUB DUP2 MSTORE SWAP1 PUSH1 0x40 MSTORE DUP1 MLOAD SWAP1 PUSH1 0x20 ADD KECCAK256 PUSH0 SHR SWAP1 POP PUSH1 0x2 SLOAD DUP2 PUSH2 0xCE8 SWAP2 SWAP1 PUSH2 0x1A77 JUMP JUMPDEST SWAP2 POP POP SWAP2 SWAP1 POP JUMP JUMPDEST PUSH1 0x4 PUSH1 0x40 MLOAD DUP1 PUSH1 0x80 ADD PUSH1 0x40 MSTORE DUP1 DUP5 DUP2 MSTORE PUSH1 0x20 ADD DUP4 DUP2 MSTORE PUSH1 0x20 ADD PUSH1 0x1 PUSH4 0xFFFFFFFF AND DUP2 MSTORE PUSH1 0x20 ADD PUSH1 0x3 SLOAD TIMESTAMP PUSH2 0xD24 SWAP2 SWAP1 PUSH2 0x1AA7 JUMP JUMPDEST PUSH4 0xFFFFFFFF AND DUP2 MSTORE POP SWAP1 DUP1 PUSH1 0x1 DUP2 SLOAD ADD DUP1 DUP3 SSTORE DUP1 SWAP2 POP POP PUSH1 0x1 SWAP1 SUB SWAP1 PUSH0 MSTORE PUSH1 0x20 PUSH0 KECCAK256 SWAP1 PUSH1 0x3 MUL ADD PUSH0 SWAP1 SWAP2 SWAP1 SWAP2 SWAP1 SWAP2 POP PUSH0 DUP3 ADD MLOAD DUP2 PUSH0 ADD SWAP1 DUP2 PUSH2 0xD66 SWAP2 SWAP1 PUSH2 0x1BEB JUMP JUMPDEST POP PUSH1 0x20 DUP3 ADD MLOAD DUP2 PUSH1 0x1 ADD SSTORE PUSH1 0x40 DUP3 ADD MLOAD DUP2 PUSH1 0x2 ADD PUSH0 PUSH2 0x100 EXP DUP2 SLOAD DUP2 PUSH4 0xFFFFFFFF MUL NOT AND SWAP1 DUP4 PUSH4 0xFFFFFFFF AND MUL OR SWAP1 SSTORE POP PUSH1 0x60 DUP3 ADD MLOAD DUP2 PUSH1 0x2 ADD PUSH1 0x4 PUSH2 0x100 EXP DUP2 SLOAD DUP2 PUSH4 0xFFFFFFFF MUL NOT AND SWAP1 DUP4 PUSH4 0xFFFFFFFF AND MUL OR SWAP1 SSTORE POP POP POP PUSH0 PUSH1 0x1 PUSH1 0x4 DUP1 SLOAD SWAP1 POP PUSH2 0xDD3 SWAP2 SWAP1 PUSH2 0x1BB8 JUMP JUMPDEST SWAP1 POP CALLER PUSH1 0x5 PUSH0 DUP4 DUP2 MSTORE PUSH1 0x20 ADD SWAP1 DUP2 MSTORE PUSH1 0x20 ADD PUSH0 KECCAK256 PUSH0 PUSH2 0x100 EXP DUP2 SLOAD DUP2 PUSH20 0xFFFFFFFFFFFFFFFFFFFFFFFFFFFFFFFFFFFFFFFF MUL NOT AND SWAP1 DUP4 PUSH20 0xFFFFFFFFFFFFFFFFFFFFFFFFFFFFFFFFFFFFFFFF AND MUL OR SWAP1 SSTORE POP PUSH1 0x6 PUSH0 CALLER PUSH20 0xFFFFFFFFFFFFFFFFFFFFFFFFFFFFFFFFFFFFFFFF AND PUSH20 0xFFFFFFFFFFFFFFFFFFFFFFFFFFFFFFFFFFFFFFFF AND DUP2 MSTORE PUSH1 0x20 ADD SWAP1 DUP2 MSTORE PUSH1 0x20 ADD PUSH0 KECCAK256 PUSH0 DUP2 SLOAD DUP1 SWAP3 SWAP2 SWAP1 PUSH2 0xE71 SWAP1 PUSH2 0x165C JUMP JUMPDEST SWAP2 SWAP1 POP SSTORE POP PUSH32 0x88F026AACBBECC90C18411DF4B1185FD8D9BE2470F1962F192BF84A27D0704B7 DUP2 DUP5 DUP5 PUSH1 0x40 MLOAD PUSH2 0xEA9 SWAP4 SWAP3 SWAP2 SWAP1 PUSH2 0x1CBA JUMP JUMPDEST PUSH1 0x40 MLOAD DUP1 SWAP2 SUB SWAP1 LOG1 POP POP POP JUMP JUMPDEST PUSH0 PUSH20 0xFFFFFFFFFFFFFFFFFFFFFFFFFFFFFFFFFFFFFFFF AND DUP2 PUSH20 0xFFFFFFFFFFFFFFFFFFFFFFFFFFFFFFFFFFFFFFFF AND SUB PUSH2 0xEED JUMPI PUSH0 PUSH0 REVERT JUMPDEST DUP1 PUSH20 0xFFFFFFFFFFFFFFFFFFFFFFFFFFFFFFFFFFFFFFFF AND PUSH0 PUSH0 SWAP1 SLOAD SWAP1 PUSH2 0x100 EXP SWAP1 DIV PUSH20 0xFFFFFFFFFFFFFFFFFFFFFFFFFFFFFFFFFFFFFFFF AND PUSH20 0xFFFFFFFFFFFFFFFFFFFFFFFFFFFFFFFFFFFFFFFF AND PUSH32 0x8BE0079C531659141344CD1FD0A4F28419497F9722A3DAAFE3B4186F6B6457E0 PUSH1 0x40 MLOAD PUSH1 0x40 MLOAD DUP1 SWAP2 SUB SWAP1 LOG3 DUP1 PUSH0 PUSH0 PUSH2 0x100 EXP DUP2 SLOAD DUP2 PUSH20 0xFFFFFFFFFFFFFFFFFFFFFFFFFFFFFFFFFFFFFFFF MUL NOT AND SWAP1 DUP4 PUSH20 0xFFFFFFFFFFFFFFFFFFFFFFFFFFFFFFFFFFFFFFFF AND MUL OR SWAP1 SSTORE POP POP JUMP JUMPDEST PUSH0 TIMESTAMP DUP3 PUSH1 0x2 ADD PUSH1 0x4 SWAP1 SLOAD SWAP1 PUSH2 0x100 EXP SWAP1 DIV PUSH4 0xFFFFFFFF AND PUSH4 0xFFFFFFFF AND GT ISZERO SWAP1 POP SWAP2 SWAP1 POP JUMP JUMPDEST PUSH1 0x3 SLOAD TIMESTAMP PUSH2 0xFDD SWAP2 SWAP1 PUSH2 0x1AA7 JUMP JUMPDEST DUP2 PUSH1 0x2 ADD PUSH1 0x4 PUSH2 0x100 EXP DUP2 SLOAD DUP2 PUSH4 0xFFFFFFFF MUL NOT AND SWAP1 DUP4 PUSH4 0xFFFFFFFF AND MUL OR SWAP1 SSTORE POP POP JUMP JUMPDEST PUSH0 PUSH1 0x40 MLOAD SWAP1 POP SWAP1 JUMP JUMPDEST PUSH0 PUSH0 REVERT JUMPDEST PUSH0 PUSH0 REVERT JUMPDEST PUSH0 DUP2 SWAP1 POP SWAP2 SWAP1 POP JUMP JUMPDEST PUSH2 0x1025 DUP2 PUSH2 0x1013 JUMP JUMPDEST DUP2 EQ PUSH2 0x102F JUMPI PUSH0 PUSH0 REVERT JUMPDEST POP JUMP JUMPDEST PUSH0 DUP2 CALLDATALOAD SWAP1 POP PUSH2 0x1040 DUP2 PUSH2 0x101C JUMP JUMPDEST SWAP3 SWAP2 POP POP JUMP JUMPDEST PUSH0 PUSH1 0x20 DUP3 DUP5 SUB SLT ISZERO PUSH2 0x105B JUMPI PUSH2 0x105A PUSH2 0x100B JUMP JUMPDEST JUMPDEST PUSH0 PUSH2 0x1068 DUP5 DUP3 DUP6 ADD PUSH2 0x1032 JUMP JUMPDEST SWAP2 POP POP SWAP3 SWAP2 POP POP JUMP JUMPDEST PUSH0 DUP2 MLOAD SWAP1 POP SWAP2 SWAP1 POP JUMP JUMPDEST PUSH0 DUP3 DUP3 MSTORE PUSH1 0x20 DUP3 ADD SWAP1 POP SWAP3 SWAP2 POP POP JUMP JUMPDEST DUP3 DUP2 DUP4 MCOPY PUSH0 DUP4 DUP4 ADD MSTORE POP POP POP JUMP JUMPDEST PUSH0 PUSH1 0x1F NOT PUSH1 0x1F DUP4 ADD AND SWAP1 POP SWAP2 SWAP1 POP JUMP JUMPDEST PUSH0 PUSH2 0x10B3 DUP3 PUSH2 0x1071 JUMP JUMPDEST PUSH2 0x10BD DUP2 DUP6 PUSH2 0x107B JUMP JUMPDEST SWAP4 POP PUSH2 0x10CD DUP2 DUP6 PUSH1 0x20 DUP7 ADD PUSH2 0x108B JUMP JUMPDEST PUSH2 0x10D6 DUP2 PUSH2 0x1099 JUMP JUMPDEST DUP5 ADD SWAP2 POP POP SWAP3 SWAP2 POP POP JUMP JUMPDEST PUSH2 0x10EA DUP2 PUSH2 0x1013 JUMP JUMPDEST DUP3 MSTORE POP POP JUMP JUMPDEST PUSH0 PUSH4 0xFFFFFFFF DUP3 AND SWAP1 POP SWAP2 SWAP1 POP JUMP JUMPDEST PUSH2 0x1108 DUP2 PUSH2 0x10F0 JUMP JUMPDEST DUP3 MSTORE POP POP JUMP JUMPDEST PUSH0 PUSH1 0x80 DUP3 ADD SWAP1 POP DUP2 DUP2 SUB PUSH0 DUP4 ADD MSTORE PUSH2 0x1126 DUP2 DUP8 PUSH2 0x10A9 JUMP JUMPDEST SWAP1 POP PUSH2 0x1135 PUSH1 0x20 DUP4 ADD DUP7 PUSH2 0x10E1 JUMP JUMPDEST PUSH2 0x1142 PUSH1 0x40 DUP4 ADD DUP6 PUSH2 0x10FF JUMP JUMPDEST PUSH2 0x114F PUSH1 0x60 DUP4 ADD DUP5 PUSH2 0x10FF JUMP JUMPDEST SWAP6 SWAP5 POP POP POP POP POP JUMP JUMPDEST PUSH0 PUSH20 0xFFFFFFFFFFFFFFFFFFFFFFFFFFFFFFFFFFFFFFFF DUP3 AND SWAP1 POP SWAP2 SWAP1 POP JUMP JUMPDEST PUSH0 PUSH2 0x1181 DUP3 PUSH2 0x1158 JUMP JUMPDEST SWAP1 POP SWAP2 SWAP1 POP JUMP JUMPDEST PUSH2 0x1191 DUP2 PUSH2 0x1177 JUMP JUMPDEST DUP2 EQ PUSH2 0x119B JUMPI PUSH0 PUSH0 REVERT JUMPDEST POP JUMP JUMPDEST PUSH0 DUP2 CALLDATALOAD SWAP1 POP PUSH2 0x11AC DUP2 PUSH2 0x1188 JUMP JUMPDEST SWAP3 SWAP2 POP POP JUMP JUMPDEST PUSH0 PUSH1 0x20 DUP3 DUP5 SUB SLT ISZERO PUSH2 0x11C7 JUMPI PUSH2 0x11C6 PUSH2 0x100B JUMP JUMPDEST JUMPDEST PUSH0 PUSH2 0x11D4 DUP5 DUP3 DUP6 ADD PUSH2 0x119E JUMP JUMPDEST SWAP2 POP POP SWAP3 SWAP2 POP POP JUMP JUMPDEST PUSH0 PUSH0 PUSH1 0x40 DUP4 DUP6 SUB SLT ISZERO PUSH2 0x11F3 JUMPI PUSH2 0x11F2 PUSH2 0x100B JUMP JUMPDEST JUMPDEST PUSH0 PUSH2 0x1200 DUP6 DUP3 DUP7 ADD PUSH2 0x1032 JUMP JUMPDEST SWAP3 POP POP PUSH1 0x20 PUSH2 0x1211 DUP6 DUP3 DUP7 ADD PUSH2 0x1032 JUMP JUMPDEST SWAP2 POP POP SWAP3 POP SWAP3 SWAP1 POP JUMP JUMPDEST PUSH2 0x1224 DUP2 PUSH2 0x1177 JUMP JUMPDEST DUP3 MSTORE POP POP JUMP JUMPDEST PUSH0 PUSH1 0x20 DUP3 ADD SWAP1 POP PUSH2 0x123D PUSH0 DUP4 ADD DUP5 PUSH2 0x121B JUMP JUMPDEST SWAP3 SWAP2 POP POP JUMP JUMPDEST PUSH0 DUP2 ISZERO ISZERO SWAP1 POP SWAP2 SWAP1 POP JUMP JUMPDEST PUSH2 0x1257 DUP2 PUSH2 0x1243 JUMP JUMPDEST DUP3 MSTORE POP POP JUMP JUMPDEST PUSH0 PUSH1 0x20 DUP3 ADD SWAP1 POP PUSH2 0x1270 PUSH0 DUP4 ADD DUP5 PUSH2 0x124E JUMP JUMPDEST SWAP3 SWAP2 POP POP JUMP JUMPDEST PUSH0 DUP2 MLOAD SWAP1 POP SWAP2 SWAP1 POP JUMP JUMPDEST PUSH0 DUP3 DUP3 MSTORE PUSH1 0x20 DUP3 ADD SWAP1 POP SWAP3 SWAP2 POP POP JUMP JUMPDEST PUSH0 DUP2 SWAP1 POP PUSH1 0x20 DUP3 ADD SWAP1 POP SWAP2 SWAP1 POP JUMP JUMPDEST PUSH2 0x12A8 DUP2 PUSH2 0x1013 JUMP JUMPDEST DUP3 MSTORE POP POP JUMP JUMPDEST PUSH0 PUSH2 0x12B9 DUP4 DUP4 PUSH2 0x129F JUMP JUMPDEST PUSH1 0x20 DUP4 ADD SWAP1 POP SWAP3 SWAP2 POP POP JUMP JUMPDEST PUSH0 PUSH1 0x20 DUP3 ADD SWAP1 POP SWAP2 SWAP1 POP JUMP JUMPDEST PUSH0 PUSH2 0x12DB DUP3 PUSH2 0x1276 JUMP JUMPDEST PUSH2 0x12E5 DUP2 DUP6 PUSH2 0x1280 JUMP JUMPDEST SWAP4 POP PUSH2 0x12F0 DUP4 PUSH2 0x1290 JUMP JUMPDEST DUP1 PUSH0 JUMPDEST DUP4 DUP2 LT ISZERO PUSH2 0x1320 JUMPI DUP2 MLOAD PUSH2 0x1307 DUP9 DUP3 PUSH2 0x12AE JUMP JUMPDEST SWAP8 POP PUSH2 0x1312 DUP4 PUSH2 0x12C5 JUMP JUMPDEST SWAP3 POP POP PUSH1 0x1 DUP2 ADD SWAP1 POP PUSH2 0x12F3 JUMP JUMPDEST POP DUP6 SWAP4 POP POP POP POP SWAP3 SWAP2 POP POP JUMP JUMPDEST PUSH0 PUSH1 0x20 DUP3 ADD SWAP1 POP DUP2 DUP2 SUB PUSH0 DUP4 ADD MSTORE PUSH2 0x1345 DUP2 DUP5 PUSH2 0x12D1 JUMP JUMPDEST SWAP1 POP SWAP3 SWAP2 POP POP JUMP JUMPDEST PUSH0 PUSH0 REVERT JUMPDEST PUSH0 PUSH0 REVERT JUMPDEST PUSH32 0x4E487B7100000000000000000000000000000000000000000000000000000000 PUSH0 MSTORE PUSH1 0x41 PUSH1 0x4 MSTORE PUSH1 0x24 PUSH0 REVERT JUMPDEST PUSH2 0x138B DUP3 PUSH2 0x1099 JUMP JUMPDEST DUP2 ADD DUP2 DUP2 LT PUSH8 0xFFFFFFFFFFFFFFFF DUP3 GT OR ISZERO PUSH2 0x13AA JUMPI PUSH2 0x13A9 PUSH2 0x1355 JUMP JUMPDEST JUMPDEST DUP1 PUSH1 0x40 MSTORE POP POP POP JUMP JUMPDEST PUSH0 PUSH2 0x13BC PUSH2 0x1002 JUMP JUMPDEST SWAP1 POP PUSH2 0x13C8 DUP3 DUP3 PUSH2 0x1382 JUMP JUMPDEST SWAP2 SWAP1 POP JUMP JUMPDEST PUSH0 PUSH8 0xFFFFFFFFFFFFFFFF DUP3 GT ISZERO PUSH2 0x13E7 JUMPI PUSH2 0x13E6 PUSH2 0x1355 JUMP JUMPDEST JUMPDEST PUSH2 0x13F0 DUP3 PUSH2 0x1099 JUMP JUMPDEST SWAP1 POP PUSH1 0x20 DUP2 ADD SWAP1 POP SWAP2 SWAP1 POP JUMP JUMPDEST DUP3 DUP2 DUP4 CALLDATACOPY PUSH0 DUP4 DUP4 ADD MSTORE POP POP POP JUMP JUMPDEST PUSH0 PUSH2 0x141D PUSH2 0x1418 DUP5 PUSH2 0x13CD JUMP JUMPDEST PUSH2 0x13B3 JUMP JUMPDEST SWAP1 POP DUP3 DUP2 MSTORE PUSH1 0x20 DUP2 ADD DUP5 DUP5 DUP5 ADD GT ISZERO PUSH2 0x1439 JUMPI PUSH2 0x1438 PUSH2 0x1351 JUMP JUMPDEST JUMPDEST PUSH2 0x1444 DUP5 DUP3 DUP6 PUSH2 0x13FD JUMP JUMPDEST POP SWAP4 SWAP3 POP POP POP JUMP JUMPDEST PUSH0 DUP3 PUSH1 0x1F DUP4 ADD SLT PUSH2 0x1460 JUMPI PUSH2 0x145F PUSH2 0x134D JUMP JUMPDEST JUMPDEST DUP2 CALLDATALOAD PUSH2 0x1470 DUP5 DUP3 PUSH1 0x20 DUP7 ADD PUSH2 0x140B JUMP JUMPDEST SWAP2 POP POP SWAP3 SWAP2 POP POP JUMP JUMPDEST PUSH0 PUSH1 0x20 DUP3 DUP5 SUB SLT ISZERO PUSH2 0x148E JUMPI PUSH2 0x148D PUSH2 0x100B JUMP JUMPDEST JUMPDEST PUSH0 DUP3 ADD CALLDATALOAD PUSH8 0xFFFFFFFFFFFFFFFF DUP2 GT ISZERO PUSH2 0x14AB JUMPI PUSH2 0x14AA PUSH2 0x100F JUMP JUMPDEST JUMPDEST PUSH2 0x14B7 DUP5 DUP3 DUP6 ADD PUSH2 0x144C JUMP JUMPDEST SWAP2 POP POP SWAP3 SWAP2 POP POP JUMP JUMPDEST PUSH0 PUSH0 REVERT JUMPDEST PUSH0 PUSH0 REVERT JUMPDEST PUSH0 PUSH0 DUP4 PUSH1 0x1F DUP5 ADD SLT PUSH2 0x14DD JUMPI PUSH2 0x14DC PUSH2 0x134D JUMP JUMPDEST JUMPDEST DUP3 CALLDATALOAD SWAP1 POP PUSH8 0xFFFFFFFFFFFFFFFF DUP2 GT ISZERO PUSH2 0x14FA JUMPI PUSH2 0x14F9 PUSH2 0x14C0 JUMP JUMPDEST JUMPDEST PUSH1 0x20 DUP4 ADD SWAP2 POP DUP4 PUSH1 0x1 DUP3 MUL DUP4 ADD GT ISZERO PUSH2 0x1516 JUMPI PUSH2 0x1515 PUSH2 0x14C4 JUMP JUMPDEST JUMPDEST SWAP3 POP SWAP3 SWAP1 POP JUMP JUMPDEST PUSH0 PUSH0 PUSH0 PUSH1 0x40 DUP5 DUP7 SUB SLT ISZERO PUSH2 0x1534 JUMPI PUSH2 0x1533 PUSH2 0x100B JUMP JUMPDEST JUMPDEST PUSH0 PUSH2 0x1541 DUP7 DUP3 DUP8 ADD PUSH2 0x1032 JUMP JUMPDEST SWAP4 POP POP PUSH1 0x20 DUP5 ADD CALLDATALOAD PUSH8 0xFFFFFFFFFFFFFFFF DUP2 GT ISZERO PUSH2 0x1562 JUMPI PUSH2 0x1561 PUSH2 0x100F JUMP JUMPDEST JUMPDEST PUSH2 0x156E DUP7 DUP3 DUP8 ADD PUSH2 0x14C8 JUMP JUMPDEST SWAP3 POP SWAP3 POP POP SWAP3 POP SWAP3 POP SWAP3 JUMP JUMPDEST PUSH32 0x4E487B7100000000000000000000000000000000000000000000000000000000 PUSH0 MSTORE PUSH1 0x32 PUSH1 0x4 MSTORE PUSH1 0x24 PUSH0 REVERT JUMPDEST PUSH32 0x4E487B7100000000000000000000000000000000000000000000000000000000 PUSH0 MSTORE PUSH1 0x11 PUSH1 0x4 MSTORE PUSH1 0x24 PUSH0 REVERT JUMPDEST PUSH0 PUSH2 0x15DE DUP3 PUSH2 0x10F0 JUMP JUMPDEST SWAP2 POP PUSH4 0xFFFFFFFF DUP3 SUB PUSH2 0x15F4 JUMPI PUSH2 0x15F3 PUSH2 0x15A7 JUMP JUMPDEST JUMPDEST PUSH1 0x1 DUP3 ADD SWAP1 POP SWAP2 SWAP1 POP JUMP JUMPDEST PUSH32 0x4E487B7100000000000000000000000000000000000000000000000000000000 PUSH0 MSTORE PUSH1 0x22 PUSH1 0x4 MSTORE PUSH1 0x24 PUSH0 REVERT JUMPDEST PUSH0 PUSH1 0x2 DUP3 DIV SWAP1 POP PUSH1 0x1 DUP3 AND DUP1 PUSH2 0x1643 JUMPI PUSH1 0x7F DUP3 AND SWAP2 POP JUMPDEST PUSH1 0x20 DUP3 LT DUP2 SUB PUSH2 0x1656 JUMPI PUSH2 0x1655 PUSH2 0x15FF JUMP JUMPDEST JUMPDEST POP SWAP2 SWAP1 POP JUMP JUMPDEST PUSH0 PUSH2 0x1666 DUP3 PUSH2 0x1013 JUMP JUMPDEST SWAP2 POP PUSH32 0xFFFFFFFFFFFFFFFFFFFFFFFFFFFFFFFFFFFFFFFFFFFFFFFFFFFFFFFFFFFFFFFF DUP3 SUB PUSH2 0x1698 JUMPI PUSH2 0x1697 PUSH2 0x15A7 JUMP JUMPDEST JUMPDEST PUSH1 0x1 DUP3 ADD SWAP1 POP SWAP2 SWAP1 POP JUMP JUMPDEST PUSH0 PUSH1 0x20 DUP3 ADD SWAP1 POP PUSH2 0x16B6 PUSH0 DUP4 ADD DUP5 PUSH2 0x10E1 JUMP JUMPDEST SWAP3 SWAP2 POP POP JUMP JUMPDEST PUSH2 0x16C5 DUP2 PUSH2 0x1243 JUMP JUMPDEST DUP2 EQ PUSH2 0x16CF JUMPI PUSH0 PUSH0 REVERT JUMPDEST POP JUMP JUMPDEST PUSH0 DUP2 MLOAD SWAP1 POP PUSH2 0x16E0 DUP2 PUSH2 0x16BC JUMP JUMPDEST SWAP3 SWAP2 POP POP JUMP JUMPDEST PUSH0 DUP2 MLOAD SWAP1 POP PUSH2 0x16F4 DUP2 PUSH2 0x101C JUMP JUMPDEST SWAP3 SWAP2 POP POP JUMP JUMPDEST PUSH0 PUSH0 PUSH0 PUSH0 PUSH0 PUSH0 PUSH0 PUSH0 PUSH0 PUSH0 PUSH2 0x140 DUP12 DUP14 SUB SLT ISZERO PUSH2 0x1719 JUMPI PUSH2 0x1718 PUSH2 0x100B JUMP JUMPDEST JUMPDEST PUSH0 PUSH2 0x1726 DUP14 DUP3 DUP15 ADD PUSH2 0x16D2 JUMP JUMPDEST SWAP11 POP POP PUSH1 0x20 PUSH2 0x1737 DUP14 DUP3 DUP15 ADD PUSH2 0x16D2 JUMP JUMPDEST SWAP10 POP POP PUSH1 0x40 PUSH2 0x1748 DUP14 DUP3 DUP15 ADD PUSH2 0x16E6 JUMP JUMPDEST SWAP9 POP POP PUSH1 0x60 PUSH2 0x1759 DUP14 DUP3 DUP15 ADD PUSH2 0x16E6 JUMP JUMPDEST SWAP8 POP POP PUSH1 0x80 PUSH2 0x176A DUP14 DUP3 DUP15 ADD PUSH2 0x16E6 JUMP JUMPDEST SWAP7 POP POP PUSH1 0xA0 PUSH2 0x177B DUP14 DUP3 DUP15 ADD PUSH2 0x16E6 JUMP JUMPDEST SWAP6 POP POP PUSH1 0xC0 PUSH2 0x178C DUP14 DUP3 DUP15 ADD PUSH2 0x16E6 JUMP JUMPDEST SWAP5 POP POP PUSH1 0xE0 PUSH2 0x179D DUP14 DUP3 DUP15 ADD PUSH2 0x16E6 JUMP JUMPDEST SWAP4 POP POP PUSH2 0x100 PUSH2 0x17AF DUP14 DUP3 DUP15 ADD PUSH2 0x16E6 JUMP JUMPDEST SWAP3 POP POP PUSH2 0x120 PUSH2 0x17C1 DUP14 DUP3 DUP15 ADD PUSH2 0x16E6 JUMP JUMPDEST SWAP2 POP POP SWAP3 SWAP6 SWAP9 SWAP12 SWAP2 SWAP5 SWAP8 SWAP11 POP SWAP3 SWAP6 SWAP9 POP JUMP JUMPDEST PUSH0 DUP3 SWAP1 POP SWAP3 SWAP2 POP POP JUMP JUMPDEST PUSH0 DUP2 SWAP1 POP DUP2 PUSH0 MSTORE PUSH1 0x20 PUSH0 KECCAK256 SWAP1 POP SWAP2 SWAP1 POP JUMP JUMPDEST PUSH0 PUSH1 0x20 PUSH1 0x1F DUP4 ADD DIV SWAP1 POP SWAP2 SWAP1 POP JUMP JUMPDEST PUSH0 DUP3 DUP3 SHL SWAP1 POP SWAP3 SWAP2 POP POP JUMP JUMPDEST PUSH0 PUSH1 0x8 DUP4 MUL PUSH2 0x1839 PUSH32 0xFFFFFFFFFFFFFFFFFFFFFFFFFFFFFFFFFFFFFFFFFFFFFFFFFFFFFFFFFFFFFFFF DUP3 PUSH2 0x17FE JUMP JUMPDEST PUSH2 0x1843 DUP7 DUP4 PUSH2 0x17FE JUMP JUMPDEST SWAP6 POP DUP1 NOT DUP5 AND SWAP4 POP DUP1 DUP7 AND DUP5 OR SWAP3 POP POP POP SWAP4 SWAP3 POP POP POP JUMP JUMPDEST PUSH0 DUP2 SWAP1 POP SWAP2 SWAP1 POP JUMP JUMPDEST PUSH0 PUSH2 0x187E PUSH2 0x1879 PUSH2 0x1874 DUP5 PUSH2 0x1013 JUMP JUMPDEST PUSH2 0x185B JUMP JUMPDEST PUSH2 0x1013 JUMP JUMPDEST SWAP1 POP SWAP2 SWAP1 POP JUMP JUMPDEST PUSH0 DUP2 SWAP1 POP SWAP2 SWAP1 POP JUMP JUMPDEST PUSH2 0x1897 DUP4 PUSH2 0x1864 JUMP JUMPDEST PUSH2 0x18AB PUSH2 0x18A3 DUP3 PUSH2 0x1885 JUMP JUMPDEST DUP5 DUP5 SLOAD PUSH2 0x180A JUMP JUMPDEST DUP3 SSTORE POP POP POP POP JUMP JUMPDEST PUSH0 PUSH0 SWAP1 POP SWAP1 JUMP JUMPDEST PUSH2 0x18C2 PUSH2 0x18B3 JUMP JUMPDEST PUSH2 0x18CD DUP2 DUP5 DUP5 PUSH2 0x188E JUMP JUMPDEST POP POP POP JUMP JUMPDEST JUMPDEST DUP2 DUP2 LT ISZERO PUSH2 0x18F0 JUMPI PUSH2 0x18E5 PUSH0 DUP3 PUSH2 0x18BA JUMP JUMPDEST PUSH1 0x1 DUP2 ADD SWAP1 POP PUSH2 0x18D3 JUMP JUMPDEST POP POP JUMP JUMPDEST PUSH1 0x1F DUP3 GT ISZERO PUSH2 0x1935 JUMPI PUSH2 0x1906 DUP2 PUSH2 0x17DD JUMP JUMPDEST PUSH2 0x190F DUP5 PUSH2 0x17EF JUMP JUMPDEST DUP2 ADD PUSH1 0x20 DUP6 LT ISZERO PUSH2 0x191E JUMPI DUP2 SWAP1 POP JUMPDEST PUSH2 0x1932 PUSH2 0x192A DUP6 PUSH2 0x17EF JUMP JUMPDEST DUP4 ADD DUP3 PUSH2 0x18D2 JUMP JUMPDEST POP POP JUMPDEST POP POP POP JUMP JUMPDEST PUSH0 DUP3 DUP3 SHR SWAP1 POP SWAP3 SWAP2 POP POP JUMP JUMPDEST PUSH0 PUSH2 0x1955 PUSH0 NOT DUP5 PUSH1 0x8 MUL PUSH2 0x193A JUMP JUMPDEST NOT DUP1 DUP4 AND SWAP2 POP POP SWAP3 SWAP2 POP POP JUMP JUMPDEST PUSH0 PUSH2 0x196D DUP4 DUP4 PUSH2 0x1946 JUMP JUMPDEST SWAP2 POP DUP3 PUSH1 0x2 MUL DUP3 OR SWAP1 POP SWAP3 SWAP2 POP POP JUMP JUMPDEST PUSH2 0x1987 DUP4 DUP4 PUSH2 0x17D3 JUMP JUMPDEST PUSH8 0xFFFFFFFFFFFFFFFF DUP2 GT ISZERO PUSH2 0x19A0 JUMPI PUSH2 0x199F PUSH2 0x1355 JUMP JUMPDEST JUMPDEST PUSH2 0x19AA DUP3 SLOAD PUSH2 0x162C JUMP JUMPDEST PUSH2 0x19B5 DUP3 DUP3 DUP6 PUSH2 0x18F4 JUMP JUMPDEST PUSH0 PUSH1 0x1F DUP4 GT PUSH1 0x1 DUP2 EQ PUSH2 0x19E2 JUMPI PUSH0 DUP5 ISZERO PUSH2 0x19D0 JUMPI DUP3 DUP8 ADD CALLDATALOAD SWAP1 POP JUMPDEST PUSH2 0x19DA DUP6 DUP3 PUSH2 0x1962 JUMP JUMPDEST DUP7 SSTORE POP PUSH2 0x1A41 JUMP JUMPDEST PUSH1 0x1F NOT DUP5 AND PUSH2 0x19F0 DUP7 PUSH2 0x17DD JUMP JUMPDEST PUSH0 JUMPDEST DUP3 DUP2 LT ISZERO PUSH2 0x1A17 JUMPI DUP5 DUP10 ADD CALLDATALOAD DUP3 SSTORE PUSH1 0x1 DUP3 ADD SWAP2 POP PUSH1 0x20 DUP6 ADD SWAP5 POP PUSH1 0x20 DUP2 ADD SWAP1 POP PUSH2 0x19F2 JUMP JUMPDEST DUP7 DUP4 LT ISZERO PUSH2 0x1A34 JUMPI DUP5 DUP10 ADD CALLDATALOAD PUSH2 0x1A30 PUSH1 0x1F DUP10 AND DUP3 PUSH2 0x1946 JUMP JUMPDEST DUP4 SSTORE POP JUMPDEST PUSH1 0x1 PUSH1 0x2 DUP9 MUL ADD DUP9 SSTORE POP POP POP JUMPDEST POP POP POP POP POP POP POP JUMP JUMPDEST PUSH32 0x4E487B7100000000000000000000000000000000000000000000000000000000 PUSH0 MSTORE PUSH1 0x12 PUSH1 0x4 MSTORE PUSH1 0x24 PUSH0 REVERT JUMPDEST PUSH0 PUSH2 0x1A81 DUP3 PUSH2 0x1013 JUMP JUMPDEST SWAP2 POP PUSH2 0x1A8C DUP4 PUSH2 0x1013 JUMP JUMPDEST SWAP3 POP DUP3 PUSH2 0x1A9C JUMPI PUSH2 0x1A9B PUSH2 0x1A4A JUMP JUMPDEST JUMPDEST DUP3 DUP3 MOD SWAP1 POP SWAP3 SWAP2 POP POP JUMP JUMPDEST PUSH0 PUSH2 0x1AB1 DUP3 PUSH2 0x1013 JUMP JUMPDEST SWAP2 POP PUSH2 0x1ABC DUP4 PUSH2 0x1013 JUMP JUMPDEST SWAP3 POP DUP3 DUP3 ADD SWAP1 POP DUP1 DUP3 GT ISZERO PUSH2 0x1AD4 JUMPI PUSH2 0x1AD3 PUSH2 0x15A7 JUMP JUMPDEST JUMPDEST SWAP3 SWAP2 POP POP JUMP JUMPDEST PUSH0 PUSH2 0x1AE4 DUP3 PUSH2 0x1013 JUMP JUMPDEST SWAP2 POP PUSH2 0x1AEF DUP4 PUSH2 0x1013 JUMP JUMPDEST SWAP3 POP DUP3 PUSH2 0x1AFF JUMPI PUSH2 0x1AFE PUSH2 0x1A4A JUMP JUMPDEST JUMPDEST DUP3 DUP3 DIV SWAP1 POP SWAP3 SWAP2 POP POP JUMP JUMPDEST PUSH0 DUP2 SWAP1 POP SWAP3 SWAP2 POP POP JUMP JUMPDEST PUSH32 0x6B69747479000000000000000000000000000000000000000000000000000000 PUSH0 DUP3 ADD MSTORE POP JUMP JUMPDEST PUSH0 PUSH2 0x1B48 PUSH1 0x5 DUP4 PUSH2 0x1B0A JUMP JUMPDEST SWAP2 POP PUSH2 0x1B53 DUP3 PUSH2 0x1B14 JUMP JUMPDEST PUSH1 0x5 DUP3 ADD SWAP1 POP SWAP2 SWAP1 POP JUMP JUMPDEST PUSH0 PUSH2 0x1B68 DUP3 PUSH2 0x1B3C JUMP JUMPDEST SWAP2 POP DUP2 SWAP1 POP SWAP2 SWAP1 POP JUMP JUMPDEST PUSH0 PUSH2 0x1B7C DUP3 PUSH2 0x1071 JUMP JUMPDEST PUSH2 0x1B86 DUP2 DUP6 PUSH2 0x1B0A JUMP JUMPDEST SWAP4 POP PUSH2 0x1B96 DUP2 DUP6 PUSH1 0x20 DUP7 ADD PUSH2 0x108B JUMP JUMPDEST DUP1 DUP5 ADD SWAP2 POP POP SWAP3 SWAP2 POP POP JUMP JUMPDEST PUSH0 PUSH2 0x1BAD DUP3 DUP5 PUSH2 0x1B72 JUMP JUMPDEST SWAP2 POP DUP2 SWAP1 POP SWAP3 SWAP2 POP POP JUMP JUMPDEST PUSH0 PUSH2 0x1BC2 DUP3 PUSH2 0x1013 JUMP JUMPDEST SWAP2 POP PUSH2 0x1BCD DUP4 PUSH2 0x1013 JUMP JUMPDEST SWAP3 POP DUP3 DUP3 SUB SWAP1 POP DUP2 DUP2 GT ISZERO PUSH2 0x1BE5 JUMPI PUSH2 0x1BE4 PUSH2 0x15A7 JUMP JUMPDEST JUMPDEST SWAP3 SWAP2 POP POP JUMP JUMPDEST PUSH2 0x1BF4 DUP3 PUSH2 0x1071 JUMP JUMPDEST PUSH8 0xFFFFFFFFFFFFFFFF DUP2 GT ISZERO PUSH2 0x1C0D JUMPI PUSH2 0x1C0C PUSH2 0x1355 JUMP JUMPDEST JUMPDEST PUSH2 0x1C17 DUP3 SLOAD PUSH2 0x162C JUMP JUMPDEST PUSH2 0x1C22 DUP3 DUP3 DUP6 PUSH2 0x18F4 JUMP JUMPDEST PUSH0 PUSH1 0x20 SWAP1 POP PUSH1 0x1F DUP4 GT PUSH1 0x1 DUP2 EQ PUSH2 0x1C53 JUMPI PUSH0 DUP5 ISZERO PUSH2 0x1C41 JUMPI DUP3 DUP8 ADD MLOAD SWAP1 POP JUMPDEST PUSH2 0x1C4B DUP6 DUP3 PUSH2 0x1962 JUMP JUMPDEST DUP7 SSTORE POP PUSH2 0x1CB2 JUMP JUMPDEST PUSH1 0x1F NOT DUP5 AND PUSH2 0x1C61 DUP7 PUSH2 0x17DD JUMP JUMPDEST PUSH0 JUMPDEST DUP3 DUP2 LT ISZERO PUSH2 0x1C88 JUMPI DUP5 DUP10 ADD MLOAD DUP3 SSTORE PUSH1 0x1 DUP3 ADD SWAP2 POP PUSH1 0x20 DUP6 ADD SWAP5 POP PUSH1 0x20 DUP2 ADD SWAP1 POP PUSH2 0x1C63 JUMP JUMPDEST DUP7 DUP4 LT ISZERO PUSH2 0x1CA5 JUMPI DUP5 DUP10 ADD MLOAD PUSH2 0x1CA1 PUSH1 0x1F DUP10 AND DUP3 PUSH2 0x1946 JUMP JUMPDEST DUP4 SSTORE POP JUMPDEST PUSH1 0x1 PUSH1 0x2 DUP9 MUL ADD DUP9 SSTORE POP POP POP JUMPDEST POP POP POP POP POP POP JUMP JUMPDEST PUSH0 PUSH1 0x60 DUP3 ADD SWAP1 POP PUSH2 0x1CCD PUSH0 DUP4 ADD DUP7 PUSH2 0x10E1 JUMP JUMPDEST DUP2 DUP2 SUB PUSH1 0x20 DUP4 ADD MSTORE PUSH2 0x1CDF DUP2 DUP6 PUSH2 0x10A9 JUMP JUMPDEST SWAP1 POP PUSH2 0x1CEE PUSH1 0x40 DUP4 ADD DUP5 PUSH2 0x10E1 JUMP JUMPDEST SWAP5 SWAP4 POP POP POP POP JUMP INVALID LOG2 PUSH5 0x6970667358 0x22 SLT KECCAK256 SUB SDIV PC 0xC 0xD PUSH24 0x2B7EC5A15CC6CD12ACF19DD86AC9B194EBB78995BFCC6365 0xDA EXTCODEHASH PUSH5 0x736F6C6343 STOP ADDMOD 0x1E STOP CALLER "
				},
				"gasEstimates": {
					"creation": {
						"codeDepositCost": "1493600",
						"executionCost": "infinite",
						"totalCost": "infinite"
					},
					"external": {
						"changeDna(uint256,uint256)": "infinite",
						"changeName(uint256,string)": "infinite",
						"createZombie(string)": "infinite",
						"feeOnKitty(uint256,uint256)": "infinite",
						"getZombieByOwner(address)": "infinite",
						"isOwner()": "2512",
						"levelUp(uint256)": "33515",
						"owner()": "2603",
						"renounceOwnership()": "30354",
						"setKittyContractAddress(address)": "26940",
						"setLevelUpFee(uint256)": "24783",
						"transferOwnership(address)": "30746",
						"withdraw()": "infinite",
						"zombies(uint256)": "infinite"
					}
				},
				"methodIdentifiers": {
					"changeDna(uint256,uint256)": "5faf2880",
					"changeName(uint256,string)": "c39cbef1",
					"createZombie(string)": "ad822778",
					"feeOnKitty(uint256,uint256)": "9ef0fe03",
					"getZombieByOwner(address)": "9ed21359",
					"isOwner()": "8f32d59b",
					"levelUp(uint256)": "0ce90ec2",
					"owner()": "8da5cb5b",
					"renounceOwnership()": "715018a6",
					"setKittyContractAddress(address)": "5f4623f1",
					"setLevelUpFee(uint256)": "ccf670f8",
					"transferOwnership(address)": "f2fde38b",
					"withdraw()": "3ccfd60b",
					"zombies(uint256)": "2052465e"
				}
			},
			"storageLayout": {
				"storage": [
					{
						"astId": 4,
						"contract": "contracts/zombiehelper.sol:ZombieHelper",
						"label": "_owner",
						"offset": 0,
						"slot": "0",
						"type": "t_address"
					},
					{
						"astId": 137,
						"contract": "contracts/zombiehelper.sol:ZombieHelper",
						"label": "dnaDigits",
						"offset": 0,
						"slot": "1",
						"type": "t_uint256"
					},
					{
						"astId": 142,
						"contract": "contracts/zombiehelper.sol:ZombieHelper",
						"label": "dnaModulus",
						"offset": 0,
						"slot": "2",
						"type": "t_uint256"
					},
					{
						"astId": 145,
						"contract": "contracts/zombiehelper.sol:ZombieHelper",
						"label": "cooldownTime",
						"offset": 0,
						"slot": "3",
						"type": "t_uint256"
					},
					{
						"astId": 158,
						"contract": "contracts/zombiehelper.sol:ZombieHelper",
						"label": "zombies",
						"offset": 0,
						"slot": "4",
						"type": "t_array(t_struct(Zombie)154_storage)dyn_storage"
					},
					{
						"astId": 162,
						"contract": "contracts/zombiehelper.sol:ZombieHelper",
						"label": "zombieToOwner",
						"offset": 0,
						"slot": "5",
						"type": "t_mapping(t_uint256,t_address)"
					},
					{
						"astId": 166,
						"contract": "contracts/zombiehelper.sol:ZombieHelper",
						"label": "ownerZombieCount",
						"offset": 0,
						"slot": "6",
						"type": "t_mapping(t_address,t_uint256)"
					},
					{
						"astId": 303,
						"contract": "contracts/zombiehelper.sol:ZombieHelper",
						"label": "kittyContract",
						"offset": 0,
						"slot": "7",
						"type": "t_contract(KittyInterface)298"
					},
					{
						"astId": 463,
						"contract": "contracts/zombiehelper.sol:ZombieHelper",
						"label": "levelUpFee",
						"offset": 0,
						"slot": "8",
						"type": "t_uint256"
					}
				],
				"types": {
					"t_address": {
						"encoding": "inplace",
						"label": "address",
						"numberOfBytes": "20"
					},
					"t_array(t_struct(Zombie)154_storage)dyn_storage": {
						"base": "t_struct(Zombie)154_storage",
						"encoding": "dynamic_array",
						"label": "struct ZombieFactory.Zombie[]",
						"numberOfBytes": "32"
					},
					"t_contract(KittyInterface)298": {
						"encoding": "inplace",
						"label": "contract KittyInterface",
						"numberOfBytes": "20"
					},
					"t_mapping(t_address,t_uint256)": {
						"encoding": "mapping",
						"key": "t_address",
						"label": "mapping(address => uint256)",
						"numberOfBytes": "32",
						"value": "t_uint256"
					},
					"t_mapping(t_uint256,t_address)": {
						"encoding": "mapping",
						"key": "t_uint256",
						"label": "mapping(uint256 => address)",
						"numberOfBytes": "32",
						"value": "t_address"
					},
					"t_string_storage": {
						"encoding": "bytes",
						"label": "string",
						"numberOfBytes": "32"
					},
					"t_struct(Zombie)154_storage": {
						"encoding": "inplace",
						"label": "struct ZombieFactory.Zombie",
						"members": [
							{
								"astId": 147,
								"contract": "contracts/zombiehelper.sol:ZombieHelper",
								"label": "name",
								"offset": 0,
								"slot": "0",
								"type": "t_string_storage"
							},
							{
								"astId": 149,
								"contract": "contracts/zombiehelper.sol:ZombieHelper",
								"label": "dna",
								"offset": 0,
								"slot": "1",
								"type": "t_uint256"
							},
							{
								"astId": 151,
								"contract": "contracts/zombiehelper.sol:ZombieHelper",
								"label": "level",
								"offset": 0,
								"slot": "2",
								"type": "t_uint32"
							},
							{
								"astId": 153,
								"contract": "contracts/zombiehelper.sol:ZombieHelper",
								"label": "readyTime",
								"offset": 4,
								"slot": "2",
								"type": "t_uint32"
							}
						],
						"numberOfBytes": "96"
					},
					"t_uint256": {
						"encoding": "inplace",
						"label": "uint256",
						"numberOfBytes": "32"
					},
					"t_uint32": {
						"encoding": "inplace",
						"label": "uint32",
						"numberOfBytes": "4"
					}
				}
			},
			"userdoc": {
				"events": {
					"NewZombie(uint256,string,uint256)": {
						"notice": "Events are a way for your contract to communicate that something happened on the blockchain to your app front-end, which can be 'listening' for certain events and take action when they happen. 用于前端监听你的智能合约发生了什么事件，并针对事件做出后续处理逻   辑*"
					}
				},
				"kind": "user",
				"methods": {
					"renounceOwnership()": {
						"notice": "Renouncing to ownership will leave the contract without an owner. It will not be possible to call the functions with the `onlyOwner` modifier anymore."
					}
				},
				"version": 1
			}
		}
	}
}