{
	"contracts/zombiefactory.sol": {
		"ZombieFactory": {
			"abi": [
				{
					"anonymous": false,
					"inputs": [
						{
							"indexed": false,
							"internalType": "uint256",
							"name": "zombieId",
							"type": "uint256"
						},
						{
							"indexed": false,
							"internalType": "string",
							"name": "name",
							"type": "string"
						},
						{
							"indexed": false,
							"internalType": "uint256",
							"name": "dna",
							"type": "uint256"
						}
					],
					"name": "NewZombie",
					"type": "event"
				},
				{
					"anonymous": false,
					"inputs": [
						{
							"indexed": true,
							"internalType": "address",
							"name": "previousOwner",
							"type": "address"
						},
						{
							"indexed": true,
							"internalType": "address",
							"name": "newOwner",
							"type": "address"
						}
					],
					"name": "OwnershipTransferred",
					"type": "event"
				},
				{
					"inputs": [
						{
							"internalType": "string",
							"name": "_name",
							"type": "string"
						}
					],
					"name": "createZombie",
					"outputs": [],
					"stateMutability": "nonpayable",
					"type": "function"
				},
				{
					"inputs": [],
					"name": "isOwner",
					"outputs": [
						{
							"internalType": "bool",
							"name": "",
							"type": "bool"
						}
					],
					"stateMutability": "view",
					"type": "function"
				},
				{
					"inputs": [],
					"name": "owner",
					"outputs": [
						{
							"internalType": "address",
							"name": "",
							"type": "address"
						}
					],
					"stateMutability": "view",
					"type": "function"
				},
				{
					"inputs": [],
					"name": "renounceOwnership",
					"outputs": [],
					"stateMutability": "nonpayable",
					"type": "function"
				},
				{
					"inputs": [
						{
							"internalType": "address",
							"name": "newOwner",
							"type": "address"
						}
					],
					"name": "transferOwnership",
					"outputs": [],
					"stateMutability": "nonpayable",
					"type": "function"
				},
				{
					"inputs": [
						{
							"internalType": "uint256",
							"name": "",
							"type": "uint256"
						}
					],
					"name": "zombies",
					"outputs": [
						{
							"internalType": "string",
							"name": "name",
							"type": "string"
						},
						{
							"internalType": "uint256",
							"name": "dna",
							"type": "uint256"
						},
						{
							"internalType": "uint32",
							"name": "level",
							"type": "uint32"
						},
						{
							"internalType": "uint32",
							"name": "readyTime",
							"type": "uint32"
						}
					],
					"stateMutability": "view",
					"type": "function"
				}
			],
			"devdoc": {
				"kind": "dev",
				"methods": {
					"isOwner()": {
						"returns": {
							"_0": "true if `msg.sender` is the owner of the contract."
						}
					},
					"owner()": {
						"returns": {
							"_0": "the address of the owner."
						}
					},
					"renounceOwnership()": {
						"details": "Allows the current owner to relinquish control of the contract."
					},
					"transferOwnership(address)": {
						"details": "Allows the current owner to transfer control of the contract to a newOwner.",
						"params": {
							"newOwner": "The address to transfer ownership to."
						}
					}
				},
				"version": 1
			},
			"evm": {
				"assembly": "    /* \"contracts/zombiefactory.sol\":87:1819  contract ZombieFactory is Ownable {... */\n  mstore(0x40, 0x80)\n    /* \"contracts/zombiefactory.sol\":550:552  16 */\n  0x10\n    /* \"contracts/zombiefactory.sol\":530:552  uint256 dnaDigits = 16 */\n  0x01\n  sstore\n    /* \"contracts/zombiefactory.sol\":586:595  dnaDigits */\n  sload(0x01)\n    /* \"contracts/zombiefactory.sol\":580:582  10 */\n  0x0a\n    /* \"contracts/zombiefactory.sol\":580:595  10 ** dnaDigits */\n  tag_1\n  swap2\n  swap1\n  tag_2\n  jump\t// in\ntag_1:\n    /* \"contracts/zombiefactory.sol\":559:595  uint256 dnaModulus = 10 ** dnaDigits */\n  0x02\n  sstore\n    /* \"contracts/zombiefactory.sol\":625:631  1 days */\n  0x015180\n    /* \"contracts/zombiefactory.sol\":602:631  uint256 cooldownTime = 1 days */\n  0x03\n  sstore\n    /* \"contracts/zombiefactory.sol\":87:1819  contract ZombieFactory is Ownable {... */\n  callvalue\n  dup1\n  iszero\n  tag_3\n  jumpi\n  revert(0x00, 0x00)\ntag_3:\n  pop\n    /* \"contracts/ownable.sol\":563:573  msg.sender */\n  caller\n    /* \"contracts/ownable.sol\":554:560  _owner */\n  0x00\n  0x00\n    /* \"contracts/ownable.sol\":554:573  _owner = msg.sender */\n  0x0100\n  exp\n  dup2\n  sload\n  dup2\n  0xffffffffffffffffffffffffffffffffffffffff\n  mul\n  not\n  and\n  swap1\n  dup4\n  0xffffffffffffffffffffffffffffffffffffffff\n  and\n  mul\n  or\n  swap1\n  sstore\n  pop\n    /* \"contracts/ownable.sol\":618:624  _owner */\n  0x00\n  0x00\n  swap1\n  sload\n  swap1\n  0x0100\n  exp\n  swap1\n  div\n  0xffffffffffffffffffffffffffffffffffffffff\n  and\n    /* \"contracts/ownable.sol\":585:625  OwnershipTransferred(address(0), _owner) */\n  0xffffffffffffffffffffffffffffffffffffffff\n  and\n    /* \"contracts/ownable.sol\":614:615  0 */\n  0x00\n    /* \"contracts/ownable.sol\":585:625  OwnershipTransferred(address(0), _owner) */\n  0xffffffffffffffffffffffffffffffffffffffff\n  and\n  0x8be0079c531659141344cd1fd0a4f28419497f9722a3daafe3b4186f6b6457e0\n  mload(0x40)\n  mload(0x40)\n  dup1\n  swap2\n  sub\n  swap1\n  log3\n    /* \"contracts/zombiefactory.sol\":87:1819  contract ZombieFactory is Ownable {... */\n  jump(tag_6)\n    /* \"#utility.yul\":7:187   */\ntag_7:\n    /* \"#utility.yul\":55:132   */\n  0x4e487b7100000000000000000000000000000000000000000000000000000000\n    /* \"#utility.yul\":52:53   */\n  0x00\n    /* \"#utility.yul\":45:133   */\n  mstore\n    /* \"#utility.yul\":152:156   */\n  0x11\n    /* \"#utility.yul\":149:150   */\n  0x04\n    /* \"#utility.yul\":142:157   */\n  mstore\n    /* \"#utility.yul\":176:180   */\n  0x24\n    /* \"#utility.yul\":173:174   */\n  0x00\n    /* \"#utility.yul\":166:181   */\n  revert\n    /* \"#utility.yul\":193:295   */\ntag_8:\n    /* \"#utility.yul\":235:243   */\n  0x00\n    /* \"#utility.yul\":282:287   */\n  dup2\n    /* \"#utility.yul\":279:280   */\n  0x01\n    /* \"#utility.yul\":275:288   */\n  shr\n    /* \"#utility.yul\":254:288   */\n  swap1\n  pop\n    /* \"#utility.yul\":193:295   */\n  swap2\n  swap1\n  pop\n  jump\t// out\n    /* \"#utility.yul\":301:1149   */\ntag_9:\n    /* \"#utility.yul\":362:367   */\n  0x00\n    /* \"#utility.yul\":369:373   */\n  0x00\n    /* \"#utility.yul\":393:399   */\n  dup3\n    /* \"#utility.yul\":384:399   */\n  swap2\n  pop\n    /* \"#utility.yul\":417:422   */\n  dup4\n    /* \"#utility.yul\":408:422   */\n  swap1\n  pop\n    /* \"#utility.yul\":431:1143   */\ntag_16:\n    /* \"#utility.yul\":452:453   */\n  0x01\n    /* \"#utility.yul\":442:450   */\n  dup6\n    /* \"#utility.yul\":439:454   */\n  gt\n    /* \"#utility.yul\":431:1143   */\n  iszero\n  tag_18\n  jumpi\n    /* \"#utility.yul\":547:551   */\n  dup1\n    /* \"#utility.yul\":542:545   */\n  dup7\n    /* \"#utility.yul\":538:552   */\n  div\n    /* \"#utility.yul\":532:536   */\n  dup2\n    /* \"#utility.yul\":529:553   */\n  gt\n    /* \"#utility.yul\":526:576   */\n  iszero\n  tag_19\n  jumpi\n    /* \"#utility.yul\":556:574   */\n  tag_20\n  tag_7\n  jump\t// in\ntag_20:\n    /* \"#utility.yul\":526:576   */\ntag_19:\n    /* \"#utility.yul\":606:607   */\n  0x01\n    /* \"#utility.yul\":596:604   */\n  dup6\n    /* \"#utility.yul\":592:608   */\n  and\n    /* \"#utility.yul\":589:1040   */\n  iszero\n  tag_21\n  jumpi\n    /* \"#utility.yul\":1021:1025   */\n  dup1\n    /* \"#utility.yul\":1014:1019   */\n  dup3\n    /* \"#utility.yul\":1010:1026   */\n  mul\n    /* \"#utility.yul\":1001:1026   */\n  swap2\n  pop\n    /* \"#utility.yul\":589:1040   */\ntag_21:\n    /* \"#utility.yul\":1071:1075   */\n  dup1\n    /* \"#utility.yul\":1065:1069   */\n  dup2\n    /* \"#utility.yul\":1061:1076   */\n  mul\n    /* \"#utility.yul\":1053:1076   */\n  swap1\n  pop\n    /* \"#utility.yul\":1101:1133   */\n  tag_22\n    /* \"#utility.yul\":1124:1132   */\n  dup6\n    /* \"#utility.yul\":1101:1133   */\n  tag_8\n  jump\t// in\ntag_22:\n    /* \"#utility.yul\":1089:1133   */\n  swap5\n  pop\n    /* \"#utility.yul\":431:1143   */\n  jump(tag_16)\ntag_18:\n    /* \"#utility.yul\":301:1149   */\n  swap5\n  pop\n  swap5\n  swap3\n  pop\n  pop\n  pop\n  jump\t// out\n    /* \"#utility.yul\":1155:2228   */\ntag_10:\n    /* \"#utility.yul\":1209:1214   */\n  0x00\n    /* \"#utility.yul\":1400:1408   */\n  dup3\n    /* \"#utility.yul\":1390:1430   */\n  tag_24\n  jumpi\n    /* \"#utility.yul\":1421:1422   */\n  0x01\n    /* \"#utility.yul\":1412:1422   */\n  swap1\n  pop\n    /* \"#utility.yul\":1423:1428   */\n  jump(tag_23)\n    /* \"#utility.yul\":1390:1430   */\ntag_24:\n    /* \"#utility.yul\":1449:1453   */\n  dup2\n    /* \"#utility.yul\":1439:1475   */\n  tag_25\n  jumpi\n    /* \"#utility.yul\":1466:1467   */\n  0x00\n    /* \"#utility.yul\":1457:1467   */\n  swap1\n  pop\n    /* \"#utility.yul\":1468:1473   */\n  jump(tag_23)\n    /* \"#utility.yul\":1439:1475   */\ntag_25:\n    /* \"#utility.yul\":1535:1539   */\n  dup2\n    /* \"#utility.yul\":1583:1584   */\n  0x01\n    /* \"#utility.yul\":1578:1605   */\n  dup2\n  eq\n  tag_27\n  jumpi\n    /* \"#utility.yul\":1619:1620   */\n  0x02\n    /* \"#utility.yul\":1614:1805   */\n  dup2\n  eq\n  tag_28\n  jumpi\n    /* \"#utility.yul\":1528:1805   */\n  jump(tag_26)\n    /* \"#utility.yul\":1578:1605   */\ntag_27:\n    /* \"#utility.yul\":1596:1597   */\n  0x01\n    /* \"#utility.yul\":1587:1597   */\n  swap2\n  pop\n    /* \"#utility.yul\":1598:1603   */\n  pop\n  jump(tag_23)\n    /* \"#utility.yul\":1614:1805   */\ntag_28:\n    /* \"#utility.yul\":1659:1662   */\n  0xff\n    /* \"#utility.yul\":1649:1657   */\n  dup5\n    /* \"#utility.yul\":1646:1663   */\n  gt\n    /* \"#utility.yul\":1643:1686   */\n  iszero\n  tag_29\n  jumpi\n    /* \"#utility.yul\":1666:1684   */\n  tag_30\n  tag_7\n  jump\t// in\ntag_30:\n    /* \"#utility.yul\":1643:1686   */\ntag_29:\n    /* \"#utility.yul\":1715:1723   */\n  dup4\n    /* \"#utility.yul\":1712:1713   */\n  0x02\n    /* \"#utility.yul\":1708:1724   */\n  exp\n    /* \"#utility.yul\":1699:1724   */\n  swap2\n  pop\n    /* \"#utility.yul\":1750:1753   */\n  dup5\n    /* \"#utility.yul\":1743:1748   */\n  dup3\n    /* \"#utility.yul\":1740:1754   */\n  gt\n    /* \"#utility.yul\":1737:1777   */\n  iszero\n  tag_31\n  jumpi\n    /* \"#utility.yul\":1757:1775   */\n  tag_32\n  tag_7\n  jump\t// in\ntag_32:\n    /* \"#utility.yul\":1737:1777   */\ntag_31:\n    /* \"#utility.yul\":1790:1795   */\n  pop\n  jump(tag_23)\n    /* \"#utility.yul\":1528:1805   */\ntag_26:\n  pop\n    /* \"#utility.yul\":1914:1916   */\n  0x20\n    /* \"#utility.yul\":1904:1912   */\n  dup4\n    /* \"#utility.yul\":1901:1917   */\n  lt\n    /* \"#utility.yul\":1895:1898   */\n  0x0133\n    /* \"#utility.yul\":1889:1893   */\n  dup4\n    /* \"#utility.yul\":1886:1899   */\n  lt\n    /* \"#utility.yul\":1882:1918   */\n  and\n    /* \"#utility.yul\":1864:1866   */\n  0x4e\n    /* \"#utility.yul\":1854:1862   */\n  dup5\n    /* \"#utility.yul\":1851:1867   */\n  lt\n    /* \"#utility.yul\":1846:1848   */\n  0x0b\n    /* \"#utility.yul\":1840:1844   */\n  dup5\n    /* \"#utility.yul\":1837:1849   */\n  lt\n    /* \"#utility.yul\":1833:1868   */\n  and\n    /* \"#utility.yul\":1817:1928   */\n  or\n    /* \"#utility.yul\":1814:2060   */\n  iszero\n  tag_33\n  jumpi\n    /* \"#utility.yul\":1970:1978   */\n  dup3\n    /* \"#utility.yul\":1964:1968   */\n  dup3\n    /* \"#utility.yul\":1960:1979   */\n  exp\n    /* \"#utility.yul\":1951:1979   */\n  swap1\n  pop\n    /* \"#utility.yul\":2005:2008   */\n  dup4\n    /* \"#utility.yul\":1998:2003   */\n  dup2\n    /* \"#utility.yul\":1995:2009   */\n  gt\n    /* \"#utility.yul\":1992:2032   */\n  iszero\n  tag_34\n  jumpi\n    /* \"#utility.yul\":2012:2030   */\n  tag_35\n  tag_7\n  jump\t// in\ntag_35:\n    /* \"#utility.yul\":1992:2032   */\ntag_34:\n    /* \"#utility.yul\":2045:2050   */\n  jump(tag_23)\n    /* \"#utility.yul\":1814:2060   */\ntag_33:\n    /* \"#utility.yul\":2085:2127   */\n  tag_36\n    /* \"#utility.yul\":2123:2126   */\n  dup5\n    /* \"#utility.yul\":2113:2121   */\n  dup5\n    /* \"#utility.yul\":2107:2111   */\n  dup5\n    /* \"#utility.yul\":2104:2105   */\n  0x01\n    /* \"#utility.yul\":2085:2127   */\n  tag_9\n  jump\t// in\ntag_36:\n    /* \"#utility.yul\":2070:2127   */\n  swap3\n  pop\n  swap1\n  pop\n    /* \"#utility.yul\":2159:2163   */\n  dup2\n    /* \"#utility.yul\":2154:2157   */\n  dup5\n    /* \"#utility.yul\":2150:2164   */\n  div\n    /* \"#utility.yul\":2143:2148   */\n  dup2\n    /* \"#utility.yul\":2140:2165   */\n  gt\n    /* \"#utility.yul\":2137:2188   */\n  iszero\n  tag_37\n  jumpi\n    /* \"#utility.yul\":2168:2186   */\n  tag_38\n  tag_7\n  jump\t// in\ntag_38:\n    /* \"#utility.yul\":2137:2188   */\ntag_37:\n    /* \"#utility.yul\":2217:2221   */\n  dup2\n    /* \"#utility.yul\":2210:2215   */\n  dup2\n    /* \"#utility.yul\":2206:2222   */\n  mul\n    /* \"#utility.yul\":2197:2222   */\n  swap1\n  pop\n    /* \"#utility.yul\":1155:2228   */\ntag_23:\n  swap4\n  swap3\n  pop\n  pop\n  pop\n  jump\t// out\n    /* \"#utility.yul\":2234:2311   */\ntag_11:\n    /* \"#utility.yul\":2271:2278   */\n  0x00\n    /* \"#utility.yul\":2300:2305   */\n  dup2\n    /* \"#utility.yul\":2289:2305   */\n  swap1\n  pop\n    /* \"#utility.yul\":2234:2311   */\n  swap2\n  swap1\n  pop\n  jump\t// out\n    /* \"#utility.yul\":2317:2602   */\ntag_2:\n    /* \"#utility.yul\":2377:2382   */\n  0x00\n    /* \"#utility.yul\":2401:2424   */\n  tag_41\n    /* \"#utility.yul\":2419:2423   */\n  dup3\n    /* \"#utility.yul\":2401:2424   */\n  tag_11\n  jump\t// in\ntag_41:\n    /* \"#utility.yul\":2393:2424   */\n  swap2\n  pop\n    /* \"#utility.yul\":2445:2472   */\n  tag_42\n    /* \"#utility.yul\":2463:2471   */\n  dup4\n    /* \"#utility.yul\":2445:2472   */\n  tag_11\n  jump\t// in\ntag_42:\n    /* \"#utility.yul\":2433:2472   */\n  swap3\n  pop\n    /* \"#utility.yul\":2491:2595   */\n  tag_43\n    /* \"#utility.yul\":2528:2594   */\n  0xffffffffffffffffffffffffffffffffffffffffffffffffffffffffffffffff\n    /* \"#utility.yul\":2518:2526   */\n  dup5\n    /* \"#utility.yul\":2512:2516   */\n  dup5\n    /* \"#utility.yul\":2491:2595   */\n  tag_10\n  jump\t// in\ntag_43:\n    /* \"#utility.yul\":2482:2595   */\n  swap1\n  pop\n    /* \"#utility.yul\":2317:2602   */\n  swap3\n  swap2\n  pop\n  pop\n  jump\t// out\n    /* \"contracts/zombiefactory.sol\":87:1819  contract ZombieFactory is Ownable {... */\ntag_6:\n  dataSize(sub_0)\n  dup1\n  dataOffset(sub_0)\n  0x00\n  codecopy\n  0x00\n  return\nstop\n\nsub_0: assembly {\n        /* \"contracts/zombiefactory.sol\":87:1819  contract ZombieFactory is Ownable {... */\n      mstore(0x40, 0x80)\n      callvalue\n      dup1\n      iszero\n      tag_1\n      jumpi\n      revert(0x00, 0x00)\n    tag_1:\n      pop\n      jumpi(tag_2, lt(calldatasize, 0x04))\n      shr(0xe0, calldataload(0x00))\n      dup1\n      0x2052465e\n      eq\n      tag_3\n      jumpi\n      dup1\n      0x715018a6\n      eq\n      tag_4\n      jumpi\n      dup1\n      0x8da5cb5b\n      eq\n      tag_5\n      jumpi\n      dup1\n      0x8f32d59b\n      eq\n      tag_6\n      jumpi\n      dup1\n      0xad822778\n      eq\n      tag_7\n      jumpi\n      dup1\n      0xf2fde38b\n      eq\n      tag_8\n      jumpi\n    tag_2:\n      revert(0x00, 0x00)\n        /* \"contracts/zombiefactory.sol\":764:787  Zombie[] public zombies */\n    tag_3:\n      tag_9\n      0x04\n      dup1\n      calldatasize\n      sub\n      dup2\n      add\n      swap1\n      tag_10\n      swap2\n      swap1\n      tag_11\n      jump\t// in\n    tag_10:\n      tag_12\n      jump\t// in\n    tag_9:\n      mload(0x40)\n      tag_13\n      swap5\n      swap4\n      swap3\n      swap2\n      swap1\n      tag_14\n      jump\t// in\n    tag_13:\n      mload(0x40)\n      dup1\n      swap2\n      sub\n      swap1\n      return\n        /* \"contracts/ownable.sol\":1339:1469  function renounceOwnership() public onlyOwner {... */\n    tag_4:\n      tag_15\n      tag_16\n      jump\t// in\n    tag_15:\n      stop\n        /* \"contracts/ownable.sol\":689:761  function owner() public view returns(address) {... */\n    tag_5:\n      tag_17\n      tag_18\n      jump\t// in\n    tag_17:\n      mload(0x40)\n      tag_19\n      swap2\n      swap1\n      tag_20\n      jump\t// in\n    tag_19:\n      mload(0x40)\n      dup1\n      swap2\n      sub\n      swap1\n      return\n        /* \"contracts/ownable.sol\":987:1072  function isOwner() public view returns(bool) {... */\n    tag_6:\n      tag_21\n      tag_22\n      jump\t// in\n    tag_21:\n      mload(0x40)\n      tag_23\n      swap2\n      swap1\n      tag_24\n      jump\t// in\n    tag_23:\n      mload(0x40)\n      dup1\n      swap2\n      sub\n      swap1\n      return\n        /* \"contracts/zombiefactory.sol\":1623:1814  function createZombie(string memory _name) public {... */\n    tag_7:\n      tag_25\n      0x04\n      dup1\n      calldatasize\n      sub\n      dup2\n      add\n      swap1\n      tag_26\n      swap2\n      swap1\n      tag_27\n      jump\t// in\n    tag_26:\n      tag_28\n      jump\t// in\n    tag_25:\n      stop\n        /* \"contracts/ownable.sol\":1633:1736  function transferOwnership(address newOwner) public onlyOwner {... */\n    tag_8:\n      tag_29\n      0x04\n      dup1\n      calldatasize\n      sub\n      dup2\n      add\n      swap1\n      tag_30\n      swap2\n      swap1\n      tag_31\n      jump\t// in\n    tag_30:\n      tag_32\n      jump\t// in\n    tag_29:\n      stop\n        /* \"contracts/zombiefactory.sol\":764:787  Zombie[] public zombies */\n    tag_12:\n      0x04\n      dup2\n      dup2\n      sload\n      dup2\n      lt\n      tag_33\n      jumpi\n      0x00\n      dup1\n      revert\n    tag_33:\n      swap1\n      0x00\n      mstore\n      keccak256(0x00, 0x20)\n      swap1\n      0x03\n      mul\n      add\n      0x00\n      swap2\n      pop\n      swap1\n      pop\n      dup1\n      0x00\n      add\n      dup1\n      sload\n      tag_35\n      swap1\n      tag_36\n      jump\t// in\n    tag_35:\n      dup1\n      0x1f\n      add\n      0x20\n      dup1\n      swap2\n      div\n      mul\n      0x20\n      add\n      mload(0x40)\n      swap1\n      dup2\n      add\n      0x40\n      mstore\n      dup1\n      swap3\n      swap2\n      swap1\n      dup2\n      dup2\n      mstore\n      0x20\n      add\n      dup3\n      dup1\n      sload\n      tag_37\n      swap1\n      tag_36\n      jump\t// in\n    tag_37:\n      dup1\n      iszero\n      tag_38\n      jumpi\n      dup1\n      0x1f\n      lt\n      tag_39\n      jumpi\n      0x0100\n      dup1\n      dup4\n      sload\n      div\n      mul\n      dup4\n      mstore\n      swap2\n      0x20\n      add\n      swap2\n      jump(tag_38)\n    tag_39:\n      dup3\n      add\n      swap2\n      swap1\n      0x00\n      mstore\n      keccak256(0x00, 0x20)\n      swap1\n    tag_40:\n      dup2\n      sload\n      dup2\n      mstore\n      swap1\n      0x01\n      add\n      swap1\n      0x20\n      add\n      dup1\n      dup4\n      gt\n      tag_40\n      jumpi\n      dup3\n      swap1\n      sub\n      0x1f\n      and\n      dup3\n      add\n      swap2\n    tag_38:\n      pop\n      pop\n      pop\n      pop\n      pop\n      swap1\n      dup1\n      0x01\n      add\n      sload\n      swap1\n      dup1\n      0x02\n      add\n      0x00\n      swap1\n      sload\n      swap1\n      0x0100\n      exp\n      swap1\n      div\n      0xffffffff\n      and\n      swap1\n      dup1\n      0x02\n      add\n      0x04\n      swap1\n      sload\n      swap1\n      0x0100\n      exp\n      swap1\n      div\n      0xffffffff\n      and\n      swap1\n      pop\n      dup5\n      jump\t// out\n        /* \"contracts/ownable.sol\":1339:1469  function renounceOwnership() public onlyOwner {... */\n    tag_16:\n        /* \"contracts/ownable.sol\":880:889  isOwner() */\n      tag_42\n        /* \"contracts/ownable.sol\":880:887  isOwner */\n      tag_22\n        /* \"contracts/ownable.sol\":880:889  isOwner() */\n      jump\t// in\n    tag_42:\n        /* \"contracts/ownable.sol\":872:890  require(isOwner()) */\n      tag_43\n      jumpi\n      revert(0x00, 0x00)\n    tag_43:\n        /* \"contracts/ownable.sol\":1434:1435  0 */\n      0x00\n        /* \"contracts/ownable.sol\":1397:1437  OwnershipTransferred(_owner, address(0)) */\n      0xffffffffffffffffffffffffffffffffffffffff\n      and\n        /* \"contracts/ownable.sol\":1418:1424  _owner */\n      0x00\n      0x00\n      swap1\n      sload\n      swap1\n      0x0100\n      exp\n      swap1\n      div\n      0xffffffffffffffffffffffffffffffffffffffff\n      and\n        /* \"contracts/ownable.sol\":1397:1437  OwnershipTransferred(_owner, address(0)) */\n      0xffffffffffffffffffffffffffffffffffffffff\n      and\n      0x8be0079c531659141344cd1fd0a4f28419497f9722a3daafe3b4186f6b6457e0\n      mload(0x40)\n      mload(0x40)\n      dup1\n      swap2\n      sub\n      swap1\n      log3\n        /* \"contracts/ownable.sol\":1461:1462  0 */\n      0x00\n        /* \"contracts/ownable.sol\":1444:1450  _owner */\n      0x00\n      0x00\n        /* \"contracts/ownable.sol\":1444:1463  _owner = address(0) */\n      0x0100\n      exp\n      dup2\n      sload\n      dup2\n      0xffffffffffffffffffffffffffffffffffffffff\n      mul\n      not\n      and\n      swap1\n      dup4\n      0xffffffffffffffffffffffffffffffffffffffff\n      and\n      mul\n      or\n      swap1\n      sstore\n      pop\n        /* \"contracts/ownable.sol\":1339:1469  function renounceOwnership() public onlyOwner {... */\n      jump\t// out\n        /* \"contracts/ownable.sol\":689:761  function owner() public view returns(address) {... */\n    tag_18:\n        /* \"contracts/ownable.sol\":726:733  address */\n      0x00\n        /* \"contracts/ownable.sol\":749:755  _owner */\n      0x00\n      0x00\n      swap1\n      sload\n      swap1\n      0x0100\n      exp\n      swap1\n      div\n      0xffffffffffffffffffffffffffffffffffffffff\n      and\n        /* \"contracts/ownable.sol\":742:755  return _owner */\n      swap1\n      pop\n        /* \"contracts/ownable.sol\":689:761  function owner() public view returns(address) {... */\n      swap1\n      jump\t// out\n        /* \"contracts/ownable.sol\":987:1072  function isOwner() public view returns(bool) {... */\n    tag_22:\n        /* \"contracts/ownable.sol\":1026:1030  bool */\n      0x00\n        /* \"contracts/ownable.sol\":1060:1066  _owner */\n      0x00\n      0x00\n      swap1\n      sload\n      swap1\n      0x0100\n      exp\n      swap1\n      div\n      0xffffffffffffffffffffffffffffffffffffffff\n      and\n        /* \"contracts/ownable.sol\":1046:1066  msg.sender == _owner */\n      0xffffffffffffffffffffffffffffffffffffffff\n      and\n        /* \"contracts/ownable.sol\":1046:1056  msg.sender */\n      caller\n        /* \"contracts/ownable.sol\":1046:1066  msg.sender == _owner */\n      0xffffffffffffffffffffffffffffffffffffffff\n      and\n      eq\n        /* \"contracts/ownable.sol\":1039:1066  return msg.sender == _owner */\n      swap1\n      pop\n        /* \"contracts/ownable.sol\":987:1072  function isOwner() public view returns(bool) {... */\n      swap1\n      jump\t// out\n        /* \"contracts/zombiefactory.sol\":1623:1814  function createZombie(string memory _name) public {... */\n    tag_28:\n        /* \"contracts/zombiefactory.sol\":1724:1725  0 */\n      0x00\n        /* \"contracts/zombiefactory.sol\":1692:1708  ownerZombieCount */\n      0x06\n        /* \"contracts/zombiefactory.sol\":1692:1720  ownerZombieCount[msg.sender] */\n      0x00\n        /* \"contracts/zombiefactory.sol\":1709:1719  msg.sender */\n      caller\n        /* \"contracts/zombiefactory.sol\":1692:1720  ownerZombieCount[msg.sender] */\n      0xffffffffffffffffffffffffffffffffffffffff\n      and\n      0xffffffffffffffffffffffffffffffffffffffff\n      and\n      dup2\n      mstore\n      0x20\n      add\n      swap1\n      dup2\n      mstore\n      0x20\n      add\n      0x00\n      keccak256\n      sload\n        /* \"contracts/zombiefactory.sol\":1692:1725  ownerZombieCount[msg.sender] == 0 */\n      eq\n        /* \"contracts/zombiefactory.sol\":1684:1726  require(ownerZombieCount[msg.sender] == 0) */\n      tag_48\n      jumpi\n      revert(0x00, 0x00)\n    tag_48:\n        /* \"contracts/zombiefactory.sol\":1737:1748  uint256 dna */\n      0x00\n        /* \"contracts/zombiefactory.sol\":1751:1770  _generateDna(_name) */\n      tag_49\n        /* \"contracts/zombiefactory.sol\":1764:1769  _name */\n      dup3\n        /* \"contracts/zombiefactory.sol\":1751:1763  _generateDna */\n      tag_50\n        /* \"contracts/zombiefactory.sol\":1751:1770  _generateDna(_name) */\n      jump\t// in\n    tag_49:\n        /* \"contracts/zombiefactory.sol\":1737:1770  uint256 dna = _generateDna(_name) */\n      swap1\n      pop\n        /* \"contracts/zombiefactory.sol\":1781:1806  _createZombie(_name, dna) */\n      tag_51\n        /* \"contracts/zombiefactory.sol\":1795:1800  _name */\n      dup3\n        /* \"contracts/zombiefactory.sol\":1802:1805  dna */\n      dup3\n        /* \"contracts/zombiefactory.sol\":1781:1794  _createZombie */\n      tag_52\n        /* \"contracts/zombiefactory.sol\":1781:1806  _createZombie(_name, dna) */\n      jump\t// in\n    tag_51:\n        /* \"contracts/zombiefactory.sol\":1673:1814  {... */\n      pop\n        /* \"contracts/zombiefactory.sol\":1623:1814  function createZombie(string memory _name) public {... */\n      pop\n      jump\t// out\n        /* \"contracts/ownable.sol\":1633:1736  function transferOwnership(address newOwner) public onlyOwner {... */\n    tag_32:\n        /* \"contracts/ownable.sol\":880:889  isOwner() */\n      tag_54\n        /* \"contracts/ownable.sol\":880:887  isOwner */\n      tag_22\n        /* \"contracts/ownable.sol\":880:889  isOwner() */\n      jump\t// in\n    tag_54:\n        /* \"contracts/ownable.sol\":872:890  require(isOwner()) */\n      tag_55\n      jumpi\n      revert(0x00, 0x00)\n    tag_55:\n        /* \"contracts/ownable.sol\":1702:1730  _transferOwnership(newOwner) */\n      tag_57\n        /* \"contracts/ownable.sol\":1721:1729  newOwner */\n      dup2\n        /* \"contracts/ownable.sol\":1702:1720  _transferOwnership */\n      tag_58\n        /* \"contracts/ownable.sol\":1702:1730  _transferOwnership(newOwner) */\n      jump\t// in\n    tag_57:\n        /* \"contracts/ownable.sol\":1633:1736  function transferOwnership(address newOwner) public onlyOwner {... */\n      pop\n      jump\t// out\n        /* \"contracts/zombiefactory.sol\":1429:1615  function _generateDna(string memory _str) private view returns (uint256) {... */\n    tag_50:\n        /* \"contracts/zombiefactory.sol\":1493:1500  uint256 */\n      0x00\n        /* \"contracts/zombiefactory.sol\":1513:1525  uint256 rand */\n      0x00\n        /* \"contracts/zombiefactory.sol\":1565:1569  _str */\n      dup3\n        /* \"contracts/zombiefactory.sol\":1548:1570  abi.encodePacked(_str) */\n      add(0x20, mload(0x40))\n      tag_60\n      swap2\n      swap1\n      tag_61\n      jump\t// in\n    tag_60:\n      mload(0x40)\n      0x20\n      dup2\n      dup4\n      sub\n      sub\n      dup2\n      mstore\n      swap1\n      0x40\n      mstore\n        /* \"contracts/zombiefactory.sol\":1538:1571  keccak256(abi.encodePacked(_str)) */\n      dup1\n      mload\n      swap1\n      0x20\n      add\n      keccak256\n        /* \"contracts/zombiefactory.sol\":1528:1572  (uint256)(keccak256(abi.encodePacked(_str))) */\n      0x00\n      shr\n        /* \"contracts/zombiefactory.sol\":1513:1572  uint256 rand = (uint256)(keccak256(abi.encodePacked(_str))) */\n      swap1\n      pop\n        /* \"contracts/zombiefactory.sol\":1597:1607  dnaModulus */\n      sload(0x02)\n        /* \"contracts/zombiefactory.sol\":1590:1594  rand */\n      dup2\n        /* \"contracts/zombiefactory.sol\":1590:1607  rand % dnaModulus */\n      tag_62\n      swap2\n      swap1\n      tag_63\n      jump\t// in\n    tag_62:\n        /* \"contracts/zombiefactory.sol\":1583:1607  return rand % dnaModulus */\n      swap2\n      pop\n      pop\n        /* \"contracts/zombiefactory.sol\":1429:1615  function _generateDna(string memory _str) private view returns (uint256) {... */\n      swap2\n      swap1\n      pop\n      jump\t// out\n        /* \"contracts/zombiefactory.sol\":901:1229  function _createZombie(string memory _name, uint256 _dna) internal {... */\n    tag_52:\n        /* \"contracts/zombiefactory.sol\":979:986  zombies */\n      0x04\n        /* \"contracts/zombiefactory.sol\":992:1054  Zombie(_name, _dna, 1, uint32(block.timestamp + cooldownTime)) */\n      mload(0x40)\n      dup1\n      0x80\n      add\n      0x40\n      mstore\n      dup1\n        /* \"contracts/zombiefactory.sol\":999:1004  _name */\n      dup5\n        /* \"contracts/zombiefactory.sol\":992:1054  Zombie(_name, _dna, 1, uint32(block.timestamp + cooldownTime)) */\n      dup2\n      mstore\n      0x20\n      add\n        /* \"contracts/zombiefactory.sol\":1006:1010  _dna */\n      dup4\n        /* \"contracts/zombiefactory.sol\":992:1054  Zombie(_name, _dna, 1, uint32(block.timestamp + cooldownTime)) */\n      dup2\n      mstore\n      0x20\n      add\n        /* \"contracts/zombiefactory.sol\":1012:1013  1 */\n      0x01\n        /* \"contracts/zombiefactory.sol\":992:1054  Zombie(_name, _dna, 1, uint32(block.timestamp + cooldownTime)) */\n      0xffffffff\n      and\n      dup2\n      mstore\n      0x20\n      add\n        /* \"contracts/zombiefactory.sol\":1040:1052  cooldownTime */\n      sload(0x03)\n        /* \"contracts/zombiefactory.sol\":1022:1037  block.timestamp */\n      timestamp\n        /* \"contracts/zombiefactory.sol\":1022:1052  block.timestamp + cooldownTime */\n      tag_65\n      swap2\n      swap1\n      tag_66\n      jump\t// in\n    tag_65:\n        /* \"contracts/zombiefactory.sol\":992:1054  Zombie(_name, _dna, 1, uint32(block.timestamp + cooldownTime)) */\n      0xffffffff\n      and\n      dup2\n      mstore\n      pop\n        /* \"contracts/zombiefactory.sol\":979:1055  zombies.push(Zombie(_name, _dna, 1, uint32(block.timestamp + cooldownTime))) */\n      swap1\n      dup1\n      0x01\n      dup2\n      sload\n      add\n      dup1\n      dup3\n      sstore\n      dup1\n      swap2\n      pop\n      pop\n      0x01\n      swap1\n      sub\n      swap1\n      0x00\n      mstore\n      keccak256(0x00, 0x20)\n      swap1\n      0x03\n      mul\n      add\n      0x00\n      swap1\n      swap2\n      swap1\n      swap2\n      swap1\n      swap2\n      pop\n      0x00\n      dup3\n      add\n      mload\n      dup2\n      0x00\n      add\n      swap1\n      dup2\n      tag_68\n      swap2\n      swap1\n      tag_69\n      jump\t// in\n    tag_68:\n      pop\n      0x20\n      dup3\n      add\n      mload\n      dup2\n      0x01\n      add\n      sstore\n      0x40\n      dup3\n      add\n      mload\n      dup2\n      0x02\n      add\n      exp(0x0100, 0x00)\n      dup2\n      sload\n      dup2\n      0xffffffff\n      mul\n      not\n      and\n      swap1\n      dup4\n      0xffffffff\n      and\n      mul\n      or\n      swap1\n      sstore\n      pop\n      0x60\n      dup3\n      add\n      mload\n      dup2\n      0x02\n      add\n      exp(0x0100, 0x04)\n      dup2\n      sload\n      dup2\n      0xffffffff\n      mul\n      not\n      and\n      swap1\n      dup4\n      0xffffffff\n      and\n      mul\n      or\n      swap1\n      sstore\n      pop\n      pop\n      pop\n        /* \"contracts/zombiefactory.sol\":1066:1076  uint256 id */\n      0x00\n        /* \"contracts/zombiefactory.sol\":1096:1097  1 */\n      0x01\n        /* \"contracts/zombiefactory.sol\":1079:1086  zombies */\n      0x04\n        /* \"contracts/zombiefactory.sol\":1079:1093  zombies.length */\n      dup1\n      sload\n      swap1\n      pop\n        /* \"contracts/zombiefactory.sol\":1079:1097  zombies.length - 1 */\n      tag_70\n      swap2\n      swap1\n      tag_71\n      jump\t// in\n    tag_70:\n        /* \"contracts/zombiefactory.sol\":1066:1097  uint256 id = zombies.length - 1 */\n      swap1\n      pop\n        /* \"contracts/zombiefactory.sol\":1128:1138  msg.sender */\n      caller\n        /* \"contracts/zombiefactory.sol\":1108:1121  zombieToOwner */\n      0x05\n        /* \"contracts/zombiefactory.sol\":1108:1125  zombieToOwner[id] */\n      0x00\n        /* \"contracts/zombiefactory.sol\":1122:1124  id */\n      dup4\n        /* \"contracts/zombiefactory.sol\":1108:1125  zombieToOwner[id] */\n      dup2\n      mstore\n      0x20\n      add\n      swap1\n      dup2\n      mstore\n      0x20\n      add\n      0x00\n      keccak256\n      0x00\n        /* \"contracts/zombiefactory.sol\":1108:1138  zombieToOwner[id] = msg.sender */\n      0x0100\n      exp\n      dup2\n      sload\n      dup2\n      0xffffffffffffffffffffffffffffffffffffffff\n      mul\n      not\n      and\n      swap1\n      dup4\n      0xffffffffffffffffffffffffffffffffffffffff\n      and\n      mul\n      or\n      swap1\n      sstore\n      pop\n        /* \"contracts/zombiefactory.sol\":1149:1165  ownerZombieCount */\n      0x06\n        /* \"contracts/zombiefactory.sol\":1149:1177  ownerZombieCount[msg.sender] */\n      0x00\n        /* \"contracts/zombiefactory.sol\":1166:1176  msg.sender */\n      caller\n        /* \"contracts/zombiefactory.sol\":1149:1177  ownerZombieCount[msg.sender] */\n      0xffffffffffffffffffffffffffffffffffffffff\n      and\n      0xffffffffffffffffffffffffffffffffffffffff\n      and\n      dup2\n      mstore\n      0x20\n      add\n      swap1\n      dup2\n      mstore\n      0x20\n      add\n      0x00\n      keccak256\n      0x00\n        /* \"contracts/zombiefactory.sol\":1149:1179  ownerZombieCount[msg.sender]++ */\n      dup2\n      sload\n      dup1\n      swap3\n      swap2\n      swap1\n      tag_72\n      swap1\n      tag_73\n      jump\t// in\n    tag_72:\n      swap2\n      swap1\n      pop\n      sstore\n      pop\n        /* \"contracts/zombiefactory.sol\":1195:1221  NewZombie(id, _name, _dna) */\n      0x88f026aacbbecc90c18411df4b1185fd8d9be2470f1962f192bf84a27d0704b7\n        /* \"contracts/zombiefactory.sol\":1205:1207  id */\n      dup2\n        /* \"contracts/zombiefactory.sol\":1209:1214  _name */\n      dup5\n        /* \"contracts/zombiefactory.sol\":1216:1220  _dna */\n      dup5\n        /* \"contracts/zombiefactory.sol\":1195:1221  NewZombie(id, _name, _dna) */\n      mload(0x40)\n      tag_74\n      swap4\n      swap3\n      swap2\n      swap1\n      tag_75\n      jump\t// in\n    tag_74:\n      mload(0x40)\n      dup1\n      swap2\n      sub\n      swap1\n      log1\n        /* \"contracts/zombiefactory.sol\":968:1229  {... */\n      pop\n        /* \"contracts/zombiefactory.sol\":901:1229  function _createZombie(string memory _name, uint256 _dna) internal {... */\n      pop\n      pop\n      jump\t// out\n        /* \"contracts/ownable.sol\":1873:2046  function _transferOwnership(address newOwner) internal {... */\n    tag_58:\n        /* \"contracts/ownable.sol\":1963:1964  0 */\n      0x00\n        /* \"contracts/ownable.sol\":1943:1965  newOwner != address(0) */\n      0xffffffffffffffffffffffffffffffffffffffff\n      and\n        /* \"contracts/ownable.sol\":1943:1951  newOwner */\n      dup2\n        /* \"contracts/ownable.sol\":1943:1965  newOwner != address(0) */\n      0xffffffffffffffffffffffffffffffffffffffff\n      and\n      sub\n        /* \"contracts/ownable.sol\":1935:1966  require(newOwner != address(0)) */\n      tag_77\n      jumpi\n      revert(0x00, 0x00)\n    tag_77:\n        /* \"contracts/ownable.sol\":2007:2015  newOwner */\n      dup1\n        /* \"contracts/ownable.sol\":1978:2016  OwnershipTransferred(_owner, newOwner) */\n      0xffffffffffffffffffffffffffffffffffffffff\n      and\n        /* \"contracts/ownable.sol\":1999:2005  _owner */\n      0x00\n      0x00\n      swap1\n      sload\n      swap1\n      0x0100\n      exp\n      swap1\n      div\n      0xffffffffffffffffffffffffffffffffffffffff\n      and\n        /* \"contracts/ownable.sol\":1978:2016  OwnershipTransferred(_owner, newOwner) */\n      0xffffffffffffffffffffffffffffffffffffffff\n      and\n      0x8be0079c531659141344cd1fd0a4f28419497f9722a3daafe3b4186f6b6457e0\n      mload(0x40)\n      mload(0x40)\n      dup1\n      swap2\n      sub\n      swap1\n      log3\n        /* \"contracts/ownable.sol\":2032:2040  newOwner */\n      dup1\n        /* \"contracts/ownable.sol\":2023:2029  _owner */\n      0x00\n      0x00\n        /* \"contracts/ownable.sol\":2023:2040  _owner = newOwner */\n      0x0100\n      exp\n      dup2\n      sload\n      dup2\n      0xffffffffffffffffffffffffffffffffffffffff\n      mul\n      not\n      and\n      swap1\n      dup4\n      0xffffffffffffffffffffffffffffffffffffffff\n      and\n      mul\n      or\n      swap1\n      sstore\n      pop\n        /* \"contracts/ownable.sol\":1873:2046  function _transferOwnership(address newOwner) internal {... */\n      pop\n      jump\t// out\n        /* \"#utility.yul\":7:82   */\n    tag_78:\n        /* \"#utility.yul\":40:46   */\n      0x00\n        /* \"#utility.yul\":73:75   */\n      0x40\n        /* \"#utility.yul\":67:76   */\n      mload\n        /* \"#utility.yul\":57:76   */\n      swap1\n      pop\n        /* \"#utility.yul\":7:82   */\n      swap1\n      jump\t// out\n        /* \"#utility.yul\":88:205   */\n    tag_79:\n        /* \"#utility.yul\":197:198   */\n      0x00\n        /* \"#utility.yul\":194:195   */\n      0x00\n        /* \"#utility.yul\":187:199   */\n      revert\n        /* \"#utility.yul\":211:328   */\n    tag_80:\n        /* \"#utility.yul\":320:321   */\n      0x00\n        /* \"#utility.yul\":317:318   */\n      0x00\n        /* \"#utility.yul\":310:322   */\n      revert\n        /* \"#utility.yul\":334:411   */\n    tag_81:\n        /* \"#utility.yul\":371:378   */\n      0x00\n        /* \"#utility.yul\":400:405   */\n      dup2\n        /* \"#utility.yul\":389:405   */\n      swap1\n      pop\n        /* \"#utility.yul\":334:411   */\n      swap2\n      swap1\n      pop\n      jump\t// out\n        /* \"#utility.yul\":417:539   */\n    tag_82:\n        /* \"#utility.yul\":490:514   */\n      tag_134\n        /* \"#utility.yul\":508:513   */\n      dup2\n        /* \"#utility.yul\":490:514   */\n      tag_81\n      jump\t// in\n    tag_134:\n        /* \"#utility.yul\":483:488   */\n      dup2\n        /* \"#utility.yul\":480:515   */\n      eq\n        /* \"#utility.yul\":470:533   */\n      tag_135\n      jumpi\n        /* \"#utility.yul\":529:530   */\n      0x00\n        /* \"#utility.yul\":526:527   */\n      0x00\n        /* \"#utility.yul\":519:531   */\n      revert\n        /* \"#utility.yul\":470:533   */\n    tag_135:\n        /* \"#utility.yul\":417:539   */\n      pop\n      jump\t// out\n        /* \"#utility.yul\":545:684   */\n    tag_83:\n        /* \"#utility.yul\":591:596   */\n      0x00\n        /* \"#utility.yul\":629:635   */\n      dup2\n        /* \"#utility.yul\":616:636   */\n      calldataload\n        /* \"#utility.yul\":607:636   */\n      swap1\n      pop\n        /* \"#utility.yul\":645:678   */\n      tag_137\n        /* \"#utility.yul\":672:677   */\n      dup2\n        /* \"#utility.yul\":645:678   */\n      tag_82\n      jump\t// in\n    tag_137:\n        /* \"#utility.yul\":545:684   */\n      swap3\n      swap2\n      pop\n      pop\n      jump\t// out\n        /* \"#utility.yul\":690:1019   */\n    tag_11:\n        /* \"#utility.yul\":749:755   */\n      0x00\n        /* \"#utility.yul\":798:800   */\n      0x20\n        /* \"#utility.yul\":786:795   */\n      dup3\n        /* \"#utility.yul\":777:784   */\n      dup5\n        /* \"#utility.yul\":773:796   */\n      sub\n        /* \"#utility.yul\":769:801   */\n      slt\n        /* \"#utility.yul\":766:885   */\n      iszero\n      tag_139\n      jumpi\n        /* \"#utility.yul\":804:883   */\n      tag_140\n      tag_79\n      jump\t// in\n    tag_140:\n        /* \"#utility.yul\":766:885   */\n    tag_139:\n        /* \"#utility.yul\":924:925   */\n      0x00\n        /* \"#utility.yul\":949:1002   */\n      tag_141\n        /* \"#utility.yul\":994:1001   */\n      dup5\n        /* \"#utility.yul\":985:991   */\n      dup3\n        /* \"#utility.yul\":974:983   */\n      dup6\n        /* \"#utility.yul\":970:992   */\n      add\n        /* \"#utility.yul\":949:1002   */\n      tag_83\n      jump\t// in\n    tag_141:\n        /* \"#utility.yul\":939:1002   */\n      swap2\n      pop\n        /* \"#utility.yul\":895:1012   */\n      pop\n        /* \"#utility.yul\":690:1019   */\n      swap3\n      swap2\n      pop\n      pop\n      jump\t// out\n        /* \"#utility.yul\":1025:1124   */\n    tag_84:\n        /* \"#utility.yul\":1077:1083   */\n      0x00\n        /* \"#utility.yul\":1111:1116   */\n      dup2\n        /* \"#utility.yul\":1105:1117   */\n      mload\n        /* \"#utility.yul\":1095:1117   */\n      swap1\n      pop\n        /* \"#utility.yul\":1025:1124   */\n      swap2\n      swap1\n      pop\n      jump\t// out\n        /* \"#utility.yul\":1130:1299   */\n    tag_85:\n        /* \"#utility.yul\":1214:1225   */\n      0x00\n        /* \"#utility.yul\":1248:1254   */\n      dup3\n        /* \"#utility.yul\":1243:1246   */\n      dup3\n        /* \"#utility.yul\":1236:1255   */\n      mstore\n        /* \"#utility.yul\":1288:1292   */\n      0x20\n        /* \"#utility.yul\":1283:1286   */\n      dup3\n        /* \"#utility.yul\":1279:1293   */\n      add\n        /* \"#utility.yul\":1264:1293   */\n      swap1\n      pop\n        /* \"#utility.yul\":1130:1299   */\n      swap3\n      swap2\n      pop\n      pop\n      jump\t// out\n        /* \"#utility.yul\":1305:1444   */\n    tag_86:\n        /* \"#utility.yul\":1394:1400   */\n      dup3\n        /* \"#utility.yul\":1389:1392   */\n      dup2\n        /* \"#utility.yul\":1384:1387   */\n      dup4\n        /* \"#utility.yul\":1378:1401   */\n      mcopy\n        /* \"#utility.yul\":1435:1436   */\n      0x00\n        /* \"#utility.yul\":1426:1432   */\n      dup4\n        /* \"#utility.yul\":1421:1424   */\n      dup4\n        /* \"#utility.yul\":1417:1433   */\n      add\n        /* \"#utility.yul\":1410:1437   */\n      mstore\n        /* \"#utility.yul\":1305:1444   */\n      pop\n      pop\n      pop\n      jump\t// out\n        /* \"#utility.yul\":1450:1552   */\n    tag_87:\n        /* \"#utility.yul\":1491:1497   */\n      0x00\n        /* \"#utility.yul\":1542:1544   */\n      0x1f\n        /* \"#utility.yul\":1538:1545   */\n      not\n        /* \"#utility.yul\":1533:1535   */\n      0x1f\n        /* \"#utility.yul\":1526:1531   */\n      dup4\n        /* \"#utility.yul\":1522:1536   */\n      add\n        /* \"#utility.yul\":1518:1546   */\n      and\n        /* \"#utility.yul\":1508:1546   */\n      swap1\n      pop\n        /* \"#utility.yul\":1450:1552   */\n      swap2\n      swap1\n      pop\n      jump\t// out\n        /* \"#utility.yul\":1558:1935   */\n    tag_88:\n        /* \"#utility.yul\":1646:1649   */\n      0x00\n        /* \"#utility.yul\":1674:1713   */\n      tag_147\n        /* \"#utility.yul\":1707:1712   */\n      dup3\n        /* \"#utility.yul\":1674:1713   */\n      tag_84\n      jump\t// in\n    tag_147:\n        /* \"#utility.yul\":1729:1800   */\n      tag_148\n        /* \"#utility.yul\":1793:1799   */\n      dup2\n        /* \"#utility.yul\":1788:1791   */\n      dup6\n        /* \"#utility.yul\":1729:1800   */\n      tag_85\n      jump\t// in\n    tag_148:\n        /* \"#utility.yul\":1722:1800   */\n      swap4\n      pop\n        /* \"#utility.yul\":1809:1874   */\n      tag_149\n        /* \"#utility.yul\":1867:1873   */\n      dup2\n        /* \"#utility.yul\":1862:1865   */\n      dup6\n        /* \"#utility.yul\":1855:1859   */\n      0x20\n        /* \"#utility.yul\":1848:1853   */\n      dup7\n        /* \"#utility.yul\":1844:1860   */\n      add\n        /* \"#utility.yul\":1809:1874   */\n      tag_86\n      jump\t// in\n    tag_149:\n        /* \"#utility.yul\":1899:1928   */\n      tag_150\n        /* \"#utility.yul\":1921:1927   */\n      dup2\n        /* \"#utility.yul\":1899:1928   */\n      tag_87\n      jump\t// in\n    tag_150:\n        /* \"#utility.yul\":1894:1897   */\n      dup5\n        /* \"#utility.yul\":1890:1929   */\n      add\n        /* \"#utility.yul\":1883:1929   */\n      swap2\n      pop\n        /* \"#utility.yul\":1650:1935   */\n      pop\n        /* \"#utility.yul\":1558:1935   */\n      swap3\n      swap2\n      pop\n      pop\n      jump\t// out\n        /* \"#utility.yul\":1941:2059   */\n    tag_89:\n        /* \"#utility.yul\":2028:2052   */\n      tag_152\n        /* \"#utility.yul\":2046:2051   */\n      dup2\n        /* \"#utility.yul\":2028:2052   */\n      tag_81\n      jump\t// in\n    tag_152:\n        /* \"#utility.yul\":2023:2026   */\n      dup3\n        /* \"#utility.yul\":2016:2053   */\n      mstore\n        /* \"#utility.yul\":1941:2059   */\n      pop\n      pop\n      jump\t// out\n        /* \"#utility.yul\":2065:2158   */\n    tag_90:\n        /* \"#utility.yul\":2101:2108   */\n      0x00\n        /* \"#utility.yul\":2141:2151   */\n      0xffffffff\n        /* \"#utility.yul\":2134:2139   */\n      dup3\n        /* \"#utility.yul\":2130:2152   */\n      and\n        /* \"#utility.yul\":2119:2152   */\n      swap1\n      pop\n        /* \"#utility.yul\":2065:2158   */\n      swap2\n      swap1\n      pop\n      jump\t// out\n        /* \"#utility.yul\":2164:2279   */\n    tag_91:\n        /* \"#utility.yul\":2249:2272   */\n      tag_155\n        /* \"#utility.yul\":2266:2271   */\n      dup2\n        /* \"#utility.yul\":2249:2272   */\n      tag_90\n      jump\t// in\n    tag_155:\n        /* \"#utility.yul\":2244:2247   */\n      dup3\n        /* \"#utility.yul\":2237:2273   */\n      mstore\n        /* \"#utility.yul\":2164:2279   */\n      pop\n      pop\n      jump\t// out\n        /* \"#utility.yul\":2285:2921   */\n    tag_14:\n        /* \"#utility.yul\":2478:2482   */\n      0x00\n        /* \"#utility.yul\":2516:2519   */\n      0x80\n        /* \"#utility.yul\":2505:2514   */\n      dup3\n        /* \"#utility.yul\":2501:2520   */\n      add\n        /* \"#utility.yul\":2493:2520   */\n      swap1\n      pop\n        /* \"#utility.yul\":2566:2575   */\n      dup2\n        /* \"#utility.yul\":2560:2564   */\n      dup2\n        /* \"#utility.yul\":2556:2576   */\n      sub\n        /* \"#utility.yul\":2552:2553   */\n      0x00\n        /* \"#utility.yul\":2541:2550   */\n      dup4\n        /* \"#utility.yul\":2537:2554   */\n      add\n        /* \"#utility.yul\":2530:2577   */\n      mstore\n        /* \"#utility.yul\":2594:2672   */\n      tag_157\n        /* \"#utility.yul\":2667:2671   */\n      dup2\n        /* \"#utility.yul\":2658:2664   */\n      dup8\n        /* \"#utility.yul\":2594:2672   */\n      tag_88\n      jump\t// in\n    tag_157:\n        /* \"#utility.yul\":2586:2672   */\n      swap1\n      pop\n        /* \"#utility.yul\":2682:2754   */\n      tag_158\n        /* \"#utility.yul\":2750:2752   */\n      0x20\n        /* \"#utility.yul\":2739:2748   */\n      dup4\n        /* \"#utility.yul\":2735:2753   */\n      add\n        /* \"#utility.yul\":2726:2732   */\n      dup7\n        /* \"#utility.yul\":2682:2754   */\n      tag_89\n      jump\t// in\n    tag_158:\n        /* \"#utility.yul\":2764:2834   */\n      tag_159\n        /* \"#utility.yul\":2830:2832   */\n      0x40\n        /* \"#utility.yul\":2819:2828   */\n      dup4\n        /* \"#utility.yul\":2815:2833   */\n      add\n        /* \"#utility.yul\":2806:2812   */\n      dup6\n        /* \"#utility.yul\":2764:2834   */\n      tag_91\n      jump\t// in\n    tag_159:\n        /* \"#utility.yul\":2844:2914   */\n      tag_160\n        /* \"#utility.yul\":2910:2912   */\n      0x60\n        /* \"#utility.yul\":2899:2908   */\n      dup4\n        /* \"#utility.yul\":2895:2913   */\n      add\n        /* \"#utility.yul\":2886:2892   */\n      dup5\n        /* \"#utility.yul\":2844:2914   */\n      tag_91\n      jump\t// in\n    tag_160:\n        /* \"#utility.yul\":2285:2921   */\n      swap6\n      swap5\n      pop\n      pop\n      pop\n      pop\n      pop\n      jump\t// out\n        /* \"#utility.yul\":2927:3053   */\n    tag_92:\n        /* \"#utility.yul\":2964:2971   */\n      0x00\n        /* \"#utility.yul\":3004:3046   */\n      0xffffffffffffffffffffffffffffffffffffffff\n        /* \"#utility.yul\":2997:3002   */\n      dup3\n        /* \"#utility.yul\":2993:3047   */\n      and\n        /* \"#utility.yul\":2982:3047   */\n      swap1\n      pop\n        /* \"#utility.yul\":2927:3053   */\n      swap2\n      swap1\n      pop\n      jump\t// out\n        /* \"#utility.yul\":3059:3155   */\n    tag_93:\n        /* \"#utility.yul\":3096:3103   */\n      0x00\n        /* \"#utility.yul\":3125:3149   */\n      tag_163\n        /* \"#utility.yul\":3143:3148   */\n      dup3\n        /* \"#utility.yul\":3125:3149   */\n      tag_92\n      jump\t// in\n    tag_163:\n        /* \"#utility.yul\":3114:3149   */\n      swap1\n      pop\n        /* \"#utility.yul\":3059:3155   */\n      swap2\n      swap1\n      pop\n      jump\t// out\n        /* \"#utility.yul\":3161:3279   */\n    tag_94:\n        /* \"#utility.yul\":3248:3272   */\n      tag_165\n        /* \"#utility.yul\":3266:3271   */\n      dup2\n        /* \"#utility.yul\":3248:3272   */\n      tag_93\n      jump\t// in\n    tag_165:\n        /* \"#utility.yul\":3243:3246   */\n      dup3\n        /* \"#utility.yul\":3236:3273   */\n      mstore\n        /* \"#utility.yul\":3161:3279   */\n      pop\n      pop\n      jump\t// out\n        /* \"#utility.yul\":3285:3507   */\n    tag_20:\n        /* \"#utility.yul\":3378:3382   */\n      0x00\n        /* \"#utility.yul\":3416:3418   */\n      0x20\n        /* \"#utility.yul\":3405:3414   */\n      dup3\n        /* \"#utility.yul\":3401:3419   */\n      add\n        /* \"#utility.yul\":3393:3419   */\n      swap1\n      pop\n        /* \"#utility.yul\":3429:3500   */\n      tag_167\n        /* \"#utility.yul\":3497:3498   */\n      0x00\n        /* \"#utility.yul\":3486:3495   */\n      dup4\n        /* \"#utility.yul\":3482:3499   */\n      add\n        /* \"#utility.yul\":3473:3479   */\n      dup5\n        /* \"#utility.yul\":3429:3500   */\n      tag_94\n      jump\t// in\n    tag_167:\n        /* \"#utility.yul\":3285:3507   */\n      swap3\n      swap2\n      pop\n      pop\n      jump\t// out\n        /* \"#utility.yul\":3513:3603   */\n    tag_95:\n        /* \"#utility.yul\":3547:3554   */\n      0x00\n        /* \"#utility.yul\":3590:3595   */\n      dup2\n        /* \"#utility.yul\":3583:3596   */\n      iszero\n        /* \"#utility.yul\":3576:3597   */\n      iszero\n        /* \"#utility.yul\":3565:3597   */\n      swap1\n      pop\n        /* \"#utility.yul\":3513:3603   */\n      swap2\n      swap1\n      pop\n      jump\t// out\n        /* \"#utility.yul\":3609:3718   */\n    tag_96:\n        /* \"#utility.yul\":3690:3711   */\n      tag_170\n        /* \"#utility.yul\":3705:3710   */\n      dup2\n        /* \"#utility.yul\":3690:3711   */\n      tag_95\n      jump\t// in\n    tag_170:\n        /* \"#utility.yul\":3685:3688   */\n      dup3\n        /* \"#utility.yul\":3678:3712   */\n      mstore\n        /* \"#utility.yul\":3609:3718   */\n      pop\n      pop\n      jump\t// out\n        /* \"#utility.yul\":3724:3934   */\n    tag_24:\n        /* \"#utility.yul\":3811:3815   */\n      0x00\n        /* \"#utility.yul\":3849:3851   */\n      0x20\n        /* \"#utility.yul\":3838:3847   */\n      dup3\n        /* \"#utility.yul\":3834:3852   */\n      add\n        /* \"#utility.yul\":3826:3852   */\n      swap1\n      pop\n        /* \"#utility.yul\":3862:3927   */\n      tag_172\n        /* \"#utility.yul\":3924:3925   */\n      0x00\n        /* \"#utility.yul\":3913:3922   */\n      dup4\n        /* \"#utility.yul\":3909:3926   */\n      add\n        /* \"#utility.yul\":3900:3906   */\n      dup5\n        /* \"#utility.yul\":3862:3927   */\n      tag_96\n      jump\t// in\n    tag_172:\n        /* \"#utility.yul\":3724:3934   */\n      swap3\n      swap2\n      pop\n      pop\n      jump\t// out\n        /* \"#utility.yul\":3940:4057   */\n    tag_97:\n        /* \"#utility.yul\":4049:4050   */\n      0x00\n        /* \"#utility.yul\":4046:4047   */\n      0x00\n        /* \"#utility.yul\":4039:4051   */\n      revert\n        /* \"#utility.yul\":4063:4180   */\n    tag_98:\n        /* \"#utility.yul\":4172:4173   */\n      0x00\n        /* \"#utility.yul\":4169:4170   */\n      0x00\n        /* \"#utility.yul\":4162:4174   */\n      revert\n        /* \"#utility.yul\":4186:4366   */\n    tag_99:\n        /* \"#utility.yul\":4234:4311   */\n      0x4e487b7100000000000000000000000000000000000000000000000000000000\n        /* \"#utility.yul\":4231:4232   */\n      0x00\n        /* \"#utility.yul\":4224:4312   */\n      mstore\n        /* \"#utility.yul\":4331:4335   */\n      0x41\n        /* \"#utility.yul\":4328:4329   */\n      0x04\n        /* \"#utility.yul\":4321:4336   */\n      mstore\n        /* \"#utility.yul\":4355:4359   */\n      0x24\n        /* \"#utility.yul\":4352:4353   */\n      0x00\n        /* \"#utility.yul\":4345:4360   */\n      revert\n        /* \"#utility.yul\":4372:4653   */\n    tag_100:\n        /* \"#utility.yul\":4455:4482   */\n      tag_177\n        /* \"#utility.yul\":4477:4481   */\n      dup3\n        /* \"#utility.yul\":4455:4482   */\n      tag_87\n      jump\t// in\n    tag_177:\n        /* \"#utility.yul\":4447:4453   */\n      dup2\n        /* \"#utility.yul\":4443:4483   */\n      add\n        /* \"#utility.yul\":4585:4591   */\n      dup2\n        /* \"#utility.yul\":4573:4583   */\n      dup2\n        /* \"#utility.yul\":4570:4592   */\n      lt\n        /* \"#utility.yul\":4549:4567   */\n      0xffffffffffffffff\n        /* \"#utility.yul\":4537:4547   */\n      dup3\n        /* \"#utility.yul\":4534:4568   */\n      gt\n        /* \"#utility.yul\":4531:4593   */\n      or\n        /* \"#utility.yul\":4528:4616   */\n      iszero\n      tag_178\n      jumpi\n        /* \"#utility.yul\":4596:4614   */\n      tag_179\n      tag_99\n      jump\t// in\n    tag_179:\n        /* \"#utility.yul\":4528:4616   */\n    tag_178:\n        /* \"#utility.yul\":4636:4646   */\n      dup1\n        /* \"#utility.yul\":4632:4634   */\n      0x40\n        /* \"#utility.yul\":4625:4647   */\n      mstore\n        /* \"#utility.yul\":4415:4653   */\n      pop\n        /* \"#utility.yul\":4372:4653   */\n      pop\n      pop\n      jump\t// out\n        /* \"#utility.yul\":4659:4788   */\n    tag_101:\n        /* \"#utility.yul\":4693:4699   */\n      0x00\n        /* \"#utility.yul\":4720:4740   */\n      tag_181\n      tag_78\n      jump\t// in\n    tag_181:\n        /* \"#utility.yul\":4710:4740   */\n      swap1\n      pop\n        /* \"#utility.yul\":4749:4782   */\n      tag_182\n        /* \"#utility.yul\":4777:4781   */\n      dup3\n        /* \"#utility.yul\":4769:4775   */\n      dup3\n        /* \"#utility.yul\":4749:4782   */\n      tag_100\n      jump\t// in\n    tag_182:\n        /* \"#utility.yul\":4659:4788   */\n      swap2\n      swap1\n      pop\n      jump\t// out\n        /* \"#utility.yul\":4794:5102   */\n    tag_102:\n        /* \"#utility.yul\":4856:4860   */\n      0x00\n        /* \"#utility.yul\":4946:4964   */\n      0xffffffffffffffff\n        /* \"#utility.yul\":4938:4944   */\n      dup3\n        /* \"#utility.yul\":4935:4965   */\n      gt\n        /* \"#utility.yul\":4932:4988   */\n      iszero\n      tag_184\n      jumpi\n        /* \"#utility.yul\":4968:4986   */\n      tag_185\n      tag_99\n      jump\t// in\n    tag_185:\n        /* \"#utility.yul\":4932:4988   */\n    tag_184:\n        /* \"#utility.yul\":5006:5035   */\n      tag_186\n        /* \"#utility.yul\":5028:5034   */\n      dup3\n        /* \"#utility.yul\":5006:5035   */\n      tag_87\n      jump\t// in\n    tag_186:\n        /* \"#utility.yul\":4998:5035   */\n      swap1\n      pop\n        /* \"#utility.yul\":5090:5094   */\n      0x20\n        /* \"#utility.yul\":5084:5088   */\n      dup2\n        /* \"#utility.yul\":5080:5095   */\n      add\n        /* \"#utility.yul\":5072:5095   */\n      swap1\n      pop\n        /* \"#utility.yul\":4794:5102   */\n      swap2\n      swap1\n      pop\n      jump\t// out\n        /* \"#utility.yul\":5108:5256   */\n    tag_103:\n        /* \"#utility.yul\":5206:5212   */\n      dup3\n        /* \"#utility.yul\":5201:5204   */\n      dup2\n        /* \"#utility.yul\":5196:5199   */\n      dup4\n        /* \"#utility.yul\":5183:5213   */\n      calldatacopy\n        /* \"#utility.yul\":5247:5248   */\n      0x00\n        /* \"#utility.yul\":5238:5244   */\n      dup4\n        /* \"#utility.yul\":5233:5236   */\n      dup4\n        /* \"#utility.yul\":5229:5245   */\n      add\n        /* \"#utility.yul\":5222:5249   */\n      mstore\n        /* \"#utility.yul\":5108:5256   */\n      pop\n      pop\n      pop\n      jump\t// out\n        /* \"#utility.yul\":5262:5687   */\n    tag_104:\n        /* \"#utility.yul\":5340:5345   */\n      0x00\n        /* \"#utility.yul\":5365:5431   */\n      tag_189\n        /* \"#utility.yul\":5381:5430   */\n      tag_190\n        /* \"#utility.yul\":5423:5429   */\n      dup5\n        /* \"#utility.yul\":5381:5430   */\n      tag_102\n      jump\t// in\n    tag_190:\n        /* \"#utility.yul\":5365:5431   */\n      tag_101\n      jump\t// in\n    tag_189:\n        /* \"#utility.yul\":5356:5431   */\n      swap1\n      pop\n        /* \"#utility.yul\":5454:5460   */\n      dup3\n        /* \"#utility.yul\":5447:5452   */\n      dup2\n        /* \"#utility.yul\":5440:5461   */\n      mstore\n        /* \"#utility.yul\":5492:5496   */\n      0x20\n        /* \"#utility.yul\":5485:5490   */\n      dup2\n        /* \"#utility.yul\":5481:5497   */\n      add\n        /* \"#utility.yul\":5530:5533   */\n      dup5\n        /* \"#utility.yul\":5521:5527   */\n      dup5\n        /* \"#utility.yul\":5516:5519   */\n      dup5\n        /* \"#utility.yul\":5512:5528   */\n      add\n        /* \"#utility.yul\":5509:5534   */\n      gt\n        /* \"#utility.yul\":5506:5618   */\n      iszero\n      tag_191\n      jumpi\n        /* \"#utility.yul\":5537:5616   */\n      tag_192\n      tag_98\n      jump\t// in\n    tag_192:\n        /* \"#utility.yul\":5506:5618   */\n    tag_191:\n        /* \"#utility.yul\":5627:5681   */\n      tag_193\n        /* \"#utility.yul\":5674:5680   */\n      dup5\n        /* \"#utility.yul\":5669:5672   */\n      dup3\n        /* \"#utility.yul\":5664:5667   */\n      dup6\n        /* \"#utility.yul\":5627:5681   */\n      tag_103\n      jump\t// in\n    tag_193:\n        /* \"#utility.yul\":5346:5687   */\n      pop\n        /* \"#utility.yul\":5262:5687   */\n      swap4\n      swap3\n      pop\n      pop\n      pop\n      jump\t// out\n        /* \"#utility.yul\":5707:6047   */\n    tag_105:\n        /* \"#utility.yul\":5763:5768   */\n      0x00\n        /* \"#utility.yul\":5812:5815   */\n      dup3\n        /* \"#utility.yul\":5805:5809   */\n      0x1f\n        /* \"#utility.yul\":5797:5803   */\n      dup4\n        /* \"#utility.yul\":5793:5810   */\n      add\n        /* \"#utility.yul\":5789:5816   */\n      slt\n        /* \"#utility.yul\":5779:5901   */\n      tag_195\n      jumpi\n        /* \"#utility.yul\":5820:5899   */\n      tag_196\n      tag_97\n      jump\t// in\n    tag_196:\n        /* \"#utility.yul\":5779:5901   */\n    tag_195:\n        /* \"#utility.yul\":5937:5943   */\n      dup2\n        /* \"#utility.yul\":5924:5944   */\n      calldataload\n        /* \"#utility.yul\":5962:6041   */\n      tag_197\n        /* \"#utility.yul\":6037:6040   */\n      dup5\n        /* \"#utility.yul\":6029:6035   */\n      dup3\n        /* \"#utility.yul\":6022:6026   */\n      0x20\n        /* \"#utility.yul\":6014:6020   */\n      dup7\n        /* \"#utility.yul\":6010:6027   */\n      add\n        /* \"#utility.yul\":5962:6041   */\n      tag_104\n      jump\t// in\n    tag_197:\n        /* \"#utility.yul\":5953:6041   */\n      swap2\n      pop\n        /* \"#utility.yul\":5769:6047   */\n      pop\n        /* \"#utility.yul\":5707:6047   */\n      swap3\n      swap2\n      pop\n      pop\n      jump\t// out\n        /* \"#utility.yul\":6053:6562   */\n    tag_27:\n        /* \"#utility.yul\":6122:6128   */\n      0x00\n        /* \"#utility.yul\":6171:6173   */\n      0x20\n        /* \"#utility.yul\":6159:6168   */\n      dup3\n        /* \"#utility.yul\":6150:6157   */\n      dup5\n        /* \"#utility.yul\":6146:6169   */\n      sub\n        /* \"#utility.yul\":6142:6174   */\n      slt\n        /* \"#utility.yul\":6139:6258   */\n      iszero\n      tag_199\n      jumpi\n        /* \"#utility.yul\":6177:6256   */\n      tag_200\n      tag_79\n      jump\t// in\n    tag_200:\n        /* \"#utility.yul\":6139:6258   */\n    tag_199:\n        /* \"#utility.yul\":6325:6326   */\n      0x00\n        /* \"#utility.yul\":6314:6323   */\n      dup3\n        /* \"#utility.yul\":6310:6327   */\n      add\n        /* \"#utility.yul\":6297:6328   */\n      calldataload\n        /* \"#utility.yul\":6355:6373   */\n      0xffffffffffffffff\n        /* \"#utility.yul\":6347:6353   */\n      dup2\n        /* \"#utility.yul\":6344:6374   */\n      gt\n        /* \"#utility.yul\":6341:6458   */\n      iszero\n      tag_201\n      jumpi\n        /* \"#utility.yul\":6377:6456   */\n      tag_202\n      tag_80\n      jump\t// in\n    tag_202:\n        /* \"#utility.yul\":6341:6458   */\n    tag_201:\n        /* \"#utility.yul\":6482:6545   */\n      tag_203\n        /* \"#utility.yul\":6537:6544   */\n      dup5\n        /* \"#utility.yul\":6528:6534   */\n      dup3\n        /* \"#utility.yul\":6517:6526   */\n      dup6\n        /* \"#utility.yul\":6513:6535   */\n      add\n        /* \"#utility.yul\":6482:6545   */\n      tag_105\n      jump\t// in\n    tag_203:\n        /* \"#utility.yul\":6472:6545   */\n      swap2\n      pop\n        /* \"#utility.yul\":6268:6555   */\n      pop\n        /* \"#utility.yul\":6053:6562   */\n      swap3\n      swap2\n      pop\n      pop\n      jump\t// out\n        /* \"#utility.yul\":6568:6690   */\n    tag_106:\n        /* \"#utility.yul\":6641:6665   */\n      tag_205\n        /* \"#utility.yul\":6659:6664   */\n      dup2\n        /* \"#utility.yul\":6641:6665   */\n      tag_93\n      jump\t// in\n    tag_205:\n        /* \"#utility.yul\":6634:6639   */\n      dup2\n        /* \"#utility.yul\":6631:6666   */\n      eq\n        /* \"#utility.yul\":6621:6684   */\n      tag_206\n      jumpi\n        /* \"#utility.yul\":6680:6681   */\n      0x00\n        /* \"#utility.yul\":6677:6678   */\n      0x00\n        /* \"#utility.yul\":6670:6682   */\n      revert\n        /* \"#utility.yul\":6621:6684   */\n    tag_206:\n        /* \"#utility.yul\":6568:6690   */\n      pop\n      jump\t// out\n        /* \"#utility.yul\":6696:6835   */\n    tag_107:\n        /* \"#utility.yul\":6742:6747   */\n      0x00\n        /* \"#utility.yul\":6780:6786   */\n      dup2\n        /* \"#utility.yul\":6767:6787   */\n      calldataload\n        /* \"#utility.yul\":6758:6787   */\n      swap1\n      pop\n        /* \"#utility.yul\":6796:6829   */\n      tag_208\n        /* \"#utility.yul\":6823:6828   */\n      dup2\n        /* \"#utility.yul\":6796:6829   */\n      tag_106\n      jump\t// in\n    tag_208:\n        /* \"#utility.yul\":6696:6835   */\n      swap3\n      swap2\n      pop\n      pop\n      jump\t// out\n        /* \"#utility.yul\":6841:7170   */\n    tag_31:\n        /* \"#utility.yul\":6900:6906   */\n      0x00\n        /* \"#utility.yul\":6949:6951   */\n      0x20\n        /* \"#utility.yul\":6937:6946   */\n      dup3\n        /* \"#utility.yul\":6928:6935   */\n      dup5\n        /* \"#utility.yul\":6924:6947   */\n      sub\n        /* \"#utility.yul\":6920:6952   */\n      slt\n        /* \"#utility.yul\":6917:7036   */\n      iszero\n      tag_210\n      jumpi\n        /* \"#utility.yul\":6955:7034   */\n      tag_211\n      tag_79\n      jump\t// in\n    tag_211:\n        /* \"#utility.yul\":6917:7036   */\n    tag_210:\n        /* \"#utility.yul\":7075:7076   */\n      0x00\n        /* \"#utility.yul\":7100:7153   */\n      tag_212\n        /* \"#utility.yul\":7145:7152   */\n      dup5\n        /* \"#utility.yul\":7136:7142   */\n      dup3\n        /* \"#utility.yul\":7125:7134   */\n      dup6\n        /* \"#utility.yul\":7121:7143   */\n      add\n        /* \"#utility.yul\":7100:7153   */\n      tag_107\n      jump\t// in\n    tag_212:\n        /* \"#utility.yul\":7090:7153   */\n      swap2\n      pop\n        /* \"#utility.yul\":7046:7163   */\n      pop\n        /* \"#utility.yul\":6841:7170   */\n      swap3\n      swap2\n      pop\n      pop\n      jump\t// out\n        /* \"#utility.yul\":7176:7356   */\n    tag_108:\n        /* \"#utility.yul\":7224:7301   */\n      0x4e487b7100000000000000000000000000000000000000000000000000000000\n        /* \"#utility.yul\":7221:7222   */\n      0x00\n        /* \"#utility.yul\":7214:7302   */\n      mstore\n        /* \"#utility.yul\":7321:7325   */\n      0x22\n        /* \"#utility.yul\":7318:7319   */\n      0x04\n        /* \"#utility.yul\":7311:7326   */\n      mstore\n        /* \"#utility.yul\":7345:7349   */\n      0x24\n        /* \"#utility.yul\":7342:7343   */\n      0x00\n        /* \"#utility.yul\":7335:7350   */\n      revert\n        /* \"#utility.yul\":7362:7682   */\n    tag_36:\n        /* \"#utility.yul\":7406:7412   */\n      0x00\n        /* \"#utility.yul\":7443:7444   */\n      0x02\n        /* \"#utility.yul\":7437:7441   */\n      dup3\n        /* \"#utility.yul\":7433:7445   */\n      div\n        /* \"#utility.yul\":7423:7445   */\n      swap1\n      pop\n        /* \"#utility.yul\":7490:7491   */\n      0x01\n        /* \"#utility.yul\":7484:7488   */\n      dup3\n        /* \"#utility.yul\":7480:7492   */\n      and\n        /* \"#utility.yul\":7511:7529   */\n      dup1\n        /* \"#utility.yul\":7501:7582   */\n      tag_215\n      jumpi\n        /* \"#utility.yul\":7567:7571   */\n      0x7f\n        /* \"#utility.yul\":7559:7565   */\n      dup3\n        /* \"#utility.yul\":7555:7572   */\n      and\n        /* \"#utility.yul\":7545:7572   */\n      swap2\n      pop\n        /* \"#utility.yul\":7501:7582   */\n    tag_215:\n        /* \"#utility.yul\":7629:7631   */\n      0x20\n        /* \"#utility.yul\":7621:7627   */\n      dup3\n        /* \"#utility.yul\":7618:7632   */\n      lt\n        /* \"#utility.yul\":7598:7616   */\n      dup2\n        /* \"#utility.yul\":7595:7633   */\n      sub\n        /* \"#utility.yul\":7592:7676   */\n      tag_216\n      jumpi\n        /* \"#utility.yul\":7648:7666   */\n      tag_217\n      tag_108\n      jump\t// in\n    tag_217:\n        /* \"#utility.yul\":7592:7676   */\n    tag_216:\n        /* \"#utility.yul\":7413:7682   */\n      pop\n        /* \"#utility.yul\":7362:7682   */\n      swap2\n      swap1\n      pop\n      jump\t// out\n        /* \"#utility.yul\":7688:7836   */\n    tag_109:\n        /* \"#utility.yul\":7790:7801   */\n      0x00\n        /* \"#utility.yul\":7827:7830   */\n      dup2\n        /* \"#utility.yul\":7812:7830   */\n      swap1\n      pop\n        /* \"#utility.yul\":7688:7836   */\n      swap3\n      swap2\n      pop\n      pop\n      jump\t// out\n        /* \"#utility.yul\":7842:8232   */\n    tag_110:\n        /* \"#utility.yul\":7948:7951   */\n      0x00\n        /* \"#utility.yul\":7976:8015   */\n      tag_220\n        /* \"#utility.yul\":8009:8014   */\n      dup3\n        /* \"#utility.yul\":7976:8015   */\n      tag_84\n      jump\t// in\n    tag_220:\n        /* \"#utility.yul\":8031:8120   */\n      tag_221\n        /* \"#utility.yul\":8113:8119   */\n      dup2\n        /* \"#utility.yul\":8108:8111   */\n      dup6\n        /* \"#utility.yul\":8031:8120   */\n      tag_109\n      jump\t// in\n    tag_221:\n        /* \"#utility.yul\":8024:8120   */\n      swap4\n      pop\n        /* \"#utility.yul\":8129:8194   */\n      tag_222\n        /* \"#utility.yul\":8187:8193   */\n      dup2\n        /* \"#utility.yul\":8182:8185   */\n      dup6\n        /* \"#utility.yul\":8175:8179   */\n      0x20\n        /* \"#utility.yul\":8168:8173   */\n      dup7\n        /* \"#utility.yul\":8164:8180   */\n      add\n        /* \"#utility.yul\":8129:8194   */\n      tag_86\n      jump\t// in\n    tag_222:\n        /* \"#utility.yul\":8219:8225   */\n      dup1\n        /* \"#utility.yul\":8214:8217   */\n      dup5\n        /* \"#utility.yul\":8210:8226   */\n      add\n        /* \"#utility.yul\":8203:8226   */\n      swap2\n      pop\n        /* \"#utility.yul\":7952:8232   */\n      pop\n        /* \"#utility.yul\":7842:8232   */\n      swap3\n      swap2\n      pop\n      pop\n      jump\t// out\n        /* \"#utility.yul\":8238:8513   */\n    tag_61:\n        /* \"#utility.yul\":8370:8373   */\n      0x00\n        /* \"#utility.yul\":8392:8487   */\n      tag_224\n        /* \"#utility.yul\":8483:8486   */\n      dup3\n        /* \"#utility.yul\":8474:8480   */\n      dup5\n        /* \"#utility.yul\":8392:8487   */\n      tag_110\n      jump\t// in\n    tag_224:\n        /* \"#utility.yul\":8385:8487   */\n      swap2\n      pop\n        /* \"#utility.yul\":8504:8507   */\n      dup2\n        /* \"#utility.yul\":8497:8507   */\n      swap1\n      pop\n        /* \"#utility.yul\":8238:8513   */\n      swap3\n      swap2\n      pop\n      pop\n      jump\t// out\n        /* \"#utility.yul\":8519:8699   */\n    tag_111:\n        /* \"#utility.yul\":8567:8644   */\n      0x4e487b7100000000000000000000000000000000000000000000000000000000\n        /* \"#utility.yul\":8564:8565   */\n      0x00\n        /* \"#utility.yul\":8557:8645   */\n      mstore\n        /* \"#utility.yul\":8664:8668   */\n      0x12\n        /* \"#utility.yul\":8661:8662   */\n      0x04\n        /* \"#utility.yul\":8654:8669   */\n      mstore\n        /* \"#utility.yul\":8688:8692   */\n      0x24\n        /* \"#utility.yul\":8685:8686   */\n      0x00\n        /* \"#utility.yul\":8678:8693   */\n      revert\n        /* \"#utility.yul\":8705:8881   */\n    tag_63:\n        /* \"#utility.yul\":8737:8738   */\n      0x00\n        /* \"#utility.yul\":8754:8774   */\n      tag_227\n        /* \"#utility.yul\":8772:8773   */\n      dup3\n        /* \"#utility.yul\":8754:8774   */\n      tag_81\n      jump\t// in\n    tag_227:\n        /* \"#utility.yul\":8749:8774   */\n      swap2\n      pop\n        /* \"#utility.yul\":8788:8808   */\n      tag_228\n        /* \"#utility.yul\":8806:8807   */\n      dup4\n        /* \"#utility.yul\":8788:8808   */\n      tag_81\n      jump\t// in\n    tag_228:\n        /* \"#utility.yul\":8783:8808   */\n      swap3\n      pop\n        /* \"#utility.yul\":8827:8828   */\n      dup3\n        /* \"#utility.yul\":8817:8852   */\n      tag_229\n      jumpi\n        /* \"#utility.yul\":8832:8850   */\n      tag_230\n      tag_111\n      jump\t// in\n    tag_230:\n        /* \"#utility.yul\":8817:8852   */\n    tag_229:\n        /* \"#utility.yul\":8873:8874   */\n      dup3\n        /* \"#utility.yul\":8870:8871   */\n      dup3\n        /* \"#utility.yul\":8866:8875   */\n      mod\n        /* \"#utility.yul\":8861:8875   */\n      swap1\n      pop\n        /* \"#utility.yul\":8705:8881   */\n      swap3\n      swap2\n      pop\n      pop\n      jump\t// out\n        /* \"#utility.yul\":8887:9067   */\n    tag_112:\n        /* \"#utility.yul\":8935:9012   */\n      0x4e487b7100000000000000000000000000000000000000000000000000000000\n        /* \"#utility.yul\":8932:8933   */\n      0x00\n        /* \"#utility.yul\":8925:9013   */\n      mstore\n        /* \"#utility.yul\":9032:9036   */\n      0x11\n        /* \"#utility.yul\":9029:9030   */\n      0x04\n        /* \"#utility.yul\":9022:9037   */\n      mstore\n        /* \"#utility.yul\":9056:9060   */\n      0x24\n        /* \"#utility.yul\":9053:9054   */\n      0x00\n        /* \"#utility.yul\":9046:9061   */\n      revert\n        /* \"#utility.yul\":9073:9264   */\n    tag_66:\n        /* \"#utility.yul\":9113:9116   */\n      0x00\n        /* \"#utility.yul\":9132:9152   */\n      tag_233\n        /* \"#utility.yul\":9150:9151   */\n      dup3\n        /* \"#utility.yul\":9132:9152   */\n      tag_81\n      jump\t// in\n    tag_233:\n        /* \"#utility.yul\":9127:9152   */\n      swap2\n      pop\n        /* \"#utility.yul\":9166:9186   */\n      tag_234\n        /* \"#utility.yul\":9184:9185   */\n      dup4\n        /* \"#utility.yul\":9166:9186   */\n      tag_81\n      jump\t// in\n    tag_234:\n        /* \"#utility.yul\":9161:9186   */\n      swap3\n      pop\n        /* \"#utility.yul\":9209:9210   */\n      dup3\n        /* \"#utility.yul\":9206:9207   */\n      dup3\n        /* \"#utility.yul\":9202:9211   */\n      add\n        /* \"#utility.yul\":9195:9211   */\n      swap1\n      pop\n        /* \"#utility.yul\":9230:9233   */\n      dup1\n        /* \"#utility.yul\":9227:9228   */\n      dup3\n        /* \"#utility.yul\":9224:9234   */\n      gt\n        /* \"#utility.yul\":9221:9257   */\n      iszero\n      tag_235\n      jumpi\n        /* \"#utility.yul\":9237:9255   */\n      tag_236\n      tag_112\n      jump\t// in\n    tag_236:\n        /* \"#utility.yul\":9221:9257   */\n    tag_235:\n        /* \"#utility.yul\":9073:9264   */\n      swap3\n      swap2\n      pop\n      pop\n      jump\t// out\n        /* \"#utility.yul\":9270:9411   */\n    tag_113:\n        /* \"#utility.yul\":9319:9323   */\n      0x00\n        /* \"#utility.yul\":9342:9345   */\n      dup2\n        /* \"#utility.yul\":9334:9345   */\n      swap1\n      pop\n        /* \"#utility.yul\":9365:9368   */\n      dup2\n        /* \"#utility.yul\":9362:9363   */\n      0x00\n        /* \"#utility.yul\":9355:9369   */\n      mstore\n        /* \"#utility.yul\":9399:9403   */\n      0x20\n        /* \"#utility.yul\":9396:9397   */\n      0x00\n        /* \"#utility.yul\":9386:9404   */\n      keccak256\n        /* \"#utility.yul\":9378:9404   */\n      swap1\n      pop\n        /* \"#utility.yul\":9270:9411   */\n      swap2\n      swap1\n      pop\n      jump\t// out\n        /* \"#utility.yul\":9417:9510   */\n    tag_114:\n        /* \"#utility.yul\":9454:9460   */\n      0x00\n        /* \"#utility.yul\":9501:9503   */\n      0x20\n        /* \"#utility.yul\":9496:9498   */\n      0x1f\n        /* \"#utility.yul\":9489:9494   */\n      dup4\n        /* \"#utility.yul\":9485:9499   */\n      add\n        /* \"#utility.yul\":9481:9504   */\n      div\n        /* \"#utility.yul\":9471:9504   */\n      swap1\n      pop\n        /* \"#utility.yul\":9417:9510   */\n      swap2\n      swap1\n      pop\n      jump\t// out\n        /* \"#utility.yul\":9516:9623   */\n    tag_115:\n        /* \"#utility.yul\":9560:9568   */\n      0x00\n        /* \"#utility.yul\":9610:9615   */\n      dup3\n        /* \"#utility.yul\":9604:9608   */\n      dup3\n        /* \"#utility.yul\":9600:9616   */\n      shl\n        /* \"#utility.yul\":9579:9616   */\n      swap1\n      pop\n        /* \"#utility.yul\":9516:9623   */\n      swap3\n      swap2\n      pop\n      pop\n      jump\t// out\n        /* \"#utility.yul\":9629:10022   */\n    tag_116:\n        /* \"#utility.yul\":9698:9704   */\n      0x00\n        /* \"#utility.yul\":9748:9749   */\n      0x08\n        /* \"#utility.yul\":9736:9746   */\n      dup4\n        /* \"#utility.yul\":9732:9750   */\n      mul\n        /* \"#utility.yul\":9771:9868   */\n      tag_241\n        /* \"#utility.yul\":9801:9867   */\n      0xffffffffffffffffffffffffffffffffffffffffffffffffffffffffffffffff\n        /* \"#utility.yul\":9790:9799   */\n      dup3\n        /* \"#utility.yul\":9771:9868   */\n      tag_115\n      jump\t// in\n    tag_241:\n        /* \"#utility.yul\":9889:9928   */\n      tag_242\n        /* \"#utility.yul\":9919:9927   */\n      dup7\n        /* \"#utility.yul\":9908:9917   */\n      dup4\n        /* \"#utility.yul\":9889:9928   */\n      tag_115\n      jump\t// in\n    tag_242:\n        /* \"#utility.yul\":9877:9928   */\n      swap6\n      pop\n        /* \"#utility.yul\":9961:9965   */\n      dup1\n        /* \"#utility.yul\":9957:9966   */\n      not\n        /* \"#utility.yul\":9950:9955   */\n      dup5\n        /* \"#utility.yul\":9946:9967   */\n      and\n        /* \"#utility.yul\":9937:9967   */\n      swap4\n      pop\n        /* \"#utility.yul\":10010:10014   */\n      dup1\n        /* \"#utility.yul\":10000:10008   */\n      dup7\n        /* \"#utility.yul\":9996:10015   */\n      and\n        /* \"#utility.yul\":9989:9994   */\n      dup5\n        /* \"#utility.yul\":9986:10016   */\n      or\n        /* \"#utility.yul\":9976:10016   */\n      swap3\n      pop\n        /* \"#utility.yul\":9705:10022   */\n      pop\n      pop\n        /* \"#utility.yul\":9629:10022   */\n      swap4\n      swap3\n      pop\n      pop\n      pop\n      jump\t// out\n        /* \"#utility.yul\":10028:10088   */\n    tag_117:\n        /* \"#utility.yul\":10056:10059   */\n      0x00\n        /* \"#utility.yul\":10077:10082   */\n      dup2\n        /* \"#utility.yul\":10070:10082   */\n      swap1\n      pop\n        /* \"#utility.yul\":10028:10088   */\n      swap2\n      swap1\n      pop\n      jump\t// out\n        /* \"#utility.yul\":10094:10236   */\n    tag_118:\n        /* \"#utility.yul\":10144:10153   */\n      0x00\n        /* \"#utility.yul\":10177:10230   */\n      tag_245\n        /* \"#utility.yul\":10195:10229   */\n      tag_246\n        /* \"#utility.yul\":10204:10228   */\n      tag_247\n        /* \"#utility.yul\":10222:10227   */\n      dup5\n        /* \"#utility.yul\":10204:10228   */\n      tag_81\n      jump\t// in\n    tag_247:\n        /* \"#utility.yul\":10195:10229   */\n      tag_117\n      jump\t// in\n    tag_246:\n        /* \"#utility.yul\":10177:10230   */\n      tag_81\n      jump\t// in\n    tag_245:\n        /* \"#utility.yul\":10164:10230   */\n      swap1\n      pop\n        /* \"#utility.yul\":10094:10236   */\n      swap2\n      swap1\n      pop\n      jump\t// out\n        /* \"#utility.yul\":10242:10317   */\n    tag_119:\n        /* \"#utility.yul\":10285:10288   */\n      0x00\n        /* \"#utility.yul\":10306:10311   */\n      dup2\n        /* \"#utility.yul\":10299:10311   */\n      swap1\n      pop\n        /* \"#utility.yul\":10242:10317   */\n      swap2\n      swap1\n      pop\n      jump\t// out\n        /* \"#utility.yul\":10323:10592   */\n    tag_120:\n        /* \"#utility.yul\":10433:10472   */\n      tag_250\n        /* \"#utility.yul\":10464:10471   */\n      dup4\n        /* \"#utility.yul\":10433:10472   */\n      tag_118\n      jump\t// in\n    tag_250:\n        /* \"#utility.yul\":10494:10585   */\n      tag_251\n        /* \"#utility.yul\":10543:10584   */\n      tag_252\n        /* \"#utility.yul\":10567:10583   */\n      dup3\n        /* \"#utility.yul\":10543:10584   */\n      tag_119\n      jump\t// in\n    tag_252:\n        /* \"#utility.yul\":10535:10541   */\n      dup5\n        /* \"#utility.yul\":10528:10532   */\n      dup5\n        /* \"#utility.yul\":10522:10533   */\n      sload\n        /* \"#utility.yul\":10494:10585   */\n      tag_116\n      jump\t// in\n    tag_251:\n        /* \"#utility.yul\":10488:10492   */\n      dup3\n        /* \"#utility.yul\":10481:10586   */\n      sstore\n        /* \"#utility.yul\":10399:10592   */\n      pop\n        /* \"#utility.yul\":10323:10592   */\n      pop\n      pop\n      pop\n      jump\t// out\n        /* \"#utility.yul\":10598:10671   */\n    tag_121:\n        /* \"#utility.yul\":10643:10646   */\n      0x00\n        /* \"#utility.yul\":10664:10665   */\n      0x00\n        /* \"#utility.yul\":10657:10665   */\n      swap1\n      pop\n        /* \"#utility.yul\":10598:10671   */\n      swap1\n      jump\t// out\n        /* \"#utility.yul\":10677:10866   */\n    tag_122:\n        /* \"#utility.yul\":10754:10786   */\n      tag_255\n      tag_121\n      jump\t// in\n    tag_255:\n        /* \"#utility.yul\":10795:10860   */\n      tag_256\n        /* \"#utility.yul\":10853:10859   */\n      dup2\n        /* \"#utility.yul\":10845:10851   */\n      dup5\n        /* \"#utility.yul\":10839:10843   */\n      dup5\n        /* \"#utility.yul\":10795:10860   */\n      tag_120\n      jump\t// in\n    tag_256:\n        /* \"#utility.yul\":10730:10866   */\n      pop\n        /* \"#utility.yul\":10677:10866   */\n      pop\n      pop\n      jump\t// out\n        /* \"#utility.yul\":10872:11058   */\n    tag_123:\n        /* \"#utility.yul\":10932:11052   */\n    tag_258:\n        /* \"#utility.yul\":10949:10952   */\n      dup2\n        /* \"#utility.yul\":10942:10947   */\n      dup2\n        /* \"#utility.yul\":10939:10953   */\n      lt\n        /* \"#utility.yul\":10932:11052   */\n      iszero\n      tag_260\n      jumpi\n        /* \"#utility.yul\":11003:11042   */\n      tag_261\n        /* \"#utility.yul\":11040:11041   */\n      0x00\n        /* \"#utility.yul\":11033:11038   */\n      dup3\n        /* \"#utility.yul\":11003:11042   */\n      tag_122\n      jump\t// in\n    tag_261:\n        /* \"#utility.yul\":10976:10977   */\n      0x01\n        /* \"#utility.yul\":10969:10974   */\n      dup2\n        /* \"#utility.yul\":10965:10978   */\n      add\n        /* \"#utility.yul\":10956:10978   */\n      swap1\n      pop\n        /* \"#utility.yul\":10932:11052   */\n      jump(tag_258)\n    tag_260:\n        /* \"#utility.yul\":10872:11058   */\n      pop\n      pop\n      jump\t// out\n        /* \"#utility.yul\":11064:11607   */\n    tag_124:\n        /* \"#utility.yul\":11165:11167   */\n      0x1f\n        /* \"#utility.yul\":11160:11163   */\n      dup3\n        /* \"#utility.yul\":11157:11168   */\n      gt\n        /* \"#utility.yul\":11154:11600   */\n      iszero\n      tag_263\n      jumpi\n        /* \"#utility.yul\":11199:11237   */\n      tag_264\n        /* \"#utility.yul\":11231:11236   */\n      dup2\n        /* \"#utility.yul\":11199:11237   */\n      tag_113\n      jump\t// in\n    tag_264:\n        /* \"#utility.yul\":11283:11312   */\n      tag_265\n        /* \"#utility.yul\":11301:11311   */\n      dup5\n        /* \"#utility.yul\":11283:11312   */\n      tag_114\n      jump\t// in\n    tag_265:\n        /* \"#utility.yul\":11273:11281   */\n      dup2\n        /* \"#utility.yul\":11269:11313   */\n      add\n        /* \"#utility.yul\":11466:11468   */\n      0x20\n        /* \"#utility.yul\":11454:11464   */\n      dup6\n        /* \"#utility.yul\":11451:11469   */\n      lt\n        /* \"#utility.yul\":11448:11497   */\n      iszero\n      tag_266\n      jumpi\n        /* \"#utility.yul\":11487:11495   */\n      dup2\n        /* \"#utility.yul\":11472:11495   */\n      swap1\n      pop\n        /* \"#utility.yul\":11448:11497   */\n    tag_266:\n        /* \"#utility.yul\":11510:11590   */\n      tag_267\n        /* \"#utility.yul\":11566:11588   */\n      tag_268\n        /* \"#utility.yul\":11584:11587   */\n      dup6\n        /* \"#utility.yul\":11566:11588   */\n      tag_114\n      jump\t// in\n    tag_268:\n        /* \"#utility.yul\":11556:11564   */\n      dup4\n        /* \"#utility.yul\":11552:11589   */\n      add\n        /* \"#utility.yul\":11539:11550   */\n      dup3\n        /* \"#utility.yul\":11510:11590   */\n      tag_123\n      jump\t// in\n    tag_267:\n        /* \"#utility.yul\":11169:11600   */\n      pop\n      pop\n        /* \"#utility.yul\":11154:11600   */\n    tag_263:\n        /* \"#utility.yul\":11064:11607   */\n      pop\n      pop\n      pop\n      jump\t// out\n        /* \"#utility.yul\":11613:11730   */\n    tag_125:\n        /* \"#utility.yul\":11667:11675   */\n      0x00\n        /* \"#utility.yul\":11717:11722   */\n      dup3\n        /* \"#utility.yul\":11711:11715   */\n      dup3\n        /* \"#utility.yul\":11707:11723   */\n      shr\n        /* \"#utility.yul\":11686:11723   */\n      swap1\n      pop\n        /* \"#utility.yul\":11613:11730   */\n      swap3\n      swap2\n      pop\n      pop\n      jump\t// out\n        /* \"#utility.yul\":11736:11905   */\n    tag_126:\n        /* \"#utility.yul\":11780:11786   */\n      0x00\n        /* \"#utility.yul\":11813:11864   */\n      tag_271\n        /* \"#utility.yul\":11861:11862   */\n      0x00\n        /* \"#utility.yul\":11857:11863   */\n      not\n        /* \"#utility.yul\":11849:11854   */\n      dup5\n        /* \"#utility.yul\":11846:11847   */\n      0x08\n        /* \"#utility.yul\":11842:11855   */\n      mul\n        /* \"#utility.yul\":11813:11864   */\n      tag_125\n      jump\t// in\n    tag_271:\n        /* \"#utility.yul\":11809:11865   */\n      not\n        /* \"#utility.yul\":11894:11898   */\n      dup1\n        /* \"#utility.yul\":11888:11892   */\n      dup4\n        /* \"#utility.yul\":11884:11899   */\n      and\n        /* \"#utility.yul\":11874:11899   */\n      swap2\n      pop\n        /* \"#utility.yul\":11787:11905   */\n      pop\n        /* \"#utility.yul\":11736:11905   */\n      swap3\n      swap2\n      pop\n      pop\n      jump\t// out\n        /* \"#utility.yul\":11910:12205   */\n    tag_127:\n        /* \"#utility.yul\":11986:11990   */\n      0x00\n        /* \"#utility.yul\":12132:12161   */\n      tag_273\n        /* \"#utility.yul\":12157:12160   */\n      dup4\n        /* \"#utility.yul\":12151:12155   */\n      dup4\n        /* \"#utility.yul\":12132:12161   */\n      tag_126\n      jump\t// in\n    tag_273:\n        /* \"#utility.yul\":12124:12161   */\n      swap2\n      pop\n        /* \"#utility.yul\":12194:12197   */\n      dup3\n        /* \"#utility.yul\":12191:12192   */\n      0x02\n        /* \"#utility.yul\":12187:12198   */\n      mul\n        /* \"#utility.yul\":12181:12185   */\n      dup3\n        /* \"#utility.yul\":12178:12199   */\n      or\n        /* \"#utility.yul\":12170:12199   */\n      swap1\n      pop\n        /* \"#utility.yul\":11910:12205   */\n      swap3\n      swap2\n      pop\n      pop\n      jump\t// out\n        /* \"#utility.yul\":12210:13605   */\n    tag_69:\n        /* \"#utility.yul\":12327:12364   */\n      tag_275\n        /* \"#utility.yul\":12360:12363   */\n      dup3\n        /* \"#utility.yul\":12327:12364   */\n      tag_84\n      jump\t// in\n    tag_275:\n        /* \"#utility.yul\":12429:12447   */\n      0xffffffffffffffff\n        /* \"#utility.yul\":12421:12427   */\n      dup2\n        /* \"#utility.yul\":12418:12448   */\n      gt\n        /* \"#utility.yul\":12415:12471   */\n      iszero\n      tag_276\n      jumpi\n        /* \"#utility.yul\":12451:12469   */\n      tag_277\n      tag_99\n      jump\t// in\n    tag_277:\n        /* \"#utility.yul\":12415:12471   */\n    tag_276:\n        /* \"#utility.yul\":12495:12533   */\n      tag_278\n        /* \"#utility.yul\":12527:12531   */\n      dup3\n        /* \"#utility.yul\":12521:12532   */\n      sload\n        /* \"#utility.yul\":12495:12533   */\n      tag_36\n      jump\t// in\n    tag_278:\n        /* \"#utility.yul\":12580:12647   */\n      tag_279\n        /* \"#utility.yul\":12640:12646   */\n      dup3\n        /* \"#utility.yul\":12632:12638   */\n      dup3\n        /* \"#utility.yul\":12626:12630   */\n      dup6\n        /* \"#utility.yul\":12580:12647   */\n      tag_124\n      jump\t// in\n    tag_279:\n        /* \"#utility.yul\":12674:12675   */\n      0x00\n        /* \"#utility.yul\":12698:12702   */\n      0x20\n        /* \"#utility.yul\":12685:12702   */\n      swap1\n      pop\n        /* \"#utility.yul\":12730:12732   */\n      0x1f\n        /* \"#utility.yul\":12722:12728   */\n      dup4\n        /* \"#utility.yul\":12719:12733   */\n      gt\n        /* \"#utility.yul\":12747:12748   */\n      0x01\n        /* \"#utility.yul\":12742:13360   */\n      dup2\n      eq\n      tag_281\n      jumpi\n        /* \"#utility.yul\":13404:13405   */\n      0x00\n        /* \"#utility.yul\":13421:13427   */\n      dup5\n        /* \"#utility.yul\":13418:13495   */\n      iszero\n      tag_282\n      jumpi\n        /* \"#utility.yul\":13470:13479   */\n      dup3\n        /* \"#utility.yul\":13465:13468   */\n      dup8\n        /* \"#utility.yul\":13461:13480   */\n      add\n        /* \"#utility.yul\":13455:13481   */\n      mload\n        /* \"#utility.yul\":13446:13481   */\n      swap1\n      pop\n        /* \"#utility.yul\":13418:13495   */\n    tag_282:\n        /* \"#utility.yul\":13521:13588   */\n      tag_283\n        /* \"#utility.yul\":13581:13587   */\n      dup6\n        /* \"#utility.yul\":13574:13579   */\n      dup3\n        /* \"#utility.yul\":13521:13588   */\n      tag_127\n      jump\t// in\n    tag_283:\n        /* \"#utility.yul\":13515:13519   */\n      dup7\n        /* \"#utility.yul\":13508:13589   */\n      sstore\n        /* \"#utility.yul\":13377:13599   */\n      pop\n        /* \"#utility.yul\":12712:13599   */\n      jump(tag_280)\n        /* \"#utility.yul\":12742:13360   */\n    tag_281:\n        /* \"#utility.yul\":12794:12798   */\n      0x1f\n        /* \"#utility.yul\":12790:12799   */\n      not\n        /* \"#utility.yul\":12782:12788   */\n      dup5\n        /* \"#utility.yul\":12778:12800   */\n      and\n        /* \"#utility.yul\":12828:12865   */\n      tag_284\n        /* \"#utility.yul\":12860:12864   */\n      dup7\n        /* \"#utility.yul\":12828:12865   */\n      tag_113\n      jump\t// in\n    tag_284:\n        /* \"#utility.yul\":12887:12888   */\n      0x00\n        /* \"#utility.yul\":12901:13109   */\n    tag_285:\n        /* \"#utility.yul\":12915:12922   */\n      dup3\n        /* \"#utility.yul\":12912:12913   */\n      dup2\n        /* \"#utility.yul\":12909:12923   */\n      lt\n        /* \"#utility.yul\":12901:13109   */\n      iszero\n      tag_287\n      jumpi\n        /* \"#utility.yul\":12994:13003   */\n      dup5\n        /* \"#utility.yul\":12989:12992   */\n      dup10\n        /* \"#utility.yul\":12985:13004   */\n      add\n        /* \"#utility.yul\":12979:13005   */\n      mload\n        /* \"#utility.yul\":12971:12977   */\n      dup3\n        /* \"#utility.yul\":12964:13006   */\n      sstore\n        /* \"#utility.yul\":13045:13046   */\n      0x01\n        /* \"#utility.yul\":13037:13043   */\n      dup3\n        /* \"#utility.yul\":13033:13047   */\n      add\n        /* \"#utility.yul\":13023:13047   */\n      swap2\n      pop\n        /* \"#utility.yul\":13092:13094   */\n      0x20\n        /* \"#utility.yul\":13081:13090   */\n      dup6\n        /* \"#utility.yul\":13077:13095   */\n      add\n        /* \"#utility.yul\":13064:13095   */\n      swap5\n      pop\n        /* \"#utility.yul\":12938:12942   */\n      0x20\n        /* \"#utility.yul\":12935:12936   */\n      dup2\n        /* \"#utility.yul\":12931:12943   */\n      add\n        /* \"#utility.yul\":12926:12943   */\n      swap1\n      pop\n        /* \"#utility.yul\":12901:13109   */\n      jump(tag_285)\n    tag_287:\n        /* \"#utility.yul\":13137:13143   */\n      dup7\n        /* \"#utility.yul\":13128:13135   */\n      dup4\n        /* \"#utility.yul\":13125:13144   */\n      lt\n        /* \"#utility.yul\":13122:13301   */\n      iszero\n      tag_288\n      jumpi\n        /* \"#utility.yul\":13195:13204   */\n      dup5\n        /* \"#utility.yul\":13190:13193   */\n      dup10\n        /* \"#utility.yul\":13186:13205   */\n      add\n        /* \"#utility.yul\":13180:13206   */\n      mload\n        /* \"#utility.yul\":13238:13286   */\n      tag_289\n        /* \"#utility.yul\":13280:13284   */\n      0x1f\n        /* \"#utility.yul\":13272:13278   */\n      dup10\n        /* \"#utility.yul\":13268:13285   */\n      and\n        /* \"#utility.yul\":13257:13266   */\n      dup3\n        /* \"#utility.yul\":13238:13286   */\n      tag_126\n      jump\t// in\n    tag_289:\n        /* \"#utility.yul\":13230:13236   */\n      dup4\n        /* \"#utility.yul\":13223:13287   */\n      sstore\n        /* \"#utility.yul\":13145:13301   */\n      pop\n        /* \"#utility.yul\":13122:13301   */\n    tag_288:\n        /* \"#utility.yul\":13347:13348   */\n      0x01\n        /* \"#utility.yul\":13343:13344   */\n      0x02\n        /* \"#utility.yul\":13335:13341   */\n      dup9\n        /* \"#utility.yul\":13331:13345   */\n      mul\n        /* \"#utility.yul\":13327:13349   */\n      add\n        /* \"#utility.yul\":13321:13325   */\n      dup9\n        /* \"#utility.yul\":13314:13350   */\n      sstore\n        /* \"#utility.yul\":12749:13360   */\n      pop\n      pop\n      pop\n        /* \"#utility.yul\":12712:13599   */\n    tag_280:\n      pop\n        /* \"#utility.yul\":12302:13605   */\n      pop\n      pop\n      pop\n        /* \"#utility.yul\":12210:13605   */\n      pop\n      pop\n      jump\t// out\n        /* \"#utility.yul\":13611:13805   */\n    tag_71:\n        /* \"#utility.yul\":13651:13655   */\n      0x00\n        /* \"#utility.yul\":13671:13691   */\n      tag_291\n        /* \"#utility.yul\":13689:13690   */\n      dup3\n        /* \"#utility.yul\":13671:13691   */\n      tag_81\n      jump\t// in\n    tag_291:\n        /* \"#utility.yul\":13666:13691   */\n      swap2\n      pop\n        /* \"#utility.yul\":13705:13725   */\n      tag_292\n        /* \"#utility.yul\":13723:13724   */\n      dup4\n        /* \"#utility.yul\":13705:13725   */\n      tag_81\n      jump\t// in\n    tag_292:\n        /* \"#utility.yul\":13700:13725   */\n      swap3\n      pop\n        /* \"#utility.yul\":13749:13750   */\n      dup3\n        /* \"#utility.yul\":13746:13747   */\n      dup3\n        /* \"#utility.yul\":13742:13751   */\n      sub\n        /* \"#utility.yul\":13734:13751   */\n      swap1\n      pop\n        /* \"#utility.yul\":13773:13774   */\n      dup2\n        /* \"#utility.yul\":13767:13771   */\n      dup2\n        /* \"#utility.yul\":13764:13775   */\n      gt\n        /* \"#utility.yul\":13761:13798   */\n      iszero\n      tag_293\n      jumpi\n        /* \"#utility.yul\":13778:13796   */\n      tag_294\n      tag_112\n      jump\t// in\n    tag_294:\n        /* \"#utility.yul\":13761:13798   */\n    tag_293:\n        /* \"#utility.yul\":13611:13805   */\n      swap3\n      swap2\n      pop\n      pop\n      jump\t// out\n        /* \"#utility.yul\":13811:14044   */\n    tag_73:\n        /* \"#utility.yul\":13850:13853   */\n      0x00\n        /* \"#utility.yul\":13873:13897   */\n      tag_296\n        /* \"#utility.yul\":13891:13896   */\n      dup3\n        /* \"#utility.yul\":13873:13897   */\n      tag_81\n      jump\t// in\n    tag_296:\n        /* \"#utility.yul\":13864:13897   */\n      swap2\n      pop\n        /* \"#utility.yul\":13919:13985   */\n      0xffffffffffffffffffffffffffffffffffffffffffffffffffffffffffffffff\n        /* \"#utility.yul\":13912:13917   */\n      dup3\n        /* \"#utility.yul\":13909:13986   */\n      sub\n        /* \"#utility.yul\":13906:14009   */\n      tag_297\n      jumpi\n        /* \"#utility.yul\":13989:14007   */\n      tag_298\n      tag_112\n      jump\t// in\n    tag_298:\n        /* \"#utility.yul\":13906:14009   */\n    tag_297:\n        /* \"#utility.yul\":14036:14037   */\n      0x01\n        /* \"#utility.yul\":14029:14034   */\n      dup3\n        /* \"#utility.yul\":14025:14038   */\n      add\n        /* \"#utility.yul\":14018:14038   */\n      swap1\n      pop\n        /* \"#utility.yul\":13811:14044   */\n      swap2\n      swap1\n      pop\n      jump\t// out\n        /* \"#utility.yul\":14050:14583   */\n    tag_75:\n        /* \"#utility.yul\":14219:14223   */\n      0x00\n        /* \"#utility.yul\":14257:14259   */\n      0x60\n        /* \"#utility.yul\":14246:14255   */\n      dup3\n        /* \"#utility.yul\":14242:14260   */\n      add\n        /* \"#utility.yul\":14234:14260   */\n      swap1\n      pop\n        /* \"#utility.yul\":14270:14341   */\n      tag_300\n        /* \"#utility.yul\":14338:14339   */\n      0x00\n        /* \"#utility.yul\":14327:14336   */\n      dup4\n        /* \"#utility.yul\":14323:14340   */\n      add\n        /* \"#utility.yul\":14314:14320   */\n      dup7\n        /* \"#utility.yul\":14270:14341   */\n      tag_89\n      jump\t// in\n    tag_300:\n        /* \"#utility.yul\":14388:14397   */\n      dup2\n        /* \"#utility.yul\":14382:14386   */\n      dup2\n        /* \"#utility.yul\":14378:14398   */\n      sub\n        /* \"#utility.yul\":14373:14375   */\n      0x20\n        /* \"#utility.yul\":14362:14371   */\n      dup4\n        /* \"#utility.yul\":14358:14376   */\n      add\n        /* \"#utility.yul\":14351:14399   */\n      mstore\n        /* \"#utility.yul\":14416:14494   */\n      tag_301\n        /* \"#utility.yul\":14489:14493   */\n      dup2\n        /* \"#utility.yul\":14480:14486   */\n      dup6\n        /* \"#utility.yul\":14416:14494   */\n      tag_88\n      jump\t// in\n    tag_301:\n        /* \"#utility.yul\":14408:14494   */\n      swap1\n      pop\n        /* \"#utility.yul\":14504:14576   */\n      tag_302\n        /* \"#utility.yul\":14572:14574   */\n      0x40\n        /* \"#utility.yul\":14561:14570   */\n      dup4\n        /* \"#utility.yul\":14557:14575   */\n      add\n        /* \"#utility.yul\":14548:14554   */\n      dup5\n        /* \"#utility.yul\":14504:14576   */\n      tag_89\n      jump\t// in\n    tag_302:\n        /* \"#utility.yul\":14050:14583   */\n      swap5\n      swap4\n      pop\n      pop\n      pop\n      pop\n      jump\t// out\n\n    auxdata: 0xa2646970667358221220b0fe8c8d6f14c9eff17704c735680709fe7e9dfb83f73b21ae920f6d319608d364736f6c634300081e0033\n}\n",
				"bytecode": {
					"linkReferences": {},
					"object": "60806040526010600155600154600a6100189190610251565b6002556201518060035534801561002d575f5ffd5b50335f5f6101000a81548173ffffffffffffffffffffffffffffffffffffffff021916908373ffffffffffffffffffffffffffffffffffffffff1602179055505f5f9054906101000a900473ffffffffffffffffffffffffffffffffffffffff1673ffffffffffffffffffffffffffffffffffffffff165f73ffffffffffffffffffffffffffffffffffffffff167f8be0079c531659141344cd1fd0a4f28419497f9722a3daafe3b4186f6b6457e060405160405180910390a361029b565b7f4e487b71000000000000000000000000000000000000000000000000000000005f52601160045260245ffd5b5f8160011c9050919050565b5f5f8291508390505b600185111561016e5780860481111561014a576101496100ec565b5b60018516156101595780820291505b808102905061016785610119565b945061012e565b94509492505050565b5f826101865760019050610241565b81610193575f9050610241565b81600181146101a957600281146101b3576101e2565b6001915050610241565b60ff8411156101c5576101c46100ec565b5b8360020a9150848211156101dc576101db6100ec565b5b50610241565b5060208310610133831016604e8410600b84101617156102175782820a905083811115610212576102116100ec565b5b610241565b6102248484846001610125565b9250905081840481111561023b5761023a6100ec565b5b81810290505b9392505050565b5f819050919050565b5f61025b82610248565b915061026683610248565b92506102937fffffffffffffffffffffffffffffffffffffffffffffffffffffffffffffffff8484610177565b905092915050565b610f24806102a85f395ff3fe608060405234801561000f575f5ffd5b5060043610610060575f3560e01c80632052465e14610064578063715018a6146100975780638da5cb5b146100a15780638f32d59b146100bf578063ad822778146100dd578063f2fde38b146100f9575b5f5ffd5b61007e600480360381019061007991906106fa565b610115565b60405161008e94939291906107c2565b60405180910390f35b61009f6101f5565b005b6100a96102c0565b6040516100b6919061084b565b60405180910390f35b6100c76102e7565b6040516100d4919061087e565b60405180910390f35b6100f760048036038101906100f291906109c3565b61033c565b005b610113600480360381019061010e9190610a34565b61039e565b005b60048181548110610124575f80fd5b905f5260205f2090600302015f91509050805f01805461014390610a8c565b80601f016020809104026020016040519081016040528092919081815260200182805461016f90610a8c565b80156101ba5780601f10610191576101008083540402835291602001916101ba565b820191905f5260205f20905b81548152906001019060200180831161019d57829003601f168201915b505050505090806001015490806002015f9054906101000a900463ffffffff16908060020160049054906101000a900463ffffffff16905084565b6101fd6102e7565b610205575f5ffd5b5f73ffffffffffffffffffffffffffffffffffffffff165f5f9054906101000a900473ffffffffffffffffffffffffffffffffffffffff1673ffffffffffffffffffffffffffffffffffffffff167f8be0079c531659141344cd1fd0a4f28419497f9722a3daafe3b4186f6b6457e060405160405180910390a35f5f5f6101000a81548173ffffffffffffffffffffffffffffffffffffffff021916908373ffffffffffffffffffffffffffffffffffffffff160217905550565b5f5f5f9054906101000a900473ffffffffffffffffffffffffffffffffffffffff16905090565b5f5f5f9054906101000a900473ffffffffffffffffffffffffffffffffffffffff1673ffffffffffffffffffffffffffffffffffffffff163373ffffffffffffffffffffffffffffffffffffffff1614905090565b5f60065f3373ffffffffffffffffffffffffffffffffffffffff1673ffffffffffffffffffffffffffffffffffffffff1681526020019081526020015f205414610384575f5ffd5b5f61038e826103ba565b905061039a82826103fd565b5050565b6103a66102e7565b6103ae575f5ffd5b6103b7816105c3565b50565b5f5f826040516020016103cd9190610af6565b604051602081830303815290604052805190602001205f1c9050600254816103f59190610b39565b915050919050565b60046040518060800160405280848152602001838152602001600163ffffffff168152602001600354426104319190610b96565b63ffffffff16815250908060018154018082558091505060019003905f5260205f2090600302015f909190919091505f820151815f0190816104739190610d69565b50602082015181600101556040820151816002015f6101000a81548163ffffffff021916908363ffffffff16021790555060608201518160020160046101000a81548163ffffffff021916908363ffffffff16021790555050505f60016004805490506104e09190610e38565b90503360055f8381526020019081526020015f205f6101000a81548173ffffffffffffffffffffffffffffffffffffffff021916908373ffffffffffffffffffffffffffffffffffffffff16021790555060065f3373ffffffffffffffffffffffffffffffffffffffff1673ffffffffffffffffffffffffffffffffffffffff1681526020019081526020015f205f81548092919061057e90610e6b565b91905055507f88f026aacbbecc90c18411df4b1185fd8d9be2470f1962f192bf84a27d0704b78184846040516105b693929190610eb2565b60405180910390a1505050565b5f73ffffffffffffffffffffffffffffffffffffffff168173ffffffffffffffffffffffffffffffffffffffff16036105fa575f5ffd5b8073ffffffffffffffffffffffffffffffffffffffff165f5f9054906101000a900473ffffffffffffffffffffffffffffffffffffffff1673ffffffffffffffffffffffffffffffffffffffff167f8be0079c531659141344cd1fd0a4f28419497f9722a3daafe3b4186f6b6457e060405160405180910390a3805f5f6101000a81548173ffffffffffffffffffffffffffffffffffffffff021916908373ffffffffffffffffffffffffffffffffffffffff16021790555050565b5f604051905090565b5f5ffd5b5f5ffd5b5f819050919050565b6106d9816106c7565b81146106e3575f5ffd5b50565b5f813590506106f4816106d0565b92915050565b5f6020828403121561070f5761070e6106bf565b5b5f61071c848285016106e6565b91505092915050565b5f81519050919050565b5f82825260208201905092915050565b8281835e5f83830152505050565b5f601f19601f8301169050919050565b5f61076782610725565b610771818561072f565b935061078181856020860161073f565b61078a8161074d565b840191505092915050565b61079e816106c7565b82525050565b5f63ffffffff82169050919050565b6107bc816107a4565b82525050565b5f6080820190508181035f8301526107da818761075d565b90506107e96020830186610795565b6107f660408301856107b3565b61080360608301846107b3565b95945050505050565b5f73ffffffffffffffffffffffffffffffffffffffff82169050919050565b5f6108358261080c565b9050919050565b6108458161082b565b82525050565b5f60208201905061085e5f83018461083c565b92915050565b5f8115159050919050565b61087881610864565b82525050565b5f6020820190506108915f83018461086f565b92915050565b5f5ffd5b5f5ffd5b7f4e487b71000000000000000000000000000000000000000000000000000000005f52604160045260245ffd5b6108d58261074d565b810181811067ffffffffffffffff821117156108f4576108f361089f565b5b80604052505050565b5f6109066106b6565b905061091282826108cc565b919050565b5f67ffffffffffffffff8211156109315761093061089f565b5b61093a8261074d565b9050602081019050919050565b828183375f83830152505050565b5f61096761096284610917565b6108fd565b9050828152602081018484840111156109835761098261089b565b5b61098e848285610947565b509392505050565b5f82601f8301126109aa576109a9610897565b5b81356109ba848260208601610955565b91505092915050565b5f602082840312156109d8576109d76106bf565b5b5f82013567ffffffffffffffff8111156109f5576109f46106c3565b5b610a0184828501610996565b91505092915050565b610a138161082b565b8114610a1d575f5ffd5b50565b5f81359050610a2e81610a0a565b92915050565b5f60208284031215610a4957610a486106bf565b5b5f610a5684828501610a20565b91505092915050565b7f4e487b71000000000000000000000000000000000000000000000000000000005f52602260045260245ffd5b5f6002820490506001821680610aa357607f821691505b602082108103610ab657610ab5610a5f565b5b50919050565b5f81905092915050565b5f610ad082610725565b610ada8185610abc565b9350610aea81856020860161073f565b80840191505092915050565b5f610b018284610ac6565b915081905092915050565b7f4e487b71000000000000000000000000000000000000000000000000000000005f52601260045260245ffd5b5f610b43826106c7565b9150610b4e836106c7565b925082610b5e57610b5d610b0c565b5b828206905092915050565b7f4e487b71000000000000000000000000000000000000000000000000000000005f52601160045260245ffd5b5f610ba0826106c7565b9150610bab836106c7565b9250828201905080821115610bc357610bc2610b69565b5b92915050565b5f819050815f5260205f209050919050565b5f6020601f8301049050919050565b5f82821b905092915050565b5f60088302610c257fffffffffffffffffffffffffffffffffffffffffffffffffffffffffffffffff82610bea565b610c2f8683610bea565b95508019841693508086168417925050509392505050565b5f819050919050565b5f610c6a610c65610c60846106c7565b610c47565b6106c7565b9050919050565b5f819050919050565b610c8383610c50565b610c97610c8f82610c71565b848454610bf6565b825550505050565b5f5f905090565b610cae610c9f565b610cb9818484610c7a565b505050565b5b81811015610cdc57610cd15f82610ca6565b600181019050610cbf565b5050565b601f821115610d2157610cf281610bc9565b610cfb84610bdb565b81016020851015610d0a578190505b610d1e610d1685610bdb565b830182610cbe565b50505b505050565b5f82821c905092915050565b5f610d415f1984600802610d26565b1980831691505092915050565b5f610d598383610d32565b9150826002028217905092915050565b610d7282610725565b67ffffffffffffffff811115610d8b57610d8a61089f565b5b610d958254610a8c565b610da0828285610ce0565b5f60209050601f831160018114610dd1575f8415610dbf578287015190505b610dc98582610d4e565b865550610e30565b601f198416610ddf86610bc9565b5f5b82811015610e0657848901518255600182019150602085019450602081019050610de1565b86831015610e235784890151610e1f601f891682610d32565b8355505b6001600288020188555050505b505050505050565b5f610e42826106c7565b9150610e4d836106c7565b9250828203905081811115610e6557610e64610b69565b5b92915050565b5f610e75826106c7565b91507fffffffffffffffffffffffffffffffffffffffffffffffffffffffffffffffff8203610ea757610ea6610b69565b5b600182019050919050565b5f606082019050610ec55f830186610795565b8181036020830152610ed7818561075d565b9050610ee66040830184610795565b94935050505056fea2646970667358221220b0fe8c8d6f14c9eff17704c735680709fe7e9dfb83f73b21ae920f6d319608d364736f6c634300081e0033",
					"opcodes": "PUSH1 0x80 PUSH1 0x40 MSTORE PUSH1 0x10 PUSH1 0x1 SSTORE PUSH1 0x1 SLOAD PUSH1 0xA PUSH2 0x18 SWAP2 SWAP1 PUSH2 0x251 JUMP JUMPDEST PUSH1 0x2 SSTORE PUSH3 0x15180 PUSH1 0x3 SSTORE CALLVALUE DUP1 ISZERO PUSH2 0x2D JUMPI PUSH0 PUSH0 REVERT JUMPDEST POP CALLER PUSH0 PUSH0 PUSH2 0x100 EXP DUP2 SLOAD DUP2 PUSH20 0xFFFFFFFFFFFFFFFFFFFFFFFFFFFFFFFFFFFFFFFF MUL NOT AND SWAP1 DUP4 PUSH20 0xFFFFFFFFFFFFFFFFFFFFFFFFFFFFFFFFFFFFFFFF AND MUL OR SWAP1 SSTORE POP PUSH0 PUSH0 SWAP1 SLOAD SWAP1 PUSH2 0x100 EXP SWAP1 DIV PUSH20 0xFFFFFFFFFFFFFFFFFFFFFFFFFFFFFFFFFFFFFFFF AND PUSH20 0xFFFFFFFFFFFFFFFFFFFFFFFFFFFFFFFFFFFFFFFF AND PUSH0 PUSH20 0xFFFFFFFFFFFFFFFFFFFFFFFFFFFFFFFFFFFFFFFF AND PUSH32 0x8BE0079C531659141344CD1FD0A4F28419497F9722A3DAAFE3B4186F6B6457E0 PUSH1 0x40 MLOAD PUSH1 0x40 MLOAD DUP1 SWAP2 SUB SWAP1 LOG3 PUSH2 0x29B JUMP JUMPDEST PUSH32 0x4E487B7100000000000000000000000000000000000000000000000000000000 PUSH0 MSTORE PUSH1 0x11 PUSH1 0x4 MSTORE PUSH1 0x24 PUSH0 REVERT JUMPDEST PUSH0 DUP2 PUSH1 0x1 SHR SWAP1 POP SWAP2 SWAP1 POP JUMP JUMPDEST PUSH0 PUSH0 DUP3 SWAP2 POP DUP4 SWAP1 POP JUMPDEST PUSH1 0x1 DUP6 GT ISZERO PUSH2 0x16E JUMPI DUP1 DUP7 DIV DUP2 GT ISZERO PUSH2 0x14A JUMPI PUSH2 0x149 PUSH2 0xEC JUMP JUMPDEST JUMPDEST PUSH1 0x1 DUP6 AND ISZERO PUSH2 0x159 JUMPI DUP1 DUP3 MUL SWAP2 POP JUMPDEST DUP1 DUP2 MUL SWAP1 POP PUSH2 0x167 DUP6 PUSH2 0x119 JUMP JUMPDEST SWAP5 POP PUSH2 0x12E JUMP JUMPDEST SWAP5 POP SWAP5 SWAP3 POP POP POP JUMP JUMPDEST PUSH0 DUP3 PUSH2 0x186 JUMPI PUSH1 0x1 SWAP1 POP PUSH2 0x241 JUMP JUMPDEST DUP2 PUSH2 0x193 JUMPI PUSH0 SWAP1 POP PUSH2 0x241 JUMP JUMPDEST DUP2 PUSH1 0x1 DUP2 EQ PUSH2 0x1A9 JUMPI PUSH1 0x2 DUP2 EQ PUSH2 0x1B3 JUMPI PUSH2 0x1E2 JUMP JUMPDEST PUSH1 0x1 SWAP2 POP POP PUSH2 0x241 JUMP JUMPDEST PUSH1 0xFF DUP5 GT ISZERO PUSH2 0x1C5 JUMPI PUSH2 0x1C4 PUSH2 0xEC JUMP JUMPDEST JUMPDEST DUP4 PUSH1 0x2 EXP SWAP2 POP DUP5 DUP3 GT ISZERO PUSH2 0x1DC JUMPI PUSH2 0x1DB PUSH2 0xEC JUMP JUMPDEST JUMPDEST POP PUSH2 0x241 JUMP JUMPDEST POP PUSH1 0x20 DUP4 LT PUSH2 0x133 DUP4 LT AND PUSH1 0x4E DUP5 LT PUSH1 0xB DUP5 LT AND OR ISZERO PUSH2 0x217 JUMPI DUP3 DUP3 EXP SWAP1 POP DUP4 DUP2 GT ISZERO PUSH2 0x212 JUMPI PUSH2 0x211 PUSH2 0xEC JUMP JUMPDEST JUMPDEST PUSH2 0x241 JUMP JUMPDEST PUSH2 0x224 DUP5 DUP5 DUP5 PUSH1 0x1 PUSH2 0x125 JUMP JUMPDEST SWAP3 POP SWAP1 POP DUP2 DUP5 DIV DUP2 GT ISZERO PUSH2 0x23B JUMPI PUSH2 0x23A PUSH2 0xEC JUMP JUMPDEST JUMPDEST DUP2 DUP2 MUL SWAP1 POP JUMPDEST SWAP4 SWAP3 POP POP POP JUMP JUMPDEST PUSH0 DUP2 SWAP1 POP SWAP2 SWAP1 POP JUMP JUMPDEST PUSH0 PUSH2 0x25B DUP3 PUSH2 0x248 JUMP JUMPDEST SWAP2 POP PUSH2 0x266 DUP4 PUSH2 0x248 JUMP JUMPDEST SWAP3 POP PUSH2 0x293 PUSH32 0xFFFFFFFFFFFFFFFFFFFFFFFFFFFFFFFFFFFFFFFFFFFFFFFFFFFFFFFFFFFFFFFF DUP5 DUP5 PUSH2 0x177 JUMP JUMPDEST SWAP1 POP SWAP3 SWAP2 POP POP JUMP JUMPDEST PUSH2 0xF24 DUP1 PUSH2 0x2A8 PUSH0 CODECOPY PUSH0 RETURN INVALID PUSH1 0x80 PUSH1 0x40 MSTORE CALLVALUE DUP1 ISZERO PUSH2 0xF JUMPI PUSH0 PUSH0 REVERT JUMPDEST POP PUSH1 0x4 CALLDATASIZE LT PUSH2 0x60 JUMPI PUSH0 CALLDATALOAD PUSH1 0xE0 SHR DUP1 PUSH4 0x2052465E EQ PUSH2 0x64 JUMPI DUP1 PUSH4 0x715018A6 EQ PUSH2 0x97 JUMPI DUP1 PUSH4 0x8DA5CB5B EQ PUSH2 0xA1 JUMPI DUP1 PUSH4 0x8F32D59B EQ PUSH2 0xBF JUMPI DUP1 PUSH4 0xAD822778 EQ PUSH2 0xDD JUMPI DUP1 PUSH4 0xF2FDE38B EQ PUSH2 0xF9 JUMPI JUMPDEST PUSH0 PUSH0 REVERT JUMPDEST PUSH2 0x7E PUSH1 0x4 DUP1 CALLDATASIZE SUB DUP2 ADD SWAP1 PUSH2 0x79 SWAP2 SWAP1 PUSH2 0x6FA JUMP JUMPDEST PUSH2 0x115 JUMP JUMPDEST PUSH1 0x40 MLOAD PUSH2 0x8E SWAP5 SWAP4 SWAP3 SWAP2 SWAP1 PUSH2 0x7C2 JUMP JUMPDEST PUSH1 0x40 MLOAD DUP1 SWAP2 SUB SWAP1 RETURN JUMPDEST PUSH2 0x9F PUSH2 0x1F5 JUMP JUMPDEST STOP JUMPDEST PUSH2 0xA9 PUSH2 0x2C0 JUMP JUMPDEST PUSH1 0x40 MLOAD PUSH2 0xB6 SWAP2 SWAP1 PUSH2 0x84B JUMP JUMPDEST PUSH1 0x40 MLOAD DUP1 SWAP2 SUB SWAP1 RETURN JUMPDEST PUSH2 0xC7 PUSH2 0x2E7 JUMP JUMPDEST PUSH1 0x40 MLOAD PUSH2 0xD4 SWAP2 SWAP1 PUSH2 0x87E JUMP JUMPDEST PUSH1 0x40 MLOAD DUP1 SWAP2 SUB SWAP1 RETURN JUMPDEST PUSH2 0xF7 PUSH1 0x4 DUP1 CALLDATASIZE SUB DUP2 ADD SWAP1 PUSH2 0xF2 SWAP2 SWAP1 PUSH2 0x9C3 JUMP JUMPDEST PUSH2 0x33C JUMP JUMPDEST STOP JUMPDEST PUSH2 0x113 PUSH1 0x4 DUP1 CALLDATASIZE SUB DUP2 ADD SWAP1 PUSH2 0x10E SWAP2 SWAP1 PUSH2 0xA34 JUMP JUMPDEST PUSH2 0x39E JUMP JUMPDEST STOP JUMPDEST PUSH1 0x4 DUP2 DUP2 SLOAD DUP2 LT PUSH2 0x124 JUMPI PUSH0 DUP1 REVERT JUMPDEST SWAP1 PUSH0 MSTORE PUSH1 0x20 PUSH0 KECCAK256 SWAP1 PUSH1 0x3 MUL ADD PUSH0 SWAP2 POP SWAP1 POP DUP1 PUSH0 ADD DUP1 SLOAD PUSH2 0x143 SWAP1 PUSH2 0xA8C JUMP JUMPDEST DUP1 PUSH1 0x1F ADD PUSH1 0x20 DUP1 SWAP2 DIV MUL PUSH1 0x20 ADD PUSH1 0x40 MLOAD SWAP1 DUP2 ADD PUSH1 0x40 MSTORE DUP1 SWAP3 SWAP2 SWAP1 DUP2 DUP2 MSTORE PUSH1 0x20 ADD DUP3 DUP1 SLOAD PUSH2 0x16F SWAP1 PUSH2 0xA8C JUMP JUMPDEST DUP1 ISZERO PUSH2 0x1BA JUMPI DUP1 PUSH1 0x1F LT PUSH2 0x191 JUMPI PUSH2 0x100 DUP1 DUP4 SLOAD DIV MUL DUP4 MSTORE SWAP2 PUSH1 0x20 ADD SWAP2 PUSH2 0x1BA JUMP JUMPDEST DUP3 ADD SWAP2 SWAP1 PUSH0 MSTORE PUSH1 0x20 PUSH0 KECCAK256 SWAP1 JUMPDEST DUP2 SLOAD DUP2 MSTORE SWAP1 PUSH1 0x1 ADD SWAP1 PUSH1 0x20 ADD DUP1 DUP4 GT PUSH2 0x19D JUMPI DUP3 SWAP1 SUB PUSH1 0x1F AND DUP3 ADD SWAP2 JUMPDEST POP POP POP POP POP SWAP1 DUP1 PUSH1 0x1 ADD SLOAD SWAP1 DUP1 PUSH1 0x2 ADD PUSH0 SWAP1 SLOAD SWAP1 PUSH2 0x100 EXP SWAP1 DIV PUSH4 0xFFFFFFFF AND SWAP1 DUP1 PUSH1 0x2 ADD PUSH1 0x4 SWAP1 SLOAD SWAP1 PUSH2 0x100 EXP SWAP1 DIV PUSH4 0xFFFFFFFF AND SWAP1 POP DUP5 JUMP JUMPDEST PUSH2 0x1FD PUSH2 0x2E7 JUMP JUMPDEST PUSH2 0x205 JUMPI PUSH0 PUSH0 REVERT JUMPDEST PUSH0 PUSH20 0xFFFFFFFFFFFFFFFFFFFFFFFFFFFFFFFFFFFFFFFF AND PUSH0 PUSH0 SWAP1 SLOAD SWAP1 PUSH2 0x100 EXP SWAP1 DIV PUSH20 0xFFFFFFFFFFFFFFFFFFFFFFFFFFFFFFFFFFFFFFFF AND PUSH20 0xFFFFFFFFFFFFFFFFFFFFFFFFFFFFFFFFFFFFFFFF AND PUSH32 0x8BE0079C531659141344CD1FD0A4F28419497F9722A3DAAFE3B4186F6B6457E0 PUSH1 0x40 MLOAD PUSH1 0x40 MLOAD DUP1 SWAP2 SUB SWAP1 LOG3 PUSH0 PUSH0 PUSH0 PUSH2 0x100 EXP DUP2 SLOAD DUP2 PUSH20 0xFFFFFFFFFFFFFFFFFFFFFFFFFFFFFFFFFFFFFFFF MUL NOT AND SWAP1 DUP4 PUSH20 0xFFFFFFFFFFFFFFFFFFFFFFFFFFFFFFFFFFFFFFFF AND MUL OR SWAP1 SSTORE POP JUMP JUMPDEST PUSH0 PUSH0 PUSH0 SWAP1 SLOAD SWAP1 PUSH2 0x100 EXP SWAP1 DIV PUSH20 0xFFFFFFFFFFFFFFFFFFFFFFFFFFFFFFFFFFFFFFFF AND SWAP1 POP SWAP1 JUMP JUMPDEST PUSH0 PUSH0 PUSH0 SWAP1 SLOAD SWAP1 PUSH2 0x100 EXP SWAP1 DIV PUSH20 0xFFFFFFFFFFFFFFFFFFFFFFFFFFFFFFFFFFFFFFFF AND PUSH20 0xFFFFFFFFFFFFFFFFFFFFFFFFFFFFFFFFFFFFFFFF AND CALLER PUSH20 0xFFFFFFFFFFFFFFFFFFFFFFFFFFFFFFFFFFFFFFFF AND EQ SWAP1 POP SWAP1 JUMP JUMPDEST PUSH0 PUSH1 0x6 PUSH0 CALLER PUSH20 0xFFFFFFFFFFFFFFFFFFFFFFFFFFFFFFFFFFFFFFFF AND PUSH20 0xFFFFFFFFFFFFFFFFFFFFFFFFFFFFFFFFFFFFFFFF AND DUP2 MSTORE PUSH1 0x20 ADD SWAP1 DUP2 MSTORE PUSH1 0x20 ADD PUSH0 KECCAK256 SLOAD EQ PUSH2 0x384 JUMPI PUSH0 PUSH0 REVERT JUMPDEST PUSH0 PUSH2 0x38E DUP3 PUSH2 0x3BA JUMP JUMPDEST SWAP1 POP PUSH2 0x39A DUP3 DUP3 PUSH2 0x3FD JUMP JUMPDEST POP POP JUMP JUMPDEST PUSH2 0x3A6 PUSH2 0x2E7 JUMP JUMPDEST PUSH2 0x3AE JUMPI PUSH0 PUSH0 REVERT JUMPDEST PUSH2 0x3B7 DUP2 PUSH2 0x5C3 JUMP JUMPDEST POP JUMP JUMPDEST PUSH0 PUSH0 DUP3 PUSH1 0x40 MLOAD PUSH1 0x20 ADD PUSH2 0x3CD SWAP2 SWAP1 PUSH2 0xAF6 JUMP JUMPDEST PUSH1 0x40 MLOAD PUSH1 0x20 DUP2 DUP4 SUB SUB DUP2 MSTORE SWAP1 PUSH1 0x40 MSTORE DUP1 MLOAD SWAP1 PUSH1 0x20 ADD KECCAK256 PUSH0 SHR SWAP1 POP PUSH1 0x2 SLOAD DUP2 PUSH2 0x3F5 SWAP2 SWAP1 PUSH2 0xB39 JUMP JUMPDEST SWAP2 POP POP SWAP2 SWAP1 POP JUMP JUMPDEST PUSH1 0x4 PUSH1 0x40 MLOAD DUP1 PUSH1 0x80 ADD PUSH1 0x40 MSTORE DUP1 DUP5 DUP2 MSTORE PUSH1 0x20 ADD DUP4 DUP2 MSTORE PUSH1 0x20 ADD PUSH1 0x1 PUSH4 0xFFFFFFFF AND DUP2 MSTORE PUSH1 0x20 ADD PUSH1 0x3 SLOAD TIMESTAMP PUSH2 0x431 SWAP2 SWAP1 PUSH2 0xB96 JUMP JUMPDEST PUSH4 0xFFFFFFFF AND DUP2 MSTORE POP SWAP1 DUP1 PUSH1 0x1 DUP2 SLOAD ADD DUP1 DUP3 SSTORE DUP1 SWAP2 POP POP PUSH1 0x1 SWAP1 SUB SWAP1 PUSH0 MSTORE PUSH1 0x20 PUSH0 KECCAK256 SWAP1 PUSH1 0x3 MUL ADD PUSH0 SWAP1 SWAP2 SWAP1 SWAP2 SWAP1 SWAP2 POP PUSH0 DUP3 ADD MLOAD DUP2 PUSH0 ADD SWAP1 DUP2 PUSH2 0x473 SWAP2 SWAP1 PUSH2 0xD69 JUMP JUMPDEST POP PUSH1 0x20 DUP3 ADD MLOAD DUP2 PUSH1 0x1 ADD SSTORE PUSH1 0x40 DUP3 ADD MLOAD DUP2 PUSH1 0x2 ADD PUSH0 PUSH2 0x100 EXP DUP2 SLOAD DUP2 PUSH4 0xFFFFFFFF MUL NOT AND SWAP1 DUP4 PUSH4 0xFFFFFFFF AND MUL OR SWAP1 SSTORE POP PUSH1 0x60 DUP3 ADD MLOAD DUP2 PUSH1 0x2 ADD PUSH1 0x4 PUSH2 0x100 EXP DUP2 SLOAD DUP2 PUSH4 0xFFFFFFFF MUL NOT AND SWAP1 DUP4 PUSH4 0xFFFFFFFF AND MUL OR SWAP1 SSTORE POP POP POP PUSH0 PUSH1 0x1 PUSH1 0x4 DUP1 SLOAD SWAP1 POP PUSH2 0x4E0 SWAP2 SWAP1 PUSH2 0xE38 JUMP JUMPDEST SWAP1 POP CALLER PUSH1 0x5 PUSH0 DUP4 DUP2 MSTORE PUSH1 0x20 ADD SWAP1 DUP2 MSTORE PUSH1 0x20 ADD PUSH0 KECCAK256 PUSH0 PUSH2 0x100 EXP DUP2 SLOAD DUP2 PUSH20 0xFFFFFFFFFFFFFFFFFFFFFFFFFFFFFFFFFFFFFFFF MUL NOT AND SWAP1 DUP4 PUSH20 0xFFFFFFFFFFFFFFFFFFFFFFFFFFFFFFFFFFFFFFFF AND MUL OR SWAP1 SSTORE POP PUSH1 0x6 PUSH0 CALLER PUSH20 0xFFFFFFFFFFFFFFFFFFFFFFFFFFFFFFFFFFFFFFFF AND PUSH20 0xFFFFFFFFFFFFFFFFFFFFFFFFFFFFFFFFFFFFFFFF AND DUP2 MSTORE PUSH1 0x20 ADD SWAP1 DUP2 MSTORE PUSH1 0x20 ADD PUSH0 KECCAK256 PUSH0 DUP2 SLOAD DUP1 SWAP3 SWAP2 SWAP1 PUSH2 0x57E SWAP1 PUSH2 0xE6B JUMP JUMPDEST SWAP2 SWAP1 POP SSTORE POP PUSH32 0x88F026AACBBECC90C18411DF4B1185FD8D9BE2470F1962F192BF84A27D0704B7 DUP2 DUP5 DUP5 PUSH1 0x40 MLOAD PUSH2 0x5B6 SWAP4 SWAP3 SWAP2 SWAP1 PUSH2 0xEB2 JUMP JUMPDEST PUSH1 0x40 MLOAD DUP1 SWAP2 SUB SWAP1 LOG1 POP POP POP JUMP JUMPDEST PUSH0 PUSH20 0xFFFFFFFFFFFFFFFFFFFFFFFFFFFFFFFFFFFFFFFF AND DUP2 PUSH20 0xFFFFFFFFFFFFFFFFFFFFFFFFFFFFFFFFFFFFFFFF AND SUB PUSH2 0x5FA JUMPI PUSH0 PUSH0 REVERT JUMPDEST DUP1 PUSH20 0xFFFFFFFFFFFFFFFFFFFFFFFFFFFFFFFFFFFFFFFF AND PUSH0 PUSH0 SWAP1 SLOAD SWAP1 PUSH2 0x100 EXP SWAP1 DIV PUSH20 0xFFFFFFFFFFFFFFFFFFFFFFFFFFFFFFFFFFFFFFFF AND PUSH20 0xFFFFFFFFFFFFFFFFFFFFFFFFFFFFFFFFFFFFFFFF AND PUSH32 0x8BE0079C531659141344CD1FD0A4F28419497F9722A3DAAFE3B4186F6B6457E0 PUSH1 0x40 MLOAD PUSH1 0x40 MLOAD DUP1 SWAP2 SUB SWAP1 LOG3 DUP1 PUSH0 PUSH0 PUSH2 0x100 EXP DUP2 SLOAD DUP2 PUSH20 0xFFFFFFFFFFFFFFFFFFFFFFFFFFFFFFFFFFFFFFFF MUL NOT AND SWAP1 DUP4 PUSH20 0xFFFFFFFFFFFFFFFFFFFFFFFFFFFFFFFFFFFFFFFF AND MUL OR SWAP1 SSTORE POP POP JUMP JUMPDEST PUSH0 PUSH1 0x40 MLOAD SWAP1 POP SWAP1 JUMP JUMPDEST PUSH0 PUSH0 REVERT JUMPDEST PUSH0 PUSH0 REVERT JUMPDEST PUSH0 DUP2 SWAP1 POP SWAP2 SWAP1 POP JUMP JUMPDEST PUSH2 0x6D9 DUP2 PUSH2 0x6C7 JUMP JUMPDEST DUP2 EQ PUSH2 0x6E3 JUMPI PUSH0 PUSH0 REVERT JUMPDEST POP JUMP JUMPDEST PUSH0 DUP2 CALLDATALOAD SWAP1 POP PUSH2 0x6F4 DUP2 PUSH2 0x6D0 JUMP JUMPDEST SWAP3 SWAP2 POP POP JUMP JUMPDEST PUSH0 PUSH1 0x20 DUP3 DUP5 SUB SLT ISZERO PUSH2 0x70F JUMPI PUSH2 0x70E PUSH2 0x6BF JUMP JUMPDEST JUMPDEST PUSH0 PUSH2 0x71C DUP5 DUP3 DUP6 ADD PUSH2 0x6E6 JUMP JUMPDEST SWAP2 POP POP SWAP3 SWAP2 POP POP JUMP JUMPDEST PUSH0 DUP2 MLOAD SWAP1 POP SWAP2 SWAP1 POP JUMP JUMPDEST PUSH0 DUP3 DUP3 MSTORE PUSH1 0x20 DUP3 ADD SWAP1 POP SWAP3 SWAP2 POP POP JUMP JUMPDEST DUP3 DUP2 DUP4 MCOPY PUSH0 DUP4 DUP4 ADD MSTORE POP POP POP JUMP JUMPDEST PUSH0 PUSH1 0x1F NOT PUSH1 0x1F DUP4 ADD AND SWAP1 POP SWAP2 SWAP1 POP JUMP JUMPDEST PUSH0 PUSH2 0x767 DUP3 PUSH2 0x725 JUMP JUMPDEST PUSH2 0x771 DUP2 DUP6 PUSH2 0x72F JUMP JUMPDEST SWAP4 POP PUSH2 0x781 DUP2 DUP6 PUSH1 0x20 DUP7 ADD PUSH2 0x73F JUMP JUMPDEST PUSH2 0x78A DUP2 PUSH2 0x74D JUMP JUMPDEST DUP5 ADD SWAP2 POP POP SWAP3 SWAP2 POP POP JUMP JUMPDEST PUSH2 0x79E DUP2 PUSH2 0x6C7 JUMP JUMPDEST DUP3 MSTORE POP POP JUMP JUMPDEST PUSH0 PUSH4 0xFFFFFFFF DUP3 AND SWAP1 POP SWAP2 SWAP1 POP JUMP JUMPDEST PUSH2 0x7BC DUP2 PUSH2 0x7A4 JUMP JUMPDEST DUP3 MSTORE POP POP JUMP JUMPDEST PUSH0 PUSH1 0x80 DUP3 ADD SWAP1 POP DUP2 DUP2 SUB PUSH0 DUP4 ADD MSTORE PUSH2 0x7DA DUP2 DUP8 PUSH2 0x75D JUMP JUMPDEST SWAP1 POP PUSH2 0x7E9 PUSH1 0x20 DUP4 ADD DUP7 PUSH2 0x795 JUMP JUMPDEST PUSH2 0x7F6 PUSH1 0x40 DUP4 ADD DUP6 PUSH2 0x7B3 JUMP JUMPDEST PUSH2 0x803 PUSH1 0x60 DUP4 ADD DUP5 PUSH2 0x7B3 JUMP JUMPDEST SWAP6 SWAP5 POP POP POP POP POP JUMP JUMPDEST PUSH0 PUSH20 0xFFFFFFFFFFFFFFFFFFFFFFFFFFFFFFFFFFFFFFFF DUP3 AND SWAP1 POP SWAP2 SWAP1 POP JUMP JUMPDEST PUSH0 PUSH2 0x835 DUP3 PUSH2 0x80C JUMP JUMPDEST SWAP1 POP SWAP2 SWAP1 POP JUMP JUMPDEST PUSH2 0x845 DUP2 PUSH2 0x82B JUMP JUMPDEST DUP3 MSTORE POP POP JUMP JUMPDEST PUSH0 PUSH1 0x20 DUP3 ADD SWAP1 POP PUSH2 0x85E PUSH0 DUP4 ADD DUP5 PUSH2 0x83C JUMP JUMPDEST SWAP3 SWAP2 POP POP JUMP JUMPDEST PUSH0 DUP2 ISZERO ISZERO SWAP1 POP SWAP2 SWAP1 POP JUMP JUMPDEST PUSH2 0x878 DUP2 PUSH2 0x864 JUMP JUMPDEST DUP3 MSTORE POP POP JUMP JUMPDEST PUSH0 PUSH1 0x20 DUP3 ADD SWAP1 POP PUSH2 0x891 PUSH0 DUP4 ADD DUP5 PUSH2 0x86F JUMP JUMPDEST SWAP3 SWAP2 POP POP JUMP JUMPDEST PUSH0 PUSH0 REVERT JUMPDEST PUSH0 PUSH0 REVERT JUMPDEST PUSH32 0x4E487B7100000000000000000000000000000000000000000000000000000000 PUSH0 MSTORE PUSH1 0x41 PUSH1 0x4 MSTORE PUSH1 0x24 PUSH0 REVERT JUMPDEST PUSH2 0x8D5 DUP3 PUSH2 0x74D JUMP JUMPDEST DUP2 ADD DUP2 DUP2 LT PUSH8 0xFFFFFFFFFFFFFFFF DUP3 GT OR ISZERO PUSH2 0x8F4 JUMPI PUSH2 0x8F3 PUSH2 0x89F JUMP JUMPDEST JUMPDEST DUP1 PUSH1 0x40 MSTORE POP POP POP JUMP JUMPDEST PUSH0 PUSH2 0x906 PUSH2 0x6B6 JUMP JUMPDEST SWAP1 POP PUSH2 0x912 DUP3 DUP3 PUSH2 0x8CC JUMP JUMPDEST SWAP2 SWAP1 POP JUMP JUMPDEST PUSH0 PUSH8 0xFFFFFFFFFFFFFFFF DUP3 GT ISZERO PUSH2 0x931 JUMPI PUSH2 0x930 PUSH2 0x89F JUMP JUMPDEST JUMPDEST PUSH2 0x93A DUP3 PUSH2 0x74D JUMP JUMPDEST SWAP1 POP PUSH1 0x20 DUP2 ADD SWAP1 POP SWAP2 SWAP1 POP JUMP JUMPDEST DUP3 DUP2 DUP4 CALLDATACOPY PUSH0 DUP4 DUP4 ADD MSTORE POP POP POP JUMP JUMPDEST PUSH0 PUSH2 0x967 PUSH2 0x962 DUP5 PUSH2 0x917 JUMP JUMPDEST PUSH2 0x8FD JUMP JUMPDEST SWAP1 POP DUP3 DUP2 MSTORE PUSH1 0x20 DUP2 ADD DUP5 DUP5 DUP5 ADD GT ISZERO PUSH2 0x983 JUMPI PUSH2 0x982 PUSH2 0x89B JUMP JUMPDEST JUMPDEST PUSH2 0x98E DUP5 DUP3 DUP6 PUSH2 0x947 JUMP JUMPDEST POP SWAP4 SWAP3 POP POP POP JUMP JUMPDEST PUSH0 DUP3 PUSH1 0x1F DUP4 ADD SLT PUSH2 0x9AA JUMPI PUSH2 0x9A9 PUSH2 0x897 JUMP JUMPDEST JUMPDEST DUP2 CALLDATALOAD PUSH2 0x9BA DUP5 DUP3 PUSH1 0x20 DUP7 ADD PUSH2 0x955 JUMP JUMPDEST SWAP2 POP POP SWAP3 SWAP2 POP POP JUMP JUMPDEST PUSH0 PUSH1 0x20 DUP3 DUP5 SUB SLT ISZERO PUSH2 0x9D8 JUMPI PUSH2 0x9D7 PUSH2 0x6BF JUMP JUMPDEST JUMPDEST PUSH0 DUP3 ADD CALLDATALOAD PUSH8 0xFFFFFFFFFFFFFFFF DUP2 GT ISZERO PUSH2 0x9F5 JUMPI PUSH2 0x9F4 PUSH2 0x6C3 JUMP JUMPDEST JUMPDEST PUSH2 0xA01 DUP5 DUP3 DUP6 ADD PUSH2 0x996 JUMP JUMPDEST SWAP2 POP POP SWAP3 SWAP2 POP POP JUMP JUMPDEST PUSH2 0xA13 DUP2 PUSH2 0x82B JUMP JUMPDEST DUP2 EQ PUSH2 0xA1D JUMPI PUSH0 PUSH0 REVERT JUMPDEST POP JUMP JUMPDEST PUSH0 DUP2 CALLDATALOAD SWAP1 POP PUSH2 0xA2E DUP2 PUSH2 0xA0A JUMP JUMPDEST SWAP3 SWAP2 POP POP JUMP JUMPDEST PUSH0 PUSH1 0x20 DUP3 DUP5 SUB SLT ISZERO PUSH2 0xA49 JUMPI PUSH2 0xA48 PUSH2 0x6BF JUMP JUMPDEST JUMPDEST PUSH0 PUSH2 0xA56 DUP5 DUP3 DUP6 ADD PUSH2 0xA20 JUMP JUMPDEST SWAP2 POP POP SWAP3 SWAP2 POP POP JUMP JUMPDEST PUSH32 0x4E487B7100000000000000000000000000000000000000000000000000000000 PUSH0 MSTORE PUSH1 0x22 PUSH1 0x4 MSTORE PUSH1 0x24 PUSH0 REVERT JUMPDEST PUSH0 PUSH1 0x2 DUP3 DIV SWAP1 POP PUSH1 0x1 DUP3 AND DUP1 PUSH2 0xAA3 JUMPI PUSH1 0x7F DUP3 AND SWAP2 POP JUMPDEST PUSH1 0x20 DUP3 LT DUP2 SUB PUSH2 0xAB6 JUMPI PUSH2 0xAB5 PUSH2 0xA5F JUMP JUMPDEST JUMPDEST POP SWAP2 SWAP1 POP JUMP JUMPDEST PUSH0 DUP2 SWAP1 POP SWAP3 SWAP2 POP POP JUMP JUMPDEST PUSH0 PUSH2 0xAD0 DUP3 PUSH2 0x725 JUMP JUMPDEST PUSH2 0xADA DUP2 DUP6 PUSH2 0xABC JUMP JUMPDEST SWAP4 POP PUSH2 0xAEA DUP2 DUP6 PUSH1 0x20 DUP7 ADD PUSH2 0x73F JUMP JUMPDEST DUP1 DUP5 ADD SWAP2 POP POP SWAP3 SWAP2 POP POP JUMP JUMPDEST PUSH0 PUSH2 0xB01 DUP3 DUP5 PUSH2 0xAC6 JUMP JUMPDEST SWAP2 POP DUP2 SWAP1 POP SWAP3 SWAP2 POP POP JUMP JUMPDEST PUSH32 0x4E487B7100000000000000000000000000000000000000000000000000000000 PUSH0 MSTORE PUSH1 0x12 PUSH1 0x4 MSTORE PUSH1 0x24 PUSH0 REVERT JUMPDEST PUSH0 PUSH2 0xB43 DUP3 PUSH2 0x6C7 JUMP JUMPDEST SWAP2 POP PUSH2 0xB4E DUP4 PUSH2 0x6C7 JUMP JUMPDEST SWAP3 POP DUP3 PUSH2 0xB5E JUMPI PUSH2 0xB5D PUSH2 0xB0C JUMP JUMPDEST JUMPDEST DUP3 DUP3 MOD SWAP1 POP SWAP3 SWAP2 POP POP JUMP JUMPDEST PUSH32 0x4E487B7100000000000000000000000000000000000000000000000000000000 PUSH0 MSTORE PUSH1 0x11 PUSH1 0x4 MSTORE PUSH1 0x24 PUSH0 REVERT JUMPDEST PUSH0 PUSH2 0xBA0 DUP3 PUSH2 0x6C7 JUMP JUMPDEST SWAP2 POP PUSH2 0xBAB DUP4 PUSH2 0x6C7 JUMP JUMPDEST SWAP3 POP DUP3 DUP3 ADD SWAP1 POP DUP1 DUP3 GT ISZERO PUSH2 0xBC3 JUMPI PUSH2 0xBC2 PUSH2 0xB69 JUMP JUMPDEST JUMPDEST SWAP3 SWAP2 POP POP JUMP JUMPDEST PUSH0 DUP2 SWAP1 POP DUP2 PUSH0 MSTORE PUSH1 0x20 PUSH0 KECCAK256 SWAP1 POP SWAP2 SWAP1 POP JUMP JUMPDEST PUSH0 PUSH1 0x20 PUSH1 0x1F DUP4 ADD DIV SWAP1 POP SWAP2 SWAP1 POP JUMP JUMPDEST PUSH0 DUP3 DUP3 SHL SWAP1 POP SWAP3 SWAP2 POP POP JUMP JUMPDEST PUSH0 PUSH1 0x8 DUP4 MUL PUSH2 0xC25 PUSH32 0xFFFFFFFFFFFFFFFFFFFFFFFFFFFFFFFFFFFFFFFFFFFFFFFFFFFFFFFFFFFFFFFF DUP3 PUSH2 0xBEA JUMP JUMPDEST PUSH2 0xC2F DUP7 DUP4 PUSH2 0xBEA JUMP JUMPDEST SWAP6 POP DUP1 NOT DUP5 AND SWAP4 POP DUP1 DUP7 AND DUP5 OR SWAP3 POP POP POP SWAP4 SWAP3 POP POP POP JUMP JUMPDEST PUSH0 DUP2 SWAP1 POP SWAP2 SWAP1 POP JUMP JUMPDEST PUSH0 PUSH2 0xC6A PUSH2 0xC65 PUSH2 0xC60 DUP5 PUSH2 0x6C7 JUMP JUMPDEST PUSH2 0xC47 JUMP JUMPDEST PUSH2 0x6C7 JUMP JUMPDEST SWAP1 POP SWAP2 SWAP1 POP JUMP JUMPDEST PUSH0 DUP2 SWAP1 POP SWAP2 SWAP1 POP JUMP JUMPDEST PUSH2 0xC83 DUP4 PUSH2 0xC50 JUMP JUMPDEST PUSH2 0xC97 PUSH2 0xC8F DUP3 PUSH2 0xC71 JUMP JUMPDEST DUP5 DUP5 SLOAD PUSH2 0xBF6 JUMP JUMPDEST DUP3 SSTORE POP POP POP POP JUMP JUMPDEST PUSH0 PUSH0 SWAP1 POP SWAP1 JUMP JUMPDEST PUSH2 0xCAE PUSH2 0xC9F JUMP JUMPDEST PUSH2 0xCB9 DUP2 DUP5 DUP5 PUSH2 0xC7A JUMP JUMPDEST POP POP POP JUMP JUMPDEST JUMPDEST DUP2 DUP2 LT ISZERO PUSH2 0xCDC JUMPI PUSH2 0xCD1 PUSH0 DUP3 PUSH2 0xCA6 JUMP JUMPDEST PUSH1 0x1 DUP2 ADD SWAP1 POP PUSH2 0xCBF JUMP JUMPDEST POP POP JUMP JUMPDEST PUSH1 0x1F DUP3 GT ISZERO PUSH2 0xD21 JUMPI PUSH2 0xCF2 DUP2 PUSH2 0xBC9 JUMP JUMPDEST PUSH2 0xCFB DUP5 PUSH2 0xBDB JUMP JUMPDEST DUP2 ADD PUSH1 0x20 DUP6 LT ISZERO PUSH2 0xD0A JUMPI DUP2 SWAP1 POP JUMPDEST PUSH2 0xD1E PUSH2 0xD16 DUP6 PUSH2 0xBDB JUMP JUMPDEST DUP4 ADD DUP3 PUSH2 0xCBE JUMP JUMPDEST POP POP JUMPDEST POP POP POP JUMP JUMPDEST PUSH0 DUP3 DUP3 SHR SWAP1 POP SWAP3 SWAP2 POP POP JUMP JUMPDEST PUSH0 PUSH2 0xD41 PUSH0 NOT DUP5 PUSH1 0x8 MUL PUSH2 0xD26 JUMP JUMPDEST NOT DUP1 DUP4 AND SWAP2 POP POP SWAP3 SWAP2 POP POP JUMP JUMPDEST PUSH0 PUSH2 0xD59 DUP4 DUP4 PUSH2 0xD32 JUMP JUMPDEST SWAP2 POP DUP3 PUSH1 0x2 MUL DUP3 OR SWAP1 POP SWAP3 SWAP2 POP POP JUMP JUMPDEST PUSH2 0xD72 DUP3 PUSH2 0x725 JUMP JUMPDEST PUSH8 0xFFFFFFFFFFFFFFFF DUP2 GT ISZERO PUSH2 0xD8B JUMPI PUSH2 0xD8A PUSH2 0x89F JUMP JUMPDEST JUMPDEST PUSH2 0xD95 DUP3 SLOAD PUSH2 0xA8C JUMP JUMPDEST PUSH2 0xDA0 DUP3 DUP3 DUP6 PUSH2 0xCE0 JUMP JUMPDEST PUSH0 PUSH1 0x20 SWAP1 POP PUSH1 0x1F DUP4 GT PUSH1 0x1 DUP2 EQ PUSH2 0xDD1 JUMPI PUSH0 DUP5 ISZERO PUSH2 0xDBF JUMPI DUP3 DUP8 ADD MLOAD SWAP1 POP JUMPDEST PUSH2 0xDC9 DUP6 DUP3 PUSH2 0xD4E JUMP JUMPDEST DUP7 SSTORE POP PUSH2 0xE30 JUMP JUMPDEST PUSH1 0x1F NOT DUP5 AND PUSH2 0xDDF DUP7 PUSH2 0xBC9 JUMP JUMPDEST PUSH0 JUMPDEST DUP3 DUP2 LT ISZERO PUSH2 0xE06 JUMPI DUP5 DUP10 ADD MLOAD DUP3 SSTORE PUSH1 0x1 DUP3 ADD SWAP2 POP PUSH1 0x20 DUP6 ADD SWAP5 POP PUSH1 0x20 DUP2 ADD SWAP1 POP PUSH2 0xDE1 JUMP JUMPDEST DUP7 DUP4 LT ISZERO PUSH2 0xE23 JUMPI DUP5 DUP10 ADD MLOAD PUSH2 0xE1F PUSH1 0x1F DUP10 AND DUP3 PUSH2 0xD32 JUMP JUMPDEST DUP4 SSTORE POP JUMPDEST PUSH1 0x1 PUSH1 0x2 DUP9 MUL ADD DUP9 SSTORE POP POP POP JUMPDEST POP POP POP POP POP POP JUMP JUMPDEST PUSH0 PUSH2 0xE42 DUP3 PUSH2 0x6C7 JUMP JUMPDEST SWAP2 POP PUSH2 0xE4D DUP4 PUSH2 0x6C7 JUMP JUMPDEST SWAP3 POP DUP3 DUP3 SUB SWAP1 POP DUP2 DUP2 GT ISZERO PUSH2 0xE65 JUMPI PUSH2 0xE64 PUSH2 0xB69 JUMP JUMPDEST JUMPDEST SWAP3 SWAP2 POP POP JUMP JUMPDEST PUSH0 PUSH2 0xE75 DUP3 PUSH2 0x6C7 JUMP JUMPDEST SWAP2 POP PUSH32 0xFFFFFFFFFFFFFFFFFFFFFFFFFFFFFFFFFFFFFFFFFFFFFFFFFFFFFFFFFFFFFFFF DUP3 SUB PUSH2 0xEA7 JUMPI PUSH2 0xEA6 PUSH2 0xB69 JUMP JUMPDEST JUMPDEST PUSH1 0x1 DUP3 ADD SWAP1 POP SWAP2 SWAP1 POP JUMP JUMPDEST PUSH0 PUSH1 0x60 DUP3 ADD SWAP1 POP PUSH2 0xEC5 PUSH0 DUP4 ADD DUP7 PUSH2 0x795 JUMP JUMPDEST DUP2 DUP2 SUB PUSH1 0x20 DUP4 ADD MSTORE PUSH2 0xED7 DUP2 DUP6 PUSH2 0x75D JUMP JUMPDEST SWAP1 POP PUSH2 0xEE6 PUSH1 0x40 DUP4 ADD DUP5 PUSH2 0x795 JUMP JUMPDEST SWAP5 SWAP4 POP POP POP POP JUMP INVALID LOG2 PUSH5 0x6970667358 0x22 SLT KECCAK256 0xB0 INVALID DUP13 DUP14 PUSH16 0x14C9EFF17704C735680709FE7E9DFB83 0xF7 EXTCODESIZE 0x21 0xAE SWAP3 0xF PUSH14 0x319608D364736F6C634300081E00 CALLER "
				},
				"gasEstimates": {
					"creation": {
						"codeDepositCost": "775200",
						"executionCost": "infinite",
						"totalCost": "infinite"
					},
					"external": {
						"createZombie(string)": "infinite",
						"isOwner()": "2533",
						"owner()": "2536",
						"renounceOwnership()": "30287",
						"transferOwnership(address)": "30746",
						"zombies(uint256)": "infinite"
					},
					"internal": {
						"_createZombie(string memory,uint256)": "infinite",
						"_generateDna(string memory)": "infinite"
					}
				},
				"methodIdentifiers": {
					"createZombie(string)": "ad822778",
					"isOwner()": "8f32d59b",
					"owner()": "8da5cb5b",
					"renounceOwnership()": "715018a6",
					"transferOwnership(address)": "f2fde38b",
					"zombies(uint256)": "2052465e"
				}
			},
			"storageLayout": {
				"storage": [
					{
						"astId": 4,
						"contract": "contracts/zombiefactory.sol:ZombieFactory",
						"label": "_owner",
						"offset": 0,
						"slot": "0",
						"type": "t_address"
					},
					{
						"astId": 137,
						"contract": "contracts/zombiefactory.sol:ZombieFactory",
						"label": "dnaDigits",
						"offset": 0,
						"slot": "1",
						"type": "t_uint256"
					},
					{
						"astId": 142,
						"contract": "contracts/zombiefactory.sol:ZombieFactory",
						"label": "dnaModulus",
						"offset": 0,
						"slot": "2",
						"type": "t_uint256"
					},
					{
						"astId": 145,
						"contract": "contracts/zombiefactory.sol:ZombieFactory",
						"label": "cooldownTime",
						"offset": 0,
						"slot": "3",
						"type": "t_uint256"
					},
					{
						"astId": 158,
						"contract": "contracts/zombiefactory.sol:ZombieFactory",
						"label": "zombies",
						"offset": 0,
						"slot": "4",
						"type": "t_array(t_struct(Zombie)154_storage)dyn_storage"
					},
					{
						"astId": 162,
						"contract": "contracts/zombiefactory.sol:ZombieFactory",
						"label": "zombieToOwner",
						"offset": 0,
						"slot": "5",
						"type": "t_mapping(t_uint256,t_address)"
					},
					{
						"astId": 166,
						"contract": "contracts/zombiefactory.sol:ZombieFactory",
						"label": "ownerZombieCount",
						"offset": 0,
						"slot": "6",
						"type": "t_mapping(t_address,t_uint256)"
					}
				],
				"types": {
					"t_address": {
						"encoding": "inplace",
						"label": "address",
						"numberOfBytes": "20"
					},
					"t_array(t_struct(Zombie)154_storage)dyn_storage": {
						"base": "t_struct(Zombie)154_storage",
						"encoding": "dynamic_array",
						"label": "struct ZombieFactory.Zombie[]",
						"numberOfBytes": "32"
					},
					"t_mapping(t_address,t_uint256)": {
						"encoding": "mapping",
						"key": "t_address",
						"label": "mapping(address => uint256)",
						"numberOfBytes": "32",
						"value": "t_uint256"
					},
					"t_mapping(t_uint256,t_address)": {
						"encoding": "mapping",
						"key": "t_uint256",
						"label": "mapping(uint256 => address)",
						"numberOfBytes": "32",
						"value": "t_address"
					},
					"t_string_storage": {
						"encoding": "bytes",
						"label": "string",
						"numberOfBytes": "32"
					},
					"t_struct(Zombie)154_storage": {
						"encoding": "inplace",
						"label": "struct ZombieFactory.Zombie",
						"members": [
							{
								"astId": 147,
								"contract": "contracts/zombiefactory.sol:ZombieFactory",
								"label": "name",
								"offset": 0,
								"slot": "0",
								"type": "t_string_storage"
							},
							{
								"astId": 149,
								"contract": "contracts/zombiefactory.sol:ZombieFactory",
								"label": "dna",
								"offset": 0,
								"slot": "1",
								"type": "t_uint256"
							},
							{
								"astId": 151,
								"contract": "contracts/zombiefactory.sol:ZombieFactory",
								"label": "level",
								"offset": 0,
								"slot": "2",
								"type": "t_uint32"
							},
							{
								"astId": 153,
								"contract": "contracts/zombiefactory.sol:ZombieFactory",
								"label": "readyTime",
								"offset": 4,
								"slot": "2",
								"type": "t_uint32"
							}
						],
						"numberOfBytes": "96"
					},
					"t_uint256": {
						"encoding": "inplace",
						"label": "uint256",
						"numberOfBytes": "32"
					},
					"t_uint32": {
						"encoding": "inplace",
						"label": "uint32",
						"numberOfBytes": "4"
					}
				}
			},
			"userdoc": {
				"events": {
					"NewZombie(uint256,string,uint256)": {
						"notice": "Events are a way for your contract to communicate that something happened on the blockchain to your app front-end, which can be 'listening' for certain events and take action when they happen. 用于前端监听你的智能合约发生了什么事件，并针对事件做出后续处理逻   辑*"
					}
				},
				"kind": "user",
				"methods": {
					"renounceOwnership()": {
						"notice": "Renouncing to ownership will leave the contract without an owner. It will not be possible to call the functions with the `onlyOwner` modifier anymore."
					}
				},
				"version": 1
			}
		}
	}
}