{
	"contracts/zombiefeeding.sol": {
		"ZombieFeeding": {
			"abi": [
				{
					"anonymous": false,
					"inputs": [
						{
							"indexed": false,
							"internalType": "uint256",
							"name": "zombieId",
							"type": "uint256"
						},
						{
							"indexed": false,
							"internalType": "string",
							"name": "name",
							"type": "string"
						},
						{
							"indexed": false,
							"internalType": "uint256",
							"name": "dna",
							"type": "uint256"
						}
					],
					"name": "NewZombie",
					"type": "event"
				},
				{
					"anonymous": false,
					"inputs": [
						{
							"indexed": true,
							"internalType": "address",
							"name": "previousOwner",
							"type": "address"
						},
						{
							"indexed": true,
							"internalType": "address",
							"name": "newOwner",
							"type": "address"
						}
					],
					"name": "OwnershipTransferred",
					"type": "event"
				},
				{
					"inputs": [
						{
							"internalType": "string",
							"name": "_name",
							"type": "string"
						}
					],
					"name": "createZombie",
					"outputs": [],
					"stateMutability": "nonpayable",
					"type": "function"
				},
				{
					"inputs": [
						{
							"internalType": "uint256",
							"name": "_zombieId",
							"type": "uint256"
						},
						{
							"internalType": "uint256",
							"name": "_kittyId",
							"type": "uint256"
						}
					],
					"name": "feeOnKitty",
					"outputs": [],
					"stateMutability": "nonpayable",
					"type": "function"
				},
				{
					"inputs": [],
					"name": "isOwner",
					"outputs": [
						{
							"internalType": "bool",
							"name": "",
							"type": "bool"
						}
					],
					"stateMutability": "view",
					"type": "function"
				},
				{
					"inputs": [],
					"name": "owner",
					"outputs": [
						{
							"internalType": "address",
							"name": "",
							"type": "address"
						}
					],
					"stateMutability": "view",
					"type": "function"
				},
				{
					"inputs": [],
					"name": "renounceOwnership",
					"outputs": [],
					"stateMutability": "nonpayable",
					"type": "function"
				},
				{
					"inputs": [
						{
							"internalType": "address",
							"name": "_address",
							"type": "address"
						}
					],
					"name": "setKittyContractAddress",
					"outputs": [],
					"stateMutability": "nonpayable",
					"type": "function"
				},
				{
					"inputs": [
						{
							"internalType": "address",
							"name": "newOwner",
							"type": "address"
						}
					],
					"name": "transferOwnership",
					"outputs": [],
					"stateMutability": "nonpayable",
					"type": "function"
				},
				{
					"inputs": [
						{
							"internalType": "uint256",
							"name": "",
							"type": "uint256"
						}
					],
					"name": "zombies",
					"outputs": [
						{
							"internalType": "string",
							"name": "name",
							"type": "string"
						},
						{
							"internalType": "uint256",
							"name": "dna",
							"type": "uint256"
						},
						{
							"internalType": "uint32",
							"name": "level",
							"type": "uint32"
						},
						{
							"internalType": "uint32",
							"name": "readyTime",
							"type": "uint32"
						}
					],
					"stateMutability": "view",
					"type": "function"
				}
			],
			"devdoc": {
				"kind": "dev",
				"methods": {
					"isOwner()": {
						"returns": {
							"_0": "true if `msg.sender` is the owner of the contract."
						}
					},
					"owner()": {
						"returns": {
							"_0": "the address of the owner."
						}
					},
					"renounceOwnership()": {
						"details": "Allows the current owner to relinquish control of the contract."
					},
					"transferOwnership(address)": {
						"details": "Allows the current owner to transfer control of the contract to a newOwner.",
						"params": {
							"newOwner": "The address to transfer ownership to."
						}
					}
				},
				"version": 1
			},
			"evm": {
				"assembly": "    /* \"contracts/zombiefeeding.sol\":490:1805  contract ZombieFeeding is ZombieFactory {... */\n  mstore(0x40, 0x80)\n    /* \"contracts/zombiefactory.sol\":550:552  16 */\n  0x10\n    /* \"contracts/zombiefactory.sol\":530:552  uint256 dnaDigits = 16 */\n  0x01\n  sstore\n    /* \"contracts/zombiefactory.sol\":586:595  dnaDigits */\n  sload(0x01)\n    /* \"contracts/zombiefactory.sol\":580:582  10 */\n  0x0a\n    /* \"contracts/zombiefactory.sol\":580:595  10 ** dnaDigits */\n  tag_1\n  swap2\n  swap1\n  tag_2\n  jump\t// in\ntag_1:\n    /* \"contracts/zombiefactory.sol\":559:595  uint256 dnaModulus = 10 ** dnaDigits */\n  0x02\n  sstore\n    /* \"contracts/zombiefactory.sol\":625:631  1 days */\n  0x015180\n    /* \"contracts/zombiefactory.sol\":602:631  uint256 cooldownTime = 1 days */\n  0x03\n  sstore\n    /* \"contracts/zombiefeeding.sol\":490:1805  contract ZombieFeeding is ZombieFactory {... */\n  callvalue\n  dup1\n  iszero\n  tag_3\n  jumpi\n  revert(0x00, 0x00)\ntag_3:\n  pop\n    /* \"contracts/ownable.sol\":563:573  msg.sender */\n  caller\n    /* \"contracts/ownable.sol\":554:560  _owner */\n  0x00\n  0x00\n    /* \"contracts/ownable.sol\":554:573  _owner = msg.sender */\n  0x0100\n  exp\n  dup2\n  sload\n  dup2\n  0xffffffffffffffffffffffffffffffffffffffff\n  mul\n  not\n  and\n  swap1\n  dup4\n  0xffffffffffffffffffffffffffffffffffffffff\n  and\n  mul\n  or\n  swap1\n  sstore\n  pop\n    /* \"contracts/ownable.sol\":618:624  _owner */\n  0x00\n  0x00\n  swap1\n  sload\n  swap1\n  0x0100\n  exp\n  swap1\n  div\n  0xffffffffffffffffffffffffffffffffffffffff\n  and\n    /* \"contracts/ownable.sol\":585:625  OwnershipTransferred(address(0), _owner) */\n  0xffffffffffffffffffffffffffffffffffffffff\n  and\n    /* \"contracts/ownable.sol\":614:615  0 */\n  0x00\n    /* \"contracts/ownable.sol\":585:625  OwnershipTransferred(address(0), _owner) */\n  0xffffffffffffffffffffffffffffffffffffffff\n  and\n  0x8be0079c531659141344cd1fd0a4f28419497f9722a3daafe3b4186f6b6457e0\n  mload(0x40)\n  mload(0x40)\n  dup1\n  swap2\n  sub\n  swap1\n  log3\n    /* \"contracts/zombiefeeding.sol\":490:1805  contract ZombieFeeding is ZombieFactory {... */\n  jump(tag_6)\n    /* \"#utility.yul\":7:187   */\ntag_7:\n    /* \"#utility.yul\":55:132   */\n  0x4e487b7100000000000000000000000000000000000000000000000000000000\n    /* \"#utility.yul\":52:53   */\n  0x00\n    /* \"#utility.yul\":45:133   */\n  mstore\n    /* \"#utility.yul\":152:156   */\n  0x11\n    /* \"#utility.yul\":149:150   */\n  0x04\n    /* \"#utility.yul\":142:157   */\n  mstore\n    /* \"#utility.yul\":176:180   */\n  0x24\n    /* \"#utility.yul\":173:174   */\n  0x00\n    /* \"#utility.yul\":166:181   */\n  revert\n    /* \"#utility.yul\":193:295   */\ntag_8:\n    /* \"#utility.yul\":235:243   */\n  0x00\n    /* \"#utility.yul\":282:287   */\n  dup2\n    /* \"#utility.yul\":279:280   */\n  0x01\n    /* \"#utility.yul\":275:288   */\n  shr\n    /* \"#utility.yul\":254:288   */\n  swap1\n  pop\n    /* \"#utility.yul\":193:295   */\n  swap2\n  swap1\n  pop\n  jump\t// out\n    /* \"#utility.yul\":301:1149   */\ntag_9:\n    /* \"#utility.yul\":362:367   */\n  0x00\n    /* \"#utility.yul\":369:373   */\n  0x00\n    /* \"#utility.yul\":393:399   */\n  dup3\n    /* \"#utility.yul\":384:399   */\n  swap2\n  pop\n    /* \"#utility.yul\":417:422   */\n  dup4\n    /* \"#utility.yul\":408:422   */\n  swap1\n  pop\n    /* \"#utility.yul\":431:1143   */\ntag_16:\n    /* \"#utility.yul\":452:453   */\n  0x01\n    /* \"#utility.yul\":442:450   */\n  dup6\n    /* \"#utility.yul\":439:454   */\n  gt\n    /* \"#utility.yul\":431:1143   */\n  iszero\n  tag_18\n  jumpi\n    /* \"#utility.yul\":547:551   */\n  dup1\n    /* \"#utility.yul\":542:545   */\n  dup7\n    /* \"#utility.yul\":538:552   */\n  div\n    /* \"#utility.yul\":532:536   */\n  dup2\n    /* \"#utility.yul\":529:553   */\n  gt\n    /* \"#utility.yul\":526:576   */\n  iszero\n  tag_19\n  jumpi\n    /* \"#utility.yul\":556:574   */\n  tag_20\n  tag_7\n  jump\t// in\ntag_20:\n    /* \"#utility.yul\":526:576   */\ntag_19:\n    /* \"#utility.yul\":606:607   */\n  0x01\n    /* \"#utility.yul\":596:604   */\n  dup6\n    /* \"#utility.yul\":592:608   */\n  and\n    /* \"#utility.yul\":589:1040   */\n  iszero\n  tag_21\n  jumpi\n    /* \"#utility.yul\":1021:1025   */\n  dup1\n    /* \"#utility.yul\":1014:1019   */\n  dup3\n    /* \"#utility.yul\":1010:1026   */\n  mul\n    /* \"#utility.yul\":1001:1026   */\n  swap2\n  pop\n    /* \"#utility.yul\":589:1040   */\ntag_21:\n    /* \"#utility.yul\":1071:1075   */\n  dup1\n    /* \"#utility.yul\":1065:1069   */\n  dup2\n    /* \"#utility.yul\":1061:1076   */\n  mul\n    /* \"#utility.yul\":1053:1076   */\n  swap1\n  pop\n    /* \"#utility.yul\":1101:1133   */\n  tag_22\n    /* \"#utility.yul\":1124:1132   */\n  dup6\n    /* \"#utility.yul\":1101:1133   */\n  tag_8\n  jump\t// in\ntag_22:\n    /* \"#utility.yul\":1089:1133   */\n  swap5\n  pop\n    /* \"#utility.yul\":431:1143   */\n  jump(tag_16)\ntag_18:\n    /* \"#utility.yul\":301:1149   */\n  swap5\n  pop\n  swap5\n  swap3\n  pop\n  pop\n  pop\n  jump\t// out\n    /* \"#utility.yul\":1155:2228   */\ntag_10:\n    /* \"#utility.yul\":1209:1214   */\n  0x00\n    /* \"#utility.yul\":1400:1408   */\n  dup3\n    /* \"#utility.yul\":1390:1430   */\n  tag_24\n  jumpi\n    /* \"#utility.yul\":1421:1422   */\n  0x01\n    /* \"#utility.yul\":1412:1422   */\n  swap1\n  pop\n    /* \"#utility.yul\":1423:1428   */\n  jump(tag_23)\n    /* \"#utility.yul\":1390:1430   */\ntag_24:\n    /* \"#utility.yul\":1449:1453   */\n  dup2\n    /* \"#utility.yul\":1439:1475   */\n  tag_25\n  jumpi\n    /* \"#utility.yul\":1466:1467   */\n  0x00\n    /* \"#utility.yul\":1457:1467   */\n  swap1\n  pop\n    /* \"#utility.yul\":1468:1473   */\n  jump(tag_23)\n    /* \"#utility.yul\":1439:1475   */\ntag_25:\n    /* \"#utility.yul\":1535:1539   */\n  dup2\n    /* \"#utility.yul\":1583:1584   */\n  0x01\n    /* \"#utility.yul\":1578:1605   */\n  dup2\n  eq\n  tag_27\n  jumpi\n    /* \"#utility.yul\":1619:1620   */\n  0x02\n    /* \"#utility.yul\":1614:1805   */\n  dup2\n  eq\n  tag_28\n  jumpi\n    /* \"#utility.yul\":1528:1805   */\n  jump(tag_26)\n    /* \"#utility.yul\":1578:1605   */\ntag_27:\n    /* \"#utility.yul\":1596:1597   */\n  0x01\n    /* \"#utility.yul\":1587:1597   */\n  swap2\n  pop\n    /* \"#utility.yul\":1598:1603   */\n  pop\n  jump(tag_23)\n    /* \"#utility.yul\":1614:1805   */\ntag_28:\n    /* \"#utility.yul\":1659:1662   */\n  0xff\n    /* \"#utility.yul\":1649:1657   */\n  dup5\n    /* \"#utility.yul\":1646:1663   */\n  gt\n    /* \"#utility.yul\":1643:1686   */\n  iszero\n  tag_29\n  jumpi\n    /* \"#utility.yul\":1666:1684   */\n  tag_30\n  tag_7\n  jump\t// in\ntag_30:\n    /* \"#utility.yul\":1643:1686   */\ntag_29:\n    /* \"#utility.yul\":1715:1723   */\n  dup4\n    /* \"#utility.yul\":1712:1713   */\n  0x02\n    /* \"#utility.yul\":1708:1724   */\n  exp\n    /* \"#utility.yul\":1699:1724   */\n  swap2\n  pop\n    /* \"#utility.yul\":1750:1753   */\n  dup5\n    /* \"#utility.yul\":1743:1748   */\n  dup3\n    /* \"#utility.yul\":1740:1754   */\n  gt\n    /* \"#utility.yul\":1737:1777   */\n  iszero\n  tag_31\n  jumpi\n    /* \"#utility.yul\":1757:1775   */\n  tag_32\n  tag_7\n  jump\t// in\ntag_32:\n    /* \"#utility.yul\":1737:1777   */\ntag_31:\n    /* \"#utility.yul\":1790:1795   */\n  pop\n  jump(tag_23)\n    /* \"#utility.yul\":1528:1805   */\ntag_26:\n  pop\n    /* \"#utility.yul\":1914:1916   */\n  0x20\n    /* \"#utility.yul\":1904:1912   */\n  dup4\n    /* \"#utility.yul\":1901:1917   */\n  lt\n    /* \"#utility.yul\":1895:1898   */\n  0x0133\n    /* \"#utility.yul\":1889:1893   */\n  dup4\n    /* \"#utility.yul\":1886:1899   */\n  lt\n    /* \"#utility.yul\":1882:1918   */\n  and\n    /* \"#utility.yul\":1864:1866   */\n  0x4e\n    /* \"#utility.yul\":1854:1862   */\n  dup5\n    /* \"#utility.yul\":1851:1867   */\n  lt\n    /* \"#utility.yul\":1846:1848   */\n  0x0b\n    /* \"#utility.yul\":1840:1844   */\n  dup5\n    /* \"#utility.yul\":1837:1849   */\n  lt\n    /* \"#utility.yul\":1833:1868   */\n  and\n    /* \"#utility.yul\":1817:1928   */\n  or\n    /* \"#utility.yul\":1814:2060   */\n  iszero\n  tag_33\n  jumpi\n    /* \"#utility.yul\":1970:1978   */\n  dup3\n    /* \"#utility.yul\":1964:1968   */\n  dup3\n    /* \"#utility.yul\":1960:1979   */\n  exp\n    /* \"#utility.yul\":1951:1979   */\n  swap1\n  pop\n    /* \"#utility.yul\":2005:2008   */\n  dup4\n    /* \"#utility.yul\":1998:2003   */\n  dup2\n    /* \"#utility.yul\":1995:2009   */\n  gt\n    /* \"#utility.yul\":1992:2032   */\n  iszero\n  tag_34\n  jumpi\n    /* \"#utility.yul\":2012:2030   */\n  tag_35\n  tag_7\n  jump\t// in\ntag_35:\n    /* \"#utility.yul\":1992:2032   */\ntag_34:\n    /* \"#utility.yul\":2045:2050   */\n  jump(tag_23)\n    /* \"#utility.yul\":1814:2060   */\ntag_33:\n    /* \"#utility.yul\":2085:2127   */\n  tag_36\n    /* \"#utility.yul\":2123:2126   */\n  dup5\n    /* \"#utility.yul\":2113:2121   */\n  dup5\n    /* \"#utility.yul\":2107:2111   */\n  dup5\n    /* \"#utility.yul\":2104:2105   */\n  0x01\n    /* \"#utility.yul\":2085:2127   */\n  tag_9\n  jump\t// in\ntag_36:\n    /* \"#utility.yul\":2070:2127   */\n  swap3\n  pop\n  swap1\n  pop\n    /* \"#utility.yul\":2159:2163   */\n  dup2\n    /* \"#utility.yul\":2154:2157   */\n  dup5\n    /* \"#utility.yul\":2150:2164   */\n  div\n    /* \"#utility.yul\":2143:2148   */\n  dup2\n    /* \"#utility.yul\":2140:2165   */\n  gt\n    /* \"#utility.yul\":2137:2188   */\n  iszero\n  tag_37\n  jumpi\n    /* \"#utility.yul\":2168:2186   */\n  tag_38\n  tag_7\n  jump\t// in\ntag_38:\n    /* \"#utility.yul\":2137:2188   */\ntag_37:\n    /* \"#utility.yul\":2217:2221   */\n  dup2\n    /* \"#utility.yul\":2210:2215   */\n  dup2\n    /* \"#utility.yul\":2206:2222   */\n  mul\n    /* \"#utility.yul\":2197:2222   */\n  swap1\n  pop\n    /* \"#utility.yul\":1155:2228   */\ntag_23:\n  swap4\n  swap3\n  pop\n  pop\n  pop\n  jump\t// out\n    /* \"#utility.yul\":2234:2311   */\ntag_11:\n    /* \"#utility.yul\":2271:2278   */\n  0x00\n    /* \"#utility.yul\":2300:2305   */\n  dup2\n    /* \"#utility.yul\":2289:2305   */\n  swap1\n  pop\n    /* \"#utility.yul\":2234:2311   */\n  swap2\n  swap1\n  pop\n  jump\t// out\n    /* \"#utility.yul\":2317:2602   */\ntag_2:\n    /* \"#utility.yul\":2377:2382   */\n  0x00\n    /* \"#utility.yul\":2401:2424   */\n  tag_41\n    /* \"#utility.yul\":2419:2423   */\n  dup3\n    /* \"#utility.yul\":2401:2424   */\n  tag_11\n  jump\t// in\ntag_41:\n    /* \"#utility.yul\":2393:2424   */\n  swap2\n  pop\n    /* \"#utility.yul\":2445:2472   */\n  tag_42\n    /* \"#utility.yul\":2463:2471   */\n  dup4\n    /* \"#utility.yul\":2445:2472   */\n  tag_11\n  jump\t// in\ntag_42:\n    /* \"#utility.yul\":2433:2472   */\n  swap3\n  pop\n    /* \"#utility.yul\":2491:2595   */\n  tag_43\n    /* \"#utility.yul\":2528:2594   */\n  0xffffffffffffffffffffffffffffffffffffffffffffffffffffffffffffffff\n    /* \"#utility.yul\":2518:2526   */\n  dup5\n    /* \"#utility.yul\":2512:2516   */\n  dup5\n    /* \"#utility.yul\":2491:2595   */\n  tag_10\n  jump\t// in\ntag_43:\n    /* \"#utility.yul\":2482:2595   */\n  swap1\n  pop\n    /* \"#utility.yul\":2317:2602   */\n  swap3\n  swap2\n  pop\n  pop\n  jump\t// out\n    /* \"contracts/zombiefeeding.sol\":490:1805  contract ZombieFeeding is ZombieFactory {... */\ntag_6:\n  dataSize(sub_0)\n  dup1\n  dataOffset(sub_0)\n  0x00\n  codecopy\n  0x00\n  return\nstop\n\nsub_0: assembly {\n        /* \"contracts/zombiefeeding.sol\":490:1805  contract ZombieFeeding is ZombieFactory {... */\n      mstore(0x40, 0x80)\n      callvalue\n      dup1\n      iszero\n      tag_1\n      jumpi\n      revert(0x00, 0x00)\n    tag_1:\n      pop\n      jumpi(tag_2, lt(calldatasize, 0x04))\n      shr(0xe0, calldataload(0x00))\n      dup1\n      0x8f32d59b\n      gt\n      tag_11\n      jumpi\n      dup1\n      0x8f32d59b\n      eq\n      tag_7\n      jumpi\n      dup1\n      0x9ef0fe03\n      eq\n      tag_8\n      jumpi\n      dup1\n      0xad822778\n      eq\n      tag_9\n      jumpi\n      dup1\n      0xf2fde38b\n      eq\n      tag_10\n      jumpi\n      jump(tag_2)\n    tag_11:\n      dup1\n      0x2052465e\n      eq\n      tag_3\n      jumpi\n      dup1\n      0x5f4623f1\n      eq\n      tag_4\n      jumpi\n      dup1\n      0x715018a6\n      eq\n      tag_5\n      jumpi\n      dup1\n      0x8da5cb5b\n      eq\n      tag_6\n      jumpi\n    tag_2:\n      revert(0x00, 0x00)\n        /* \"contracts/zombiefactory.sol\":764:787  Zombie[] public zombies */\n    tag_3:\n      tag_12\n      0x04\n      dup1\n      calldatasize\n      sub\n      dup2\n      add\n      swap1\n      tag_13\n      swap2\n      swap1\n      tag_14\n      jump\t// in\n    tag_13:\n      tag_15\n      jump\t// in\n    tag_12:\n      mload(0x40)\n      tag_16\n      swap5\n      swap4\n      swap3\n      swap2\n      swap1\n      tag_17\n      jump\t// in\n    tag_16:\n      mload(0x40)\n      dup1\n      swap2\n      sub\n      swap1\n      return\n        /* \"contracts/zombiefeeding.sol\":576:705  function setKittyContractAddress(address _address) external onlyOwner {... */\n    tag_4:\n      tag_18\n      0x04\n      dup1\n      calldatasize\n      sub\n      dup2\n      add\n      swap1\n      tag_19\n      swap2\n      swap1\n      tag_20\n      jump\t// in\n    tag_19:\n      tag_21\n      jump\t// in\n    tag_18:\n      stop\n        /* \"contracts/ownable.sol\":1339:1469  function renounceOwnership() public onlyOwner {... */\n    tag_5:\n      tag_22\n      tag_23\n      jump\t// in\n    tag_22:\n      stop\n        /* \"contracts/ownable.sol\":689:761  function owner() public view returns(address) {... */\n    tag_6:\n      tag_24\n      tag_25\n      jump\t// in\n    tag_24:\n      mload(0x40)\n      tag_26\n      swap2\n      swap1\n      tag_27\n      jump\t// in\n    tag_26:\n      mload(0x40)\n      dup1\n      swap2\n      sub\n      swap1\n      return\n        /* \"contracts/ownable.sol\":987:1072  function isOwner() public view returns(bool) {... */\n    tag_7:\n      tag_28\n      tag_29\n      jump\t// in\n    tag_28:\n      mload(0x40)\n      tag_30\n      swap2\n      swap1\n      tag_31\n      jump\t// in\n    tag_30:\n      mload(0x40)\n      dup1\n      swap2\n      sub\n      swap1\n      return\n        /* \"contracts/zombiefeeding.sol\":1600:1800  function feeOnKitty(uint256 _zombieId, uint256 _kittyId) public {... */\n    tag_8:\n      tag_32\n      0x04\n      dup1\n      calldatasize\n      sub\n      dup2\n      add\n      swap1\n      tag_33\n      swap2\n      swap1\n      tag_34\n      jump\t// in\n    tag_33:\n      tag_35\n      jump\t// in\n    tag_32:\n      stop\n        /* \"contracts/zombiefactory.sol\":1623:1814  function createZombie(string memory _name) public {... */\n    tag_9:\n      tag_36\n      0x04\n      dup1\n      calldatasize\n      sub\n      dup2\n      add\n      swap1\n      tag_37\n      swap2\n      swap1\n      tag_38\n      jump\t// in\n    tag_37:\n      tag_39\n      jump\t// in\n    tag_36:\n      stop\n        /* \"contracts/ownable.sol\":1633:1736  function transferOwnership(address newOwner) public onlyOwner {... */\n    tag_10:\n      tag_40\n      0x04\n      dup1\n      calldatasize\n      sub\n      dup2\n      add\n      swap1\n      tag_41\n      swap2\n      swap1\n      tag_20\n      jump\t// in\n    tag_41:\n      tag_42\n      jump\t// in\n    tag_40:\n      stop\n        /* \"contracts/zombiefactory.sol\":764:787  Zombie[] public zombies */\n    tag_15:\n      0x04\n      dup2\n      dup2\n      sload\n      dup2\n      lt\n      tag_43\n      jumpi\n      0x00\n      dup1\n      revert\n    tag_43:\n      swap1\n      0x00\n      mstore\n      keccak256(0x00, 0x20)\n      swap1\n      0x03\n      mul\n      add\n      0x00\n      swap2\n      pop\n      swap1\n      pop\n      dup1\n      0x00\n      add\n      dup1\n      sload\n      tag_45\n      swap1\n      tag_46\n      jump\t// in\n    tag_45:\n      dup1\n      0x1f\n      add\n      0x20\n      dup1\n      swap2\n      div\n      mul\n      0x20\n      add\n      mload(0x40)\n      swap1\n      dup2\n      add\n      0x40\n      mstore\n      dup1\n      swap3\n      swap2\n      swap1\n      dup2\n      dup2\n      mstore\n      0x20\n      add\n      dup3\n      dup1\n      sload\n      tag_47\n      swap1\n      tag_46\n      jump\t// in\n    tag_47:\n      dup1\n      iszero\n      tag_48\n      jumpi\n      dup1\n      0x1f\n      lt\n      tag_49\n      jumpi\n      0x0100\n      dup1\n      dup4\n      sload\n      div\n      mul\n      dup4\n      mstore\n      swap2\n      0x20\n      add\n      swap2\n      jump(tag_48)\n    tag_49:\n      dup3\n      add\n      swap2\n      swap1\n      0x00\n      mstore\n      keccak256(0x00, 0x20)\n      swap1\n    tag_50:\n      dup2\n      sload\n      dup2\n      mstore\n      swap1\n      0x01\n      add\n      swap1\n      0x20\n      add\n      dup1\n      dup4\n      gt\n      tag_50\n      jumpi\n      dup3\n      swap1\n      sub\n      0x1f\n      and\n      dup3\n      add\n      swap2\n    tag_48:\n      pop\n      pop\n      pop\n      pop\n      pop\n      swap1\n      dup1\n      0x01\n      add\n      sload\n      swap1\n      dup1\n      0x02\n      add\n      0x00\n      swap1\n      sload\n      swap1\n      0x0100\n      exp\n      swap1\n      div\n      0xffffffff\n      and\n      swap1\n      dup1\n      0x02\n      add\n      0x04\n      swap1\n      sload\n      swap1\n      0x0100\n      exp\n      swap1\n      div\n      0xffffffff\n      and\n      swap1\n      pop\n      dup5\n      jump\t// out\n        /* \"contracts/zombiefeeding.sol\":576:705  function setKittyContractAddress(address _address) external onlyOwner {... */\n    tag_21:\n        /* \"contracts/ownable.sol\":880:889  isOwner() */\n      tag_52\n        /* \"contracts/ownable.sol\":880:887  isOwner */\n      tag_29\n        /* \"contracts/ownable.sol\":880:889  isOwner() */\n      jump\t// in\n    tag_52:\n        /* \"contracts/ownable.sol\":872:890  require(isOwner()) */\n      tag_53\n      jumpi\n      revert(0x00, 0x00)\n    tag_53:\n        /* \"contracts/zombiefeeding.sol\":688:696  _address */\n      dup1\n        /* \"contracts/zombiefeeding.sol\":657:670  kittyContract */\n      0x07\n      0x00\n        /* \"contracts/zombiefeeding.sol\":657:697  kittyContract = KittyInterface(_address) */\n      0x0100\n      exp\n      dup2\n      sload\n      dup2\n      0xffffffffffffffffffffffffffffffffffffffff\n      mul\n      not\n      and\n      swap1\n      dup4\n      0xffffffffffffffffffffffffffffffffffffffff\n      and\n      mul\n      or\n      swap1\n      sstore\n      pop\n        /* \"contracts/zombiefeeding.sol\":576:705  function setKittyContractAddress(address _address) external onlyOwner {... */\n      pop\n      jump\t// out\n        /* \"contracts/ownable.sol\":1339:1469  function renounceOwnership() public onlyOwner {... */\n    tag_23:\n        /* \"contracts/ownable.sol\":880:889  isOwner() */\n      tag_56\n        /* \"contracts/ownable.sol\":880:887  isOwner */\n      tag_29\n        /* \"contracts/ownable.sol\":880:889  isOwner() */\n      jump\t// in\n    tag_56:\n        /* \"contracts/ownable.sol\":872:890  require(isOwner()) */\n      tag_57\n      jumpi\n      revert(0x00, 0x00)\n    tag_57:\n        /* \"contracts/ownable.sol\":1434:1435  0 */\n      0x00\n        /* \"contracts/ownable.sol\":1397:1437  OwnershipTransferred(_owner, address(0)) */\n      0xffffffffffffffffffffffffffffffffffffffff\n      and\n        /* \"contracts/ownable.sol\":1418:1424  _owner */\n      0x00\n      0x00\n      swap1\n      sload\n      swap1\n      0x0100\n      exp\n      swap1\n      div\n      0xffffffffffffffffffffffffffffffffffffffff\n      and\n        /* \"contracts/ownable.sol\":1397:1437  OwnershipTransferred(_owner, address(0)) */\n      0xffffffffffffffffffffffffffffffffffffffff\n      and\n      0x8be0079c531659141344cd1fd0a4f28419497f9722a3daafe3b4186f6b6457e0\n      mload(0x40)\n      mload(0x40)\n      dup1\n      swap2\n      sub\n      swap1\n      log3\n        /* \"contracts/ownable.sol\":1461:1462  0 */\n      0x00\n        /* \"contracts/ownable.sol\":1444:1450  _owner */\n      0x00\n      0x00\n        /* \"contracts/ownable.sol\":1444:1463  _owner = address(0) */\n      0x0100\n      exp\n      dup2\n      sload\n      dup2\n      0xffffffffffffffffffffffffffffffffffffffff\n      mul\n      not\n      and\n      swap1\n      dup4\n      0xffffffffffffffffffffffffffffffffffffffff\n      and\n      mul\n      or\n      swap1\n      sstore\n      pop\n        /* \"contracts/ownable.sol\":1339:1469  function renounceOwnership() public onlyOwner {... */\n      jump\t// out\n        /* \"contracts/ownable.sol\":689:761  function owner() public view returns(address) {... */\n    tag_25:\n        /* \"contracts/ownable.sol\":726:733  address */\n      0x00\n        /* \"contracts/ownable.sol\":749:755  _owner */\n      0x00\n      0x00\n      swap1\n      sload\n      swap1\n      0x0100\n      exp\n      swap1\n      div\n      0xffffffffffffffffffffffffffffffffffffffff\n      and\n        /* \"contracts/ownable.sol\":742:755  return _owner */\n      swap1\n      pop\n        /* \"contracts/ownable.sol\":689:761  function owner() public view returns(address) {... */\n      swap1\n      jump\t// out\n        /* \"contracts/ownable.sol\":987:1072  function isOwner() public view returns(bool) {... */\n    tag_29:\n        /* \"contracts/ownable.sol\":1026:1030  bool */\n      0x00\n        /* \"contracts/ownable.sol\":1060:1066  _owner */\n      0x00\n      0x00\n      swap1\n      sload\n      swap1\n      0x0100\n      exp\n      swap1\n      div\n      0xffffffffffffffffffffffffffffffffffffffff\n      and\n        /* \"contracts/ownable.sol\":1046:1066  msg.sender == _owner */\n      0xffffffffffffffffffffffffffffffffffffffff\n      and\n        /* \"contracts/ownable.sol\":1046:1056  msg.sender */\n      caller\n        /* \"contracts/ownable.sol\":1046:1066  msg.sender == _owner */\n      0xffffffffffffffffffffffffffffffffffffffff\n      and\n      eq\n        /* \"contracts/ownable.sol\":1039:1066  return msg.sender == _owner */\n      swap1\n      pop\n        /* \"contracts/ownable.sol\":987:1072  function isOwner() public view returns(bool) {... */\n      swap1\n      jump\t// out\n        /* \"contracts/zombiefeeding.sol\":1600:1800  function feeOnKitty(uint256 _zombieId, uint256 _kittyId) public {... */\n    tag_35:\n        /* \"contracts/zombiefeeding.sol\":1685:1701  uint256 kittyDna */\n      0x00\n        /* \"contracts/zombiefeeding.sol\":1705:1718  kittyContract */\n      0x07\n      0x00\n      swap1\n      sload\n      swap1\n      0x0100\n      exp\n      swap1\n      div\n      0xffffffffffffffffffffffffffffffffffffffff\n      and\n        /* \"contracts/zombiefeeding.sol\":1705:1727  kittyContract.getKitty */\n      0xffffffffffffffffffffffffffffffffffffffff\n      and\n      0xe98b7f4d\n        /* \"contracts/zombiefeeding.sol\":1728:1736  _kittyId */\n      dup4\n        /* \"contracts/zombiefeeding.sol\":1705:1737  kittyContract.getKitty(_kittyId) */\n      mload(0x40)\n      dup3\n      0xffffffff\n      and\n      0xe0\n      shl\n      dup2\n      mstore\n      0x04\n      add\n      tag_62\n      swap2\n      swap1\n      tag_63\n      jump\t// in\n    tag_62:\n      0x0140\n      mload(0x40)\n      dup1\n      dup4\n      sub\n      dup2\n      dup7\n      gas\n      staticcall\n      iszero\n      dup1\n      iszero\n      tag_65\n      jumpi\n      returndatacopy(0x00, 0x00, returndatasize)\n      revert(0x00, returndatasize)\n    tag_65:\n      pop\n      pop\n      pop\n      pop\n      mload(0x40)\n      returndatasize\n      not(0x1f)\n      0x1f\n      dup3\n      add\n      and\n      dup3\n      add\n      dup1\n      0x40\n      mstore\n      pop\n      dup2\n      add\n      swap1\n      tag_66\n      swap2\n      swap1\n      tag_67\n      jump\t// in\n    tag_66:\n        /* \"contracts/zombiefeeding.sol\":1675:1737  (,,,,,,,,,uint256 kittyDna) = kittyContract.getKitty(_kittyId) */\n      swap10\n      pop\n      pop\n      pop\n      pop\n      pop\n      pop\n      pop\n      pop\n      pop\n      pop\n        /* \"contracts/zombiefeeding.sol\":1748:1792  feeAndMultiply(_zombieId, kittyDna, \"kitty\") */\n      tag_68\n        /* \"contracts/zombiefeeding.sol\":1763:1772  _zombieId */\n      dup4\n        /* \"contracts/zombiefeeding.sol\":1774:1782  kittyDna */\n      dup3\n        /* \"contracts/zombiefeeding.sol\":1748:1792  feeAndMultiply(_zombieId, kittyDna, \"kitty\") */\n      mload(0x40)\n      dup1\n      0x40\n      add\n      0x40\n      mstore\n      dup1\n      0x05\n      dup2\n      mstore\n      0x20\n      add\n      0x6b69747479000000000000000000000000000000000000000000000000000000\n      dup2\n      mstore\n      pop\n        /* \"contracts/zombiefeeding.sol\":1748:1762  feeAndMultiply */\n      tag_69\n        /* \"contracts/zombiefeeding.sol\":1748:1792  feeAndMultiply(_zombieId, kittyDna, \"kitty\") */\n      jump\t// in\n    tag_68:\n        /* \"contracts/zombiefeeding.sol\":1664:1800  {... */\n      pop\n        /* \"contracts/zombiefeeding.sol\":1600:1800  function feeOnKitty(uint256 _zombieId, uint256 _kittyId) public {... */\n      pop\n      pop\n      jump\t// out\n        /* \"contracts/zombiefactory.sol\":1623:1814  function createZombie(string memory _name) public {... */\n    tag_39:\n        /* \"contracts/zombiefactory.sol\":1724:1725  0 */\n      0x00\n        /* \"contracts/zombiefactory.sol\":1692:1708  ownerZombieCount */\n      0x06\n        /* \"contracts/zombiefactory.sol\":1692:1720  ownerZombieCount[msg.sender] */\n      0x00\n        /* \"contracts/zombiefactory.sol\":1709:1719  msg.sender */\n      caller\n        /* \"contracts/zombiefactory.sol\":1692:1720  ownerZombieCount[msg.sender] */\n      0xffffffffffffffffffffffffffffffffffffffff\n      and\n      0xffffffffffffffffffffffffffffffffffffffff\n      and\n      dup2\n      mstore\n      0x20\n      add\n      swap1\n      dup2\n      mstore\n      0x20\n      add\n      0x00\n      keccak256\n      sload\n        /* \"contracts/zombiefactory.sol\":1692:1725  ownerZombieCount[msg.sender] == 0 */\n      eq\n        /* \"contracts/zombiefactory.sol\":1684:1726  require(ownerZombieCount[msg.sender] == 0) */\n      tag_71\n      jumpi\n      revert(0x00, 0x00)\n    tag_71:\n        /* \"contracts/zombiefactory.sol\":1737:1748  uint256 dna */\n      0x00\n        /* \"contracts/zombiefactory.sol\":1751:1770  _generateDna(_name) */\n      tag_72\n        /* \"contracts/zombiefactory.sol\":1764:1769  _name */\n      dup3\n        /* \"contracts/zombiefactory.sol\":1751:1763  _generateDna */\n      tag_73\n        /* \"contracts/zombiefactory.sol\":1751:1770  _generateDna(_name) */\n      jump\t// in\n    tag_72:\n        /* \"contracts/zombiefactory.sol\":1737:1770  uint256 dna = _generateDna(_name) */\n      swap1\n      pop\n        /* \"contracts/zombiefactory.sol\":1781:1806  _createZombie(_name, dna) */\n      tag_74\n        /* \"contracts/zombiefactory.sol\":1795:1800  _name */\n      dup3\n        /* \"contracts/zombiefactory.sol\":1802:1805  dna */\n      dup3\n        /* \"contracts/zombiefactory.sol\":1781:1794  _createZombie */\n      tag_75\n        /* \"contracts/zombiefactory.sol\":1781:1806  _createZombie(_name, dna) */\n      jump\t// in\n    tag_74:\n        /* \"contracts/zombiefactory.sol\":1673:1814  {... */\n      pop\n        /* \"contracts/zombiefactory.sol\":1623:1814  function createZombie(string memory _name) public {... */\n      pop\n      jump\t// out\n        /* \"contracts/ownable.sol\":1633:1736  function transferOwnership(address newOwner) public onlyOwner {... */\n    tag_42:\n        /* \"contracts/ownable.sol\":880:889  isOwner() */\n      tag_77\n        /* \"contracts/ownable.sol\":880:887  isOwner */\n      tag_29\n        /* \"contracts/ownable.sol\":880:889  isOwner() */\n      jump\t// in\n    tag_77:\n        /* \"contracts/ownable.sol\":872:890  require(isOwner()) */\n      tag_78\n      jumpi\n      revert(0x00, 0x00)\n    tag_78:\n        /* \"contracts/ownable.sol\":1702:1730  _transferOwnership(newOwner) */\n      tag_80\n        /* \"contracts/ownable.sol\":1721:1729  newOwner */\n      dup2\n        /* \"contracts/ownable.sol\":1702:1720  _transferOwnership */\n      tag_81\n        /* \"contracts/ownable.sol\":1702:1730  _transferOwnership(newOwner) */\n      jump\t// in\n    tag_80:\n        /* \"contracts/ownable.sol\":1633:1736  function transferOwnership(address newOwner) public onlyOwner {... */\n      pop\n      jump\t// out\n        /* \"contracts/zombiefeeding.sol\":998:1592  function feeAndMultiply(uint256 _zombieId, uint256 _targetDna, string memory _species) internal {... */\n    tag_69:\n        /* \"contracts/zombiefeeding.sol\":1141:1151  msg.sender */\n      caller\n        /* \"contracts/zombiefeeding.sol\":1113:1151  zombieToOwner[_zombieId] == msg.sender */\n      0xffffffffffffffffffffffffffffffffffffffff\n      and\n        /* \"contracts/zombiefeeding.sol\":1113:1126  zombieToOwner */\n      0x05\n        /* \"contracts/zombiefeeding.sol\":1113:1137  zombieToOwner[_zombieId] */\n      0x00\n        /* \"contracts/zombiefeeding.sol\":1127:1136  _zombieId */\n      dup6\n        /* \"contracts/zombiefeeding.sol\":1113:1137  zombieToOwner[_zombieId] */\n      dup2\n      mstore\n      0x20\n      add\n      swap1\n      dup2\n      mstore\n      0x20\n      add\n      0x00\n      keccak256\n      0x00\n      swap1\n      sload\n      swap1\n      0x0100\n      exp\n      swap1\n      div\n      0xffffffffffffffffffffffffffffffffffffffff\n      and\n        /* \"contracts/zombiefeeding.sol\":1113:1151  zombieToOwner[_zombieId] == msg.sender */\n      0xffffffffffffffffffffffffffffffffffffffff\n      and\n      eq\n        /* \"contracts/zombiefeeding.sol\":1105:1152  require(zombieToOwner[_zombieId] == msg.sender) */\n      tag_83\n      jumpi\n      revert(0x00, 0x00)\n    tag_83:\n        /* \"contracts/zombiefeeding.sol\":1163:1186  Zombie storage myZombie */\n      0x00\n        /* \"contracts/zombiefeeding.sol\":1189:1196  zombies */\n      0x04\n        /* \"contracts/zombiefeeding.sol\":1197:1206  _zombieId */\n      dup5\n        /* \"contracts/zombiefeeding.sol\":1189:1207  zombies[_zombieId] */\n      dup2\n      sload\n      dup2\n      lt\n      tag_84\n      jumpi\n      tag_85\n      tag_86\n      jump\t// in\n    tag_85:\n    tag_84:\n      swap1\n      0x00\n      mstore\n      keccak256(0x00, 0x20)\n      swap1\n      0x03\n      mul\n      add\n        /* \"contracts/zombiefeeding.sol\":1163:1207  Zombie storage myZombie = zombies[_zombieId] */\n      swap1\n      pop\n        /* \"contracts/zombiefeeding.sol\":1244:1254  dnaModulus */\n      sload(0x02)\n        /* \"contracts/zombiefeeding.sol\":1231:1241  _targetDna */\n      dup4\n        /* \"contracts/zombiefeeding.sol\":1231:1254  _targetDna % dnaModulus */\n      tag_88\n      swap2\n      swap1\n      tag_89\n      jump\t// in\n    tag_88:\n        /* \"contracts/zombiefeeding.sol\":1218:1254  _targetDna = _targetDna % dnaModulus */\n      swap3\n      pop\n        /* \"contracts/zombiefeeding.sol\":1273:1291  _isReady(myZombie) */\n      tag_90\n        /* \"contracts/zombiefeeding.sol\":1282:1290  myZombie */\n      dup2\n        /* \"contracts/zombiefeeding.sol\":1273:1281  _isReady */\n      tag_91\n        /* \"contracts/zombiefeeding.sol\":1273:1291  _isReady(myZombie) */\n      jump\t// in\n    tag_90:\n        /* \"contracts/zombiefeeding.sol\":1265:1292  require(_isReady(myZombie)) */\n      tag_92\n      jumpi\n      revert(0x00, 0x00)\n    tag_92:\n        /* \"contracts/zombiefeeding.sol\":1303:1317  uint256 newDna */\n      0x00\n        /* \"contracts/zombiefeeding.sol\":1350:1351  2 */\n      0x02\n        /* \"contracts/zombiefeeding.sol\":1334:1342  myZombie */\n      dup3\n        /* \"contracts/zombiefeeding.sol\":1334:1346  myZombie.dna */\n      0x01\n      add\n      sload\n        /* \"contracts/zombiefeeding.sol\":1321:1331  _targetDna */\n      dup6\n        /* \"contracts/zombiefeeding.sol\":1321:1346  _targetDna + myZombie.dna */\n      tag_93\n      swap2\n      swap1\n      tag_94\n      jump\t// in\n    tag_93:\n        /* \"contracts/zombiefeeding.sol\":1320:1351  (_targetDna + myZombie.dna) / 2 */\n      tag_95\n      swap2\n      swap1\n      tag_96\n      jump\t// in\n    tag_95:\n        /* \"contracts/zombiefeeding.sol\":1303:1351  uint256 newDna = (_targetDna + myZombie.dna) / 2 */\n      swap1\n      pop\n        /* \"contracts/zombiefeeding.sol\":1416:1441  abi.encodePacked(\"kitty\") */\n      add(0x20, mload(0x40))\n      tag_97\n      swap1\n      tag_98\n      jump\t// in\n    tag_97:\n      mload(0x40)\n      0x20\n      dup2\n      dup4\n      sub\n      sub\n      dup2\n      mstore\n      swap1\n      0x40\n      mstore\n        /* \"contracts/zombiefeeding.sol\":1406:1442  keccak256(abi.encodePacked(\"kitty\")) */\n      dup1\n      mload\n      swap1\n      0x20\n      add\n      keccak256\n        /* \"contracts/zombiefeeding.sol\":1392:1400  _species */\n      dup4\n        /* \"contracts/zombiefeeding.sol\":1375:1401  abi.encodePacked(_species) */\n      add(0x20, mload(0x40))\n      tag_99\n      swap2\n      swap1\n      tag_100\n      jump\t// in\n    tag_99:\n      mload(0x40)\n      0x20\n      dup2\n      dup4\n      sub\n      sub\n      dup2\n      mstore\n      swap1\n      0x40\n      mstore\n        /* \"contracts/zombiefeeding.sol\":1365:1402  keccak256(abi.encodePacked(_species)) */\n      dup1\n      mload\n      swap1\n      0x20\n      add\n      keccak256\n        /* \"contracts/zombiefeeding.sol\":1365:1442  keccak256(abi.encodePacked(_species)) == keccak256(abi.encodePacked(\"kitty\")) */\n      sub\n        /* \"contracts/zombiefeeding.sol\":1362:1506  if(keccak256(abi.encodePacked(_species)) == keccak256(abi.encodePacked(\"kitty\"))) {... */\n      tag_101\n      jumpi\n        /* \"contracts/zombiefeeding.sol\":1492:1494  99 */\n      0x63\n        /* \"contracts/zombiefeeding.sol\":1486:1489  100 */\n      0x64\n        /* \"contracts/zombiefeeding.sol\":1477:1483  newDna */\n      dup3\n        /* \"contracts/zombiefeeding.sol\":1477:1489  newDna % 100 */\n      tag_102\n      swap2\n      swap1\n      tag_89\n      jump\t// in\n    tag_102:\n        /* \"contracts/zombiefeeding.sol\":1468:1474  newDna */\n      dup3\n        /* \"contracts/zombiefeeding.sol\":1468:1489  newDna - newDna % 100 */\n      tag_103\n      swap2\n      swap1\n      tag_104\n      jump\t// in\n    tag_103:\n        /* \"contracts/zombiefeeding.sol\":1468:1494  newDna - newDna % 100 + 99 */\n      tag_105\n      swap2\n      swap1\n      tag_94\n      jump\t// in\n    tag_105:\n        /* \"contracts/zombiefeeding.sol\":1459:1494  newDna = newDna - newDna % 100 + 99 */\n      swap1\n      pop\n        /* \"contracts/zombiefeeding.sol\":1362:1506  if(keccak256(abi.encodePacked(_species)) == keccak256(abi.encodePacked(\"kitty\"))) {... */\n    tag_101:\n        /* \"contracts/zombiefeeding.sol\":1516:1547  _createZombie(\"NoName\", newDna) */\n      tag_106\n      mload(0x40)\n      dup1\n      0x40\n      add\n      0x40\n      mstore\n      dup1\n      0x06\n      dup2\n      mstore\n      0x20\n      add\n      0x4e6f4e616d650000000000000000000000000000000000000000000000000000\n      dup2\n      mstore\n      pop\n        /* \"contracts/zombiefeeding.sol\":1540:1546  newDna */\n      dup3\n        /* \"contracts/zombiefeeding.sol\":1516:1529  _createZombie */\n      tag_75\n        /* \"contracts/zombiefeeding.sol\":1516:1547  _createZombie(\"NoName\", newDna) */\n      jump\t// in\n    tag_106:\n        /* \"contracts/zombiefeeding.sol\":1558:1584  _triggerCooldown(myZombie) */\n      tag_107\n        /* \"contracts/zombiefeeding.sol\":1575:1583  myZombie */\n      dup3\n        /* \"contracts/zombiefeeding.sol\":1558:1574  _triggerCooldown */\n      tag_108\n        /* \"contracts/zombiefeeding.sol\":1558:1584  _triggerCooldown(myZombie) */\n      jump\t// in\n    tag_107:\n        /* \"contracts/zombiefeeding.sol\":1094:1592  {... */\n      pop\n      pop\n        /* \"contracts/zombiefeeding.sol\":998:1592  function feeAndMultiply(uint256 _zombieId, uint256 _targetDna, string memory _species) internal {... */\n      pop\n      pop\n      pop\n      jump\t// out\n        /* \"contracts/zombiefactory.sol\":1429:1615  function _generateDna(string memory _str) private view returns (uint256) {... */\n    tag_73:\n        /* \"contracts/zombiefactory.sol\":1493:1500  uint256 */\n      0x00\n        /* \"contracts/zombiefactory.sol\":1513:1525  uint256 rand */\n      0x00\n        /* \"contracts/zombiefactory.sol\":1565:1569  _str */\n      dup3\n        /* \"contracts/zombiefactory.sol\":1548:1570  abi.encodePacked(_str) */\n      add(0x20, mload(0x40))\n      tag_110\n      swap2\n      swap1\n      tag_100\n      jump\t// in\n    tag_110:\n      mload(0x40)\n      0x20\n      dup2\n      dup4\n      sub\n      sub\n      dup2\n      mstore\n      swap1\n      0x40\n      mstore\n        /* \"contracts/zombiefactory.sol\":1538:1571  keccak256(abi.encodePacked(_str)) */\n      dup1\n      mload\n      swap1\n      0x20\n      add\n      keccak256\n        /* \"contracts/zombiefactory.sol\":1528:1572  (uint256)(keccak256(abi.encodePacked(_str))) */\n      0x00\n      shr\n        /* \"contracts/zombiefactory.sol\":1513:1572  uint256 rand = (uint256)(keccak256(abi.encodePacked(_str))) */\n      swap1\n      pop\n        /* \"contracts/zombiefactory.sol\":1597:1607  dnaModulus */\n      sload(0x02)\n        /* \"contracts/zombiefactory.sol\":1590:1594  rand */\n      dup2\n        /* \"contracts/zombiefactory.sol\":1590:1607  rand % dnaModulus */\n      tag_111\n      swap2\n      swap1\n      tag_89\n      jump\t// in\n    tag_111:\n        /* \"contracts/zombiefactory.sol\":1583:1607  return rand % dnaModulus */\n      swap2\n      pop\n      pop\n        /* \"contracts/zombiefactory.sol\":1429:1615  function _generateDna(string memory _str) private view returns (uint256) {... */\n      swap2\n      swap1\n      pop\n      jump\t// out\n        /* \"contracts/zombiefactory.sol\":901:1229  function _createZombie(string memory _name, uint256 _dna) internal {... */\n    tag_75:\n        /* \"contracts/zombiefactory.sol\":979:986  zombies */\n      0x04\n        /* \"contracts/zombiefactory.sol\":992:1054  Zombie(_name, _dna, 1, uint32(block.timestamp + cooldownTime)) */\n      mload(0x40)\n      dup1\n      0x80\n      add\n      0x40\n      mstore\n      dup1\n        /* \"contracts/zombiefactory.sol\":999:1004  _name */\n      dup5\n        /* \"contracts/zombiefactory.sol\":992:1054  Zombie(_name, _dna, 1, uint32(block.timestamp + cooldownTime)) */\n      dup2\n      mstore\n      0x20\n      add\n        /* \"contracts/zombiefactory.sol\":1006:1010  _dna */\n      dup4\n        /* \"contracts/zombiefactory.sol\":992:1054  Zombie(_name, _dna, 1, uint32(block.timestamp + cooldownTime)) */\n      dup2\n      mstore\n      0x20\n      add\n        /* \"contracts/zombiefactory.sol\":1012:1013  1 */\n      0x01\n        /* \"contracts/zombiefactory.sol\":992:1054  Zombie(_name, _dna, 1, uint32(block.timestamp + cooldownTime)) */\n      0xffffffff\n      and\n      dup2\n      mstore\n      0x20\n      add\n        /* \"contracts/zombiefactory.sol\":1040:1052  cooldownTime */\n      sload(0x03)\n        /* \"contracts/zombiefactory.sol\":1022:1037  block.timestamp */\n      timestamp\n        /* \"contracts/zombiefactory.sol\":1022:1052  block.timestamp + cooldownTime */\n      tag_113\n      swap2\n      swap1\n      tag_94\n      jump\t// in\n    tag_113:\n        /* \"contracts/zombiefactory.sol\":992:1054  Zombie(_name, _dna, 1, uint32(block.timestamp + cooldownTime)) */\n      0xffffffff\n      and\n      dup2\n      mstore\n      pop\n        /* \"contracts/zombiefactory.sol\":979:1055  zombies.push(Zombie(_name, _dna, 1, uint32(block.timestamp + cooldownTime))) */\n      swap1\n      dup1\n      0x01\n      dup2\n      sload\n      add\n      dup1\n      dup3\n      sstore\n      dup1\n      swap2\n      pop\n      pop\n      0x01\n      swap1\n      sub\n      swap1\n      0x00\n      mstore\n      keccak256(0x00, 0x20)\n      swap1\n      0x03\n      mul\n      add\n      0x00\n      swap1\n      swap2\n      swap1\n      swap2\n      swap1\n      swap2\n      pop\n      0x00\n      dup3\n      add\n      mload\n      dup2\n      0x00\n      add\n      swap1\n      dup2\n      tag_115\n      swap2\n      swap1\n      tag_116\n      jump\t// in\n    tag_115:\n      pop\n      0x20\n      dup3\n      add\n      mload\n      dup2\n      0x01\n      add\n      sstore\n      0x40\n      dup3\n      add\n      mload\n      dup2\n      0x02\n      add\n      exp(0x0100, 0x00)\n      dup2\n      sload\n      dup2\n      0xffffffff\n      mul\n      not\n      and\n      swap1\n      dup4\n      0xffffffff\n      and\n      mul\n      or\n      swap1\n      sstore\n      pop\n      0x60\n      dup3\n      add\n      mload\n      dup2\n      0x02\n      add\n      exp(0x0100, 0x04)\n      dup2\n      sload\n      dup2\n      0xffffffff\n      mul\n      not\n      and\n      swap1\n      dup4\n      0xffffffff\n      and\n      mul\n      or\n      swap1\n      sstore\n      pop\n      pop\n      pop\n        /* \"contracts/zombiefactory.sol\":1066:1076  uint256 id */\n      0x00\n        /* \"contracts/zombiefactory.sol\":1096:1097  1 */\n      0x01\n        /* \"contracts/zombiefactory.sol\":1079:1086  zombies */\n      0x04\n        /* \"contracts/zombiefactory.sol\":1079:1093  zombies.length */\n      dup1\n      sload\n      swap1\n      pop\n        /* \"contracts/zombiefactory.sol\":1079:1097  zombies.length - 1 */\n      tag_117\n      swap2\n      swap1\n      tag_104\n      jump\t// in\n    tag_117:\n        /* \"contracts/zombiefactory.sol\":1066:1097  uint256 id = zombies.length - 1 */\n      swap1\n      pop\n        /* \"contracts/zombiefactory.sol\":1128:1138  msg.sender */\n      caller\n        /* \"contracts/zombiefactory.sol\":1108:1121  zombieToOwner */\n      0x05\n        /* \"contracts/zombiefactory.sol\":1108:1125  zombieToOwner[id] */\n      0x00\n        /* \"contracts/zombiefactory.sol\":1122:1124  id */\n      dup4\n        /* \"contracts/zombiefactory.sol\":1108:1125  zombieToOwner[id] */\n      dup2\n      mstore\n      0x20\n      add\n      swap1\n      dup2\n      mstore\n      0x20\n      add\n      0x00\n      keccak256\n      0x00\n        /* \"contracts/zombiefactory.sol\":1108:1138  zombieToOwner[id] = msg.sender */\n      0x0100\n      exp\n      dup2\n      sload\n      dup2\n      0xffffffffffffffffffffffffffffffffffffffff\n      mul\n      not\n      and\n      swap1\n      dup4\n      0xffffffffffffffffffffffffffffffffffffffff\n      and\n      mul\n      or\n      swap1\n      sstore\n      pop\n        /* \"contracts/zombiefactory.sol\":1149:1165  ownerZombieCount */\n      0x06\n        /* \"contracts/zombiefactory.sol\":1149:1177  ownerZombieCount[msg.sender] */\n      0x00\n        /* \"contracts/zombiefactory.sol\":1166:1176  msg.sender */\n      caller\n        /* \"contracts/zombiefactory.sol\":1149:1177  ownerZombieCount[msg.sender] */\n      0xffffffffffffffffffffffffffffffffffffffff\n      and\n      0xffffffffffffffffffffffffffffffffffffffff\n      and\n      dup2\n      mstore\n      0x20\n      add\n      swap1\n      dup2\n      mstore\n      0x20\n      add\n      0x00\n      keccak256\n      0x00\n        /* \"contracts/zombiefactory.sol\":1149:1179  ownerZombieCount[msg.sender]++ */\n      dup2\n      sload\n      dup1\n      swap3\n      swap2\n      swap1\n      tag_118\n      swap1\n      tag_119\n      jump\t// in\n    tag_118:\n      swap2\n      swap1\n      pop\n      sstore\n      pop\n        /* \"contracts/zombiefactory.sol\":1195:1221  NewZombie(id, _name, _dna) */\n      0x88f026aacbbecc90c18411df4b1185fd8d9be2470f1962f192bf84a27d0704b7\n        /* \"contracts/zombiefactory.sol\":1205:1207  id */\n      dup2\n        /* \"contracts/zombiefactory.sol\":1209:1214  _name */\n      dup5\n        /* \"contracts/zombiefactory.sol\":1216:1220  _dna */\n      dup5\n        /* \"contracts/zombiefactory.sol\":1195:1221  NewZombie(id, _name, _dna) */\n      mload(0x40)\n      tag_120\n      swap4\n      swap3\n      swap2\n      swap1\n      tag_121\n      jump\t// in\n    tag_120:\n      mload(0x40)\n      dup1\n      swap2\n      sub\n      swap1\n      log1\n        /* \"contracts/zombiefactory.sol\":968:1229  {... */\n      pop\n        /* \"contracts/zombiefactory.sol\":901:1229  function _createZombie(string memory _name, uint256 _dna) internal {... */\n      pop\n      pop\n      jump\t// out\n        /* \"contracts/ownable.sol\":1873:2046  function _transferOwnership(address newOwner) internal {... */\n    tag_81:\n        /* \"contracts/ownable.sol\":1963:1964  0 */\n      0x00\n        /* \"contracts/ownable.sol\":1943:1965  newOwner != address(0) */\n      0xffffffffffffffffffffffffffffffffffffffff\n      and\n        /* \"contracts/ownable.sol\":1943:1951  newOwner */\n      dup2\n        /* \"contracts/ownable.sol\":1943:1965  newOwner != address(0) */\n      0xffffffffffffffffffffffffffffffffffffffff\n      and\n      sub\n        /* \"contracts/ownable.sol\":1935:1966  require(newOwner != address(0)) */\n      tag_123\n      jumpi\n      revert(0x00, 0x00)\n    tag_123:\n        /* \"contracts/ownable.sol\":2007:2015  newOwner */\n      dup1\n        /* \"contracts/ownable.sol\":1978:2016  OwnershipTransferred(_owner, newOwner) */\n      0xffffffffffffffffffffffffffffffffffffffff\n      and\n        /* \"contracts/ownable.sol\":1999:2005  _owner */\n      0x00\n      0x00\n      swap1\n      sload\n      swap1\n      0x0100\n      exp\n      swap1\n      div\n      0xffffffffffffffffffffffffffffffffffffffff\n      and\n        /* \"contracts/ownable.sol\":1978:2016  OwnershipTransferred(_owner, newOwner) */\n      0xffffffffffffffffffffffffffffffffffffffff\n      and\n      0x8be0079c531659141344cd1fd0a4f28419497f9722a3daafe3b4186f6b6457e0\n      mload(0x40)\n      mload(0x40)\n      dup1\n      swap2\n      sub\n      swap1\n      log3\n        /* \"contracts/ownable.sol\":2032:2040  newOwner */\n      dup1\n        /* \"contracts/ownable.sol\":2023:2029  _owner */\n      0x00\n      0x00\n        /* \"contracts/ownable.sol\":2023:2040  _owner = newOwner */\n      0x0100\n      exp\n      dup2\n      sload\n      dup2\n      0xffffffffffffffffffffffffffffffffffffffff\n      mul\n      not\n      and\n      swap1\n      dup4\n      0xffffffffffffffffffffffffffffffffffffffff\n      and\n      mul\n      or\n      swap1\n      sstore\n      pop\n        /* \"contracts/ownable.sol\":1873:2046  function _transferOwnership(address newOwner) internal {... */\n      pop\n      jump\t// out\n        /* \"contracts/zombiefeeding.sol\":856:988  function _isReady(Zombie storage _zombie) internal view returns(bool) {... */\n    tag_91:\n        /* \"contracts/zombiefeeding.sol\":920:924  bool */\n      0x00\n        /* \"contracts/zombiefeeding.sol\":965:980  block.timestamp */\n      timestamp\n        /* \"contracts/zombiefeeding.sol\":944:951  _zombie */\n      dup3\n        /* \"contracts/zombiefeeding.sol\":944:961  _zombie.readyTime */\n      0x02\n      add\n      0x04\n      swap1\n      sload\n      swap1\n      0x0100\n      exp\n      swap1\n      div\n      0xffffffff\n      and\n        /* \"contracts/zombiefeeding.sol\":944:980  _zombie.readyTime <= block.timestamp */\n      0xffffffff\n      and\n      gt\n      iszero\n        /* \"contracts/zombiefeeding.sol\":937:980  return _zombie.readyTime <= block.timestamp */\n      swap1\n      pop\n        /* \"contracts/zombiefeeding.sol\":856:988  function _isReady(Zombie storage _zombie) internal view returns(bool) {... */\n      swap2\n      swap1\n      pop\n      jump\t// out\n        /* \"contracts/zombiefeeding.sol\":713:848  function _triggerCooldown(Zombie storage _zombie) private {... */\n    tag_108:\n        /* \"contracts/zombiefeeding.sol\":827:839  cooldownTime */\n      sload(0x03)\n        /* \"contracts/zombiefeeding.sol\":809:824  block.timestamp */\n      timestamp\n        /* \"contracts/zombiefeeding.sol\":809:839  block.timestamp + cooldownTime */\n      tag_126\n      swap2\n      swap1\n      tag_94\n      jump\t// in\n    tag_126:\n        /* \"contracts/zombiefeeding.sol\":782:789  _zombie */\n      dup2\n        /* \"contracts/zombiefeeding.sol\":782:799  _zombie.readyTime */\n      0x02\n      add\n      0x04\n        /* \"contracts/zombiefeeding.sol\":782:840  _zombie.readyTime = uint32(block.timestamp + cooldownTime) */\n      0x0100\n      exp\n      dup2\n      sload\n      dup2\n      0xffffffff\n      mul\n      not\n      and\n      swap1\n      dup4\n      0xffffffff\n      and\n      mul\n      or\n      swap1\n      sstore\n      pop\n        /* \"contracts/zombiefeeding.sol\":713:848  function _triggerCooldown(Zombie storage _zombie) private {... */\n      pop\n      jump\t// out\n        /* \"#utility.yul\":7:82   */\n    tag_127:\n        /* \"#utility.yul\":40:46   */\n      0x00\n        /* \"#utility.yul\":73:75   */\n      0x40\n        /* \"#utility.yul\":67:76   */\n      mload\n        /* \"#utility.yul\":57:76   */\n      swap1\n      pop\n        /* \"#utility.yul\":7:82   */\n      swap1\n      jump\t// out\n        /* \"#utility.yul\":88:205   */\n    tag_128:\n        /* \"#utility.yul\":197:198   */\n      0x00\n        /* \"#utility.yul\":194:195   */\n      0x00\n        /* \"#utility.yul\":187:199   */\n      revert\n        /* \"#utility.yul\":211:328   */\n    tag_129:\n        /* \"#utility.yul\":320:321   */\n      0x00\n        /* \"#utility.yul\":317:318   */\n      0x00\n        /* \"#utility.yul\":310:322   */\n      revert\n        /* \"#utility.yul\":334:411   */\n    tag_130:\n        /* \"#utility.yul\":371:378   */\n      0x00\n        /* \"#utility.yul\":400:405   */\n      dup2\n        /* \"#utility.yul\":389:405   */\n      swap1\n      pop\n        /* \"#utility.yul\":334:411   */\n      swap2\n      swap1\n      pop\n      jump\t// out\n        /* \"#utility.yul\":417:539   */\n    tag_131:\n        /* \"#utility.yul\":490:514   */\n      tag_188\n        /* \"#utility.yul\":508:513   */\n      dup2\n        /* \"#utility.yul\":490:514   */\n      tag_130\n      jump\t// in\n    tag_188:\n        /* \"#utility.yul\":483:488   */\n      dup2\n        /* \"#utility.yul\":480:515   */\n      eq\n        /* \"#utility.yul\":470:533   */\n      tag_189\n      jumpi\n        /* \"#utility.yul\":529:530   */\n      0x00\n        /* \"#utility.yul\":526:527   */\n      0x00\n        /* \"#utility.yul\":519:531   */\n      revert\n        /* \"#utility.yul\":470:533   */\n    tag_189:\n        /* \"#utility.yul\":417:539   */\n      pop\n      jump\t// out\n        /* \"#utility.yul\":545:684   */\n    tag_132:\n        /* \"#utility.yul\":591:596   */\n      0x00\n        /* \"#utility.yul\":629:635   */\n      dup2\n        /* \"#utility.yul\":616:636   */\n      calldataload\n        /* \"#utility.yul\":607:636   */\n      swap1\n      pop\n        /* \"#utility.yul\":645:678   */\n      tag_191\n        /* \"#utility.yul\":672:677   */\n      dup2\n        /* \"#utility.yul\":645:678   */\n      tag_131\n      jump\t// in\n    tag_191:\n        /* \"#utility.yul\":545:684   */\n      swap3\n      swap2\n      pop\n      pop\n      jump\t// out\n        /* \"#utility.yul\":690:1019   */\n    tag_14:\n        /* \"#utility.yul\":749:755   */\n      0x00\n        /* \"#utility.yul\":798:800   */\n      0x20\n        /* \"#utility.yul\":786:795   */\n      dup3\n        /* \"#utility.yul\":777:784   */\n      dup5\n        /* \"#utility.yul\":773:796   */\n      sub\n        /* \"#utility.yul\":769:801   */\n      slt\n        /* \"#utility.yul\":766:885   */\n      iszero\n      tag_193\n      jumpi\n        /* \"#utility.yul\":804:883   */\n      tag_194\n      tag_128\n      jump\t// in\n    tag_194:\n        /* \"#utility.yul\":766:885   */\n    tag_193:\n        /* \"#utility.yul\":924:925   */\n      0x00\n        /* \"#utility.yul\":949:1002   */\n      tag_195\n        /* \"#utility.yul\":994:1001   */\n      dup5\n        /* \"#utility.yul\":985:991   */\n      dup3\n        /* \"#utility.yul\":974:983   */\n      dup6\n        /* \"#utility.yul\":970:992   */\n      add\n        /* \"#utility.yul\":949:1002   */\n      tag_132\n      jump\t// in\n    tag_195:\n        /* \"#utility.yul\":939:1002   */\n      swap2\n      pop\n        /* \"#utility.yul\":895:1012   */\n      pop\n        /* \"#utility.yul\":690:1019   */\n      swap3\n      swap2\n      pop\n      pop\n      jump\t// out\n        /* \"#utility.yul\":1025:1124   */\n    tag_133:\n        /* \"#utility.yul\":1077:1083   */\n      0x00\n        /* \"#utility.yul\":1111:1116   */\n      dup2\n        /* \"#utility.yul\":1105:1117   */\n      mload\n        /* \"#utility.yul\":1095:1117   */\n      swap1\n      pop\n        /* \"#utility.yul\":1025:1124   */\n      swap2\n      swap1\n      pop\n      jump\t// out\n        /* \"#utility.yul\":1130:1299   */\n    tag_134:\n        /* \"#utility.yul\":1214:1225   */\n      0x00\n        /* \"#utility.yul\":1248:1254   */\n      dup3\n        /* \"#utility.yul\":1243:1246   */\n      dup3\n        /* \"#utility.yul\":1236:1255   */\n      mstore\n        /* \"#utility.yul\":1288:1292   */\n      0x20\n        /* \"#utility.yul\":1283:1286   */\n      dup3\n        /* \"#utility.yul\":1279:1293   */\n      add\n        /* \"#utility.yul\":1264:1293   */\n      swap1\n      pop\n        /* \"#utility.yul\":1130:1299   */\n      swap3\n      swap2\n      pop\n      pop\n      jump\t// out\n        /* \"#utility.yul\":1305:1444   */\n    tag_135:\n        /* \"#utility.yul\":1394:1400   */\n      dup3\n        /* \"#utility.yul\":1389:1392   */\n      dup2\n        /* \"#utility.yul\":1384:1387   */\n      dup4\n        /* \"#utility.yul\":1378:1401   */\n      mcopy\n        /* \"#utility.yul\":1435:1436   */\n      0x00\n        /* \"#utility.yul\":1426:1432   */\n      dup4\n        /* \"#utility.yul\":1421:1424   */\n      dup4\n        /* \"#utility.yul\":1417:1433   */\n      add\n        /* \"#utility.yul\":1410:1437   */\n      mstore\n        /* \"#utility.yul\":1305:1444   */\n      pop\n      pop\n      pop\n      jump\t// out\n        /* \"#utility.yul\":1450:1552   */\n    tag_136:\n        /* \"#utility.yul\":1491:1497   */\n      0x00\n        /* \"#utility.yul\":1542:1544   */\n      0x1f\n        /* \"#utility.yul\":1538:1545   */\n      not\n        /* \"#utility.yul\":1533:1535   */\n      0x1f\n        /* \"#utility.yul\":1526:1531   */\n      dup4\n        /* \"#utility.yul\":1522:1536   */\n      add\n        /* \"#utility.yul\":1518:1546   */\n      and\n        /* \"#utility.yul\":1508:1546   */\n      swap1\n      pop\n        /* \"#utility.yul\":1450:1552   */\n      swap2\n      swap1\n      pop\n      jump\t// out\n        /* \"#utility.yul\":1558:1935   */\n    tag_137:\n        /* \"#utility.yul\":1646:1649   */\n      0x00\n        /* \"#utility.yul\":1674:1713   */\n      tag_201\n        /* \"#utility.yul\":1707:1712   */\n      dup3\n        /* \"#utility.yul\":1674:1713   */\n      tag_133\n      jump\t// in\n    tag_201:\n        /* \"#utility.yul\":1729:1800   */\n      tag_202\n        /* \"#utility.yul\":1793:1799   */\n      dup2\n        /* \"#utility.yul\":1788:1791   */\n      dup6\n        /* \"#utility.yul\":1729:1800   */\n      tag_134\n      jump\t// in\n    tag_202:\n        /* \"#utility.yul\":1722:1800   */\n      swap4\n      pop\n        /* \"#utility.yul\":1809:1874   */\n      tag_203\n        /* \"#utility.yul\":1867:1873   */\n      dup2\n        /* \"#utility.yul\":1862:1865   */\n      dup6\n        /* \"#utility.yul\":1855:1859   */\n      0x20\n        /* \"#utility.yul\":1848:1853   */\n      dup7\n        /* \"#utility.yul\":1844:1860   */\n      add\n        /* \"#utility.yul\":1809:1874   */\n      tag_135\n      jump\t// in\n    tag_203:\n        /* \"#utility.yul\":1899:1928   */\n      tag_204\n        /* \"#utility.yul\":1921:1927   */\n      dup2\n        /* \"#utility.yul\":1899:1928   */\n      tag_136\n      jump\t// in\n    tag_204:\n        /* \"#utility.yul\":1894:1897   */\n      dup5\n        /* \"#utility.yul\":1890:1929   */\n      add\n        /* \"#utility.yul\":1883:1929   */\n      swap2\n      pop\n        /* \"#utility.yul\":1650:1935   */\n      pop\n        /* \"#utility.yul\":1558:1935   */\n      swap3\n      swap2\n      pop\n      pop\n      jump\t// out\n        /* \"#utility.yul\":1941:2059   */\n    tag_138:\n        /* \"#utility.yul\":2028:2052   */\n      tag_206\n        /* \"#utility.yul\":2046:2051   */\n      dup2\n        /* \"#utility.yul\":2028:2052   */\n      tag_130\n      jump\t// in\n    tag_206:\n        /* \"#utility.yul\":2023:2026   */\n      dup3\n        /* \"#utility.yul\":2016:2053   */\n      mstore\n        /* \"#utility.yul\":1941:2059   */\n      pop\n      pop\n      jump\t// out\n        /* \"#utility.yul\":2065:2158   */\n    tag_139:\n        /* \"#utility.yul\":2101:2108   */\n      0x00\n        /* \"#utility.yul\":2141:2151   */\n      0xffffffff\n        /* \"#utility.yul\":2134:2139   */\n      dup3\n        /* \"#utility.yul\":2130:2152   */\n      and\n        /* \"#utility.yul\":2119:2152   */\n      swap1\n      pop\n        /* \"#utility.yul\":2065:2158   */\n      swap2\n      swap1\n      pop\n      jump\t// out\n        /* \"#utility.yul\":2164:2279   */\n    tag_140:\n        /* \"#utility.yul\":2249:2272   */\n      tag_209\n        /* \"#utility.yul\":2266:2271   */\n      dup2\n        /* \"#utility.yul\":2249:2272   */\n      tag_139\n      jump\t// in\n    tag_209:\n        /* \"#utility.yul\":2244:2247   */\n      dup3\n        /* \"#utility.yul\":2237:2273   */\n      mstore\n        /* \"#utility.yul\":2164:2279   */\n      pop\n      pop\n      jump\t// out\n        /* \"#utility.yul\":2285:2921   */\n    tag_17:\n        /* \"#utility.yul\":2478:2482   */\n      0x00\n        /* \"#utility.yul\":2516:2519   */\n      0x80\n        /* \"#utility.yul\":2505:2514   */\n      dup3\n        /* \"#utility.yul\":2501:2520   */\n      add\n        /* \"#utility.yul\":2493:2520   */\n      swap1\n      pop\n        /* \"#utility.yul\":2566:2575   */\n      dup2\n        /* \"#utility.yul\":2560:2564   */\n      dup2\n        /* \"#utility.yul\":2556:2576   */\n      sub\n        /* \"#utility.yul\":2552:2553   */\n      0x00\n        /* \"#utility.yul\":2541:2550   */\n      dup4\n        /* \"#utility.yul\":2537:2554   */\n      add\n        /* \"#utility.yul\":2530:2577   */\n      mstore\n        /* \"#utility.yul\":2594:2672   */\n      tag_211\n        /* \"#utility.yul\":2667:2671   */\n      dup2\n        /* \"#utility.yul\":2658:2664   */\n      dup8\n        /* \"#utility.yul\":2594:2672   */\n      tag_137\n      jump\t// in\n    tag_211:\n        /* \"#utility.yul\":2586:2672   */\n      swap1\n      pop\n        /* \"#utility.yul\":2682:2754   */\n      tag_212\n        /* \"#utility.yul\":2750:2752   */\n      0x20\n        /* \"#utility.yul\":2739:2748   */\n      dup4\n        /* \"#utility.yul\":2735:2753   */\n      add\n        /* \"#utility.yul\":2726:2732   */\n      dup7\n        /* \"#utility.yul\":2682:2754   */\n      tag_138\n      jump\t// in\n    tag_212:\n        /* \"#utility.yul\":2764:2834   */\n      tag_213\n        /* \"#utility.yul\":2830:2832   */\n      0x40\n        /* \"#utility.yul\":2819:2828   */\n      dup4\n        /* \"#utility.yul\":2815:2833   */\n      add\n        /* \"#utility.yul\":2806:2812   */\n      dup6\n        /* \"#utility.yul\":2764:2834   */\n      tag_140\n      jump\t// in\n    tag_213:\n        /* \"#utility.yul\":2844:2914   */\n      tag_214\n        /* \"#utility.yul\":2910:2912   */\n      0x60\n        /* \"#utility.yul\":2899:2908   */\n      dup4\n        /* \"#utility.yul\":2895:2913   */\n      add\n        /* \"#utility.yul\":2886:2892   */\n      dup5\n        /* \"#utility.yul\":2844:2914   */\n      tag_140\n      jump\t// in\n    tag_214:\n        /* \"#utility.yul\":2285:2921   */\n      swap6\n      swap5\n      pop\n      pop\n      pop\n      pop\n      pop\n      jump\t// out\n        /* \"#utility.yul\":2927:3053   */\n    tag_141:\n        /* \"#utility.yul\":2964:2971   */\n      0x00\n        /* \"#utility.yul\":3004:3046   */\n      0xffffffffffffffffffffffffffffffffffffffff\n        /* \"#utility.yul\":2997:3002   */\n      dup3\n        /* \"#utility.yul\":2993:3047   */\n      and\n        /* \"#utility.yul\":2982:3047   */\n      swap1\n      pop\n        /* \"#utility.yul\":2927:3053   */\n      swap2\n      swap1\n      pop\n      jump\t// out\n        /* \"#utility.yul\":3059:3155   */\n    tag_142:\n        /* \"#utility.yul\":3096:3103   */\n      0x00\n        /* \"#utility.yul\":3125:3149   */\n      tag_217\n        /* \"#utility.yul\":3143:3148   */\n      dup3\n        /* \"#utility.yul\":3125:3149   */\n      tag_141\n      jump\t// in\n    tag_217:\n        /* \"#utility.yul\":3114:3149   */\n      swap1\n      pop\n        /* \"#utility.yul\":3059:3155   */\n      swap2\n      swap1\n      pop\n      jump\t// out\n        /* \"#utility.yul\":3161:3283   */\n    tag_143:\n        /* \"#utility.yul\":3234:3258   */\n      tag_219\n        /* \"#utility.yul\":3252:3257   */\n      dup2\n        /* \"#utility.yul\":3234:3258   */\n      tag_142\n      jump\t// in\n    tag_219:\n        /* \"#utility.yul\":3227:3232   */\n      dup2\n        /* \"#utility.yul\":3224:3259   */\n      eq\n        /* \"#utility.yul\":3214:3277   */\n      tag_220\n      jumpi\n        /* \"#utility.yul\":3273:3274   */\n      0x00\n        /* \"#utility.yul\":3270:3271   */\n      0x00\n        /* \"#utility.yul\":3263:3275   */\n      revert\n        /* \"#utility.yul\":3214:3277   */\n    tag_220:\n        /* \"#utility.yul\":3161:3283   */\n      pop\n      jump\t// out\n        /* \"#utility.yul\":3289:3428   */\n    tag_144:\n        /* \"#utility.yul\":3335:3340   */\n      0x00\n        /* \"#utility.yul\":3373:3379   */\n      dup2\n        /* \"#utility.yul\":3360:3380   */\n      calldataload\n        /* \"#utility.yul\":3351:3380   */\n      swap1\n      pop\n        /* \"#utility.yul\":3389:3422   */\n      tag_222\n        /* \"#utility.yul\":3416:3421   */\n      dup2\n        /* \"#utility.yul\":3389:3422   */\n      tag_143\n      jump\t// in\n    tag_222:\n        /* \"#utility.yul\":3289:3428   */\n      swap3\n      swap2\n      pop\n      pop\n      jump\t// out\n        /* \"#utility.yul\":3434:3763   */\n    tag_20:\n        /* \"#utility.yul\":3493:3499   */\n      0x00\n        /* \"#utility.yul\":3542:3544   */\n      0x20\n        /* \"#utility.yul\":3530:3539   */\n      dup3\n        /* \"#utility.yul\":3521:3528   */\n      dup5\n        /* \"#utility.yul\":3517:3540   */\n      sub\n        /* \"#utility.yul\":3513:3545   */\n      slt\n        /* \"#utility.yul\":3510:3629   */\n      iszero\n      tag_224\n      jumpi\n        /* \"#utility.yul\":3548:3627   */\n      tag_225\n      tag_128\n      jump\t// in\n    tag_225:\n        /* \"#utility.yul\":3510:3629   */\n    tag_224:\n        /* \"#utility.yul\":3668:3669   */\n      0x00\n        /* \"#utility.yul\":3693:3746   */\n      tag_226\n        /* \"#utility.yul\":3738:3745   */\n      dup5\n        /* \"#utility.yul\":3729:3735   */\n      dup3\n        /* \"#utility.yul\":3718:3727   */\n      dup6\n        /* \"#utility.yul\":3714:3736   */\n      add\n        /* \"#utility.yul\":3693:3746   */\n      tag_144\n      jump\t// in\n    tag_226:\n        /* \"#utility.yul\":3683:3746   */\n      swap2\n      pop\n        /* \"#utility.yul\":3639:3756   */\n      pop\n        /* \"#utility.yul\":3434:3763   */\n      swap3\n      swap2\n      pop\n      pop\n      jump\t// out\n        /* \"#utility.yul\":3769:3887   */\n    tag_145:\n        /* \"#utility.yul\":3856:3880   */\n      tag_228\n        /* \"#utility.yul\":3874:3879   */\n      dup2\n        /* \"#utility.yul\":3856:3880   */\n      tag_142\n      jump\t// in\n    tag_228:\n        /* \"#utility.yul\":3851:3854   */\n      dup3\n        /* \"#utility.yul\":3844:3881   */\n      mstore\n        /* \"#utility.yul\":3769:3887   */\n      pop\n      pop\n      jump\t// out\n        /* \"#utility.yul\":3893:4115   */\n    tag_27:\n        /* \"#utility.yul\":3986:3990   */\n      0x00\n        /* \"#utility.yul\":4024:4026   */\n      0x20\n        /* \"#utility.yul\":4013:4022   */\n      dup3\n        /* \"#utility.yul\":4009:4027   */\n      add\n        /* \"#utility.yul\":4001:4027   */\n      swap1\n      pop\n        /* \"#utility.yul\":4037:4108   */\n      tag_230\n        /* \"#utility.yul\":4105:4106   */\n      0x00\n        /* \"#utility.yul\":4094:4103   */\n      dup4\n        /* \"#utility.yul\":4090:4107   */\n      add\n        /* \"#utility.yul\":4081:4087   */\n      dup5\n        /* \"#utility.yul\":4037:4108   */\n      tag_145\n      jump\t// in\n    tag_230:\n        /* \"#utility.yul\":3893:4115   */\n      swap3\n      swap2\n      pop\n      pop\n      jump\t// out\n        /* \"#utility.yul\":4121:4211   */\n    tag_146:\n        /* \"#utility.yul\":4155:4162   */\n      0x00\n        /* \"#utility.yul\":4198:4203   */\n      dup2\n        /* \"#utility.yul\":4191:4204   */\n      iszero\n        /* \"#utility.yul\":4184:4205   */\n      iszero\n        /* \"#utility.yul\":4173:4205   */\n      swap1\n      pop\n        /* \"#utility.yul\":4121:4211   */\n      swap2\n      swap1\n      pop\n      jump\t// out\n        /* \"#utility.yul\":4217:4326   */\n    tag_147:\n        /* \"#utility.yul\":4298:4319   */\n      tag_233\n        /* \"#utility.yul\":4313:4318   */\n      dup2\n        /* \"#utility.yul\":4298:4319   */\n      tag_146\n      jump\t// in\n    tag_233:\n        /* \"#utility.yul\":4293:4296   */\n      dup3\n        /* \"#utility.yul\":4286:4320   */\n      mstore\n        /* \"#utility.yul\":4217:4326   */\n      pop\n      pop\n      jump\t// out\n        /* \"#utility.yul\":4332:4542   */\n    tag_31:\n        /* \"#utility.yul\":4419:4423   */\n      0x00\n        /* \"#utility.yul\":4457:4459   */\n      0x20\n        /* \"#utility.yul\":4446:4455   */\n      dup3\n        /* \"#utility.yul\":4442:4460   */\n      add\n        /* \"#utility.yul\":4434:4460   */\n      swap1\n      pop\n        /* \"#utility.yul\":4470:4535   */\n      tag_235\n        /* \"#utility.yul\":4532:4533   */\n      0x00\n        /* \"#utility.yul\":4521:4530   */\n      dup4\n        /* \"#utility.yul\":4517:4534   */\n      add\n        /* \"#utility.yul\":4508:4514   */\n      dup5\n        /* \"#utility.yul\":4470:4535   */\n      tag_147\n      jump\t// in\n    tag_235:\n        /* \"#utility.yul\":4332:4542   */\n      swap3\n      swap2\n      pop\n      pop\n      jump\t// out\n        /* \"#utility.yul\":4548:5022   */\n    tag_34:\n        /* \"#utility.yul\":4616:4622   */\n      0x00\n        /* \"#utility.yul\":4624:4630   */\n      0x00\n        /* \"#utility.yul\":4673:4675   */\n      0x40\n        /* \"#utility.yul\":4661:4670   */\n      dup4\n        /* \"#utility.yul\":4652:4659   */\n      dup6\n        /* \"#utility.yul\":4648:4671   */\n      sub\n        /* \"#utility.yul\":4644:4676   */\n      slt\n        /* \"#utility.yul\":4641:4760   */\n      iszero\n      tag_237\n      jumpi\n        /* \"#utility.yul\":4679:4758   */\n      tag_238\n      tag_128\n      jump\t// in\n    tag_238:\n        /* \"#utility.yul\":4641:4760   */\n    tag_237:\n        /* \"#utility.yul\":4799:4800   */\n      0x00\n        /* \"#utility.yul\":4824:4877   */\n      tag_239\n        /* \"#utility.yul\":4869:4876   */\n      dup6\n        /* \"#utility.yul\":4860:4866   */\n      dup3\n        /* \"#utility.yul\":4849:4858   */\n      dup7\n        /* \"#utility.yul\":4845:4867   */\n      add\n        /* \"#utility.yul\":4824:4877   */\n      tag_132\n      jump\t// in\n    tag_239:\n        /* \"#utility.yul\":4814:4877   */\n      swap3\n      pop\n        /* \"#utility.yul\":4770:4887   */\n      pop\n        /* \"#utility.yul\":4926:4928   */\n      0x20\n        /* \"#utility.yul\":4952:5005   */\n      tag_240\n        /* \"#utility.yul\":4997:5004   */\n      dup6\n        /* \"#utility.yul\":4988:4994   */\n      dup3\n        /* \"#utility.yul\":4977:4986   */\n      dup7\n        /* \"#utility.yul\":4973:4995   */\n      add\n        /* \"#utility.yul\":4952:5005   */\n      tag_132\n      jump\t// in\n    tag_240:\n        /* \"#utility.yul\":4942:5005   */\n      swap2\n      pop\n        /* \"#utility.yul\":4897:5015   */\n      pop\n        /* \"#utility.yul\":4548:5022   */\n      swap3\n      pop\n      swap3\n      swap1\n      pop\n      jump\t// out\n        /* \"#utility.yul\":5028:5145   */\n    tag_148:\n        /* \"#utility.yul\":5137:5138   */\n      0x00\n        /* \"#utility.yul\":5134:5135   */\n      0x00\n        /* \"#utility.yul\":5127:5139   */\n      revert\n        /* \"#utility.yul\":5151:5268   */\n    tag_149:\n        /* \"#utility.yul\":5260:5261   */\n      0x00\n        /* \"#utility.yul\":5257:5258   */\n      0x00\n        /* \"#utility.yul\":5250:5262   */\n      revert\n        /* \"#utility.yul\":5274:5454   */\n    tag_150:\n        /* \"#utility.yul\":5322:5399   */\n      0x4e487b7100000000000000000000000000000000000000000000000000000000\n        /* \"#utility.yul\":5319:5320   */\n      0x00\n        /* \"#utility.yul\":5312:5400   */\n      mstore\n        /* \"#utility.yul\":5419:5423   */\n      0x41\n        /* \"#utility.yul\":5416:5417   */\n      0x04\n        /* \"#utility.yul\":5409:5424   */\n      mstore\n        /* \"#utility.yul\":5443:5447   */\n      0x24\n        /* \"#utility.yul\":5440:5441   */\n      0x00\n        /* \"#utility.yul\":5433:5448   */\n      revert\n        /* \"#utility.yul\":5460:5741   */\n    tag_151:\n        /* \"#utility.yul\":5543:5570   */\n      tag_245\n        /* \"#utility.yul\":5565:5569   */\n      dup3\n        /* \"#utility.yul\":5543:5570   */\n      tag_136\n      jump\t// in\n    tag_245:\n        /* \"#utility.yul\":5535:5541   */\n      dup2\n        /* \"#utility.yul\":5531:5571   */\n      add\n        /* \"#utility.yul\":5673:5679   */\n      dup2\n        /* \"#utility.yul\":5661:5671   */\n      dup2\n        /* \"#utility.yul\":5658:5680   */\n      lt\n        /* \"#utility.yul\":5637:5655   */\n      0xffffffffffffffff\n        /* \"#utility.yul\":5625:5635   */\n      dup3\n        /* \"#utility.yul\":5622:5656   */\n      gt\n        /* \"#utility.yul\":5619:5681   */\n      or\n        /* \"#utility.yul\":5616:5704   */\n      iszero\n      tag_246\n      jumpi\n        /* \"#utility.yul\":5684:5702   */\n      tag_247\n      tag_150\n      jump\t// in\n    tag_247:\n        /* \"#utility.yul\":5616:5704   */\n    tag_246:\n        /* \"#utility.yul\":5724:5734   */\n      dup1\n        /* \"#utility.yul\":5720:5722   */\n      0x40\n        /* \"#utility.yul\":5713:5735   */\n      mstore\n        /* \"#utility.yul\":5503:5741   */\n      pop\n        /* \"#utility.yul\":5460:5741   */\n      pop\n      pop\n      jump\t// out\n        /* \"#utility.yul\":5747:5876   */\n    tag_152:\n        /* \"#utility.yul\":5781:5787   */\n      0x00\n        /* \"#utility.yul\":5808:5828   */\n      tag_249\n      tag_127\n      jump\t// in\n    tag_249:\n        /* \"#utility.yul\":5798:5828   */\n      swap1\n      pop\n        /* \"#utility.yul\":5837:5870   */\n      tag_250\n        /* \"#utility.yul\":5865:5869   */\n      dup3\n        /* \"#utility.yul\":5857:5863   */\n      dup3\n        /* \"#utility.yul\":5837:5870   */\n      tag_151\n      jump\t// in\n    tag_250:\n        /* \"#utility.yul\":5747:5876   */\n      swap2\n      swap1\n      pop\n      jump\t// out\n        /* \"#utility.yul\":5882:6190   */\n    tag_153:\n        /* \"#utility.yul\":5944:5948   */\n      0x00\n        /* \"#utility.yul\":6034:6052   */\n      0xffffffffffffffff\n        /* \"#utility.yul\":6026:6032   */\n      dup3\n        /* \"#utility.yul\":6023:6053   */\n      gt\n        /* \"#utility.yul\":6020:6076   */\n      iszero\n      tag_252\n      jumpi\n        /* \"#utility.yul\":6056:6074   */\n      tag_253\n      tag_150\n      jump\t// in\n    tag_253:\n        /* \"#utility.yul\":6020:6076   */\n    tag_252:\n        /* \"#utility.yul\":6094:6123   */\n      tag_254\n        /* \"#utility.yul\":6116:6122   */\n      dup3\n        /* \"#utility.yul\":6094:6123   */\n      tag_136\n      jump\t// in\n    tag_254:\n        /* \"#utility.yul\":6086:6123   */\n      swap1\n      pop\n        /* \"#utility.yul\":6178:6182   */\n      0x20\n        /* \"#utility.yul\":6172:6176   */\n      dup2\n        /* \"#utility.yul\":6168:6183   */\n      add\n        /* \"#utility.yul\":6160:6183   */\n      swap1\n      pop\n        /* \"#utility.yul\":5882:6190   */\n      swap2\n      swap1\n      pop\n      jump\t// out\n        /* \"#utility.yul\":6196:6344   */\n    tag_154:\n        /* \"#utility.yul\":6294:6300   */\n      dup3\n        /* \"#utility.yul\":6289:6292   */\n      dup2\n        /* \"#utility.yul\":6284:6287   */\n      dup4\n        /* \"#utility.yul\":6271:6301   */\n      calldatacopy\n        /* \"#utility.yul\":6335:6336   */\n      0x00\n        /* \"#utility.yul\":6326:6332   */\n      dup4\n        /* \"#utility.yul\":6321:6324   */\n      dup4\n        /* \"#utility.yul\":6317:6333   */\n      add\n        /* \"#utility.yul\":6310:6337   */\n      mstore\n        /* \"#utility.yul\":6196:6344   */\n      pop\n      pop\n      pop\n      jump\t// out\n        /* \"#utility.yul\":6350:6775   */\n    tag_155:\n        /* \"#utility.yul\":6428:6433   */\n      0x00\n        /* \"#utility.yul\":6453:6519   */\n      tag_257\n        /* \"#utility.yul\":6469:6518   */\n      tag_258\n        /* \"#utility.yul\":6511:6517   */\n      dup5\n        /* \"#utility.yul\":6469:6518   */\n      tag_153\n      jump\t// in\n    tag_258:\n        /* \"#utility.yul\":6453:6519   */\n      tag_152\n      jump\t// in\n    tag_257:\n        /* \"#utility.yul\":6444:6519   */\n      swap1\n      pop\n        /* \"#utility.yul\":6542:6548   */\n      dup3\n        /* \"#utility.yul\":6535:6540   */\n      dup2\n        /* \"#utility.yul\":6528:6549   */\n      mstore\n        /* \"#utility.yul\":6580:6584   */\n      0x20\n        /* \"#utility.yul\":6573:6578   */\n      dup2\n        /* \"#utility.yul\":6569:6585   */\n      add\n        /* \"#utility.yul\":6618:6621   */\n      dup5\n        /* \"#utility.yul\":6609:6615   */\n      dup5\n        /* \"#utility.yul\":6604:6607   */\n      dup5\n        /* \"#utility.yul\":6600:6616   */\n      add\n        /* \"#utility.yul\":6597:6622   */\n      gt\n        /* \"#utility.yul\":6594:6706   */\n      iszero\n      tag_259\n      jumpi\n        /* \"#utility.yul\":6625:6704   */\n      tag_260\n      tag_149\n      jump\t// in\n    tag_260:\n        /* \"#utility.yul\":6594:6706   */\n    tag_259:\n        /* \"#utility.yul\":6715:6769   */\n      tag_261\n        /* \"#utility.yul\":6762:6768   */\n      dup5\n        /* \"#utility.yul\":6757:6760   */\n      dup3\n        /* \"#utility.yul\":6752:6755   */\n      dup6\n        /* \"#utility.yul\":6715:6769   */\n      tag_154\n      jump\t// in\n    tag_261:\n        /* \"#utility.yul\":6434:6775   */\n      pop\n        /* \"#utility.yul\":6350:6775   */\n      swap4\n      swap3\n      pop\n      pop\n      pop\n      jump\t// out\n        /* \"#utility.yul\":6795:7135   */\n    tag_156:\n        /* \"#utility.yul\":6851:6856   */\n      0x00\n        /* \"#utility.yul\":6900:6903   */\n      dup3\n        /* \"#utility.yul\":6893:6897   */\n      0x1f\n        /* \"#utility.yul\":6885:6891   */\n      dup4\n        /* \"#utility.yul\":6881:6898   */\n      add\n        /* \"#utility.yul\":6877:6904   */\n      slt\n        /* \"#utility.yul\":6867:6989   */\n      tag_263\n      jumpi\n        /* \"#utility.yul\":6908:6987   */\n      tag_264\n      tag_148\n      jump\t// in\n    tag_264:\n        /* \"#utility.yul\":6867:6989   */\n    tag_263:\n        /* \"#utility.yul\":7025:7031   */\n      dup2\n        /* \"#utility.yul\":7012:7032   */\n      calldataload\n        /* \"#utility.yul\":7050:7129   */\n      tag_265\n        /* \"#utility.yul\":7125:7128   */\n      dup5\n        /* \"#utility.yul\":7117:7123   */\n      dup3\n        /* \"#utility.yul\":7110:7114   */\n      0x20\n        /* \"#utility.yul\":7102:7108   */\n      dup7\n        /* \"#utility.yul\":7098:7115   */\n      add\n        /* \"#utility.yul\":7050:7129   */\n      tag_155\n      jump\t// in\n    tag_265:\n        /* \"#utility.yul\":7041:7129   */\n      swap2\n      pop\n        /* \"#utility.yul\":6857:7135   */\n      pop\n        /* \"#utility.yul\":6795:7135   */\n      swap3\n      swap2\n      pop\n      pop\n      jump\t// out\n        /* \"#utility.yul\":7141:7650   */\n    tag_38:\n        /* \"#utility.yul\":7210:7216   */\n      0x00\n        /* \"#utility.yul\":7259:7261   */\n      0x20\n        /* \"#utility.yul\":7247:7256   */\n      dup3\n        /* \"#utility.yul\":7238:7245   */\n      dup5\n        /* \"#utility.yul\":7234:7257   */\n      sub\n        /* \"#utility.yul\":7230:7262   */\n      slt\n        /* \"#utility.yul\":7227:7346   */\n      iszero\n      tag_267\n      jumpi\n        /* \"#utility.yul\":7265:7344   */\n      tag_268\n      tag_128\n      jump\t// in\n    tag_268:\n        /* \"#utility.yul\":7227:7346   */\n    tag_267:\n        /* \"#utility.yul\":7413:7414   */\n      0x00\n        /* \"#utility.yul\":7402:7411   */\n      dup3\n        /* \"#utility.yul\":7398:7415   */\n      add\n        /* \"#utility.yul\":7385:7416   */\n      calldataload\n        /* \"#utility.yul\":7443:7461   */\n      0xffffffffffffffff\n        /* \"#utility.yul\":7435:7441   */\n      dup2\n        /* \"#utility.yul\":7432:7462   */\n      gt\n        /* \"#utility.yul\":7429:7546   */\n      iszero\n      tag_269\n      jumpi\n        /* \"#utility.yul\":7465:7544   */\n      tag_270\n      tag_129\n      jump\t// in\n    tag_270:\n        /* \"#utility.yul\":7429:7546   */\n    tag_269:\n        /* \"#utility.yul\":7570:7633   */\n      tag_271\n        /* \"#utility.yul\":7625:7632   */\n      dup5\n        /* \"#utility.yul\":7616:7622   */\n      dup3\n        /* \"#utility.yul\":7605:7614   */\n      dup6\n        /* \"#utility.yul\":7601:7623   */\n      add\n        /* \"#utility.yul\":7570:7633   */\n      tag_156\n      jump\t// in\n    tag_271:\n        /* \"#utility.yul\":7560:7633   */\n      swap2\n      pop\n        /* \"#utility.yul\":7356:7643   */\n      pop\n        /* \"#utility.yul\":7141:7650   */\n      swap3\n      swap2\n      pop\n      pop\n      jump\t// out\n        /* \"#utility.yul\":7656:7836   */\n    tag_157:\n        /* \"#utility.yul\":7704:7781   */\n      0x4e487b7100000000000000000000000000000000000000000000000000000000\n        /* \"#utility.yul\":7701:7702   */\n      0x00\n        /* \"#utility.yul\":7694:7782   */\n      mstore\n        /* \"#utility.yul\":7801:7805   */\n      0x22\n        /* \"#utility.yul\":7798:7799   */\n      0x04\n        /* \"#utility.yul\":7791:7806   */\n      mstore\n        /* \"#utility.yul\":7825:7829   */\n      0x24\n        /* \"#utility.yul\":7822:7823   */\n      0x00\n        /* \"#utility.yul\":7815:7830   */\n      revert\n        /* \"#utility.yul\":7842:8162   */\n    tag_46:\n        /* \"#utility.yul\":7886:7892   */\n      0x00\n        /* \"#utility.yul\":7923:7924   */\n      0x02\n        /* \"#utility.yul\":7917:7921   */\n      dup3\n        /* \"#utility.yul\":7913:7925   */\n      div\n        /* \"#utility.yul\":7903:7925   */\n      swap1\n      pop\n        /* \"#utility.yul\":7970:7971   */\n      0x01\n        /* \"#utility.yul\":7964:7968   */\n      dup3\n        /* \"#utility.yul\":7960:7972   */\n      and\n        /* \"#utility.yul\":7991:8009   */\n      dup1\n        /* \"#utility.yul\":7981:8062   */\n      tag_274\n      jumpi\n        /* \"#utility.yul\":8047:8051   */\n      0x7f\n        /* \"#utility.yul\":8039:8045   */\n      dup3\n        /* \"#utility.yul\":8035:8052   */\n      and\n        /* \"#utility.yul\":8025:8052   */\n      swap2\n      pop\n        /* \"#utility.yul\":7981:8062   */\n    tag_274:\n        /* \"#utility.yul\":8109:8111   */\n      0x20\n        /* \"#utility.yul\":8101:8107   */\n      dup3\n        /* \"#utility.yul\":8098:8112   */\n      lt\n        /* \"#utility.yul\":8078:8096   */\n      dup2\n        /* \"#utility.yul\":8075:8113   */\n      sub\n        /* \"#utility.yul\":8072:8156   */\n      tag_275\n      jumpi\n        /* \"#utility.yul\":8128:8146   */\n      tag_276\n      tag_157\n      jump\t// in\n    tag_276:\n        /* \"#utility.yul\":8072:8156   */\n    tag_275:\n        /* \"#utility.yul\":7893:8162   */\n      pop\n        /* \"#utility.yul\":7842:8162   */\n      swap2\n      swap1\n      pop\n      jump\t// out\n        /* \"#utility.yul\":8168:8390   */\n    tag_63:\n        /* \"#utility.yul\":8261:8265   */\n      0x00\n        /* \"#utility.yul\":8299:8301   */\n      0x20\n        /* \"#utility.yul\":8288:8297   */\n      dup3\n        /* \"#utility.yul\":8284:8302   */\n      add\n        /* \"#utility.yul\":8276:8302   */\n      swap1\n      pop\n        /* \"#utility.yul\":8312:8383   */\n      tag_278\n        /* \"#utility.yul\":8380:8381   */\n      0x00\n        /* \"#utility.yul\":8369:8378   */\n      dup4\n        /* \"#utility.yul\":8365:8382   */\n      add\n        /* \"#utility.yul\":8356:8362   */\n      dup5\n        /* \"#utility.yul\":8312:8383   */\n      tag_138\n      jump\t// in\n    tag_278:\n        /* \"#utility.yul\":8168:8390   */\n      swap3\n      swap2\n      pop\n      pop\n      jump\t// out\n        /* \"#utility.yul\":8396:8512   */\n    tag_158:\n        /* \"#utility.yul\":8466:8487   */\n      tag_280\n        /* \"#utility.yul\":8481:8486   */\n      dup2\n        /* \"#utility.yul\":8466:8487   */\n      tag_146\n      jump\t// in\n    tag_280:\n        /* \"#utility.yul\":8459:8464   */\n      dup2\n        /* \"#utility.yul\":8456:8488   */\n      eq\n        /* \"#utility.yul\":8446:8506   */\n      tag_281\n      jumpi\n        /* \"#utility.yul\":8502:8503   */\n      0x00\n        /* \"#utility.yul\":8499:8500   */\n      0x00\n        /* \"#utility.yul\":8492:8504   */\n      revert\n        /* \"#utility.yul\":8446:8506   */\n    tag_281:\n        /* \"#utility.yul\":8396:8512   */\n      pop\n      jump\t// out\n        /* \"#utility.yul\":8518:8655   */\n    tag_159:\n        /* \"#utility.yul\":8572:8577   */\n      0x00\n        /* \"#utility.yul\":8603:8609   */\n      dup2\n        /* \"#utility.yul\":8597:8610   */\n      mload\n        /* \"#utility.yul\":8588:8610   */\n      swap1\n      pop\n        /* \"#utility.yul\":8619:8649   */\n      tag_283\n        /* \"#utility.yul\":8643:8648   */\n      dup2\n        /* \"#utility.yul\":8619:8649   */\n      tag_158\n      jump\t// in\n    tag_283:\n        /* \"#utility.yul\":8518:8655   */\n      swap3\n      swap2\n      pop\n      pop\n      jump\t// out\n        /* \"#utility.yul\":8661:8804   */\n    tag_160:\n        /* \"#utility.yul\":8718:8723   */\n      0x00\n        /* \"#utility.yul\":8749:8755   */\n      dup2\n        /* \"#utility.yul\":8743:8756   */\n      mload\n        /* \"#utility.yul\":8734:8756   */\n      swap1\n      pop\n        /* \"#utility.yul\":8765:8798   */\n      tag_285\n        /* \"#utility.yul\":8792:8797   */\n      dup2\n        /* \"#utility.yul\":8765:8798   */\n      tag_131\n      jump\t// in\n    tag_285:\n        /* \"#utility.yul\":8661:8804   */\n      swap3\n      swap2\n      pop\n      pop\n      jump\t// out\n        /* \"#utility.yul\":8810:10560   */\n    tag_67:\n        /* \"#utility.yul\":8955:8961   */\n      0x00\n        /* \"#utility.yul\":8963:8969   */\n      0x00\n        /* \"#utility.yul\":8971:8977   */\n      0x00\n        /* \"#utility.yul\":8979:8985   */\n      0x00\n        /* \"#utility.yul\":8987:8993   */\n      0x00\n        /* \"#utility.yul\":8995:9001   */\n      0x00\n        /* \"#utility.yul\":9003:9009   */\n      0x00\n        /* \"#utility.yul\":9011:9017   */\n      0x00\n        /* \"#utility.yul\":9019:9025   */\n      0x00\n        /* \"#utility.yul\":9027:9033   */\n      0x00\n        /* \"#utility.yul\":9076:9079   */\n      0x0140\n        /* \"#utility.yul\":9064:9073   */\n      dup12\n        /* \"#utility.yul\":9055:9062   */\n      dup14\n        /* \"#utility.yul\":9051:9074   */\n      sub\n        /* \"#utility.yul\":9047:9080   */\n      slt\n        /* \"#utility.yul\":9044:9164   */\n      iszero\n      tag_287\n      jumpi\n        /* \"#utility.yul\":9083:9162   */\n      tag_288\n      tag_128\n      jump\t// in\n    tag_288:\n        /* \"#utility.yul\":9044:9164   */\n    tag_287:\n        /* \"#utility.yul\":9203:9204   */\n      0x00\n        /* \"#utility.yul\":9228:9289   */\n      tag_289\n        /* \"#utility.yul\":9281:9288   */\n      dup14\n        /* \"#utility.yul\":9272:9278   */\n      dup3\n        /* \"#utility.yul\":9261:9270   */\n      dup15\n        /* \"#utility.yul\":9257:9279   */\n      add\n        /* \"#utility.yul\":9228:9289   */\n      tag_159\n      jump\t// in\n    tag_289:\n        /* \"#utility.yul\":9218:9289   */\n      swap11\n      pop\n        /* \"#utility.yul\":9174:9299   */\n      pop\n        /* \"#utility.yul\":9338:9340   */\n      0x20\n        /* \"#utility.yul\":9364:9425   */\n      tag_290\n        /* \"#utility.yul\":9417:9424   */\n      dup14\n        /* \"#utility.yul\":9408:9414   */\n      dup3\n        /* \"#utility.yul\":9397:9406   */\n      dup15\n        /* \"#utility.yul\":9393:9415   */\n      add\n        /* \"#utility.yul\":9364:9425   */\n      tag_159\n      jump\t// in\n    tag_290:\n        /* \"#utility.yul\":9354:9425   */\n      swap10\n      pop\n        /* \"#utility.yul\":9309:9435   */\n      pop\n        /* \"#utility.yul\":9474:9476   */\n      0x40\n        /* \"#utility.yul\":9500:9564   */\n      tag_291\n        /* \"#utility.yul\":9556:9563   */\n      dup14\n        /* \"#utility.yul\":9547:9553   */\n      dup3\n        /* \"#utility.yul\":9536:9545   */\n      dup15\n        /* \"#utility.yul\":9532:9554   */\n      add\n        /* \"#utility.yul\":9500:9564   */\n      tag_160\n      jump\t// in\n    tag_291:\n        /* \"#utility.yul\":9490:9564   */\n      swap9\n      pop\n        /* \"#utility.yul\":9445:9574   */\n      pop\n        /* \"#utility.yul\":9613:9615   */\n      0x60\n        /* \"#utility.yul\":9639:9703   */\n      tag_292\n        /* \"#utility.yul\":9695:9702   */\n      dup14\n        /* \"#utility.yul\":9686:9692   */\n      dup3\n        /* \"#utility.yul\":9675:9684   */\n      dup15\n        /* \"#utility.yul\":9671:9693   */\n      add\n        /* \"#utility.yul\":9639:9703   */\n      tag_160\n      jump\t// in\n    tag_292:\n        /* \"#utility.yul\":9629:9703   */\n      swap8\n      pop\n        /* \"#utility.yul\":9584:9713   */\n      pop\n        /* \"#utility.yul\":9752:9755   */\n      0x80\n        /* \"#utility.yul\":9779:9843   */\n      tag_293\n        /* \"#utility.yul\":9835:9842   */\n      dup14\n        /* \"#utility.yul\":9826:9832   */\n      dup3\n        /* \"#utility.yul\":9815:9824   */\n      dup15\n        /* \"#utility.yul\":9811:9833   */\n      add\n        /* \"#utility.yul\":9779:9843   */\n      tag_160\n      jump\t// in\n    tag_293:\n        /* \"#utility.yul\":9769:9843   */\n      swap7\n      pop\n        /* \"#utility.yul\":9723:9853   */\n      pop\n        /* \"#utility.yul\":9892:9895   */\n      0xa0\n        /* \"#utility.yul\":9919:9983   */\n      tag_294\n        /* \"#utility.yul\":9975:9982   */\n      dup14\n        /* \"#utility.yul\":9966:9972   */\n      dup3\n        /* \"#utility.yul\":9955:9964   */\n      dup15\n        /* \"#utility.yul\":9951:9973   */\n      add\n        /* \"#utility.yul\":9919:9983   */\n      tag_160\n      jump\t// in\n    tag_294:\n        /* \"#utility.yul\":9909:9983   */\n      swap6\n      pop\n        /* \"#utility.yul\":9863:9993   */\n      pop\n        /* \"#utility.yul\":10032:10035   */\n      0xc0\n        /* \"#utility.yul\":10059:10123   */\n      tag_295\n        /* \"#utility.yul\":10115:10122   */\n      dup14\n        /* \"#utility.yul\":10106:10112   */\n      dup3\n        /* \"#utility.yul\":10095:10104   */\n      dup15\n        /* \"#utility.yul\":10091:10113   */\n      add\n        /* \"#utility.yul\":10059:10123   */\n      tag_160\n      jump\t// in\n    tag_295:\n        /* \"#utility.yul\":10049:10123   */\n      swap5\n      pop\n        /* \"#utility.yul\":10003:10133   */\n      pop\n        /* \"#utility.yul\":10172:10175   */\n      0xe0\n        /* \"#utility.yul\":10199:10263   */\n      tag_296\n        /* \"#utility.yul\":10255:10262   */\n      dup14\n        /* \"#utility.yul\":10246:10252   */\n      dup3\n        /* \"#utility.yul\":10235:10244   */\n      dup15\n        /* \"#utility.yul\":10231:10253   */\n      add\n        /* \"#utility.yul\":10199:10263   */\n      tag_160\n      jump\t// in\n    tag_296:\n        /* \"#utility.yul\":10189:10263   */\n      swap4\n      pop\n        /* \"#utility.yul\":10143:10273   */\n      pop\n        /* \"#utility.yul\":10312:10315   */\n      0x0100\n        /* \"#utility.yul\":10339:10403   */\n      tag_297\n        /* \"#utility.yul\":10395:10402   */\n      dup14\n        /* \"#utility.yul\":10386:10392   */\n      dup3\n        /* \"#utility.yul\":10375:10384   */\n      dup15\n        /* \"#utility.yul\":10371:10393   */\n      add\n        /* \"#utility.yul\":10339:10403   */\n      tag_160\n      jump\t// in\n    tag_297:\n        /* \"#utility.yul\":10329:10403   */\n      swap3\n      pop\n        /* \"#utility.yul\":10283:10413   */\n      pop\n        /* \"#utility.yul\":10452:10455   */\n      0x0120\n        /* \"#utility.yul\":10479:10543   */\n      tag_298\n        /* \"#utility.yul\":10535:10542   */\n      dup14\n        /* \"#utility.yul\":10526:10532   */\n      dup3\n        /* \"#utility.yul\":10515:10524   */\n      dup15\n        /* \"#utility.yul\":10511:10533   */\n      add\n        /* \"#utility.yul\":10479:10543   */\n      tag_160\n      jump\t// in\n    tag_298:\n        /* \"#utility.yul\":10469:10543   */\n      swap2\n      pop\n        /* \"#utility.yul\":10423:10553   */\n      pop\n        /* \"#utility.yul\":8810:10560   */\n      swap3\n      swap6\n      swap9\n      swap12\n      swap2\n      swap5\n      swap8\n      swap11\n      pop\n      swap3\n      swap6\n      swap9\n      pop\n      jump\t// out\n        /* \"#utility.yul\":10566:10746   */\n    tag_86:\n        /* \"#utility.yul\":10614:10691   */\n      0x4e487b7100000000000000000000000000000000000000000000000000000000\n        /* \"#utility.yul\":10611:10612   */\n      0x00\n        /* \"#utility.yul\":10604:10692   */\n      mstore\n        /* \"#utility.yul\":10711:10715   */\n      0x32\n        /* \"#utility.yul\":10708:10709   */\n      0x04\n        /* \"#utility.yul\":10701:10716   */\n      mstore\n        /* \"#utility.yul\":10735:10739   */\n      0x24\n        /* \"#utility.yul\":10732:10733   */\n      0x00\n        /* \"#utility.yul\":10725:10740   */\n      revert\n        /* \"#utility.yul\":10752:10932   */\n    tag_161:\n        /* \"#utility.yul\":10800:10877   */\n      0x4e487b7100000000000000000000000000000000000000000000000000000000\n        /* \"#utility.yul\":10797:10798   */\n      0x00\n        /* \"#utility.yul\":10790:10878   */\n      mstore\n        /* \"#utility.yul\":10897:10901   */\n      0x12\n        /* \"#utility.yul\":10894:10895   */\n      0x04\n        /* \"#utility.yul\":10887:10902   */\n      mstore\n        /* \"#utility.yul\":10921:10925   */\n      0x24\n        /* \"#utility.yul\":10918:10919   */\n      0x00\n        /* \"#utility.yul\":10911:10926   */\n      revert\n        /* \"#utility.yul\":10938:11114   */\n    tag_89:\n        /* \"#utility.yul\":10970:10971   */\n      0x00\n        /* \"#utility.yul\":10987:11007   */\n      tag_302\n        /* \"#utility.yul\":11005:11006   */\n      dup3\n        /* \"#utility.yul\":10987:11007   */\n      tag_130\n      jump\t// in\n    tag_302:\n        /* \"#utility.yul\":10982:11007   */\n      swap2\n      pop\n        /* \"#utility.yul\":11021:11041   */\n      tag_303\n        /* \"#utility.yul\":11039:11040   */\n      dup4\n        /* \"#utility.yul\":11021:11041   */\n      tag_130\n      jump\t// in\n    tag_303:\n        /* \"#utility.yul\":11016:11041   */\n      swap3\n      pop\n        /* \"#utility.yul\":11060:11061   */\n      dup3\n        /* \"#utility.yul\":11050:11085   */\n      tag_304\n      jumpi\n        /* \"#utility.yul\":11065:11083   */\n      tag_305\n      tag_161\n      jump\t// in\n    tag_305:\n        /* \"#utility.yul\":11050:11085   */\n    tag_304:\n        /* \"#utility.yul\":11106:11107   */\n      dup3\n        /* \"#utility.yul\":11103:11104   */\n      dup3\n        /* \"#utility.yul\":11099:11108   */\n      mod\n        /* \"#utility.yul\":11094:11108   */\n      swap1\n      pop\n        /* \"#utility.yul\":10938:11114   */\n      swap3\n      swap2\n      pop\n      pop\n      jump\t// out\n        /* \"#utility.yul\":11120:11300   */\n    tag_162:\n        /* \"#utility.yul\":11168:11245   */\n      0x4e487b7100000000000000000000000000000000000000000000000000000000\n        /* \"#utility.yul\":11165:11166   */\n      0x00\n        /* \"#utility.yul\":11158:11246   */\n      mstore\n        /* \"#utility.yul\":11265:11269   */\n      0x11\n        /* \"#utility.yul\":11262:11263   */\n      0x04\n        /* \"#utility.yul\":11255:11270   */\n      mstore\n        /* \"#utility.yul\":11289:11293   */\n      0x24\n        /* \"#utility.yul\":11286:11287   */\n      0x00\n        /* \"#utility.yul\":11279:11294   */\n      revert\n        /* \"#utility.yul\":11306:11497   */\n    tag_94:\n        /* \"#utility.yul\":11346:11349   */\n      0x00\n        /* \"#utility.yul\":11365:11385   */\n      tag_308\n        /* \"#utility.yul\":11383:11384   */\n      dup3\n        /* \"#utility.yul\":11365:11385   */\n      tag_130\n      jump\t// in\n    tag_308:\n        /* \"#utility.yul\":11360:11385   */\n      swap2\n      pop\n        /* \"#utility.yul\":11399:11419   */\n      tag_309\n        /* \"#utility.yul\":11417:11418   */\n      dup4\n        /* \"#utility.yul\":11399:11419   */\n      tag_130\n      jump\t// in\n    tag_309:\n        /* \"#utility.yul\":11394:11419   */\n      swap3\n      pop\n        /* \"#utility.yul\":11442:11443   */\n      dup3\n        /* \"#utility.yul\":11439:11440   */\n      dup3\n        /* \"#utility.yul\":11435:11444   */\n      add\n        /* \"#utility.yul\":11428:11444   */\n      swap1\n      pop\n        /* \"#utility.yul\":11463:11466   */\n      dup1\n        /* \"#utility.yul\":11460:11461   */\n      dup3\n        /* \"#utility.yul\":11457:11467   */\n      gt\n        /* \"#utility.yul\":11454:11490   */\n      iszero\n      tag_310\n      jumpi\n        /* \"#utility.yul\":11470:11488   */\n      tag_311\n      tag_162\n      jump\t// in\n    tag_311:\n        /* \"#utility.yul\":11454:11490   */\n    tag_310:\n        /* \"#utility.yul\":11306:11497   */\n      swap3\n      swap2\n      pop\n      pop\n      jump\t// out\n        /* \"#utility.yul\":11503:11688   */\n    tag_96:\n        /* \"#utility.yul\":11543:11544   */\n      0x00\n        /* \"#utility.yul\":11560:11580   */\n      tag_313\n        /* \"#utility.yul\":11578:11579   */\n      dup3\n        /* \"#utility.yul\":11560:11580   */\n      tag_130\n      jump\t// in\n    tag_313:\n        /* \"#utility.yul\":11555:11580   */\n      swap2\n      pop\n        /* \"#utility.yul\":11594:11614   */\n      tag_314\n        /* \"#utility.yul\":11612:11613   */\n      dup4\n        /* \"#utility.yul\":11594:11614   */\n      tag_130\n      jump\t// in\n    tag_314:\n        /* \"#utility.yul\":11589:11614   */\n      swap3\n      pop\n        /* \"#utility.yul\":11633:11634   */\n      dup3\n        /* \"#utility.yul\":11623:11658   */\n      tag_315\n      jumpi\n        /* \"#utility.yul\":11638:11656   */\n      tag_316\n      tag_161\n      jump\t// in\n    tag_316:\n        /* \"#utility.yul\":11623:11658   */\n    tag_315:\n        /* \"#utility.yul\":11680:11681   */\n      dup3\n        /* \"#utility.yul\":11677:11678   */\n      dup3\n        /* \"#utility.yul\":11673:11682   */\n      div\n        /* \"#utility.yul\":11668:11682   */\n      swap1\n      pop\n        /* \"#utility.yul\":11503:11688   */\n      swap3\n      swap2\n      pop\n      pop\n      jump\t// out\n        /* \"#utility.yul\":11694:11842   */\n    tag_163:\n        /* \"#utility.yul\":11796:11807   */\n      0x00\n        /* \"#utility.yul\":11833:11836   */\n      dup2\n        /* \"#utility.yul\":11818:11836   */\n      swap1\n      pop\n        /* \"#utility.yul\":11694:11842   */\n      swap3\n      swap2\n      pop\n      pop\n      jump\t// out\n        /* \"#utility.yul\":11848:12003   */\n    tag_164:\n        /* \"#utility.yul\":11988:11995   */\n      0x6b69747479000000000000000000000000000000000000000000000000000000\n        /* \"#utility.yul\":11984:11985   */\n      0x00\n        /* \"#utility.yul\":11976:11982   */\n      dup3\n        /* \"#utility.yul\":11972:11986   */\n      add\n        /* \"#utility.yul\":11965:11996   */\n      mstore\n        /* \"#utility.yul\":11848:12003   */\n      pop\n      jump\t// out\n        /* \"#utility.yul\":12009:12409   */\n    tag_165:\n        /* \"#utility.yul\":12169:12172   */\n      0x00\n        /* \"#utility.yul\":12190:12274   */\n      tag_320\n        /* \"#utility.yul\":12272:12273   */\n      0x05\n        /* \"#utility.yul\":12267:12270   */\n      dup4\n        /* \"#utility.yul\":12190:12274   */\n      tag_163\n      jump\t// in\n    tag_320:\n        /* \"#utility.yul\":12183:12274   */\n      swap2\n      pop\n        /* \"#utility.yul\":12283:12376   */\n      tag_321\n        /* \"#utility.yul\":12372:12375   */\n      dup3\n        /* \"#utility.yul\":12283:12376   */\n      tag_164\n      jump\t// in\n    tag_321:\n        /* \"#utility.yul\":12401:12402   */\n      0x05\n        /* \"#utility.yul\":12396:12399   */\n      dup3\n        /* \"#utility.yul\":12392:12403   */\n      add\n        /* \"#utility.yul\":12385:12403   */\n      swap1\n      pop\n        /* \"#utility.yul\":12009:12409   */\n      swap2\n      swap1\n      pop\n      jump\t// out\n        /* \"#utility.yul\":12415:12796   */\n    tag_98:\n        /* \"#utility.yul\":12600:12603   */\n      0x00\n        /* \"#utility.yul\":12622:12770   */\n      tag_323\n        /* \"#utility.yul\":12766:12769   */\n      dup3\n        /* \"#utility.yul\":12622:12770   */\n      tag_165\n      jump\t// in\n    tag_323:\n        /* \"#utility.yul\":12615:12770   */\n      swap2\n      pop\n        /* \"#utility.yul\":12787:12790   */\n      dup2\n        /* \"#utility.yul\":12780:12790   */\n      swap1\n      pop\n        /* \"#utility.yul\":12415:12796   */\n      swap2\n      swap1\n      pop\n      jump\t// out\n        /* \"#utility.yul\":12802:13192   */\n    tag_166:\n        /* \"#utility.yul\":12908:12911   */\n      0x00\n        /* \"#utility.yul\":12936:12975   */\n      tag_325\n        /* \"#utility.yul\":12969:12974   */\n      dup3\n        /* \"#utility.yul\":12936:12975   */\n      tag_133\n      jump\t// in\n    tag_325:\n        /* \"#utility.yul\":12991:13080   */\n      tag_326\n        /* \"#utility.yul\":13073:13079   */\n      dup2\n        /* \"#utility.yul\":13068:13071   */\n      dup6\n        /* \"#utility.yul\":12991:13080   */\n      tag_163\n      jump\t// in\n    tag_326:\n        /* \"#utility.yul\":12984:13080   */\n      swap4\n      pop\n        /* \"#utility.yul\":13089:13154   */\n      tag_327\n        /* \"#utility.yul\":13147:13153   */\n      dup2\n        /* \"#utility.yul\":13142:13145   */\n      dup6\n        /* \"#utility.yul\":13135:13139   */\n      0x20\n        /* \"#utility.yul\":13128:13133   */\n      dup7\n        /* \"#utility.yul\":13124:13140   */\n      add\n        /* \"#utility.yul\":13089:13154   */\n      tag_135\n      jump\t// in\n    tag_327:\n        /* \"#utility.yul\":13179:13185   */\n      dup1\n        /* \"#utility.yul\":13174:13177   */\n      dup5\n        /* \"#utility.yul\":13170:13186   */\n      add\n        /* \"#utility.yul\":13163:13186   */\n      swap2\n      pop\n        /* \"#utility.yul\":12912:13192   */\n      pop\n        /* \"#utility.yul\":12802:13192   */\n      swap3\n      swap2\n      pop\n      pop\n      jump\t// out\n        /* \"#utility.yul\":13198:13473   */\n    tag_100:\n        /* \"#utility.yul\":13330:13333   */\n      0x00\n        /* \"#utility.yul\":13352:13447   */\n      tag_329\n        /* \"#utility.yul\":13443:13446   */\n      dup3\n        /* \"#utility.yul\":13434:13440   */\n      dup5\n        /* \"#utility.yul\":13352:13447   */\n      tag_166\n      jump\t// in\n    tag_329:\n        /* \"#utility.yul\":13345:13447   */\n      swap2\n      pop\n        /* \"#utility.yul\":13464:13467   */\n      dup2\n        /* \"#utility.yul\":13457:13467   */\n      swap1\n      pop\n        /* \"#utility.yul\":13198:13473   */\n      swap3\n      swap2\n      pop\n      pop\n      jump\t// out\n        /* \"#utility.yul\":13479:13673   */\n    tag_104:\n        /* \"#utility.yul\":13519:13523   */\n      0x00\n        /* \"#utility.yul\":13539:13559   */\n      tag_331\n        /* \"#utility.yul\":13557:13558   */\n      dup3\n        /* \"#utility.yul\":13539:13559   */\n      tag_130\n      jump\t// in\n    tag_331:\n        /* \"#utility.yul\":13534:13559   */\n      swap2\n      pop\n        /* \"#utility.yul\":13573:13593   */\n      tag_332\n        /* \"#utility.yul\":13591:13592   */\n      dup4\n        /* \"#utility.yul\":13573:13593   */\n      tag_130\n      jump\t// in\n    tag_332:\n        /* \"#utility.yul\":13568:13593   */\n      swap3\n      pop\n        /* \"#utility.yul\":13617:13618   */\n      dup3\n        /* \"#utility.yul\":13614:13615   */\n      dup3\n        /* \"#utility.yul\":13610:13619   */\n      sub\n        /* \"#utility.yul\":13602:13619   */\n      swap1\n      pop\n        /* \"#utility.yul\":13641:13642   */\n      dup2\n        /* \"#utility.yul\":13635:13639   */\n      dup2\n        /* \"#utility.yul\":13632:13643   */\n      gt\n        /* \"#utility.yul\":13629:13666   */\n      iszero\n      tag_333\n      jumpi\n        /* \"#utility.yul\":13646:13664   */\n      tag_334\n      tag_162\n      jump\t// in\n    tag_334:\n        /* \"#utility.yul\":13629:13666   */\n    tag_333:\n        /* \"#utility.yul\":13479:13673   */\n      swap3\n      swap2\n      pop\n      pop\n      jump\t// out\n        /* \"#utility.yul\":13679:13820   */\n    tag_167:\n        /* \"#utility.yul\":13728:13732   */\n      0x00\n        /* \"#utility.yul\":13751:13754   */\n      dup2\n        /* \"#utility.yul\":13743:13754   */\n      swap1\n      pop\n        /* \"#utility.yul\":13774:13777   */\n      dup2\n        /* \"#utility.yul\":13771:13772   */\n      0x00\n        /* \"#utility.yul\":13764:13778   */\n      mstore\n        /* \"#utility.yul\":13808:13812   */\n      0x20\n        /* \"#utility.yul\":13805:13806   */\n      0x00\n        /* \"#utility.yul\":13795:13813   */\n      keccak256\n        /* \"#utility.yul\":13787:13813   */\n      swap1\n      pop\n        /* \"#utility.yul\":13679:13820   */\n      swap2\n      swap1\n      pop\n      jump\t// out\n        /* \"#utility.yul\":13826:13919   */\n    tag_168:\n        /* \"#utility.yul\":13863:13869   */\n      0x00\n        /* \"#utility.yul\":13910:13912   */\n      0x20\n        /* \"#utility.yul\":13905:13907   */\n      0x1f\n        /* \"#utility.yul\":13898:13903   */\n      dup4\n        /* \"#utility.yul\":13894:13908   */\n      add\n        /* \"#utility.yul\":13890:13913   */\n      div\n        /* \"#utility.yul\":13880:13913   */\n      swap1\n      pop\n        /* \"#utility.yul\":13826:13919   */\n      swap2\n      swap1\n      pop\n      jump\t// out\n        /* \"#utility.yul\":13925:14032   */\n    tag_169:\n        /* \"#utility.yul\":13969:13977   */\n      0x00\n        /* \"#utility.yul\":14019:14024   */\n      dup3\n        /* \"#utility.yul\":14013:14017   */\n      dup3\n        /* \"#utility.yul\":14009:14025   */\n      shl\n        /* \"#utility.yul\":13988:14025   */\n      swap1\n      pop\n        /* \"#utility.yul\":13925:14032   */\n      swap3\n      swap2\n      pop\n      pop\n      jump\t// out\n        /* \"#utility.yul\":14038:14431   */\n    tag_170:\n        /* \"#utility.yul\":14107:14113   */\n      0x00\n        /* \"#utility.yul\":14157:14158   */\n      0x08\n        /* \"#utility.yul\":14145:14155   */\n      dup4\n        /* \"#utility.yul\":14141:14159   */\n      mul\n        /* \"#utility.yul\":14180:14277   */\n      tag_339\n        /* \"#utility.yul\":14210:14276   */\n      0xffffffffffffffffffffffffffffffffffffffffffffffffffffffffffffffff\n        /* \"#utility.yul\":14199:14208   */\n      dup3\n        /* \"#utility.yul\":14180:14277   */\n      tag_169\n      jump\t// in\n    tag_339:\n        /* \"#utility.yul\":14298:14337   */\n      tag_340\n        /* \"#utility.yul\":14328:14336   */\n      dup7\n        /* \"#utility.yul\":14317:14326   */\n      dup4\n        /* \"#utility.yul\":14298:14337   */\n      tag_169\n      jump\t// in\n    tag_340:\n        /* \"#utility.yul\":14286:14337   */\n      swap6\n      pop\n        /* \"#utility.yul\":14370:14374   */\n      dup1\n        /* \"#utility.yul\":14366:14375   */\n      not\n        /* \"#utility.yul\":14359:14364   */\n      dup5\n        /* \"#utility.yul\":14355:14376   */\n      and\n        /* \"#utility.yul\":14346:14376   */\n      swap4\n      pop\n        /* \"#utility.yul\":14419:14423   */\n      dup1\n        /* \"#utility.yul\":14409:14417   */\n      dup7\n        /* \"#utility.yul\":14405:14424   */\n      and\n        /* \"#utility.yul\":14398:14403   */\n      dup5\n        /* \"#utility.yul\":14395:14425   */\n      or\n        /* \"#utility.yul\":14385:14425   */\n      swap3\n      pop\n        /* \"#utility.yul\":14114:14431   */\n      pop\n      pop\n        /* \"#utility.yul\":14038:14431   */\n      swap4\n      swap3\n      pop\n      pop\n      pop\n      jump\t// out\n        /* \"#utility.yul\":14437:14497   */\n    tag_171:\n        /* \"#utility.yul\":14465:14468   */\n      0x00\n        /* \"#utility.yul\":14486:14491   */\n      dup2\n        /* \"#utility.yul\":14479:14491   */\n      swap1\n      pop\n        /* \"#utility.yul\":14437:14497   */\n      swap2\n      swap1\n      pop\n      jump\t// out\n        /* \"#utility.yul\":14503:14645   */\n    tag_172:\n        /* \"#utility.yul\":14553:14562   */\n      0x00\n        /* \"#utility.yul\":14586:14639   */\n      tag_343\n        /* \"#utility.yul\":14604:14638   */\n      tag_344\n        /* \"#utility.yul\":14613:14637   */\n      tag_345\n        /* \"#utility.yul\":14631:14636   */\n      dup5\n        /* \"#utility.yul\":14613:14637   */\n      tag_130\n      jump\t// in\n    tag_345:\n        /* \"#utility.yul\":14604:14638   */\n      tag_171\n      jump\t// in\n    tag_344:\n        /* \"#utility.yul\":14586:14639   */\n      tag_130\n      jump\t// in\n    tag_343:\n        /* \"#utility.yul\":14573:14639   */\n      swap1\n      pop\n        /* \"#utility.yul\":14503:14645   */\n      swap2\n      swap1\n      pop\n      jump\t// out\n        /* \"#utility.yul\":14651:14726   */\n    tag_173:\n        /* \"#utility.yul\":14694:14697   */\n      0x00\n        /* \"#utility.yul\":14715:14720   */\n      dup2\n        /* \"#utility.yul\":14708:14720   */\n      swap1\n      pop\n        /* \"#utility.yul\":14651:14726   */\n      swap2\n      swap1\n      pop\n      jump\t// out\n        /* \"#utility.yul\":14732:15001   */\n    tag_174:\n        /* \"#utility.yul\":14842:14881   */\n      tag_348\n        /* \"#utility.yul\":14873:14880   */\n      dup4\n        /* \"#utility.yul\":14842:14881   */\n      tag_172\n      jump\t// in\n    tag_348:\n        /* \"#utility.yul\":14903:14994   */\n      tag_349\n        /* \"#utility.yul\":14952:14993   */\n      tag_350\n        /* \"#utility.yul\":14976:14992   */\n      dup3\n        /* \"#utility.yul\":14952:14993   */\n      tag_173\n      jump\t// in\n    tag_350:\n        /* \"#utility.yul\":14944:14950   */\n      dup5\n        /* \"#utility.yul\":14937:14941   */\n      dup5\n        /* \"#utility.yul\":14931:14942   */\n      sload\n        /* \"#utility.yul\":14903:14994   */\n      tag_170\n      jump\t// in\n    tag_349:\n        /* \"#utility.yul\":14897:14901   */\n      dup3\n        /* \"#utility.yul\":14890:14995   */\n      sstore\n        /* \"#utility.yul\":14808:15001   */\n      pop\n        /* \"#utility.yul\":14732:15001   */\n      pop\n      pop\n      pop\n      jump\t// out\n        /* \"#utility.yul\":15007:15080   */\n    tag_175:\n        /* \"#utility.yul\":15052:15055   */\n      0x00\n        /* \"#utility.yul\":15073:15074   */\n      0x00\n        /* \"#utility.yul\":15066:15074   */\n      swap1\n      pop\n        /* \"#utility.yul\":15007:15080   */\n      swap1\n      jump\t// out\n        /* \"#utility.yul\":15086:15275   */\n    tag_176:\n        /* \"#utility.yul\":15163:15195   */\n      tag_353\n      tag_175\n      jump\t// in\n    tag_353:\n        /* \"#utility.yul\":15204:15269   */\n      tag_354\n        /* \"#utility.yul\":15262:15268   */\n      dup2\n        /* \"#utility.yul\":15254:15260   */\n      dup5\n        /* \"#utility.yul\":15248:15252   */\n      dup5\n        /* \"#utility.yul\":15204:15269   */\n      tag_174\n      jump\t// in\n    tag_354:\n        /* \"#utility.yul\":15139:15275   */\n      pop\n        /* \"#utility.yul\":15086:15275   */\n      pop\n      pop\n      jump\t// out\n        /* \"#utility.yul\":15281:15467   */\n    tag_177:\n        /* \"#utility.yul\":15341:15461   */\n    tag_356:\n        /* \"#utility.yul\":15358:15361   */\n      dup2\n        /* \"#utility.yul\":15351:15356   */\n      dup2\n        /* \"#utility.yul\":15348:15362   */\n      lt\n        /* \"#utility.yul\":15341:15461   */\n      iszero\n      tag_358\n      jumpi\n        /* \"#utility.yul\":15412:15451   */\n      tag_359\n        /* \"#utility.yul\":15449:15450   */\n      0x00\n        /* \"#utility.yul\":15442:15447   */\n      dup3\n        /* \"#utility.yul\":15412:15451   */\n      tag_176\n      jump\t// in\n    tag_359:\n        /* \"#utility.yul\":15385:15386   */\n      0x01\n        /* \"#utility.yul\":15378:15383   */\n      dup2\n        /* \"#utility.yul\":15374:15387   */\n      add\n        /* \"#utility.yul\":15365:15387   */\n      swap1\n      pop\n        /* \"#utility.yul\":15341:15461   */\n      jump(tag_356)\n    tag_358:\n        /* \"#utility.yul\":15281:15467   */\n      pop\n      pop\n      jump\t// out\n        /* \"#utility.yul\":15473:16016   */\n    tag_178:\n        /* \"#utility.yul\":15574:15576   */\n      0x1f\n        /* \"#utility.yul\":15569:15572   */\n      dup3\n        /* \"#utility.yul\":15566:15577   */\n      gt\n        /* \"#utility.yul\":15563:16009   */\n      iszero\n      tag_361\n      jumpi\n        /* \"#utility.yul\":15608:15646   */\n      tag_362\n        /* \"#utility.yul\":15640:15645   */\n      dup2\n        /* \"#utility.yul\":15608:15646   */\n      tag_167\n      jump\t// in\n    tag_362:\n        /* \"#utility.yul\":15692:15721   */\n      tag_363\n        /* \"#utility.yul\":15710:15720   */\n      dup5\n        /* \"#utility.yul\":15692:15721   */\n      tag_168\n      jump\t// in\n    tag_363:\n        /* \"#utility.yul\":15682:15690   */\n      dup2\n        /* \"#utility.yul\":15678:15722   */\n      add\n        /* \"#utility.yul\":15875:15877   */\n      0x20\n        /* \"#utility.yul\":15863:15873   */\n      dup6\n        /* \"#utility.yul\":15860:15878   */\n      lt\n        /* \"#utility.yul\":15857:15906   */\n      iszero\n      tag_364\n      jumpi\n        /* \"#utility.yul\":15896:15904   */\n      dup2\n        /* \"#utility.yul\":15881:15904   */\n      swap1\n      pop\n        /* \"#utility.yul\":15857:15906   */\n    tag_364:\n        /* \"#utility.yul\":15919:15999   */\n      tag_365\n        /* \"#utility.yul\":15975:15997   */\n      tag_366\n        /* \"#utility.yul\":15993:15996   */\n      dup6\n        /* \"#utility.yul\":15975:15997   */\n      tag_168\n      jump\t// in\n    tag_366:\n        /* \"#utility.yul\":15965:15973   */\n      dup4\n        /* \"#utility.yul\":15961:15998   */\n      add\n        /* \"#utility.yul\":15948:15959   */\n      dup3\n        /* \"#utility.yul\":15919:15999   */\n      tag_177\n      jump\t// in\n    tag_365:\n        /* \"#utility.yul\":15578:16009   */\n      pop\n      pop\n        /* \"#utility.yul\":15563:16009   */\n    tag_361:\n        /* \"#utility.yul\":15473:16016   */\n      pop\n      pop\n      pop\n      jump\t// out\n        /* \"#utility.yul\":16022:16139   */\n    tag_179:\n        /* \"#utility.yul\":16076:16084   */\n      0x00\n        /* \"#utility.yul\":16126:16131   */\n      dup3\n        /* \"#utility.yul\":16120:16124   */\n      dup3\n        /* \"#utility.yul\":16116:16132   */\n      shr\n        /* \"#utility.yul\":16095:16132   */\n      swap1\n      pop\n        /* \"#utility.yul\":16022:16139   */\n      swap3\n      swap2\n      pop\n      pop\n      jump\t// out\n        /* \"#utility.yul\":16145:16314   */\n    tag_180:\n        /* \"#utility.yul\":16189:16195   */\n      0x00\n        /* \"#utility.yul\":16222:16273   */\n      tag_369\n        /* \"#utility.yul\":16270:16271   */\n      0x00\n        /* \"#utility.yul\":16266:16272   */\n      not\n        /* \"#utility.yul\":16258:16263   */\n      dup5\n        /* \"#utility.yul\":16255:16256   */\n      0x08\n        /* \"#utility.yul\":16251:16264   */\n      mul\n        /* \"#utility.yul\":16222:16273   */\n      tag_179\n      jump\t// in\n    tag_369:\n        /* \"#utility.yul\":16218:16274   */\n      not\n        /* \"#utility.yul\":16303:16307   */\n      dup1\n        /* \"#utility.yul\":16297:16301   */\n      dup4\n        /* \"#utility.yul\":16293:16308   */\n      and\n        /* \"#utility.yul\":16283:16308   */\n      swap2\n      pop\n        /* \"#utility.yul\":16196:16314   */\n      pop\n        /* \"#utility.yul\":16145:16314   */\n      swap3\n      swap2\n      pop\n      pop\n      jump\t// out\n        /* \"#utility.yul\":16319:16614   */\n    tag_181:\n        /* \"#utility.yul\":16395:16399   */\n      0x00\n        /* \"#utility.yul\":16541:16570   */\n      tag_371\n        /* \"#utility.yul\":16566:16569   */\n      dup4\n        /* \"#utility.yul\":16560:16564   */\n      dup4\n        /* \"#utility.yul\":16541:16570   */\n      tag_180\n      jump\t// in\n    tag_371:\n        /* \"#utility.yul\":16533:16570   */\n      swap2\n      pop\n        /* \"#utility.yul\":16603:16606   */\n      dup3\n        /* \"#utility.yul\":16600:16601   */\n      0x02\n        /* \"#utility.yul\":16596:16607   */\n      mul\n        /* \"#utility.yul\":16590:16594   */\n      dup3\n        /* \"#utility.yul\":16587:16608   */\n      or\n        /* \"#utility.yul\":16579:16608   */\n      swap1\n      pop\n        /* \"#utility.yul\":16319:16614   */\n      swap3\n      swap2\n      pop\n      pop\n      jump\t// out\n        /* \"#utility.yul\":16619:18014   */\n    tag_116:\n        /* \"#utility.yul\":16736:16773   */\n      tag_373\n        /* \"#utility.yul\":16769:16772   */\n      dup3\n        /* \"#utility.yul\":16736:16773   */\n      tag_133\n      jump\t// in\n    tag_373:\n        /* \"#utility.yul\":16838:16856   */\n      0xffffffffffffffff\n        /* \"#utility.yul\":16830:16836   */\n      dup2\n        /* \"#utility.yul\":16827:16857   */\n      gt\n        /* \"#utility.yul\":16824:16880   */\n      iszero\n      tag_374\n      jumpi\n        /* \"#utility.yul\":16860:16878   */\n      tag_375\n      tag_150\n      jump\t// in\n    tag_375:\n        /* \"#utility.yul\":16824:16880   */\n    tag_374:\n        /* \"#utility.yul\":16904:16942   */\n      tag_376\n        /* \"#utility.yul\":16936:16940   */\n      dup3\n        /* \"#utility.yul\":16930:16941   */\n      sload\n        /* \"#utility.yul\":16904:16942   */\n      tag_46\n      jump\t// in\n    tag_376:\n        /* \"#utility.yul\":16989:17056   */\n      tag_377\n        /* \"#utility.yul\":17049:17055   */\n      dup3\n        /* \"#utility.yul\":17041:17047   */\n      dup3\n        /* \"#utility.yul\":17035:17039   */\n      dup6\n        /* \"#utility.yul\":16989:17056   */\n      tag_178\n      jump\t// in\n    tag_377:\n        /* \"#utility.yul\":17083:17084   */\n      0x00\n        /* \"#utility.yul\":17107:17111   */\n      0x20\n        /* \"#utility.yul\":17094:17111   */\n      swap1\n      pop\n        /* \"#utility.yul\":17139:17141   */\n      0x1f\n        /* \"#utility.yul\":17131:17137   */\n      dup4\n        /* \"#utility.yul\":17128:17142   */\n      gt\n        /* \"#utility.yul\":17156:17157   */\n      0x01\n        /* \"#utility.yul\":17151:17769   */\n      dup2\n      eq\n      tag_379\n      jumpi\n        /* \"#utility.yul\":17813:17814   */\n      0x00\n        /* \"#utility.yul\":17830:17836   */\n      dup5\n        /* \"#utility.yul\":17827:17904   */\n      iszero\n      tag_380\n      jumpi\n        /* \"#utility.yul\":17879:17888   */\n      dup3\n        /* \"#utility.yul\":17874:17877   */\n      dup8\n        /* \"#utility.yul\":17870:17889   */\n      add\n        /* \"#utility.yul\":17864:17890   */\n      mload\n        /* \"#utility.yul\":17855:17890   */\n      swap1\n      pop\n        /* \"#utility.yul\":17827:17904   */\n    tag_380:\n        /* \"#utility.yul\":17930:17997   */\n      tag_381\n        /* \"#utility.yul\":17990:17996   */\n      dup6\n        /* \"#utility.yul\":17983:17988   */\n      dup3\n        /* \"#utility.yul\":17930:17997   */\n      tag_181\n      jump\t// in\n    tag_381:\n        /* \"#utility.yul\":17924:17928   */\n      dup7\n        /* \"#utility.yul\":17917:17998   */\n      sstore\n        /* \"#utility.yul\":17786:18008   */\n      pop\n        /* \"#utility.yul\":17121:18008   */\n      jump(tag_378)\n        /* \"#utility.yul\":17151:17769   */\n    tag_379:\n        /* \"#utility.yul\":17203:17207   */\n      0x1f\n        /* \"#utility.yul\":17199:17208   */\n      not\n        /* \"#utility.yul\":17191:17197   */\n      dup5\n        /* \"#utility.yul\":17187:17209   */\n      and\n        /* \"#utility.yul\":17237:17274   */\n      tag_382\n        /* \"#utility.yul\":17269:17273   */\n      dup7\n        /* \"#utility.yul\":17237:17274   */\n      tag_167\n      jump\t// in\n    tag_382:\n        /* \"#utility.yul\":17296:17297   */\n      0x00\n        /* \"#utility.yul\":17310:17518   */\n    tag_383:\n        /* \"#utility.yul\":17324:17331   */\n      dup3\n        /* \"#utility.yul\":17321:17322   */\n      dup2\n        /* \"#utility.yul\":17318:17332   */\n      lt\n        /* \"#utility.yul\":17310:17518   */\n      iszero\n      tag_385\n      jumpi\n        /* \"#utility.yul\":17403:17412   */\n      dup5\n        /* \"#utility.yul\":17398:17401   */\n      dup10\n        /* \"#utility.yul\":17394:17413   */\n      add\n        /* \"#utility.yul\":17388:17414   */\n      mload\n        /* \"#utility.yul\":17380:17386   */\n      dup3\n        /* \"#utility.yul\":17373:17415   */\n      sstore\n        /* \"#utility.yul\":17454:17455   */\n      0x01\n        /* \"#utility.yul\":17446:17452   */\n      dup3\n        /* \"#utility.yul\":17442:17456   */\n      add\n        /* \"#utility.yul\":17432:17456   */\n      swap2\n      pop\n        /* \"#utility.yul\":17501:17503   */\n      0x20\n        /* \"#utility.yul\":17490:17499   */\n      dup6\n        /* \"#utility.yul\":17486:17504   */\n      add\n        /* \"#utility.yul\":17473:17504   */\n      swap5\n      pop\n        /* \"#utility.yul\":17347:17351   */\n      0x20\n        /* \"#utility.yul\":17344:17345   */\n      dup2\n        /* \"#utility.yul\":17340:17352   */\n      add\n        /* \"#utility.yul\":17335:17352   */\n      swap1\n      pop\n        /* \"#utility.yul\":17310:17518   */\n      jump(tag_383)\n    tag_385:\n        /* \"#utility.yul\":17546:17552   */\n      dup7\n        /* \"#utility.yul\":17537:17544   */\n      dup4\n        /* \"#utility.yul\":17534:17553   */\n      lt\n        /* \"#utility.yul\":17531:17710   */\n      iszero\n      tag_386\n      jumpi\n        /* \"#utility.yul\":17604:17613   */\n      dup5\n        /* \"#utility.yul\":17599:17602   */\n      dup10\n        /* \"#utility.yul\":17595:17614   */\n      add\n        /* \"#utility.yul\":17589:17615   */\n      mload\n        /* \"#utility.yul\":17647:17695   */\n      tag_387\n        /* \"#utility.yul\":17689:17693   */\n      0x1f\n        /* \"#utility.yul\":17681:17687   */\n      dup10\n        /* \"#utility.yul\":17677:17694   */\n      and\n        /* \"#utility.yul\":17666:17675   */\n      dup3\n        /* \"#utility.yul\":17647:17695   */\n      tag_180\n      jump\t// in\n    tag_387:\n        /* \"#utility.yul\":17639:17645   */\n      dup4\n        /* \"#utility.yul\":17632:17696   */\n      sstore\n        /* \"#utility.yul\":17554:17710   */\n      pop\n        /* \"#utility.yul\":17531:17710   */\n    tag_386:\n        /* \"#utility.yul\":17756:17757   */\n      0x01\n        /* \"#utility.yul\":17752:17753   */\n      0x02\n        /* \"#utility.yul\":17744:17750   */\n      dup9\n        /* \"#utility.yul\":17740:17754   */\n      mul\n        /* \"#utility.yul\":17736:17758   */\n      add\n        /* \"#utility.yul\":17730:17734   */\n      dup9\n        /* \"#utility.yul\":17723:17759   */\n      sstore\n        /* \"#utility.yul\":17158:17769   */\n      pop\n      pop\n      pop\n        /* \"#utility.yul\":17121:18008   */\n    tag_378:\n      pop\n        /* \"#utility.yul\":16711:18014   */\n      pop\n      pop\n      pop\n        /* \"#utility.yul\":16619:18014   */\n      pop\n      pop\n      jump\t// out\n        /* \"#utility.yul\":18020:18253   */\n    tag_119:\n        /* \"#utility.yul\":18059:18062   */\n      0x00\n        /* \"#utility.yul\":18082:18106   */\n      tag_389\n        /* \"#utility.yul\":18100:18105   */\n      dup3\n        /* \"#utility.yul\":18082:18106   */\n      tag_130\n      jump\t// in\n    tag_389:\n        /* \"#utility.yul\":18073:18106   */\n      swap2\n      pop\n        /* \"#utility.yul\":18128:18194   */\n      0xffffffffffffffffffffffffffffffffffffffffffffffffffffffffffffffff\n        /* \"#utility.yul\":18121:18126   */\n      dup3\n        /* \"#utility.yul\":18118:18195   */\n      sub\n        /* \"#utility.yul\":18115:18218   */\n      tag_390\n      jumpi\n        /* \"#utility.yul\":18198:18216   */\n      tag_391\n      tag_162\n      jump\t// in\n    tag_391:\n        /* \"#utility.yul\":18115:18218   */\n    tag_390:\n        /* \"#utility.yul\":18245:18246   */\n      0x01\n        /* \"#utility.yul\":18238:18243   */\n      dup3\n        /* \"#utility.yul\":18234:18247   */\n      add\n        /* \"#utility.yul\":18227:18247   */\n      swap1\n      pop\n        /* \"#utility.yul\":18020:18253   */\n      swap2\n      swap1\n      pop\n      jump\t// out\n        /* \"#utility.yul\":18259:18792   */\n    tag_121:\n        /* \"#utility.yul\":18428:18432   */\n      0x00\n        /* \"#utility.yul\":18466:18468   */\n      0x60\n        /* \"#utility.yul\":18455:18464   */\n      dup3\n        /* \"#utility.yul\":18451:18469   */\n      add\n        /* \"#utility.yul\":18443:18469   */\n      swap1\n      pop\n        /* \"#utility.yul\":18479:18550   */\n      tag_393\n        /* \"#utility.yul\":18547:18548   */\n      0x00\n        /* \"#utility.yul\":18536:18545   */\n      dup4\n        /* \"#utility.yul\":18532:18549   */\n      add\n        /* \"#utility.yul\":18523:18529   */\n      dup7\n        /* \"#utility.yul\":18479:18550   */\n      tag_138\n      jump\t// in\n    tag_393:\n        /* \"#utility.yul\":18597:18606   */\n      dup2\n        /* \"#utility.yul\":18591:18595   */\n      dup2\n        /* \"#utility.yul\":18587:18607   */\n      sub\n        /* \"#utility.yul\":18582:18584   */\n      0x20\n        /* \"#utility.yul\":18571:18580   */\n      dup4\n        /* \"#utility.yul\":18567:18585   */\n      add\n        /* \"#utility.yul\":18560:18608   */\n      mstore\n        /* \"#utility.yul\":18625:18703   */\n      tag_394\n        /* \"#utility.yul\":18698:18702   */\n      dup2\n        /* \"#utility.yul\":18689:18695   */\n      dup6\n        /* \"#utility.yul\":18625:18703   */\n      tag_137\n      jump\t// in\n    tag_394:\n        /* \"#utility.yul\":18617:18703   */\n      swap1\n      pop\n        /* \"#utility.yul\":18713:18785   */\n      tag_395\n        /* \"#utility.yul\":18781:18783   */\n      0x40\n        /* \"#utility.yul\":18770:18779   */\n      dup4\n        /* \"#utility.yul\":18766:18784   */\n      add\n        /* \"#utility.yul\":18757:18763   */\n      dup5\n        /* \"#utility.yul\":18713:18785   */\n      tag_138\n      jump\t// in\n    tag_395:\n        /* \"#utility.yul\":18259:18792   */\n      swap5\n      swap4\n      pop\n      pop\n      pop\n      pop\n      jump\t// out\n\n    auxdata: 0xa2646970667358221220aad0dc5b34bdc90df2a542d1e61947eb454518566677f4386baf86451fecacd464736f6c634300081e0033\n}\n",
				"bytecode": {
					"linkReferences": {},
					"object": "60806040526010600155600154600a6100189190610251565b6002556201518060035534801561002d575f5ffd5b50335f5f6101000a81548173ffffffffffffffffffffffffffffffffffffffff021916908373ffffffffffffffffffffffffffffffffffffffff1602179055505f5f9054906101000a900473ffffffffffffffffffffffffffffffffffffffff1673ffffffffffffffffffffffffffffffffffffffff165f73ffffffffffffffffffffffffffffffffffffffff167f8be0079c531659141344cd1fd0a4f28419497f9722a3daafe3b4186f6b6457e060405160405180910390a361029b565b7f4e487b71000000000000000000000000000000000000000000000000000000005f52601160045260245ffd5b5f8160011c9050919050565b5f5f8291508390505b600185111561016e5780860481111561014a576101496100ec565b5b60018516156101595780820291505b808102905061016785610119565b945061012e565b94509492505050565b5f826101865760019050610241565b81610193575f9050610241565b81600181146101a957600281146101b3576101e2565b6001915050610241565b60ff8411156101c5576101c46100ec565b5b8360020a9150848211156101dc576101db6100ec565b5b50610241565b5060208310610133831016604e8410600b84101617156102175782820a905083811115610212576102116100ec565b5b610241565b6102248484846001610125565b9250905081840481111561023b5761023a6100ec565b5b81810290505b9392505050565b5f819050919050565b5f61025b82610248565b915061026683610248565b92506102937fffffffffffffffffffffffffffffffffffffffffffffffffffffffffffffffff8484610177565b905092915050565b6114d3806102a85f395ff3fe608060405234801561000f575f5ffd5b5060043610610086575f3560e01c80638f32d59b116100595780638f32d59b146101015780639ef0fe031461011f578063ad8227781461013b578063f2fde38b1461015757610086565b80632052465e1461008a5780635f4623f1146100bd578063715018a6146100d95780638da5cb5b146100e3575b5f5ffd5b6100a4600480360381019061009f9190610a80565b610173565b6040516100b49493929190610b48565b60405180910390f35b6100d760048036038101906100d29190610bec565b610253565b005b6100e16102a6565b005b6100eb610371565b6040516100f89190610c26565b60405180910390f35b610109610398565b6040516101169190610c59565b60405180910390f35b61013960048036038101906101349190610c72565b6103ed565b005b61015560048036038101906101509190610ddc565b6104d8565b005b610171600480360381019061016c9190610bec565b61053a565b005b60048181548110610182575f80fd5b905f5260205f2090600302015f91509050805f0180546101a190610e50565b80601f01602080910402602001604051908101604052809291908181526020018280546101cd90610e50565b80156102185780601f106101ef57610100808354040283529160200191610218565b820191905f5260205f20905b8154815290600101906020018083116101fb57829003601f168201915b505050505090806001015490806002015f9054906101000a900463ffffffff16908060020160049054906101000a900463ffffffff16905084565b61025b610398565b610263575f5ffd5b8060075f6101000a81548173ffffffffffffffffffffffffffffffffffffffff021916908373ffffffffffffffffffffffffffffffffffffffff16021790555050565b6102ae610398565b6102b6575f5ffd5b5f73ffffffffffffffffffffffffffffffffffffffff165f5f9054906101000a900473ffffffffffffffffffffffffffffffffffffffff1673ffffffffffffffffffffffffffffffffffffffff167f8be0079c531659141344cd1fd0a4f28419497f9722a3daafe3b4186f6b6457e060405160405180910390a35f5f5f6101000a81548173ffffffffffffffffffffffffffffffffffffffff021916908373ffffffffffffffffffffffffffffffffffffffff160217905550565b5f5f5f9054906101000a900473ffffffffffffffffffffffffffffffffffffffff16905090565b5f5f5f9054906101000a900473ffffffffffffffffffffffffffffffffffffffff1673ffffffffffffffffffffffffffffffffffffffff163373ffffffffffffffffffffffffffffffffffffffff1614905090565b5f60075f9054906101000a900473ffffffffffffffffffffffffffffffffffffffff1673ffffffffffffffffffffffffffffffffffffffff1663e98b7f4d836040518263ffffffff1660e01b81526004016104489190610e80565b61014060405180830381865afa158015610464573d5f5f3e3d5ffd5b505050506040513d601f19601f820116820180604052508101906104889190610ed7565b99505050505050505050506104d383826040518060400160405280600581526020017f6b69747479000000000000000000000000000000000000000000000000000000815250610556565b505050565b5f60065f3373ffffffffffffffffffffffffffffffffffffffff1673ffffffffffffffffffffffffffffffffffffffff1681526020019081526020015f205414610520575f5ffd5b5f61052a826106e7565b9050610536828261072a565b5050565b610542610398565b61054a575f5ffd5b610553816108f0565b50565b3373ffffffffffffffffffffffffffffffffffffffff1660055f8581526020019081526020015f205f9054906101000a900473ffffffffffffffffffffffffffffffffffffffff1673ffffffffffffffffffffffffffffffffffffffff16146105bd575f5ffd5b5f600484815481106105d2576105d1610fb0565b5b905f5260205f2090600302019050600254836105ee919061100a565b92506105f9816109e3565b610601575f5ffd5b5f60028260010154856106149190611067565b61061e919061109a565b905060405160200161062f9061111e565b60405160208183030381529060405280519060200120836040516020016106569190611162565b6040516020818303038152906040528051906020012003610698576063606482610680919061100a565b8261068b9190611178565b6106959190611067565b90505b6106d76040518060400160405280600681526020017f4e6f4e616d6500000000000000000000000000000000000000000000000000008152508261072a565b6106e082610a09565b5050505050565b5f5f826040516020016106fa9190611162565b604051602081830303815290604052805190602001205f1c905060025481610722919061100a565b915050919050565b60046040518060800160405280848152602001838152602001600163ffffffff1681526020016003544261075e9190611067565b63ffffffff16815250908060018154018082558091505060019003905f5260205f2090600302015f909190919091505f820151815f0190816107a0919061134b565b50602082015181600101556040820151816002015f6101000a81548163ffffffff021916908363ffffffff16021790555060608201518160020160046101000a81548163ffffffff021916908363ffffffff16021790555050505f600160048054905061080d9190611178565b90503360055f8381526020019081526020015f205f6101000a81548173ffffffffffffffffffffffffffffffffffffffff021916908373ffffffffffffffffffffffffffffffffffffffff16021790555060065f3373ffffffffffffffffffffffffffffffffffffffff1673ffffffffffffffffffffffffffffffffffffffff1681526020019081526020015f205f8154809291906108ab9061141a565b91905055507f88f026aacbbecc90c18411df4b1185fd8d9be2470f1962f192bf84a27d0704b78184846040516108e393929190611461565b60405180910390a1505050565b5f73ffffffffffffffffffffffffffffffffffffffff168173ffffffffffffffffffffffffffffffffffffffff1603610927575f5ffd5b8073ffffffffffffffffffffffffffffffffffffffff165f5f9054906101000a900473ffffffffffffffffffffffffffffffffffffffff1673ffffffffffffffffffffffffffffffffffffffff167f8be0079c531659141344cd1fd0a4f28419497f9722a3daafe3b4186f6b6457e060405160405180910390a3805f5f6101000a81548173ffffffffffffffffffffffffffffffffffffffff021916908373ffffffffffffffffffffffffffffffffffffffff16021790555050565b5f428260020160049054906101000a900463ffffffff1663ffffffff1611159050919050565b60035442610a179190611067565b8160020160046101000a81548163ffffffff021916908363ffffffff16021790555050565b5f604051905090565b5f5ffd5b5f5ffd5b5f819050919050565b610a5f81610a4d565b8114610a69575f5ffd5b50565b5f81359050610a7a81610a56565b92915050565b5f60208284031215610a9557610a94610a45565b5b5f610aa284828501610a6c565b91505092915050565b5f81519050919050565b5f82825260208201905092915050565b8281835e5f83830152505050565b5f601f19601f8301169050919050565b5f610aed82610aab565b610af78185610ab5565b9350610b07818560208601610ac5565b610b1081610ad3565b840191505092915050565b610b2481610a4d565b82525050565b5f63ffffffff82169050919050565b610b4281610b2a565b82525050565b5f6080820190508181035f830152610b608187610ae3565b9050610b6f6020830186610b1b565b610b7c6040830185610b39565b610b896060830184610b39565b95945050505050565b5f73ffffffffffffffffffffffffffffffffffffffff82169050919050565b5f610bbb82610b92565b9050919050565b610bcb81610bb1565b8114610bd5575f5ffd5b50565b5f81359050610be681610bc2565b92915050565b5f60208284031215610c0157610c00610a45565b5b5f610c0e84828501610bd8565b91505092915050565b610c2081610bb1565b82525050565b5f602082019050610c395f830184610c17565b92915050565b5f8115159050919050565b610c5381610c3f565b82525050565b5f602082019050610c6c5f830184610c4a565b92915050565b5f5f60408385031215610c8857610c87610a45565b5b5f610c9585828601610a6c565b9250506020610ca685828601610a6c565b9150509250929050565b5f5ffd5b5f5ffd5b7f4e487b71000000000000000000000000000000000000000000000000000000005f52604160045260245ffd5b610cee82610ad3565b810181811067ffffffffffffffff82111715610d0d57610d0c610cb8565b5b80604052505050565b5f610d1f610a3c565b9050610d2b8282610ce5565b919050565b5f67ffffffffffffffff821115610d4a57610d49610cb8565b5b610d5382610ad3565b9050602081019050919050565b828183375f83830152505050565b5f610d80610d7b84610d30565b610d16565b905082815260208101848484011115610d9c57610d9b610cb4565b5b610da7848285610d60565b509392505050565b5f82601f830112610dc357610dc2610cb0565b5b8135610dd3848260208601610d6e565b91505092915050565b5f60208284031215610df157610df0610a45565b5b5f82013567ffffffffffffffff811115610e0e57610e0d610a49565b5b610e1a84828501610daf565b91505092915050565b7f4e487b71000000000000000000000000000000000000000000000000000000005f52602260045260245ffd5b5f6002820490506001821680610e6757607f821691505b602082108103610e7a57610e79610e23565b5b50919050565b5f602082019050610e935f830184610b1b565b92915050565b610ea281610c3f565b8114610eac575f5ffd5b50565b5f81519050610ebd81610e99565b92915050565b5f81519050610ed181610a56565b92915050565b5f5f5f5f5f5f5f5f5f5f6101408b8d031215610ef657610ef5610a45565b5b5f610f038d828e01610eaf565b9a50506020610f148d828e01610eaf565b9950506040610f258d828e01610ec3565b9850506060610f368d828e01610ec3565b9750506080610f478d828e01610ec3565b96505060a0610f588d828e01610ec3565b95505060c0610f698d828e01610ec3565b94505060e0610f7a8d828e01610ec3565b935050610100610f8c8d828e01610ec3565b925050610120610f9e8d828e01610ec3565b9150509295989b9194979a5092959850565b7f4e487b71000000000000000000000000000000000000000000000000000000005f52603260045260245ffd5b7f4e487b71000000000000000000000000000000000000000000000000000000005f52601260045260245ffd5b5f61101482610a4d565b915061101f83610a4d565b92508261102f5761102e610fdd565b5b828206905092915050565b7f4e487b71000000000000000000000000000000000000000000000000000000005f52601160045260245ffd5b5f61107182610a4d565b915061107c83610a4d565b92508282019050808211156110945761109361103a565b5b92915050565b5f6110a482610a4d565b91506110af83610a4d565b9250826110bf576110be610fdd565b5b828204905092915050565b5f81905092915050565b7f6b697474790000000000000000000000000000000000000000000000000000005f82015250565b5f6111086005836110ca565b9150611113826110d4565b600582019050919050565b5f611128826110fc565b9150819050919050565b5f61113c82610aab565b61114681856110ca565b9350611156818560208601610ac5565b80840191505092915050565b5f61116d8284611132565b915081905092915050565b5f61118282610a4d565b915061118d83610a4d565b92508282039050818111156111a5576111a461103a565b5b92915050565b5f819050815f5260205f209050919050565b5f6020601f8301049050919050565b5f82821b905092915050565b5f600883026112077fffffffffffffffffffffffffffffffffffffffffffffffffffffffffffffffff826111cc565b61121186836111cc565b95508019841693508086168417925050509392505050565b5f819050919050565b5f61124c61124761124284610a4d565b611229565b610a4d565b9050919050565b5f819050919050565b61126583611232565b61127961127182611253565b8484546111d8565b825550505050565b5f5f905090565b611290611281565b61129b81848461125c565b505050565b5b818110156112be576112b35f82611288565b6001810190506112a1565b5050565b601f821115611303576112d4816111ab565b6112dd846111bd565b810160208510156112ec578190505b6113006112f8856111bd565b8301826112a0565b50505b505050565b5f82821c905092915050565b5f6113235f1984600802611308565b1980831691505092915050565b5f61133b8383611314565b9150826002028217905092915050565b61135482610aab565b67ffffffffffffffff81111561136d5761136c610cb8565b5b6113778254610e50565b6113828282856112c2565b5f60209050601f8311600181146113b3575f84156113a1578287015190505b6113ab8582611330565b865550611412565b601f1984166113c1866111ab565b5f5b828110156113e8578489015182556001820191506020850194506020810190506113c3565b868310156114055784890151611401601f891682611314565b8355505b6001600288020188555050505b505050505050565b5f61142482610a4d565b91507fffffffffffffffffffffffffffffffffffffffffffffffffffffffffffffffff82036114565761145561103a565b5b600182019050919050565b5f6060820190506114745f830186610b1b565b81810360208301526114868185610ae3565b90506114956040830184610b1b565b94935050505056fea2646970667358221220aad0dc5b34bdc90df2a542d1e61947eb454518566677f4386baf86451fecacd464736f6c634300081e0033",
					"opcodes": "PUSH1 0x80 PUSH1 0x40 MSTORE PUSH1 0x10 PUSH1 0x1 SSTORE PUSH1 0x1 SLOAD PUSH1 0xA PUSH2 0x18 SWAP2 SWAP1 PUSH2 0x251 JUMP JUMPDEST PUSH1 0x2 SSTORE PUSH3 0x15180 PUSH1 0x3 SSTORE CALLVALUE DUP1 ISZERO PUSH2 0x2D JUMPI PUSH0 PUSH0 REVERT JUMPDEST POP CALLER PUSH0 PUSH0 PUSH2 0x100 EXP DUP2 SLOAD DUP2 PUSH20 0xFFFFFFFFFFFFFFFFFFFFFFFFFFFFFFFFFFFFFFFF MUL NOT AND SWAP1 DUP4 PUSH20 0xFFFFFFFFFFFFFFFFFFFFFFFFFFFFFFFFFFFFFFFF AND MUL OR SWAP1 SSTORE POP PUSH0 PUSH0 SWAP1 SLOAD SWAP1 PUSH2 0x100 EXP SWAP1 DIV PUSH20 0xFFFFFFFFFFFFFFFFFFFFFFFFFFFFFFFFFFFFFFFF AND PUSH20 0xFFFFFFFFFFFFFFFFFFFFFFFFFFFFFFFFFFFFFFFF AND PUSH0 PUSH20 0xFFFFFFFFFFFFFFFFFFFFFFFFFFFFFFFFFFFFFFFF AND PUSH32 0x8BE0079C531659141344CD1FD0A4F28419497F9722A3DAAFE3B4186F6B6457E0 PUSH1 0x40 MLOAD PUSH1 0x40 MLOAD DUP1 SWAP2 SUB SWAP1 LOG3 PUSH2 0x29B JUMP JUMPDEST PUSH32 0x4E487B7100000000000000000000000000000000000000000000000000000000 PUSH0 MSTORE PUSH1 0x11 PUSH1 0x4 MSTORE PUSH1 0x24 PUSH0 REVERT JUMPDEST PUSH0 DUP2 PUSH1 0x1 SHR SWAP1 POP SWAP2 SWAP1 POP JUMP JUMPDEST PUSH0 PUSH0 DUP3 SWAP2 POP DUP4 SWAP1 POP JUMPDEST PUSH1 0x1 DUP6 GT ISZERO PUSH2 0x16E JUMPI DUP1 DUP7 DIV DUP2 GT ISZERO PUSH2 0x14A JUMPI PUSH2 0x149 PUSH2 0xEC JUMP JUMPDEST JUMPDEST PUSH1 0x1 DUP6 AND ISZERO PUSH2 0x159 JUMPI DUP1 DUP3 MUL SWAP2 POP JUMPDEST DUP1 DUP2 MUL SWAP1 POP PUSH2 0x167 DUP6 PUSH2 0x119 JUMP JUMPDEST SWAP5 POP PUSH2 0x12E JUMP JUMPDEST SWAP5 POP SWAP5 SWAP3 POP POP POP JUMP JUMPDEST PUSH0 DUP3 PUSH2 0x186 JUMPI PUSH1 0x1 SWAP1 POP PUSH2 0x241 JUMP JUMPDEST DUP2 PUSH2 0x193 JUMPI PUSH0 SWAP1 POP PUSH2 0x241 JUMP JUMPDEST DUP2 PUSH1 0x1 DUP2 EQ PUSH2 0x1A9 JUMPI PUSH1 0x2 DUP2 EQ PUSH2 0x1B3 JUMPI PUSH2 0x1E2 JUMP JUMPDEST PUSH1 0x1 SWAP2 POP POP PUSH2 0x241 JUMP JUMPDEST PUSH1 0xFF DUP5 GT ISZERO PUSH2 0x1C5 JUMPI PUSH2 0x1C4 PUSH2 0xEC JUMP JUMPDEST JUMPDEST DUP4 PUSH1 0x2 EXP SWAP2 POP DUP5 DUP3 GT ISZERO PUSH2 0x1DC JUMPI PUSH2 0x1DB PUSH2 0xEC JUMP JUMPDEST JUMPDEST POP PUSH2 0x241 JUMP JUMPDEST POP PUSH1 0x20 DUP4 LT PUSH2 0x133 DUP4 LT AND PUSH1 0x4E DUP5 LT PUSH1 0xB DUP5 LT AND OR ISZERO PUSH2 0x217 JUMPI DUP3 DUP3 EXP SWAP1 POP DUP4 DUP2 GT ISZERO PUSH2 0x212 JUMPI PUSH2 0x211 PUSH2 0xEC JUMP JUMPDEST JUMPDEST PUSH2 0x241 JUMP JUMPDEST PUSH2 0x224 DUP5 DUP5 DUP5 PUSH1 0x1 PUSH2 0x125 JUMP JUMPDEST SWAP3 POP SWAP1 POP DUP2 DUP5 DIV DUP2 GT ISZERO PUSH2 0x23B JUMPI PUSH2 0x23A PUSH2 0xEC JUMP JUMPDEST JUMPDEST DUP2 DUP2 MUL SWAP1 POP JUMPDEST SWAP4 SWAP3 POP POP POP JUMP JUMPDEST PUSH0 DUP2 SWAP1 POP SWAP2 SWAP1 POP JUMP JUMPDEST PUSH0 PUSH2 0x25B DUP3 PUSH2 0x248 JUMP JUMPDEST SWAP2 POP PUSH2 0x266 DUP4 PUSH2 0x248 JUMP JUMPDEST SWAP3 POP PUSH2 0x293 PUSH32 0xFFFFFFFFFFFFFFFFFFFFFFFFFFFFFFFFFFFFFFFFFFFFFFFFFFFFFFFFFFFFFFFF DUP5 DUP5 PUSH2 0x177 JUMP JUMPDEST SWAP1 POP SWAP3 SWAP2 POP POP JUMP JUMPDEST PUSH2 0x14D3 DUP1 PUSH2 0x2A8 PUSH0 CODECOPY PUSH0 RETURN INVALID PUSH1 0x80 PUSH1 0x40 MSTORE CALLVALUE DUP1 ISZERO PUSH2 0xF JUMPI PUSH0 PUSH0 REVERT JUMPDEST POP PUSH1 0x4 CALLDATASIZE LT PUSH2 0x86 JUMPI PUSH0 CALLDATALOAD PUSH1 0xE0 SHR DUP1 PUSH4 0x8F32D59B GT PUSH2 0x59 JUMPI DUP1 PUSH4 0x8F32D59B EQ PUSH2 0x101 JUMPI DUP1 PUSH4 0x9EF0FE03 EQ PUSH2 0x11F JUMPI DUP1 PUSH4 0xAD822778 EQ PUSH2 0x13B JUMPI DUP1 PUSH4 0xF2FDE38B EQ PUSH2 0x157 JUMPI PUSH2 0x86 JUMP JUMPDEST DUP1 PUSH4 0x2052465E EQ PUSH2 0x8A JUMPI DUP1 PUSH4 0x5F4623F1 EQ PUSH2 0xBD JUMPI DUP1 PUSH4 0x715018A6 EQ PUSH2 0xD9 JUMPI DUP1 PUSH4 0x8DA5CB5B EQ PUSH2 0xE3 JUMPI JUMPDEST PUSH0 PUSH0 REVERT JUMPDEST PUSH2 0xA4 PUSH1 0x4 DUP1 CALLDATASIZE SUB DUP2 ADD SWAP1 PUSH2 0x9F SWAP2 SWAP1 PUSH2 0xA80 JUMP JUMPDEST PUSH2 0x173 JUMP JUMPDEST PUSH1 0x40 MLOAD PUSH2 0xB4 SWAP5 SWAP4 SWAP3 SWAP2 SWAP1 PUSH2 0xB48 JUMP JUMPDEST PUSH1 0x40 MLOAD DUP1 SWAP2 SUB SWAP1 RETURN JUMPDEST PUSH2 0xD7 PUSH1 0x4 DUP1 CALLDATASIZE SUB DUP2 ADD SWAP1 PUSH2 0xD2 SWAP2 SWAP1 PUSH2 0xBEC JUMP JUMPDEST PUSH2 0x253 JUMP JUMPDEST STOP JUMPDEST PUSH2 0xE1 PUSH2 0x2A6 JUMP JUMPDEST STOP JUMPDEST PUSH2 0xEB PUSH2 0x371 JUMP JUMPDEST PUSH1 0x40 MLOAD PUSH2 0xF8 SWAP2 SWAP1 PUSH2 0xC26 JUMP JUMPDEST PUSH1 0x40 MLOAD DUP1 SWAP2 SUB SWAP1 RETURN JUMPDEST PUSH2 0x109 PUSH2 0x398 JUMP JUMPDEST PUSH1 0x40 MLOAD PUSH2 0x116 SWAP2 SWAP1 PUSH2 0xC59 JUMP JUMPDEST PUSH1 0x40 MLOAD DUP1 SWAP2 SUB SWAP1 RETURN JUMPDEST PUSH2 0x139 PUSH1 0x4 DUP1 CALLDATASIZE SUB DUP2 ADD SWAP1 PUSH2 0x134 SWAP2 SWAP1 PUSH2 0xC72 JUMP JUMPDEST PUSH2 0x3ED JUMP JUMPDEST STOP JUMPDEST PUSH2 0x155 PUSH1 0x4 DUP1 CALLDATASIZE SUB DUP2 ADD SWAP1 PUSH2 0x150 SWAP2 SWAP1 PUSH2 0xDDC JUMP JUMPDEST PUSH2 0x4D8 JUMP JUMPDEST STOP JUMPDEST PUSH2 0x171 PUSH1 0x4 DUP1 CALLDATASIZE SUB DUP2 ADD SWAP1 PUSH2 0x16C SWAP2 SWAP1 PUSH2 0xBEC JUMP JUMPDEST PUSH2 0x53A JUMP JUMPDEST STOP JUMPDEST PUSH1 0x4 DUP2 DUP2 SLOAD DUP2 LT PUSH2 0x182 JUMPI PUSH0 DUP1 REVERT JUMPDEST SWAP1 PUSH0 MSTORE PUSH1 0x20 PUSH0 KECCAK256 SWAP1 PUSH1 0x3 MUL ADD PUSH0 SWAP2 POP SWAP1 POP DUP1 PUSH0 ADD DUP1 SLOAD PUSH2 0x1A1 SWAP1 PUSH2 0xE50 JUMP JUMPDEST DUP1 PUSH1 0x1F ADD PUSH1 0x20 DUP1 SWAP2 DIV MUL PUSH1 0x20 ADD PUSH1 0x40 MLOAD SWAP1 DUP2 ADD PUSH1 0x40 MSTORE DUP1 SWAP3 SWAP2 SWAP1 DUP2 DUP2 MSTORE PUSH1 0x20 ADD DUP3 DUP1 SLOAD PUSH2 0x1CD SWAP1 PUSH2 0xE50 JUMP JUMPDEST DUP1 ISZERO PUSH2 0x218 JUMPI DUP1 PUSH1 0x1F LT PUSH2 0x1EF JUMPI PUSH2 0x100 DUP1 DUP4 SLOAD DIV MUL DUP4 MSTORE SWAP2 PUSH1 0x20 ADD SWAP2 PUSH2 0x218 JUMP JUMPDEST DUP3 ADD SWAP2 SWAP1 PUSH0 MSTORE PUSH1 0x20 PUSH0 KECCAK256 SWAP1 JUMPDEST DUP2 SLOAD DUP2 MSTORE SWAP1 PUSH1 0x1 ADD SWAP1 PUSH1 0x20 ADD DUP1 DUP4 GT PUSH2 0x1FB JUMPI DUP3 SWAP1 SUB PUSH1 0x1F AND DUP3 ADD SWAP2 JUMPDEST POP POP POP POP POP SWAP1 DUP1 PUSH1 0x1 ADD SLOAD SWAP1 DUP1 PUSH1 0x2 ADD PUSH0 SWAP1 SLOAD SWAP1 PUSH2 0x100 EXP SWAP1 DIV PUSH4 0xFFFFFFFF AND SWAP1 DUP1 PUSH1 0x2 ADD PUSH1 0x4 SWAP1 SLOAD SWAP1 PUSH2 0x100 EXP SWAP1 DIV PUSH4 0xFFFFFFFF AND SWAP1 POP DUP5 JUMP JUMPDEST PUSH2 0x25B PUSH2 0x398 JUMP JUMPDEST PUSH2 0x263 JUMPI PUSH0 PUSH0 REVERT JUMPDEST DUP1 PUSH1 0x7 PUSH0 PUSH2 0x100 EXP DUP2 SLOAD DUP2 PUSH20 0xFFFFFFFFFFFFFFFFFFFFFFFFFFFFFFFFFFFFFFFF MUL NOT AND SWAP1 DUP4 PUSH20 0xFFFFFFFFFFFFFFFFFFFFFFFFFFFFFFFFFFFFFFFF AND MUL OR SWAP1 SSTORE POP POP JUMP JUMPDEST PUSH2 0x2AE PUSH2 0x398 JUMP JUMPDEST PUSH2 0x2B6 JUMPI PUSH0 PUSH0 REVERT JUMPDEST PUSH0 PUSH20 0xFFFFFFFFFFFFFFFFFFFFFFFFFFFFFFFFFFFFFFFF AND PUSH0 PUSH0 SWAP1 SLOAD SWAP1 PUSH2 0x100 EXP SWAP1 DIV PUSH20 0xFFFFFFFFFFFFFFFFFFFFFFFFFFFFFFFFFFFFFFFF AND PUSH20 0xFFFFFFFFFFFFFFFFFFFFFFFFFFFFFFFFFFFFFFFF AND PUSH32 0x8BE0079C531659141344CD1FD0A4F28419497F9722A3DAAFE3B4186F6B6457E0 PUSH1 0x40 MLOAD PUSH1 0x40 MLOAD DUP1 SWAP2 SUB SWAP1 LOG3 PUSH0 PUSH0 PUSH0 PUSH2 0x100 EXP DUP2 SLOAD DUP2 PUSH20 0xFFFFFFFFFFFFFFFFFFFFFFFFFFFFFFFFFFFFFFFF MUL NOT AND SWAP1 DUP4 PUSH20 0xFFFFFFFFFFFFFFFFFFFFFFFFFFFFFFFFFFFFFFFF AND MUL OR SWAP1 SSTORE POP JUMP JUMPDEST PUSH0 PUSH0 PUSH0 SWAP1 SLOAD SWAP1 PUSH2 0x100 EXP SWAP1 DIV PUSH20 0xFFFFFFFFFFFFFFFFFFFFFFFFFFFFFFFFFFFFFFFF AND SWAP1 POP SWAP1 JUMP JUMPDEST PUSH0 PUSH0 PUSH0 SWAP1 SLOAD SWAP1 PUSH2 0x100 EXP SWAP1 DIV PUSH20 0xFFFFFFFFFFFFFFFFFFFFFFFFFFFFFFFFFFFFFFFF AND PUSH20 0xFFFFFFFFFFFFFFFFFFFFFFFFFFFFFFFFFFFFFFFF AND CALLER PUSH20 0xFFFFFFFFFFFFFFFFFFFFFFFFFFFFFFFFFFFFFFFF AND EQ SWAP1 POP SWAP1 JUMP JUMPDEST PUSH0 PUSH1 0x7 PUSH0 SWAP1 SLOAD SWAP1 PUSH2 0x100 EXP SWAP1 DIV PUSH20 0xFFFFFFFFFFFFFFFFFFFFFFFFFFFFFFFFFFFFFFFF AND PUSH20 0xFFFFFFFFFFFFFFFFFFFFFFFFFFFFFFFFFFFFFFFF AND PUSH4 0xE98B7F4D DUP4 PUSH1 0x40 MLOAD DUP3 PUSH4 0xFFFFFFFF AND PUSH1 0xE0 SHL DUP2 MSTORE PUSH1 0x4 ADD PUSH2 0x448 SWAP2 SWAP1 PUSH2 0xE80 JUMP JUMPDEST PUSH2 0x140 PUSH1 0x40 MLOAD DUP1 DUP4 SUB DUP2 DUP7 GAS STATICCALL ISZERO DUP1 ISZERO PUSH2 0x464 JUMPI RETURNDATASIZE PUSH0 PUSH0 RETURNDATACOPY RETURNDATASIZE PUSH0 REVERT JUMPDEST POP POP POP POP PUSH1 0x40 MLOAD RETURNDATASIZE PUSH1 0x1F NOT PUSH1 0x1F DUP3 ADD AND DUP3 ADD DUP1 PUSH1 0x40 MSTORE POP DUP2 ADD SWAP1 PUSH2 0x488 SWAP2 SWAP1 PUSH2 0xED7 JUMP JUMPDEST SWAP10 POP POP POP POP POP POP POP POP POP POP PUSH2 0x4D3 DUP4 DUP3 PUSH1 0x40 MLOAD DUP1 PUSH1 0x40 ADD PUSH1 0x40 MSTORE DUP1 PUSH1 0x5 DUP2 MSTORE PUSH1 0x20 ADD PUSH32 0x6B69747479000000000000000000000000000000000000000000000000000000 DUP2 MSTORE POP PUSH2 0x556 JUMP JUMPDEST POP POP POP JUMP JUMPDEST PUSH0 PUSH1 0x6 PUSH0 CALLER PUSH20 0xFFFFFFFFFFFFFFFFFFFFFFFFFFFFFFFFFFFFFFFF AND PUSH20 0xFFFFFFFFFFFFFFFFFFFFFFFFFFFFFFFFFFFFFFFF AND DUP2 MSTORE PUSH1 0x20 ADD SWAP1 DUP2 MSTORE PUSH1 0x20 ADD PUSH0 KECCAK256 SLOAD EQ PUSH2 0x520 JUMPI PUSH0 PUSH0 REVERT JUMPDEST PUSH0 PUSH2 0x52A DUP3 PUSH2 0x6E7 JUMP JUMPDEST SWAP1 POP PUSH2 0x536 DUP3 DUP3 PUSH2 0x72A JUMP JUMPDEST POP POP JUMP JUMPDEST PUSH2 0x542 PUSH2 0x398 JUMP JUMPDEST PUSH2 0x54A JUMPI PUSH0 PUSH0 REVERT JUMPDEST PUSH2 0x553 DUP2 PUSH2 0x8F0 JUMP JUMPDEST POP JUMP JUMPDEST CALLER PUSH20 0xFFFFFFFFFFFFFFFFFFFFFFFFFFFFFFFFFFFFFFFF AND PUSH1 0x5 PUSH0 DUP6 DUP2 MSTORE PUSH1 0x20 ADD SWAP1 DUP2 MSTORE PUSH1 0x20 ADD PUSH0 KECCAK256 PUSH0 SWAP1 SLOAD SWAP1 PUSH2 0x100 EXP SWAP1 DIV PUSH20 0xFFFFFFFFFFFFFFFFFFFFFFFFFFFFFFFFFFFFFFFF AND PUSH20 0xFFFFFFFFFFFFFFFFFFFFFFFFFFFFFFFFFFFFFFFF AND EQ PUSH2 0x5BD JUMPI PUSH0 PUSH0 REVERT JUMPDEST PUSH0 PUSH1 0x4 DUP5 DUP2 SLOAD DUP2 LT PUSH2 0x5D2 JUMPI PUSH2 0x5D1 PUSH2 0xFB0 JUMP JUMPDEST JUMPDEST SWAP1 PUSH0 MSTORE PUSH1 0x20 PUSH0 KECCAK256 SWAP1 PUSH1 0x3 MUL ADD SWAP1 POP PUSH1 0x2 SLOAD DUP4 PUSH2 0x5EE SWAP2 SWAP1 PUSH2 0x100A JUMP JUMPDEST SWAP3 POP PUSH2 0x5F9 DUP2 PUSH2 0x9E3 JUMP JUMPDEST PUSH2 0x601 JUMPI PUSH0 PUSH0 REVERT JUMPDEST PUSH0 PUSH1 0x2 DUP3 PUSH1 0x1 ADD SLOAD DUP6 PUSH2 0x614 SWAP2 SWAP1 PUSH2 0x1067 JUMP JUMPDEST PUSH2 0x61E SWAP2 SWAP1 PUSH2 0x109A JUMP JUMPDEST SWAP1 POP PUSH1 0x40 MLOAD PUSH1 0x20 ADD PUSH2 0x62F SWAP1 PUSH2 0x111E JUMP JUMPDEST PUSH1 0x40 MLOAD PUSH1 0x20 DUP2 DUP4 SUB SUB DUP2 MSTORE SWAP1 PUSH1 0x40 MSTORE DUP1 MLOAD SWAP1 PUSH1 0x20 ADD KECCAK256 DUP4 PUSH1 0x40 MLOAD PUSH1 0x20 ADD PUSH2 0x656 SWAP2 SWAP1 PUSH2 0x1162 JUMP JUMPDEST PUSH1 0x40 MLOAD PUSH1 0x20 DUP2 DUP4 SUB SUB DUP2 MSTORE SWAP1 PUSH1 0x40 MSTORE DUP1 MLOAD SWAP1 PUSH1 0x20 ADD KECCAK256 SUB PUSH2 0x698 JUMPI PUSH1 0x63 PUSH1 0x64 DUP3 PUSH2 0x680 SWAP2 SWAP1 PUSH2 0x100A JUMP JUMPDEST DUP3 PUSH2 0x68B SWAP2 SWAP1 PUSH2 0x1178 JUMP JUMPDEST PUSH2 0x695 SWAP2 SWAP1 PUSH2 0x1067 JUMP JUMPDEST SWAP1 POP JUMPDEST PUSH2 0x6D7 PUSH1 0x40 MLOAD DUP1 PUSH1 0x40 ADD PUSH1 0x40 MSTORE DUP1 PUSH1 0x6 DUP2 MSTORE PUSH1 0x20 ADD PUSH32 0x4E6F4E616D650000000000000000000000000000000000000000000000000000 DUP2 MSTORE POP DUP3 PUSH2 0x72A JUMP JUMPDEST PUSH2 0x6E0 DUP3 PUSH2 0xA09 JUMP JUMPDEST POP POP POP POP POP JUMP JUMPDEST PUSH0 PUSH0 DUP3 PUSH1 0x40 MLOAD PUSH1 0x20 ADD PUSH2 0x6FA SWAP2 SWAP1 PUSH2 0x1162 JUMP JUMPDEST PUSH1 0x40 MLOAD PUSH1 0x20 DUP2 DUP4 SUB SUB DUP2 MSTORE SWAP1 PUSH1 0x40 MSTORE DUP1 MLOAD SWAP1 PUSH1 0x20 ADD KECCAK256 PUSH0 SHR SWAP1 POP PUSH1 0x2 SLOAD DUP2 PUSH2 0x722 SWAP2 SWAP1 PUSH2 0x100A JUMP JUMPDEST SWAP2 POP POP SWAP2 SWAP1 POP JUMP JUMPDEST PUSH1 0x4 PUSH1 0x40 MLOAD DUP1 PUSH1 0x80 ADD PUSH1 0x40 MSTORE DUP1 DUP5 DUP2 MSTORE PUSH1 0x20 ADD DUP4 DUP2 MSTORE PUSH1 0x20 ADD PUSH1 0x1 PUSH4 0xFFFFFFFF AND DUP2 MSTORE PUSH1 0x20 ADD PUSH1 0x3 SLOAD TIMESTAMP PUSH2 0x75E SWAP2 SWAP1 PUSH2 0x1067 JUMP JUMPDEST PUSH4 0xFFFFFFFF AND DUP2 MSTORE POP SWAP1 DUP1 PUSH1 0x1 DUP2 SLOAD ADD DUP1 DUP3 SSTORE DUP1 SWAP2 POP POP PUSH1 0x1 SWAP1 SUB SWAP1 PUSH0 MSTORE PUSH1 0x20 PUSH0 KECCAK256 SWAP1 PUSH1 0x3 MUL ADD PUSH0 SWAP1 SWAP2 SWAP1 SWAP2 SWAP1 SWAP2 POP PUSH0 DUP3 ADD MLOAD DUP2 PUSH0 ADD SWAP1 DUP2 PUSH2 0x7A0 SWAP2 SWAP1 PUSH2 0x134B JUMP JUMPDEST POP PUSH1 0x20 DUP3 ADD MLOAD DUP2 PUSH1 0x1 ADD SSTORE PUSH1 0x40 DUP3 ADD MLOAD DUP2 PUSH1 0x2 ADD PUSH0 PUSH2 0x100 EXP DUP2 SLOAD DUP2 PUSH4 0xFFFFFFFF MUL NOT AND SWAP1 DUP4 PUSH4 0xFFFFFFFF AND MUL OR SWAP1 SSTORE POP PUSH1 0x60 DUP3 ADD MLOAD DUP2 PUSH1 0x2 ADD PUSH1 0x4 PUSH2 0x100 EXP DUP2 SLOAD DUP2 PUSH4 0xFFFFFFFF MUL NOT AND SWAP1 DUP4 PUSH4 0xFFFFFFFF AND MUL OR SWAP1 SSTORE POP POP POP PUSH0 PUSH1 0x1 PUSH1 0x4 DUP1 SLOAD SWAP1 POP PUSH2 0x80D SWAP2 SWAP1 PUSH2 0x1178 JUMP JUMPDEST SWAP1 POP CALLER PUSH1 0x5 PUSH0 DUP4 DUP2 MSTORE PUSH1 0x20 ADD SWAP1 DUP2 MSTORE PUSH1 0x20 ADD PUSH0 KECCAK256 PUSH0 PUSH2 0x100 EXP DUP2 SLOAD DUP2 PUSH20 0xFFFFFFFFFFFFFFFFFFFFFFFFFFFFFFFFFFFFFFFF MUL NOT AND SWAP1 DUP4 PUSH20 0xFFFFFFFFFFFFFFFFFFFFFFFFFFFFFFFFFFFFFFFF AND MUL OR SWAP1 SSTORE POP PUSH1 0x6 PUSH0 CALLER PUSH20 0xFFFFFFFFFFFFFFFFFFFFFFFFFFFFFFFFFFFFFFFF AND PUSH20 0xFFFFFFFFFFFFFFFFFFFFFFFFFFFFFFFFFFFFFFFF AND DUP2 MSTORE PUSH1 0x20 ADD SWAP1 DUP2 MSTORE PUSH1 0x20 ADD PUSH0 KECCAK256 PUSH0 DUP2 SLOAD DUP1 SWAP3 SWAP2 SWAP1 PUSH2 0x8AB SWAP1 PUSH2 0x141A JUMP JUMPDEST SWAP2 SWAP1 POP SSTORE POP PUSH32 0x88F026AACBBECC90C18411DF4B1185FD8D9BE2470F1962F192BF84A27D0704B7 DUP2 DUP5 DUP5 PUSH1 0x40 MLOAD PUSH2 0x8E3 SWAP4 SWAP3 SWAP2 SWAP1 PUSH2 0x1461 JUMP JUMPDEST PUSH1 0x40 MLOAD DUP1 SWAP2 SUB SWAP1 LOG1 POP POP POP JUMP JUMPDEST PUSH0 PUSH20 0xFFFFFFFFFFFFFFFFFFFFFFFFFFFFFFFFFFFFFFFF AND DUP2 PUSH20 0xFFFFFFFFFFFFFFFFFFFFFFFFFFFFFFFFFFFFFFFF AND SUB PUSH2 0x927 JUMPI PUSH0 PUSH0 REVERT JUMPDEST DUP1 PUSH20 0xFFFFFFFFFFFFFFFFFFFFFFFFFFFFFFFFFFFFFFFF AND PUSH0 PUSH0 SWAP1 SLOAD SWAP1 PUSH2 0x100 EXP SWAP1 DIV PUSH20 0xFFFFFFFFFFFFFFFFFFFFFFFFFFFFFFFFFFFFFFFF AND PUSH20 0xFFFFFFFFFFFFFFFFFFFFFFFFFFFFFFFFFFFFFFFF AND PUSH32 0x8BE0079C531659141344CD1FD0A4F28419497F9722A3DAAFE3B4186F6B6457E0 PUSH1 0x40 MLOAD PUSH1 0x40 MLOAD DUP1 SWAP2 SUB SWAP1 LOG3 DUP1 PUSH0 PUSH0 PUSH2 0x100 EXP DUP2 SLOAD DUP2 PUSH20 0xFFFFFFFFFFFFFFFFFFFFFFFFFFFFFFFFFFFFFFFF MUL NOT AND SWAP1 DUP4 PUSH20 0xFFFFFFFFFFFFFFFFFFFFFFFFFFFFFFFFFFFFFFFF AND MUL OR SWAP1 SSTORE POP POP JUMP JUMPDEST PUSH0 TIMESTAMP DUP3 PUSH1 0x2 ADD PUSH1 0x4 SWAP1 SLOAD SWAP1 PUSH2 0x100 EXP SWAP1 DIV PUSH4 0xFFFFFFFF AND PUSH4 0xFFFFFFFF AND GT ISZERO SWAP1 POP SWAP2 SWAP1 POP JUMP JUMPDEST PUSH1 0x3 SLOAD TIMESTAMP PUSH2 0xA17 SWAP2 SWAP1 PUSH2 0x1067 JUMP JUMPDEST DUP2 PUSH1 0x2 ADD PUSH1 0x4 PUSH2 0x100 EXP DUP2 SLOAD DUP2 PUSH4 0xFFFFFFFF MUL NOT AND SWAP1 DUP4 PUSH4 0xFFFFFFFF AND MUL OR SWAP1 SSTORE POP POP JUMP JUMPDEST PUSH0 PUSH1 0x40 MLOAD SWAP1 POP SWAP1 JUMP JUMPDEST PUSH0 PUSH0 REVERT JUMPDEST PUSH0 PUSH0 REVERT JUMPDEST PUSH0 DUP2 SWAP1 POP SWAP2 SWAP1 POP JUMP JUMPDEST PUSH2 0xA5F DUP2 PUSH2 0xA4D JUMP JUMPDEST DUP2 EQ PUSH2 0xA69 JUMPI PUSH0 PUSH0 REVERT JUMPDEST POP JUMP JUMPDEST PUSH0 DUP2 CALLDATALOAD SWAP1 POP PUSH2 0xA7A DUP2 PUSH2 0xA56 JUMP JUMPDEST SWAP3 SWAP2 POP POP JUMP JUMPDEST PUSH0 PUSH1 0x20 DUP3 DUP5 SUB SLT ISZERO PUSH2 0xA95 JUMPI PUSH2 0xA94 PUSH2 0xA45 JUMP JUMPDEST JUMPDEST PUSH0 PUSH2 0xAA2 DUP5 DUP3 DUP6 ADD PUSH2 0xA6C JUMP JUMPDEST SWAP2 POP POP SWAP3 SWAP2 POP POP JUMP JUMPDEST PUSH0 DUP2 MLOAD SWAP1 POP SWAP2 SWAP1 POP JUMP JUMPDEST PUSH0 DUP3 DUP3 MSTORE PUSH1 0x20 DUP3 ADD SWAP1 POP SWAP3 SWAP2 POP POP JUMP JUMPDEST DUP3 DUP2 DUP4 MCOPY PUSH0 DUP4 DUP4 ADD MSTORE POP POP POP JUMP JUMPDEST PUSH0 PUSH1 0x1F NOT PUSH1 0x1F DUP4 ADD AND SWAP1 POP SWAP2 SWAP1 POP JUMP JUMPDEST PUSH0 PUSH2 0xAED DUP3 PUSH2 0xAAB JUMP JUMPDEST PUSH2 0xAF7 DUP2 DUP6 PUSH2 0xAB5 JUMP JUMPDEST SWAP4 POP PUSH2 0xB07 DUP2 DUP6 PUSH1 0x20 DUP7 ADD PUSH2 0xAC5 JUMP JUMPDEST PUSH2 0xB10 DUP2 PUSH2 0xAD3 JUMP JUMPDEST DUP5 ADD SWAP2 POP POP SWAP3 SWAP2 POP POP JUMP JUMPDEST PUSH2 0xB24 DUP2 PUSH2 0xA4D JUMP JUMPDEST DUP3 MSTORE POP POP JUMP JUMPDEST PUSH0 PUSH4 0xFFFFFFFF DUP3 AND SWAP1 POP SWAP2 SWAP1 POP JUMP JUMPDEST PUSH2 0xB42 DUP2 PUSH2 0xB2A JUMP JUMPDEST DUP3 MSTORE POP POP JUMP JUMPDEST PUSH0 PUSH1 0x80 DUP3 ADD SWAP1 POP DUP2 DUP2 SUB PUSH0 DUP4 ADD MSTORE PUSH2 0xB60 DUP2 DUP8 PUSH2 0xAE3 JUMP JUMPDEST SWAP1 POP PUSH2 0xB6F PUSH1 0x20 DUP4 ADD DUP7 PUSH2 0xB1B JUMP JUMPDEST PUSH2 0xB7C PUSH1 0x40 DUP4 ADD DUP6 PUSH2 0xB39 JUMP JUMPDEST PUSH2 0xB89 PUSH1 0x60 DUP4 ADD DUP5 PUSH2 0xB39 JUMP JUMPDEST SWAP6 SWAP5 POP POP POP POP POP JUMP JUMPDEST PUSH0 PUSH20 0xFFFFFFFFFFFFFFFFFFFFFFFFFFFFFFFFFFFFFFFF DUP3 AND SWAP1 POP SWAP2 SWAP1 POP JUMP JUMPDEST PUSH0 PUSH2 0xBBB DUP3 PUSH2 0xB92 JUMP JUMPDEST SWAP1 POP SWAP2 SWAP1 POP JUMP JUMPDEST PUSH2 0xBCB DUP2 PUSH2 0xBB1 JUMP JUMPDEST DUP2 EQ PUSH2 0xBD5 JUMPI PUSH0 PUSH0 REVERT JUMPDEST POP JUMP JUMPDEST PUSH0 DUP2 CALLDATALOAD SWAP1 POP PUSH2 0xBE6 DUP2 PUSH2 0xBC2 JUMP JUMPDEST SWAP3 SWAP2 POP POP JUMP JUMPDEST PUSH0 PUSH1 0x20 DUP3 DUP5 SUB SLT ISZERO PUSH2 0xC01 JUMPI PUSH2 0xC00 PUSH2 0xA45 JUMP JUMPDEST JUMPDEST PUSH0 PUSH2 0xC0E DUP5 DUP3 DUP6 ADD PUSH2 0xBD8 JUMP JUMPDEST SWAP2 POP POP SWAP3 SWAP2 POP POP JUMP JUMPDEST PUSH2 0xC20 DUP2 PUSH2 0xBB1 JUMP JUMPDEST DUP3 MSTORE POP POP JUMP JUMPDEST PUSH0 PUSH1 0x20 DUP3 ADD SWAP1 POP PUSH2 0xC39 PUSH0 DUP4 ADD DUP5 PUSH2 0xC17 JUMP JUMPDEST SWAP3 SWAP2 POP POP JUMP JUMPDEST PUSH0 DUP2 ISZERO ISZERO SWAP1 POP SWAP2 SWAP1 POP JUMP JUMPDEST PUSH2 0xC53 DUP2 PUSH2 0xC3F JUMP JUMPDEST DUP3 MSTORE POP POP JUMP JUMPDEST PUSH0 PUSH1 0x20 DUP3 ADD SWAP1 POP PUSH2 0xC6C PUSH0 DUP4 ADD DUP5 PUSH2 0xC4A JUMP JUMPDEST SWAP3 SWAP2 POP POP JUMP JUMPDEST PUSH0 PUSH0 PUSH1 0x40 DUP4 DUP6 SUB SLT ISZERO PUSH2 0xC88 JUMPI PUSH2 0xC87 PUSH2 0xA45 JUMP JUMPDEST JUMPDEST PUSH0 PUSH2 0xC95 DUP6 DUP3 DUP7 ADD PUSH2 0xA6C JUMP JUMPDEST SWAP3 POP POP PUSH1 0x20 PUSH2 0xCA6 DUP6 DUP3 DUP7 ADD PUSH2 0xA6C JUMP JUMPDEST SWAP2 POP POP SWAP3 POP SWAP3 SWAP1 POP JUMP JUMPDEST PUSH0 PUSH0 REVERT JUMPDEST PUSH0 PUSH0 REVERT JUMPDEST PUSH32 0x4E487B7100000000000000000000000000000000000000000000000000000000 PUSH0 MSTORE PUSH1 0x41 PUSH1 0x4 MSTORE PUSH1 0x24 PUSH0 REVERT JUMPDEST PUSH2 0xCEE DUP3 PUSH2 0xAD3 JUMP JUMPDEST DUP2 ADD DUP2 DUP2 LT PUSH8 0xFFFFFFFFFFFFFFFF DUP3 GT OR ISZERO PUSH2 0xD0D JUMPI PUSH2 0xD0C PUSH2 0xCB8 JUMP JUMPDEST JUMPDEST DUP1 PUSH1 0x40 MSTORE POP POP POP JUMP JUMPDEST PUSH0 PUSH2 0xD1F PUSH2 0xA3C JUMP JUMPDEST SWAP1 POP PUSH2 0xD2B DUP3 DUP3 PUSH2 0xCE5 JUMP JUMPDEST SWAP2 SWAP1 POP JUMP JUMPDEST PUSH0 PUSH8 0xFFFFFFFFFFFFFFFF DUP3 GT ISZERO PUSH2 0xD4A JUMPI PUSH2 0xD49 PUSH2 0xCB8 JUMP JUMPDEST JUMPDEST PUSH2 0xD53 DUP3 PUSH2 0xAD3 JUMP JUMPDEST SWAP1 POP PUSH1 0x20 DUP2 ADD SWAP1 POP SWAP2 SWAP1 POP JUMP JUMPDEST DUP3 DUP2 DUP4 CALLDATACOPY PUSH0 DUP4 DUP4 ADD MSTORE POP POP POP JUMP JUMPDEST PUSH0 PUSH2 0xD80 PUSH2 0xD7B DUP5 PUSH2 0xD30 JUMP JUMPDEST PUSH2 0xD16 JUMP JUMPDEST SWAP1 POP DUP3 DUP2 MSTORE PUSH1 0x20 DUP2 ADD DUP5 DUP5 DUP5 ADD GT ISZERO PUSH2 0xD9C JUMPI PUSH2 0xD9B PUSH2 0xCB4 JUMP JUMPDEST JUMPDEST PUSH2 0xDA7 DUP5 DUP3 DUP6 PUSH2 0xD60 JUMP JUMPDEST POP SWAP4 SWAP3 POP POP POP JUMP JUMPDEST PUSH0 DUP3 PUSH1 0x1F DUP4 ADD SLT PUSH2 0xDC3 JUMPI PUSH2 0xDC2 PUSH2 0xCB0 JUMP JUMPDEST JUMPDEST DUP2 CALLDATALOAD PUSH2 0xDD3 DUP5 DUP3 PUSH1 0x20 DUP7 ADD PUSH2 0xD6E JUMP JUMPDEST SWAP2 POP POP SWAP3 SWAP2 POP POP JUMP JUMPDEST PUSH0 PUSH1 0x20 DUP3 DUP5 SUB SLT ISZERO PUSH2 0xDF1 JUMPI PUSH2 0xDF0 PUSH2 0xA45 JUMP JUMPDEST JUMPDEST PUSH0 DUP3 ADD CALLDATALOAD PUSH8 0xFFFFFFFFFFFFFFFF DUP2 GT ISZERO PUSH2 0xE0E JUMPI PUSH2 0xE0D PUSH2 0xA49 JUMP JUMPDEST JUMPDEST PUSH2 0xE1A DUP5 DUP3 DUP6 ADD PUSH2 0xDAF JUMP JUMPDEST SWAP2 POP POP SWAP3 SWAP2 POP POP JUMP JUMPDEST PUSH32 0x4E487B7100000000000000000000000000000000000000000000000000000000 PUSH0 MSTORE PUSH1 0x22 PUSH1 0x4 MSTORE PUSH1 0x24 PUSH0 REVERT JUMPDEST PUSH0 PUSH1 0x2 DUP3 DIV SWAP1 POP PUSH1 0x1 DUP3 AND DUP1 PUSH2 0xE67 JUMPI PUSH1 0x7F DUP3 AND SWAP2 POP JUMPDEST PUSH1 0x20 DUP3 LT DUP2 SUB PUSH2 0xE7A JUMPI PUSH2 0xE79 PUSH2 0xE23 JUMP JUMPDEST JUMPDEST POP SWAP2 SWAP1 POP JUMP JUMPDEST PUSH0 PUSH1 0x20 DUP3 ADD SWAP1 POP PUSH2 0xE93 PUSH0 DUP4 ADD DUP5 PUSH2 0xB1B JUMP JUMPDEST SWAP3 SWAP2 POP POP JUMP JUMPDEST PUSH2 0xEA2 DUP2 PUSH2 0xC3F JUMP JUMPDEST DUP2 EQ PUSH2 0xEAC JUMPI PUSH0 PUSH0 REVERT JUMPDEST POP JUMP JUMPDEST PUSH0 DUP2 MLOAD SWAP1 POP PUSH2 0xEBD DUP2 PUSH2 0xE99 JUMP JUMPDEST SWAP3 SWAP2 POP POP JUMP JUMPDEST PUSH0 DUP2 MLOAD SWAP1 POP PUSH2 0xED1 DUP2 PUSH2 0xA56 JUMP JUMPDEST SWAP3 SWAP2 POP POP JUMP JUMPDEST PUSH0 PUSH0 PUSH0 PUSH0 PUSH0 PUSH0 PUSH0 PUSH0 PUSH0 PUSH0 PUSH2 0x140 DUP12 DUP14 SUB SLT ISZERO PUSH2 0xEF6 JUMPI PUSH2 0xEF5 PUSH2 0xA45 JUMP JUMPDEST JUMPDEST PUSH0 PUSH2 0xF03 DUP14 DUP3 DUP15 ADD PUSH2 0xEAF JUMP JUMPDEST SWAP11 POP POP PUSH1 0x20 PUSH2 0xF14 DUP14 DUP3 DUP15 ADD PUSH2 0xEAF JUMP JUMPDEST SWAP10 POP POP PUSH1 0x40 PUSH2 0xF25 DUP14 DUP3 DUP15 ADD PUSH2 0xEC3 JUMP JUMPDEST SWAP9 POP POP PUSH1 0x60 PUSH2 0xF36 DUP14 DUP3 DUP15 ADD PUSH2 0xEC3 JUMP JUMPDEST SWAP8 POP POP PUSH1 0x80 PUSH2 0xF47 DUP14 DUP3 DUP15 ADD PUSH2 0xEC3 JUMP JUMPDEST SWAP7 POP POP PUSH1 0xA0 PUSH2 0xF58 DUP14 DUP3 DUP15 ADD PUSH2 0xEC3 JUMP JUMPDEST SWAP6 POP POP PUSH1 0xC0 PUSH2 0xF69 DUP14 DUP3 DUP15 ADD PUSH2 0xEC3 JUMP JUMPDEST SWAP5 POP POP PUSH1 0xE0 PUSH2 0xF7A DUP14 DUP3 DUP15 ADD PUSH2 0xEC3 JUMP JUMPDEST SWAP4 POP POP PUSH2 0x100 PUSH2 0xF8C DUP14 DUP3 DUP15 ADD PUSH2 0xEC3 JUMP JUMPDEST SWAP3 POP POP PUSH2 0x120 PUSH2 0xF9E DUP14 DUP3 DUP15 ADD PUSH2 0xEC3 JUMP JUMPDEST SWAP2 POP POP SWAP3 SWAP6 SWAP9 SWAP12 SWAP2 SWAP5 SWAP8 SWAP11 POP SWAP3 SWAP6 SWAP9 POP JUMP JUMPDEST PUSH32 0x4E487B7100000000000000000000000000000000000000000000000000000000 PUSH0 MSTORE PUSH1 0x32 PUSH1 0x4 MSTORE PUSH1 0x24 PUSH0 REVERT JUMPDEST PUSH32 0x4E487B7100000000000000000000000000000000000000000000000000000000 PUSH0 MSTORE PUSH1 0x12 PUSH1 0x4 MSTORE PUSH1 0x24 PUSH0 REVERT JUMPDEST PUSH0 PUSH2 0x1014 DUP3 PUSH2 0xA4D JUMP JUMPDEST SWAP2 POP PUSH2 0x101F DUP4 PUSH2 0xA4D JUMP JUMPDEST SWAP3 POP DUP3 PUSH2 0x102F JUMPI PUSH2 0x102E PUSH2 0xFDD JUMP JUMPDEST JUMPDEST DUP3 DUP3 MOD SWAP1 POP SWAP3 SWAP2 POP POP JUMP JUMPDEST PUSH32 0x4E487B7100000000000000000000000000000000000000000000000000000000 PUSH0 MSTORE PUSH1 0x11 PUSH1 0x4 MSTORE PUSH1 0x24 PUSH0 REVERT JUMPDEST PUSH0 PUSH2 0x1071 DUP3 PUSH2 0xA4D JUMP JUMPDEST SWAP2 POP PUSH2 0x107C DUP4 PUSH2 0xA4D JUMP JUMPDEST SWAP3 POP DUP3 DUP3 ADD SWAP1 POP DUP1 DUP3 GT ISZERO PUSH2 0x1094 JUMPI PUSH2 0x1093 PUSH2 0x103A JUMP JUMPDEST JUMPDEST SWAP3 SWAP2 POP POP JUMP JUMPDEST PUSH0 PUSH2 0x10A4 DUP3 PUSH2 0xA4D JUMP JUMPDEST SWAP2 POP PUSH2 0x10AF DUP4 PUSH2 0xA4D JUMP JUMPDEST SWAP3 POP DUP3 PUSH2 0x10BF JUMPI PUSH2 0x10BE PUSH2 0xFDD JUMP JUMPDEST JUMPDEST DUP3 DUP3 DIV SWAP1 POP SWAP3 SWAP2 POP POP JUMP JUMPDEST PUSH0 DUP2 SWAP1 POP SWAP3 SWAP2 POP POP JUMP JUMPDEST PUSH32 0x6B69747479000000000000000000000000000000000000000000000000000000 PUSH0 DUP3 ADD MSTORE POP JUMP JUMPDEST PUSH0 PUSH2 0x1108 PUSH1 0x5 DUP4 PUSH2 0x10CA JUMP JUMPDEST SWAP2 POP PUSH2 0x1113 DUP3 PUSH2 0x10D4 JUMP JUMPDEST PUSH1 0x5 DUP3 ADD SWAP1 POP SWAP2 SWAP1 POP JUMP JUMPDEST PUSH0 PUSH2 0x1128 DUP3 PUSH2 0x10FC JUMP JUMPDEST SWAP2 POP DUP2 SWAP1 POP SWAP2 SWAP1 POP JUMP JUMPDEST PUSH0 PUSH2 0x113C DUP3 PUSH2 0xAAB JUMP JUMPDEST PUSH2 0x1146 DUP2 DUP6 PUSH2 0x10CA JUMP JUMPDEST SWAP4 POP PUSH2 0x1156 DUP2 DUP6 PUSH1 0x20 DUP7 ADD PUSH2 0xAC5 JUMP JUMPDEST DUP1 DUP5 ADD SWAP2 POP POP SWAP3 SWAP2 POP POP JUMP JUMPDEST PUSH0 PUSH2 0x116D DUP3 DUP5 PUSH2 0x1132 JUMP JUMPDEST SWAP2 POP DUP2 SWAP1 POP SWAP3 SWAP2 POP POP JUMP JUMPDEST PUSH0 PUSH2 0x1182 DUP3 PUSH2 0xA4D JUMP JUMPDEST SWAP2 POP PUSH2 0x118D DUP4 PUSH2 0xA4D JUMP JUMPDEST SWAP3 POP DUP3 DUP3 SUB SWAP1 POP DUP2 DUP2 GT ISZERO PUSH2 0x11A5 JUMPI PUSH2 0x11A4 PUSH2 0x103A JUMP JUMPDEST JUMPDEST SWAP3 SWAP2 POP POP JUMP JUMPDEST PUSH0 DUP2 SWAP1 POP DUP2 PUSH0 MSTORE PUSH1 0x20 PUSH0 KECCAK256 SWAP1 POP SWAP2 SWAP1 POP JUMP JUMPDEST PUSH0 PUSH1 0x20 PUSH1 0x1F DUP4 ADD DIV SWAP1 POP SWAP2 SWAP1 POP JUMP JUMPDEST PUSH0 DUP3 DUP3 SHL SWAP1 POP SWAP3 SWAP2 POP POP JUMP JUMPDEST PUSH0 PUSH1 0x8 DUP4 MUL PUSH2 0x1207 PUSH32 0xFFFFFFFFFFFFFFFFFFFFFFFFFFFFFFFFFFFFFFFFFFFFFFFFFFFFFFFFFFFFFFFF DUP3 PUSH2 0x11CC JUMP JUMPDEST PUSH2 0x1211 DUP7 DUP4 PUSH2 0x11CC JUMP JUMPDEST SWAP6 POP DUP1 NOT DUP5 AND SWAP4 POP DUP1 DUP7 AND DUP5 OR SWAP3 POP POP POP SWAP4 SWAP3 POP POP POP JUMP JUMPDEST PUSH0 DUP2 SWAP1 POP SWAP2 SWAP1 POP JUMP JUMPDEST PUSH0 PUSH2 0x124C PUSH2 0x1247 PUSH2 0x1242 DUP5 PUSH2 0xA4D JUMP JUMPDEST PUSH2 0x1229 JUMP JUMPDEST PUSH2 0xA4D JUMP JUMPDEST SWAP1 POP SWAP2 SWAP1 POP JUMP JUMPDEST PUSH0 DUP2 SWAP1 POP SWAP2 SWAP1 POP JUMP JUMPDEST PUSH2 0x1265 DUP4 PUSH2 0x1232 JUMP JUMPDEST PUSH2 0x1279 PUSH2 0x1271 DUP3 PUSH2 0x1253 JUMP JUMPDEST DUP5 DUP5 SLOAD PUSH2 0x11D8 JUMP JUMPDEST DUP3 SSTORE POP POP POP POP JUMP JUMPDEST PUSH0 PUSH0 SWAP1 POP SWAP1 JUMP JUMPDEST PUSH2 0x1290 PUSH2 0x1281 JUMP JUMPDEST PUSH2 0x129B DUP2 DUP5 DUP5 PUSH2 0x125C JUMP JUMPDEST POP POP POP JUMP JUMPDEST JUMPDEST DUP2 DUP2 LT ISZERO PUSH2 0x12BE JUMPI PUSH2 0x12B3 PUSH0 DUP3 PUSH2 0x1288 JUMP JUMPDEST PUSH1 0x1 DUP2 ADD SWAP1 POP PUSH2 0x12A1 JUMP JUMPDEST POP POP JUMP JUMPDEST PUSH1 0x1F DUP3 GT ISZERO PUSH2 0x1303 JUMPI PUSH2 0x12D4 DUP2 PUSH2 0x11AB JUMP JUMPDEST PUSH2 0x12DD DUP5 PUSH2 0x11BD JUMP JUMPDEST DUP2 ADD PUSH1 0x20 DUP6 LT ISZERO PUSH2 0x12EC JUMPI DUP2 SWAP1 POP JUMPDEST PUSH2 0x1300 PUSH2 0x12F8 DUP6 PUSH2 0x11BD JUMP JUMPDEST DUP4 ADD DUP3 PUSH2 0x12A0 JUMP JUMPDEST POP POP JUMPDEST POP POP POP JUMP JUMPDEST PUSH0 DUP3 DUP3 SHR SWAP1 POP SWAP3 SWAP2 POP POP JUMP JUMPDEST PUSH0 PUSH2 0x1323 PUSH0 NOT DUP5 PUSH1 0x8 MUL PUSH2 0x1308 JUMP JUMPDEST NOT DUP1 DUP4 AND SWAP2 POP POP SWAP3 SWAP2 POP POP JUMP JUMPDEST PUSH0 PUSH2 0x133B DUP4 DUP4 PUSH2 0x1314 JUMP JUMPDEST SWAP2 POP DUP3 PUSH1 0x2 MUL DUP3 OR SWAP1 POP SWAP3 SWAP2 POP POP JUMP JUMPDEST PUSH2 0x1354 DUP3 PUSH2 0xAAB JUMP JUMPDEST PUSH8 0xFFFFFFFFFFFFFFFF DUP2 GT ISZERO PUSH2 0x136D JUMPI PUSH2 0x136C PUSH2 0xCB8 JUMP JUMPDEST JUMPDEST PUSH2 0x1377 DUP3 SLOAD PUSH2 0xE50 JUMP JUMPDEST PUSH2 0x1382 DUP3 DUP3 DUP6 PUSH2 0x12C2 JUMP JUMPDEST PUSH0 PUSH1 0x20 SWAP1 POP PUSH1 0x1F DUP4 GT PUSH1 0x1 DUP2 EQ PUSH2 0x13B3 JUMPI PUSH0 DUP5 ISZERO PUSH2 0x13A1 JUMPI DUP3 DUP8 ADD MLOAD SWAP1 POP JUMPDEST PUSH2 0x13AB DUP6 DUP3 PUSH2 0x1330 JUMP JUMPDEST DUP7 SSTORE POP PUSH2 0x1412 JUMP JUMPDEST PUSH1 0x1F NOT DUP5 AND PUSH2 0x13C1 DUP7 PUSH2 0x11AB JUMP JUMPDEST PUSH0 JUMPDEST DUP3 DUP2 LT ISZERO PUSH2 0x13E8 JUMPI DUP5 DUP10 ADD MLOAD DUP3 SSTORE PUSH1 0x1 DUP3 ADD SWAP2 POP PUSH1 0x20 DUP6 ADD SWAP5 POP PUSH1 0x20 DUP2 ADD SWAP1 POP PUSH2 0x13C3 JUMP JUMPDEST DUP7 DUP4 LT ISZERO PUSH2 0x1405 JUMPI DUP5 DUP10 ADD MLOAD PUSH2 0x1401 PUSH1 0x1F DUP10 AND DUP3 PUSH2 0x1314 JUMP JUMPDEST DUP4 SSTORE POP JUMPDEST PUSH1 0x1 PUSH1 0x2 DUP9 MUL ADD DUP9 SSTORE POP POP POP JUMPDEST POP POP POP POP POP POP JUMP JUMPDEST PUSH0 PUSH2 0x1424 DUP3 PUSH2 0xA4D JUMP JUMPDEST SWAP2 POP PUSH32 0xFFFFFFFFFFFFFFFFFFFFFFFFFFFFFFFFFFFFFFFFFFFFFFFFFFFFFFFFFFFFFFFF DUP3 SUB PUSH2 0x1456 JUMPI PUSH2 0x1455 PUSH2 0x103A JUMP JUMPDEST JUMPDEST PUSH1 0x1 DUP3 ADD SWAP1 POP SWAP2 SWAP1 POP JUMP JUMPDEST PUSH0 PUSH1 0x60 DUP3 ADD SWAP1 POP PUSH2 0x1474 PUSH0 DUP4 ADD DUP7 PUSH2 0xB1B JUMP JUMPDEST DUP2 DUP2 SUB PUSH1 0x20 DUP4 ADD MSTORE PUSH2 0x1486 DUP2 DUP6 PUSH2 0xAE3 JUMP JUMPDEST SWAP1 POP PUSH2 0x1495 PUSH1 0x40 DUP4 ADD DUP5 PUSH2 0xB1B JUMP JUMPDEST SWAP5 SWAP4 POP POP POP POP JUMP INVALID LOG2 PUSH5 0x6970667358 0x22 SLT KECCAK256 0xAA 0xD0 0xDC JUMPDEST CALLVALUE 0xBD 0xC9 0xD CALLCODE 0xA5 TIMESTAMP DATALOADN 0xE619 SELFBALANCE 0xEB GASLIMIT GASLIMIT XOR JUMP PUSH7 0x77F4386BAF8645 0x1F EOFCREATE 0xAC 0xD4 PUSH5 0x736F6C6343 STOP ADDMOD 0x1E STOP CALLER "
				},
				"gasEstimates": {
					"creation": {
						"codeDepositCost": "1066200",
						"executionCost": "infinite",
						"totalCost": "infinite"
					},
					"external": {
						"createZombie(string)": "infinite",
						"feeOnKitty(uint256,uint256)": "infinite",
						"isOwner()": "2489",
						"owner()": "2581",
						"renounceOwnership()": "30332",
						"setKittyContractAddress(address)": "26940",
						"transferOwnership(address)": "30724",
						"zombies(uint256)": "infinite"
					},
					"internal": {
						"_isReady(struct ZombieFactory.Zombie storage pointer)": "2233",
						"_triggerCooldown(struct ZombieFactory.Zombie storage pointer)": "infinite",
						"feeAndMultiply(uint256,uint256,string memory)": "infinite"
					}
				},
				"methodIdentifiers": {
					"createZombie(string)": "ad822778",
					"feeOnKitty(uint256,uint256)": "9ef0fe03",
					"isOwner()": "8f32d59b",
					"owner()": "8da5cb5b",
					"renounceOwnership()": "715018a6",
					"setKittyContractAddress(address)": "5f4623f1",
					"transferOwnership(address)": "f2fde38b",
					"zombies(uint256)": "2052465e"
				}
			},
			"storageLayout": {
				"storage": [
					{
						"astId": 4,
						"contract": "contracts/zombiefeeding.sol:ZombieFeeding",
						"label": "_owner",
						"offset": 0,
						"slot": "0",
						"type": "t_address"
					},
					{
						"astId": 137,
						"contract": "contracts/zombiefeeding.sol:ZombieFeeding",
						"label": "dnaDigits",
						"offset": 0,
						"slot": "1",
						"type": "t_uint256"
					},
					{
						"astId": 142,
						"contract": "contracts/zombiefeeding.sol:ZombieFeeding",
						"label": "dnaModulus",
						"offset": 0,
						"slot": "2",
						"type": "t_uint256"
					},
					{
						"astId": 145,
						"contract": "contracts/zombiefeeding.sol:ZombieFeeding",
						"label": "cooldownTime",
						"offset": 0,
						"slot": "3",
						"type": "t_uint256"
					},
					{
						"astId": 158,
						"contract": "contracts/zombiefeeding.sol:ZombieFeeding",
						"label": "zombies",
						"offset": 0,
						"slot": "4",
						"type": "t_array(t_struct(Zombie)154_storage)dyn_storage"
					},
					{
						"astId": 162,
						"contract": "contracts/zombiefeeding.sol:ZombieFeeding",
						"label": "zombieToOwner",
						"offset": 0,
						"slot": "5",
						"type": "t_mapping(t_uint256,t_address)"
					},
					{
						"astId": 166,
						"contract": "contracts/zombiefeeding.sol:ZombieFeeding",
						"label": "ownerZombieCount",
						"offset": 0,
						"slot": "6",
						"type": "t_mapping(t_address,t_uint256)"
					},
					{
						"astId": 303,
						"contract": "contracts/zombiefeeding.sol:ZombieFeeding",
						"label": "kittyContract",
						"offset": 0,
						"slot": "7",
						"type": "t_contract(KittyInterface)298"
					}
				],
				"types": {
					"t_address": {
						"encoding": "inplace",
						"label": "address",
						"numberOfBytes": "20"
					},
					"t_array(t_struct(Zombie)154_storage)dyn_storage": {
						"base": "t_struct(Zombie)154_storage",
						"encoding": "dynamic_array",
						"label": "struct ZombieFactory.Zombie[]",
						"numberOfBytes": "32"
					},
					"t_contract(KittyInterface)298": {
						"encoding": "inplace",
						"label": "contract KittyInterface",
						"numberOfBytes": "20"
					},
					"t_mapping(t_address,t_uint256)": {
						"encoding": "mapping",
						"key": "t_address",
						"label": "mapping(address => uint256)",
						"numberOfBytes": "32",
						"value": "t_uint256"
					},
					"t_mapping(t_uint256,t_address)": {
						"encoding": "mapping",
						"key": "t_uint256",
						"label": "mapping(uint256 => address)",
						"numberOfBytes": "32",
						"value": "t_address"
					},
					"t_string_storage": {
						"encoding": "bytes",
						"label": "string",
						"numberOfBytes": "32"
					},
					"t_struct(Zombie)154_storage": {
						"encoding": "inplace",
						"label": "struct ZombieFactory.Zombie",
						"members": [
							{
								"astId": 147,
								"contract": "contracts/zombiefeeding.sol:ZombieFeeding",
								"label": "name",
								"offset": 0,
								"slot": "0",
								"type": "t_string_storage"
							},
							{
								"astId": 149,
								"contract": "contracts/zombiefeeding.sol:ZombieFeeding",
								"label": "dna",
								"offset": 0,
								"slot": "1",
								"type": "t_uint256"
							},
							{
								"astId": 151,
								"contract": "contracts/zombiefeeding.sol:ZombieFeeding",
								"label": "level",
								"offset": 0,
								"slot": "2",
								"type": "t_uint32"
							},
							{
								"astId": 153,
								"contract": "contracts/zombiefeeding.sol:ZombieFeeding",
								"label": "readyTime",
								"offset": 4,
								"slot": "2",
								"type": "t_uint32"
							}
						],
						"numberOfBytes": "96"
					},
					"t_uint256": {
						"encoding": "inplace",
						"label": "uint256",
						"numberOfBytes": "32"
					},
					"t_uint32": {
						"encoding": "inplace",
						"label": "uint32",
						"numberOfBytes": "4"
					}
				}
			},
			"userdoc": {
				"events": {
					"NewZombie(uint256,string,uint256)": {
						"notice": "Events are a way for your contract to communicate that something happened on the blockchain to your app front-end, which can be 'listening' for certain events and take action when they happen. 用于前端监听你的智能合约发生了什么事件，并针对事件做出后续处理逻   辑*"
					}
				},
				"kind": "user",
				"methods": {
					"renounceOwnership()": {
						"notice": "Renouncing to ownership will leave the contract without an owner. It will not be possible to call the functions with the `onlyOwner` modifier anymore."
					}
				},
				"version": 1
			}
		}
	}
}